{"abi":[{"anonymous":false,"inputs":[{"indexed":false,"internalType":"uint8","name":"version","type":"uint8"}],"name":"Initialized","type":"event"},{"anonymous":false,"inputs":[{"indexed":true,"internalType":"address","name":"previousOwner","type":"address"},{"indexed":true,"internalType":"address","name":"newOwner","type":"address"}],"name":"OwnershipTransferred","type":"event"},{"anonymous":false,"inputs":[{"indexed":false,"internalType":"address","name":"_voter","type":"address"}],"name":"assigned_voting_rights","type":"event"},{"anonymous":false,"inputs":[{"indexed":false,"internalType":"uint256","name":"_ballot_type","type":"uint256"}],"name":"created_ballot","type":"event"},{"anonymous":false,"inputs":[{"indexed":false,"internalType":"string","name":"_ballot_id","type":"string"}],"name":"ended_ballot","type":"event"},{"anonymous":false,"inputs":[{"indexed":false,"internalType":"bytes32","name":"_voter_unique_id","type":"bytes32"}],"name":"registered_voter","type":"event"},{"anonymous":false,"inputs":[{"indexed":false,"internalType":"bool","name":"_tie","type":"bool"}],"name":"tied_ballot","type":"event"},{"anonymous":false,"inputs":[{"indexed":true,"internalType":"address","name":"_candidate","type":"address"}],"name":"voted","type":"event"},{"inputs":[{"internalType":"address","name":"_voter","type":"address"},{"internalType":"string","name":"_ballot_id","type":"string"}],"name":"assign_voting_rights","outputs":[],"stateMutability":"nonpayable","type":"function"},{"inputs":[{"internalType":"string","name":"_ballot_id","type":"string"},{"internalType":"string","name":"_ballot_name","type":"string"},{"internalType":"address[]","name":"_ballot_candidates_addr","type":"address[]"},{"internalType":"uint256","name":"_ballot_type","type":"uint256"},{"internalType":"uint256","name":"_days","type":"uint256"},{"internalType":"uint256","name":"_registration_period","type":"uint256"}],"name":"create_ballot","outputs":[],"stateMutability":"payable","type":"function"},{"inputs":[{"internalType":"uint256","name":"_ballot_type","type":"uint256"},{"internalType":"string","name":"_ballot_name","type":"string"}],"name":"create_ballot_type","outputs":[],"stateMutability":"nonpayable","type":"function"},{"inputs":[{"internalType":"string","name":"_ballot_id","type":"string"}],"name":"end_ballot","outputs":[],"stateMutability":"nonpayable","type":"function"},{"inputs":[{"internalType":"string","name":"_ballot_id","type":"string"}],"name":"get_ballot","outputs":[{"components":[{"internalType":"string","name":"ballot_id","type":"string"},{"internalType":"uint256","name":"ballot_type","type":"uint256"},{"internalType":"string","name":"ballot_name","type":"string"},{"internalType":"address","name":"chair","type":"address"},{"internalType":"uint256","name":"voters_count","type":"uint256"},{"internalType":"uint256","name":"open_date","type":"uint256"},{"internalType":"uint256","name":"_days","type":"uint256"},{"internalType":"bool","name":"expired","type":"bool"},{"internalType":"uint256","name":"registration_window","type":"uint256"},{"internalType":"address","name":"current_winner","type":"address"},{"internalType":"bool","name":"tie","type":"bool"}],"internalType":"struct IJamiiFactory.Ballot","name":"","type":"tuple"}],"stateMutability":"view","type":"function"},{"inputs":[{"internalType":"address","name":"_candidate_addr","type":"address"}],"name":"get_candidate","outputs":[{"components":[{"internalType":"uint256","name":"candidate_id","type":"uint256"},{"internalType":"string","name":"ballot_id","type":"string"},{"internalType":"address","name":"candidate_address","type":"address"},{"internalType":"uint256","name":"vote_count","type":"uint256"}],"internalType":"struct IJamiiFactory.Candidate","name":"","type":"tuple"}],"stateMutability":"view","type":"function"},{"inputs":[{"internalType":"string","name":"_ballot_id","type":"string"}],"name":"get_candidates","outputs":[{"internalType":"address[]","name":"","type":"address[]"}],"stateMutability":"view","type":"function"},{"inputs":[{"internalType":"address","name":"_voter_address","type":"address"},{"internalType":"string","name":"_ballot_id","type":"string"}],"name":"get_voter","outputs":[{"components":[{"internalType":"uint256","name":"voter_id","type":"uint256"},{"internalType":"address","name":"voter_address","type":"address"},{"internalType":"string","name":"ballot_id","type":"string"},{"internalType":"bool","name":"registered","type":"bool"},{"internalType":"bool","name":"rights","type":"bool"},{"internalType":"bool","name":"voted","type":"bool"},{"internalType":"bytes32","name":"unique_voter_id","type":"bytes32"}],"internalType":"struct IJamiiFactory.Voter","name":"","type":"tuple"}],"stateMutability":"view","type":"function"},{"inputs":[{"internalType":"string","name":"_ballot_id","type":"string"}],"name":"get_voters","outputs":[{"internalType":"address[]","name":"","type":"address[]"}],"stateMutability":"view","type":"function"},{"inputs":[{"internalType":"string","name":"_ballot_id","type":"string"}],"name":"get_winner","outputs":[{"internalType":"address","name":"","type":"address"}],"stateMutability":"nonpayable","type":"function"},{"inputs":[{"internalType":"string","name":"_arbitrary_text","type":"string"}],"name":"initialize","outputs":[],"stateMutability":"nonpayable","type":"function"},{"inputs":[],"name":"owner","outputs":[{"internalType":"address","name":"","type":"address"}],"stateMutability":"view","type":"function"},{"inputs":[{"internalType":"uint256","name":"_id_number","type":"uint256"},{"internalType":"string","name":"_ballot_id","type":"string"}],"name":"register_voter","outputs":[],"stateMutability":"nonpayable","type":"function"},{"inputs":[],"name":"renounceOwnership","outputs":[],"stateMutability":"nonpayable","type":"function"},{"inputs":[{"internalType":"address","name":"newOwner","type":"address"}],"name":"transferOwnership","outputs":[],"stateMutability":"nonpayable","type":"function"},{"inputs":[{"internalType":"address","name":"_candidate","type":"address"},{"internalType":"string","name":"_ballot_id","type":"string"}],"name":"vote","outputs":[],"stateMutability":"nonpayable","type":"function"},{"inputs":[],"name":"withdraw","outputs":[],"stateMutability":"nonpayable","type":"function"}],"bytecode":"662386f26fc10000606a5561012060405260006080908152600160a052600260c052600360e0526004610100526200003c90606d90600562000057565b50606d54606e553480156200005057600080fd5b50620000c3565b8280548282559060005260206000209081019282156200009a579160200282015b828111156200009a578251829060ff1690559160200191906001019062000078565b50620000a8929150620000ac565b5090565b5b80821115620000a85760008155600101620000ad565b61557c80620000d36000396000f3fe6080604052600436106100fe5760003560e01c8063715018a611610095578063e812c6f411610064578063e812c6f4146102b5578063e8636516146102d5578063f2fde38b146102f5578063f62d188814610315578063f9efac791461033557600080fd5b8063715018a6146102355780638da5cb5b1461024a578063953ef76d14610268578063adbdbc971461029557600080fd5b80633a99495e116100d15780633a99495e146101c05780633ccfd60b146101ed578063697319d7146102025780636cd5d4421461022257600080fd5b8063143b02f21461010357806316397337146101395780631bf533a4146101715780632a8f18bd14610193575b600080fd5b34801561010f57600080fd5b5061012361011e366004614f25565b610355565b6040516101309190614f62565b60405180910390f35b34801561014557600080fd5b50610159610154366004614f25565b6105d1565b6040516001600160a01b039091168152602001610130565b34801561017d57600080fd5b5061019161018c366004614fcb565b610ac4565b005b34801561019f57600080fd5b506101b36101ae366004614fcb565b61111a565b6040516101309190615075565b3480156101cc57600080fd5b506101e06101db366004614f25565b61145a565b60405161013091906150e8565b3480156101f957600080fd5b50610191611891565b34801561020e57600080fd5b5061019161021d366004614fcb565b6118d5565b6101916102303660046151ba565b611cb1565b34801561024157600080fd5b50610191612137565b34801561025657600080fd5b506033546001600160a01b0316610159565b34801561027457600080fd5b506102886102833660046152c8565b61214b565b60405161013091906152ea565b3480156102a157600080fd5b506101916102b036600461533b565b612469565b3480156102c157600080fd5b506101916102d0366004614f25565b612525565b3480156102e157600080fd5b506101916102f036600461533b565b612662565b34801561030157600080fd5b506101916103103660046152c8565b612ca3565b34801561032157600080fd5b50610191610330366004614f25565b612d19565b34801561034157600080fd5b50610123610350366004614f25565b612e2b565b6060816000606f8260405161036a919061536c565b90815260200160405180910390206040518061016001604052908160008201805461039490615388565b80601f01602080910402602001604051908101604052809291908181526020018280546103c090615388565b801561040d5780601f106103e25761010080835404028352916020019161040d565b820191906000526020600020905b8154815290600101906020018083116103f057829003601f168201915b505050505081526020016001820154815260200160028201805461043090615388565b80601f016020809104026020016040519081016040528092919081815260200182805461045c90615388565b80156104a95780601f1061047e576101008083540402835291602001916104a9565b820191906000526020600020905b81548152906001019060200180831161048c57829003601f168201915b505050918352505060038201546001600160a01b0390811660208084019190915260048085015460408501526005850154606085015260068501546080850152600785015460ff908116151560a0860152600886015460c086015260099095015492831660e0850152600160a01b90920490931615156101009092019190915290820151919250116105565760405162461bcd60e51b815260040161054d906153c3565b60405180910390fd5b607184604051610566919061536c565b90815260408051918290036020908101832080548083028501830190935282845291908301828280156105c257602002820191906000526020600020905b81546001600160a01b031681526001909101906020018083116105a4575b505050505092505b5050919050565b6000816000606f826040516105e6919061536c565b90815260200160405180910390206040518061016001604052908160008201805461061090615388565b80601f016020809104026020016040519081016040528092919081815260200182805461063c90615388565b80156106895780601f1061065e57610100808354040283529160200191610689565b820191906000526020600020905b81548152906001019060200180831161066c57829003601f168201915b50505050508152602001600182015481526020016002820180546106ac90615388565b80601f01602080910402602001604051908101604052809291908181526020018280546106d890615388565b80156107255780601f106106fa57610100808354040283529160200191610725565b820191906000526020600020905b81548152906001019060200180831161070857829003601f168201915b505050918352505060038201546001600160a01b0390811660208084019190915260048085015460408501526005850154606085015260068501546080850152600785015460ff908116151560a0860152600886015460c086015260099095015492831660e0850152600160a01b90920490931615156101009092019190915290820151919250116107c95760405162461bcd60e51b815260040161054d906153c3565b6000606f856040516107db919061536c565b90815260200160405180910390206040518061016001604052908160008201805461080590615388565b80601f016020809104026020016040519081016040528092919081815260200182805461083190615388565b801561087e5780601f106108535761010080835404028352916020019161087e565b820191906000526020600020905b81548152906001019060200180831161086157829003601f168201915b50505050508152602001600182015481526020016002820180546108a190615388565b80601f01602080910402602001604051908101604052809291908181526020018280546108cd90615388565b801561091a5780601f106108ef5761010080835404028352916020019161091a565b820191906000526020600020905b8154815290600101906020018083116108fd57829003601f168201915b505050918352505060038201546001600160a01b039081166020830152600483015460408301526005830154606083015260068301546080830152600783015460ff908116151560a080850191909152600885015460c085015260099094015491821660e0840152600160a01b90910416151561010090910152810151909150600090601890603c9081906109af9042615410565b6109b99190615427565b6109c39190615427565b6109cd9190615427565b905060006001600160a01b0316606f876040516109ea919061536c565b908152604051908190036020019020600901546001600160a01b031614801590610a1757508160c0015181115b610a5c5760405162461bcd60e51b81526020600482015260166024820152754572726f722047657474696e672057696e6e6572212160501b604482015260640161054d565b610140820151151560011415610ab7577faf9c5487a5254285c7e0cb270c5884fb3c73e8bf058e80fc0cf380dc6908fac6826101400151604051610aa4911515815260200190565b60405180910390a16000945050506105ca565b50610120015192506105ca565b81816000606f82604051610ad8919061536c565b908152602001604051809103902060405180610160016040529081600082018054610b0290615388565b80601f0160208091040260200160405190810160405280929190818152602001828054610b2e90615388565b8015610b7b5780601f10610b5057610100808354040283529160200191610b7b565b820191906000526020600020905b815481529060010190602001808311610b5e57829003601f168201915b5050505050815260200160018201548152602001600282018054610b9e90615388565b80601f0160208091040260200160405190810160405280929190818152602001828054610bca90615388565b8015610c175780601f10610bec57610100808354040283529160200191610c17565b820191906000526020600020905b815481529060010190602001808311610bfa57829003601f168201915b50505091835250506003828101546001600160a01b0390811660208085019190915260048501546040808601919091526005860154606086015260068601546080860152600786015460ff908116151560a0870152600887015460c087015260099096015492831660e0860152600160a01b9092048516151561010090940193909352336000908152607390935290912001549192501615156001148015610da257503360009081526075602090815260408083208054825181850281018501909352808352610da09492939192909184015b82821015610d96578382906000526020600020018054610d0990615388565b80601f0160208091040260200160405190810160405280929190818152602001828054610d3590615388565b8015610d825780601f10610d5757610100808354040283529160200191610d82565b820191906000526020600020905b815481529060010190602001808311610d6557829003601f168201915b505050505081526020019060010190610cea565b5050505083612ea5565b155b8015610e605750610e5a606f83604051610dbc919061536c565b9081526040519081900360200190208054610dd690615388565b80601f0160208091040260200160405190810160405280929190818152602001828054610e0290615388565b8015610e4f5780601f10610e2457610100808354040283529160200191610e4f565b820191906000526020600020905b815481529060010190602001808311610e3257829003601f168201915b505050505083612f0b565b15156001145b8015610e6e575060e0810151155b8015610ea657506001600160a01b03831660009081526072602052604090206001018054610ea09190610dd690615388565b15156001145b610ee15760405162461bcd60e51b815260206004820152600c60248201526b566f746572204572726f722160a01b604482015260640161054d565b6000606f85604051610ef3919061536c565b908152602001604051809103902060405180610160016040529081600082018054610f1d90615388565b80601f0160208091040260200160405190810160405280929190818152602001828054610f4990615388565b8015610f965780601f10610f6b57610100808354040283529160200191610f96565b820191906000526020600020905b815481529060010190602001808311610f7957829003601f168201915b5050505050815260200160018201548152602001600282018054610fb990615388565b80601f0160208091040260200160405190810160405280929190818152602001828054610fe590615388565b80156110325780601f1061100757610100808354040283529160200191611032565b820191906000526020600020905b81548152906001019060200180831161101557829003601f168201915b505050918352505060038201546001600160a01b03908116602080840191909152600484015460408401526005840154606084015260068401546080840152600784015460ff908116151560a0850152600885015460c085015260099094015491821660e0840152600160a01b9091049092161515610100909101528101519091506110c7576110c28686612f72565b6110de565b8060200151600114156110de576110de86866134d5565b33600090815260756020908152604082208054600181018255908352918190208751611111939190910191880190614d80565b50505050505050565b6040805160e08101825260008082526020820181905260609282018390529181018290526080810182905260a0810182905260c0810191909152816000606f82604051611167919061536c565b90815260200160405180910390206040518061016001604052908160008201805461119190615388565b80601f01602080910402602001604051908101604052809291908181526020018280546111bd90615388565b801561120a5780601f106111df5761010080835404028352916020019161120a565b820191906000526020600020905b8154815290600101906020018083116111ed57829003601f168201915b505050505081526020016001820154815260200160028201805461122d90615388565b80601f016020809104026020016040519081016040528092919081815260200182805461125990615388565b80156112a65780601f1061127b576101008083540402835291602001916112a6565b820191906000526020600020905b81548152906001019060200180831161128957829003601f168201915b505050918352505060038201546001600160a01b0390811660208084019190915260048085015460408501526005850154606085015260068501546080850152600785015460ff908116151560a0860152600886015460c086015260099095015492831660e0850152600160a01b909204909316151561010090920191909152908201519192501161134a5760405162461bcd60e51b815260040161054d906153c3565b6001600160a01b03808616600090815260736020908152604091829020825160e08101845281548152600182015490941691840191909152600281018054919284019161139690615388565b80601f01602080910402602001604051908101604052809291908181526020018280546113c290615388565b801561140f5780601f106113e45761010080835404028352916020019161140f565b820191906000526020600020905b8154815290600101906020018083116113f257829003601f168201915b5050509183525050600382015460ff80821615156020840152610100820481161515604084015262010000909104161515606082015260049091015460809091015295945050505050565b6114cd60405180610160016040528060608152602001600081526020016060815260200160006001600160a01b031681526020016000815260200160008152602001600081526020016000151581526020016000815260200160006001600160a01b031681526020016000151581525090565b816000606f826040516114e0919061536c565b90815260200160405180910390206040518061016001604052908160008201805461150a90615388565b80601f016020809104026020016040519081016040528092919081815260200182805461153690615388565b80156115835780601f1061155857610100808354040283529160200191611583565b820191906000526020600020905b81548152906001019060200180831161156657829003601f168201915b50505050508152602001600182015481526020016002820180546115a690615388565b80601f01602080910402602001604051908101604052809291908181526020018280546115d290615388565b801561161f5780601f106115f45761010080835404028352916020019161161f565b820191906000526020600020905b81548152906001019060200180831161160257829003601f168201915b505050918352505060038201546001600160a01b0390811660208084019190915260048085015460408501526005850154606085015260068501546080850152600785015460ff908116151560a0860152600886015460c086015260099095015492831660e0850152600160a01b90920490931615156101009092019190915290820151919250116116c35760405162461bcd60e51b815260040161054d906153c3565b606f846040516116d3919061536c565b9081526020016040518091039020604051806101600160405290816000820180546116fd90615388565b80601f016020809104026020016040519081016040528092919081815260200182805461172990615388565b80156117765780601f1061174b57610100808354040283529160200191611776565b820191906000526020600020905b81548152906001019060200180831161175957829003601f168201915b505050505081526020016001820154815260200160028201805461179990615388565b80601f01602080910402602001604051908101604052809291908181526020018280546117c590615388565b80156118125780601f106117e757610100808354040283529160200191611812565b820191906000526020600020905b8154815290600101906020018083116117f557829003601f168201915b505050918352505060038201546001600160a01b039081166020830152600483015460408301526005830154606083015260068301546080830152600783015460ff908116151560a0840152600884015460c084015260099093015490811660e0830152600160a01b9004909116151561010090910152949350505050565b611899613bc0565b6065546040516001600160a01b03909116904780156108fc02916000818181858888f193505050501580156118d2573d6000803e3d6000fd5b50565b6000606f826040516118e7919061536c565b90815260200160405180910390206040518061016001604052908160008201805461191190615388565b80601f016020809104026020016040519081016040528092919081815260200182805461193d90615388565b801561198a5780601f1061195f5761010080835404028352916020019161198a565b820191906000526020600020905b81548152906001019060200180831161196d57829003601f168201915b50505050508152602001600182015481526020016002820180546119ad90615388565b80601f01602080910402602001604051908101604052809291908181526020018280546119d990615388565b8015611a265780601f106119fb57610100808354040283529160200191611a26565b820191906000526020600020905b815481529060010190602001808311611a0957829003601f168201915b505050918352505060038201546001600160a01b0390811660208084019190915260048401546040840152600584015460608085019190915260068501546080850152600785015460ff908116151560a0860152600886015460c086015260099095015480841660e0860152600160a01b9004909416151561010090930192909252908301519183015192935090911633148015611ac957506001826080015110155b8015611ad7575060e0820151155b8015611b9357506001600160a01b03841660009081526073602052604090206002018054611b8d9190611b0990615388565b80601f0160208091040260200160405190810160405280929190818152602001828054611b3590615388565b8015611b825780601f10611b5757610100808354040283529160200191611b82565b820191906000526020600020905b815481529060010190602001808311611b6557829003601f168201915b505050505084612f0b565b15156001145b8015611bbf57506001600160a01b03841660009081526073602052604090206003015460ff1615156001145b8015611bec57506001600160a01b038416600090815260736020526040902060030154610100900460ff16155b8015611bf85750806001145b80611c035750806003145b611c4f5760405162461bcd60e51b815260206004820152601e60248201527f4572726f722041737369676e696e6720566f74696e6720526967687473210000604482015260640161054d565b6001600160a01b038416600081815260736020908152604091829020600301805461ff00191661010017905590519182527f94055e6bcdfa83fa1f2cb2901fd22db9e96f758348742a662b752bc32b765800910160405180910390a150505050565b606a5485903410801590611cc6575060008151115b8015611cd3575060018551115b8015611ce15750606e548411155b8015611cec57508183115b8015611cf85750600082115b611d3d5760405162461bcd60e51b81526020600482015260166024820152754572726f722042616c6c6f74204372656174696f6e2160501b604482015260640161054d565b84607088604051611d4e919061536c565b90815260200160405180910390209080519060200190611d6f929190614e04565b50845160005b81811015611e88576000604051806080016040528060665481526020018b8152602001898481518110611daa57611daa615449565b60200260200101516001600160a01b031681526020016000815250905080607260008a8581518110611dde57611dde615449565b60200260200101516001600160a01b03166001600160a01b03168152602001908152602001600020600082015181600001556020820151816001019080519060200190611e2c929190614d80565b5060408201516002820180546001600160a01b0319166001600160a01b0390921691909117905560609091015160039091015560668054906000611e6f8361545f565b9190505550508080611e809061545f565b915050611d75565b506040805161016081018252898152602081018790528082018990523360608201526000608082018190524260a083015260c0820187905260e082018190526101008201869052610120820181905261014082015290518190606f90611eef908c9061536c565b90815260200160405180910390206000820151816000019080519060200190611f19929190614d80565b50602082810151600183015560408301518051611f3c9260028501920190614d80565b5060608201516003820180546001600160a01b0319166001600160a01b039283161790556080830151600483015560a0830151600583015560c0830151600683015560e083015160078301805460ff191691151591909117905561010083015160088301556101208301516009909201805461014090940151929091166001600160a81b031990931692909217600160a01b91151591909102179055606880546001810182556000919091528151805183927fa2153420d844928b4421650203c77babc8b33d7f2e7b450e2966db0c22097753600a909102019161202591839160200190614d80565b506020828101516001830155604083015180516120489260028501920190614d80565b5060608201516003820180546001600160a01b0319166001600160a01b039283161790556080830151600483015560a0830151600583015560c0830151600683015560e083015160078301805460ff191691151591909117905561010083015160088301556101208301516009909201805461014090940151929091166001600160a81b031990931692909217600160a01b91151591909102179055606b80549060006120f48361545f565b90915550506040518681527f3302601c0b6ad9794207d2eb4a29c724db57c9348bf10dffcc98c9d89e6d9c529060200160405180910390a1505050505050505050565b61213f613bc0565b6121496000613c1a565b565b61217f6040518060800160405280600081526020016060815260200160006001600160a01b03168152602001600081525090565b604051806020016040528060008152506000606f826040516121a1919061536c565b9081526020016040518091039020604051806101600160405290816000820180546121cb90615388565b80601f01602080910402602001604051908101604052809291908181526020018280546121f790615388565b80156122445780601f1061221957610100808354040283529160200191612244565b820191906000526020600020905b81548152906001019060200180831161222757829003601f168201915b505050505081526020016001820154815260200160028201805461226790615388565b80601f016020809104026020016040519081016040528092919081815260200182805461229390615388565b80156122e05780601f106122b5576101008083540402835291602001916122e0565b820191906000526020600020905b8154815290600101906020018083116122c357829003601f168201915b505050918352505060038201546001600160a01b0390811660208084019190915260048085015460408501526005850154606085015260068501546080850152600785015460ff908116151560a0860152600886015460c086015260099095015492831660e0850152600160a01b90920490931615156101009092019190915290820151919250116123845760405162461bcd60e51b815260040161054d906153c3565b6001600160a01b0384166000908152607260209081526040918290208251608081019093528054835260018101805491928401916123c190615388565b80601f01602080910402602001604051908101604052809291908181526020018280546123ed90615388565b801561243a5780601f1061240f5761010080835404028352916020019161243a565b820191906000526020600020905b81548152906001019060200180831161241d57829003601f168201915b505050918352505060028201546001600160a01b03166020820152600390910154604090910152949350505050565b612471613bc0565b6001606e546124809190615410565b8211801561249a5750606e5461249790600161547a565b82105b6124dc5760405162461bcd60e51b8152602060048201526013602482015272496e76616c6964205479706520496e6465782160681b604482015260640161054d565b606d606e5460016124ed919061547a565b81546001810183556000928352602080842090910191909155838252606781526040909120825161252092840190614d80565b505050565b6000606f82604051612537919061536c565b9081526020016040518091039020905060006018603c8084600501544261255e9190615410565b6125689190615427565b6125729190615427565b61257c9190615427565b905081600601548110801561259d575060038201546001600160a01b031633145b6125e15760405162461bcd60e51b81526020600482015260156024820152744572726f7220456e64696e672042616c6c6f74212160581b604482015260640161054d565b60078201805460ff19166001908117909155604051606f9061260490869061536c565b908152604051908190036020018120600701805492151560ff19909316929092179091557f020b0a6e75f9b4e7936cf2c0aab0f37ee94d3aedf66a6b4540824b721c8bd59290612655908590615492565b60405180910390a1505050565b81816000606f82604051612676919061536c565b9081526020016040518091039020604051806101600160405290816000820180546126a090615388565b80601f01602080910402602001604051908101604052809291908181526020018280546126cc90615388565b80156127195780601f106126ee57610100808354040283529160200191612719565b820191906000526020600020905b8154815290600101906020018083116126fc57829003601f168201915b505050505081526020016001820154815260200160028201805461273c90615388565b80601f016020809104026020016040519081016040528092919081815260200182805461276890615388565b80156127b55780601f1061278a576101008083540402835291602001916127b5565b820191906000526020600020905b81548152906001019060200180831161279857829003601f168201915b505050918352505060038201546001600160a01b039081166020830152600483015460408301526005830154606083015260068301546080830152600783015460ff908116151560a080850191909152600885015460c085015260099094015491821660e0840152600160a01b909104161515610100909101528101519091506000906128429042615410565b60685490915060018110801590612869575060c083015161286690620151806154a5565b82105b8015612958575033600090815260746020908152604080832080548251818502810185019093528083526129569492939192909184015b8282101561294c5783829060005260206000200180546128bf90615388565b80601f01602080910402602001604051908101604052809291908181526020018280546128eb90615388565b80156129385780601f1061290d57610100808354040283529160200191612938565b820191906000526020600020905b81548152906001019060200180831161291b57829003601f168201915b5050505050815260200190600101906128a0565b5050505085612ea5565b155b8015612a435750612a4160766000878152602001908152602001600020805480602002602001604051908101604052809291908181526020016000905b8282101561294c5783829060005260206000200180546129b490615388565b80601f01602080910402602001604051908101604052809291908181526020018280546129e090615388565b8015612a2d5780601f10612a0257610100808354040283529160200191612a2d565b820191906000526020600020905b815481529060010190602001808311612a1057829003601f168201915b505050505081526020019060010190612995565b155b8015612a605750610100830151612a5d90620151806154a5565b82105b612a7c5760405162461bcd60e51b815260040161054d906154c4565b6000606f87604051612a8e919061536c565b908152602001604051809103902060405180610160016040529081600082018054612ab890615388565b80601f0160208091040260200160405190810160405280929190818152602001828054612ae490615388565b8015612b315780601f10612b0657610100808354040283529160200191612b31565b820191906000526020600020905b815481529060010190602001808311612b1457829003601f168201915b5050505050815260200160018201548152602001600282018054612b5490615388565b80601f0160208091040260200160405190810160405280929190818152602001828054612b8090615388565b8015612bcd5780601f10612ba257610100808354040283529160200191612bcd565b820191906000526020600020905b815481529060010190602001808311612bb057829003601f168201915b505050918352505060038201546001600160a01b03908116602080840191909152600484015460408401526005840154606084015260068401546080840152600784015460ff908116151560a0850152600885015460c085015260099094015491821660e0840152600160a01b9091049092161515610100909101528101519091501580612c5f575080602001516002145b15612c7357612c6e8888613c6c565b612c99565b806020015160011480612c8a575080602001516003145b15612c9957612c998888614086565b5050505050505050565b612cab613bc0565b6001600160a01b038116612d105760405162461bcd60e51b815260206004820152602660248201527f4f776e61626c653a206e6577206f776e657220697320746865207a65726f206160448201526564647265737360d01b606482015260840161054d565b6118d281613c1a565b600054610100900460ff1615808015612d395750600054600160ff909116105b80612d535750303b158015612d53575060005460ff166001145b612db65760405162461bcd60e51b815260206004820152602e60248201527f496e697469616c697a61626c653a20636f6e747261637420697320616c72656160448201526d191e481a5b9a5d1a585b1a5e995960921b606482015260840161054d565b6000805460ff191660011790558015612dd9576000805461ff0019166101001790555b612de16144a0565b8015612e27576000805461ff0019169055604051600181527f7f26b83ff96e1f2b6a682f133852f6798a09c465da95921460cefb38474024989060200160405180910390a15b5050565b6060607082604051612e3d919061536c565b9081526040805191829003602090810183208054808302850183019093528284529190830182828015612e9957602002820191906000526020600020905b81546001600160a01b03168152600190910190602001808311612e7b575b50505050509050919050565b8151600090815b81811015612efe57612ed7858281518110612ec957612ec9615449565b602002602001015185612f0b565b151560011415612eec57600192505050612f05565b80612ef68161545f565b915050612eac565b5060009150505b92915050565b600081604051602001612f1e919061536c565b6040516020818303038152906040528051906020012083604051602001612f45919061536c565b604051602081830303815290604052805190602001201415612f6957506001612f05565b50600092915050565b81816000606f82604051612f86919061536c565b908152602001604051809103902060405180610160016040529081600082018054612fb090615388565b80601f0160208091040260200160405190810160405280929190818152602001828054612fdc90615388565b80156130295780601f10612ffe57610100808354040283529160200191613029565b820191906000526020600020905b81548152906001019060200180831161300c57829003601f168201915b505050505081526020016001820154815260200160028201805461304c90615388565b80601f016020809104026020016040519081016040528092919081815260200182805461307890615388565b80156130c55780601f1061309a576101008083540402835291602001916130c5565b820191906000526020600020905b8154815290600101906020018083116130a857829003601f168201915b50505091835250506003828101546001600160a01b0390811660208085019190915260048501546040808601919091526005860154606086015260068601546080860152600786015460ff908116151560a0870152600887015460c087015260099096015492831660e0860152600160a01b9092048516151561010090940193909352336000908152607390935290912001549192501615156001148015613246575033600090815260756020908152604080832080548251818502810185019093528083526132449492939192909184015b82821015610d965783829060005260206000200180546131b790615388565b80601f01602080910402602001604051908101604052809291908181526020018280546131e390615388565b80156132305780601f1061320557610100808354040283529160200191613230565b820191906000526020600020905b81548152906001019060200180831161321357829003601f168201915b505050505081526020019060010190613198565b155b80156132665750613260606f83604051610dbc919061536c565b15156001145b8015613274575060e0810151155b80156132ac57506001600160a01b038316600090815260726020526040902060010180546132a69190610dd690615388565b15156001145b6132e75760405162461bcd60e51b815260206004820152600c60248201526b566f746572204572726f722160a01b604482015260640161054d565b6000606f856040516132f9919061536c565b90815260200160405180910390206040518061016001604052908160008201805461332390615388565b80601f016020809104026020016040519081016040528092919081815260200182805461334f90615388565b801561339c5780601f106133715761010080835404028352916020019161339c565b820191906000526020600020905b81548152906001019060200180831161337f57829003601f168201915b50505050508152602001600182015481526020016002820180546133bf90615388565b80601f01602080910402602001604051908101604052809291908181526020018280546133eb90615388565b80156134385780601f1061340d57610100808354040283529160200191613438565b820191906000526020600020905b81548152906001019060200180831161341b57829003601f168201915b505050918352505060038201546001600160a01b039081166020830152600483015460408301526005830154606083015260068301546080830152600783015460ff908116151560a0840152600884015460c084015260099093015480821660e0840152600160a01b9004909216151561010090910152871661012082015290506134c38682614501565b506134cd866145b6565b505050505050565b81816000606f826040516134e9919061536c565b90815260200160405180910390206040518061016001604052908160008201805461351390615388565b80601f016020809104026020016040519081016040528092919081815260200182805461353f90615388565b801561358c5780601f106135615761010080835404028352916020019161358c565b820191906000526020600020905b81548152906001019060200180831161356f57829003601f168201915b50505050508152602001600182015481526020016002820180546135af90615388565b80601f01602080910402602001604051908101604052809291908181526020018280546135db90615388565b80156136285780601f106135fd57610100808354040283529160200191613628565b820191906000526020600020905b81548152906001019060200180831161360b57829003601f168201915b505050918352505060038201546001600160a01b0390811660208084019190915260048401546040808501919091526005850154606085015260068501546080850152600785015460ff908116151560a0860152600886015460c086015260099095015480841660e080870191909152600160a01b909104909516151561010090940193909352336000908152607382528381208451958601855280548652600181015490931691850191909152600282018054959650909491928401916136ef90615388565b80601f016020809104026020016040519081016040528092919081815260200182805461371b90615388565b80156137685780601f1061373d57610100808354040283529160200191613768565b820191906000526020600020905b81548152906001019060200180831161374b57829003601f168201915b5050509183525050600382015460ff808216151560208401526101008204811615156040840152620100009091041615156060820152600490910154608091820152810151909150151560011480156137d857503360009081526073602052604090206003015460ff1615156001145b80156138c7575033600090815260756020908152604080832080548251818502810185019093528083526138c59492939192909184015b828210156138bb57838290600052602060002001805461382e90615388565b80601f016020809104026020016040519081016040528092919081815260200182805461385a90615388565b80156138a75780601f1061387c576101008083540402835291602001916138a7565b820191906000526020600020905b81548152906001019060200180831161388a57829003601f168201915b50505050508152602001906001019061380f565b5050505084612ea5565b155b801561390157506138fb606f846040516138e1919061536c565b9081526040519081900360200190208054611b0990615388565b15156001145b801561393957506001600160a01b038416600090815260726020526040902060010180546139339190611b0990615388565b15156001145b6139855760405162461bcd60e51b815260206004820152601b60248201527f566f746572204572726f7228436c6f7365642042616c6c6f7429210000000000604482015260640161054d565b6000606f86604051613997919061536c565b9081526020016040518091039020604051806101600160405290816000820180546139c190615388565b80601f01602080910402602001604051908101604052809291908181526020018280546139ed90615388565b8015613a3a5780601f10613a0f57610100808354040283529160200191613a3a565b820191906000526020600020905b815481529060010190602001808311613a1d57829003601f168201915b5050505050815260200160018201548152602001600282018054613a5d90615388565b80601f0160208091040260200160405190810160405280929190818152602001828054613a8990615388565b8015613ad65780601f10613aab57610100808354040283529160200191613ad6565b820191906000526020600020905b815481529060010190602001808311613ab957829003601f168201915b505050918352505060038201546001600160a01b03908116602080840191909152600484015460408401526005840154606084015260068401546080840152600784015460ff908116151560a0850152600885015460c085015260099094015491821660e0840152600160a01b909104909216151561010090910152810151909150600114613b9c5760405162461bcd60e51b815260206004820152601260248201527157726f6e672042616c6c6f7420547970652160701b604482015260640161054d565b6001600160a01b038716610120820152613bb68782614501565b50611111876145b6565b6033546001600160a01b031633146121495760405162461bcd60e51b815260206004820181905260248201527f4f776e61626c653a2063616c6c6572206973206e6f7420746865206f776e6572604482015260640161054d565b603380546001600160a01b038381166001600160a01b0319831681179093556040519116919082907f8be0079c531659141344cd1fd0a4f28419497f9722a3daafe3b4186f6b6457e090600090a35050565b81816000606f82604051613c80919061536c565b908152602001604051809103902060405180610160016040529081600082018054613caa90615388565b80601f0160208091040260200160405190810160405280929190818152602001828054613cd690615388565b8015613d235780601f10613cf857610100808354040283529160200191613d23565b820191906000526020600020905b815481529060010190602001808311613d0657829003601f168201915b5050505050815260200160018201548152602001600282018054613d4690615388565b80601f0160208091040260200160405190810160405280929190818152602001828054613d7290615388565b8015613dbf5780601f10613d9457610100808354040283529160200191613dbf565b820191906000526020600020905b815481529060010190602001808311613da257829003601f168201915b505050918352505060038201546001600160a01b039081166020830152600483015460408301526005830154606083015260068301546080830152600783015460ff908116151560a080850191909152600885015460c085015260099094015491821660e0840152600160a01b90910416151561010090910152810151909150600090613e4c9042615410565b60685490915060018110801590613e73575060c0830151613e7090620151806154a5565b82105b8015613f5857503360009081526074602090815260408083208054825181850281018501909352808352613f569492939192909184015b8282101561294c578382906000526020600020018054613ec990615388565b80601f0160208091040260200160405190810160405280929190818152602001828054613ef590615388565b8015613f425780601f10613f1757610100808354040283529160200191613f42565b820191906000526020600020905b815481529060010190602001808311613f2557829003601f168201915b505050505081526020019060010190613eaa565b155b8015614043575061404160766000878152602001908152602001600020805480602002602001604051908101604052809291908181526020016000905b8282101561294c578382906000526020600020018054613fb490615388565b80601f0160208091040260200160405190810160405280929190818152602001828054613fe090615388565b801561402d5780601f106140025761010080835404028352916020019161402d565b820191906000526020600020905b81548152906001019060200180831161401057829003601f168201915b505050505081526020019060010190613f95565b155b8015614060575061010083015161405d90620151806154a5565b82105b61407c5760405162461bcd60e51b815260040161054d906154c4565b6111118787614636565b81816000606f8260405161409a919061536c565b9081526020016040518091039020604051806101600160405290816000820180546140c490615388565b80601f01602080910402602001604051908101604052809291908181526020018280546140f090615388565b801561413d5780601f106141125761010080835404028352916020019161413d565b820191906000526020600020905b81548152906001019060200180831161412057829003601f168201915b505050505081526020016001820154815260200160028201805461416090615388565b80601f016020809104026020016040519081016040528092919081815260200182805461418c90615388565b80156141d95780601f106141ae576101008083540402835291602001916141d9565b820191906000526020600020905b8154815290600101906020018083116141bc57829003601f168201915b505050918352505060038201546001600160a01b039081166020830152600483015460408301526005830154606083015260068301546080830152600783015460ff908116151560a080850191909152600885015460c085015260099094015491821660e0840152600160a01b909104161515610100909101528101519091506000906142669042615410565b6068549091506001811080159061428d575060c083015161428a90620151806154a5565b82105b8015614372575033600090815260746020908152604080832080548251818502810185019093528083526143709492939192909184015b8282101561294c5783829060005260206000200180546142e390615388565b80601f016020809104026020016040519081016040528092919081815260200182805461430f90615388565b801561435c5780601f106143315761010080835404028352916020019161435c565b820191906000526020600020905b81548152906001019060200180831161433f57829003601f168201915b5050505050815260200190600101906142c4565b155b801561445d575061445b60766000878152602001908152602001600020805480602002602001604051908101604052809291908181526020016000905b8282101561294c5783829060005260206000200180546143ce90615388565b80601f01602080910402602001604051908101604052809291908181526020018280546143fa90615388565b80156144475780601f1061441c57610100808354040283529160200191614447565b820191906000526020600020905b81548152906001019060200180831161442a57829003601f168201915b5050505050815260200190600101906143af565b155b801561447a575061010083015161447790620151806154a5565b82105b6144965760405162461bcd60e51b815260040161054d906154c4565b6111118787614989565b600054610100900460ff166144c75760405162461bcd60e51b815260040161054d906154fb565b6103e86066556144d5614a95565b6144dd614d26565b603354606580546001600160a01b0319166001600160a01b03909216919091179055565b6101208101516001600160a01b039081166000908152607260205260408082206003908101549386168352908220015490919061453f90600161547a565b1115614562576001600160a01b03831661012083015260006101408301526145ab565b6101208201516001600160a01b0390811660009081526072602052604080822060039081015493871683529120015461459c90600161547a565b14156145ab5760016101408301525b506101400151919050565b6001600160a01b03811660009081526072602052604081206003018054916145dd8361545f565b909155505033600090815260736020526040808220600301805462ff0000191662010000179055516001600160a01b038316917faec2ccae8681fd01ad220ecb7e9b5f7d485b1cc3cc01599acb1578016b30a6bd91a250565b6000606f82604051614648919061536c565b90815260200160405180910390209050607182604051614668919061536c565b908152604080516020928190038301812080546001810182556000918252848220018054336001600160a01b03199091161790559281018690520160408051808303601f19018152828252805160209182012060e084018352600486015484523382850181815285850189815260016060880181905260808801819052600060a0890181905260c08901869052938452607386529590922086518155905194810180546001600160a01b0319166001600160a01b039096169590951790945551805191955084939261474292600285019290910190614d80565b506060820151600382018054608085015160a086015161ffff1990921693151561ff00191693909317610100931515939093029290921762ff00001916620100009215159290920291909117905560c0909101516004909101556069805460018101825560009190915281517f7fb4302e8e91f9110a6554c2c0a24601252c2a42c2220ca988efcfe39991430860059092029182019081556020808401517f7fb4302e8e91f9110a6554c2c0a24601252c2a42c2220ca988efcfe399914309840180546001600160a01b0319166001600160a01b03909216919091179055604084015180518594614859937f7fb4302e8e91f9110a6554c2c0a24601252c2a42c2220ca988efcfe39991430a909101920190614d80565b506060820151600382018054608085015160a08601511515620100000262ff0000199115156101000261ff00199515159590951661ffff1990931692909217939093179290921691909117905560c090910151600490910155604051606f906148c390869061536c565b90815260405190819003602001902060040180549060006148e38361545f565b90915550503360009081526074602090815260408220805460018101825590835291819020865161491b939190910191870190614d80565b5060008581526076602090815260408220805460018101825590835291819020865161494e939190910191870190614d80565b506040518281527fd850a8248df1456f35b1b26db099385cb363335bb60a8e99294bc101242678719060200160405180910390a15050505050565b6000606f8260405161499b919061536c565b908152602001604051809103902090506071826040516149bb919061536c565b908152604080516020928190038301812080546001810182556000918252848220018054336001600160a01b03199091161790559281018690520160408051808303601f19018152828252805160209182012060e084018352600486015484523382850181815285850189815260016060880181905260006080890181905260a0890181905260c08901869052938452607386529590922086518155905194810180546001600160a01b0319166001600160a01b039096169590951790945551805191955084939261474292600285019290910190614d80565b6040805180820190915260098152686f70656e2d6672656560b81b602080830191825260008052606790529051614aed917fd4e1ac8b62c3ff1e2c1b7113742533b8310ce5ab8a8767ead9ba8b250c7e3cc991614d80565b5060408051808201909152600b81526a636c6f7365642d6672656560a81b60208083019182526001600052606790529051614b49917f6bee784efeb983674392298ab585b22866bedf00ebb0eea949d1e66f3f50e71d91614d80565b506040805180820190915260098152681bdc195b8b5c185a5960ba1b60208083019182526002600052606790529051614ba3917f34a128ff2438bccb68124de780ea45be60aca78c6fb6ce114324ee2dd88c546d91614d80565b5060408051808201909152600b81526a18db1bdcd9590b5c185a5960aa1b60208083019182526003600052606790529051614bff917f8c1c91810985109892a55558a5891c2831cd29dc314f55daca604b52719f9f3691614d80565b5060408051808201909152601281527118db1bdcd9590b599c99594b5cd958dc995d60721b60208083019182526004600052606790529051614c62917f4813066cc9bc2ffb2908859373a01b2bdf685062df07d3bbc2275a773c10141491614d80565b5060408051808201909152601081526f1bdc195b8b5c185a590b5cd958dc995d60821b60208083019182526005600052606790529051614cc3917f2d7518069ffe0dd7e7ab74f326d370e23a25560d4b83756e518197d858c5a39391614d80565b5060408051808201909152601281527118db1bdcd9590b5c185a590b5cd958dc995d60721b602080830191825260066000526067905290516118d2917fad91bdf316595464714a4f9b2538304767ddb9763115d960efc5cddca3d04ea791614d80565b600054610100900460ff16614d4d5760405162461bcd60e51b815260040161054d906154fb565b612149600054610100900460ff16614d775760405162461bcd60e51b815260040161054d906154fb565b61214933613c1a565b828054614d8c90615388565b90600052602060002090601f016020900481019282614dae5760008555614df4565b82601f10614dc757805160ff1916838001178555614df4565b82800160010185558215614df4579182015b82811115614df4578251825591602001919060010190614dd9565b50614e00929150614e59565b5090565b828054828255906000526020600020908101928215614df4579160200282015b82811115614df457825182546001600160a01b0319166001600160a01b03909116178255602090920191600190910190614e24565b5b80821115614e005760008155600101614e5a565b634e487b7160e01b600052604160045260246000fd5b604051601f8201601f1916810167ffffffffffffffff81118282101715614ead57614ead614e6e565b604052919050565b600082601f830112614ec657600080fd5b813567ffffffffffffffff811115614ee057614ee0614e6e565b614ef3601f8201601f1916602001614e84565b818152846020838601011115614f0857600080fd5b816020850160208301376000918101602001919091529392505050565b600060208284031215614f3757600080fd5b813567ffffffffffffffff811115614f4e57600080fd5b614f5a84828501614eb5565b949350505050565b6020808252825182820181905260009190848201906040850190845b81811015614fa35783516001600160a01b031683529284019291840191600101614f7e565b50909695505050505050565b80356001600160a01b0381168114614fc657600080fd5b919050565b60008060408385031215614fde57600080fd5b614fe783614faf565b9150602083013567ffffffffffffffff81111561500357600080fd5b61500f85828601614eb5565b9150509250929050565b60005b8381101561503457818101518382015260200161501c565b83811115615043576000848401525b50505050565b60008151808452615061816020860160208601615019565b601f01601f19169290920160200192915050565b602081528151602082015260018060a01b0360208301511660408201526000604083015160e060608401526150ae610100840182615049565b90506060840151151560808401526080840151151560a084015260a0840151151560c084015260c084015160e08401528091505092915050565b6020815260008251610160806020850152615107610180850183615049565b9150602085015160408501526040850151601f1985840301606086015261512e8382615049565b925050606085015161514b60808601826001600160a01b03169052565b50608085015160a085015260a085015160c085015260c085015160e085015260e085015161010061517f8187018315159052565b8601516101208681019190915286015190506101406151a8818701836001600160a01b03169052565b90950151151593019290925250919050565b60008060008060008060c087890312156151d357600080fd5b863567ffffffffffffffff808211156151eb57600080fd5b6151f78a838b01614eb5565b975060209150818901358181111561520e57600080fd5b61521a8b828c01614eb5565b97505060408901358181111561522f57600080fd5b8901601f81018b1361524057600080fd5b80358281111561525257615252614e6e565b8060051b9250615263848401614e84565b818152928201840192848101908d85111561527d57600080fd5b928501925b848410156152a25761529384614faf565b82529285019290850190615282565b9a9d999c50999a60608101359a5060808101359960a09091013598509650505050505050565b6000602082840312156152da57600080fd5b6152e382614faf565b9392505050565b6020815281516020820152600060208301516080604084015261531060a0840182615049565b60408501516001600160a01b0316606085810191909152909401516080909301929092525090919050565b6000806040838503121561534e57600080fd5b82359150602083013567ffffffffffffffff81111561500357600080fd5b6000825161537e818460208701615019565b9190910192915050565b600181811c9082168061539c57607f821691505b602082108114156153bd57634e487b7160e01b600052602260045260246000fd5b50919050565b60208082526018908201527f546869732069732061205365637265742042616c6c6f74210000000000000000604082015260600190565b634e487b7160e01b600052601160045260246000fd5b600082821015615422576154226153fa565b500390565b60008261544457634e487b7160e01b600052601260045260246000fd5b500490565b634e487b7160e01b600052603260045260246000fd5b6000600019821415615473576154736153fa565b5060010190565b6000821982111561548d5761548d6153fa565b500190565b6020815260006152e36020830184615049565b60008160001904831182151516156154bf576154bf6153fa565b500290565b6020808252601a908201527f4572726f7220566f74657220526567697374726174696f6e2121000000000000604082015260600190565b6020808252602b908201527f496e697469616c697a61626c653a20636f6e7472616374206973206e6f74206960408201526a6e697469616c697a696e6760a81b60608201526080019056fea2646970667358221220b9ba0031dcb01611b302a934801c787165672b5a4463d981e06c4b155d85032064736f6c63430008080033","bytecodeSha1":"abbb155a7d0e4d62f5fff67b9eaa2dcd9dce169f","compiler":{"evm_version":"istanbul","optimizer":{"enabled":true,"runs":200},"version":"0.8.8+commit.dddeac2f"},"contractName":"JamiiFactory","language":"Solidity","natspec":{"kind":"dev","methods":{"assign_voting_rights(address,string)":{"notice":"VOTING RIGHTS *"},"get_ballot(string)":{"notice":"GETTERS *"},"owner()":{"details":"Returns the address of the current owner."},"renounceOwnership()":{"details":"Leaves the contract without owner. It will not be possible to call `onlyOwner` functions anymore. Can only be called by the current owner. NOTE: Renouncing ownership will leave the contract without an owner, thereby removing any functionality that is only available to the owner."},"transferOwnership(address)":{"details":"Transfers ownership of the contract to a new account (`newOwner`). Can only be called by the current owner."}},"version":1},"opcodes":"PUSH1 0x80 PUSH1 0x40 MSTORE PUSH1 0x4 CALLDATASIZE LT PUSH2 0xFE JUMPI PUSH1 0x0 CALLDATALOAD PUSH1 0xE0 SHR DUP1 PUSH4 0x715018A6 GT PUSH2 0x95 JUMPI DUP1 PUSH4 0xE812C6F4 GT PUSH2 0x64 JUMPI DUP1 PUSH4 0xE812C6F4 EQ PUSH2 0x2B5 JUMPI DUP1 PUSH4 0xE8636516 EQ PUSH2 0x2D5 JUMPI DUP1 PUSH4 0xF2FDE38B EQ PUSH2 0x2F5 JUMPI DUP1 PUSH4 0xF62D1888 EQ PUSH2 0x315 JUMPI DUP1 PUSH4 0xF9EFAC79 EQ PUSH2 0x335 JUMPI PUSH1 0x0 DUP1 REVERT JUMPDEST DUP1 PUSH4 0x715018A6 EQ PUSH2 0x235 JUMPI DUP1 PUSH4 0x8DA5CB5B EQ PUSH2 0x24A JUMPI DUP1 PUSH4 0x953EF76D EQ PUSH2 0x268 JUMPI DUP1 PUSH4 0xADBDBC97 EQ PUSH2 0x295 JUMPI PUSH1 0x0 DUP1 REVERT JUMPDEST DUP1 PUSH4 0x3A99495E GT PUSH2 0xD1 JUMPI DUP1 PUSH4 0x3A99495E EQ PUSH2 0x1C0 JUMPI DUP1 PUSH4 0x3CCFD60B EQ PUSH2 0x1ED JUMPI DUP1 PUSH4 0x697319D7 EQ PUSH2 0x202 JUMPI DUP1 PUSH4 0x6CD5D442 EQ PUSH2 0x222 JUMPI PUSH1 0x0 DUP1 REVERT JUMPDEST DUP1 PUSH4 0x143B02F2 EQ PUSH2 0x103 JUMPI DUP1 PUSH4 0x16397337 EQ PUSH2 0x139 JUMPI DUP1 PUSH4 0x1BF533A4 EQ PUSH2 0x171 JUMPI DUP1 PUSH4 0x2A8F18BD EQ PUSH2 0x193 JUMPI JUMPDEST PUSH1 0x0 DUP1 REVERT JUMPDEST CALLVALUE DUP1 ISZERO PUSH2 0x10F JUMPI PUSH1 0x0 DUP1 REVERT JUMPDEST POP PUSH2 0x123 PUSH2 0x11E CALLDATASIZE PUSH1 0x4 PUSH2 0x4F25 JUMP JUMPDEST PUSH2 0x355 JUMP JUMPDEST PUSH1 0x40 MLOAD PUSH2 0x130 SWAP2 SWAP1 PUSH2 0x4F62 JUMP JUMPDEST PUSH1 0x40 MLOAD DUP1 SWAP2 SUB SWAP1 RETURN JUMPDEST CALLVALUE DUP1 ISZERO PUSH2 0x145 JUMPI PUSH1 0x0 DUP1 REVERT JUMPDEST POP PUSH2 0x159 PUSH2 0x154 CALLDATASIZE PUSH1 0x4 PUSH2 0x4F25 JUMP JUMPDEST PUSH2 0x5D1 JUMP JUMPDEST PUSH1 0x40 MLOAD PUSH1 0x1 PUSH1 0x1 PUSH1 0xA0 SHL SUB SWAP1 SWAP2 AND DUP2 MSTORE PUSH1 0x20 ADD PUSH2 0x130 JUMP JUMPDEST CALLVALUE DUP1 ISZERO PUSH2 0x17D JUMPI PUSH1 0x0 DUP1 REVERT JUMPDEST POP PUSH2 0x191 PUSH2 0x18C CALLDATASIZE PUSH1 0x4 PUSH2 0x4FCB JUMP JUMPDEST PUSH2 0xAC4 JUMP JUMPDEST STOP JUMPDEST CALLVALUE DUP1 ISZERO PUSH2 0x19F JUMPI PUSH1 0x0 DUP1 REVERT JUMPDEST POP PUSH2 0x1B3 PUSH2 0x1AE CALLDATASIZE PUSH1 0x4 PUSH2 0x4FCB JUMP JUMPDEST PUSH2 0x111A JUMP JUMPDEST PUSH1 0x40 MLOAD PUSH2 0x130 SWAP2 SWAP1 PUSH2 0x5075 JUMP JUMPDEST CALLVALUE DUP1 ISZERO PUSH2 0x1CC JUMPI PUSH1 0x0 DUP1 REVERT JUMPDEST POP PUSH2 0x1E0 PUSH2 0x1DB CALLDATASIZE PUSH1 0x4 PUSH2 0x4F25 JUMP JUMPDEST PUSH2 0x145A JUMP JUMPDEST PUSH1 0x40 MLOAD PUSH2 0x130 SWAP2 SWAP1 PUSH2 0x50E8 JUMP JUMPDEST CALLVALUE DUP1 ISZERO PUSH2 0x1F9 JUMPI PUSH1 0x0 DUP1 REVERT JUMPDEST POP PUSH2 0x191 PUSH2 0x1891 JUMP JUMPDEST CALLVALUE DUP1 ISZERO PUSH2 0x20E JUMPI PUSH1 0x0 DUP1 REVERT JUMPDEST POP PUSH2 0x191 PUSH2 0x21D CALLDATASIZE PUSH1 0x4 PUSH2 0x4FCB JUMP JUMPDEST PUSH2 0x18D5 JUMP JUMPDEST PUSH2 0x191 PUSH2 0x230 CALLDATASIZE PUSH1 0x4 PUSH2 0x51BA JUMP JUMPDEST PUSH2 0x1CB1 JUMP JUMPDEST CALLVALUE DUP1 ISZERO PUSH2 0x241 JUMPI PUSH1 0x0 DUP1 REVERT JUMPDEST POP PUSH2 0x191 PUSH2 0x2137 JUMP JUMPDEST CALLVALUE DUP1 ISZERO PUSH2 0x256 JUMPI PUSH1 0x0 DUP1 REVERT JUMPDEST POP PUSH1 0x33 SLOAD PUSH1 0x1 PUSH1 0x1 PUSH1 0xA0 SHL SUB AND PUSH2 0x159 JUMP JUMPDEST CALLVALUE DUP1 ISZERO PUSH2 0x274 JUMPI PUSH1 0x0 DUP1 REVERT JUMPDEST POP PUSH2 0x288 PUSH2 0x283 CALLDATASIZE PUSH1 0x4 PUSH2 0x52C8 JUMP JUMPDEST PUSH2 0x214B JUMP JUMPDEST PUSH1 0x40 MLOAD PUSH2 0x130 SWAP2 SWAP1 PUSH2 0x52EA JUMP JUMPDEST CALLVALUE DUP1 ISZERO PUSH2 0x2A1 JUMPI PUSH1 0x0 DUP1 REVERT JUMPDEST POP PUSH2 0x191 PUSH2 0x2B0 CALLDATASIZE PUSH1 0x4 PUSH2 0x533B JUMP JUMPDEST PUSH2 0x2469 JUMP JUMPDEST CALLVALUE DUP1 ISZERO PUSH2 0x2C1 JUMPI PUSH1 0x0 DUP1 REVERT JUMPDEST POP PUSH2 0x191 PUSH2 0x2D0 CALLDATASIZE PUSH1 0x4 PUSH2 0x4F25 JUMP JUMPDEST PUSH2 0x2525 JUMP JUMPDEST CALLVALUE DUP1 ISZERO PUSH2 0x2E1 JUMPI PUSH1 0x0 DUP1 REVERT JUMPDEST POP PUSH2 0x191 PUSH2 0x2F0 CALLDATASIZE PUSH1 0x4 PUSH2 0x533B JUMP JUMPDEST PUSH2 0x2662 JUMP JUMPDEST CALLVALUE DUP1 ISZERO PUSH2 0x301 JUMPI PUSH1 0x0 DUP1 REVERT JUMPDEST POP PUSH2 0x191 PUSH2 0x310 CALLDATASIZE PUSH1 0x4 PUSH2 0x52C8 JUMP JUMPDEST PUSH2 0x2CA3 JUMP JUMPDEST CALLVALUE DUP1 ISZERO PUSH2 0x321 JUMPI PUSH1 0x0 DUP1 REVERT JUMPDEST POP PUSH2 0x191 PUSH2 0x330 CALLDATASIZE PUSH1 0x4 PUSH2 0x4F25 JUMP JUMPDEST PUSH2 0x2D19 JUMP JUMPDEST CALLVALUE DUP1 ISZERO PUSH2 0x341 JUMPI PUSH1 0x0 DUP1 REVERT JUMPDEST POP PUSH2 0x123 PUSH2 0x350 CALLDATASIZE PUSH1 0x4 PUSH2 0x4F25 JUMP JUMPDEST PUSH2 0x2E2B JUMP JUMPDEST PUSH1 0x60 DUP2 PUSH1 0x0 PUSH1 0x6F DUP3 PUSH1 0x40 MLOAD PUSH2 0x36A SWAP2 SWAP1 PUSH2 0x536C JUMP JUMPDEST SWAP1 DUP2 MSTORE PUSH1 0x20 ADD PUSH1 0x40 MLOAD DUP1 SWAP2 SUB SWAP1 KECCAK256 PUSH1 0x40 MLOAD DUP1 PUSH2 0x160 ADD PUSH1 0x40 MSTORE SWAP1 DUP2 PUSH1 0x0 DUP3 ADD DUP1 SLOAD PUSH2 0x394 SWAP1 PUSH2 0x5388 JUMP JUMPDEST DUP1 PUSH1 0x1F ADD PUSH1 0x20 DUP1 SWAP2 DIV MUL PUSH1 0x20 ADD PUSH1 0x40 MLOAD SWAP1 DUP2 ADD PUSH1 0x40 MSTORE DUP1 SWAP3 SWAP2 SWAP1 DUP2 DUP2 MSTORE PUSH1 0x20 ADD DUP3 DUP1 SLOAD PUSH2 0x3C0 SWAP1 PUSH2 0x5388 JUMP JUMPDEST DUP1 ISZERO PUSH2 0x40D JUMPI DUP1 PUSH1 0x1F LT PUSH2 0x3E2 JUMPI PUSH2 0x100 DUP1 DUP4 SLOAD DIV MUL DUP4 MSTORE SWAP2 PUSH1 0x20 ADD SWAP2 PUSH2 0x40D JUMP JUMPDEST DUP3 ADD SWAP2 SWAP1 PUSH1 0x0 MSTORE PUSH1 0x20 PUSH1 0x0 KECCAK256 SWAP1 JUMPDEST DUP2 SLOAD DUP2 MSTORE SWAP1 PUSH1 0x1 ADD SWAP1 PUSH1 0x20 ADD DUP1 DUP4 GT PUSH2 0x3F0 JUMPI DUP3 SWAP1 SUB PUSH1 0x1F AND DUP3 ADD SWAP2 JUMPDEST POP POP POP POP POP DUP2 MSTORE PUSH1 0x20 ADD PUSH1 0x1 DUP3 ADD SLOAD DUP2 MSTORE PUSH1 0x20 ADD PUSH1 0x2 DUP3 ADD DUP1 SLOAD PUSH2 0x430 SWAP1 PUSH2 0x5388 JUMP JUMPDEST DUP1 PUSH1 0x1F ADD PUSH1 0x20 DUP1 SWAP2 DIV MUL PUSH1 0x20 ADD PUSH1 0x40 MLOAD SWAP1 DUP2 ADD PUSH1 0x40 MSTORE DUP1 SWAP3 SWAP2 SWAP1 DUP2 DUP2 MSTORE PUSH1 0x20 ADD DUP3 DUP1 SLOAD PUSH2 0x45C SWAP1 PUSH2 0x5388 JUMP JUMPDEST DUP1 ISZERO PUSH2 0x4A9 JUMPI DUP1 PUSH1 0x1F LT PUSH2 0x47E JUMPI PUSH2 0x100 DUP1 DUP4 SLOAD DIV MUL DUP4 MSTORE SWAP2 PUSH1 0x20 ADD SWAP2 PUSH2 0x4A9 JUMP JUMPDEST DUP3 ADD SWAP2 SWAP1 PUSH1 0x0 MSTORE PUSH1 0x20 PUSH1 0x0 KECCAK256 SWAP1 JUMPDEST DUP2 SLOAD DUP2 MSTORE SWAP1 PUSH1 0x1 ADD SWAP1 PUSH1 0x20 ADD DUP1 DUP4 GT PUSH2 0x48C JUMPI DUP3 SWAP1 SUB PUSH1 0x1F AND DUP3 ADD SWAP2 JUMPDEST POP POP POP SWAP2 DUP4 MSTORE POP POP PUSH1 0x3 DUP3 ADD SLOAD PUSH1 0x1 PUSH1 0x1 PUSH1 0xA0 SHL SUB SWAP1 DUP2 AND PUSH1 0x20 DUP1 DUP5 ADD SWAP2 SWAP1 SWAP2 MSTORE PUSH1 0x4 DUP1 DUP6 ADD SLOAD PUSH1 0x40 DUP6 ADD MSTORE PUSH1 0x5 DUP6 ADD SLOAD PUSH1 0x60 DUP6 ADD MSTORE PUSH1 0x6 DUP6 ADD SLOAD PUSH1 0x80 DUP6 ADD MSTORE PUSH1 0x7 DUP6 ADD SLOAD PUSH1 0xFF SWAP1 DUP2 AND ISZERO ISZERO PUSH1 0xA0 DUP7 ADD MSTORE PUSH1 0x8 DUP7 ADD SLOAD PUSH1 0xC0 DUP7 ADD MSTORE PUSH1 0x9 SWAP1 SWAP6 ADD SLOAD SWAP3 DUP4 AND PUSH1 0xE0 DUP6 ADD MSTORE PUSH1 0x1 PUSH1 0xA0 SHL SWAP1 SWAP3 DIV SWAP1 SWAP4 AND ISZERO ISZERO PUSH2 0x100 SWAP1 SWAP3 ADD SWAP2 SWAP1 SWAP2 MSTORE SWAP1 DUP3 ADD MLOAD SWAP2 SWAP3 POP GT PUSH2 0x556 JUMPI PUSH1 0x40 MLOAD PUSH3 0x461BCD PUSH1 0xE5 SHL DUP2 MSTORE PUSH1 0x4 ADD PUSH2 0x54D SWAP1 PUSH2 0x53C3 JUMP JUMPDEST PUSH1 0x40 MLOAD DUP1 SWAP2 SUB SWAP1 REVERT JUMPDEST PUSH1 0x71 DUP5 PUSH1 0x40 MLOAD PUSH2 0x566 SWAP2 SWAP1 PUSH2 0x536C JUMP JUMPDEST SWAP1 DUP2 MSTORE PUSH1 0x40 DUP1 MLOAD SWAP2 DUP3 SWAP1 SUB PUSH1 0x20 SWAP1 DUP2 ADD DUP4 KECCAK256 DUP1 SLOAD DUP1 DUP4 MUL DUP6 ADD DUP4 ADD SWAP1 SWAP4 MSTORE DUP3 DUP5 MSTORE SWAP2 SWAP1 DUP4 ADD DUP3 DUP3 DUP1 ISZERO PUSH2 0x5C2 JUMPI PUSH1 0x20 MUL DUP3 ADD SWAP2 SWAP1 PUSH1 0x0 MSTORE PUSH1 0x20 PUSH1 0x0 KECCAK256 SWAP1 JUMPDEST DUP2 SLOAD PUSH1 0x1 PUSH1 0x1 PUSH1 0xA0 SHL SUB AND DUP2 MSTORE PUSH1 0x1 SWAP1 SWAP2 ADD SWAP1 PUSH1 0x20 ADD DUP1 DUP4 GT PUSH2 0x5A4 JUMPI JUMPDEST POP POP POP POP POP SWAP3 POP JUMPDEST POP POP SWAP2 SWAP1 POP JUMP JUMPDEST PUSH1 0x0 DUP2 PUSH1 0x0 PUSH1 0x6F DUP3 PUSH1 0x40 MLOAD PUSH2 0x5E6 SWAP2 SWAP1 PUSH2 0x536C JUMP JUMPDEST SWAP1 DUP2 MSTORE PUSH1 0x20 ADD PUSH1 0x40 MLOAD DUP1 SWAP2 SUB SWAP1 KECCAK256 PUSH1 0x40 MLOAD DUP1 PUSH2 0x160 ADD PUSH1 0x40 MSTORE SWAP1 DUP2 PUSH1 0x0 DUP3 ADD DUP1 SLOAD PUSH2 0x610 SWAP1 PUSH2 0x5388 JUMP JUMPDEST DUP1 PUSH1 0x1F ADD PUSH1 0x20 DUP1 SWAP2 DIV MUL PUSH1 0x20 ADD PUSH1 0x40 MLOAD SWAP1 DUP2 ADD PUSH1 0x40 MSTORE DUP1 SWAP3 SWAP2 SWAP1 DUP2 DUP2 MSTORE PUSH1 0x20 ADD DUP3 DUP1 SLOAD PUSH2 0x63C SWAP1 PUSH2 0x5388 JUMP JUMPDEST DUP1 ISZERO PUSH2 0x689 JUMPI DUP1 PUSH1 0x1F LT PUSH2 0x65E JUMPI PUSH2 0x100 DUP1 DUP4 SLOAD DIV MUL DUP4 MSTORE SWAP2 PUSH1 0x20 ADD SWAP2 PUSH2 0x689 JUMP JUMPDEST DUP3 ADD SWAP2 SWAP1 PUSH1 0x0 MSTORE PUSH1 0x20 PUSH1 0x0 KECCAK256 SWAP1 JUMPDEST DUP2 SLOAD DUP2 MSTORE SWAP1 PUSH1 0x1 ADD SWAP1 PUSH1 0x20 ADD DUP1 DUP4 GT PUSH2 0x66C JUMPI DUP3 SWAP1 SUB PUSH1 0x1F AND DUP3 ADD SWAP2 JUMPDEST POP POP POP POP POP DUP2 MSTORE PUSH1 0x20 ADD PUSH1 0x1 DUP3 ADD SLOAD DUP2 MSTORE PUSH1 0x20 ADD PUSH1 0x2 DUP3 ADD DUP1 SLOAD PUSH2 0x6AC SWAP1 PUSH2 0x5388 JUMP JUMPDEST DUP1 PUSH1 0x1F ADD PUSH1 0x20 DUP1 SWAP2 DIV MUL PUSH1 0x20 ADD PUSH1 0x40 MLOAD SWAP1 DUP2 ADD PUSH1 0x40 MSTORE DUP1 SWAP3 SWAP2 SWAP1 DUP2 DUP2 MSTORE PUSH1 0x20 ADD DUP3 DUP1 SLOAD PUSH2 0x6D8 SWAP1 PUSH2 0x5388 JUMP JUMPDEST DUP1 ISZERO PUSH2 0x725 JUMPI DUP1 PUSH1 0x1F LT PUSH2 0x6FA JUMPI PUSH2 0x100 DUP1 DUP4 SLOAD DIV MUL DUP4 MSTORE SWAP2 PUSH1 0x20 ADD SWAP2 PUSH2 0x725 JUMP JUMPDEST DUP3 ADD SWAP2 SWAP1 PUSH1 0x0 MSTORE PUSH1 0x20 PUSH1 0x0 KECCAK256 SWAP1 JUMPDEST DUP2 SLOAD DUP2 MSTORE SWAP1 PUSH1 0x1 ADD SWAP1 PUSH1 0x20 ADD DUP1 DUP4 GT PUSH2 0x708 JUMPI DUP3 SWAP1 SUB PUSH1 0x1F AND DUP3 ADD SWAP2 JUMPDEST POP POP POP SWAP2 DUP4 MSTORE POP POP PUSH1 0x3 DUP3 ADD SLOAD PUSH1 0x1 PUSH1 0x1 PUSH1 0xA0 SHL SUB SWAP1 DUP2 AND PUSH1 0x20 DUP1 DUP5 ADD SWAP2 SWAP1 SWAP2 MSTORE PUSH1 0x4 DUP1 DUP6 ADD SLOAD PUSH1 0x40 DUP6 ADD MSTORE PUSH1 0x5 DUP6 ADD SLOAD PUSH1 0x60 DUP6 ADD MSTORE PUSH1 0x6 DUP6 ADD SLOAD PUSH1 0x80 DUP6 ADD MSTORE PUSH1 0x7 DUP6 ADD SLOAD PUSH1 0xFF SWAP1 DUP2 AND ISZERO ISZERO PUSH1 0xA0 DUP7 ADD MSTORE PUSH1 0x8 DUP7 ADD SLOAD PUSH1 0xC0 DUP7 ADD MSTORE PUSH1 0x9 SWAP1 SWAP6 ADD SLOAD SWAP3 DUP4 AND PUSH1 0xE0 DUP6 ADD MSTORE PUSH1 0x1 PUSH1 0xA0 SHL SWAP1 SWAP3 DIV SWAP1 SWAP4 AND ISZERO ISZERO PUSH2 0x100 SWAP1 SWAP3 ADD SWAP2 SWAP1 SWAP2 MSTORE SWAP1 DUP3 ADD MLOAD SWAP2 SWAP3 POP GT PUSH2 0x7C9 JUMPI PUSH1 0x40 MLOAD PUSH3 0x461BCD PUSH1 0xE5 SHL DUP2 MSTORE PUSH1 0x4 ADD PUSH2 0x54D SWAP1 PUSH2 0x53C3 JUMP JUMPDEST PUSH1 0x0 PUSH1 0x6F DUP6 PUSH1 0x40 MLOAD PUSH2 0x7DB SWAP2 SWAP1 PUSH2 0x536C JUMP JUMPDEST SWAP1 DUP2 MSTORE PUSH1 0x20 ADD PUSH1 0x40 MLOAD DUP1 SWAP2 SUB SWAP1 KECCAK256 PUSH1 0x40 MLOAD DUP1 PUSH2 0x160 ADD PUSH1 0x40 MSTORE SWAP1 DUP2 PUSH1 0x0 DUP3 ADD DUP1 SLOAD PUSH2 0x805 SWAP1 PUSH2 0x5388 JUMP JUMPDEST DUP1 PUSH1 0x1F ADD PUSH1 0x20 DUP1 SWAP2 DIV MUL PUSH1 0x20 ADD PUSH1 0x40 MLOAD SWAP1 DUP2 ADD PUSH1 0x40 MSTORE DUP1 SWAP3 SWAP2 SWAP1 DUP2 DUP2 MSTORE PUSH1 0x20 ADD DUP3 DUP1 SLOAD PUSH2 0x831 SWAP1 PUSH2 0x5388 JUMP JUMPDEST DUP1 ISZERO PUSH2 0x87E JUMPI DUP1 PUSH1 0x1F LT PUSH2 0x853 JUMPI PUSH2 0x100 DUP1 DUP4 SLOAD DIV MUL DUP4 MSTORE SWAP2 PUSH1 0x20 ADD SWAP2 PUSH2 0x87E JUMP JUMPDEST DUP3 ADD SWAP2 SWAP1 PUSH1 0x0 MSTORE PUSH1 0x20 PUSH1 0x0 KECCAK256 SWAP1 JUMPDEST DUP2 SLOAD DUP2 MSTORE SWAP1 PUSH1 0x1 ADD SWAP1 PUSH1 0x20 ADD DUP1 DUP4 GT PUSH2 0x861 JUMPI DUP3 SWAP1 SUB PUSH1 0x1F AND DUP3 ADD SWAP2 JUMPDEST POP POP POP POP POP DUP2 MSTORE PUSH1 0x20 ADD PUSH1 0x1 DUP3 ADD SLOAD DUP2 MSTORE PUSH1 0x20 ADD PUSH1 0x2 DUP3 ADD DUP1 SLOAD PUSH2 0x8A1 SWAP1 PUSH2 0x5388 JUMP JUMPDEST DUP1 PUSH1 0x1F ADD PUSH1 0x20 DUP1 SWAP2 DIV MUL PUSH1 0x20 ADD PUSH1 0x40 MLOAD SWAP1 DUP2 ADD PUSH1 0x40 MSTORE DUP1 SWAP3 SWAP2 SWAP1 DUP2 DUP2 MSTORE PUSH1 0x20 ADD DUP3 DUP1 SLOAD PUSH2 0x8CD SWAP1 PUSH2 0x5388 JUMP JUMPDEST DUP1 ISZERO PUSH2 0x91A JUMPI DUP1 PUSH1 0x1F LT PUSH2 0x8EF JUMPI PUSH2 0x100 DUP1 DUP4 SLOAD DIV MUL DUP4 MSTORE SWAP2 PUSH1 0x20 ADD SWAP2 PUSH2 0x91A JUMP JUMPDEST DUP3 ADD SWAP2 SWAP1 PUSH1 0x0 MSTORE PUSH1 0x20 PUSH1 0x0 KECCAK256 SWAP1 JUMPDEST DUP2 SLOAD DUP2 MSTORE SWAP1 PUSH1 0x1 ADD SWAP1 PUSH1 0x20 ADD DUP1 DUP4 GT PUSH2 0x8FD JUMPI DUP3 SWAP1 SUB PUSH1 0x1F AND DUP3 ADD SWAP2 JUMPDEST POP POP POP SWAP2 DUP4 MSTORE POP POP PUSH1 0x3 DUP3 ADD SLOAD PUSH1 0x1 PUSH1 0x1 PUSH1 0xA0 SHL SUB SWAP1 DUP2 AND PUSH1 0x20 DUP4 ADD MSTORE PUSH1 0x4 DUP4 ADD SLOAD PUSH1 0x40 DUP4 ADD MSTORE PUSH1 0x5 DUP4 ADD SLOAD PUSH1 0x60 DUP4 ADD MSTORE PUSH1 0x6 DUP4 ADD SLOAD PUSH1 0x80 DUP4 ADD MSTORE PUSH1 0x7 DUP4 ADD SLOAD PUSH1 0xFF SWAP1 DUP2 AND ISZERO ISZERO PUSH1 0xA0 DUP1 DUP6 ADD SWAP2 SWAP1 SWAP2 MSTORE PUSH1 0x8 DUP6 ADD SLOAD PUSH1 0xC0 DUP6 ADD MSTORE PUSH1 0x9 SWAP1 SWAP5 ADD SLOAD SWAP2 DUP3 AND PUSH1 0xE0 DUP5 ADD MSTORE PUSH1 0x1 PUSH1 0xA0 SHL SWAP1 SWAP2 DIV AND ISZERO ISZERO PUSH2 0x100 SWAP1 SWAP2 ADD MSTORE DUP2 ADD MLOAD SWAP1 SWAP2 POP PUSH1 0x0 SWAP1 PUSH1 0x18 SWAP1 PUSH1 0x3C SWAP1 DUP2 SWAP1 PUSH2 0x9AF SWAP1 TIMESTAMP PUSH2 0x5410 JUMP JUMPDEST PUSH2 0x9B9 SWAP2 SWAP1 PUSH2 0x5427 JUMP JUMPDEST PUSH2 0x9C3 SWAP2 SWAP1 PUSH2 0x5427 JUMP JUMPDEST PUSH2 0x9CD SWAP2 SWAP1 PUSH2 0x5427 JUMP JUMPDEST SWAP1 POP PUSH1 0x0 PUSH1 0x1 PUSH1 0x1 PUSH1 0xA0 SHL SUB AND PUSH1 0x6F DUP8 PUSH1 0x40 MLOAD PUSH2 0x9EA SWAP2 SWAP1 PUSH2 0x536C JUMP JUMPDEST SWAP1 DUP2 MSTORE PUSH1 0x40 MLOAD SWAP1 DUP2 SWAP1 SUB PUSH1 0x20 ADD SWAP1 KECCAK256 PUSH1 0x9 ADD SLOAD PUSH1 0x1 PUSH1 0x1 PUSH1 0xA0 SHL SUB AND EQ DUP1 ISZERO SWAP1 PUSH2 0xA17 JUMPI POP DUP2 PUSH1 0xC0 ADD MLOAD DUP2 GT JUMPDEST PUSH2 0xA5C JUMPI PUSH1 0x40 MLOAD PUSH3 0x461BCD PUSH1 0xE5 SHL DUP2 MSTORE PUSH1 0x20 PUSH1 0x4 DUP3 ADD MSTORE PUSH1 0x16 PUSH1 0x24 DUP3 ADD MSTORE PUSH22 0x4572726F722047657474696E672057696E6E65722121 PUSH1 0x50 SHL PUSH1 0x44 DUP3 ADD MSTORE PUSH1 0x64 ADD PUSH2 0x54D JUMP JUMPDEST PUSH2 0x140 DUP3 ADD MLOAD ISZERO ISZERO PUSH1 0x1 EQ ISZERO PUSH2 0xAB7 JUMPI PUSH32 0xAF9C5487A5254285C7E0CB270C5884FB3C73E8BF058E80FC0CF380DC6908FAC6 DUP3 PUSH2 0x140 ADD MLOAD PUSH1 0x40 MLOAD PUSH2 0xAA4 SWAP2 ISZERO ISZERO DUP2 MSTORE PUSH1 0x20 ADD SWAP1 JUMP JUMPDEST PUSH1 0x40 MLOAD DUP1 SWAP2 SUB SWAP1 LOG1 PUSH1 0x0 SWAP5 POP POP POP PUSH2 0x5CA JUMP JUMPDEST POP PUSH2 0x120 ADD MLOAD SWAP3 POP PUSH2 0x5CA JUMP JUMPDEST DUP2 DUP2 PUSH1 0x0 PUSH1 0x6F DUP3 PUSH1 0x40 MLOAD PUSH2 0xAD8 SWAP2 SWAP1 PUSH2 0x536C JUMP JUMPDEST SWAP1 DUP2 MSTORE PUSH1 0x20 ADD PUSH1 0x40 MLOAD DUP1 SWAP2 SUB SWAP1 KECCAK256 PUSH1 0x40 MLOAD DUP1 PUSH2 0x160 ADD PUSH1 0x40 MSTORE SWAP1 DUP2 PUSH1 0x0 DUP3 ADD DUP1 SLOAD PUSH2 0xB02 SWAP1 PUSH2 0x5388 JUMP JUMPDEST DUP1 PUSH1 0x1F ADD PUSH1 0x20 DUP1 SWAP2 DIV MUL PUSH1 0x20 ADD PUSH1 0x40 MLOAD SWAP1 DUP2 ADD PUSH1 0x40 MSTORE DUP1 SWAP3 SWAP2 SWAP1 DUP2 DUP2 MSTORE PUSH1 0x20 ADD DUP3 DUP1 SLOAD PUSH2 0xB2E SWAP1 PUSH2 0x5388 JUMP JUMPDEST DUP1 ISZERO PUSH2 0xB7B JUMPI DUP1 PUSH1 0x1F LT PUSH2 0xB50 JUMPI PUSH2 0x100 DUP1 DUP4 SLOAD DIV MUL DUP4 MSTORE SWAP2 PUSH1 0x20 ADD SWAP2 PUSH2 0xB7B JUMP JUMPDEST DUP3 ADD SWAP2 SWAP1 PUSH1 0x0 MSTORE PUSH1 0x20 PUSH1 0x0 KECCAK256 SWAP1 JUMPDEST DUP2 SLOAD DUP2 MSTORE SWAP1 PUSH1 0x1 ADD SWAP1 PUSH1 0x20 ADD DUP1 DUP4 GT PUSH2 0xB5E JUMPI DUP3 SWAP1 SUB PUSH1 0x1F AND DUP3 ADD SWAP2 JUMPDEST POP POP POP POP POP DUP2 MSTORE PUSH1 0x20 ADD PUSH1 0x1 DUP3 ADD SLOAD DUP2 MSTORE PUSH1 0x20 ADD PUSH1 0x2 DUP3 ADD DUP1 SLOAD PUSH2 0xB9E SWAP1 PUSH2 0x5388 JUMP JUMPDEST DUP1 PUSH1 0x1F ADD PUSH1 0x20 DUP1 SWAP2 DIV MUL PUSH1 0x20 ADD PUSH1 0x40 MLOAD SWAP1 DUP2 ADD PUSH1 0x40 MSTORE DUP1 SWAP3 SWAP2 SWAP1 DUP2 DUP2 MSTORE PUSH1 0x20 ADD DUP3 DUP1 SLOAD PUSH2 0xBCA SWAP1 PUSH2 0x5388 JUMP JUMPDEST DUP1 ISZERO PUSH2 0xC17 JUMPI DUP1 PUSH1 0x1F LT PUSH2 0xBEC JUMPI PUSH2 0x100 DUP1 DUP4 SLOAD DIV MUL DUP4 MSTORE SWAP2 PUSH1 0x20 ADD SWAP2 PUSH2 0xC17 JUMP JUMPDEST DUP3 ADD SWAP2 SWAP1 PUSH1 0x0 MSTORE PUSH1 0x20 PUSH1 0x0 KECCAK256 SWAP1 JUMPDEST DUP2 SLOAD DUP2 MSTORE SWAP1 PUSH1 0x1 ADD SWAP1 PUSH1 0x20 ADD DUP1 DUP4 GT PUSH2 0xBFA JUMPI DUP3 SWAP1 SUB PUSH1 0x1F AND DUP3 ADD SWAP2 JUMPDEST POP POP POP SWAP2 DUP4 MSTORE POP POP PUSH1 0x3 DUP3 DUP2 ADD SLOAD PUSH1 0x1 PUSH1 0x1 PUSH1 0xA0 SHL SUB SWAP1 DUP2 AND PUSH1 0x20 DUP1 DUP6 ADD SWAP2 SWAP1 SWAP2 MSTORE PUSH1 0x4 DUP6 ADD SLOAD PUSH1 0x40 DUP1 DUP7 ADD SWAP2 SWAP1 SWAP2 MSTORE PUSH1 0x5 DUP7 ADD SLOAD PUSH1 0x60 DUP7 ADD MSTORE PUSH1 0x6 DUP7 ADD SLOAD PUSH1 0x80 DUP7 ADD MSTORE PUSH1 0x7 DUP7 ADD SLOAD PUSH1 0xFF SWAP1 DUP2 AND ISZERO ISZERO PUSH1 0xA0 DUP8 ADD MSTORE PUSH1 0x8 DUP8 ADD SLOAD PUSH1 0xC0 DUP8 ADD MSTORE PUSH1 0x9 SWAP1 SWAP7 ADD SLOAD SWAP3 DUP4 AND PUSH1 0xE0 DUP7 ADD MSTORE PUSH1 0x1 PUSH1 0xA0 SHL SWAP1 SWAP3 DIV DUP6 AND ISZERO ISZERO PUSH2 0x100 SWAP1 SWAP5 ADD SWAP4 SWAP1 SWAP4 MSTORE CALLER PUSH1 0x0 SWAP1 DUP2 MSTORE PUSH1 0x73 SWAP1 SWAP4 MSTORE SWAP1 SWAP2 KECCAK256 ADD SLOAD SWAP2 SWAP3 POP AND ISZERO ISZERO PUSH1 0x1 EQ DUP1 ISZERO PUSH2 0xDA2 JUMPI POP CALLER PUSH1 0x0 SWAP1 DUP2 MSTORE PUSH1 0x75 PUSH1 0x20 SWAP1 DUP2 MSTORE PUSH1 0x40 DUP1 DUP4 KECCAK256 DUP1 SLOAD DUP3 MLOAD DUP2 DUP6 MUL DUP2 ADD DUP6 ADD SWAP1 SWAP4 MSTORE DUP1 DUP4 MSTORE PUSH2 0xDA0 SWAP5 SWAP3 SWAP4 SWAP2 SWAP3 SWAP1 SWAP2 DUP5 ADD JUMPDEST DUP3 DUP3 LT ISZERO PUSH2 0xD96 JUMPI DUP4 DUP3 SWAP1 PUSH1 0x0 MSTORE PUSH1 0x20 PUSH1 0x0 KECCAK256 ADD DUP1 SLOAD PUSH2 0xD09 SWAP1 PUSH2 0x5388 JUMP JUMPDEST DUP1 PUSH1 0x1F ADD PUSH1 0x20 DUP1 SWAP2 DIV MUL PUSH1 0x20 ADD PUSH1 0x40 MLOAD SWAP1 DUP2 ADD PUSH1 0x40 MSTORE DUP1 SWAP3 SWAP2 SWAP1 DUP2 DUP2 MSTORE PUSH1 0x20 ADD DUP3 DUP1 SLOAD PUSH2 0xD35 SWAP1 PUSH2 0x5388 JUMP JUMPDEST DUP1 ISZERO PUSH2 0xD82 JUMPI DUP1 PUSH1 0x1F LT PUSH2 0xD57 JUMPI PUSH2 0x100 DUP1 DUP4 SLOAD DIV MUL DUP4 MSTORE SWAP2 PUSH1 0x20 ADD SWAP2 PUSH2 0xD82 JUMP JUMPDEST DUP3 ADD SWAP2 SWAP1 PUSH1 0x0 MSTORE PUSH1 0x20 PUSH1 0x0 KECCAK256 SWAP1 JUMPDEST DUP2 SLOAD DUP2 MSTORE SWAP1 PUSH1 0x1 ADD SWAP1 PUSH1 0x20 ADD DUP1 DUP4 GT PUSH2 0xD65 JUMPI DUP3 SWAP1 SUB PUSH1 0x1F AND DUP3 ADD SWAP2 JUMPDEST POP POP POP POP POP DUP2 MSTORE PUSH1 0x20 ADD SWAP1 PUSH1 0x1 ADD SWAP1 PUSH2 0xCEA JUMP JUMPDEST POP POP POP POP DUP4 PUSH2 0x2EA5 JUMP JUMPDEST ISZERO JUMPDEST DUP1 ISZERO PUSH2 0xE60 JUMPI POP PUSH2 0xE5A PUSH1 0x6F DUP4 PUSH1 0x40 MLOAD PUSH2 0xDBC SWAP2 SWAP1 PUSH2 0x536C JUMP JUMPDEST SWAP1 DUP2 MSTORE PUSH1 0x40 MLOAD SWAP1 DUP2 SWAP1 SUB PUSH1 0x20 ADD SWAP1 KECCAK256 DUP1 SLOAD PUSH2 0xDD6 SWAP1 PUSH2 0x5388 JUMP JUMPDEST DUP1 PUSH1 0x1F ADD PUSH1 0x20 DUP1 SWAP2 DIV MUL PUSH1 0x20 ADD PUSH1 0x40 MLOAD SWAP1 DUP2 ADD PUSH1 0x40 MSTORE DUP1 SWAP3 SWAP2 SWAP1 DUP2 DUP2 MSTORE PUSH1 0x20 ADD DUP3 DUP1 SLOAD PUSH2 0xE02 SWAP1 PUSH2 0x5388 JUMP JUMPDEST DUP1 ISZERO PUSH2 0xE4F JUMPI DUP1 PUSH1 0x1F LT PUSH2 0xE24 JUMPI PUSH2 0x100 DUP1 DUP4 SLOAD DIV MUL DUP4 MSTORE SWAP2 PUSH1 0x20 ADD SWAP2 PUSH2 0xE4F JUMP JUMPDEST DUP3 ADD SWAP2 SWAP1 PUSH1 0x0 MSTORE PUSH1 0x20 PUSH1 0x0 KECCAK256 SWAP1 JUMPDEST DUP2 SLOAD DUP2 MSTORE SWAP1 PUSH1 0x1 ADD SWAP1 PUSH1 0x20 ADD DUP1 DUP4 GT PUSH2 0xE32 JUMPI DUP3 SWAP1 SUB PUSH1 0x1F AND DUP3 ADD SWAP2 JUMPDEST POP POP POP POP POP DUP4 PUSH2 0x2F0B JUMP JUMPDEST ISZERO ISZERO PUSH1 0x1 EQ JUMPDEST DUP1 ISZERO PUSH2 0xE6E JUMPI POP PUSH1 0xE0 DUP2 ADD MLOAD ISZERO JUMPDEST DUP1 ISZERO PUSH2 0xEA6 JUMPI POP PUSH1 0x1 PUSH1 0x1 PUSH1 0xA0 SHL SUB DUP4 AND PUSH1 0x0 SWAP1 DUP2 MSTORE PUSH1 0x72 PUSH1 0x20 MSTORE PUSH1 0x40 SWAP1 KECCAK256 PUSH1 0x1 ADD DUP1 SLOAD PUSH2 0xEA0 SWAP2 SWAP1 PUSH2 0xDD6 SWAP1 PUSH2 0x5388 JUMP JUMPDEST ISZERO ISZERO PUSH1 0x1 EQ JUMPDEST PUSH2 0xEE1 JUMPI PUSH1 0x40 MLOAD PUSH3 0x461BCD PUSH1 0xE5 SHL DUP2 MSTORE PUSH1 0x20 PUSH1 0x4 DUP3 ADD MSTORE PUSH1 0xC PUSH1 0x24 DUP3 ADD MSTORE PUSH12 0x566F746572204572726F7221 PUSH1 0xA0 SHL PUSH1 0x44 DUP3 ADD MSTORE PUSH1 0x64 ADD PUSH2 0x54D JUMP JUMPDEST PUSH1 0x0 PUSH1 0x6F DUP6 PUSH1 0x40 MLOAD PUSH2 0xEF3 SWAP2 SWAP1 PUSH2 0x536C JUMP JUMPDEST SWAP1 DUP2 MSTORE PUSH1 0x20 ADD PUSH1 0x40 MLOAD DUP1 SWAP2 SUB SWAP1 KECCAK256 PUSH1 0x40 MLOAD DUP1 PUSH2 0x160 ADD PUSH1 0x40 MSTORE SWAP1 DUP2 PUSH1 0x0 DUP3 ADD DUP1 SLOAD PUSH2 0xF1D SWAP1 PUSH2 0x5388 JUMP JUMPDEST DUP1 PUSH1 0x1F ADD PUSH1 0x20 DUP1 SWAP2 DIV MUL PUSH1 0x20 ADD PUSH1 0x40 MLOAD SWAP1 DUP2 ADD PUSH1 0x40 MSTORE DUP1 SWAP3 SWAP2 SWAP1 DUP2 DUP2 MSTORE PUSH1 0x20 ADD DUP3 DUP1 SLOAD PUSH2 0xF49 SWAP1 PUSH2 0x5388 JUMP JUMPDEST DUP1 ISZERO PUSH2 0xF96 JUMPI DUP1 PUSH1 0x1F LT PUSH2 0xF6B JUMPI PUSH2 0x100 DUP1 DUP4 SLOAD DIV MUL DUP4 MSTORE SWAP2 PUSH1 0x20 ADD SWAP2 PUSH2 0xF96 JUMP JUMPDEST DUP3 ADD SWAP2 SWAP1 PUSH1 0x0 MSTORE PUSH1 0x20 PUSH1 0x0 KECCAK256 SWAP1 JUMPDEST DUP2 SLOAD DUP2 MSTORE SWAP1 PUSH1 0x1 ADD SWAP1 PUSH1 0x20 ADD DUP1 DUP4 GT PUSH2 0xF79 JUMPI DUP3 SWAP1 SUB PUSH1 0x1F AND DUP3 ADD SWAP2 JUMPDEST POP POP POP POP POP DUP2 MSTORE PUSH1 0x20 ADD PUSH1 0x1 DUP3 ADD SLOAD DUP2 MSTORE PUSH1 0x20 ADD PUSH1 0x2 DUP3 ADD DUP1 SLOAD PUSH2 0xFB9 SWAP1 PUSH2 0x5388 JUMP JUMPDEST DUP1 PUSH1 0x1F ADD PUSH1 0x20 DUP1 SWAP2 DIV MUL PUSH1 0x20 ADD PUSH1 0x40 MLOAD SWAP1 DUP2 ADD PUSH1 0x40 MSTORE DUP1 SWAP3 SWAP2 SWAP1 DUP2 DUP2 MSTORE PUSH1 0x20 ADD DUP3 DUP1 SLOAD PUSH2 0xFE5 SWAP1 PUSH2 0x5388 JUMP JUMPDEST DUP1 ISZERO PUSH2 0x1032 JUMPI DUP1 PUSH1 0x1F LT PUSH2 0x1007 JUMPI PUSH2 0x100 DUP1 DUP4 SLOAD DIV MUL DUP4 MSTORE SWAP2 PUSH1 0x20 ADD SWAP2 PUSH2 0x1032 JUMP JUMPDEST DUP3 ADD SWAP2 SWAP1 PUSH1 0x0 MSTORE PUSH1 0x20 PUSH1 0x0 KECCAK256 SWAP1 JUMPDEST DUP2 SLOAD DUP2 MSTORE SWAP1 PUSH1 0x1 ADD SWAP1 PUSH1 0x20 ADD DUP1 DUP4 GT PUSH2 0x1015 JUMPI DUP3 SWAP1 SUB PUSH1 0x1F AND DUP3 ADD SWAP2 JUMPDEST POP POP POP SWAP2 DUP4 MSTORE POP POP PUSH1 0x3 DUP3 ADD SLOAD PUSH1 0x1 PUSH1 0x1 PUSH1 0xA0 SHL SUB SWAP1 DUP2 AND PUSH1 0x20 DUP1 DUP5 ADD SWAP2 SWAP1 SWAP2 MSTORE PUSH1 0x4 DUP5 ADD SLOAD PUSH1 0x40 DUP5 ADD MSTORE PUSH1 0x5 DUP5 ADD SLOAD PUSH1 0x60 DUP5 ADD MSTORE PUSH1 0x6 DUP5 ADD SLOAD PUSH1 0x80 DUP5 ADD MSTORE PUSH1 0x7 DUP5 ADD SLOAD PUSH1 0xFF SWAP1 DUP2 AND ISZERO ISZERO PUSH1 0xA0 DUP6 ADD MSTORE PUSH1 0x8 DUP6 ADD SLOAD PUSH1 0xC0 DUP6 ADD MSTORE PUSH1 0x9 SWAP1 SWAP5 ADD SLOAD SWAP2 DUP3 AND PUSH1 0xE0 DUP5 ADD MSTORE PUSH1 0x1 PUSH1 0xA0 SHL SWAP1 SWAP2 DIV SWAP1 SWAP3 AND ISZERO ISZERO PUSH2 0x100 SWAP1 SWAP2 ADD MSTORE DUP2 ADD MLOAD SWAP1 SWAP2 POP PUSH2 0x10C7 JUMPI PUSH2 0x10C2 DUP7 DUP7 PUSH2 0x2F72 JUMP JUMPDEST PUSH2 0x10DE JUMP JUMPDEST DUP1 PUSH1 0x20 ADD MLOAD PUSH1 0x1 EQ ISZERO PUSH2 0x10DE JUMPI PUSH2 0x10DE DUP7 DUP7 PUSH2 0x34D5 JUMP JUMPDEST CALLER PUSH1 0x0 SWAP1 DUP2 MSTORE PUSH1 0x75 PUSH1 0x20 SWAP1 DUP2 MSTORE PUSH1 0x40 DUP3 KECCAK256 DUP1 SLOAD PUSH1 0x1 DUP2 ADD DUP3 SSTORE SWAP1 DUP4 MSTORE SWAP2 DUP2 SWAP1 KECCAK256 DUP8 MLOAD PUSH2 0x1111 SWAP4 SWAP2 SWAP1 SWAP2 ADD SWAP2 DUP9 ADD SWAP1 PUSH2 0x4D80 JUMP JUMPDEST POP POP POP POP POP POP POP JUMP JUMPDEST PUSH1 0x40 DUP1 MLOAD PUSH1 0xE0 DUP2 ADD DUP3 MSTORE PUSH1 0x0 DUP1 DUP3 MSTORE PUSH1 0x20 DUP3 ADD DUP2 SWAP1 MSTORE PUSH1 0x60 SWAP3 DUP3 ADD DUP4 SWAP1 MSTORE SWAP2 DUP2 ADD DUP3 SWAP1 MSTORE PUSH1 0x80 DUP2 ADD DUP3 SWAP1 MSTORE PUSH1 0xA0 DUP2 ADD DUP3 SWAP1 MSTORE PUSH1 0xC0 DUP2 ADD SWAP2 SWAP1 SWAP2 MSTORE DUP2 PUSH1 0x0 PUSH1 0x6F DUP3 PUSH1 0x40 MLOAD PUSH2 0x1167 SWAP2 SWAP1 PUSH2 0x536C JUMP JUMPDEST SWAP1 DUP2 MSTORE PUSH1 0x20 ADD PUSH1 0x40 MLOAD DUP1 SWAP2 SUB SWAP1 KECCAK256 PUSH1 0x40 MLOAD DUP1 PUSH2 0x160 ADD PUSH1 0x40 MSTORE SWAP1 DUP2 PUSH1 0x0 DUP3 ADD DUP1 SLOAD PUSH2 0x1191 SWAP1 PUSH2 0x5388 JUMP JUMPDEST DUP1 PUSH1 0x1F ADD PUSH1 0x20 DUP1 SWAP2 DIV MUL PUSH1 0x20 ADD PUSH1 0x40 MLOAD SWAP1 DUP2 ADD PUSH1 0x40 MSTORE DUP1 SWAP3 SWAP2 SWAP1 DUP2 DUP2 MSTORE PUSH1 0x20 ADD DUP3 DUP1 SLOAD PUSH2 0x11BD SWAP1 PUSH2 0x5388 JUMP JUMPDEST DUP1 ISZERO PUSH2 0x120A JUMPI DUP1 PUSH1 0x1F LT PUSH2 0x11DF JUMPI PUSH2 0x100 DUP1 DUP4 SLOAD DIV MUL DUP4 MSTORE SWAP2 PUSH1 0x20 ADD SWAP2 PUSH2 0x120A JUMP JUMPDEST DUP3 ADD SWAP2 SWAP1 PUSH1 0x0 MSTORE PUSH1 0x20 PUSH1 0x0 KECCAK256 SWAP1 JUMPDEST DUP2 SLOAD DUP2 MSTORE SWAP1 PUSH1 0x1 ADD SWAP1 PUSH1 0x20 ADD DUP1 DUP4 GT PUSH2 0x11ED JUMPI DUP3 SWAP1 SUB PUSH1 0x1F AND DUP3 ADD SWAP2 JUMPDEST POP POP POP POP POP DUP2 MSTORE PUSH1 0x20 ADD PUSH1 0x1 DUP3 ADD SLOAD DUP2 MSTORE PUSH1 0x20 ADD PUSH1 0x2 DUP3 ADD DUP1 SLOAD PUSH2 0x122D SWAP1 PUSH2 0x5388 JUMP JUMPDEST DUP1 PUSH1 0x1F ADD PUSH1 0x20 DUP1 SWAP2 DIV MUL PUSH1 0x20 ADD PUSH1 0x40 MLOAD SWAP1 DUP2 ADD PUSH1 0x40 MSTORE DUP1 SWAP3 SWAP2 SWAP1 DUP2 DUP2 MSTORE PUSH1 0x20 ADD DUP3 DUP1 SLOAD PUSH2 0x1259 SWAP1 PUSH2 0x5388 JUMP JUMPDEST DUP1 ISZERO PUSH2 0x12A6 JUMPI DUP1 PUSH1 0x1F LT PUSH2 0x127B JUMPI PUSH2 0x100 DUP1 DUP4 SLOAD DIV MUL DUP4 MSTORE SWAP2 PUSH1 0x20 ADD SWAP2 PUSH2 0x12A6 JUMP JUMPDEST DUP3 ADD SWAP2 SWAP1 PUSH1 0x0 MSTORE PUSH1 0x20 PUSH1 0x0 KECCAK256 SWAP1 JUMPDEST DUP2 SLOAD DUP2 MSTORE SWAP1 PUSH1 0x1 ADD SWAP1 PUSH1 0x20 ADD DUP1 DUP4 GT PUSH2 0x1289 JUMPI DUP3 SWAP1 SUB PUSH1 0x1F AND DUP3 ADD SWAP2 JUMPDEST POP POP POP SWAP2 DUP4 MSTORE POP POP PUSH1 0x3 DUP3 ADD SLOAD PUSH1 0x1 PUSH1 0x1 PUSH1 0xA0 SHL SUB SWAP1 DUP2 AND PUSH1 0x20 DUP1 DUP5 ADD SWAP2 SWAP1 SWAP2 MSTORE PUSH1 0x4 DUP1 DUP6 ADD SLOAD PUSH1 0x40 DUP6 ADD MSTORE PUSH1 0x5 DUP6 ADD SLOAD PUSH1 0x60 DUP6 ADD MSTORE PUSH1 0x6 DUP6 ADD SLOAD PUSH1 0x80 DUP6 ADD MSTORE PUSH1 0x7 DUP6 ADD SLOAD PUSH1 0xFF SWAP1 DUP2 AND ISZERO ISZERO PUSH1 0xA0 DUP7 ADD MSTORE PUSH1 0x8 DUP7 ADD SLOAD PUSH1 0xC0 DUP7 ADD MSTORE PUSH1 0x9 SWAP1 SWAP6 ADD SLOAD SWAP3 DUP4 AND PUSH1 0xE0 DUP6 ADD MSTORE PUSH1 0x1 PUSH1 0xA0 SHL SWAP1 SWAP3 DIV SWAP1 SWAP4 AND ISZERO ISZERO PUSH2 0x100 SWAP1 SWAP3 ADD SWAP2 SWAP1 SWAP2 MSTORE SWAP1 DUP3 ADD MLOAD SWAP2 SWAP3 POP GT PUSH2 0x134A JUMPI PUSH1 0x40 MLOAD PUSH3 0x461BCD PUSH1 0xE5 SHL DUP2 MSTORE PUSH1 0x4 ADD PUSH2 0x54D SWAP1 PUSH2 0x53C3 JUMP JUMPDEST PUSH1 0x1 PUSH1 0x1 PUSH1 0xA0 SHL SUB DUP1 DUP7 AND PUSH1 0x0 SWAP1 DUP2 MSTORE PUSH1 0x73 PUSH1 0x20 SWAP1 DUP2 MSTORE PUSH1 0x40 SWAP2 DUP3 SWAP1 KECCAK256 DUP3 MLOAD PUSH1 0xE0 DUP2 ADD DUP5 MSTORE DUP2 SLOAD DUP2 MSTORE PUSH1 0x1 DUP3 ADD SLOAD SWAP1 SWAP5 AND SWAP2 DUP5 ADD SWAP2 SWAP1 SWAP2 MSTORE PUSH1 0x2 DUP2 ADD DUP1 SLOAD SWAP2 SWAP3 DUP5 ADD SWAP2 PUSH2 0x1396 SWAP1 PUSH2 0x5388 JUMP JUMPDEST DUP1 PUSH1 0x1F ADD PUSH1 0x20 DUP1 SWAP2 DIV MUL PUSH1 0x20 ADD PUSH1 0x40 MLOAD SWAP1 DUP2 ADD PUSH1 0x40 MSTORE DUP1 SWAP3 SWAP2 SWAP1 DUP2 DUP2 MSTORE PUSH1 0x20 ADD DUP3 DUP1 SLOAD PUSH2 0x13C2 SWAP1 PUSH2 0x5388 JUMP JUMPDEST DUP1 ISZERO PUSH2 0x140F JUMPI DUP1 PUSH1 0x1F LT PUSH2 0x13E4 JUMPI PUSH2 0x100 DUP1 DUP4 SLOAD DIV MUL DUP4 MSTORE SWAP2 PUSH1 0x20 ADD SWAP2 PUSH2 0x140F JUMP JUMPDEST DUP3 ADD SWAP2 SWAP1 PUSH1 0x0 MSTORE PUSH1 0x20 PUSH1 0x0 KECCAK256 SWAP1 JUMPDEST DUP2 SLOAD DUP2 MSTORE SWAP1 PUSH1 0x1 ADD SWAP1 PUSH1 0x20 ADD DUP1 DUP4 GT PUSH2 0x13F2 JUMPI DUP3 SWAP1 SUB PUSH1 0x1F AND DUP3 ADD SWAP2 JUMPDEST POP POP POP SWAP2 DUP4 MSTORE POP POP PUSH1 0x3 DUP3 ADD SLOAD PUSH1 0xFF DUP1 DUP3 AND ISZERO ISZERO PUSH1 0x20 DUP5 ADD MSTORE PUSH2 0x100 DUP3 DIV DUP2 AND ISZERO ISZERO PUSH1 0x40 DUP5 ADD MSTORE PUSH3 0x10000 SWAP1 SWAP2 DIV AND ISZERO ISZERO PUSH1 0x60 DUP3 ADD MSTORE PUSH1 0x4 SWAP1 SWAP2 ADD SLOAD PUSH1 0x80 SWAP1 SWAP2 ADD MSTORE SWAP6 SWAP5 POP POP POP POP POP JUMP JUMPDEST PUSH2 0x14CD PUSH1 0x40 MLOAD DUP1 PUSH2 0x160 ADD PUSH1 0x40 MSTORE DUP1 PUSH1 0x60 DUP2 MSTORE PUSH1 0x20 ADD PUSH1 0x0 DUP2 MSTORE PUSH1 0x20 ADD PUSH1 0x60 DUP2 MSTORE PUSH1 0x20 ADD PUSH1 0x0 PUSH1 0x1 PUSH1 0x1 PUSH1 0xA0 SHL SUB AND DUP2 MSTORE PUSH1 0x20 ADD PUSH1 0x0 DUP2 MSTORE PUSH1 0x20 ADD PUSH1 0x0 DUP2 MSTORE PUSH1 0x20 ADD PUSH1 0x0 DUP2 MSTORE PUSH1 0x20 ADD PUSH1 0x0 ISZERO ISZERO DUP2 MSTORE PUSH1 0x20 ADD PUSH1 0x0 DUP2 MSTORE PUSH1 0x20 ADD PUSH1 0x0 PUSH1 0x1 PUSH1 0x1 PUSH1 0xA0 SHL SUB AND DUP2 MSTORE PUSH1 0x20 ADD PUSH1 0x0 ISZERO ISZERO DUP2 MSTORE POP SWAP1 JUMP JUMPDEST DUP2 PUSH1 0x0 PUSH1 0x6F DUP3 PUSH1 0x40 MLOAD PUSH2 0x14E0 SWAP2 SWAP1 PUSH2 0x536C JUMP JUMPDEST SWAP1 DUP2 MSTORE PUSH1 0x20 ADD PUSH1 0x40 MLOAD DUP1 SWAP2 SUB SWAP1 KECCAK256 PUSH1 0x40 MLOAD DUP1 PUSH2 0x160 ADD PUSH1 0x40 MSTORE SWAP1 DUP2 PUSH1 0x0 DUP3 ADD DUP1 SLOAD PUSH2 0x150A SWAP1 PUSH2 0x5388 JUMP JUMPDEST DUP1 PUSH1 0x1F ADD PUSH1 0x20 DUP1 SWAP2 DIV MUL PUSH1 0x20 ADD PUSH1 0x40 MLOAD SWAP1 DUP2 ADD PUSH1 0x40 MSTORE DUP1 SWAP3 SWAP2 SWAP1 DUP2 DUP2 MSTORE PUSH1 0x20 ADD DUP3 DUP1 SLOAD PUSH2 0x1536 SWAP1 PUSH2 0x5388 JUMP JUMPDEST DUP1 ISZERO PUSH2 0x1583 JUMPI DUP1 PUSH1 0x1F LT PUSH2 0x1558 JUMPI PUSH2 0x100 DUP1 DUP4 SLOAD DIV MUL DUP4 MSTORE SWAP2 PUSH1 0x20 ADD SWAP2 PUSH2 0x1583 JUMP JUMPDEST DUP3 ADD SWAP2 SWAP1 PUSH1 0x0 MSTORE PUSH1 0x20 PUSH1 0x0 KECCAK256 SWAP1 JUMPDEST DUP2 SLOAD DUP2 MSTORE SWAP1 PUSH1 0x1 ADD SWAP1 PUSH1 0x20 ADD DUP1 DUP4 GT PUSH2 0x1566 JUMPI DUP3 SWAP1 SUB PUSH1 0x1F AND DUP3 ADD SWAP2 JUMPDEST POP POP POP POP POP DUP2 MSTORE PUSH1 0x20 ADD PUSH1 0x1 DUP3 ADD SLOAD DUP2 MSTORE PUSH1 0x20 ADD PUSH1 0x2 DUP3 ADD DUP1 SLOAD PUSH2 0x15A6 SWAP1 PUSH2 0x5388 JUMP JUMPDEST DUP1 PUSH1 0x1F ADD PUSH1 0x20 DUP1 SWAP2 DIV MUL PUSH1 0x20 ADD PUSH1 0x40 MLOAD SWAP1 DUP2 ADD PUSH1 0x40 MSTORE DUP1 SWAP3 SWAP2 SWAP1 DUP2 DUP2 MSTORE PUSH1 0x20 ADD DUP3 DUP1 SLOAD PUSH2 0x15D2 SWAP1 PUSH2 0x5388 JUMP JUMPDEST DUP1 ISZERO PUSH2 0x161F JUMPI DUP1 PUSH1 0x1F LT PUSH2 0x15F4 JUMPI PUSH2 0x100 DUP1 DUP4 SLOAD DIV MUL DUP4 MSTORE SWAP2 PUSH1 0x20 ADD SWAP2 PUSH2 0x161F JUMP JUMPDEST DUP3 ADD SWAP2 SWAP1 PUSH1 0x0 MSTORE PUSH1 0x20 PUSH1 0x0 KECCAK256 SWAP1 JUMPDEST DUP2 SLOAD DUP2 MSTORE SWAP1 PUSH1 0x1 ADD SWAP1 PUSH1 0x20 ADD DUP1 DUP4 GT PUSH2 0x1602 JUMPI DUP3 SWAP1 SUB PUSH1 0x1F AND DUP3 ADD SWAP2 JUMPDEST POP POP POP SWAP2 DUP4 MSTORE POP POP PUSH1 0x3 DUP3 ADD SLOAD PUSH1 0x1 PUSH1 0x1 PUSH1 0xA0 SHL SUB SWAP1 DUP2 AND PUSH1 0x20 DUP1 DUP5 ADD SWAP2 SWAP1 SWAP2 MSTORE PUSH1 0x4 DUP1 DUP6 ADD SLOAD PUSH1 0x40 DUP6 ADD MSTORE PUSH1 0x5 DUP6 ADD SLOAD PUSH1 0x60 DUP6 ADD MSTORE PUSH1 0x6 DUP6 ADD SLOAD PUSH1 0x80 DUP6 ADD MSTORE PUSH1 0x7 DUP6 ADD SLOAD PUSH1 0xFF SWAP1 DUP2 AND ISZERO ISZERO PUSH1 0xA0 DUP7 ADD MSTORE PUSH1 0x8 DUP7 ADD SLOAD PUSH1 0xC0 DUP7 ADD MSTORE PUSH1 0x9 SWAP1 SWAP6 ADD SLOAD SWAP3 DUP4 AND PUSH1 0xE0 DUP6 ADD MSTORE PUSH1 0x1 PUSH1 0xA0 SHL SWAP1 SWAP3 DIV SWAP1 SWAP4 AND ISZERO ISZERO PUSH2 0x100 SWAP1 SWAP3 ADD SWAP2 SWAP1 SWAP2 MSTORE SWAP1 DUP3 ADD MLOAD SWAP2 SWAP3 POP GT PUSH2 0x16C3 JUMPI PUSH1 0x40 MLOAD PUSH3 0x461BCD PUSH1 0xE5 SHL DUP2 MSTORE PUSH1 0x4 ADD PUSH2 0x54D SWAP1 PUSH2 0x53C3 JUMP JUMPDEST PUSH1 0x6F DUP5 PUSH1 0x40 MLOAD PUSH2 0x16D3 SWAP2 SWAP1 PUSH2 0x536C JUMP JUMPDEST SWAP1 DUP2 MSTORE PUSH1 0x20 ADD PUSH1 0x40 MLOAD DUP1 SWAP2 SUB SWAP1 KECCAK256 PUSH1 0x40 MLOAD DUP1 PUSH2 0x160 ADD PUSH1 0x40 MSTORE SWAP1 DUP2 PUSH1 0x0 DUP3 ADD DUP1 SLOAD PUSH2 0x16FD SWAP1 PUSH2 0x5388 JUMP JUMPDEST DUP1 PUSH1 0x1F ADD PUSH1 0x20 DUP1 SWAP2 DIV MUL PUSH1 0x20 ADD PUSH1 0x40 MLOAD SWAP1 DUP2 ADD PUSH1 0x40 MSTORE DUP1 SWAP3 SWAP2 SWAP1 DUP2 DUP2 MSTORE PUSH1 0x20 ADD DUP3 DUP1 SLOAD PUSH2 0x1729 SWAP1 PUSH2 0x5388 JUMP JUMPDEST DUP1 ISZERO PUSH2 0x1776 JUMPI DUP1 PUSH1 0x1F LT PUSH2 0x174B JUMPI PUSH2 0x100 DUP1 DUP4 SLOAD DIV MUL DUP4 MSTORE SWAP2 PUSH1 0x20 ADD SWAP2 PUSH2 0x1776 JUMP JUMPDEST DUP3 ADD SWAP2 SWAP1 PUSH1 0x0 MSTORE PUSH1 0x20 PUSH1 0x0 KECCAK256 SWAP1 JUMPDEST DUP2 SLOAD DUP2 MSTORE SWAP1 PUSH1 0x1 ADD SWAP1 PUSH1 0x20 ADD DUP1 DUP4 GT PUSH2 0x1759 JUMPI DUP3 SWAP1 SUB PUSH1 0x1F AND DUP3 ADD SWAP2 JUMPDEST POP POP POP POP POP DUP2 MSTORE PUSH1 0x20 ADD PUSH1 0x1 DUP3 ADD SLOAD DUP2 MSTORE PUSH1 0x20 ADD PUSH1 0x2 DUP3 ADD DUP1 SLOAD PUSH2 0x1799 SWAP1 PUSH2 0x5388 JUMP JUMPDEST DUP1 PUSH1 0x1F ADD PUSH1 0x20 DUP1 SWAP2 DIV MUL PUSH1 0x20 ADD PUSH1 0x40 MLOAD SWAP1 DUP2 ADD PUSH1 0x40 MSTORE DUP1 SWAP3 SWAP2 SWAP1 DUP2 DUP2 MSTORE PUSH1 0x20 ADD DUP3 DUP1 SLOAD PUSH2 0x17C5 SWAP1 PUSH2 0x5388 JUMP JUMPDEST DUP1 ISZERO PUSH2 0x1812 JUMPI DUP1 PUSH1 0x1F LT PUSH2 0x17E7 JUMPI PUSH2 0x100 DUP1 DUP4 SLOAD DIV MUL DUP4 MSTORE SWAP2 PUSH1 0x20 ADD SWAP2 PUSH2 0x1812 JUMP JUMPDEST DUP3 ADD SWAP2 SWAP1 PUSH1 0x0 MSTORE PUSH1 0x20 PUSH1 0x0 KECCAK256 SWAP1 JUMPDEST DUP2 SLOAD DUP2 MSTORE SWAP1 PUSH1 0x1 ADD SWAP1 PUSH1 0x20 ADD DUP1 DUP4 GT PUSH2 0x17F5 JUMPI DUP3 SWAP1 SUB PUSH1 0x1F AND DUP3 ADD SWAP2 JUMPDEST POP POP POP SWAP2 DUP4 MSTORE POP POP PUSH1 0x3 DUP3 ADD SLOAD PUSH1 0x1 PUSH1 0x1 PUSH1 0xA0 SHL SUB SWAP1 DUP2 AND PUSH1 0x20 DUP4 ADD MSTORE PUSH1 0x4 DUP4 ADD SLOAD PUSH1 0x40 DUP4 ADD MSTORE PUSH1 0x5 DUP4 ADD SLOAD PUSH1 0x60 DUP4 ADD MSTORE PUSH1 0x6 DUP4 ADD SLOAD PUSH1 0x80 DUP4 ADD MSTORE PUSH1 0x7 DUP4 ADD SLOAD PUSH1 0xFF SWAP1 DUP2 AND ISZERO ISZERO PUSH1 0xA0 DUP5 ADD MSTORE PUSH1 0x8 DUP5 ADD SLOAD PUSH1 0xC0 DUP5 ADD MSTORE PUSH1 0x9 SWAP1 SWAP4 ADD SLOAD SWAP1 DUP2 AND PUSH1 0xE0 DUP4 ADD MSTORE PUSH1 0x1 PUSH1 0xA0 SHL SWAP1 DIV SWAP1 SWAP2 AND ISZERO ISZERO PUSH2 0x100 SWAP1 SWAP2 ADD MSTORE SWAP5 SWAP4 POP POP POP POP JUMP JUMPDEST PUSH2 0x1899 PUSH2 0x3BC0 JUMP JUMPDEST PUSH1 0x65 SLOAD PUSH1 0x40 MLOAD PUSH1 0x1 PUSH1 0x1 PUSH1 0xA0 SHL SUB SWAP1 SWAP2 AND SWAP1 SELFBALANCE DUP1 ISZERO PUSH2 0x8FC MUL SWAP2 PUSH1 0x0 DUP2 DUP2 DUP2 DUP6 DUP9 DUP9 CALL SWAP4 POP POP POP POP ISZERO DUP1 ISZERO PUSH2 0x18D2 JUMPI RETURNDATASIZE PUSH1 0x0 DUP1 RETURNDATACOPY RETURNDATASIZE PUSH1 0x0 REVERT JUMPDEST POP JUMP JUMPDEST PUSH1 0x0 PUSH1 0x6F DUP3 PUSH1 0x40 MLOAD PUSH2 0x18E7 SWAP2 SWAP1 PUSH2 0x536C JUMP JUMPDEST SWAP1 DUP2 MSTORE PUSH1 0x20 ADD PUSH1 0x40 MLOAD DUP1 SWAP2 SUB SWAP1 KECCAK256 PUSH1 0x40 MLOAD DUP1 PUSH2 0x160 ADD PUSH1 0x40 MSTORE SWAP1 DUP2 PUSH1 0x0 DUP3 ADD DUP1 SLOAD PUSH2 0x1911 SWAP1 PUSH2 0x5388 JUMP JUMPDEST DUP1 PUSH1 0x1F ADD PUSH1 0x20 DUP1 SWAP2 DIV MUL PUSH1 0x20 ADD PUSH1 0x40 MLOAD SWAP1 DUP2 ADD PUSH1 0x40 MSTORE DUP1 SWAP3 SWAP2 SWAP1 DUP2 DUP2 MSTORE PUSH1 0x20 ADD DUP3 DUP1 SLOAD PUSH2 0x193D SWAP1 PUSH2 0x5388 JUMP JUMPDEST DUP1 ISZERO PUSH2 0x198A JUMPI DUP1 PUSH1 0x1F LT PUSH2 0x195F JUMPI PUSH2 0x100 DUP1 DUP4 SLOAD DIV MUL DUP4 MSTORE SWAP2 PUSH1 0x20 ADD SWAP2 PUSH2 0x198A JUMP JUMPDEST DUP3 ADD SWAP2 SWAP1 PUSH1 0x0 MSTORE PUSH1 0x20 PUSH1 0x0 KECCAK256 SWAP1 JUMPDEST DUP2 SLOAD DUP2 MSTORE SWAP1 PUSH1 0x1 ADD SWAP1 PUSH1 0x20 ADD DUP1 DUP4 GT PUSH2 0x196D JUMPI DUP3 SWAP1 SUB PUSH1 0x1F AND DUP3 ADD SWAP2 JUMPDEST POP POP POP POP POP DUP2 MSTORE PUSH1 0x20 ADD PUSH1 0x1 DUP3 ADD SLOAD DUP2 MSTORE PUSH1 0x20 ADD PUSH1 0x2 DUP3 ADD DUP1 SLOAD PUSH2 0x19AD SWAP1 PUSH2 0x5388 JUMP JUMPDEST DUP1 PUSH1 0x1F ADD PUSH1 0x20 DUP1 SWAP2 DIV MUL PUSH1 0x20 ADD PUSH1 0x40 MLOAD SWAP1 DUP2 ADD PUSH1 0x40 MSTORE DUP1 SWAP3 SWAP2 SWAP1 DUP2 DUP2 MSTORE PUSH1 0x20 ADD DUP3 DUP1 SLOAD PUSH2 0x19D9 SWAP1 PUSH2 0x5388 JUMP JUMPDEST DUP1 ISZERO PUSH2 0x1A26 JUMPI DUP1 PUSH1 0x1F LT PUSH2 0x19FB JUMPI PUSH2 0x100 DUP1 DUP4 SLOAD DIV MUL DUP4 MSTORE SWAP2 PUSH1 0x20 ADD SWAP2 PUSH2 0x1A26 JUMP JUMPDEST DUP3 ADD SWAP2 SWAP1 PUSH1 0x0 MSTORE PUSH1 0x20 PUSH1 0x0 KECCAK256 SWAP1 JUMPDEST DUP2 SLOAD DUP2 MSTORE SWAP1 PUSH1 0x1 ADD SWAP1 PUSH1 0x20 ADD DUP1 DUP4 GT PUSH2 0x1A09 JUMPI DUP3 SWAP1 SUB PUSH1 0x1F AND DUP3 ADD SWAP2 JUMPDEST POP POP POP SWAP2 DUP4 MSTORE POP POP PUSH1 0x3 DUP3 ADD SLOAD PUSH1 0x1 PUSH1 0x1 PUSH1 0xA0 SHL SUB SWAP1 DUP2 AND PUSH1 0x20 DUP1 DUP5 ADD SWAP2 SWAP1 SWAP2 MSTORE PUSH1 0x4 DUP5 ADD SLOAD PUSH1 0x40 DUP5 ADD MSTORE PUSH1 0x5 DUP5 ADD SLOAD PUSH1 0x60 DUP1 DUP6 ADD SWAP2 SWAP1 SWAP2 MSTORE PUSH1 0x6 DUP6 ADD SLOAD PUSH1 0x80 DUP6 ADD MSTORE PUSH1 0x7 DUP6 ADD SLOAD PUSH1 0xFF SWAP1 DUP2 AND ISZERO ISZERO PUSH1 0xA0 DUP7 ADD MSTORE PUSH1 0x8 DUP7 ADD SLOAD PUSH1 0xC0 DUP7 ADD MSTORE PUSH1 0x9 SWAP1 SWAP6 ADD SLOAD DUP1 DUP5 AND PUSH1 0xE0 DUP7 ADD MSTORE PUSH1 0x1 PUSH1 0xA0 SHL SWAP1 DIV SWAP1 SWAP5 AND ISZERO ISZERO PUSH2 0x100 SWAP1 SWAP4 ADD SWAP3 SWAP1 SWAP3 MSTORE SWAP1 DUP4 ADD MLOAD SWAP2 DUP4 ADD MLOAD SWAP3 SWAP4 POP SWAP1 SWAP2 AND CALLER EQ DUP1 ISZERO PUSH2 0x1AC9 JUMPI POP PUSH1 0x1 DUP3 PUSH1 0x80 ADD MLOAD LT ISZERO JUMPDEST DUP1 ISZERO PUSH2 0x1AD7 JUMPI POP PUSH1 0xE0 DUP3 ADD MLOAD ISZERO JUMPDEST DUP1 ISZERO PUSH2 0x1B93 JUMPI POP PUSH1 0x1 PUSH1 0x1 PUSH1 0xA0 SHL SUB DUP5 AND PUSH1 0x0 SWAP1 DUP2 MSTORE PUSH1 0x73 PUSH1 0x20 MSTORE PUSH1 0x40 SWAP1 KECCAK256 PUSH1 0x2 ADD DUP1 SLOAD PUSH2 0x1B8D SWAP2 SWAP1 PUSH2 0x1B09 SWAP1 PUSH2 0x5388 JUMP JUMPDEST DUP1 PUSH1 0x1F ADD PUSH1 0x20 DUP1 SWAP2 DIV MUL PUSH1 0x20 ADD PUSH1 0x40 MLOAD SWAP1 DUP2 ADD PUSH1 0x40 MSTORE DUP1 SWAP3 SWAP2 SWAP1 DUP2 DUP2 MSTORE PUSH1 0x20 ADD DUP3 DUP1 SLOAD PUSH2 0x1B35 SWAP1 PUSH2 0x5388 JUMP JUMPDEST DUP1 ISZERO PUSH2 0x1B82 JUMPI DUP1 PUSH1 0x1F LT PUSH2 0x1B57 JUMPI PUSH2 0x100 DUP1 DUP4 SLOAD DIV MUL DUP4 MSTORE SWAP2 PUSH1 0x20 ADD SWAP2 PUSH2 0x1B82 JUMP JUMPDEST DUP3 ADD SWAP2 SWAP1 PUSH1 0x0 MSTORE PUSH1 0x20 PUSH1 0x0 KECCAK256 SWAP1 JUMPDEST DUP2 SLOAD DUP2 MSTORE SWAP1 PUSH1 0x1 ADD SWAP1 PUSH1 0x20 ADD DUP1 DUP4 GT PUSH2 0x1B65 JUMPI DUP3 SWAP1 SUB PUSH1 0x1F AND DUP3 ADD SWAP2 JUMPDEST POP POP POP POP POP DUP5 PUSH2 0x2F0B JUMP JUMPDEST ISZERO ISZERO PUSH1 0x1 EQ JUMPDEST DUP1 ISZERO PUSH2 0x1BBF JUMPI POP PUSH1 0x1 PUSH1 0x1 PUSH1 0xA0 SHL SUB DUP5 AND PUSH1 0x0 SWAP1 DUP2 MSTORE PUSH1 0x73 PUSH1 0x20 MSTORE PUSH1 0x40 SWAP1 KECCAK256 PUSH1 0x3 ADD SLOAD PUSH1 0xFF AND ISZERO ISZERO PUSH1 0x1 EQ JUMPDEST DUP1 ISZERO PUSH2 0x1BEC JUMPI POP PUSH1 0x1 PUSH1 0x1 PUSH1 0xA0 SHL SUB DUP5 AND PUSH1 0x0 SWAP1 DUP2 MSTORE PUSH1 0x73 PUSH1 0x20 MSTORE PUSH1 0x40 SWAP1 KECCAK256 PUSH1 0x3 ADD SLOAD PUSH2 0x100 SWAP1 DIV PUSH1 0xFF AND ISZERO JUMPDEST DUP1 ISZERO PUSH2 0x1BF8 JUMPI POP DUP1 PUSH1 0x1 EQ JUMPDEST DUP1 PUSH2 0x1C03 JUMPI POP DUP1 PUSH1 0x3 EQ JUMPDEST PUSH2 0x1C4F JUMPI PUSH1 0x40 MLOAD PUSH3 0x461BCD PUSH1 0xE5 SHL DUP2 MSTORE PUSH1 0x20 PUSH1 0x4 DUP3 ADD MSTORE PUSH1 0x1E PUSH1 0x24 DUP3 ADD MSTORE PUSH32 0x4572726F722041737369676E696E6720566F74696E6720526967687473210000 PUSH1 0x44 DUP3 ADD MSTORE PUSH1 0x64 ADD PUSH2 0x54D JUMP JUMPDEST PUSH1 0x1 PUSH1 0x1 PUSH1 0xA0 SHL SUB DUP5 AND PUSH1 0x0 DUP2 DUP2 MSTORE PUSH1 0x73 PUSH1 0x20 SWAP1 DUP2 MSTORE PUSH1 0x40 SWAP2 DUP3 SWAP1 KECCAK256 PUSH1 0x3 ADD DUP1 SLOAD PUSH2 0xFF00 NOT AND PUSH2 0x100 OR SWAP1 SSTORE SWAP1 MLOAD SWAP2 DUP3 MSTORE PUSH32 0x94055E6BCDFA83FA1F2CB2901FD22DB9E96F758348742A662B752BC32B765800 SWAP2 ADD PUSH1 0x40 MLOAD DUP1 SWAP2 SUB SWAP1 LOG1 POP POP POP POP JUMP JUMPDEST PUSH1 0x6A SLOAD DUP6 SWAP1 CALLVALUE LT DUP1 ISZERO SWAP1 PUSH2 0x1CC6 JUMPI POP PUSH1 0x0 DUP2 MLOAD GT JUMPDEST DUP1 ISZERO PUSH2 0x1CD3 JUMPI POP PUSH1 0x1 DUP6 MLOAD GT JUMPDEST DUP1 ISZERO PUSH2 0x1CE1 JUMPI POP PUSH1 0x6E SLOAD DUP5 GT ISZERO JUMPDEST DUP1 ISZERO PUSH2 0x1CEC JUMPI POP DUP2 DUP4 GT JUMPDEST DUP1 ISZERO PUSH2 0x1CF8 JUMPI POP PUSH1 0x0 DUP3 GT JUMPDEST PUSH2 0x1D3D JUMPI PUSH1 0x40 MLOAD PUSH3 0x461BCD PUSH1 0xE5 SHL DUP2 MSTORE PUSH1 0x20 PUSH1 0x4 DUP3 ADD MSTORE PUSH1 0x16 PUSH1 0x24 DUP3 ADD MSTORE PUSH22 0x4572726F722042616C6C6F74204372656174696F6E21 PUSH1 0x50 SHL PUSH1 0x44 DUP3 ADD MSTORE PUSH1 0x64 ADD PUSH2 0x54D JUMP JUMPDEST DUP5 PUSH1 0x70 DUP9 PUSH1 0x40 MLOAD PUSH2 0x1D4E SWAP2 SWAP1 PUSH2 0x536C JUMP JUMPDEST SWAP1 DUP2 MSTORE PUSH1 0x20 ADD PUSH1 0x40 MLOAD DUP1 SWAP2 SUB SWAP1 KECCAK256 SWAP1 DUP1 MLOAD SWAP1 PUSH1 0x20 ADD SWAP1 PUSH2 0x1D6F SWAP3 SWAP2 SWAP1 PUSH2 0x4E04 JUMP JUMPDEST POP DUP5 MLOAD PUSH1 0x0 JUMPDEST DUP2 DUP2 LT ISZERO PUSH2 0x1E88 JUMPI PUSH1 0x0 PUSH1 0x40 MLOAD DUP1 PUSH1 0x80 ADD PUSH1 0x40 MSTORE DUP1 PUSH1 0x66 SLOAD DUP2 MSTORE PUSH1 0x20 ADD DUP12 DUP2 MSTORE PUSH1 0x20 ADD DUP10 DUP5 DUP2 MLOAD DUP2 LT PUSH2 0x1DAA JUMPI PUSH2 0x1DAA PUSH2 0x5449 JUMP JUMPDEST PUSH1 0x20 MUL PUSH1 0x20 ADD ADD MLOAD PUSH1 0x1 PUSH1 0x1 PUSH1 0xA0 SHL SUB AND DUP2 MSTORE PUSH1 0x20 ADD PUSH1 0x0 DUP2 MSTORE POP SWAP1 POP DUP1 PUSH1 0x72 PUSH1 0x0 DUP11 DUP6 DUP2 MLOAD DUP2 LT PUSH2 0x1DDE JUMPI PUSH2 0x1DDE PUSH2 0x5449 JUMP JUMPDEST PUSH1 0x20 MUL PUSH1 0x20 ADD ADD MLOAD PUSH1 0x1 PUSH1 0x1 PUSH1 0xA0 SHL SUB AND PUSH1 0x1 PUSH1 0x1 PUSH1 0xA0 SHL SUB AND DUP2 MSTORE PUSH1 0x20 ADD SWAP1 DUP2 MSTORE PUSH1 0x20 ADD PUSH1 0x0 KECCAK256 PUSH1 0x0 DUP3 ADD MLOAD DUP2 PUSH1 0x0 ADD SSTORE PUSH1 0x20 DUP3 ADD MLOAD DUP2 PUSH1 0x1 ADD SWAP1 DUP1 MLOAD SWAP1 PUSH1 0x20 ADD SWAP1 PUSH2 0x1E2C SWAP3 SWAP2 SWAP1 PUSH2 0x4D80 JUMP JUMPDEST POP PUSH1 0x40 DUP3 ADD MLOAD PUSH1 0x2 DUP3 ADD DUP1 SLOAD PUSH1 0x1 PUSH1 0x1 PUSH1 0xA0 SHL SUB NOT AND PUSH1 0x1 PUSH1 0x1 PUSH1 0xA0 SHL SUB SWAP1 SWAP3 AND SWAP2 SWAP1 SWAP2 OR SWAP1 SSTORE PUSH1 0x60 SWAP1 SWAP2 ADD MLOAD PUSH1 0x3 SWAP1 SWAP2 ADD SSTORE PUSH1 0x66 DUP1 SLOAD SWAP1 PUSH1 0x0 PUSH2 0x1E6F DUP4 PUSH2 0x545F JUMP JUMPDEST SWAP2 SWAP1 POP SSTORE POP POP DUP1 DUP1 PUSH2 0x1E80 SWAP1 PUSH2 0x545F JUMP JUMPDEST SWAP2 POP POP PUSH2 0x1D75 JUMP JUMPDEST POP PUSH1 0x40 DUP1 MLOAD PUSH2 0x160 DUP2 ADD DUP3 MSTORE DUP10 DUP2 MSTORE PUSH1 0x20 DUP2 ADD DUP8 SWAP1 MSTORE DUP1 DUP3 ADD DUP10 SWAP1 MSTORE CALLER PUSH1 0x60 DUP3 ADD MSTORE PUSH1 0x0 PUSH1 0x80 DUP3 ADD DUP2 SWAP1 MSTORE TIMESTAMP PUSH1 0xA0 DUP4 ADD MSTORE PUSH1 0xC0 DUP3 ADD DUP8 SWAP1 MSTORE PUSH1 0xE0 DUP3 ADD DUP2 SWAP1 MSTORE PUSH2 0x100 DUP3 ADD DUP7 SWAP1 MSTORE PUSH2 0x120 DUP3 ADD DUP2 SWAP1 MSTORE PUSH2 0x140 DUP3 ADD MSTORE SWAP1 MLOAD DUP2 SWAP1 PUSH1 0x6F SWAP1 PUSH2 0x1EEF SWAP1 DUP13 SWAP1 PUSH2 0x536C JUMP JUMPDEST SWAP1 DUP2 MSTORE PUSH1 0x20 ADD PUSH1 0x40 MLOAD DUP1 SWAP2 SUB SWAP1 KECCAK256 PUSH1 0x0 DUP3 ADD MLOAD DUP2 PUSH1 0x0 ADD SWAP1 DUP1 MLOAD SWAP1 PUSH1 0x20 ADD SWAP1 PUSH2 0x1F19 SWAP3 SWAP2 SWAP1 PUSH2 0x4D80 JUMP JUMPDEST POP PUSH1 0x20 DUP3 DUP2 ADD MLOAD PUSH1 0x1 DUP4 ADD SSTORE PUSH1 0x40 DUP4 ADD MLOAD DUP1 MLOAD PUSH2 0x1F3C SWAP3 PUSH1 0x2 DUP6 ADD SWAP3 ADD SWAP1 PUSH2 0x4D80 JUMP JUMPDEST POP PUSH1 0x60 DUP3 ADD MLOAD PUSH1 0x3 DUP3 ADD DUP1 SLOAD PUSH1 0x1 PUSH1 0x1 PUSH1 0xA0 SHL SUB NOT AND PUSH1 0x1 PUSH1 0x1 PUSH1 0xA0 SHL SUB SWAP3 DUP4 AND OR SWAP1 SSTORE PUSH1 0x80 DUP4 ADD MLOAD PUSH1 0x4 DUP4 ADD SSTORE PUSH1 0xA0 DUP4 ADD MLOAD PUSH1 0x5 DUP4 ADD SSTORE PUSH1 0xC0 DUP4 ADD MLOAD PUSH1 0x6 DUP4 ADD SSTORE PUSH1 0xE0 DUP4 ADD MLOAD PUSH1 0x7 DUP4 ADD DUP1 SLOAD PUSH1 0xFF NOT AND SWAP2 ISZERO ISZERO SWAP2 SWAP1 SWAP2 OR SWAP1 SSTORE PUSH2 0x100 DUP4 ADD MLOAD PUSH1 0x8 DUP4 ADD SSTORE PUSH2 0x120 DUP4 ADD MLOAD PUSH1 0x9 SWAP1 SWAP3 ADD DUP1 SLOAD PUSH2 0x140 SWAP1 SWAP5 ADD MLOAD SWAP3 SWAP1 SWAP2 AND PUSH1 0x1 PUSH1 0x1 PUSH1 0xA8 SHL SUB NOT SWAP1 SWAP4 AND SWAP3 SWAP1 SWAP3 OR PUSH1 0x1 PUSH1 0xA0 SHL SWAP2 ISZERO ISZERO SWAP2 SWAP1 SWAP2 MUL OR SWAP1 SSTORE PUSH1 0x68 DUP1 SLOAD PUSH1 0x1 DUP2 ADD DUP3 SSTORE PUSH1 0x0 SWAP2 SWAP1 SWAP2 MSTORE DUP2 MLOAD DUP1 MLOAD DUP4 SWAP3 PUSH32 0xA2153420D844928B4421650203C77BABC8B33D7F2E7B450E2966DB0C22097753 PUSH1 0xA SWAP1 SWAP2 MUL ADD SWAP2 PUSH2 0x2025 SWAP2 DUP4 SWAP2 PUSH1 0x20 ADD SWAP1 PUSH2 0x4D80 JUMP JUMPDEST POP PUSH1 0x20 DUP3 DUP2 ADD MLOAD PUSH1 0x1 DUP4 ADD SSTORE PUSH1 0x40 DUP4 ADD MLOAD DUP1 MLOAD PUSH2 0x2048 SWAP3 PUSH1 0x2 DUP6 ADD SWAP3 ADD SWAP1 PUSH2 0x4D80 JUMP JUMPDEST POP PUSH1 0x60 DUP3 ADD MLOAD PUSH1 0x3 DUP3 ADD DUP1 SLOAD PUSH1 0x1 PUSH1 0x1 PUSH1 0xA0 SHL SUB NOT AND PUSH1 0x1 PUSH1 0x1 PUSH1 0xA0 SHL SUB SWAP3 DUP4 AND OR SWAP1 SSTORE PUSH1 0x80 DUP4 ADD MLOAD PUSH1 0x4 DUP4 ADD SSTORE PUSH1 0xA0 DUP4 ADD MLOAD PUSH1 0x5 DUP4 ADD SSTORE PUSH1 0xC0 DUP4 ADD MLOAD PUSH1 0x6 DUP4 ADD SSTORE PUSH1 0xE0 DUP4 ADD MLOAD PUSH1 0x7 DUP4 ADD DUP1 SLOAD PUSH1 0xFF NOT AND SWAP2 ISZERO ISZERO SWAP2 SWAP1 SWAP2 OR SWAP1 SSTORE PUSH2 0x100 DUP4 ADD MLOAD PUSH1 0x8 DUP4 ADD SSTORE PUSH2 0x120 DUP4 ADD MLOAD PUSH1 0x9 SWAP1 SWAP3 ADD DUP1 SLOAD PUSH2 0x140 SWAP1 SWAP5 ADD MLOAD SWAP3 SWAP1 SWAP2 AND PUSH1 0x1 PUSH1 0x1 PUSH1 0xA8 SHL SUB NOT SWAP1 SWAP4 AND SWAP3 SWAP1 SWAP3 OR PUSH1 0x1 PUSH1 0xA0 SHL SWAP2 ISZERO ISZERO SWAP2 SWAP1 SWAP2 MUL OR SWAP1 SSTORE PUSH1 0x6B DUP1 SLOAD SWAP1 PUSH1 0x0 PUSH2 0x20F4 DUP4 PUSH2 0x545F JUMP JUMPDEST SWAP1 SWAP2 SSTORE POP POP PUSH1 0x40 MLOAD DUP7 DUP2 MSTORE PUSH32 0x3302601C0B6AD9794207D2EB4A29C724DB57C9348BF10DFFCC98C9D89E6D9C52 SWAP1 PUSH1 0x20 ADD PUSH1 0x40 MLOAD DUP1 SWAP2 SUB SWAP1 LOG1 POP POP POP POP POP POP POP POP POP JUMP JUMPDEST PUSH2 0x213F PUSH2 0x3BC0 JUMP JUMPDEST PUSH2 0x2149 PUSH1 0x0 PUSH2 0x3C1A JUMP JUMPDEST JUMP JUMPDEST PUSH2 0x217F PUSH1 0x40 MLOAD DUP1 PUSH1 0x80 ADD PUSH1 0x40 MSTORE DUP1 PUSH1 0x0 DUP2 MSTORE PUSH1 0x20 ADD PUSH1 0x60 DUP2 MSTORE PUSH1 0x20 ADD PUSH1 0x0 PUSH1 0x1 PUSH1 0x1 PUSH1 0xA0 SHL SUB AND DUP2 MSTORE PUSH1 0x20 ADD PUSH1 0x0 DUP2 MSTORE POP SWAP1 JUMP JUMPDEST PUSH1 0x40 MLOAD DUP1 PUSH1 0x20 ADD PUSH1 0x40 MSTORE DUP1 PUSH1 0x0 DUP2 MSTORE POP PUSH1 0x0 PUSH1 0x6F DUP3 PUSH1 0x40 MLOAD PUSH2 0x21A1 SWAP2 SWAP1 PUSH2 0x536C JUMP JUMPDEST SWAP1 DUP2 MSTORE PUSH1 0x20 ADD PUSH1 0x40 MLOAD DUP1 SWAP2 SUB SWAP1 KECCAK256 PUSH1 0x40 MLOAD DUP1 PUSH2 0x160 ADD PUSH1 0x40 MSTORE SWAP1 DUP2 PUSH1 0x0 DUP3 ADD DUP1 SLOAD PUSH2 0x21CB SWAP1 PUSH2 0x5388 JUMP JUMPDEST DUP1 PUSH1 0x1F ADD PUSH1 0x20 DUP1 SWAP2 DIV MUL PUSH1 0x20 ADD PUSH1 0x40 MLOAD SWAP1 DUP2 ADD PUSH1 0x40 MSTORE DUP1 SWAP3 SWAP2 SWAP1 DUP2 DUP2 MSTORE PUSH1 0x20 ADD DUP3 DUP1 SLOAD PUSH2 0x21F7 SWAP1 PUSH2 0x5388 JUMP JUMPDEST DUP1 ISZERO PUSH2 0x2244 JUMPI DUP1 PUSH1 0x1F LT PUSH2 0x2219 JUMPI PUSH2 0x100 DUP1 DUP4 SLOAD DIV MUL DUP4 MSTORE SWAP2 PUSH1 0x20 ADD SWAP2 PUSH2 0x2244 JUMP JUMPDEST DUP3 ADD SWAP2 SWAP1 PUSH1 0x0 MSTORE PUSH1 0x20 PUSH1 0x0 KECCAK256 SWAP1 JUMPDEST DUP2 SLOAD DUP2 MSTORE SWAP1 PUSH1 0x1 ADD SWAP1 PUSH1 0x20 ADD DUP1 DUP4 GT PUSH2 0x2227 JUMPI DUP3 SWAP1 SUB PUSH1 0x1F AND DUP3 ADD SWAP2 JUMPDEST POP POP POP POP POP DUP2 MSTORE PUSH1 0x20 ADD PUSH1 0x1 DUP3 ADD SLOAD DUP2 MSTORE PUSH1 0x20 ADD PUSH1 0x2 DUP3 ADD DUP1 SLOAD PUSH2 0x2267 SWAP1 PUSH2 0x5388 JUMP JUMPDEST DUP1 PUSH1 0x1F ADD PUSH1 0x20 DUP1 SWAP2 DIV MUL PUSH1 0x20 ADD PUSH1 0x40 MLOAD SWAP1 DUP2 ADD PUSH1 0x40 MSTORE DUP1 SWAP3 SWAP2 SWAP1 DUP2 DUP2 MSTORE PUSH1 0x20 ADD DUP3 DUP1 SLOAD PUSH2 0x2293 SWAP1 PUSH2 0x5388 JUMP JUMPDEST DUP1 ISZERO PUSH2 0x22E0 JUMPI DUP1 PUSH1 0x1F LT PUSH2 0x22B5 JUMPI PUSH2 0x100 DUP1 DUP4 SLOAD DIV MUL DUP4 MSTORE SWAP2 PUSH1 0x20 ADD SWAP2 PUSH2 0x22E0 JUMP JUMPDEST DUP3 ADD SWAP2 SWAP1 PUSH1 0x0 MSTORE PUSH1 0x20 PUSH1 0x0 KECCAK256 SWAP1 JUMPDEST DUP2 SLOAD DUP2 MSTORE SWAP1 PUSH1 0x1 ADD SWAP1 PUSH1 0x20 ADD DUP1 DUP4 GT PUSH2 0x22C3 JUMPI DUP3 SWAP1 SUB PUSH1 0x1F AND DUP3 ADD SWAP2 JUMPDEST POP POP POP SWAP2 DUP4 MSTORE POP POP PUSH1 0x3 DUP3 ADD SLOAD PUSH1 0x1 PUSH1 0x1 PUSH1 0xA0 SHL SUB SWAP1 DUP2 AND PUSH1 0x20 DUP1 DUP5 ADD SWAP2 SWAP1 SWAP2 MSTORE PUSH1 0x4 DUP1 DUP6 ADD SLOAD PUSH1 0x40 DUP6 ADD MSTORE PUSH1 0x5 DUP6 ADD SLOAD PUSH1 0x60 DUP6 ADD MSTORE PUSH1 0x6 DUP6 ADD SLOAD PUSH1 0x80 DUP6 ADD MSTORE PUSH1 0x7 DUP6 ADD SLOAD PUSH1 0xFF SWAP1 DUP2 AND ISZERO ISZERO PUSH1 0xA0 DUP7 ADD MSTORE PUSH1 0x8 DUP7 ADD SLOAD PUSH1 0xC0 DUP7 ADD MSTORE PUSH1 0x9 SWAP1 SWAP6 ADD SLOAD SWAP3 DUP4 AND PUSH1 0xE0 DUP6 ADD MSTORE PUSH1 0x1 PUSH1 0xA0 SHL SWAP1 SWAP3 DIV SWAP1 SWAP4 AND ISZERO ISZERO PUSH2 0x100 SWAP1 SWAP3 ADD SWAP2 SWAP1 SWAP2 MSTORE SWAP1 DUP3 ADD MLOAD SWAP2 SWAP3 POP GT PUSH2 0x2384 JUMPI PUSH1 0x40 MLOAD PUSH3 0x461BCD PUSH1 0xE5 SHL DUP2 MSTORE PUSH1 0x4 ADD PUSH2 0x54D SWAP1 PUSH2 0x53C3 JUMP JUMPDEST PUSH1 0x1 PUSH1 0x1 PUSH1 0xA0 SHL SUB DUP5 AND PUSH1 0x0 SWAP1 DUP2 MSTORE PUSH1 0x72 PUSH1 0x20 SWAP1 DUP2 MSTORE PUSH1 0x40 SWAP2 DUP3 SWAP1 KECCAK256 DUP3 MLOAD PUSH1 0x80 DUP2 ADD SWAP1 SWAP4 MSTORE DUP1 SLOAD DUP4 MSTORE PUSH1 0x1 DUP2 ADD DUP1 SLOAD SWAP2 SWAP3 DUP5 ADD SWAP2 PUSH2 0x23C1 SWAP1 PUSH2 0x5388 JUMP JUMPDEST DUP1 PUSH1 0x1F ADD PUSH1 0x20 DUP1 SWAP2 DIV MUL PUSH1 0x20 ADD PUSH1 0x40 MLOAD SWAP1 DUP2 ADD PUSH1 0x40 MSTORE DUP1 SWAP3 SWAP2 SWAP1 DUP2 DUP2 MSTORE PUSH1 0x20 ADD DUP3 DUP1 SLOAD PUSH2 0x23ED SWAP1 PUSH2 0x5388 JUMP JUMPDEST DUP1 ISZERO PUSH2 0x243A JUMPI DUP1 PUSH1 0x1F LT PUSH2 0x240F JUMPI PUSH2 0x100 DUP1 DUP4 SLOAD DIV MUL DUP4 MSTORE SWAP2 PUSH1 0x20 ADD SWAP2 PUSH2 0x243A JUMP JUMPDEST DUP3 ADD SWAP2 SWAP1 PUSH1 0x0 MSTORE PUSH1 0x20 PUSH1 0x0 KECCAK256 SWAP1 JUMPDEST DUP2 SLOAD DUP2 MSTORE SWAP1 PUSH1 0x1 ADD SWAP1 PUSH1 0x20 ADD DUP1 DUP4 GT PUSH2 0x241D JUMPI DUP3 SWAP1 SUB PUSH1 0x1F AND DUP3 ADD SWAP2 JUMPDEST POP POP POP SWAP2 DUP4 MSTORE POP POP PUSH1 0x2 DUP3 ADD SLOAD PUSH1 0x1 PUSH1 0x1 PUSH1 0xA0 SHL SUB AND PUSH1 0x20 DUP3 ADD MSTORE PUSH1 0x3 SWAP1 SWAP2 ADD SLOAD PUSH1 0x40 SWAP1 SWAP2 ADD MSTORE SWAP5 SWAP4 POP POP POP POP JUMP JUMPDEST PUSH2 0x2471 PUSH2 0x3BC0 JUMP JUMPDEST PUSH1 0x1 PUSH1 0x6E SLOAD PUSH2 0x2480 SWAP2 SWAP1 PUSH2 0x5410 JUMP JUMPDEST DUP3 GT DUP1 ISZERO PUSH2 0x249A JUMPI POP PUSH1 0x6E SLOAD PUSH2 0x2497 SWAP1 PUSH1 0x1 PUSH2 0x547A JUMP JUMPDEST DUP3 LT JUMPDEST PUSH2 0x24DC JUMPI PUSH1 0x40 MLOAD PUSH3 0x461BCD PUSH1 0xE5 SHL DUP2 MSTORE PUSH1 0x20 PUSH1 0x4 DUP3 ADD MSTORE PUSH1 0x13 PUSH1 0x24 DUP3 ADD MSTORE PUSH19 0x496E76616C6964205479706520496E64657821 PUSH1 0x68 SHL PUSH1 0x44 DUP3 ADD MSTORE PUSH1 0x64 ADD PUSH2 0x54D JUMP JUMPDEST PUSH1 0x6D PUSH1 0x6E SLOAD PUSH1 0x1 PUSH2 0x24ED SWAP2 SWAP1 PUSH2 0x547A JUMP JUMPDEST DUP2 SLOAD PUSH1 0x1 DUP2 ADD DUP4 SSTORE PUSH1 0x0 SWAP3 DUP4 MSTORE PUSH1 0x20 DUP1 DUP5 KECCAK256 SWAP1 SWAP2 ADD SWAP2 SWAP1 SWAP2 SSTORE DUP4 DUP3 MSTORE PUSH1 0x67 DUP2 MSTORE PUSH1 0x40 SWAP1 SWAP2 KECCAK256 DUP3 MLOAD PUSH2 0x2520 SWAP3 DUP5 ADD SWAP1 PUSH2 0x4D80 JUMP JUMPDEST POP POP POP JUMP JUMPDEST PUSH1 0x0 PUSH1 0x6F DUP3 PUSH1 0x40 MLOAD PUSH2 0x2537 SWAP2 SWAP1 PUSH2 0x536C JUMP JUMPDEST SWAP1 DUP2 MSTORE PUSH1 0x20 ADD PUSH1 0x40 MLOAD DUP1 SWAP2 SUB SWAP1 KECCAK256 SWAP1 POP PUSH1 0x0 PUSH1 0x18 PUSH1 0x3C DUP1 DUP5 PUSH1 0x5 ADD SLOAD TIMESTAMP PUSH2 0x255E SWAP2 SWAP1 PUSH2 0x5410 JUMP JUMPDEST PUSH2 0x2568 SWAP2 SWAP1 PUSH2 0x5427 JUMP JUMPDEST PUSH2 0x2572 SWAP2 SWAP1 PUSH2 0x5427 JUMP JUMPDEST PUSH2 0x257C SWAP2 SWAP1 PUSH2 0x5427 JUMP JUMPDEST SWAP1 POP DUP2 PUSH1 0x6 ADD SLOAD DUP2 LT DUP1 ISZERO PUSH2 0x259D JUMPI POP PUSH1 0x3 DUP3 ADD SLOAD PUSH1 0x1 PUSH1 0x1 PUSH1 0xA0 SHL SUB AND CALLER EQ JUMPDEST PUSH2 0x25E1 JUMPI PUSH1 0x40 MLOAD PUSH3 0x461BCD PUSH1 0xE5 SHL DUP2 MSTORE PUSH1 0x20 PUSH1 0x4 DUP3 ADD MSTORE PUSH1 0x15 PUSH1 0x24 DUP3 ADD MSTORE PUSH21 0x4572726F7220456E64696E672042616C6C6F742121 PUSH1 0x58 SHL PUSH1 0x44 DUP3 ADD MSTORE PUSH1 0x64 ADD PUSH2 0x54D JUMP JUMPDEST PUSH1 0x7 DUP3 ADD DUP1 SLOAD PUSH1 0xFF NOT AND PUSH1 0x1 SWAP1 DUP2 OR SWAP1 SWAP2 SSTORE PUSH1 0x40 MLOAD PUSH1 0x6F SWAP1 PUSH2 0x2604 SWAP1 DUP7 SWAP1 PUSH2 0x536C JUMP JUMPDEST SWAP1 DUP2 MSTORE PUSH1 0x40 MLOAD SWAP1 DUP2 SWAP1 SUB PUSH1 0x20 ADD DUP2 KECCAK256 PUSH1 0x7 ADD DUP1 SLOAD SWAP3 ISZERO ISZERO PUSH1 0xFF NOT SWAP1 SWAP4 AND SWAP3 SWAP1 SWAP3 OR SWAP1 SWAP2 SSTORE PUSH32 0x20B0A6E75F9B4E7936CF2C0AAB0F37EE94D3AEDF66A6B4540824B721C8BD592 SWAP1 PUSH2 0x2655 SWAP1 DUP6 SWAP1 PUSH2 0x5492 JUMP JUMPDEST PUSH1 0x40 MLOAD DUP1 SWAP2 SUB SWAP1 LOG1 POP POP POP JUMP JUMPDEST DUP2 DUP2 PUSH1 0x0 PUSH1 0x6F DUP3 PUSH1 0x40 MLOAD PUSH2 0x2676 SWAP2 SWAP1 PUSH2 0x536C JUMP JUMPDEST SWAP1 DUP2 MSTORE PUSH1 0x20 ADD PUSH1 0x40 MLOAD DUP1 SWAP2 SUB SWAP1 KECCAK256 PUSH1 0x40 MLOAD DUP1 PUSH2 0x160 ADD PUSH1 0x40 MSTORE SWAP1 DUP2 PUSH1 0x0 DUP3 ADD DUP1 SLOAD PUSH2 0x26A0 SWAP1 PUSH2 0x5388 JUMP JUMPDEST DUP1 PUSH1 0x1F ADD PUSH1 0x20 DUP1 SWAP2 DIV MUL PUSH1 0x20 ADD PUSH1 0x40 MLOAD SWAP1 DUP2 ADD PUSH1 0x40 MSTORE DUP1 SWAP3 SWAP2 SWAP1 DUP2 DUP2 MSTORE PUSH1 0x20 ADD DUP3 DUP1 SLOAD PUSH2 0x26CC SWAP1 PUSH2 0x5388 JUMP JUMPDEST DUP1 ISZERO PUSH2 0x2719 JUMPI DUP1 PUSH1 0x1F LT PUSH2 0x26EE JUMPI PUSH2 0x100 DUP1 DUP4 SLOAD DIV MUL DUP4 MSTORE SWAP2 PUSH1 0x20 ADD SWAP2 PUSH2 0x2719 JUMP JUMPDEST DUP3 ADD SWAP2 SWAP1 PUSH1 0x0 MSTORE PUSH1 0x20 PUSH1 0x0 KECCAK256 SWAP1 JUMPDEST DUP2 SLOAD DUP2 MSTORE SWAP1 PUSH1 0x1 ADD SWAP1 PUSH1 0x20 ADD DUP1 DUP4 GT PUSH2 0x26FC JUMPI DUP3 SWAP1 SUB PUSH1 0x1F AND DUP3 ADD SWAP2 JUMPDEST POP POP POP POP POP DUP2 MSTORE PUSH1 0x20 ADD PUSH1 0x1 DUP3 ADD SLOAD DUP2 MSTORE PUSH1 0x20 ADD PUSH1 0x2 DUP3 ADD DUP1 SLOAD PUSH2 0x273C SWAP1 PUSH2 0x5388 JUMP JUMPDEST DUP1 PUSH1 0x1F ADD PUSH1 0x20 DUP1 SWAP2 DIV MUL PUSH1 0x20 ADD PUSH1 0x40 MLOAD SWAP1 DUP2 ADD PUSH1 0x40 MSTORE DUP1 SWAP3 SWAP2 SWAP1 DUP2 DUP2 MSTORE PUSH1 0x20 ADD DUP3 DUP1 SLOAD PUSH2 0x2768 SWAP1 PUSH2 0x5388 JUMP JUMPDEST DUP1 ISZERO PUSH2 0x27B5 JUMPI DUP1 PUSH1 0x1F LT PUSH2 0x278A JUMPI PUSH2 0x100 DUP1 DUP4 SLOAD DIV MUL DUP4 MSTORE SWAP2 PUSH1 0x20 ADD SWAP2 PUSH2 0x27B5 JUMP JUMPDEST DUP3 ADD SWAP2 SWAP1 PUSH1 0x0 MSTORE PUSH1 0x20 PUSH1 0x0 KECCAK256 SWAP1 JUMPDEST DUP2 SLOAD DUP2 MSTORE SWAP1 PUSH1 0x1 ADD SWAP1 PUSH1 0x20 ADD DUP1 DUP4 GT PUSH2 0x2798 JUMPI DUP3 SWAP1 SUB PUSH1 0x1F AND DUP3 ADD SWAP2 JUMPDEST POP POP POP SWAP2 DUP4 MSTORE POP POP PUSH1 0x3 DUP3 ADD SLOAD PUSH1 0x1 PUSH1 0x1 PUSH1 0xA0 SHL SUB SWAP1 DUP2 AND PUSH1 0x20 DUP4 ADD MSTORE PUSH1 0x4 DUP4 ADD SLOAD PUSH1 0x40 DUP4 ADD MSTORE PUSH1 0x5 DUP4 ADD SLOAD PUSH1 0x60 DUP4 ADD MSTORE PUSH1 0x6 DUP4 ADD SLOAD PUSH1 0x80 DUP4 ADD MSTORE PUSH1 0x7 DUP4 ADD SLOAD PUSH1 0xFF SWAP1 DUP2 AND ISZERO ISZERO PUSH1 0xA0 DUP1 DUP6 ADD SWAP2 SWAP1 SWAP2 MSTORE PUSH1 0x8 DUP6 ADD SLOAD PUSH1 0xC0 DUP6 ADD MSTORE PUSH1 0x9 SWAP1 SWAP5 ADD SLOAD SWAP2 DUP3 AND PUSH1 0xE0 DUP5 ADD MSTORE PUSH1 0x1 PUSH1 0xA0 SHL SWAP1 SWAP2 DIV AND ISZERO ISZERO PUSH2 0x100 SWAP1 SWAP2 ADD MSTORE DUP2 ADD MLOAD SWAP1 SWAP2 POP PUSH1 0x0 SWAP1 PUSH2 0x2842 SWAP1 TIMESTAMP PUSH2 0x5410 JUMP JUMPDEST PUSH1 0x68 SLOAD SWAP1 SWAP2 POP PUSH1 0x1 DUP2 LT DUP1 ISZERO SWAP1 PUSH2 0x2869 JUMPI POP PUSH1 0xC0 DUP4 ADD MLOAD PUSH2 0x2866 SWAP1 PUSH3 0x15180 PUSH2 0x54A5 JUMP JUMPDEST DUP3 LT JUMPDEST DUP1 ISZERO PUSH2 0x2958 JUMPI POP CALLER PUSH1 0x0 SWAP1 DUP2 MSTORE PUSH1 0x74 PUSH1 0x20 SWAP1 DUP2 MSTORE PUSH1 0x40 DUP1 DUP4 KECCAK256 DUP1 SLOAD DUP3 MLOAD DUP2 DUP6 MUL DUP2 ADD DUP6 ADD SWAP1 SWAP4 MSTORE DUP1 DUP4 MSTORE PUSH2 0x2956 SWAP5 SWAP3 SWAP4 SWAP2 SWAP3 SWAP1 SWAP2 DUP5 ADD JUMPDEST DUP3 DUP3 LT ISZERO PUSH2 0x294C JUMPI DUP4 DUP3 SWAP1 PUSH1 0x0 MSTORE PUSH1 0x20 PUSH1 0x0 KECCAK256 ADD DUP1 SLOAD PUSH2 0x28BF SWAP1 PUSH2 0x5388 JUMP JUMPDEST DUP1 PUSH1 0x1F ADD PUSH1 0x20 DUP1 SWAP2 DIV MUL PUSH1 0x20 ADD PUSH1 0x40 MLOAD SWAP1 DUP2 ADD PUSH1 0x40 MSTORE DUP1 SWAP3 SWAP2 SWAP1 DUP2 DUP2 MSTORE PUSH1 0x20 ADD DUP3 DUP1 SLOAD PUSH2 0x28EB SWAP1 PUSH2 0x5388 JUMP JUMPDEST DUP1 ISZERO PUSH2 0x2938 JUMPI DUP1 PUSH1 0x1F LT PUSH2 0x290D JUMPI PUSH2 0x100 DUP1 DUP4 SLOAD DIV MUL DUP4 MSTORE SWAP2 PUSH1 0x20 ADD SWAP2 PUSH2 0x2938 JUMP JUMPDEST DUP3 ADD SWAP2 SWAP1 PUSH1 0x0 MSTORE PUSH1 0x20 PUSH1 0x0 KECCAK256 SWAP1 JUMPDEST DUP2 SLOAD DUP2 MSTORE SWAP1 PUSH1 0x1 ADD SWAP1 PUSH1 0x20 ADD DUP1 DUP4 GT PUSH2 0x291B JUMPI DUP3 SWAP1 SUB PUSH1 0x1F AND DUP3 ADD SWAP2 JUMPDEST POP POP POP POP POP DUP2 MSTORE PUSH1 0x20 ADD SWAP1 PUSH1 0x1 ADD SWAP1 PUSH2 0x28A0 JUMP JUMPDEST POP POP POP POP DUP6 PUSH2 0x2EA5 JUMP JUMPDEST ISZERO JUMPDEST DUP1 ISZERO PUSH2 0x2A43 JUMPI POP PUSH2 0x2A41 PUSH1 0x76 PUSH1 0x0 DUP8 DUP2 MSTORE PUSH1 0x20 ADD SWAP1 DUP2 MSTORE PUSH1 0x20 ADD PUSH1 0x0 KECCAK256 DUP1 SLOAD DUP1 PUSH1 0x20 MUL PUSH1 0x20 ADD PUSH1 0x40 MLOAD SWAP1 DUP2 ADD PUSH1 0x40 MSTORE DUP1 SWAP3 SWAP2 SWAP1 DUP2 DUP2 MSTORE PUSH1 0x20 ADD PUSH1 0x0 SWAP1 JUMPDEST DUP3 DUP3 LT ISZERO PUSH2 0x294C JUMPI DUP4 DUP3 SWAP1 PUSH1 0x0 MSTORE PUSH1 0x20 PUSH1 0x0 KECCAK256 ADD DUP1 SLOAD PUSH2 0x29B4 SWAP1 PUSH2 0x5388 JUMP JUMPDEST DUP1 PUSH1 0x1F ADD PUSH1 0x20 DUP1 SWAP2 DIV MUL PUSH1 0x20 ADD PUSH1 0x40 MLOAD SWAP1 DUP2 ADD PUSH1 0x40 MSTORE DUP1 SWAP3 SWAP2 SWAP1 DUP2 DUP2 MSTORE PUSH1 0x20 ADD DUP3 DUP1 SLOAD PUSH2 0x29E0 SWAP1 PUSH2 0x5388 JUMP JUMPDEST DUP1 ISZERO PUSH2 0x2A2D JUMPI DUP1 PUSH1 0x1F LT PUSH2 0x2A02 JUMPI PUSH2 0x100 DUP1 DUP4 SLOAD DIV MUL DUP4 MSTORE SWAP2 PUSH1 0x20 ADD SWAP2 PUSH2 0x2A2D JUMP JUMPDEST DUP3 ADD SWAP2 SWAP1 PUSH1 0x0 MSTORE PUSH1 0x20 PUSH1 0x0 KECCAK256 SWAP1 JUMPDEST DUP2 SLOAD DUP2 MSTORE SWAP1 PUSH1 0x1 ADD SWAP1 PUSH1 0x20 ADD DUP1 DUP4 GT PUSH2 0x2A10 JUMPI DUP3 SWAP1 SUB PUSH1 0x1F AND DUP3 ADD SWAP2 JUMPDEST POP POP POP POP POP DUP2 MSTORE PUSH1 0x20 ADD SWAP1 PUSH1 0x1 ADD SWAP1 PUSH2 0x2995 JUMP JUMPDEST ISZERO JUMPDEST DUP1 ISZERO PUSH2 0x2A60 JUMPI POP PUSH2 0x100 DUP4 ADD MLOAD PUSH2 0x2A5D SWAP1 PUSH3 0x15180 PUSH2 0x54A5 JUMP JUMPDEST DUP3 LT JUMPDEST PUSH2 0x2A7C JUMPI PUSH1 0x40 MLOAD PUSH3 0x461BCD PUSH1 0xE5 SHL DUP2 MSTORE PUSH1 0x4 ADD PUSH2 0x54D SWAP1 PUSH2 0x54C4 JUMP JUMPDEST PUSH1 0x0 PUSH1 0x6F DUP8 PUSH1 0x40 MLOAD PUSH2 0x2A8E SWAP2 SWAP1 PUSH2 0x536C JUMP JUMPDEST SWAP1 DUP2 MSTORE PUSH1 0x20 ADD PUSH1 0x40 MLOAD DUP1 SWAP2 SUB SWAP1 KECCAK256 PUSH1 0x40 MLOAD DUP1 PUSH2 0x160 ADD PUSH1 0x40 MSTORE SWAP1 DUP2 PUSH1 0x0 DUP3 ADD DUP1 SLOAD PUSH2 0x2AB8 SWAP1 PUSH2 0x5388 JUMP JUMPDEST DUP1 PUSH1 0x1F ADD PUSH1 0x20 DUP1 SWAP2 DIV MUL PUSH1 0x20 ADD PUSH1 0x40 MLOAD SWAP1 DUP2 ADD PUSH1 0x40 MSTORE DUP1 SWAP3 SWAP2 SWAP1 DUP2 DUP2 MSTORE PUSH1 0x20 ADD DUP3 DUP1 SLOAD PUSH2 0x2AE4 SWAP1 PUSH2 0x5388 JUMP JUMPDEST DUP1 ISZERO PUSH2 0x2B31 JUMPI DUP1 PUSH1 0x1F LT PUSH2 0x2B06 JUMPI PUSH2 0x100 DUP1 DUP4 SLOAD DIV MUL DUP4 MSTORE SWAP2 PUSH1 0x20 ADD SWAP2 PUSH2 0x2B31 JUMP JUMPDEST DUP3 ADD SWAP2 SWAP1 PUSH1 0x0 MSTORE PUSH1 0x20 PUSH1 0x0 KECCAK256 SWAP1 JUMPDEST DUP2 SLOAD DUP2 MSTORE SWAP1 PUSH1 0x1 ADD SWAP1 PUSH1 0x20 ADD DUP1 DUP4 GT PUSH2 0x2B14 JUMPI DUP3 SWAP1 SUB PUSH1 0x1F AND DUP3 ADD SWAP2 JUMPDEST POP POP POP POP POP DUP2 MSTORE PUSH1 0x20 ADD PUSH1 0x1 DUP3 ADD SLOAD DUP2 MSTORE PUSH1 0x20 ADD PUSH1 0x2 DUP3 ADD DUP1 SLOAD PUSH2 0x2B54 SWAP1 PUSH2 0x5388 JUMP JUMPDEST DUP1 PUSH1 0x1F ADD PUSH1 0x20 DUP1 SWAP2 DIV MUL PUSH1 0x20 ADD PUSH1 0x40 MLOAD SWAP1 DUP2 ADD PUSH1 0x40 MSTORE DUP1 SWAP3 SWAP2 SWAP1 DUP2 DUP2 MSTORE PUSH1 0x20 ADD DUP3 DUP1 SLOAD PUSH2 0x2B80 SWAP1 PUSH2 0x5388 JUMP JUMPDEST DUP1 ISZERO PUSH2 0x2BCD JUMPI DUP1 PUSH1 0x1F LT PUSH2 0x2BA2 JUMPI PUSH2 0x100 DUP1 DUP4 SLOAD DIV MUL DUP4 MSTORE SWAP2 PUSH1 0x20 ADD SWAP2 PUSH2 0x2BCD JUMP JUMPDEST DUP3 ADD SWAP2 SWAP1 PUSH1 0x0 MSTORE PUSH1 0x20 PUSH1 0x0 KECCAK256 SWAP1 JUMPDEST DUP2 SLOAD DUP2 MSTORE SWAP1 PUSH1 0x1 ADD SWAP1 PUSH1 0x20 ADD DUP1 DUP4 GT PUSH2 0x2BB0 JUMPI DUP3 SWAP1 SUB PUSH1 0x1F AND DUP3 ADD SWAP2 JUMPDEST POP POP POP SWAP2 DUP4 MSTORE POP POP PUSH1 0x3 DUP3 ADD SLOAD PUSH1 0x1 PUSH1 0x1 PUSH1 0xA0 SHL SUB SWAP1 DUP2 AND PUSH1 0x20 DUP1 DUP5 ADD SWAP2 SWAP1 SWAP2 MSTORE PUSH1 0x4 DUP5 ADD SLOAD PUSH1 0x40 DUP5 ADD MSTORE PUSH1 0x5 DUP5 ADD SLOAD PUSH1 0x60 DUP5 ADD MSTORE PUSH1 0x6 DUP5 ADD SLOAD PUSH1 0x80 DUP5 ADD MSTORE PUSH1 0x7 DUP5 ADD SLOAD PUSH1 0xFF SWAP1 DUP2 AND ISZERO ISZERO PUSH1 0xA0 DUP6 ADD MSTORE PUSH1 0x8 DUP6 ADD SLOAD PUSH1 0xC0 DUP6 ADD MSTORE PUSH1 0x9 SWAP1 SWAP5 ADD SLOAD SWAP2 DUP3 AND PUSH1 0xE0 DUP5 ADD MSTORE PUSH1 0x1 PUSH1 0xA0 SHL SWAP1 SWAP2 DIV SWAP1 SWAP3 AND ISZERO ISZERO PUSH2 0x100 SWAP1 SWAP2 ADD MSTORE DUP2 ADD MLOAD SWAP1 SWAP2 POP ISZERO DUP1 PUSH2 0x2C5F JUMPI POP DUP1 PUSH1 0x20 ADD MLOAD PUSH1 0x2 EQ JUMPDEST ISZERO PUSH2 0x2C73 JUMPI PUSH2 0x2C6E DUP9 DUP9 PUSH2 0x3C6C JUMP JUMPDEST PUSH2 0x2C99 JUMP JUMPDEST DUP1 PUSH1 0x20 ADD MLOAD PUSH1 0x1 EQ DUP1 PUSH2 0x2C8A JUMPI POP DUP1 PUSH1 0x20 ADD MLOAD PUSH1 0x3 EQ JUMPDEST ISZERO PUSH2 0x2C99 JUMPI PUSH2 0x2C99 DUP9 DUP9 PUSH2 0x4086 JUMP JUMPDEST POP POP POP POP POP POP POP POP JUMP JUMPDEST PUSH2 0x2CAB PUSH2 0x3BC0 JUMP JUMPDEST PUSH1 0x1 PUSH1 0x1 PUSH1 0xA0 SHL SUB DUP2 AND PUSH2 0x2D10 JUMPI PUSH1 0x40 MLOAD PUSH3 0x461BCD PUSH1 0xE5 SHL DUP2 MSTORE PUSH1 0x20 PUSH1 0x4 DUP3 ADD MSTORE PUSH1 0x26 PUSH1 0x24 DUP3 ADD MSTORE PUSH32 0x4F776E61626C653A206E6577206F776E657220697320746865207A65726F2061 PUSH1 0x44 DUP3 ADD MSTORE PUSH6 0x646472657373 PUSH1 0xD0 SHL PUSH1 0x64 DUP3 ADD MSTORE PUSH1 0x84 ADD PUSH2 0x54D JUMP JUMPDEST PUSH2 0x18D2 DUP2 PUSH2 0x3C1A JUMP JUMPDEST PUSH1 0x0 SLOAD PUSH2 0x100 SWAP1 DIV PUSH1 0xFF AND ISZERO DUP1 DUP1 ISZERO PUSH2 0x2D39 JUMPI POP PUSH1 0x0 SLOAD PUSH1 0x1 PUSH1 0xFF SWAP1 SWAP2 AND LT JUMPDEST DUP1 PUSH2 0x2D53 JUMPI POP ADDRESS EXTCODESIZE ISZERO DUP1 ISZERO PUSH2 0x2D53 JUMPI POP PUSH1 0x0 SLOAD PUSH1 0xFF AND PUSH1 0x1 EQ JUMPDEST PUSH2 0x2DB6 JUMPI PUSH1 0x40 MLOAD PUSH3 0x461BCD PUSH1 0xE5 SHL DUP2 MSTORE PUSH1 0x20 PUSH1 0x4 DUP3 ADD MSTORE PUSH1 0x2E PUSH1 0x24 DUP3 ADD MSTORE PUSH32 0x496E697469616C697A61626C653A20636F6E747261637420697320616C726561 PUSH1 0x44 DUP3 ADD MSTORE PUSH14 0x191E481A5B9A5D1A585B1A5E9959 PUSH1 0x92 SHL PUSH1 0x64 DUP3 ADD MSTORE PUSH1 0x84 ADD PUSH2 0x54D JUMP JUMPDEST PUSH1 0x0 DUP1 SLOAD PUSH1 0xFF NOT AND PUSH1 0x1 OR SWAP1 SSTORE DUP1 ISZERO PUSH2 0x2DD9 JUMPI PUSH1 0x0 DUP1 SLOAD PUSH2 0xFF00 NOT AND PUSH2 0x100 OR SWAP1 SSTORE JUMPDEST PUSH2 0x2DE1 PUSH2 0x44A0 JUMP JUMPDEST DUP1 ISZERO PUSH2 0x2E27 JUMPI PUSH1 0x0 DUP1 SLOAD PUSH2 0xFF00 NOT AND SWAP1 SSTORE PUSH1 0x40 MLOAD PUSH1 0x1 DUP2 MSTORE PUSH32 0x7F26B83FF96E1F2B6A682F133852F6798A09C465DA95921460CEFB3847402498 SWAP1 PUSH1 0x20 ADD PUSH1 0x40 MLOAD DUP1 SWAP2 SUB SWAP1 LOG1 JUMPDEST POP POP JUMP JUMPDEST PUSH1 0x60 PUSH1 0x70 DUP3 PUSH1 0x40 MLOAD PUSH2 0x2E3D SWAP2 SWAP1 PUSH2 0x536C JUMP JUMPDEST SWAP1 DUP2 MSTORE PUSH1 0x40 DUP1 MLOAD SWAP2 DUP3 SWAP1 SUB PUSH1 0x20 SWAP1 DUP2 ADD DUP4 KECCAK256 DUP1 SLOAD DUP1 DUP4 MUL DUP6 ADD DUP4 ADD SWAP1 SWAP4 MSTORE DUP3 DUP5 MSTORE SWAP2 SWAP1 DUP4 ADD DUP3 DUP3 DUP1 ISZERO PUSH2 0x2E99 JUMPI PUSH1 0x20 MUL DUP3 ADD SWAP2 SWAP1 PUSH1 0x0 MSTORE PUSH1 0x20 PUSH1 0x0 KECCAK256 SWAP1 JUMPDEST DUP2 SLOAD PUSH1 0x1 PUSH1 0x1 PUSH1 0xA0 SHL SUB AND DUP2 MSTORE PUSH1 0x1 SWAP1 SWAP2 ADD SWAP1 PUSH1 0x20 ADD DUP1 DUP4 GT PUSH2 0x2E7B JUMPI JUMPDEST POP POP POP POP POP SWAP1 POP SWAP2 SWAP1 POP JUMP JUMPDEST DUP2 MLOAD PUSH1 0x0 SWAP1 DUP2 JUMPDEST DUP2 DUP2 LT ISZERO PUSH2 0x2EFE JUMPI PUSH2 0x2ED7 DUP6 DUP3 DUP2 MLOAD DUP2 LT PUSH2 0x2EC9 JUMPI PUSH2 0x2EC9 PUSH2 0x5449 JUMP JUMPDEST PUSH1 0x20 MUL PUSH1 0x20 ADD ADD MLOAD DUP6 PUSH2 0x2F0B JUMP JUMPDEST ISZERO ISZERO PUSH1 0x1 EQ ISZERO PUSH2 0x2EEC JUMPI PUSH1 0x1 SWAP3 POP POP POP PUSH2 0x2F05 JUMP JUMPDEST DUP1 PUSH2 0x2EF6 DUP2 PUSH2 0x545F JUMP JUMPDEST SWAP2 POP POP PUSH2 0x2EAC JUMP JUMPDEST POP PUSH1 0x0 SWAP2 POP POP JUMPDEST SWAP3 SWAP2 POP POP JUMP JUMPDEST PUSH1 0x0 DUP2 PUSH1 0x40 MLOAD PUSH1 0x20 ADD PUSH2 0x2F1E SWAP2 SWAP1 PUSH2 0x536C JUMP JUMPDEST PUSH1 0x40 MLOAD PUSH1 0x20 DUP2 DUP4 SUB SUB DUP2 MSTORE SWAP1 PUSH1 0x40 MSTORE DUP1 MLOAD SWAP1 PUSH1 0x20 ADD KECCAK256 DUP4 PUSH1 0x40 MLOAD PUSH1 0x20 ADD PUSH2 0x2F45 SWAP2 SWAP1 PUSH2 0x536C JUMP JUMPDEST PUSH1 0x40 MLOAD PUSH1 0x20 DUP2 DUP4 SUB SUB DUP2 MSTORE SWAP1 PUSH1 0x40 MSTORE DUP1 MLOAD SWAP1 PUSH1 0x20 ADD KECCAK256 EQ ISZERO PUSH2 0x2F69 JUMPI POP PUSH1 0x1 PUSH2 0x2F05 JUMP JUMPDEST POP PUSH1 0x0 SWAP3 SWAP2 POP POP JUMP JUMPDEST DUP2 DUP2 PUSH1 0x0 PUSH1 0x6F DUP3 PUSH1 0x40 MLOAD PUSH2 0x2F86 SWAP2 SWAP1 PUSH2 0x536C JUMP JUMPDEST SWAP1 DUP2 MSTORE PUSH1 0x20 ADD PUSH1 0x40 MLOAD DUP1 SWAP2 SUB SWAP1 KECCAK256 PUSH1 0x40 MLOAD DUP1 PUSH2 0x160 ADD PUSH1 0x40 MSTORE SWAP1 DUP2 PUSH1 0x0 DUP3 ADD DUP1 SLOAD PUSH2 0x2FB0 SWAP1 PUSH2 0x5388 JUMP JUMPDEST DUP1 PUSH1 0x1F ADD PUSH1 0x20 DUP1 SWAP2 DIV MUL PUSH1 0x20 ADD PUSH1 0x40 MLOAD SWAP1 DUP2 ADD PUSH1 0x40 MSTORE DUP1 SWAP3 SWAP2 SWAP1 DUP2 DUP2 MSTORE PUSH1 0x20 ADD DUP3 DUP1 SLOAD PUSH2 0x2FDC SWAP1 PUSH2 0x5388 JUMP JUMPDEST DUP1 ISZERO PUSH2 0x3029 JUMPI DUP1 PUSH1 0x1F LT PUSH2 0x2FFE JUMPI PUSH2 0x100 DUP1 DUP4 SLOAD DIV MUL DUP4 MSTORE SWAP2 PUSH1 0x20 ADD SWAP2 PUSH2 0x3029 JUMP JUMPDEST DUP3 ADD SWAP2 SWAP1 PUSH1 0x0 MSTORE PUSH1 0x20 PUSH1 0x0 KECCAK256 SWAP1 JUMPDEST DUP2 SLOAD DUP2 MSTORE SWAP1 PUSH1 0x1 ADD SWAP1 PUSH1 0x20 ADD DUP1 DUP4 GT PUSH2 0x300C JUMPI DUP3 SWAP1 SUB PUSH1 0x1F AND DUP3 ADD SWAP2 JUMPDEST POP POP POP POP POP DUP2 MSTORE PUSH1 0x20 ADD PUSH1 0x1 DUP3 ADD SLOAD DUP2 MSTORE PUSH1 0x20 ADD PUSH1 0x2 DUP3 ADD DUP1 SLOAD PUSH2 0x304C SWAP1 PUSH2 0x5388 JUMP JUMPDEST DUP1 PUSH1 0x1F ADD PUSH1 0x20 DUP1 SWAP2 DIV MUL PUSH1 0x20 ADD PUSH1 0x40 MLOAD SWAP1 DUP2 ADD PUSH1 0x40 MSTORE DUP1 SWAP3 SWAP2 SWAP1 DUP2 DUP2 MSTORE PUSH1 0x20 ADD DUP3 DUP1 SLOAD PUSH2 0x3078 SWAP1 PUSH2 0x5388 JUMP JUMPDEST DUP1 ISZERO PUSH2 0x30C5 JUMPI DUP1 PUSH1 0x1F LT PUSH2 0x309A JUMPI PUSH2 0x100 DUP1 DUP4 SLOAD DIV MUL DUP4 MSTORE SWAP2 PUSH1 0x20 ADD SWAP2 PUSH2 0x30C5 JUMP JUMPDEST DUP3 ADD SWAP2 SWAP1 PUSH1 0x0 MSTORE PUSH1 0x20 PUSH1 0x0 KECCAK256 SWAP1 JUMPDEST DUP2 SLOAD DUP2 MSTORE SWAP1 PUSH1 0x1 ADD SWAP1 PUSH1 0x20 ADD DUP1 DUP4 GT PUSH2 0x30A8 JUMPI DUP3 SWAP1 SUB PUSH1 0x1F AND DUP3 ADD SWAP2 JUMPDEST POP POP POP SWAP2 DUP4 MSTORE POP POP PUSH1 0x3 DUP3 DUP2 ADD SLOAD PUSH1 0x1 PUSH1 0x1 PUSH1 0xA0 SHL SUB SWAP1 DUP2 AND PUSH1 0x20 DUP1 DUP6 ADD SWAP2 SWAP1 SWAP2 MSTORE PUSH1 0x4 DUP6 ADD SLOAD PUSH1 0x40 DUP1 DUP7 ADD SWAP2 SWAP1 SWAP2 MSTORE PUSH1 0x5 DUP7 ADD SLOAD PUSH1 0x60 DUP7 ADD MSTORE PUSH1 0x6 DUP7 ADD SLOAD PUSH1 0x80 DUP7 ADD MSTORE PUSH1 0x7 DUP7 ADD SLOAD PUSH1 0xFF SWAP1 DUP2 AND ISZERO ISZERO PUSH1 0xA0 DUP8 ADD MSTORE PUSH1 0x8 DUP8 ADD SLOAD PUSH1 0xC0 DUP8 ADD MSTORE PUSH1 0x9 SWAP1 SWAP7 ADD SLOAD SWAP3 DUP4 AND PUSH1 0xE0 DUP7 ADD MSTORE PUSH1 0x1 PUSH1 0xA0 SHL SWAP1 SWAP3 DIV DUP6 AND ISZERO ISZERO PUSH2 0x100 SWAP1 SWAP5 ADD SWAP4 SWAP1 SWAP4 MSTORE CALLER PUSH1 0x0 SWAP1 DUP2 MSTORE PUSH1 0x73 SWAP1 SWAP4 MSTORE SWAP1 SWAP2 KECCAK256 ADD SLOAD SWAP2 SWAP3 POP AND ISZERO ISZERO PUSH1 0x1 EQ DUP1 ISZERO PUSH2 0x3246 JUMPI POP CALLER PUSH1 0x0 SWAP1 DUP2 MSTORE PUSH1 0x75 PUSH1 0x20 SWAP1 DUP2 MSTORE PUSH1 0x40 DUP1 DUP4 KECCAK256 DUP1 SLOAD DUP3 MLOAD DUP2 DUP6 MUL DUP2 ADD DUP6 ADD SWAP1 SWAP4 MSTORE DUP1 DUP4 MSTORE PUSH2 0x3244 SWAP5 SWAP3 SWAP4 SWAP2 SWAP3 SWAP1 SWAP2 DUP5 ADD JUMPDEST DUP3 DUP3 LT ISZERO PUSH2 0xD96 JUMPI DUP4 DUP3 SWAP1 PUSH1 0x0 MSTORE PUSH1 0x20 PUSH1 0x0 KECCAK256 ADD DUP1 SLOAD PUSH2 0x31B7 SWAP1 PUSH2 0x5388 JUMP JUMPDEST DUP1 PUSH1 0x1F ADD PUSH1 0x20 DUP1 SWAP2 DIV MUL PUSH1 0x20 ADD PUSH1 0x40 MLOAD SWAP1 DUP2 ADD PUSH1 0x40 MSTORE DUP1 SWAP3 SWAP2 SWAP1 DUP2 DUP2 MSTORE PUSH1 0x20 ADD DUP3 DUP1 SLOAD PUSH2 0x31E3 SWAP1 PUSH2 0x5388 JUMP JUMPDEST DUP1 ISZERO PUSH2 0x3230 JUMPI DUP1 PUSH1 0x1F LT PUSH2 0x3205 JUMPI PUSH2 0x100 DUP1 DUP4 SLOAD DIV MUL DUP4 MSTORE SWAP2 PUSH1 0x20 ADD SWAP2 PUSH2 0x3230 JUMP JUMPDEST DUP3 ADD SWAP2 SWAP1 PUSH1 0x0 MSTORE PUSH1 0x20 PUSH1 0x0 KECCAK256 SWAP1 JUMPDEST DUP2 SLOAD DUP2 MSTORE SWAP1 PUSH1 0x1 ADD SWAP1 PUSH1 0x20 ADD DUP1 DUP4 GT PUSH2 0x3213 JUMPI DUP3 SWAP1 SUB PUSH1 0x1F AND DUP3 ADD SWAP2 JUMPDEST POP POP POP POP POP DUP2 MSTORE PUSH1 0x20 ADD SWAP1 PUSH1 0x1 ADD SWAP1 PUSH2 0x3198 JUMP JUMPDEST ISZERO JUMPDEST DUP1 ISZERO PUSH2 0x3266 JUMPI POP PUSH2 0x3260 PUSH1 0x6F DUP4 PUSH1 0x40 MLOAD PUSH2 0xDBC SWAP2 SWAP1 PUSH2 0x536C JUMP JUMPDEST ISZERO ISZERO PUSH1 0x1 EQ JUMPDEST DUP1 ISZERO PUSH2 0x3274 JUMPI POP PUSH1 0xE0 DUP2 ADD MLOAD ISZERO JUMPDEST DUP1 ISZERO PUSH2 0x32AC JUMPI POP PUSH1 0x1 PUSH1 0x1 PUSH1 0xA0 SHL SUB DUP4 AND PUSH1 0x0 SWAP1 DUP2 MSTORE PUSH1 0x72 PUSH1 0x20 MSTORE PUSH1 0x40 SWAP1 KECCAK256 PUSH1 0x1 ADD DUP1 SLOAD PUSH2 0x32A6 SWAP2 SWAP1 PUSH2 0xDD6 SWAP1 PUSH2 0x5388 JUMP JUMPDEST ISZERO ISZERO PUSH1 0x1 EQ JUMPDEST PUSH2 0x32E7 JUMPI PUSH1 0x40 MLOAD PUSH3 0x461BCD PUSH1 0xE5 SHL DUP2 MSTORE PUSH1 0x20 PUSH1 0x4 DUP3 ADD MSTORE PUSH1 0xC PUSH1 0x24 DUP3 ADD MSTORE PUSH12 0x566F746572204572726F7221 PUSH1 0xA0 SHL PUSH1 0x44 DUP3 ADD MSTORE PUSH1 0x64 ADD PUSH2 0x54D JUMP JUMPDEST PUSH1 0x0 PUSH1 0x6F DUP6 PUSH1 0x40 MLOAD PUSH2 0x32F9 SWAP2 SWAP1 PUSH2 0x536C JUMP JUMPDEST SWAP1 DUP2 MSTORE PUSH1 0x20 ADD PUSH1 0x40 MLOAD DUP1 SWAP2 SUB SWAP1 KECCAK256 PUSH1 0x40 MLOAD DUP1 PUSH2 0x160 ADD PUSH1 0x40 MSTORE SWAP1 DUP2 PUSH1 0x0 DUP3 ADD DUP1 SLOAD PUSH2 0x3323 SWAP1 PUSH2 0x5388 JUMP JUMPDEST DUP1 PUSH1 0x1F ADD PUSH1 0x20 DUP1 SWAP2 DIV MUL PUSH1 0x20 ADD PUSH1 0x40 MLOAD SWAP1 DUP2 ADD PUSH1 0x40 MSTORE DUP1 SWAP3 SWAP2 SWAP1 DUP2 DUP2 MSTORE PUSH1 0x20 ADD DUP3 DUP1 SLOAD PUSH2 0x334F SWAP1 PUSH2 0x5388 JUMP JUMPDEST DUP1 ISZERO PUSH2 0x339C JUMPI DUP1 PUSH1 0x1F LT PUSH2 0x3371 JUMPI PUSH2 0x100 DUP1 DUP4 SLOAD DIV MUL DUP4 MSTORE SWAP2 PUSH1 0x20 ADD SWAP2 PUSH2 0x339C JUMP JUMPDEST DUP3 ADD SWAP2 SWAP1 PUSH1 0x0 MSTORE PUSH1 0x20 PUSH1 0x0 KECCAK256 SWAP1 JUMPDEST DUP2 SLOAD DUP2 MSTORE SWAP1 PUSH1 0x1 ADD SWAP1 PUSH1 0x20 ADD DUP1 DUP4 GT PUSH2 0x337F JUMPI DUP3 SWAP1 SUB PUSH1 0x1F AND DUP3 ADD SWAP2 JUMPDEST POP POP POP POP POP DUP2 MSTORE PUSH1 0x20 ADD PUSH1 0x1 DUP3 ADD SLOAD DUP2 MSTORE PUSH1 0x20 ADD PUSH1 0x2 DUP3 ADD DUP1 SLOAD PUSH2 0x33BF SWAP1 PUSH2 0x5388 JUMP JUMPDEST DUP1 PUSH1 0x1F ADD PUSH1 0x20 DUP1 SWAP2 DIV MUL PUSH1 0x20 ADD PUSH1 0x40 MLOAD SWAP1 DUP2 ADD PUSH1 0x40 MSTORE DUP1 SWAP3 SWAP2 SWAP1 DUP2 DUP2 MSTORE PUSH1 0x20 ADD DUP3 DUP1 SLOAD PUSH2 0x33EB SWAP1 PUSH2 0x5388 JUMP JUMPDEST DUP1 ISZERO PUSH2 0x3438 JUMPI DUP1 PUSH1 0x1F LT PUSH2 0x340D JUMPI PUSH2 0x100 DUP1 DUP4 SLOAD DIV MUL DUP4 MSTORE SWAP2 PUSH1 0x20 ADD SWAP2 PUSH2 0x3438 JUMP JUMPDEST DUP3 ADD SWAP2 SWAP1 PUSH1 0x0 MSTORE PUSH1 0x20 PUSH1 0x0 KECCAK256 SWAP1 JUMPDEST DUP2 SLOAD DUP2 MSTORE SWAP1 PUSH1 0x1 ADD SWAP1 PUSH1 0x20 ADD DUP1 DUP4 GT PUSH2 0x341B JUMPI DUP3 SWAP1 SUB PUSH1 0x1F AND DUP3 ADD SWAP2 JUMPDEST POP POP POP SWAP2 DUP4 MSTORE POP POP PUSH1 0x3 DUP3 ADD SLOAD PUSH1 0x1 PUSH1 0x1 PUSH1 0xA0 SHL SUB SWAP1 DUP2 AND PUSH1 0x20 DUP4 ADD MSTORE PUSH1 0x4 DUP4 ADD SLOAD PUSH1 0x40 DUP4 ADD MSTORE PUSH1 0x5 DUP4 ADD SLOAD PUSH1 0x60 DUP4 ADD MSTORE PUSH1 0x6 DUP4 ADD SLOAD PUSH1 0x80 DUP4 ADD MSTORE PUSH1 0x7 DUP4 ADD SLOAD PUSH1 0xFF SWAP1 DUP2 AND ISZERO ISZERO PUSH1 0xA0 DUP5 ADD MSTORE PUSH1 0x8 DUP5 ADD SLOAD PUSH1 0xC0 DUP5 ADD MSTORE PUSH1 0x9 SWAP1 SWAP4 ADD SLOAD DUP1 DUP3 AND PUSH1 0xE0 DUP5 ADD MSTORE PUSH1 0x1 PUSH1 0xA0 SHL SWAP1 DIV SWAP1 SWAP3 AND ISZERO ISZERO PUSH2 0x100 SWAP1 SWAP2 ADD MSTORE DUP8 AND PUSH2 0x120 DUP3 ADD MSTORE SWAP1 POP PUSH2 0x34C3 DUP7 DUP3 PUSH2 0x4501 JUMP JUMPDEST POP PUSH2 0x34CD DUP7 PUSH2 0x45B6 JUMP JUMPDEST POP POP POP POP POP POP JUMP JUMPDEST DUP2 DUP2 PUSH1 0x0 PUSH1 0x6F DUP3 PUSH1 0x40 MLOAD PUSH2 0x34E9 SWAP2 SWAP1 PUSH2 0x536C JUMP JUMPDEST SWAP1 DUP2 MSTORE PUSH1 0x20 ADD PUSH1 0x40 MLOAD DUP1 SWAP2 SUB SWAP1 KECCAK256 PUSH1 0x40 MLOAD DUP1 PUSH2 0x160 ADD PUSH1 0x40 MSTORE SWAP1 DUP2 PUSH1 0x0 DUP3 ADD DUP1 SLOAD PUSH2 0x3513 SWAP1 PUSH2 0x5388 JUMP JUMPDEST DUP1 PUSH1 0x1F ADD PUSH1 0x20 DUP1 SWAP2 DIV MUL PUSH1 0x20 ADD PUSH1 0x40 MLOAD SWAP1 DUP2 ADD PUSH1 0x40 MSTORE DUP1 SWAP3 SWAP2 SWAP1 DUP2 DUP2 MSTORE PUSH1 0x20 ADD DUP3 DUP1 SLOAD PUSH2 0x353F SWAP1 PUSH2 0x5388 JUMP JUMPDEST DUP1 ISZERO PUSH2 0x358C JUMPI DUP1 PUSH1 0x1F LT PUSH2 0x3561 JUMPI PUSH2 0x100 DUP1 DUP4 SLOAD DIV MUL DUP4 MSTORE SWAP2 PUSH1 0x20 ADD SWAP2 PUSH2 0x358C JUMP JUMPDEST DUP3 ADD SWAP2 SWAP1 PUSH1 0x0 MSTORE PUSH1 0x20 PUSH1 0x0 KECCAK256 SWAP1 JUMPDEST DUP2 SLOAD DUP2 MSTORE SWAP1 PUSH1 0x1 ADD SWAP1 PUSH1 0x20 ADD DUP1 DUP4 GT PUSH2 0x356F JUMPI DUP3 SWAP1 SUB PUSH1 0x1F AND DUP3 ADD SWAP2 JUMPDEST POP POP POP POP POP DUP2 MSTORE PUSH1 0x20 ADD PUSH1 0x1 DUP3 ADD SLOAD DUP2 MSTORE PUSH1 0x20 ADD PUSH1 0x2 DUP3 ADD DUP1 SLOAD PUSH2 0x35AF SWAP1 PUSH2 0x5388 JUMP JUMPDEST DUP1 PUSH1 0x1F ADD PUSH1 0x20 DUP1 SWAP2 DIV MUL PUSH1 0x20 ADD PUSH1 0x40 MLOAD SWAP1 DUP2 ADD PUSH1 0x40 MSTORE DUP1 SWAP3 SWAP2 SWAP1 DUP2 DUP2 MSTORE PUSH1 0x20 ADD DUP3 DUP1 SLOAD PUSH2 0x35DB SWAP1 PUSH2 0x5388 JUMP JUMPDEST DUP1 ISZERO PUSH2 0x3628 JUMPI DUP1 PUSH1 0x1F LT PUSH2 0x35FD JUMPI PUSH2 0x100 DUP1 DUP4 SLOAD DIV MUL DUP4 MSTORE SWAP2 PUSH1 0x20 ADD SWAP2 PUSH2 0x3628 JUMP JUMPDEST DUP3 ADD SWAP2 SWAP1 PUSH1 0x0 MSTORE PUSH1 0x20 PUSH1 0x0 KECCAK256 SWAP1 JUMPDEST DUP2 SLOAD DUP2 MSTORE SWAP1 PUSH1 0x1 ADD SWAP1 PUSH1 0x20 ADD DUP1 DUP4 GT PUSH2 0x360B JUMPI DUP3 SWAP1 SUB PUSH1 0x1F AND DUP3 ADD SWAP2 JUMPDEST POP POP POP SWAP2 DUP4 MSTORE POP POP PUSH1 0x3 DUP3 ADD SLOAD PUSH1 0x1 PUSH1 0x1 PUSH1 0xA0 SHL SUB SWAP1 DUP2 AND PUSH1 0x20 DUP1 DUP5 ADD SWAP2 SWAP1 SWAP2 MSTORE PUSH1 0x4 DUP5 ADD SLOAD PUSH1 0x40 DUP1 DUP6 ADD SWAP2 SWAP1 SWAP2 MSTORE PUSH1 0x5 DUP6 ADD SLOAD PUSH1 0x60 DUP6 ADD MSTORE PUSH1 0x6 DUP6 ADD SLOAD PUSH1 0x80 DUP6 ADD MSTORE PUSH1 0x7 DUP6 ADD SLOAD PUSH1 0xFF SWAP1 DUP2 AND ISZERO ISZERO PUSH1 0xA0 DUP7 ADD MSTORE PUSH1 0x8 DUP7 ADD SLOAD PUSH1 0xC0 DUP7 ADD MSTORE PUSH1 0x9 SWAP1 SWAP6 ADD SLOAD DUP1 DUP5 AND PUSH1 0xE0 DUP1 DUP8 ADD SWAP2 SWAP1 SWAP2 MSTORE PUSH1 0x1 PUSH1 0xA0 SHL SWAP1 SWAP2 DIV SWAP1 SWAP6 AND ISZERO ISZERO PUSH2 0x100 SWAP1 SWAP5 ADD SWAP4 SWAP1 SWAP4 MSTORE CALLER PUSH1 0x0 SWAP1 DUP2 MSTORE PUSH1 0x73 DUP3 MSTORE DUP4 DUP2 KECCAK256 DUP5 MLOAD SWAP6 DUP7 ADD DUP6 MSTORE DUP1 SLOAD DUP7 MSTORE PUSH1 0x1 DUP2 ADD SLOAD SWAP1 SWAP4 AND SWAP2 DUP6 ADD SWAP2 SWAP1 SWAP2 MSTORE PUSH1 0x2 DUP3 ADD DUP1 SLOAD SWAP6 SWAP7 POP SWAP1 SWAP5 SWAP2 SWAP3 DUP5 ADD SWAP2 PUSH2 0x36EF SWAP1 PUSH2 0x5388 JUMP JUMPDEST DUP1 PUSH1 0x1F ADD PUSH1 0x20 DUP1 SWAP2 DIV MUL PUSH1 0x20 ADD PUSH1 0x40 MLOAD SWAP1 DUP2 ADD PUSH1 0x40 MSTORE DUP1 SWAP3 SWAP2 SWAP1 DUP2 DUP2 MSTORE PUSH1 0x20 ADD DUP3 DUP1 SLOAD PUSH2 0x371B SWAP1 PUSH2 0x5388 JUMP JUMPDEST DUP1 ISZERO PUSH2 0x3768 JUMPI DUP1 PUSH1 0x1F LT PUSH2 0x373D JUMPI PUSH2 0x100 DUP1 DUP4 SLOAD DIV MUL DUP4 MSTORE SWAP2 PUSH1 0x20 ADD SWAP2 PUSH2 0x3768 JUMP JUMPDEST DUP3 ADD SWAP2 SWAP1 PUSH1 0x0 MSTORE PUSH1 0x20 PUSH1 0x0 KECCAK256 SWAP1 JUMPDEST DUP2 SLOAD DUP2 MSTORE SWAP1 PUSH1 0x1 ADD SWAP1 PUSH1 0x20 ADD DUP1 DUP4 GT PUSH2 0x374B JUMPI DUP3 SWAP1 SUB PUSH1 0x1F AND DUP3 ADD SWAP2 JUMPDEST POP POP POP SWAP2 DUP4 MSTORE POP POP PUSH1 0x3 DUP3 ADD SLOAD PUSH1 0xFF DUP1 DUP3 AND ISZERO ISZERO PUSH1 0x20 DUP5 ADD MSTORE PUSH2 0x100 DUP3 DIV DUP2 AND ISZERO ISZERO PUSH1 0x40 DUP5 ADD MSTORE PUSH3 0x10000 SWAP1 SWAP2 DIV AND ISZERO ISZERO PUSH1 0x60 DUP3 ADD MSTORE PUSH1 0x4 SWAP1 SWAP2 ADD SLOAD PUSH1 0x80 SWAP2 DUP3 ADD MSTORE DUP2 ADD MLOAD SWAP1 SWAP2 POP ISZERO ISZERO PUSH1 0x1 EQ DUP1 ISZERO PUSH2 0x37D8 JUMPI POP CALLER PUSH1 0x0 SWAP1 DUP2 MSTORE PUSH1 0x73 PUSH1 0x20 MSTORE PUSH1 0x40 SWAP1 KECCAK256 PUSH1 0x3 ADD SLOAD PUSH1 0xFF AND ISZERO ISZERO PUSH1 0x1 EQ JUMPDEST DUP1 ISZERO PUSH2 0x38C7 JUMPI POP CALLER PUSH1 0x0 SWAP1 DUP2 MSTORE PUSH1 0x75 PUSH1 0x20 SWAP1 DUP2 MSTORE PUSH1 0x40 DUP1 DUP4 KECCAK256 DUP1 SLOAD DUP3 MLOAD DUP2 DUP6 MUL DUP2 ADD DUP6 ADD SWAP1 SWAP4 MSTORE DUP1 DUP4 MSTORE PUSH2 0x38C5 SWAP5 SWAP3 SWAP4 SWAP2 SWAP3 SWAP1 SWAP2 DUP5 ADD JUMPDEST DUP3 DUP3 LT ISZERO PUSH2 0x38BB JUMPI DUP4 DUP3 SWAP1 PUSH1 0x0 MSTORE PUSH1 0x20 PUSH1 0x0 KECCAK256 ADD DUP1 SLOAD PUSH2 0x382E SWAP1 PUSH2 0x5388 JUMP JUMPDEST DUP1 PUSH1 0x1F ADD PUSH1 0x20 DUP1 SWAP2 DIV MUL PUSH1 0x20 ADD PUSH1 0x40 MLOAD SWAP1 DUP2 ADD PUSH1 0x40 MSTORE DUP1 SWAP3 SWAP2 SWAP1 DUP2 DUP2 MSTORE PUSH1 0x20 ADD DUP3 DUP1 SLOAD PUSH2 0x385A SWAP1 PUSH2 0x5388 JUMP JUMPDEST DUP1 ISZERO PUSH2 0x38A7 JUMPI DUP1 PUSH1 0x1F LT PUSH2 0x387C JUMPI PUSH2 0x100 DUP1 DUP4 SLOAD DIV MUL DUP4 MSTORE SWAP2 PUSH1 0x20 ADD SWAP2 PUSH2 0x38A7 JUMP JUMPDEST DUP3 ADD SWAP2 SWAP1 PUSH1 0x0 MSTORE PUSH1 0x20 PUSH1 0x0 KECCAK256 SWAP1 JUMPDEST DUP2 SLOAD DUP2 MSTORE SWAP1 PUSH1 0x1 ADD SWAP1 PUSH1 0x20 ADD DUP1 DUP4 GT PUSH2 0x388A JUMPI DUP3 SWAP1 SUB PUSH1 0x1F AND DUP3 ADD SWAP2 JUMPDEST POP POP POP POP POP DUP2 MSTORE PUSH1 0x20 ADD SWAP1 PUSH1 0x1 ADD SWAP1 PUSH2 0x380F JUMP JUMPDEST POP POP POP POP DUP5 PUSH2 0x2EA5 JUMP JUMPDEST ISZERO JUMPDEST DUP1 ISZERO PUSH2 0x3901 JUMPI POP PUSH2 0x38FB PUSH1 0x6F DUP5 PUSH1 0x40 MLOAD PUSH2 0x38E1 SWAP2 SWAP1 PUSH2 0x536C JUMP JUMPDEST SWAP1 DUP2 MSTORE PUSH1 0x40 MLOAD SWAP1 DUP2 SWAP1 SUB PUSH1 0x20 ADD SWAP1 KECCAK256 DUP1 SLOAD PUSH2 0x1B09 SWAP1 PUSH2 0x5388 JUMP JUMPDEST ISZERO ISZERO PUSH1 0x1 EQ JUMPDEST DUP1 ISZERO PUSH2 0x3939 JUMPI POP PUSH1 0x1 PUSH1 0x1 PUSH1 0xA0 SHL SUB DUP5 AND PUSH1 0x0 SWAP1 DUP2 MSTORE PUSH1 0x72 PUSH1 0x20 MSTORE PUSH1 0x40 SWAP1 KECCAK256 PUSH1 0x1 ADD DUP1 SLOAD PUSH2 0x3933 SWAP2 SWAP1 PUSH2 0x1B09 SWAP1 PUSH2 0x5388 JUMP JUMPDEST ISZERO ISZERO PUSH1 0x1 EQ JUMPDEST PUSH2 0x3985 JUMPI PUSH1 0x40 MLOAD PUSH3 0x461BCD PUSH1 0xE5 SHL DUP2 MSTORE PUSH1 0x20 PUSH1 0x4 DUP3 ADD MSTORE PUSH1 0x1B PUSH1 0x24 DUP3 ADD MSTORE PUSH32 0x566F746572204572726F7228436C6F7365642042616C6C6F7429210000000000 PUSH1 0x44 DUP3 ADD MSTORE PUSH1 0x64 ADD PUSH2 0x54D JUMP JUMPDEST PUSH1 0x0 PUSH1 0x6F DUP7 PUSH1 0x40 MLOAD PUSH2 0x3997 SWAP2 SWAP1 PUSH2 0x536C JUMP JUMPDEST SWAP1 DUP2 MSTORE PUSH1 0x20 ADD PUSH1 0x40 MLOAD DUP1 SWAP2 SUB SWAP1 KECCAK256 PUSH1 0x40 MLOAD DUP1 PUSH2 0x160 ADD PUSH1 0x40 MSTORE SWAP1 DUP2 PUSH1 0x0 DUP3 ADD DUP1 SLOAD PUSH2 0x39C1 SWAP1 PUSH2 0x5388 JUMP JUMPDEST DUP1 PUSH1 0x1F ADD PUSH1 0x20 DUP1 SWAP2 DIV MUL PUSH1 0x20 ADD PUSH1 0x40 MLOAD SWAP1 DUP2 ADD PUSH1 0x40 MSTORE DUP1 SWAP3 SWAP2 SWAP1 DUP2 DUP2 MSTORE PUSH1 0x20 ADD DUP3 DUP1 SLOAD PUSH2 0x39ED SWAP1 PUSH2 0x5388 JUMP JUMPDEST DUP1 ISZERO PUSH2 0x3A3A JUMPI DUP1 PUSH1 0x1F LT PUSH2 0x3A0F JUMPI PUSH2 0x100 DUP1 DUP4 SLOAD DIV MUL DUP4 MSTORE SWAP2 PUSH1 0x20 ADD SWAP2 PUSH2 0x3A3A JUMP JUMPDEST DUP3 ADD SWAP2 SWAP1 PUSH1 0x0 MSTORE PUSH1 0x20 PUSH1 0x0 KECCAK256 SWAP1 JUMPDEST DUP2 SLOAD DUP2 MSTORE SWAP1 PUSH1 0x1 ADD SWAP1 PUSH1 0x20 ADD DUP1 DUP4 GT PUSH2 0x3A1D JUMPI DUP3 SWAP1 SUB PUSH1 0x1F AND DUP3 ADD SWAP2 JUMPDEST POP POP POP POP POP DUP2 MSTORE PUSH1 0x20 ADD PUSH1 0x1 DUP3 ADD SLOAD DUP2 MSTORE PUSH1 0x20 ADD PUSH1 0x2 DUP3 ADD DUP1 SLOAD PUSH2 0x3A5D SWAP1 PUSH2 0x5388 JUMP JUMPDEST DUP1 PUSH1 0x1F ADD PUSH1 0x20 DUP1 SWAP2 DIV MUL PUSH1 0x20 ADD PUSH1 0x40 MLOAD SWAP1 DUP2 ADD PUSH1 0x40 MSTORE DUP1 SWAP3 SWAP2 SWAP1 DUP2 DUP2 MSTORE PUSH1 0x20 ADD DUP3 DUP1 SLOAD PUSH2 0x3A89 SWAP1 PUSH2 0x5388 JUMP JUMPDEST DUP1 ISZERO PUSH2 0x3AD6 JUMPI DUP1 PUSH1 0x1F LT PUSH2 0x3AAB JUMPI PUSH2 0x100 DUP1 DUP4 SLOAD DIV MUL DUP4 MSTORE SWAP2 PUSH1 0x20 ADD SWAP2 PUSH2 0x3AD6 JUMP JUMPDEST DUP3 ADD SWAP2 SWAP1 PUSH1 0x0 MSTORE PUSH1 0x20 PUSH1 0x0 KECCAK256 SWAP1 JUMPDEST DUP2 SLOAD DUP2 MSTORE SWAP1 PUSH1 0x1 ADD SWAP1 PUSH1 0x20 ADD DUP1 DUP4 GT PUSH2 0x3AB9 JUMPI DUP3 SWAP1 SUB PUSH1 0x1F AND DUP3 ADD SWAP2 JUMPDEST POP POP POP SWAP2 DUP4 MSTORE POP POP PUSH1 0x3 DUP3 ADD SLOAD PUSH1 0x1 PUSH1 0x1 PUSH1 0xA0 SHL SUB SWAP1 DUP2 AND PUSH1 0x20 DUP1 DUP5 ADD SWAP2 SWAP1 SWAP2 MSTORE PUSH1 0x4 DUP5 ADD SLOAD PUSH1 0x40 DUP5 ADD MSTORE PUSH1 0x5 DUP5 ADD SLOAD PUSH1 0x60 DUP5 ADD MSTORE PUSH1 0x6 DUP5 ADD SLOAD PUSH1 0x80 DUP5 ADD MSTORE PUSH1 0x7 DUP5 ADD SLOAD PUSH1 0xFF SWAP1 DUP2 AND ISZERO ISZERO PUSH1 0xA0 DUP6 ADD MSTORE PUSH1 0x8 DUP6 ADD SLOAD PUSH1 0xC0 DUP6 ADD MSTORE PUSH1 0x9 SWAP1 SWAP5 ADD SLOAD SWAP2 DUP3 AND PUSH1 0xE0 DUP5 ADD MSTORE PUSH1 0x1 PUSH1 0xA0 SHL SWAP1 SWAP2 DIV SWAP1 SWAP3 AND ISZERO ISZERO PUSH2 0x100 SWAP1 SWAP2 ADD MSTORE DUP2 ADD MLOAD SWAP1 SWAP2 POP PUSH1 0x1 EQ PUSH2 0x3B9C JUMPI PUSH1 0x40 MLOAD PUSH3 0x461BCD PUSH1 0xE5 SHL DUP2 MSTORE PUSH1 0x20 PUSH1 0x4 DUP3 ADD MSTORE PUSH1 0x12 PUSH1 0x24 DUP3 ADD MSTORE PUSH18 0x57726F6E672042616C6C6F74205479706521 PUSH1 0x70 SHL PUSH1 0x44 DUP3 ADD MSTORE PUSH1 0x64 ADD PUSH2 0x54D JUMP JUMPDEST PUSH1 0x1 PUSH1 0x1 PUSH1 0xA0 SHL SUB DUP8 AND PUSH2 0x120 DUP3 ADD MSTORE PUSH2 0x3BB6 DUP8 DUP3 PUSH2 0x4501 JUMP JUMPDEST POP PUSH2 0x1111 DUP8 PUSH2 0x45B6 JUMP JUMPDEST PUSH1 0x33 SLOAD PUSH1 0x1 PUSH1 0x1 PUSH1 0xA0 SHL SUB AND CALLER EQ PUSH2 0x2149 JUMPI PUSH1 0x40 MLOAD PUSH3 0x461BCD PUSH1 0xE5 SHL DUP2 MSTORE PUSH1 0x20 PUSH1 0x4 DUP3 ADD DUP2 SWAP1 MSTORE PUSH1 0x24 DUP3 ADD MSTORE PUSH32 0x4F776E61626C653A2063616C6C6572206973206E6F7420746865206F776E6572 PUSH1 0x44 DUP3 ADD MSTORE PUSH1 0x64 ADD PUSH2 0x54D JUMP JUMPDEST PUSH1 0x33 DUP1 SLOAD PUSH1 0x1 PUSH1 0x1 PUSH1 0xA0 SHL SUB DUP4 DUP2 AND PUSH1 0x1 PUSH1 0x1 PUSH1 0xA0 SHL SUB NOT DUP4 AND DUP2 OR SWAP1 SWAP4 SSTORE PUSH1 0x40 MLOAD SWAP2 AND SWAP2 SWAP1 DUP3 SWAP1 PUSH32 0x8BE0079C531659141344CD1FD0A4F28419497F9722A3DAAFE3B4186F6B6457E0 SWAP1 PUSH1 0x0 SWAP1 LOG3 POP POP JUMP JUMPDEST DUP2 DUP2 PUSH1 0x0 PUSH1 0x6F DUP3 PUSH1 0x40 MLOAD PUSH2 0x3C80 SWAP2 SWAP1 PUSH2 0x536C JUMP JUMPDEST SWAP1 DUP2 MSTORE PUSH1 0x20 ADD PUSH1 0x40 MLOAD DUP1 SWAP2 SUB SWAP1 KECCAK256 PUSH1 0x40 MLOAD DUP1 PUSH2 0x160 ADD PUSH1 0x40 MSTORE SWAP1 DUP2 PUSH1 0x0 DUP3 ADD DUP1 SLOAD PUSH2 0x3CAA SWAP1 PUSH2 0x5388 JUMP JUMPDEST DUP1 PUSH1 0x1F ADD PUSH1 0x20 DUP1 SWAP2 DIV MUL PUSH1 0x20 ADD PUSH1 0x40 MLOAD SWAP1 DUP2 ADD PUSH1 0x40 MSTORE DUP1 SWAP3 SWAP2 SWAP1 DUP2 DUP2 MSTORE PUSH1 0x20 ADD DUP3 DUP1 SLOAD PUSH2 0x3CD6 SWAP1 PUSH2 0x5388 JUMP JUMPDEST DUP1 ISZERO PUSH2 0x3D23 JUMPI DUP1 PUSH1 0x1F LT PUSH2 0x3CF8 JUMPI PUSH2 0x100 DUP1 DUP4 SLOAD DIV MUL DUP4 MSTORE SWAP2 PUSH1 0x20 ADD SWAP2 PUSH2 0x3D23 JUMP JUMPDEST DUP3 ADD SWAP2 SWAP1 PUSH1 0x0 MSTORE PUSH1 0x20 PUSH1 0x0 KECCAK256 SWAP1 JUMPDEST DUP2 SLOAD DUP2 MSTORE SWAP1 PUSH1 0x1 ADD SWAP1 PUSH1 0x20 ADD DUP1 DUP4 GT PUSH2 0x3D06 JUMPI DUP3 SWAP1 SUB PUSH1 0x1F AND DUP3 ADD SWAP2 JUMPDEST POP POP POP POP POP DUP2 MSTORE PUSH1 0x20 ADD PUSH1 0x1 DUP3 ADD SLOAD DUP2 MSTORE PUSH1 0x20 ADD PUSH1 0x2 DUP3 ADD DUP1 SLOAD PUSH2 0x3D46 SWAP1 PUSH2 0x5388 JUMP JUMPDEST DUP1 PUSH1 0x1F ADD PUSH1 0x20 DUP1 SWAP2 DIV MUL PUSH1 0x20 ADD PUSH1 0x40 MLOAD SWAP1 DUP2 ADD PUSH1 0x40 MSTORE DUP1 SWAP3 SWAP2 SWAP1 DUP2 DUP2 MSTORE PUSH1 0x20 ADD DUP3 DUP1 SLOAD PUSH2 0x3D72 SWAP1 PUSH2 0x5388 JUMP JUMPDEST DUP1 ISZERO PUSH2 0x3DBF JUMPI DUP1 PUSH1 0x1F LT PUSH2 0x3D94 JUMPI PUSH2 0x100 DUP1 DUP4 SLOAD DIV MUL DUP4 MSTORE SWAP2 PUSH1 0x20 ADD SWAP2 PUSH2 0x3DBF JUMP JUMPDEST DUP3 ADD SWAP2 SWAP1 PUSH1 0x0 MSTORE PUSH1 0x20 PUSH1 0x0 KECCAK256 SWAP1 JUMPDEST DUP2 SLOAD DUP2 MSTORE SWAP1 PUSH1 0x1 ADD SWAP1 PUSH1 0x20 ADD DUP1 DUP4 GT PUSH2 0x3DA2 JUMPI DUP3 SWAP1 SUB PUSH1 0x1F AND DUP3 ADD SWAP2 JUMPDEST POP POP POP SWAP2 DUP4 MSTORE POP POP PUSH1 0x3 DUP3 ADD SLOAD PUSH1 0x1 PUSH1 0x1 PUSH1 0xA0 SHL SUB SWAP1 DUP2 AND PUSH1 0x20 DUP4 ADD MSTORE PUSH1 0x4 DUP4 ADD SLOAD PUSH1 0x40 DUP4 ADD MSTORE PUSH1 0x5 DUP4 ADD SLOAD PUSH1 0x60 DUP4 ADD MSTORE PUSH1 0x6 DUP4 ADD SLOAD PUSH1 0x80 DUP4 ADD MSTORE PUSH1 0x7 DUP4 ADD SLOAD PUSH1 0xFF SWAP1 DUP2 AND ISZERO ISZERO PUSH1 0xA0 DUP1 DUP6 ADD SWAP2 SWAP1 SWAP2 MSTORE PUSH1 0x8 DUP6 ADD SLOAD PUSH1 0xC0 DUP6 ADD MSTORE PUSH1 0x9 SWAP1 SWAP5 ADD SLOAD SWAP2 DUP3 AND PUSH1 0xE0 DUP5 ADD MSTORE PUSH1 0x1 PUSH1 0xA0 SHL SWAP1 SWAP2 DIV AND ISZERO ISZERO PUSH2 0x100 SWAP1 SWAP2 ADD MSTORE DUP2 ADD MLOAD SWAP1 SWAP2 POP PUSH1 0x0 SWAP1 PUSH2 0x3E4C SWAP1 TIMESTAMP PUSH2 0x5410 JUMP JUMPDEST PUSH1 0x68 SLOAD SWAP1 SWAP2 POP PUSH1 0x1 DUP2 LT DUP1 ISZERO SWAP1 PUSH2 0x3E73 JUMPI POP PUSH1 0xC0 DUP4 ADD MLOAD PUSH2 0x3E70 SWAP1 PUSH3 0x15180 PUSH2 0x54A5 JUMP JUMPDEST DUP3 LT JUMPDEST DUP1 ISZERO PUSH2 0x3F58 JUMPI POP CALLER PUSH1 0x0 SWAP1 DUP2 MSTORE PUSH1 0x74 PUSH1 0x20 SWAP1 DUP2 MSTORE PUSH1 0x40 DUP1 DUP4 KECCAK256 DUP1 SLOAD DUP3 MLOAD DUP2 DUP6 MUL DUP2 ADD DUP6 ADD SWAP1 SWAP4 MSTORE DUP1 DUP4 MSTORE PUSH2 0x3F56 SWAP5 SWAP3 SWAP4 SWAP2 SWAP3 SWAP1 SWAP2 DUP5 ADD JUMPDEST DUP3 DUP3 LT ISZERO PUSH2 0x294C JUMPI DUP4 DUP3 SWAP1 PUSH1 0x0 MSTORE PUSH1 0x20 PUSH1 0x0 KECCAK256 ADD DUP1 SLOAD PUSH2 0x3EC9 SWAP1 PUSH2 0x5388 JUMP JUMPDEST DUP1 PUSH1 0x1F ADD PUSH1 0x20 DUP1 SWAP2 DIV MUL PUSH1 0x20 ADD PUSH1 0x40 MLOAD SWAP1 DUP2 ADD PUSH1 0x40 MSTORE DUP1 SWAP3 SWAP2 SWAP1 DUP2 DUP2 MSTORE PUSH1 0x20 ADD DUP3 DUP1 SLOAD PUSH2 0x3EF5 SWAP1 PUSH2 0x5388 JUMP JUMPDEST DUP1 ISZERO PUSH2 0x3F42 JUMPI DUP1 PUSH1 0x1F LT PUSH2 0x3F17 JUMPI PUSH2 0x100 DUP1 DUP4 SLOAD DIV MUL DUP4 MSTORE SWAP2 PUSH1 0x20 ADD SWAP2 PUSH2 0x3F42 JUMP JUMPDEST DUP3 ADD SWAP2 SWAP1 PUSH1 0x0 MSTORE PUSH1 0x20 PUSH1 0x0 KECCAK256 SWAP1 JUMPDEST DUP2 SLOAD DUP2 MSTORE SWAP1 PUSH1 0x1 ADD SWAP1 PUSH1 0x20 ADD DUP1 DUP4 GT PUSH2 0x3F25 JUMPI DUP3 SWAP1 SUB PUSH1 0x1F AND DUP3 ADD SWAP2 JUMPDEST POP POP POP POP POP DUP2 MSTORE PUSH1 0x20 ADD SWAP1 PUSH1 0x1 ADD SWAP1 PUSH2 0x3EAA JUMP JUMPDEST ISZERO JUMPDEST DUP1 ISZERO PUSH2 0x4043 JUMPI POP PUSH2 0x4041 PUSH1 0x76 PUSH1 0x0 DUP8 DUP2 MSTORE PUSH1 0x20 ADD SWAP1 DUP2 MSTORE PUSH1 0x20 ADD PUSH1 0x0 KECCAK256 DUP1 SLOAD DUP1 PUSH1 0x20 MUL PUSH1 0x20 ADD PUSH1 0x40 MLOAD SWAP1 DUP2 ADD PUSH1 0x40 MSTORE DUP1 SWAP3 SWAP2 SWAP1 DUP2 DUP2 MSTORE PUSH1 0x20 ADD PUSH1 0x0 SWAP1 JUMPDEST DUP3 DUP3 LT ISZERO PUSH2 0x294C JUMPI DUP4 DUP3 SWAP1 PUSH1 0x0 MSTORE PUSH1 0x20 PUSH1 0x0 KECCAK256 ADD DUP1 SLOAD PUSH2 0x3FB4 SWAP1 PUSH2 0x5388 JUMP JUMPDEST DUP1 PUSH1 0x1F ADD PUSH1 0x20 DUP1 SWAP2 DIV MUL PUSH1 0x20 ADD PUSH1 0x40 MLOAD SWAP1 DUP2 ADD PUSH1 0x40 MSTORE DUP1 SWAP3 SWAP2 SWAP1 DUP2 DUP2 MSTORE PUSH1 0x20 ADD DUP3 DUP1 SLOAD PUSH2 0x3FE0 SWAP1 PUSH2 0x5388 JUMP JUMPDEST DUP1 ISZERO PUSH2 0x402D JUMPI DUP1 PUSH1 0x1F LT PUSH2 0x4002 JUMPI PUSH2 0x100 DUP1 DUP4 SLOAD DIV MUL DUP4 MSTORE SWAP2 PUSH1 0x20 ADD SWAP2 PUSH2 0x402D JUMP JUMPDEST DUP3 ADD SWAP2 SWAP1 PUSH1 0x0 MSTORE PUSH1 0x20 PUSH1 0x0 KECCAK256 SWAP1 JUMPDEST DUP2 SLOAD DUP2 MSTORE SWAP1 PUSH1 0x1 ADD SWAP1 PUSH1 0x20 ADD DUP1 DUP4 GT PUSH2 0x4010 JUMPI DUP3 SWAP1 SUB PUSH1 0x1F AND DUP3 ADD SWAP2 JUMPDEST POP POP POP POP POP DUP2 MSTORE PUSH1 0x20 ADD SWAP1 PUSH1 0x1 ADD SWAP1 PUSH2 0x3F95 JUMP JUMPDEST ISZERO JUMPDEST DUP1 ISZERO PUSH2 0x4060 JUMPI POP PUSH2 0x100 DUP4 ADD MLOAD PUSH2 0x405D SWAP1 PUSH3 0x15180 PUSH2 0x54A5 JUMP JUMPDEST DUP3 LT JUMPDEST PUSH2 0x407C JUMPI PUSH1 0x40 MLOAD PUSH3 0x461BCD PUSH1 0xE5 SHL DUP2 MSTORE PUSH1 0x4 ADD PUSH2 0x54D SWAP1 PUSH2 0x54C4 JUMP JUMPDEST PUSH2 0x1111 DUP8 DUP8 PUSH2 0x4636 JUMP JUMPDEST DUP2 DUP2 PUSH1 0x0 PUSH1 0x6F DUP3 PUSH1 0x40 MLOAD PUSH2 0x409A SWAP2 SWAP1 PUSH2 0x536C JUMP JUMPDEST SWAP1 DUP2 MSTORE PUSH1 0x20 ADD PUSH1 0x40 MLOAD DUP1 SWAP2 SUB SWAP1 KECCAK256 PUSH1 0x40 MLOAD DUP1 PUSH2 0x160 ADD PUSH1 0x40 MSTORE SWAP1 DUP2 PUSH1 0x0 DUP3 ADD DUP1 SLOAD PUSH2 0x40C4 SWAP1 PUSH2 0x5388 JUMP JUMPDEST DUP1 PUSH1 0x1F ADD PUSH1 0x20 DUP1 SWAP2 DIV MUL PUSH1 0x20 ADD PUSH1 0x40 MLOAD SWAP1 DUP2 ADD PUSH1 0x40 MSTORE DUP1 SWAP3 SWAP2 SWAP1 DUP2 DUP2 MSTORE PUSH1 0x20 ADD DUP3 DUP1 SLOAD PUSH2 0x40F0 SWAP1 PUSH2 0x5388 JUMP JUMPDEST DUP1 ISZERO PUSH2 0x413D JUMPI DUP1 PUSH1 0x1F LT PUSH2 0x4112 JUMPI PUSH2 0x100 DUP1 DUP4 SLOAD DIV MUL DUP4 MSTORE SWAP2 PUSH1 0x20 ADD SWAP2 PUSH2 0x413D JUMP JUMPDEST DUP3 ADD SWAP2 SWAP1 PUSH1 0x0 MSTORE PUSH1 0x20 PUSH1 0x0 KECCAK256 SWAP1 JUMPDEST DUP2 SLOAD DUP2 MSTORE SWAP1 PUSH1 0x1 ADD SWAP1 PUSH1 0x20 ADD DUP1 DUP4 GT PUSH2 0x4120 JUMPI DUP3 SWAP1 SUB PUSH1 0x1F AND DUP3 ADD SWAP2 JUMPDEST POP POP POP POP POP DUP2 MSTORE PUSH1 0x20 ADD PUSH1 0x1 DUP3 ADD SLOAD DUP2 MSTORE PUSH1 0x20 ADD PUSH1 0x2 DUP3 ADD DUP1 SLOAD PUSH2 0x4160 SWAP1 PUSH2 0x5388 JUMP JUMPDEST DUP1 PUSH1 0x1F ADD PUSH1 0x20 DUP1 SWAP2 DIV MUL PUSH1 0x20 ADD PUSH1 0x40 MLOAD SWAP1 DUP2 ADD PUSH1 0x40 MSTORE DUP1 SWAP3 SWAP2 SWAP1 DUP2 DUP2 MSTORE PUSH1 0x20 ADD DUP3 DUP1 SLOAD PUSH2 0x418C SWAP1 PUSH2 0x5388 JUMP JUMPDEST DUP1 ISZERO PUSH2 0x41D9 JUMPI DUP1 PUSH1 0x1F LT PUSH2 0x41AE JUMPI PUSH2 0x100 DUP1 DUP4 SLOAD DIV MUL DUP4 MSTORE SWAP2 PUSH1 0x20 ADD SWAP2 PUSH2 0x41D9 JUMP JUMPDEST DUP3 ADD SWAP2 SWAP1 PUSH1 0x0 MSTORE PUSH1 0x20 PUSH1 0x0 KECCAK256 SWAP1 JUMPDEST DUP2 SLOAD DUP2 MSTORE SWAP1 PUSH1 0x1 ADD SWAP1 PUSH1 0x20 ADD DUP1 DUP4 GT PUSH2 0x41BC JUMPI DUP3 SWAP1 SUB PUSH1 0x1F AND DUP3 ADD SWAP2 JUMPDEST POP POP POP SWAP2 DUP4 MSTORE POP POP PUSH1 0x3 DUP3 ADD SLOAD PUSH1 0x1 PUSH1 0x1 PUSH1 0xA0 SHL SUB SWAP1 DUP2 AND PUSH1 0x20 DUP4 ADD MSTORE PUSH1 0x4 DUP4 ADD SLOAD PUSH1 0x40 DUP4 ADD MSTORE PUSH1 0x5 DUP4 ADD SLOAD PUSH1 0x60 DUP4 ADD MSTORE PUSH1 0x6 DUP4 ADD SLOAD PUSH1 0x80 DUP4 ADD MSTORE PUSH1 0x7 DUP4 ADD SLOAD PUSH1 0xFF SWAP1 DUP2 AND ISZERO ISZERO PUSH1 0xA0 DUP1 DUP6 ADD SWAP2 SWAP1 SWAP2 MSTORE PUSH1 0x8 DUP6 ADD SLOAD PUSH1 0xC0 DUP6 ADD MSTORE PUSH1 0x9 SWAP1 SWAP5 ADD SLOAD SWAP2 DUP3 AND PUSH1 0xE0 DUP5 ADD MSTORE PUSH1 0x1 PUSH1 0xA0 SHL SWAP1 SWAP2 DIV AND ISZERO ISZERO PUSH2 0x100 SWAP1 SWAP2 ADD MSTORE DUP2 ADD MLOAD SWAP1 SWAP2 POP PUSH1 0x0 SWAP1 PUSH2 0x4266 SWAP1 TIMESTAMP PUSH2 0x5410 JUMP JUMPDEST PUSH1 0x68 SLOAD SWAP1 SWAP2 POP PUSH1 0x1 DUP2 LT DUP1 ISZERO SWAP1 PUSH2 0x428D JUMPI POP PUSH1 0xC0 DUP4 ADD MLOAD PUSH2 0x428A SWAP1 PUSH3 0x15180 PUSH2 0x54A5 JUMP JUMPDEST DUP3 LT JUMPDEST DUP1 ISZERO PUSH2 0x4372 JUMPI POP CALLER PUSH1 0x0 SWAP1 DUP2 MSTORE PUSH1 0x74 PUSH1 0x20 SWAP1 DUP2 MSTORE PUSH1 0x40 DUP1 DUP4 KECCAK256 DUP1 SLOAD DUP3 MLOAD DUP2 DUP6 MUL DUP2 ADD DUP6 ADD SWAP1 SWAP4 MSTORE DUP1 DUP4 MSTORE PUSH2 0x4370 SWAP5 SWAP3 SWAP4 SWAP2 SWAP3 SWAP1 SWAP2 DUP5 ADD JUMPDEST DUP3 DUP3 LT ISZERO PUSH2 0x294C JUMPI DUP4 DUP3 SWAP1 PUSH1 0x0 MSTORE PUSH1 0x20 PUSH1 0x0 KECCAK256 ADD DUP1 SLOAD PUSH2 0x42E3 SWAP1 PUSH2 0x5388 JUMP JUMPDEST DUP1 PUSH1 0x1F ADD PUSH1 0x20 DUP1 SWAP2 DIV MUL PUSH1 0x20 ADD PUSH1 0x40 MLOAD SWAP1 DUP2 ADD PUSH1 0x40 MSTORE DUP1 SWAP3 SWAP2 SWAP1 DUP2 DUP2 MSTORE PUSH1 0x20 ADD DUP3 DUP1 SLOAD PUSH2 0x430F SWAP1 PUSH2 0x5388 JUMP JUMPDEST DUP1 ISZERO PUSH2 0x435C JUMPI DUP1 PUSH1 0x1F LT PUSH2 0x4331 JUMPI PUSH2 0x100 DUP1 DUP4 SLOAD DIV MUL DUP4 MSTORE SWAP2 PUSH1 0x20 ADD SWAP2 PUSH2 0x435C JUMP JUMPDEST DUP3 ADD SWAP2 SWAP1 PUSH1 0x0 MSTORE PUSH1 0x20 PUSH1 0x0 KECCAK256 SWAP1 JUMPDEST DUP2 SLOAD DUP2 MSTORE SWAP1 PUSH1 0x1 ADD SWAP1 PUSH1 0x20 ADD DUP1 DUP4 GT PUSH2 0x433F JUMPI DUP3 SWAP1 SUB PUSH1 0x1F AND DUP3 ADD SWAP2 JUMPDEST POP POP POP POP POP DUP2 MSTORE PUSH1 0x20 ADD SWAP1 PUSH1 0x1 ADD SWAP1 PUSH2 0x42C4 JUMP JUMPDEST ISZERO JUMPDEST DUP1 ISZERO PUSH2 0x445D JUMPI POP PUSH2 0x445B PUSH1 0x76 PUSH1 0x0 DUP8 DUP2 MSTORE PUSH1 0x20 ADD SWAP1 DUP2 MSTORE PUSH1 0x20 ADD PUSH1 0x0 KECCAK256 DUP1 SLOAD DUP1 PUSH1 0x20 MUL PUSH1 0x20 ADD PUSH1 0x40 MLOAD SWAP1 DUP2 ADD PUSH1 0x40 MSTORE DUP1 SWAP3 SWAP2 SWAP1 DUP2 DUP2 MSTORE PUSH1 0x20 ADD PUSH1 0x0 SWAP1 JUMPDEST DUP3 DUP3 LT ISZERO PUSH2 0x294C JUMPI DUP4 DUP3 SWAP1 PUSH1 0x0 MSTORE PUSH1 0x20 PUSH1 0x0 KECCAK256 ADD DUP1 SLOAD PUSH2 0x43CE SWAP1 PUSH2 0x5388 JUMP JUMPDEST DUP1 PUSH1 0x1F ADD PUSH1 0x20 DUP1 SWAP2 DIV MUL PUSH1 0x20 ADD PUSH1 0x40 MLOAD SWAP1 DUP2 ADD PUSH1 0x40 MSTORE DUP1 SWAP3 SWAP2 SWAP1 DUP2 DUP2 MSTORE PUSH1 0x20 ADD DUP3 DUP1 SLOAD PUSH2 0x43FA SWAP1 PUSH2 0x5388 JUMP JUMPDEST DUP1 ISZERO PUSH2 0x4447 JUMPI DUP1 PUSH1 0x1F LT PUSH2 0x441C JUMPI PUSH2 0x100 DUP1 DUP4 SLOAD DIV MUL DUP4 MSTORE SWAP2 PUSH1 0x20 ADD SWAP2 PUSH2 0x4447 JUMP JUMPDEST DUP3 ADD SWAP2 SWAP1 PUSH1 0x0 MSTORE PUSH1 0x20 PUSH1 0x0 KECCAK256 SWAP1 JUMPDEST DUP2 SLOAD DUP2 MSTORE SWAP1 PUSH1 0x1 ADD SWAP1 PUSH1 0x20 ADD DUP1 DUP4 GT PUSH2 0x442A JUMPI DUP3 SWAP1 SUB PUSH1 0x1F AND DUP3 ADD SWAP2 JUMPDEST POP POP POP POP POP DUP2 MSTORE PUSH1 0x20 ADD SWAP1 PUSH1 0x1 ADD SWAP1 PUSH2 0x43AF JUMP JUMPDEST ISZERO JUMPDEST DUP1 ISZERO PUSH2 0x447A JUMPI POP PUSH2 0x100 DUP4 ADD MLOAD PUSH2 0x4477 SWAP1 PUSH3 0x15180 PUSH2 0x54A5 JUMP JUMPDEST DUP3 LT JUMPDEST PUSH2 0x4496 JUMPI PUSH1 0x40 MLOAD PUSH3 0x461BCD PUSH1 0xE5 SHL DUP2 MSTORE PUSH1 0x4 ADD PUSH2 0x54D SWAP1 PUSH2 0x54C4 JUMP JUMPDEST PUSH2 0x1111 DUP8 DUP8 PUSH2 0x4989 JUMP JUMPDEST PUSH1 0x0 SLOAD PUSH2 0x100 SWAP1 DIV PUSH1 0xFF AND PUSH2 0x44C7 JUMPI PUSH1 0x40 MLOAD PUSH3 0x461BCD PUSH1 0xE5 SHL DUP2 MSTORE PUSH1 0x4 ADD PUSH2 0x54D SWAP1 PUSH2 0x54FB JUMP JUMPDEST PUSH2 0x3E8 PUSH1 0x66 SSTORE PUSH2 0x44D5 PUSH2 0x4A95 JUMP JUMPDEST PUSH2 0x44DD PUSH2 0x4D26 JUMP JUMPDEST PUSH1 0x33 SLOAD PUSH1 0x65 DUP1 SLOAD PUSH1 0x1 PUSH1 0x1 PUSH1 0xA0 SHL SUB NOT AND PUSH1 0x1 PUSH1 0x1 PUSH1 0xA0 SHL SUB SWAP1 SWAP3 AND SWAP2 SWAP1 SWAP2 OR SWAP1 SSTORE JUMP JUMPDEST PUSH2 0x120 DUP2 ADD MLOAD PUSH1 0x1 PUSH1 0x1 PUSH1 0xA0 SHL SUB SWAP1 DUP2 AND PUSH1 0x0 SWAP1 DUP2 MSTORE PUSH1 0x72 PUSH1 0x20 MSTORE PUSH1 0x40 DUP1 DUP3 KECCAK256 PUSH1 0x3 SWAP1 DUP2 ADD SLOAD SWAP4 DUP7 AND DUP4 MSTORE SWAP1 DUP3 KECCAK256 ADD SLOAD SWAP1 SWAP2 SWAP1 PUSH2 0x453F SWAP1 PUSH1 0x1 PUSH2 0x547A JUMP JUMPDEST GT ISZERO PUSH2 0x4562 JUMPI PUSH1 0x1 PUSH1 0x1 PUSH1 0xA0 SHL SUB DUP4 AND PUSH2 0x120 DUP4 ADD MSTORE PUSH1 0x0 PUSH2 0x140 DUP4 ADD MSTORE PUSH2 0x45AB JUMP JUMPDEST PUSH2 0x120 DUP3 ADD MLOAD PUSH1 0x1 PUSH1 0x1 PUSH1 0xA0 SHL SUB SWAP1 DUP2 AND PUSH1 0x0 SWAP1 DUP2 MSTORE PUSH1 0x72 PUSH1 0x20 MSTORE PUSH1 0x40 DUP1 DUP3 KECCAK256 PUSH1 0x3 SWAP1 DUP2 ADD SLOAD SWAP4 DUP8 AND DUP4 MSTORE SWAP2 KECCAK256 ADD SLOAD PUSH2 0x459C SWAP1 PUSH1 0x1 PUSH2 0x547A JUMP JUMPDEST EQ ISZERO PUSH2 0x45AB JUMPI PUSH1 0x1 PUSH2 0x140 DUP4 ADD MSTORE JUMPDEST POP PUSH2 0x140 ADD MLOAD SWAP2 SWAP1 POP JUMP JUMPDEST PUSH1 0x1 PUSH1 0x1 PUSH1 0xA0 SHL SUB DUP2 AND PUSH1 0x0 SWAP1 DUP2 MSTORE PUSH1 0x72 PUSH1 0x20 MSTORE PUSH1 0x40 DUP2 KECCAK256 PUSH1 0x3 ADD DUP1 SLOAD SWAP2 PUSH2 0x45DD DUP4 PUSH2 0x545F JUMP JUMPDEST SWAP1 SWAP2 SSTORE POP POP CALLER PUSH1 0x0 SWAP1 DUP2 MSTORE PUSH1 0x73 PUSH1 0x20 MSTORE PUSH1 0x40 DUP1 DUP3 KECCAK256 PUSH1 0x3 ADD DUP1 SLOAD PUSH3 0xFF0000 NOT AND PUSH3 0x10000 OR SWAP1 SSTORE MLOAD PUSH1 0x1 PUSH1 0x1 PUSH1 0xA0 SHL SUB DUP4 AND SWAP2 PUSH32 0xAEC2CCAE8681FD01AD220ECB7E9B5F7D485B1CC3CC01599ACB1578016B30A6BD SWAP2 LOG2 POP JUMP JUMPDEST PUSH1 0x0 PUSH1 0x6F DUP3 PUSH1 0x40 MLOAD PUSH2 0x4648 SWAP2 SWAP1 PUSH2 0x536C JUMP JUMPDEST SWAP1 DUP2 MSTORE PUSH1 0x20 ADD PUSH1 0x40 MLOAD DUP1 SWAP2 SUB SWAP1 KECCAK256 SWAP1 POP PUSH1 0x71 DUP3 PUSH1 0x40 MLOAD PUSH2 0x4668 SWAP2 SWAP1 PUSH2 0x536C JUMP JUMPDEST SWAP1 DUP2 MSTORE PUSH1 0x40 DUP1 MLOAD PUSH1 0x20 SWAP3 DUP2 SWAP1 SUB DUP4 ADD DUP2 KECCAK256 DUP1 SLOAD PUSH1 0x1 DUP2 ADD DUP3 SSTORE PUSH1 0x0 SWAP2 DUP3 MSTORE DUP5 DUP3 KECCAK256 ADD DUP1 SLOAD CALLER PUSH1 0x1 PUSH1 0x1 PUSH1 0xA0 SHL SUB NOT SWAP1 SWAP2 AND OR SWAP1 SSTORE SWAP3 DUP2 ADD DUP7 SWAP1 MSTORE ADD PUSH1 0x40 DUP1 MLOAD DUP1 DUP4 SUB PUSH1 0x1F NOT ADD DUP2 MSTORE DUP3 DUP3 MSTORE DUP1 MLOAD PUSH1 0x20 SWAP2 DUP3 ADD KECCAK256 PUSH1 0xE0 DUP5 ADD DUP4 MSTORE PUSH1 0x4 DUP7 ADD SLOAD DUP5 MSTORE CALLER DUP3 DUP6 ADD DUP2 DUP2 MSTORE DUP6 DUP6 ADD DUP10 DUP2 MSTORE PUSH1 0x1 PUSH1 0x60 DUP9 ADD DUP2 SWAP1 MSTORE PUSH1 0x80 DUP9 ADD DUP2 SWAP1 MSTORE PUSH1 0x0 PUSH1 0xA0 DUP10 ADD DUP2 SWAP1 MSTORE PUSH1 0xC0 DUP10 ADD DUP7 SWAP1 MSTORE SWAP4 DUP5 MSTORE PUSH1 0x73 DUP7 MSTORE SWAP6 SWAP1 SWAP3 KECCAK256 DUP7 MLOAD DUP2 SSTORE SWAP1 MLOAD SWAP5 DUP2 ADD DUP1 SLOAD PUSH1 0x1 PUSH1 0x1 PUSH1 0xA0 SHL SUB NOT AND PUSH1 0x1 PUSH1 0x1 PUSH1 0xA0 SHL SUB SWAP1 SWAP7 AND SWAP6 SWAP1 SWAP6 OR SWAP1 SWAP5 SSTORE MLOAD DUP1 MLOAD SWAP2 SWAP6 POP DUP5 SWAP4 SWAP3 PUSH2 0x4742 SWAP3 PUSH1 0x2 DUP6 ADD SWAP3 SWAP1 SWAP2 ADD SWAP1 PUSH2 0x4D80 JUMP JUMPDEST POP PUSH1 0x60 DUP3 ADD MLOAD PUSH1 0x3 DUP3 ADD DUP1 SLOAD PUSH1 0x80 DUP6 ADD MLOAD PUSH1 0xA0 DUP7 ADD MLOAD PUSH2 0xFFFF NOT SWAP1 SWAP3 AND SWAP4 ISZERO ISZERO PUSH2 0xFF00 NOT AND SWAP4 SWAP1 SWAP4 OR PUSH2 0x100 SWAP4 ISZERO ISZERO SWAP4 SWAP1 SWAP4 MUL SWAP3 SWAP1 SWAP3 OR PUSH3 0xFF0000 NOT AND PUSH3 0x10000 SWAP3 ISZERO ISZERO SWAP3 SWAP1 SWAP3 MUL SWAP2 SWAP1 SWAP2 OR SWAP1 SSTORE PUSH1 0xC0 SWAP1 SWAP2 ADD MLOAD PUSH1 0x4 SWAP1 SWAP2 ADD SSTORE PUSH1 0x69 DUP1 SLOAD PUSH1 0x1 DUP2 ADD DUP3 SSTORE PUSH1 0x0 SWAP2 SWAP1 SWAP2 MSTORE DUP2 MLOAD PUSH32 0x7FB4302E8E91F9110A6554C2C0A24601252C2A42C2220CA988EFCFE399914308 PUSH1 0x5 SWAP1 SWAP3 MUL SWAP2 DUP3 ADD SWAP1 DUP2 SSTORE PUSH1 0x20 DUP1 DUP5 ADD MLOAD PUSH32 0x7FB4302E8E91F9110A6554C2C0A24601252C2A42C2220CA988EFCFE399914309 DUP5 ADD DUP1 SLOAD PUSH1 0x1 PUSH1 0x1 PUSH1 0xA0 SHL SUB NOT AND PUSH1 0x1 PUSH1 0x1 PUSH1 0xA0 SHL SUB SWAP1 SWAP3 AND SWAP2 SWAP1 SWAP2 OR SWAP1 SSTORE PUSH1 0x40 DUP5 ADD MLOAD DUP1 MLOAD DUP6 SWAP5 PUSH2 0x4859 SWAP4 PUSH32 0x7FB4302E8E91F9110A6554C2C0A24601252C2A42C2220CA988EFCFE39991430A SWAP1 SWAP2 ADD SWAP3 ADD SWAP1 PUSH2 0x4D80 JUMP JUMPDEST POP PUSH1 0x60 DUP3 ADD MLOAD PUSH1 0x3 DUP3 ADD DUP1 SLOAD PUSH1 0x80 DUP6 ADD MLOAD PUSH1 0xA0 DUP7 ADD MLOAD ISZERO ISZERO PUSH3 0x10000 MUL PUSH3 0xFF0000 NOT SWAP2 ISZERO ISZERO PUSH2 0x100 MUL PUSH2 0xFF00 NOT SWAP6 ISZERO ISZERO SWAP6 SWAP1 SWAP6 AND PUSH2 0xFFFF NOT SWAP1 SWAP4 AND SWAP3 SWAP1 SWAP3 OR SWAP4 SWAP1 SWAP4 OR SWAP3 SWAP1 SWAP3 AND SWAP2 SWAP1 SWAP2 OR SWAP1 SSTORE PUSH1 0xC0 SWAP1 SWAP2 ADD MLOAD PUSH1 0x4 SWAP1 SWAP2 ADD SSTORE PUSH1 0x40 MLOAD PUSH1 0x6F SWAP1 PUSH2 0x48C3 SWAP1 DUP7 SWAP1 PUSH2 0x536C JUMP JUMPDEST SWAP1 DUP2 MSTORE PUSH1 0x40 MLOAD SWAP1 DUP2 SWAP1 SUB PUSH1 0x20 ADD SWAP1 KECCAK256 PUSH1 0x4 ADD DUP1 SLOAD SWAP1 PUSH1 0x0 PUSH2 0x48E3 DUP4 PUSH2 0x545F JUMP JUMPDEST SWAP1 SWAP2 SSTORE POP POP CALLER PUSH1 0x0 SWAP1 DUP2 MSTORE PUSH1 0x74 PUSH1 0x20 SWAP1 DUP2 MSTORE PUSH1 0x40 DUP3 KECCAK256 DUP1 SLOAD PUSH1 0x1 DUP2 ADD DUP3 SSTORE SWAP1 DUP4 MSTORE SWAP2 DUP2 SWAP1 KECCAK256 DUP7 MLOAD PUSH2 0x491B SWAP4 SWAP2 SWAP1 SWAP2 ADD SWAP2 DUP8 ADD SWAP1 PUSH2 0x4D80 JUMP JUMPDEST POP PUSH1 0x0 DUP6 DUP2 MSTORE PUSH1 0x76 PUSH1 0x20 SWAP1 DUP2 MSTORE PUSH1 0x40 DUP3 KECCAK256 DUP1 SLOAD PUSH1 0x1 DUP2 ADD DUP3 SSTORE SWAP1 DUP4 MSTORE SWAP2 DUP2 SWAP1 KECCAK256 DUP7 MLOAD PUSH2 0x494E SWAP4 SWAP2 SWAP1 SWAP2 ADD SWAP2 DUP8 ADD SWAP1 PUSH2 0x4D80 JUMP JUMPDEST POP PUSH1 0x40 MLOAD DUP3 DUP2 MSTORE PUSH32 0xD850A8248DF1456F35B1B26DB099385CB363335BB60A8E99294BC10124267871 SWAP1 PUSH1 0x20 ADD PUSH1 0x40 MLOAD DUP1 SWAP2 SUB SWAP1 LOG1 POP POP POP POP POP JUMP JUMPDEST PUSH1 0x0 PUSH1 0x6F DUP3 PUSH1 0x40 MLOAD PUSH2 0x499B SWAP2 SWAP1 PUSH2 0x536C JUMP JUMPDEST SWAP1 DUP2 MSTORE PUSH1 0x20 ADD PUSH1 0x40 MLOAD DUP1 SWAP2 SUB SWAP1 KECCAK256 SWAP1 POP PUSH1 0x71 DUP3 PUSH1 0x40 MLOAD PUSH2 0x49BB SWAP2 SWAP1 PUSH2 0x536C JUMP JUMPDEST SWAP1 DUP2 MSTORE PUSH1 0x40 DUP1 MLOAD PUSH1 0x20 SWAP3 DUP2 SWAP1 SUB DUP4 ADD DUP2 KECCAK256 DUP1 SLOAD PUSH1 0x1 DUP2 ADD DUP3 SSTORE PUSH1 0x0 SWAP2 DUP3 MSTORE DUP5 DUP3 KECCAK256 ADD DUP1 SLOAD CALLER PUSH1 0x1 PUSH1 0x1 PUSH1 0xA0 SHL SUB NOT SWAP1 SWAP2 AND OR SWAP1 SSTORE SWAP3 DUP2 ADD DUP7 SWAP1 MSTORE ADD PUSH1 0x40 DUP1 MLOAD DUP1 DUP4 SUB PUSH1 0x1F NOT ADD DUP2 MSTORE DUP3 DUP3 MSTORE DUP1 MLOAD PUSH1 0x20 SWAP2 DUP3 ADD KECCAK256 PUSH1 0xE0 DUP5 ADD DUP4 MSTORE PUSH1 0x4 DUP7 ADD SLOAD DUP5 MSTORE CALLER DUP3 DUP6 ADD DUP2 DUP2 MSTORE DUP6 DUP6 ADD DUP10 DUP2 MSTORE PUSH1 0x1 PUSH1 0x60 DUP9 ADD DUP2 SWAP1 MSTORE PUSH1 0x0 PUSH1 0x80 DUP10 ADD DUP2 SWAP1 MSTORE PUSH1 0xA0 DUP10 ADD DUP2 SWAP1 MSTORE PUSH1 0xC0 DUP10 ADD DUP7 SWAP1 MSTORE SWAP4 DUP5 MSTORE PUSH1 0x73 DUP7 MSTORE SWAP6 SWAP1 SWAP3 KECCAK256 DUP7 MLOAD DUP2 SSTORE SWAP1 MLOAD SWAP5 DUP2 ADD DUP1 SLOAD PUSH1 0x1 PUSH1 0x1 PUSH1 0xA0 SHL SUB NOT AND PUSH1 0x1 PUSH1 0x1 PUSH1 0xA0 SHL SUB SWAP1 SWAP7 AND SWAP6 SWAP1 SWAP6 OR SWAP1 SWAP5 SSTORE MLOAD DUP1 MLOAD SWAP2 SWAP6 POP DUP5 SWAP4 SWAP3 PUSH2 0x4742 SWAP3 PUSH1 0x2 DUP6 ADD SWAP3 SWAP1 SWAP2 ADD SWAP1 PUSH2 0x4D80 JUMP JUMPDEST PUSH1 0x40 DUP1 MLOAD DUP1 DUP3 ADD SWAP1 SWAP2 MSTORE PUSH1 0x9 DUP2 MSTORE PUSH9 0x6F70656E2D66726565 PUSH1 0xB8 SHL PUSH1 0x20 DUP1 DUP4 ADD SWAP2 DUP3 MSTORE PUSH1 0x0 DUP1 MSTORE PUSH1 0x67 SWAP1 MSTORE SWAP1 MLOAD PUSH2 0x4AED SWAP2 PUSH32 0xD4E1AC8B62C3FF1E2C1B7113742533B8310CE5AB8A8767EAD9BA8B250C7E3CC9 SWAP2 PUSH2 0x4D80 JUMP JUMPDEST POP PUSH1 0x40 DUP1 MLOAD DUP1 DUP3 ADD SWAP1 SWAP2 MSTORE PUSH1 0xB DUP2 MSTORE PUSH11 0x636C6F7365642D66726565 PUSH1 0xA8 SHL PUSH1 0x20 DUP1 DUP4 ADD SWAP2 DUP3 MSTORE PUSH1 0x1 PUSH1 0x0 MSTORE PUSH1 0x67 SWAP1 MSTORE SWAP1 MLOAD PUSH2 0x4B49 SWAP2 PUSH32 0x6BEE784EFEB983674392298AB585B22866BEDF00EBB0EEA949D1E66F3F50E71D SWAP2 PUSH2 0x4D80 JUMP JUMPDEST POP PUSH1 0x40 DUP1 MLOAD DUP1 DUP3 ADD SWAP1 SWAP2 MSTORE PUSH1 0x9 DUP2 MSTORE PUSH9 0x1BDC195B8B5C185A59 PUSH1 0xBA SHL PUSH1 0x20 DUP1 DUP4 ADD SWAP2 DUP3 MSTORE PUSH1 0x2 PUSH1 0x0 MSTORE PUSH1 0x67 SWAP1 MSTORE SWAP1 MLOAD PUSH2 0x4BA3 SWAP2 PUSH32 0x34A128FF2438BCCB68124DE780EA45BE60ACA78C6FB6CE114324EE2DD88C546D SWAP2 PUSH2 0x4D80 JUMP JUMPDEST POP PUSH1 0x40 DUP1 MLOAD DUP1 DUP3 ADD SWAP1 SWAP2 MSTORE PUSH1 0xB DUP2 MSTORE PUSH11 0x18DB1BDCD9590B5C185A59 PUSH1 0xAA SHL PUSH1 0x20 DUP1 DUP4 ADD SWAP2 DUP3 MSTORE PUSH1 0x3 PUSH1 0x0 MSTORE PUSH1 0x67 SWAP1 MSTORE SWAP1 MLOAD PUSH2 0x4BFF SWAP2 PUSH32 0x8C1C91810985109892A55558A5891C2831CD29DC314F55DACA604B52719F9F36 SWAP2 PUSH2 0x4D80 JUMP JUMPDEST POP PUSH1 0x40 DUP1 MLOAD DUP1 DUP3 ADD SWAP1 SWAP2 MSTORE PUSH1 0x12 DUP2 MSTORE PUSH18 0x18DB1BDCD9590B599C99594B5CD958DC995D PUSH1 0x72 SHL PUSH1 0x20 DUP1 DUP4 ADD SWAP2 DUP3 MSTORE PUSH1 0x4 PUSH1 0x0 MSTORE PUSH1 0x67 SWAP1 MSTORE SWAP1 MLOAD PUSH2 0x4C62 SWAP2 PUSH32 0x4813066CC9BC2FFB2908859373A01B2BDF685062DF07D3BBC2275A773C101414 SWAP2 PUSH2 0x4D80 JUMP JUMPDEST POP PUSH1 0x40 DUP1 MLOAD DUP1 DUP3 ADD SWAP1 SWAP2 MSTORE PUSH1 0x10 DUP2 MSTORE PUSH16 0x1BDC195B8B5C185A590B5CD958DC995D PUSH1 0x82 SHL PUSH1 0x20 DUP1 DUP4 ADD SWAP2 DUP3 MSTORE PUSH1 0x5 PUSH1 0x0 MSTORE PUSH1 0x67 SWAP1 MSTORE SWAP1 MLOAD PUSH2 0x4CC3 SWAP2 PUSH32 0x2D7518069FFE0DD7E7AB74F326D370E23A25560D4B83756E518197D858C5A393 SWAP2 PUSH2 0x4D80 JUMP JUMPDEST POP PUSH1 0x40 DUP1 MLOAD DUP1 DUP3 ADD SWAP1 SWAP2 MSTORE PUSH1 0x12 DUP2 MSTORE PUSH18 0x18DB1BDCD9590B5C185A590B5CD958DC995D PUSH1 0x72 SHL PUSH1 0x20 DUP1 DUP4 ADD SWAP2 DUP3 MSTORE PUSH1 0x6 PUSH1 0x0 MSTORE PUSH1 0x67 SWAP1 MSTORE SWAP1 MLOAD PUSH2 0x18D2 SWAP2 PUSH32 0xAD91BDF316595464714A4F9B2538304767DDB9763115D960EFC5CDDCA3D04EA7 SWAP2 PUSH2 0x4D80 JUMP JUMPDEST PUSH1 0x0 SLOAD PUSH2 0x100 SWAP1 DIV PUSH1 0xFF AND PUSH2 0x4D4D JUMPI PUSH1 0x40 MLOAD PUSH3 0x461BCD PUSH1 0xE5 SHL DUP2 MSTORE PUSH1 0x4 ADD PUSH2 0x54D SWAP1 PUSH2 0x54FB JUMP JUMPDEST PUSH2 0x2149 PUSH1 0x0 SLOAD PUSH2 0x100 SWAP1 DIV PUSH1 0xFF AND PUSH2 0x4D77 JUMPI PUSH1 0x40 MLOAD PUSH3 0x461BCD PUSH1 0xE5 SHL DUP2 MSTORE PUSH1 0x4 ADD PUSH2 0x54D SWAP1 PUSH2 0x54FB JUMP JUMPDEST PUSH2 0x2149 CALLER PUSH2 0x3C1A JUMP JUMPDEST DUP3 DUP1 SLOAD PUSH2 0x4D8C SWAP1 PUSH2 0x5388 JUMP JUMPDEST SWAP1 PUSH1 0x0 MSTORE PUSH1 0x20 PUSH1 0x0 KECCAK256 SWAP1 PUSH1 0x1F ADD PUSH1 0x20 SWAP1 DIV DUP2 ADD SWAP3 DUP3 PUSH2 0x4DAE JUMPI PUSH1 0x0 DUP6 SSTORE PUSH2 0x4DF4 JUMP JUMPDEST DUP3 PUSH1 0x1F LT PUSH2 0x4DC7 JUMPI DUP1 MLOAD PUSH1 0xFF NOT AND DUP4 DUP1 ADD OR DUP6 SSTORE PUSH2 0x4DF4 JUMP JUMPDEST DUP3 DUP1 ADD PUSH1 0x1 ADD DUP6 SSTORE DUP3 ISZERO PUSH2 0x4DF4 JUMPI SWAP2 DUP3 ADD JUMPDEST DUP3 DUP2 GT ISZERO PUSH2 0x4DF4 JUMPI DUP3 MLOAD DUP3 SSTORE SWAP2 PUSH1 0x20 ADD SWAP2 SWAP1 PUSH1 0x1 ADD SWAP1 PUSH2 0x4DD9 JUMP JUMPDEST POP PUSH2 0x4E00 SWAP3 SWAP2 POP PUSH2 0x4E59 JUMP JUMPDEST POP SWAP1 JUMP JUMPDEST DUP3 DUP1 SLOAD DUP3 DUP3 SSTORE SWAP1 PUSH1 0x0 MSTORE PUSH1 0x20 PUSH1 0x0 KECCAK256 SWAP1 DUP2 ADD SWAP3 DUP3 ISZERO PUSH2 0x4DF4 JUMPI SWAP2 PUSH1 0x20 MUL DUP3 ADD JUMPDEST DUP3 DUP2 GT ISZERO PUSH2 0x4DF4 JUMPI DUP3 MLOAD DUP3 SLOAD PUSH1 0x1 PUSH1 0x1 PUSH1 0xA0 SHL SUB NOT AND PUSH1 0x1 PUSH1 0x1 PUSH1 0xA0 SHL SUB SWAP1 SWAP2 AND OR DUP3 SSTORE PUSH1 0x20 SWAP1 SWAP3 ADD SWAP2 PUSH1 0x1 SWAP1 SWAP2 ADD SWAP1 PUSH2 0x4E24 JUMP JUMPDEST JUMPDEST DUP1 DUP3 GT ISZERO PUSH2 0x4E00 JUMPI PUSH1 0x0 DUP2 SSTORE PUSH1 0x1 ADD PUSH2 0x4E5A JUMP JUMPDEST PUSH4 0x4E487B71 PUSH1 0xE0 SHL PUSH1 0x0 MSTORE PUSH1 0x41 PUSH1 0x4 MSTORE PUSH1 0x24 PUSH1 0x0 REVERT JUMPDEST PUSH1 0x40 MLOAD PUSH1 0x1F DUP3 ADD PUSH1 0x1F NOT AND DUP2 ADD PUSH8 0xFFFFFFFFFFFFFFFF DUP2 GT DUP3 DUP3 LT OR ISZERO PUSH2 0x4EAD JUMPI PUSH2 0x4EAD PUSH2 0x4E6E JUMP JUMPDEST PUSH1 0x40 MSTORE SWAP2 SWAP1 POP JUMP JUMPDEST PUSH1 0x0 DUP3 PUSH1 0x1F DUP4 ADD SLT PUSH2 0x4EC6 JUMPI PUSH1 0x0 DUP1 REVERT JUMPDEST DUP2 CALLDATALOAD PUSH8 0xFFFFFFFFFFFFFFFF DUP2 GT ISZERO PUSH2 0x4EE0 JUMPI PUSH2 0x4EE0 PUSH2 0x4E6E JUMP JUMPDEST PUSH2 0x4EF3 PUSH1 0x1F DUP3 ADD PUSH1 0x1F NOT AND PUSH1 0x20 ADD PUSH2 0x4E84 JUMP JUMPDEST DUP2 DUP2 MSTORE DUP5 PUSH1 0x20 DUP4 DUP7 ADD ADD GT ISZERO PUSH2 0x4F08 JUMPI PUSH1 0x0 DUP1 REVERT JUMPDEST DUP2 PUSH1 0x20 DUP6 ADD PUSH1 0x20 DUP4 ADD CALLDATACOPY PUSH1 0x0 SWAP2 DUP2 ADD PUSH1 0x20 ADD SWAP2 SWAP1 SWAP2 MSTORE SWAP4 SWAP3 POP POP POP JUMP JUMPDEST PUSH1 0x0 PUSH1 0x20 DUP3 DUP5 SUB SLT ISZERO PUSH2 0x4F37 JUMPI PUSH1 0x0 DUP1 REVERT JUMPDEST DUP2 CALLDATALOAD PUSH8 0xFFFFFFFFFFFFFFFF DUP2 GT ISZERO PUSH2 0x4F4E JUMPI PUSH1 0x0 DUP1 REVERT JUMPDEST PUSH2 0x4F5A DUP5 DUP3 DUP6 ADD PUSH2 0x4EB5 JUMP JUMPDEST SWAP5 SWAP4 POP POP POP POP JUMP JUMPDEST PUSH1 0x20 DUP1 DUP3 MSTORE DUP3 MLOAD DUP3 DUP3 ADD DUP2 SWAP1 MSTORE PUSH1 0x0 SWAP2 SWAP1 DUP5 DUP3 ADD SWAP1 PUSH1 0x40 DUP6 ADD SWAP1 DUP5 JUMPDEST DUP2 DUP2 LT ISZERO PUSH2 0x4FA3 JUMPI DUP4 MLOAD PUSH1 0x1 PUSH1 0x1 PUSH1 0xA0 SHL SUB AND DUP4 MSTORE SWAP3 DUP5 ADD SWAP3 SWAP2 DUP5 ADD SWAP2 PUSH1 0x1 ADD PUSH2 0x4F7E JUMP JUMPDEST POP SWAP1 SWAP7 SWAP6 POP POP POP POP POP POP JUMP JUMPDEST DUP1 CALLDATALOAD PUSH1 0x1 PUSH1 0x1 PUSH1 0xA0 SHL SUB DUP2 AND DUP2 EQ PUSH2 0x4FC6 JUMPI PUSH1 0x0 DUP1 REVERT JUMPDEST SWAP2 SWAP1 POP JUMP JUMPDEST PUSH1 0x0 DUP1 PUSH1 0x40 DUP4 DUP6 SUB SLT ISZERO PUSH2 0x4FDE JUMPI PUSH1 0x0 DUP1 REVERT JUMPDEST PUSH2 0x4FE7 DUP4 PUSH2 0x4FAF JUMP JUMPDEST SWAP2 POP PUSH1 0x20 DUP4 ADD CALLDATALOAD PUSH8 0xFFFFFFFFFFFFFFFF DUP2 GT ISZERO PUSH2 0x5003 JUMPI PUSH1 0x0 DUP1 REVERT JUMPDEST PUSH2 0x500F DUP6 DUP3 DUP7 ADD PUSH2 0x4EB5 JUMP JUMPDEST SWAP2 POP POP SWAP3 POP SWAP3 SWAP1 POP JUMP JUMPDEST PUSH1 0x0 JUMPDEST DUP4 DUP2 LT ISZERO PUSH2 0x5034 JUMPI DUP2 DUP2 ADD MLOAD DUP4 DUP3 ADD MSTORE PUSH1 0x20 ADD PUSH2 0x501C JUMP JUMPDEST DUP4 DUP2 GT ISZERO PUSH2 0x5043 JUMPI PUSH1 0x0 DUP5 DUP5 ADD MSTORE JUMPDEST POP POP POP POP JUMP JUMPDEST PUSH1 0x0 DUP2 MLOAD DUP1 DUP5 MSTORE PUSH2 0x5061 DUP2 PUSH1 0x20 DUP7 ADD PUSH1 0x20 DUP7 ADD PUSH2 0x5019 JUMP JUMPDEST PUSH1 0x1F ADD PUSH1 0x1F NOT AND SWAP3 SWAP1 SWAP3 ADD PUSH1 0x20 ADD SWAP3 SWAP2 POP POP JUMP JUMPDEST PUSH1 0x20 DUP2 MSTORE DUP2 MLOAD PUSH1 0x20 DUP3 ADD MSTORE PUSH1 0x1 DUP1 PUSH1 0xA0 SHL SUB PUSH1 0x20 DUP4 ADD MLOAD AND PUSH1 0x40 DUP3 ADD MSTORE PUSH1 0x0 PUSH1 0x40 DUP4 ADD MLOAD PUSH1 0xE0 PUSH1 0x60 DUP5 ADD MSTORE PUSH2 0x50AE PUSH2 0x100 DUP5 ADD DUP3 PUSH2 0x5049 JUMP JUMPDEST SWAP1 POP PUSH1 0x60 DUP5 ADD MLOAD ISZERO ISZERO PUSH1 0x80 DUP5 ADD MSTORE PUSH1 0x80 DUP5 ADD MLOAD ISZERO ISZERO PUSH1 0xA0 DUP5 ADD MSTORE PUSH1 0xA0 DUP5 ADD MLOAD ISZERO ISZERO PUSH1 0xC0 DUP5 ADD MSTORE PUSH1 0xC0 DUP5 ADD MLOAD PUSH1 0xE0 DUP5 ADD MSTORE DUP1 SWAP2 POP POP SWAP3 SWAP2 POP POP JUMP JUMPDEST PUSH1 0x20 DUP2 MSTORE PUSH1 0x0 DUP3 MLOAD PUSH2 0x160 DUP1 PUSH1 0x20 DUP6 ADD MSTORE PUSH2 0x5107 PUSH2 0x180 DUP6 ADD DUP4 PUSH2 0x5049 JUMP JUMPDEST SWAP2 POP PUSH1 0x20 DUP6 ADD MLOAD PUSH1 0x40 DUP6 ADD MSTORE PUSH1 0x40 DUP6 ADD MLOAD PUSH1 0x1F NOT DUP6 DUP5 SUB ADD PUSH1 0x60 DUP7 ADD MSTORE PUSH2 0x512E DUP4 DUP3 PUSH2 0x5049 JUMP JUMPDEST SWAP3 POP POP PUSH1 0x60 DUP6 ADD MLOAD PUSH2 0x514B PUSH1 0x80 DUP7 ADD DUP3 PUSH1 0x1 PUSH1 0x1 PUSH1 0xA0 SHL SUB AND SWAP1 MSTORE JUMP JUMPDEST POP PUSH1 0x80 DUP6 ADD MLOAD PUSH1 0xA0 DUP6 ADD MSTORE PUSH1 0xA0 DUP6 ADD MLOAD PUSH1 0xC0 DUP6 ADD MSTORE PUSH1 0xC0 DUP6 ADD MLOAD PUSH1 0xE0 DUP6 ADD MSTORE PUSH1 0xE0 DUP6 ADD MLOAD PUSH2 0x100 PUSH2 0x517F DUP2 DUP8 ADD DUP4 ISZERO ISZERO SWAP1 MSTORE JUMP JUMPDEST DUP7 ADD MLOAD PUSH2 0x120 DUP7 DUP2 ADD SWAP2 SWAP1 SWAP2 MSTORE DUP7 ADD MLOAD SWAP1 POP PUSH2 0x140 PUSH2 0x51A8 DUP2 DUP8 ADD DUP4 PUSH1 0x1 PUSH1 0x1 PUSH1 0xA0 SHL SUB AND SWAP1 MSTORE JUMP JUMPDEST SWAP1 SWAP6 ADD MLOAD ISZERO ISZERO SWAP4 ADD SWAP3 SWAP1 SWAP3 MSTORE POP SWAP2 SWAP1 POP JUMP JUMPDEST PUSH1 0x0 DUP1 PUSH1 0x0 DUP1 PUSH1 0x0 DUP1 PUSH1 0xC0 DUP8 DUP10 SUB SLT ISZERO PUSH2 0x51D3 JUMPI PUSH1 0x0 DUP1 REVERT JUMPDEST DUP7 CALLDATALOAD PUSH8 0xFFFFFFFFFFFFFFFF DUP1 DUP3 GT ISZERO PUSH2 0x51EB JUMPI PUSH1 0x0 DUP1 REVERT JUMPDEST PUSH2 0x51F7 DUP11 DUP4 DUP12 ADD PUSH2 0x4EB5 JUMP JUMPDEST SWAP8 POP PUSH1 0x20 SWAP2 POP DUP2 DUP10 ADD CALLDATALOAD DUP2 DUP2 GT ISZERO PUSH2 0x520E JUMPI PUSH1 0x0 DUP1 REVERT JUMPDEST PUSH2 0x521A DUP12 DUP3 DUP13 ADD PUSH2 0x4EB5 JUMP JUMPDEST SWAP8 POP POP PUSH1 0x40 DUP10 ADD CALLDATALOAD DUP2 DUP2 GT ISZERO PUSH2 0x522F JUMPI PUSH1 0x0 DUP1 REVERT JUMPDEST DUP10 ADD PUSH1 0x1F DUP2 ADD DUP12 SGT PUSH2 0x5240 JUMPI PUSH1 0x0 DUP1 REVERT JUMPDEST DUP1 CALLDATALOAD DUP3 DUP2 GT ISZERO PUSH2 0x5252 JUMPI PUSH2 0x5252 PUSH2 0x4E6E JUMP JUMPDEST DUP1 PUSH1 0x5 SHL SWAP3 POP PUSH2 0x5263 DUP5 DUP5 ADD PUSH2 0x4E84 JUMP JUMPDEST DUP2 DUP2 MSTORE SWAP3 DUP3 ADD DUP5 ADD SWAP3 DUP5 DUP2 ADD SWAP1 DUP14 DUP6 GT ISZERO PUSH2 0x527D JUMPI PUSH1 0x0 DUP1 REVERT JUMPDEST SWAP3 DUP6 ADD SWAP3 JUMPDEST DUP5 DUP5 LT ISZERO PUSH2 0x52A2 JUMPI PUSH2 0x5293 DUP5 PUSH2 0x4FAF JUMP JUMPDEST DUP3 MSTORE SWAP3 DUP6 ADD SWAP3 SWAP1 DUP6 ADD SWAP1 PUSH2 0x5282 JUMP JUMPDEST SWAP11 SWAP14 SWAP10 SWAP13 POP SWAP10 SWAP11 PUSH1 0x60 DUP2 ADD CALLDATALOAD SWAP11 POP PUSH1 0x80 DUP2 ADD CALLDATALOAD SWAP10 PUSH1 0xA0 SWAP1 SWAP2 ADD CALLDATALOAD SWAP9 POP SWAP7 POP POP POP POP POP POP POP JUMP JUMPDEST PUSH1 0x0 PUSH1 0x20 DUP3 DUP5 SUB SLT ISZERO PUSH2 0x52DA JUMPI PUSH1 0x0 DUP1 REVERT JUMPDEST PUSH2 0x52E3 DUP3 PUSH2 0x4FAF JUMP JUMPDEST SWAP4 SWAP3 POP POP POP JUMP JUMPDEST PUSH1 0x20 DUP2 MSTORE DUP2 MLOAD PUSH1 0x20 DUP3 ADD MSTORE PUSH1 0x0 PUSH1 0x20 DUP4 ADD MLOAD PUSH1 0x80 PUSH1 0x40 DUP5 ADD MSTORE PUSH2 0x5310 PUSH1 0xA0 DUP5 ADD DUP3 PUSH2 0x5049 JUMP JUMPDEST PUSH1 0x40 DUP6 ADD MLOAD PUSH1 0x1 PUSH1 0x1 PUSH1 0xA0 SHL SUB AND PUSH1 0x60 DUP6 DUP2 ADD SWAP2 SWAP1 SWAP2 MSTORE SWAP1 SWAP5 ADD MLOAD PUSH1 0x80 SWAP1 SWAP4 ADD SWAP3 SWAP1 SWAP3 MSTORE POP SWAP1 SWAP2 SWAP1 POP JUMP JUMPDEST PUSH1 0x0 DUP1 PUSH1 0x40 DUP4 DUP6 SUB SLT ISZERO PUSH2 0x534E JUMPI PUSH1 0x0 DUP1 REVERT JUMPDEST DUP3 CALLDATALOAD SWAP2 POP PUSH1 0x20 DUP4 ADD CALLDATALOAD PUSH8 0xFFFFFFFFFFFFFFFF DUP2 GT ISZERO PUSH2 0x5003 JUMPI PUSH1 0x0 DUP1 REVERT JUMPDEST PUSH1 0x0 DUP3 MLOAD PUSH2 0x537E DUP2 DUP5 PUSH1 0x20 DUP8 ADD PUSH2 0x5019 JUMP JUMPDEST SWAP2 SWAP1 SWAP2 ADD SWAP3 SWAP2 POP POP JUMP JUMPDEST PUSH1 0x1 DUP2 DUP2 SHR SWAP1 DUP3 AND DUP1 PUSH2 0x539C JUMPI PUSH1 0x7F DUP3 AND SWAP2 POP JUMPDEST PUSH1 0x20 DUP3 LT DUP2 EQ ISZERO PUSH2 0x53BD JUMPI PUSH4 0x4E487B71 PUSH1 0xE0 SHL PUSH1 0x0 MSTORE PUSH1 0x22 PUSH1 0x4 MSTORE PUSH1 0x24 PUSH1 0x0 REVERT JUMPDEST POP SWAP2 SWAP1 POP JUMP JUMPDEST PUSH1 0x20 DUP1 DUP3 MSTORE PUSH1 0x18 SWAP1 DUP3 ADD MSTORE PUSH32 0x546869732069732061205365637265742042616C6C6F74210000000000000000 PUSH1 0x40 DUP3 ADD MSTORE PUSH1 0x60 ADD SWAP1 JUMP JUMPDEST PUSH4 0x4E487B71 PUSH1 0xE0 SHL PUSH1 0x0 MSTORE PUSH1 0x11 PUSH1 0x4 MSTORE PUSH1 0x24 PUSH1 0x0 REVERT JUMPDEST PUSH1 0x0 DUP3 DUP3 LT ISZERO PUSH2 0x5422 JUMPI PUSH2 0x5422 PUSH2 0x53FA JUMP JUMPDEST POP SUB SWAP1 JUMP JUMPDEST PUSH1 0x0 DUP3 PUSH2 0x5444 JUMPI PUSH4 0x4E487B71 PUSH1 0xE0 SHL PUSH1 0x0 MSTORE PUSH1 0x12 PUSH1 0x4 MSTORE PUSH1 0x24 PUSH1 0x0 REVERT JUMPDEST POP DIV SWAP1 JUMP JUMPDEST PUSH4 0x4E487B71 PUSH1 0xE0 SHL PUSH1 0x0 MSTORE PUSH1 0x32 PUSH1 0x4 MSTORE PUSH1 0x24 PUSH1 0x0 REVERT JUMPDEST PUSH1 0x0 PUSH1 0x0 NOT DUP3 EQ ISZERO PUSH2 0x5473 JUMPI PUSH2 0x5473 PUSH2 0x53FA JUMP JUMPDEST POP PUSH1 0x1 ADD SWAP1 JUMP JUMPDEST PUSH1 0x0 DUP3 NOT DUP3 GT ISZERO PUSH2 0x548D JUMPI PUSH2 0x548D PUSH2 0x53FA JUMP JUMPDEST POP ADD SWAP1 JUMP JUMPDEST PUSH1 0x20 DUP2 MSTORE PUSH1 0x0 PUSH2 0x52E3 PUSH1 0x20 DUP4 ADD DUP5 PUSH2 0x5049 JUMP JUMPDEST PUSH1 0x0 DUP2 PUSH1 0x0 NOT DIV DUP4 GT DUP3 ISZERO ISZERO AND ISZERO PUSH2 0x54BF JUMPI PUSH2 0x54BF PUSH2 0x53FA JUMP JUMPDEST POP MUL SWAP1 JUMP JUMPDEST PUSH1 0x20 DUP1 DUP3 MSTORE PUSH1 0x1A SWAP1 DUP3 ADD MSTORE PUSH32 0x4572726F7220566F74657220526567697374726174696F6E2121000000000000 PUSH1 0x40 DUP3 ADD MSTORE PUSH1 0x60 ADD SWAP1 JUMP JUMPDEST PUSH1 0x20 DUP1 DUP3 MSTORE PUSH1 0x2B SWAP1 DUP3 ADD MSTORE PUSH32 0x496E697469616C697A61626C653A20636F6E7472616374206973206E6F742069 PUSH1 0x40 DUP3 ADD MSTORE PUSH11 0x6E697469616C697A696E67 PUSH1 0xA8 SHL PUSH1 0x60 DUP3 ADD MSTORE PUSH1 0x80 ADD SWAP1 JUMP INVALID LOG2 PUSH5 0x6970667358 0x22 SLT KECCAK256 0xB9 0xBA STOP BALANCE 0xDC 0xB0 AND GT 0xB3 MUL 0xA9 CALLVALUE DUP1 SHR PUSH25 0x7165672B5A4463D981E06C4B155D85032064736F6C63430008 ADDMOD STOP CALLER ","sha1":"b3dc958df938f7c2a38f9372071176c31583436f","source":"// SPDX-License-Identifier: UNLICENSED\n\npragma solidity 0.8.8;\n\nimport \"../interfaces/IJamiiFactory.sol\";\nimport \"./JamiiBase.sol\";\nimport \"./Utils.sol\";\n\ncontract JamiiFactory is IJamiiFactory, JamiiBase, Utils {\n    Ballot[] private ballots;\n    Voter[] private voters;\n\n    // numbers\n    // uint256 private ballot_fee = 340000000000000000; // $\n    uint256 private ballot_fee = 10000000000000000; // $\n    uint256 private ballot_count;\n    uint256[] private voter_ids;\n    uint256[] internal ballot_types_arr = [0, 1, 2, 3, 4];\n    uint256 internal ballot_types = ballot_types_arr.length;\n\n    // mappings\n    mapping(string => Ballot) private id_to_ballot_mapping;\n    mapping(string => address[]) private ballot_candidate_mapping;\n    mapping(string => address[]) private ballot_voters_mapping;\n    mapping(address => Candidate) private address_to_candidate_mapping;\n    mapping(address => Voter) private address_to_voter_mapping;\n    mapping(address => string[]) private voter_to_ballots;\n    mapping(address => string[]) private voted_to_ballots;\n    mapping(uint256 => string[]) private voter_id_to_ballots;\n\n    modifier only_voter(address _candidate, string memory _ballot_id) {\n        Ballot memory ballot = id_to_ballot_mapping[_ballot_id];\n        require(\n            address_to_voter_mapping[msg.sender].registered == true &&\n                !exists(voted_to_ballots[msg.sender], _ballot_id) &&\n                compare_strings(\n                    id_to_ballot_mapping[_ballot_id].ballot_id,\n                    _ballot_id\n                ) ==\n                true &&\n                ballot.expired == false &&\n                compare_strings(\n                    address_to_candidate_mapping[_candidate].ballot_id,\n                    _ballot_id\n                ) ==\n                true,\n            \"Voter Error!\"\n        );\n        // require(\n        //     address_to_voter_mapping[msg.sender].registered == true,\n        //     \"Please Register to Vote!\"\n        // );\n        // require(\n        //     !exists(voted_to_ballots[msg.sender], _ballot_id),\n        //     \"You already CAST your Vote in This Ballot!\"\n        // );\n        // require(compare_strings(id_to_ballot_mapping[_ballot_id].ballot_id, _ballot_id) == true, \"Invalid Ballot Id!\");\n        // require(ballot.expired == false, \"Ballot has Expired\");\n        // require(\n        //     compare_strings(address_to_candidate_mapping[_candidate].ballot_id, _ballot_id) == true,\n        //     \"Candidate does not exist in Ballot!\"\n        // );\n        _;\n    }\n\n    modifier only_voter_closed_ballots(\n        address _candidate,\n        string memory _ballot_id\n    ) {\n        Ballot memory ballot = id_to_ballot_mapping[_ballot_id];\n        Voter memory voter = address_to_voter_mapping[msg.sender];\n        require(\n            voter.rights == true &&\n                address_to_voter_mapping[msg.sender].registered == true &&\n                !exists(voted_to_ballots[msg.sender], _ballot_id) &&\n                compare_strings(\n                    id_to_ballot_mapping[_ballot_id].ballot_id,\n                    _ballot_id\n                ) ==\n                true &&\n                compare_strings(\n                    address_to_candidate_mapping[_candidate].ballot_id,\n                    _ballot_id\n                ) ==\n                true,\n            \"Voter Error(Closed Ballot)!\"\n        );\n        // require(voter.rights == true, \"No Voting Rights!\");\n        // require(\n        //     address_to_voter_mapping[msg.sender].registered == true,\n        //     \"Please Register to Vote!\"\n        // );\n        // require(\n        //     !exists(voted_to_ballots[msg.sender], _ballot_id),\n        //     \"You already CAST your Vote in This Ballot!\"\n        // );\n        // require(\n        //     compare_strings(id_to_ballot_mapping[_ballot_id].ballot_id, _ballot_id) == true,\n        //     \"Invalid Ballot Id!\"\n        // );\n        // require(ballot.expired == false, \"Ballot has Expired\");\n        // require(\n        //     compare_strings(address_to_candidate_mapping[_candidate].ballot_id, _ballot_id) == true,\n        //     \"Candidate does not exist in Ballot!\"\n        // );\n        _;\n    }\n\n    modifier only_secret_ballot(string memory _ballot_id) {\n        Ballot memory ballot = id_to_ballot_mapping[_ballot_id];\n        require(ballot.ballot_type < 4, \"This is a Secret Ballot!\");\n        _;\n    }\n\n    modifier only_register_voter(uint256 _id_number, string memory _ballot_id) {\n        Ballot memory ballot = id_to_ballot_mapping[_ballot_id];\n        uint256 duration = (block.timestamp - ballot.open_date);\n        uint256 n = ballots.length;\n        require(\n            n >= 1 &&\n                duration < (ballot._days * 86400) &&\n                !exists(voter_to_ballots[msg.sender], _ballot_id) &&\n                !exists(voter_id_to_ballots[_id_number], _ballot_id) &&\n                duration < (ballot.registration_window * 86400),\n            \"Error Voter Registration!!\"\n        );\n        // require(n >= 1, \"No such Ballot Exists!\");\n        // require(\n        //     ballot.ballot_id <= ballots[n - 1].ballot_id,\n        //     \"No such Ballot Exists!\"\n        // );\n        // require(duration < (ballot._days * 86400), \"This Ballot Expired!\");\n        // require(\n        //     !exists(voter_to_ballots[msg.sender], _ballot_id),\n        //     \"You are Registered in this Ballot!\"\n        // );\n        // require(\n        //     !exists(voter_id_to_ballots[_id_number], _ballot_id),\n        //     \"Your ID is Registered in this Ballot!\"\n        // );\n        // require(\n        //     (duration < (ballot.registration_window * 86400)),\n        //     \"Registration Period has Passed!\"\n        // );\n        _;\n    }\n\n    function initialize(string memory _arbitrary_text) public initializer {\n        JamiiBase.initialize();\n    }\n\n    function create_ballot_type(\n        uint256 _ballot_type,\n        string memory _ballot_name\n    ) public onlyOwner {\n        require(\n            _ballot_type > (ballot_types - 1) &&\n                _ballot_type < (ballot_types + 1),\n            \"Invalid Type Index!\"\n        );\n        ballot_types_arr.push(ballot_types + 1);\n        ballot_types_mapping[_ballot_type] = _ballot_name;\n    }\n\n    function create_ballot(\n        string memory _ballot_id,\n        string memory _ballot_name,\n        address[] memory _ballot_candidates_addr,\n        uint256 _ballot_type,\n        uint256 _days,\n        uint256 _registration_period\n    ) public payable {\n        bytes memory bytes_ballot_name = bytes(_ballot_name);\n        require(\n            msg.value >= ballot_fee &&\n                bytes_ballot_name.length > 0 &&\n                _ballot_candidates_addr.length > 1 &&\n                _ballot_type <= ballot_types &&\n                _days > _registration_period &&\n                _registration_period > 0,\n            \"Error Ballot Creation!\"\n        );\n        // require(msg.value >= ballot_fee, \"Insufficient funds!\");\n        // require(bytes_ballot_name.length > 0, \"Enter a valid Ballot Name!\");\n        // require(\n        //     _ballot_candidates_addr.length > 1,\n        //     \"Not Enough Ballot Candidates!\"\n        // );\n        // require(_ballot_type <= ballot_types, \"Not a valid Ballot Type!\");\n        // require(\n        //     _days > _registration_period,\n        //     \"Registration Period > Voting Days!\"\n        // );\n        // require(_registration_period > 0, \"Registration Period should be > 1!\");\n\n        ballot_candidate_mapping[_ballot_id] = _ballot_candidates_addr;\n\n        uint256 n = _ballot_candidates_addr.length;\n        for (uint256 i = 0; i < n; i++) {\n            Candidate memory candidate = Candidate(\n                candidates_count,\n                _ballot_id,\n                _ballot_candidates_addr[i],\n                0\n            );\n            address_to_candidate_mapping[\n                _ballot_candidates_addr[i]\n            ] = candidate;\n            candidates_count++;\n        }\n\n        Ballot memory new_ballot = Ballot(\n            _ballot_id,\n            _ballot_type,\n            _ballot_name,\n            msg.sender,\n            0,\n            block.timestamp,\n            _days,\n            false,\n            _registration_period,\n            address(0x0),\n            false\n        );\n        id_to_ballot_mapping[_ballot_id] = new_ballot;\n        ballots.push(new_ballot);\n        ballot_count++;\n\n        emit created_ballot(_ballot_type);\n    }\n\n    // createBallot(_ballot_candidates)\n    // ballot 0 -> [\"0xf9d48aC9eC8F207AEF93518B51D2CdA61e596904\", \"0x6c0A17AEe0a1420583446B77f0c8a55e369Bb07e\"]\n    // ballot 1 -> [\"0xa8d17cc9cAF29Af964d19267DDEb4dfF122697B0\",\"0xA0341558519429f6A93475bA53AD319f99302bff\"]\n    // ballot 2 -> [\"0x4A4eC531A0c952d76fdb0E1DC9561A893Cc3177c\", \"0xfA5C1650946124cB9ACBe478e6D37b5F6c1983D6\"]\n    // ballot 3 -> [\"0x7ffC57839B00206D1ad20c69A1981b489f772031\", \"0x8E9a9f198d9d6457339A11b05A214F9aa78dbc8b\"]\n    // ballot 4 -> [\"0xfA5C1650946124cB9ACBe478e6D37b5F6c1983D6\", \"0xfe3e6ab5d787f4099478bbe811a740d903e219fb\"]\n    // ballot 5 -> ballot 0\n    // ballot 6 -> ballot 1\n\n    /** REGISTERS VOTERS **/\n\n    function create_voter_open_ballot(\n        uint256 _id_number,\n        string memory _ballot_id\n    ) internal {\n        Ballot storage ballot = id_to_ballot_mapping[_ballot_id];\n\n        ballot_voters_mapping[_ballot_id].push(msg.sender);\n\n        // id_number validation here\n        bytes32 unique_voter_id = keccak256(abi.encode(_id_number));\n        Voter memory new_voter = Voter(\n            ballot.voters_count,\n            msg.sender,\n            _ballot_id,\n            true,\n            true,\n            false,\n            unique_voter_id\n        );\n        address_to_voter_mapping[msg.sender] = new_voter;\n        voters.push(new_voter);\n\n        id_to_ballot_mapping[_ballot_id].voters_count++;\n\n        voter_to_ballots[msg.sender].push(_ballot_id);\n        voter_id_to_ballots[_id_number].push(_ballot_id);\n\n        emit registered_voter(unique_voter_id);\n    }\n\n    function create_voter_closed_ballot(\n        uint256 _id_number,\n        string memory _ballot_id\n    ) internal {\n        Ballot storage ballot = id_to_ballot_mapping[_ballot_id];\n\n        ballot_voters_mapping[_ballot_id].push(msg.sender);\n\n        // id_number validation here\n        bytes32 unique_voter_id = keccak256(abi.encode(_id_number));\n\n        Voter memory new_voter = Voter(\n            ballot.voters_count,\n            msg.sender,\n            _ballot_id,\n            true,\n            false,\n            false,\n            unique_voter_id\n        );\n        address_to_voter_mapping[msg.sender] = new_voter;\n        voters.push(new_voter);\n\n        id_to_ballot_mapping[_ballot_id].voters_count++;\n\n        voter_to_ballots[msg.sender].push(_ballot_id);\n        voter_id_to_ballots[_id_number].push(_ballot_id);\n\n        emit registered_voter(unique_voter_id);\n    }\n\n    function register_voter_open_ballot(\n        uint256 _id_number,\n        string memory _ballot_id\n    ) internal only_register_voter(_id_number, _ballot_id) {\n        create_voter_open_ballot(_id_number, _ballot_id);\n    }\n\n    function register_voter_closed_ballot(\n        uint256 _id_number,\n        string memory _ballot_id\n    ) internal only_register_voter(_id_number, _ballot_id) {\n        // require(\"You need to lock value in the Ballot! -> redistributed after ballot!\");\n        create_voter_closed_ballot(_id_number, _ballot_id);\n    }\n\n    function register_voter(uint256 _id_number, string memory _ballot_id)\n        public\n        only_register_voter(_id_number, _ballot_id)\n    {\n        Ballot memory ballot = id_to_ballot_mapping[_ballot_id];\n\n        // 0, 1, 2, 3 -> open, closed, open secret, closed secret,\n        if (ballot.ballot_type == 0 || ballot.ballot_type == 2) {\n            register_voter_open_ballot(_id_number, _ballot_id);\n        } else if (ballot.ballot_type == 1 || ballot.ballot_type == 3) {\n            register_voter_closed_ballot(_id_number, _ballot_id);\n        }\n    }\n\n    /** VOTING RIGHTS **/\n    function assign_voting_rights(address _voter, string memory _ballot_id)\n        public\n    {\n        Ballot memory ballot = id_to_ballot_mapping[_ballot_id];\n        uint256 _ballot_type = ballot.ballot_type;\n\n        require(\n            (msg.sender == ballot.chair &&\n                ballot.voters_count >= 1 &&\n                ballot.expired == false &&\n                compare_strings(\n                    address_to_voter_mapping[_voter].ballot_id,\n                    _ballot_id\n                ) ==\n                true &&\n                address_to_voter_mapping[_voter].registered == true &&\n                address_to_voter_mapping[_voter].rights == false &&\n                _ballot_type == 1) || _ballot_type == 3,\n            \"Error Assigning Voting Rights!\"\n        );\n\n        // require(\n        //     msg.sender == ballot.chair &&,\n        //     \"Insufficient Permissions!\"\n        // );\n\n        // require(ballot.voters_count >= 1, \"No such Ballot Exists!\");\n\n        // require(ballot.expired == false, \"This Ballot Expired!\");\n\n        // require(\n        //     _ballot_type == 1 ||\n        //         _ballot_type == 3 ||\n        //         _ballot_type == 4 ||\n        //         _ballot_type == 6,\n        //     \"Not a Closed Ballot!\"\n        // );\n        // require(\n        //     compare_strings(address_to_voter_mapping[_voter].ballot_id, _ballot_id) == true,\n        //     \"Voter CanNOT vote in this Ballot!\"\n        // );\n        // require(\n        //     address_to_voter_mapping[_voter].registered == true,\n        //     \"NOT a Registered Voter!\"\n        // );\n        // require(\n        //     address_to_voter_mapping[_voter].rights == false,\n        //     \"Already has Voting Rights!\"\n        // );\n\n        // closed paid ballot [3]\n        // require voter has sufficient voting tokens for a ballot -> buy voting rights -> awaiting approval\n        address_to_voter_mapping[_voter].rights = true;\n\n        emit assigned_voting_rights(_voter);\n    }\n\n    // function buy_voting_rights(){\n\n    // }\n\n    function create_vote(address _candidate) internal {\n        address_to_candidate_mapping[_candidate].vote_count++;\n        address_to_voter_mapping[msg.sender].voted = true;\n        emit voted(_candidate);\n    }\n\n    function vote_open_ballot(address _candidate, string memory _ballot_id)\n        internal\n        only_voter(_candidate, _ballot_id)\n    {\n        // require(\"Need to have locked value in ballot during registration!\")\n\n        Ballot memory ballot = id_to_ballot_mapping[_ballot_id];\n        ballot.current_winner = _candidate;\n        find_winner(_candidate, ballot);\n        create_vote(_candidate);\n    }\n\n    function vote_closed_ballot(address _candidate, string memory _ballot_id)\n        internal\n        only_voter_closed_ballots(_candidate, _ballot_id)\n    {\n        Ballot memory ballot = id_to_ballot_mapping[_ballot_id];\n        require(ballot.ballot_type == 1, \"Wrong Ballot Type!\");\n        // require(\"Need to have locked value in ballot during registration!\")\n\n        ballot.current_winner = _candidate;\n        find_winner(_candidate, ballot);\n        create_vote(_candidate);\n    }\n\n    function vote(address _candidate, string memory _ballot_id)\n        public\n        only_voter(_candidate, _ballot_id)\n    {\n        Ballot memory ballot = id_to_ballot_mapping[_ballot_id];\n\n        // 0, 1, 2, 3, 4, 5, 6 => open free, closed free, open paid, closed paid,\n        if (ballot.ballot_type == 0) {\n            vote_open_ballot(_candidate, _ballot_id);\n        } else if (ballot.ballot_type == 1) {\n            vote_closed_ballot(_candidate, _ballot_id);\n        }\n        voted_to_ballots[msg.sender].push(_ballot_id);\n    }\n\n    /** GETTERS **/\n\n    function get_ballot(string memory _ballot_id)\n        public\n        view\n        only_secret_ballot(_ballot_id)\n        returns (Ballot memory)\n    {\n        return id_to_ballot_mapping[_ballot_id];\n    }\n\n    function get_candidate(address _candidate_addr)\n        public\n        view\n        only_secret_ballot(\"\")\n        returns (Candidate memory)\n    {\n        return address_to_candidate_mapping[_candidate_addr];\n    }\n\n    function get_voter(address _voter_address, string memory _ballot_id)\n        public\n        view\n        only_secret_ballot(_ballot_id)\n        returns (Voter memory)\n    {\n        return address_to_voter_mapping[_voter_address];\n    }\n\n    function get_candidates(string memory _ballot_id)\n        public\n        view\n        returns (address[] memory)\n    {\n        return ballot_candidate_mapping[_ballot_id];\n    }\n\n    function get_voters(string memory _ballot_id)\n        public\n        view\n        only_secret_ballot(_ballot_id)\n        returns (address[] memory)\n    {\n        return ballot_voters_mapping[_ballot_id];\n    }\n\n    function find_winner(address _candidate, Ballot memory ballot)\n        internal\n        view\n        returns (bool)\n    {\n        if (\n            address_to_candidate_mapping[_candidate].vote_count + 1 >\n            address_to_candidate_mapping[ballot.current_winner].vote_count\n        ) {\n            ballot.current_winner = _candidate;\n            ballot.tie = false;\n        } else if (\n            address_to_candidate_mapping[_candidate].vote_count + 1 ==\n            address_to_candidate_mapping[ballot.current_winner].vote_count\n        ) {\n            ballot.tie = true;\n        }\n        return ballot.tie;\n    }\n\n    function get_winner(string memory _ballot_id)\n        public\n        only_secret_ballot(_ballot_id)\n        returns (address)\n    {\n        Ballot memory ballot = id_to_ballot_mapping[_ballot_id];\n        uint256 duration = (block.timestamp - ballot.open_date) / 60 / 60 / 24;\n\n        require(\n            id_to_ballot_mapping[_ballot_id].current_winner != address(0x0) &&\n                duration > ballot._days,\n            \"Error Getting Winner!!\"\n        );\n        // require(\n        //     id_to_ballot_mapping[_ballot_id].current_winner != address(0x0),\n        //     \"No Such Ballot Exists!\"\n        // );\n\n        // require(duration > ballot._days, \"This Ballot is NOT yet Expired!\");\n\n        if (ballot.tie == true) {\n            emit tied_ballot(ballot.tie);\n            return address(0x0);\n        } else {\n            address winner = ballot.current_winner;\n            return winner;\n        }\n    }\n\n    function end_ballot(string memory _ballot_id) public {\n        Ballot storage ballot = id_to_ballot_mapping[_ballot_id];\n\n        uint256 duration = (block.timestamp - ballot.open_date) / 60 / 60 / 24;\n        require(\n            duration < ballot._days && msg.sender == ballot.chair,\n            \"Error Ending Ballot!!\"\n        );\n        // require(duration < ballot._days, \"This Ballot is NOT yet Expired!\");\n\n        // require(msg.sender == ballot.chair, \"Insufficient Permissions!\");\n\n        ballot.expired = true;\n        id_to_ballot_mapping[_ballot_id].expired = true;\n\n        emit ended_ballot(_ballot_id);\n    }\n\n    function withdraw() public onlyOwner {\n        payable(fee_addr).transfer(address(this).balance);\n    }\n}\n","sourcePath":"contracts/JamiiFactory.sol","type":"contract","deployment":{"address":"0x05f35f2925c81C27Fb7B1A3fAe245245B0663802","chainid":"5777","blockHeight":1}}