{"bytecode":"662386f26fc10000606a5561012060405260006080908152600160a052600260c052600360e0526004610100526200003c90606d90600562000057565b50606d54606e553480156200005057600080fd5b50620000c3565b8280548282559060005260206000209081019282156200009a579160200282015b828111156200009a578251829060ff1690559160200191906001019062000078565b50620000a8929150620000ac565b5090565b5b80821115620000a85760008155600101620000ad565b6155bf80620000d36000396000f3fe6080604052600436106100fe5760003560e01c806389212d4411610095578063e812c6f411610064578063e812c6f4146102b5578063e8636516146102d5578063f2fde38b14610303578063f62d188814610323578063f9efac791461034357600080fd5b806389212d441461021d5780638da5cb5b1461024a578063953ef76d14610268578063adbdbc971461029557600080fd5b80633ccfd60b116100d15780633ccfd60b146101c0578063697319d7146101d55780636cd5d442146101f5578063715018a61461020857600080fd5b8063143b02f21461010357806316397337146101395780631bf533a4146101715780633a99495e14610193575b600080fd5b34801561010f57600080fd5b5061012361011e366004614f68565b610363565b6040516101309190614fa5565b60405180910390f35b34801561014557600080fd5b50610159610154366004614f68565b6105df565b6040516001600160a01b039091168152602001610130565b34801561017d57600080fd5b5061019161018c36600461500e565b610ad2565b005b34801561019f57600080fd5b506101b36101ae366004614f68565b611128565b60405161013091906150b8565b3480156101cc57600080fd5b5061019161155f565b3480156101e157600080fd5b506101916101f036600461500e565b6115a3565b61019161020336600461518a565b61197f565b34801561021457600080fd5b50610191611e05565b34801561022957600080fd5b5061023d610238366004615298565b611e19565b60405161013091906152ba565b34801561025657600080fd5b506033546001600160a01b0316610159565b34801561027457600080fd5b50610288610283366004615298565b612167565b604051610130919061532d565b3480156102a157600080fd5b506101916102b036600461537e565b612485565b3480156102c157600080fd5b506101916102d0366004614f68565b612541565b3480156102e157600080fd5b506102f56102f036600461537e565b61267e565b604051908152602001610130565b34801561030f57600080fd5b5061019161031e366004615298565b612ccd565b34801561032f57600080fd5b5061019161033e366004614f68565b612d43565b34801561034f57600080fd5b5061012361035e366004614f68565b612e55565b6060816000606f8260405161037891906153af565b9081526020016040518091039020604051806101600160405290816000820180546103a2906153cb565b80601f01602080910402602001604051908101604052809291908181526020018280546103ce906153cb565b801561041b5780601f106103f05761010080835404028352916020019161041b565b820191906000526020600020905b8154815290600101906020018083116103fe57829003601f168201915b505050505081526020016001820154815260200160028201805461043e906153cb565b80601f016020809104026020016040519081016040528092919081815260200182805461046a906153cb565b80156104b75780601f1061048c576101008083540402835291602001916104b7565b820191906000526020600020905b81548152906001019060200180831161049a57829003601f168201915b50505091835250506003828101546001600160a01b03908116602080850191909152600485015460408501526005850154606085015260068501546080850152600785015460ff908116151560a0860152600886015460c086015260099095015491821660e0850152600160a01b90910490931615156101009092019190915290820151919250116105645760405162461bcd60e51b815260040161055b90615406565b60405180910390fd5b60718460405161057491906153af565b90815260408051918290036020908101832080548083028501830190935282845291908301828280156105d057602002820191906000526020600020905b81546001600160a01b031681526001909101906020018083116105b2575b505050505092505b5050919050565b6000816000606f826040516105f491906153af565b90815260200160405180910390206040518061016001604052908160008201805461061e906153cb565b80601f016020809104026020016040519081016040528092919081815260200182805461064a906153cb565b80156106975780601f1061066c57610100808354040283529160200191610697565b820191906000526020600020905b81548152906001019060200180831161067a57829003601f168201915b50505050508152602001600182015481526020016002820180546106ba906153cb565b80601f01602080910402602001604051908101604052809291908181526020018280546106e6906153cb565b80156107335780601f1061070857610100808354040283529160200191610733565b820191906000526020600020905b81548152906001019060200180831161071657829003601f168201915b50505091835250506003828101546001600160a01b03908116602080850191909152600485015460408501526005850154606085015260068501546080850152600785015460ff908116151560a0860152600886015460c086015260099095015491821660e0850152600160a01b90910490931615156101009092019190915290820151919250116107d75760405162461bcd60e51b815260040161055b90615406565b6000606f856040516107e991906153af565b908152602001604051809103902060405180610160016040529081600082018054610813906153cb565b80601f016020809104026020016040519081016040528092919081815260200182805461083f906153cb565b801561088c5780601f106108615761010080835404028352916020019161088c565b820191906000526020600020905b81548152906001019060200180831161086f57829003601f168201915b50505050508152602001600182015481526020016002820180546108af906153cb565b80601f01602080910402602001604051908101604052809291908181526020018280546108db906153cb565b80156109285780601f106108fd57610100808354040283529160200191610928565b820191906000526020600020905b81548152906001019060200180831161090b57829003601f168201915b505050918352505060038201546001600160a01b039081166020830152600483015460408301526005830154606083015260068301546080830152600783015460ff908116151560a080850191909152600885015460c085015260099094015491821660e0840152600160a01b90910416151561010090910152810151909150600090601890603c9081906109bd9042615453565b6109c7919061546a565b6109d1919061546a565b6109db919061546a565b905060006001600160a01b0316606f876040516109f891906153af565b908152604051908190036020019020600901546001600160a01b031614801590610a2557508160c0015181115b610a6a5760405162461bcd60e51b81526020600482015260166024820152754572726f722047657474696e672057696e6e6572212160501b604482015260640161055b565b610140820151151560011415610ac5577faf9c5487a5254285c7e0cb270c5884fb3c73e8bf058e80fc0cf380dc6908fac6826101400151604051610ab2911515815260200190565b60405180910390a16000945050506105d8565b50610120015192506105d8565b81816000606f82604051610ae691906153af565b908152602001604051809103902060405180610160016040529081600082018054610b10906153cb565b80601f0160208091040260200160405190810160405280929190818152602001828054610b3c906153cb565b8015610b895780601f10610b5e57610100808354040283529160200191610b89565b820191906000526020600020905b815481529060010190602001808311610b6c57829003601f168201915b5050505050815260200160018201548152602001600282018054610bac906153cb565b80601f0160208091040260200160405190810160405280929190818152602001828054610bd8906153cb565b8015610c255780601f10610bfa57610100808354040283529160200191610c25565b820191906000526020600020905b815481529060010190602001808311610c0857829003601f168201915b50505091835250506003828101546001600160a01b0390811660208085019190915260048501546040808601919091526005860154606086015260068601546080860152600786015460ff908116151560a0870152600887015460c087015260099096015492831660e0860152600160a01b9092048516151561010090940193909352336000908152607390935290912001549192501615156001148015610db057503360009081526075602090815260408083208054825181850281018501909352808352610dae9492939192909184015b82821015610da4578382906000526020600020018054610d17906153cb565b80601f0160208091040260200160405190810160405280929190818152602001828054610d43906153cb565b8015610d905780601f10610d6557610100808354040283529160200191610d90565b820191906000526020600020905b815481529060010190602001808311610d7357829003601f168201915b505050505081526020019060010190610cf8565b5050505083612ecf565b155b8015610e6e5750610e68606f83604051610dca91906153af565b9081526040519081900360200190208054610de4906153cb565b80601f0160208091040260200160405190810160405280929190818152602001828054610e10906153cb565b8015610e5d5780601f10610e3257610100808354040283529160200191610e5d565b820191906000526020600020905b815481529060010190602001808311610e4057829003601f168201915b505050505083612f35565b15156001145b8015610e7c575060e0810151155b8015610eb457506001600160a01b03831660009081526072602052604090206001018054610eae9190610de4906153cb565b15156001145b610eef5760405162461bcd60e51b815260206004820152600c60248201526b566f746572204572726f722160a01b604482015260640161055b565b6000606f85604051610f0191906153af565b908152602001604051809103902060405180610160016040529081600082018054610f2b906153cb565b80601f0160208091040260200160405190810160405280929190818152602001828054610f57906153cb565b8015610fa45780601f10610f7957610100808354040283529160200191610fa4565b820191906000526020600020905b815481529060010190602001808311610f8757829003601f168201915b5050505050815260200160018201548152602001600282018054610fc7906153cb565b80601f0160208091040260200160405190810160405280929190818152602001828054610ff3906153cb565b80156110405780601f1061101557610100808354040283529160200191611040565b820191906000526020600020905b81548152906001019060200180831161102357829003601f168201915b505050918352505060038201546001600160a01b03908116602080840191909152600484015460408401526005840154606084015260068401546080840152600784015460ff908116151560a0850152600885015460c085015260099094015491821660e0840152600160a01b9091049092161515610100909101528101519091506110d5576110d08686612f9c565b6110ec565b8060200151600114156110ec576110ec86866134ff565b3360009081526075602090815260408220805460018101825590835291819020875161111f939190910191880190614dc3565b50505050505050565b61119b60405180610160016040528060608152602001600081526020016060815260200160006001600160a01b031681526020016000815260200160008152602001600081526020016000151581526020016000815260200160006001600160a01b031681526020016000151581525090565b816000606f826040516111ae91906153af565b9081526020016040518091039020604051806101600160405290816000820180546111d8906153cb565b80601f0160208091040260200160405190810160405280929190818152602001828054611204906153cb565b80156112515780601f1061122657610100808354040283529160200191611251565b820191906000526020600020905b81548152906001019060200180831161123457829003601f168201915b5050505050815260200160018201548152602001600282018054611274906153cb565b80601f01602080910402602001604051908101604052809291908181526020018280546112a0906153cb565b80156112ed5780601f106112c2576101008083540402835291602001916112ed565b820191906000526020600020905b8154815290600101906020018083116112d057829003601f168201915b50505091835250506003828101546001600160a01b03908116602080850191909152600485015460408501526005850154606085015260068501546080850152600785015460ff908116151560a0860152600886015460c086015260099095015491821660e0850152600160a01b90910490931615156101009092019190915290820151919250116113915760405162461bcd60e51b815260040161055b90615406565b606f846040516113a191906153af565b9081526020016040518091039020604051806101600160405290816000820180546113cb906153cb565b80601f01602080910402602001604051908101604052809291908181526020018280546113f7906153cb565b80156114445780601f1061141957610100808354040283529160200191611444565b820191906000526020600020905b81548152906001019060200180831161142757829003601f168201915b5050505050815260200160018201548152602001600282018054611467906153cb565b80601f0160208091040260200160405190810160405280929190818152602001828054611493906153cb565b80156114e05780601f106114b5576101008083540402835291602001916114e0565b820191906000526020600020905b8154815290600101906020018083116114c357829003601f168201915b505050918352505060038201546001600160a01b039081166020830152600483015460408301526005830154606083015260068301546080830152600783015460ff908116151560a0840152600884015460c084015260099093015490811660e0830152600160a01b9004909116151561010090910152949350505050565b611567613bea565b6065546040516001600160a01b03909116904780156108fc02916000818181858888f193505050501580156115a0573d6000803e3d6000fd5b50565b6000606f826040516115b591906153af565b9081526020016040518091039020604051806101600160405290816000820180546115df906153cb565b80601f016020809104026020016040519081016040528092919081815260200182805461160b906153cb565b80156116585780601f1061162d57610100808354040283529160200191611658565b820191906000526020600020905b81548152906001019060200180831161163b57829003601f168201915b505050505081526020016001820154815260200160028201805461167b906153cb565b80601f01602080910402602001604051908101604052809291908181526020018280546116a7906153cb565b80156116f45780601f106116c9576101008083540402835291602001916116f4565b820191906000526020600020905b8154815290600101906020018083116116d757829003601f168201915b505050918352505060038201546001600160a01b0390811660208084019190915260048401546040840152600584015460608085019190915260068501546080850152600785015460ff908116151560a0860152600886015460c086015260099095015480841660e0860152600160a01b900490941615156101009093019290925290830151918301519293509091163314801561179757506001826080015110155b80156117a5575060e0820151155b801561186157506001600160a01b0384166000908152607360205260409020600201805461185b91906117d7906153cb565b80601f0160208091040260200160405190810160405280929190818152602001828054611803906153cb565b80156118505780601f1061182557610100808354040283529160200191611850565b820191906000526020600020905b81548152906001019060200180831161183357829003601f168201915b505050505084612f35565b15156001145b801561188d57506001600160a01b03841660009081526073602052604090206003015460ff1615156001145b80156118ba57506001600160a01b038416600090815260736020526040902060030154610100900460ff16155b80156118c65750806001145b806118d15750806003145b61191d5760405162461bcd60e51b815260206004820152601e60248201527f4572726f722041737369676e696e6720566f74696e6720526967687473210000604482015260640161055b565b6001600160a01b038416600081815260736020908152604091829020600301805461ff00191661010017905590519182527f94055e6bcdfa83fa1f2cb2901fd22db9e96f758348742a662b752bc32b765800910160405180910390a150505050565b606a5485903410801590611994575060008151115b80156119a1575060018551115b80156119af5750606e548411155b80156119ba57508183115b80156119c65750600082115b611a0b5760405162461bcd60e51b81526020600482015260166024820152754572726f722042616c6c6f74204372656174696f6e2160501b604482015260640161055b565b84607088604051611a1c91906153af565b90815260200160405180910390209080519060200190611a3d929190614e47565b50845160005b81811015611b56576000604051806080016040528060665481526020018b8152602001898481518110611a7857611a7861548c565b60200260200101516001600160a01b031681526020016000815250905080607260008a8581518110611aac57611aac61548c565b60200260200101516001600160a01b03166001600160a01b03168152602001908152602001600020600082015181600001556020820151816001019080519060200190611afa929190614dc3565b5060408201516002820180546001600160a01b0319166001600160a01b0390921691909117905560609091015160039091015560668054906000611b3d836154a2565b9190505550508080611b4e906154a2565b915050611a43565b506040805161016081018252898152602081018790528082018990523360608201526000608082018190524260a083015260c0820187905260e082018190526101008201869052610120820181905261014082015290518190606f90611bbd908c906153af565b90815260200160405180910390206000820151816000019080519060200190611be7929190614dc3565b50602082810151600183015560408301518051611c0a9260028501920190614dc3565b5060608201516003820180546001600160a01b0319166001600160a01b039283161790556080830151600483015560a0830151600583015560c0830151600683015560e083015160078301805460ff191691151591909117905561010083015160088301556101208301516009909201805461014090940151929091166001600160a81b031990931692909217600160a01b91151591909102179055606880546001810182556000919091528151805183927fa2153420d844928b4421650203c77babc8b33d7f2e7b450e2966db0c22097753600a9091020191611cf391839160200190614dc3565b50602082810151600183015560408301518051611d169260028501920190614dc3565b5060608201516003820180546001600160a01b0319166001600160a01b039283161790556080830151600483015560a0830151600583015560c0830151600683015560e083015160078301805460ff191691151591909117905561010083015160088301556101208301516009909201805461014090940151929091166001600160a81b031990931692909217600160a01b91151591909102179055606b8054906000611dc2836154a2565b90915550506040518681527f3302601c0b6ad9794207d2eb4a29c724db57c9348bf10dffcc98c9d89e6d9c529060200160405180910390a1505050505050505050565b611e0d613bea565b611e176000613c44565b565b6040805160e08101825260008082526020820181905260609282018390529181018290526080810182905260a0810182905260c0810191909152604051806020016040528060008152506000606f82604051611e7591906153af565b908152602001604051809103902060405180610160016040529081600082018054611e9f906153cb565b80601f0160208091040260200160405190810160405280929190818152602001828054611ecb906153cb565b8015611f185780601f10611eed57610100808354040283529160200191611f18565b820191906000526020600020905b815481529060010190602001808311611efb57829003601f168201915b5050505050815260200160018201548152602001600282018054611f3b906153cb565b80601f0160208091040260200160405190810160405280929190818152602001828054611f67906153cb565b8015611fb45780601f10611f8957610100808354040283529160200191611fb4565b820191906000526020600020905b815481529060010190602001808311611f9757829003601f168201915b50505091835250506003828101546001600160a01b03908116602080850191909152600485015460408501526005850154606085015260068501546080850152600785015460ff908116151560a0860152600886015460c086015260099095015491821660e0850152600160a01b90910490931615156101009092019190915290820151919250116120585760405162461bcd60e51b815260040161055b90615406565b6001600160a01b03808516600090815260736020908152604091829020825160e0810184528154815260018201549094169184019190915260028101805491928401916120a4906153cb565b80601f01602080910402602001604051908101604052809291908181526020018280546120d0906153cb565b801561211d5780601f106120f25761010080835404028352916020019161211d565b820191906000526020600020905b81548152906001019060200180831161210057829003601f168201915b5050509183525050600382015460ff808216151560208401526101008204811615156040840152620100009091041615156060820152600490910154608090910152949350505050565b61219b6040518060800160405280600081526020016060815260200160006001600160a01b03168152602001600081525090565b604051806020016040528060008152506000606f826040516121bd91906153af565b9081526020016040518091039020604051806101600160405290816000820180546121e7906153cb565b80601f0160208091040260200160405190810160405280929190818152602001828054612213906153cb565b80156122605780601f1061223557610100808354040283529160200191612260565b820191906000526020600020905b81548152906001019060200180831161224357829003601f168201915b5050505050815260200160018201548152602001600282018054612283906153cb565b80601f01602080910402602001604051908101604052809291908181526020018280546122af906153cb565b80156122fc5780601f106122d1576101008083540402835291602001916122fc565b820191906000526020600020905b8154815290600101906020018083116122df57829003601f168201915b50505091835250506003828101546001600160a01b03908116602080850191909152600485015460408501526005850154606085015260068501546080850152600785015460ff908116151560a0860152600886015460c086015260099095015491821660e0850152600160a01b90910490931615156101009092019190915290820151919250116123a05760405162461bcd60e51b815260040161055b90615406565b6001600160a01b0384166000908152607260209081526040918290208251608081019093528054835260018101805491928401916123dd906153cb565b80601f0160208091040260200160405190810160405280929190818152602001828054612409906153cb565b80156124565780601f1061242b57610100808354040283529160200191612456565b820191906000526020600020905b81548152906001019060200180831161243957829003601f168201915b505050918352505060028201546001600160a01b03166020820152600390910154604090910152949350505050565b61248d613bea565b6001606e5461249c9190615453565b821180156124b65750606e546124b39060016154bd565b82105b6124f85760405162461bcd60e51b8152602060048201526013602482015272496e76616c6964205479706520496e6465782160681b604482015260640161055b565b606d606e54600161250991906154bd565b81546001810183556000928352602080842090910191909155838252606781526040909120825161253c92840190614dc3565b505050565b6000606f8260405161255391906153af565b9081526020016040518091039020905060006018603c8084600501544261257a9190615453565b612584919061546a565b61258e919061546a565b612598919061546a565b90508160060154811080156125b9575060038201546001600160a01b031633145b6125fd5760405162461bcd60e51b81526020600482015260156024820152744572726f7220456e64696e672042616c6c6f74212160581b604482015260640161055b565b60078201805460ff19166001908117909155604051606f906126209086906153af565b908152604051908190036020018120600701805492151560ff19909316929092179091557f020b0a6e75f9b4e7936cf2c0aab0f37ee94d3aedf66a6b4540824b721c8bd592906126719085906154d5565b60405180910390a1505050565b600082826000606f8260405161269491906153af565b9081526020016040518091039020604051806101600160405290816000820180546126be906153cb565b80601f01602080910402602001604051908101604052809291908181526020018280546126ea906153cb565b80156127375780601f1061270c57610100808354040283529160200191612737565b820191906000526020600020905b81548152906001019060200180831161271a57829003601f168201915b505050505081526020016001820154815260200160028201805461275a906153cb565b80601f0160208091040260200160405190810160405280929190818152602001828054612786906153cb565b80156127d35780601f106127a8576101008083540402835291602001916127d3565b820191906000526020600020905b8154815290600101906020018083116127b657829003601f168201915b505050918352505060038201546001600160a01b039081166020830152600483015460408301526005830154606083015260068301546080830152600783015460ff908116151560a080850191909152600885015460c085015260099094015491821660e0840152600160a01b909104161515610100909101528101519091506000906128609042615453565b60685490915060018110801590612887575060c083015161288490620151806154e8565b82105b8015612976575033600090815260746020908152604080832080548251818502810185019093528083526129749492939192909184015b8282101561296a5783829060005260206000200180546128dd906153cb565b80601f0160208091040260200160405190810160405280929190818152602001828054612909906153cb565b80156129565780601f1061292b57610100808354040283529160200191612956565b820191906000526020600020905b81548152906001019060200180831161293957829003601f168201915b5050505050815260200190600101906128be565b5050505085612ecf565b155b8015612a615750612a5f60766000878152602001908152602001600020805480602002602001604051908101604052809291908181526020016000905b8282101561296a5783829060005260206000200180546129d2906153cb565b80601f01602080910402602001604051908101604052809291908181526020018280546129fe906153cb565b8015612a4b5780601f10612a2057610100808354040283529160200191612a4b565b820191906000526020600020905b815481529060010190602001808311612a2e57829003601f168201915b5050505050815260200190600101906129b3565b155b8015612a7e5750610100830151612a7b90620151806154e8565b82105b612a9a5760405162461bcd60e51b815260040161055b90615507565b6000606f88604051612aac91906153af565b908152602001604051809103902060405180610160016040529081600082018054612ad6906153cb565b80601f0160208091040260200160405190810160405280929190818152602001828054612b02906153cb565b8015612b4f5780601f10612b2457610100808354040283529160200191612b4f565b820191906000526020600020905b815481529060010190602001808311612b3257829003601f168201915b5050505050815260200160018201548152602001600282018054612b72906153cb565b80601f0160208091040260200160405190810160405280929190818152602001828054612b9e906153cb565b8015612beb5780601f10612bc057610100808354040283529160200191612beb565b820191906000526020600020905b815481529060010190602001808311612bce57829003601f168201915b505050918352505060038201546001600160a01b03908116602080840191909152600484015460408401526005840154606084015260068401546080840152600784015460ff908116151560a0850152600885015460c085015260099094015491821660e0840152600160a01b9091049092161515610100909101528101519091501580612c7d575080602001516002145b15612c98576000612c8e8a8a613c96565b9750612cc2915050565b806020015160011480612caf575080602001516003145b15612cc0576000612c8e8a8a6140c1565b505b505050505092915050565b612cd5613bea565b6001600160a01b038116612d3a5760405162461bcd60e51b815260206004820152602660248201527f4f776e61626c653a206e6577206f776e657220697320746865207a65726f206160448201526564647265737360d01b606482015260840161055b565b6115a081613c44565b600054610100900460ff1615808015612d635750600054600160ff909116105b80612d7d5750303b158015612d7d575060005460ff166001145b612de05760405162461bcd60e51b815260206004820152602e60248201527f496e697469616c697a61626c653a20636f6e747261637420697320616c72656160448201526d191e481a5b9a5d1a585b1a5e995960921b606482015260840161055b565b6000805460ff191660011790558015612e03576000805461ff0019166101001790555b612e0b6144df565b8015612e51576000805461ff0019169055604051600181527f7f26b83ff96e1f2b6a682f133852f6798a09c465da95921460cefb38474024989060200160405180910390a15b5050565b6060607082604051612e6791906153af565b9081526040805191829003602090810183208054808302850183019093528284529190830182828015612ec357602002820191906000526020600020905b81546001600160a01b03168152600190910190602001808311612ea5575b50505050509050919050565b8151600090815b81811015612f2857612f01858281518110612ef357612ef361548c565b602002602001015185612f35565b151560011415612f1657600192505050612f2f565b80612f20816154a2565b915050612ed6565b5060009150505b92915050565b600081604051602001612f4891906153af565b6040516020818303038152906040528051906020012083604051602001612f6f91906153af565b604051602081830303815290604052805190602001201415612f9357506001612f2f565b50600092915050565b81816000606f82604051612fb091906153af565b908152602001604051809103902060405180610160016040529081600082018054612fda906153cb565b80601f0160208091040260200160405190810160405280929190818152602001828054613006906153cb565b80156130535780601f1061302857610100808354040283529160200191613053565b820191906000526020600020905b81548152906001019060200180831161303657829003601f168201915b5050505050815260200160018201548152602001600282018054613076906153cb565b80601f01602080910402602001604051908101604052809291908181526020018280546130a2906153cb565b80156130ef5780601f106130c4576101008083540402835291602001916130ef565b820191906000526020600020905b8154815290600101906020018083116130d257829003601f168201915b50505091835250506003828101546001600160a01b0390811660208085019190915260048501546040808601919091526005860154606086015260068601546080860152600786015460ff908116151560a0870152600887015460c087015260099096015492831660e0860152600160a01b90920485161515610100909401939093523360009081526073909352909120015491925016151560011480156132705750336000908152607560209081526040808320805482518185028101850190935280835261326e9492939192909184015b82821015610da45783829060005260206000200180546131e1906153cb565b80601f016020809104026020016040519081016040528092919081815260200182805461320d906153cb565b801561325a5780601f1061322f5761010080835404028352916020019161325a565b820191906000526020600020905b81548152906001019060200180831161323d57829003601f168201915b5050505050815260200190600101906131c2565b155b8015613290575061328a606f83604051610dca91906153af565b15156001145b801561329e575060e0810151155b80156132d657506001600160a01b038316600090815260726020526040902060010180546132d09190610de4906153cb565b15156001145b6133115760405162461bcd60e51b815260206004820152600c60248201526b566f746572204572726f722160a01b604482015260640161055b565b6000606f8560405161332391906153af565b90815260200160405180910390206040518061016001604052908160008201805461334d906153cb565b80601f0160208091040260200160405190810160405280929190818152602001828054613379906153cb565b80156133c65780601f1061339b576101008083540402835291602001916133c6565b820191906000526020600020905b8154815290600101906020018083116133a957829003601f168201915b50505050508152602001600182015481526020016002820180546133e9906153cb565b80601f0160208091040260200160405190810160405280929190818152602001828054613415906153cb565b80156134625780601f1061343757610100808354040283529160200191613462565b820191906000526020600020905b81548152906001019060200180831161344557829003601f168201915b505050918352505060038201546001600160a01b039081166020830152600483015460408301526005830154606083015260068301546080830152600783015460ff908116151560a0840152600884015460c084015260099093015480821660e0840152600160a01b9004909216151561010090910152871661012082015290506134ed8682614540565b506134f7866145f5565b505050505050565b81816000606f8260405161351391906153af565b90815260200160405180910390206040518061016001604052908160008201805461353d906153cb565b80601f0160208091040260200160405190810160405280929190818152602001828054613569906153cb565b80156135b65780601f1061358b576101008083540402835291602001916135b6565b820191906000526020600020905b81548152906001019060200180831161359957829003601f168201915b50505050508152602001600182015481526020016002820180546135d9906153cb565b80601f0160208091040260200160405190810160405280929190818152602001828054613605906153cb565b80156136525780601f1061362757610100808354040283529160200191613652565b820191906000526020600020905b81548152906001019060200180831161363557829003601f168201915b505050918352505060038201546001600160a01b0390811660208084019190915260048401546040808501919091526005850154606085015260068501546080850152600785015460ff908116151560a0860152600886015460c086015260099095015480841660e080870191909152600160a01b90910490951615156101009094019390935233600090815260738252838120845195860185528054865260018101549093169185019190915260028201805495965090949192840191613719906153cb565b80601f0160208091040260200160405190810160405280929190818152602001828054613745906153cb565b80156137925780601f1061376757610100808354040283529160200191613792565b820191906000526020600020905b81548152906001019060200180831161377557829003601f168201915b5050509183525050600382015460ff8082161515602084015261010082048116151560408401526201000090910416151560608201526004909101546080918201528101519091501515600114801561380257503360009081526073602052604090206003015460ff1615156001145b80156138f1575033600090815260756020908152604080832080548251818502810185019093528083526138ef9492939192909184015b828210156138e5578382906000526020600020018054613858906153cb565b80601f0160208091040260200160405190810160405280929190818152602001828054613884906153cb565b80156138d15780601f106138a6576101008083540402835291602001916138d1565b820191906000526020600020905b8154815290600101906020018083116138b457829003601f168201915b505050505081526020019060010190613839565b5050505084612ecf565b155b801561392b5750613925606f8460405161390b91906153af565b90815260405190819003602001902080546117d7906153cb565b15156001145b801561396357506001600160a01b0384166000908152607260205260409020600101805461395d91906117d7906153cb565b15156001145b6139af5760405162461bcd60e51b815260206004820152601b60248201527f566f746572204572726f7228436c6f7365642042616c6c6f7429210000000000604482015260640161055b565b6000606f866040516139c191906153af565b9081526020016040518091039020604051806101600160405290816000820180546139eb906153cb565b80601f0160208091040260200160405190810160405280929190818152602001828054613a17906153cb565b8015613a645780601f10613a3957610100808354040283529160200191613a64565b820191906000526020600020905b815481529060010190602001808311613a4757829003601f168201915b5050505050815260200160018201548152602001600282018054613a87906153cb565b80601f0160208091040260200160405190810160405280929190818152602001828054613ab3906153cb565b8015613b005780601f10613ad557610100808354040283529160200191613b00565b820191906000526020600020905b815481529060010190602001808311613ae357829003601f168201915b505050918352505060038201546001600160a01b03908116602080840191909152600484015460408401526005840154606084015260068401546080840152600784015460ff908116151560a0850152600885015460c085015260099094015491821660e0840152600160a01b909104909216151561010090910152810151909150600114613bc65760405162461bcd60e51b815260206004820152601260248201527157726f6e672042616c6c6f7420547970652160701b604482015260640161055b565b6001600160a01b038716610120820152613be08782614540565b5061111f876145f5565b6033546001600160a01b03163314611e175760405162461bcd60e51b815260206004820181905260248201527f4f776e61626c653a2063616c6c6572206973206e6f7420746865206f776e6572604482015260640161055b565b603380546001600160a01b038381166001600160a01b0319831681179093556040519116919082907f8be0079c531659141344cd1fd0a4f28419497f9722a3daafe3b4186f6b6457e090600090a35050565b600082826000606f82604051613cac91906153af565b908152602001604051809103902060405180610160016040529081600082018054613cd6906153cb565b80601f0160208091040260200160405190810160405280929190818152602001828054613d02906153cb565b8015613d4f5780601f10613d2457610100808354040283529160200191613d4f565b820191906000526020600020905b815481529060010190602001808311613d3257829003601f168201915b5050505050815260200160018201548152602001600282018054613d72906153cb565b80601f0160208091040260200160405190810160405280929190818152602001828054613d9e906153cb565b8015613deb5780601f10613dc057610100808354040283529160200191613deb565b820191906000526020600020905b815481529060010190602001808311613dce57829003601f168201915b505050918352505060038201546001600160a01b039081166020830152600483015460408301526005830154606083015260068301546080830152600783015460ff908116151560a080850191909152600885015460c085015260099094015491821660e0840152600160a01b90910416151561010090910152810151909150600090613e789042615453565b60685490915060018110801590613e9f575060c0830151613e9c90620151806154e8565b82105b8015613f8457503360009081526074602090815260408083208054825181850281018501909352808352613f829492939192909184015b8282101561296a578382906000526020600020018054613ef5906153cb565b80601f0160208091040260200160405190810160405280929190818152602001828054613f21906153cb565b8015613f6e5780601f10613f4357610100808354040283529160200191613f6e565b820191906000526020600020905b815481529060010190602001808311613f5157829003601f168201915b505050505081526020019060010190613ed6565b155b801561406f575061406d60766000878152602001908152602001600020805480602002602001604051908101604052809291908181526020016000905b8282101561296a578382906000526020600020018054613fe0906153cb565b80601f016020809104026020016040519081016040528092919081815260200182805461400c906153cb565b80156140595780601f1061402e57610100808354040283529160200191614059565b820191906000526020600020905b81548152906001019060200180831161403c57829003601f168201915b505050505081526020019060010190613fc1565b155b801561408c575061010083015161408990620151806154e8565b82105b6140a85760405162461bcd60e51b815260040161055b90615507565b60006140b48989614675565b9998505050505050505050565b600082826000606f826040516140d791906153af565b908152602001604051809103902060405180610160016040529081600082018054614101906153cb565b80601f016020809104026020016040519081016040528092919081815260200182805461412d906153cb565b801561417a5780601f1061414f5761010080835404028352916020019161417a565b820191906000526020600020905b81548152906001019060200180831161415d57829003601f168201915b505050505081526020016001820154815260200160028201805461419d906153cb565b80601f01602080910402602001604051908101604052809291908181526020018280546141c9906153cb565b80156142165780601f106141eb57610100808354040283529160200191614216565b820191906000526020600020905b8154815290600101906020018083116141f957829003601f168201915b505050918352505060038201546001600160a01b039081166020830152600483015460408301526005830154606083015260068301546080830152600783015460ff908116151560a080850191909152600885015460c085015260099094015491821660e0840152600160a01b909104161515610100909101528101519091506000906142a39042615453565b606854909150600181108015906142ca575060c08301516142c790620151806154e8565b82105b80156143af575033600090815260746020908152604080832080548251818502810185019093528083526143ad9492939192909184015b8282101561296a578382906000526020600020018054614320906153cb565b80601f016020809104026020016040519081016040528092919081815260200182805461434c906153cb565b80156143995780601f1061436e57610100808354040283529160200191614399565b820191906000526020600020905b81548152906001019060200180831161437c57829003601f168201915b505050505081526020019060010190614301565b155b801561449a575061449860766000878152602001908152602001600020805480602002602001604051908101604052809291908181526020016000905b8282101561296a57838290600052602060002001805461440b906153cb565b80601f0160208091040260200160405190810160405280929190818152602001828054614437906153cb565b80156144845780601f1061445957610100808354040283529160200191614484565b820191906000526020600020905b81548152906001019060200180831161446757829003601f168201915b5050505050815260200190600101906143ec565b155b80156144b757506101008301516144b490620151806154e8565b82105b6144d35760405162461bcd60e51b815260040161055b90615507565b60006140b489896149cb565b600054610100900460ff166145065760405162461bcd60e51b815260040161055b9061553e565b6103e8606655614514614ad8565b61451c614d69565b603354606580546001600160a01b0319166001600160a01b03909216919091179055565b6101208101516001600160a01b039081166000908152607260205260408082206003908101549386168352908220015490919061457e9060016154bd565b11156145a1576001600160a01b03831661012083015260006101408301526145ea565b6101208201516001600160a01b039081166000908152607260205260408082206003908101549387168352912001546145db9060016154bd565b14156145ea5760016101408301525b506101400151919050565b6001600160a01b038116600090815260726020526040812060030180549161461c836154a2565b909155505033600090815260736020526040808220600301805462ff0000191662010000179055516001600160a01b038316917faec2ccae8681fd01ad220ecb7e9b5f7d485b1cc3cc01599acb1578016b30a6bd91a250565b600080606f8360405161468891906153af565b908152602001604051809103902090506071836040516146a891906153af565b908152604080516020928190038301812080546001810182556000918252848220018054336001600160a01b03199091161790559281018790520160408051808303601f19018152828252805160209182012060e08401835260048601548452338285018181528585018a815260016060880181905260808801819052600060a0890181905260c08901869052938452607386529590922086518155905194810180546001600160a01b0319166001600160a01b039096169590951790945551805191955084939261478292600285019290910190614dc3565b506060820151600382018054608085015160a086015161ffff1990921693151561ff00191693909317610100931515939093029290921762ff00001916620100009215159290920291909117905560c0909101516004909101556069805460018101825560009190915281517f7fb4302e8e91f9110a6554c2c0a24601252c2a42c2220ca988efcfe39991430860059092029182019081556020808401517f7fb4302e8e91f9110a6554c2c0a24601252c2a42c2220ca988efcfe399914309840180546001600160a01b0319166001600160a01b03909216919091179055604084015180518594614899937f7fb4302e8e91f9110a6554c2c0a24601252c2a42c2220ca988efcfe39991430a909101920190614dc3565b506060820151600382018054608085015160a08601511515620100000262ff0000199115156101000261ff00199515159590951661ffff1990931692909217939093179290921691909117905560c090910151600490910155604051606f906149039087906153af565b9081526040519081900360200190206004018054906000614923836154a2565b90915550503360009081526074602090815260408220805460018101825590835291819020875161495b939190910191880190614dc3565b5060008681526076602090815260408220805460018101825590835291819020875161498e939190910191880190614dc3565b506040518281527fd850a8248df1456f35b1b26db099385cb363335bb60a8e99294bc101242678719060200160405180910390a150949350505050565b600080606f836040516149de91906153af565b908152602001604051809103902090506071836040516149fe91906153af565b908152604080516020928190038301812080546001810182556000918252848220018054336001600160a01b03199091161790559281018790520160408051808303601f19018152828252805160209182012060e08401835260048601548452338285018181528585018a815260016060880181905260006080890181905260a0890181905260c08901869052938452607386529590922086518155905194810180546001600160a01b0319166001600160a01b039096169590951790945551805191955084939261478292600285019290910190614dc3565b6040805180820190915260098152686f70656e2d6672656560b81b602080830191825260008052606790529051614b30917fd4e1ac8b62c3ff1e2c1b7113742533b8310ce5ab8a8767ead9ba8b250c7e3cc991614dc3565b5060408051808201909152600b81526a636c6f7365642d6672656560a81b60208083019182526001600052606790529051614b8c917f6bee784efeb983674392298ab585b22866bedf00ebb0eea949d1e66f3f50e71d91614dc3565b506040805180820190915260098152681bdc195b8b5c185a5960ba1b60208083019182526002600052606790529051614be6917f34a128ff2438bccb68124de780ea45be60aca78c6fb6ce114324ee2dd88c546d91614dc3565b5060408051808201909152600b81526a18db1bdcd9590b5c185a5960aa1b60208083019182526003600052606790529051614c42917f8c1c91810985109892a55558a5891c2831cd29dc314f55daca604b52719f9f3691614dc3565b5060408051808201909152601281527118db1bdcd9590b599c99594b5cd958dc995d60721b60208083019182526004600052606790529051614ca5917f4813066cc9bc2ffb2908859373a01b2bdf685062df07d3bbc2275a773c10141491614dc3565b5060408051808201909152601081526f1bdc195b8b5c185a590b5cd958dc995d60821b60208083019182526005600052606790529051614d06917f2d7518069ffe0dd7e7ab74f326d370e23a25560d4b83756e518197d858c5a39391614dc3565b5060408051808201909152601281527118db1bdcd9590b5c185a590b5cd958dc995d60721b602080830191825260066000526067905290516115a0917fad91bdf316595464714a4f9b2538304767ddb9763115d960efc5cddca3d04ea791614dc3565b600054610100900460ff16614d905760405162461bcd60e51b815260040161055b9061553e565b611e17600054610100900460ff16614dba5760405162461bcd60e51b815260040161055b9061553e565b611e1733613c44565b828054614dcf906153cb565b90600052602060002090601f016020900481019282614df15760008555614e37565b82601f10614e0a57805160ff1916838001178555614e37565b82800160010185558215614e37579182015b82811115614e37578251825591602001919060010190614e1c565b50614e43929150614e9c565b5090565b828054828255906000526020600020908101928215614e37579160200282015b82811115614e3757825182546001600160a01b0319166001600160a01b03909116178255602090920191600190910190614e67565b5b80821115614e435760008155600101614e9d565b634e487b7160e01b600052604160045260246000fd5b604051601f8201601f1916810167ffffffffffffffff81118282101715614ef057614ef0614eb1565b604052919050565b600082601f830112614f0957600080fd5b813567ffffffffffffffff811115614f2357614f23614eb1565b614f36601f8201601f1916602001614ec7565b818152846020838601011115614f4b57600080fd5b816020850160208301376000918101602001919091529392505050565b600060208284031215614f7a57600080fd5b813567ffffffffffffffff811115614f9157600080fd5b614f9d84828501614ef8565b949350505050565b6020808252825182820181905260009190848201906040850190845b81811015614fe65783516001600160a01b031683529284019291840191600101614fc1565b50909695505050505050565b80356001600160a01b038116811461500957600080fd5b919050565b6000806040838503121561502157600080fd5b61502a83614ff2565b9150602083013567ffffffffffffffff81111561504657600080fd5b61505285828601614ef8565b9150509250929050565b60005b8381101561507757818101518382015260200161505f565b83811115615086576000848401525b50505050565b600081518084526150a481602086016020860161505c565b601f01601f19169290920160200192915050565b60208152600082516101608060208501526150d761018085018361508c565b9150602085015160408501526040850151601f198584030160608601526150fe838261508c565b925050606085015161511b60808601826001600160a01b03169052565b50608085015160a085015260a085015160c085015260c085015160e085015260e085015161010061514f8187018315159052565b860151610120868101919091528601519050610140615178818701836001600160a01b03169052565b90950151151593019290925250919050565b60008060008060008060c087890312156151a357600080fd5b863567ffffffffffffffff808211156151bb57600080fd5b6151c78a838b01614ef8565b97506020915081890135818111156151de57600080fd5b6151ea8b828c01614ef8565b9750506040890135818111156151ff57600080fd5b8901601f81018b1361521057600080fd5b80358281111561522257615222614eb1565b8060051b9250615233848401614ec7565b818152928201840192848101908d85111561524d57600080fd5b928501925b848410156152725761526384614ff2565b82529285019290850190615252565b9a9d999c50999a60608101359a5060808101359960a09091013598509650505050505050565b6000602082840312156152aa57600080fd5b6152b382614ff2565b9392505050565b602081528151602082015260018060a01b0360208301511660408201526000604083015160e060608401526152f361010084018261508c565b90506060840151151560808401526080840151151560a084015260a0840151151560c084015260c084015160e08401528091505092915050565b6020815281516020820152600060208301516080604084015261535360a084018261508c565b60408501516001600160a01b0316606085810191909152909401516080909301929092525090919050565b6000806040838503121561539157600080fd5b82359150602083013567ffffffffffffffff81111561504657600080fd5b600082516153c181846020870161505c565b9190910192915050565b600181811c908216806153df57607f821691505b6020821081141561540057634e487b7160e01b600052602260045260246000fd5b50919050565b60208082526018908201527f546869732069732061205365637265742042616c6c6f74210000000000000000604082015260600190565b634e487b7160e01b600052601160045260246000fd5b6000828210156154655761546561543d565b500390565b60008261548757634e487b7160e01b600052601260045260246000fd5b500490565b634e487b7160e01b600052603260045260246000fd5b60006000198214156154b6576154b661543d565b5060010190565b600082198211156154d0576154d061543d565b500190565b6020815260006152b3602083018461508c565b60008160001904831182151516156155025761550261543d565b500290565b6020808252601a908201527f4572726f7220566f74657220526567697374726174696f6e2121000000000000604082015260600190565b6020808252602b908201527f496e697469616c697a61626c653a20636f6e7472616374206973206e6f74206960408201526a6e697469616c697a696e6760a81b60608201526080019056fea2646970667358221220a84439ed2210a789dedad353e1517884ab347ad9d731958b535c0972def5f81b64736f6c63430008080033","bytecodeSha1":"9fdde7f75502486b912922554ae106340d80aa20","type":"contract","abi":[{"anonymous":false,"inputs":[{"indexed":false,"internalType":"uint8","name":"version","type":"uint8"}],"name":"Initialized","type":"event"},{"anonymous":false,"inputs":[{"indexed":true,"internalType":"address","name":"previousOwner","type":"address"},{"indexed":true,"internalType":"address","name":"newOwner","type":"address"}],"name":"OwnershipTransferred","type":"event"},{"anonymous":false,"inputs":[{"indexed":false,"internalType":"address","name":"_voter","type":"address"}],"name":"assigned_voting_rights","type":"event"},{"anonymous":false,"inputs":[{"indexed":false,"internalType":"uint256","name":"_ballot_type","type":"uint256"}],"name":"created_ballot","type":"event"},{"anonymous":false,"inputs":[{"indexed":false,"internalType":"string","name":"_ballot_id","type":"string"}],"name":"ended_ballot","type":"event"},{"anonymous":false,"inputs":[{"indexed":false,"internalType":"bytes32","name":"_voter_unique_id","type":"bytes32"}],"name":"registered_voter","type":"event"},{"anonymous":false,"inputs":[{"indexed":false,"internalType":"bool","name":"_tie","type":"bool"}],"name":"tied_ballot","type":"event"},{"anonymous":false,"inputs":[{"indexed":true,"internalType":"address","name":"_candidate","type":"address"}],"name":"voted","type":"event"},{"inputs":[{"internalType":"address","name":"_voter","type":"address"},{"internalType":"string","name":"_ballot_id","type":"string"}],"name":"assign_voting_rights","outputs":[],"stateMutability":"nonpayable","type":"function"},{"inputs":[{"internalType":"string","name":"_ballot_id","type":"string"},{"internalType":"string","name":"_ballot_name","type":"string"},{"internalType":"address[]","name":"_ballot_candidates_addr","type":"address[]"},{"internalType":"uint256","name":"_ballot_type","type":"uint256"},{"internalType":"uint256","name":"_days","type":"uint256"},{"internalType":"uint256","name":"_registration_period","type":"uint256"}],"name":"create_ballot","outputs":[],"stateMutability":"payable","type":"function"},{"inputs":[{"internalType":"uint256","name":"_ballot_type","type":"uint256"},{"internalType":"string","name":"_ballot_name","type":"string"}],"name":"create_ballot_type","outputs":[],"stateMutability":"nonpayable","type":"function"},{"inputs":[{"internalType":"string","name":"_ballot_id","type":"string"}],"name":"end_ballot","outputs":[],"stateMutability":"nonpayable","type":"function"},{"inputs":[{"internalType":"string","name":"_ballot_id","type":"string"}],"name":"get_ballot","outputs":[{"components":[{"internalType":"string","name":"ballot_id","type":"string"},{"internalType":"uint256","name":"ballot_type","type":"uint256"},{"internalType":"string","name":"ballot_name","type":"string"},{"internalType":"address","name":"chair","type":"address"},{"internalType":"uint256","name":"voters_count","type":"uint256"},{"internalType":"uint256","name":"open_date","type":"uint256"},{"internalType":"uint256","name":"_days","type":"uint256"},{"internalType":"bool","name":"expired","type":"bool"},{"internalType":"uint256","name":"registration_window","type":"uint256"},{"internalType":"address","name":"current_winner","type":"address"},{"internalType":"bool","name":"tie","type":"bool"}],"internalType":"struct IJamiiFactory.Ballot","name":"","type":"tuple"}],"stateMutability":"view","type":"function"},{"inputs":[{"internalType":"address","name":"_candidate_addr","type":"address"}],"name":"get_candidate","outputs":[{"components":[{"internalType":"uint256","name":"candidate_id","type":"uint256"},{"internalType":"string","name":"ballot_id","type":"string"},{"internalType":"address","name":"candidate_address","type":"address"},{"internalType":"uint256","name":"vote_count","type":"uint256"}],"internalType":"struct IJamiiFactory.Candidate","name":"","type":"tuple"}],"stateMutability":"view","type":"function"},{"inputs":[{"internalType":"string","name":"_ballot_id","type":"string"}],"name":"get_candidates","outputs":[{"internalType":"address[]","name":"","type":"address[]"}],"stateMutability":"view","type":"function"},{"inputs":[{"internalType":"address","name":"_voter_address","type":"address"}],"name":"get_voter","outputs":[{"components":[{"internalType":"uint256","name":"voter_id","type":"uint256"},{"internalType":"address","name":"voter_address","type":"address"},{"internalType":"string","name":"ballot_id","type":"string"},{"internalType":"bool","name":"registered","type":"bool"},{"internalType":"bool","name":"rights","type":"bool"},{"internalType":"bool","name":"voted","type":"bool"},{"internalType":"bytes32","name":"unique_voter_id","type":"bytes32"}],"internalType":"struct IJamiiFactory.Voter","name":"","type":"tuple"}],"stateMutability":"view","type":"function"},{"inputs":[{"internalType":"string","name":"_ballot_id","type":"string"}],"name":"get_voters","outputs":[{"internalType":"address[]","name":"","type":"address[]"}],"stateMutability":"view","type":"function"},{"inputs":[{"internalType":"string","name":"_ballot_id","type":"string"}],"name":"get_winner","outputs":[{"internalType":"address","name":"","type":"address"}],"stateMutability":"nonpayable","type":"function"},{"inputs":[{"internalType":"string","name":"_arbitrary_text","type":"string"}],"name":"initialize","outputs":[],"stateMutability":"nonpayable","type":"function"},{"inputs":[],"name":"owner","outputs":[{"internalType":"address","name":"","type":"address"}],"stateMutability":"view","type":"function"},{"inputs":[{"internalType":"uint256","name":"_id_number","type":"uint256"},{"internalType":"string","name":"_ballot_id","type":"string"}],"name":"register_voter","outputs":[{"internalType":"bytes32","name":"","type":"bytes32"}],"stateMutability":"nonpayable","type":"function"},{"inputs":[],"name":"renounceOwnership","outputs":[],"stateMutability":"nonpayable","type":"function"},{"inputs":[{"internalType":"address","name":"newOwner","type":"address"}],"name":"transferOwnership","outputs":[],"stateMutability":"nonpayable","type":"function"},{"inputs":[{"internalType":"address","name":"_candidate","type":"address"},{"internalType":"string","name":"_ballot_id","type":"string"}],"name":"vote","outputs":[],"stateMutability":"nonpayable","type":"function"},{"inputs":[],"name":"withdraw","outputs":[],"stateMutability":"nonpayable","type":"function"}],"compiler":{"version":"0.8.8+commit.dddeac2f","evm_version":"istanbul","optimizer":{"enabled":true,"runs":200}},"contractName":"JamiiFactory","language":"Solidity","natspec":{"methods":{"owner()":{"details":"Returns the address of the current owner."},"renounceOwnership()":{"details":"Leaves the contract without owner. It will not be possible to call `onlyOwner` functions anymore. Can only be called by the current owner. NOTE: Renouncing ownership will leave the contract without an owner, thereby removing any functionality that is only available to the owner."},"transferOwnership(address)":{"details":"Transfers ownership of the contract to a new account (`newOwner`). Can only be called by the current owner."},"assign_voting_rights(address,string)":{"notice":"VOTING RIGHTS *"},"get_ballot(string)":{"notice":"GETTERS *"}},"kind":"dev","version":1},"opcodes":"PUSH1 0x80 PUSH1 0x40 MSTORE PUSH1 0x4 CALLDATASIZE LT PUSH2 0xFE JUMPI PUSH1 0x0 CALLDATALOAD PUSH1 0xE0 SHR DUP1 PUSH4 0x89212D44 GT PUSH2 0x95 JUMPI DUP1 PUSH4 0xE812C6F4 GT PUSH2 0x64 JUMPI DUP1 PUSH4 0xE812C6F4 EQ PUSH2 0x2B5 JUMPI DUP1 PUSH4 0xE8636516 EQ PUSH2 0x2D5 JUMPI DUP1 PUSH4 0xF2FDE38B EQ PUSH2 0x303 JUMPI DUP1 PUSH4 0xF62D1888 EQ PUSH2 0x323 JUMPI DUP1 PUSH4 0xF9EFAC79 EQ PUSH2 0x343 JUMPI PUSH1 0x0 DUP1 REVERT JUMPDEST DUP1 PUSH4 0x89212D44 EQ PUSH2 0x21D JUMPI DUP1 PUSH4 0x8DA5CB5B EQ PUSH2 0x24A JUMPI DUP1 PUSH4 0x953EF76D EQ PUSH2 0x268 JUMPI DUP1 PUSH4 0xADBDBC97 EQ PUSH2 0x295 JUMPI PUSH1 0x0 DUP1 REVERT JUMPDEST DUP1 PUSH4 0x3CCFD60B GT PUSH2 0xD1 JUMPI DUP1 PUSH4 0x3CCFD60B EQ PUSH2 0x1C0 JUMPI DUP1 PUSH4 0x697319D7 EQ PUSH2 0x1D5 JUMPI DUP1 PUSH4 0x6CD5D442 EQ PUSH2 0x1F5 JUMPI DUP1 PUSH4 0x715018A6 EQ PUSH2 0x208 JUMPI PUSH1 0x0 DUP1 REVERT JUMPDEST DUP1 PUSH4 0x143B02F2 EQ PUSH2 0x103 JUMPI DUP1 PUSH4 0x16397337 EQ PUSH2 0x139 JUMPI DUP1 PUSH4 0x1BF533A4 EQ PUSH2 0x171 JUMPI DUP1 PUSH4 0x3A99495E EQ PUSH2 0x193 JUMPI JUMPDEST PUSH1 0x0 DUP1 REVERT JUMPDEST CALLVALUE DUP1 ISZERO PUSH2 0x10F JUMPI PUSH1 0x0 DUP1 REVERT JUMPDEST POP PUSH2 0x123 PUSH2 0x11E CALLDATASIZE PUSH1 0x4 PUSH2 0x4F68 JUMP JUMPDEST PUSH2 0x363 JUMP JUMPDEST PUSH1 0x40 MLOAD PUSH2 0x130 SWAP2 SWAP1 PUSH2 0x4FA5 JUMP JUMPDEST PUSH1 0x40 MLOAD DUP1 SWAP2 SUB SWAP1 RETURN JUMPDEST CALLVALUE DUP1 ISZERO PUSH2 0x145 JUMPI PUSH1 0x0 DUP1 REVERT JUMPDEST POP PUSH2 0x159 PUSH2 0x154 CALLDATASIZE PUSH1 0x4 PUSH2 0x4F68 JUMP JUMPDEST PUSH2 0x5DF JUMP JUMPDEST PUSH1 0x40 MLOAD PUSH1 0x1 PUSH1 0x1 PUSH1 0xA0 SHL SUB SWAP1 SWAP2 AND DUP2 MSTORE PUSH1 0x20 ADD PUSH2 0x130 JUMP JUMPDEST CALLVALUE DUP1 ISZERO PUSH2 0x17D JUMPI PUSH1 0x0 DUP1 REVERT JUMPDEST POP PUSH2 0x191 PUSH2 0x18C CALLDATASIZE PUSH1 0x4 PUSH2 0x500E JUMP JUMPDEST PUSH2 0xAD2 JUMP JUMPDEST STOP JUMPDEST CALLVALUE DUP1 ISZERO PUSH2 0x19F JUMPI PUSH1 0x0 DUP1 REVERT JUMPDEST POP PUSH2 0x1B3 PUSH2 0x1AE CALLDATASIZE PUSH1 0x4 PUSH2 0x4F68 JUMP JUMPDEST PUSH2 0x1128 JUMP JUMPDEST PUSH1 0x40 MLOAD PUSH2 0x130 SWAP2 SWAP1 PUSH2 0x50B8 JUMP JUMPDEST CALLVALUE DUP1 ISZERO PUSH2 0x1CC JUMPI PUSH1 0x0 DUP1 REVERT JUMPDEST POP PUSH2 0x191 PUSH2 0x155F JUMP JUMPDEST CALLVALUE DUP1 ISZERO PUSH2 0x1E1 JUMPI PUSH1 0x0 DUP1 REVERT JUMPDEST POP PUSH2 0x191 PUSH2 0x1F0 CALLDATASIZE PUSH1 0x4 PUSH2 0x500E JUMP JUMPDEST PUSH2 0x15A3 JUMP JUMPDEST PUSH2 0x191 PUSH2 0x203 CALLDATASIZE PUSH1 0x4 PUSH2 0x518A JUMP JUMPDEST PUSH2 0x197F JUMP JUMPDEST CALLVALUE DUP1 ISZERO PUSH2 0x214 JUMPI PUSH1 0x0 DUP1 REVERT JUMPDEST POP PUSH2 0x191 PUSH2 0x1E05 JUMP JUMPDEST CALLVALUE DUP1 ISZERO PUSH2 0x229 JUMPI PUSH1 0x0 DUP1 REVERT JUMPDEST POP PUSH2 0x23D PUSH2 0x238 CALLDATASIZE PUSH1 0x4 PUSH2 0x5298 JUMP JUMPDEST PUSH2 0x1E19 JUMP JUMPDEST PUSH1 0x40 MLOAD PUSH2 0x130 SWAP2 SWAP1 PUSH2 0x52BA JUMP JUMPDEST CALLVALUE DUP1 ISZERO PUSH2 0x256 JUMPI PUSH1 0x0 DUP1 REVERT JUMPDEST POP PUSH1 0x33 SLOAD PUSH1 0x1 PUSH1 0x1 PUSH1 0xA0 SHL SUB AND PUSH2 0x159 JUMP JUMPDEST CALLVALUE DUP1 ISZERO PUSH2 0x274 JUMPI PUSH1 0x0 DUP1 REVERT JUMPDEST POP PUSH2 0x288 PUSH2 0x283 CALLDATASIZE PUSH1 0x4 PUSH2 0x5298 JUMP JUMPDEST PUSH2 0x2167 JUMP JUMPDEST PUSH1 0x40 MLOAD PUSH2 0x130 SWAP2 SWAP1 PUSH2 0x532D JUMP JUMPDEST CALLVALUE DUP1 ISZERO PUSH2 0x2A1 JUMPI PUSH1 0x0 DUP1 REVERT JUMPDEST POP PUSH2 0x191 PUSH2 0x2B0 CALLDATASIZE PUSH1 0x4 PUSH2 0x537E JUMP JUMPDEST PUSH2 0x2485 JUMP JUMPDEST CALLVALUE DUP1 ISZERO PUSH2 0x2C1 JUMPI PUSH1 0x0 DUP1 REVERT JUMPDEST POP PUSH2 0x191 PUSH2 0x2D0 CALLDATASIZE PUSH1 0x4 PUSH2 0x4F68 JUMP JUMPDEST PUSH2 0x2541 JUMP JUMPDEST CALLVALUE DUP1 ISZERO PUSH2 0x2E1 JUMPI PUSH1 0x0 DUP1 REVERT JUMPDEST POP PUSH2 0x2F5 PUSH2 0x2F0 CALLDATASIZE PUSH1 0x4 PUSH2 0x537E JUMP JUMPDEST PUSH2 0x267E JUMP JUMPDEST PUSH1 0x40 MLOAD SWAP1 DUP2 MSTORE PUSH1 0x20 ADD PUSH2 0x130 JUMP JUMPDEST CALLVALUE DUP1 ISZERO PUSH2 0x30F JUMPI PUSH1 0x0 DUP1 REVERT JUMPDEST POP PUSH2 0x191 PUSH2 0x31E CALLDATASIZE PUSH1 0x4 PUSH2 0x5298 JUMP JUMPDEST PUSH2 0x2CCD JUMP JUMPDEST CALLVALUE DUP1 ISZERO PUSH2 0x32F JUMPI PUSH1 0x0 DUP1 REVERT JUMPDEST POP PUSH2 0x191 PUSH2 0x33E CALLDATASIZE PUSH1 0x4 PUSH2 0x4F68 JUMP JUMPDEST PUSH2 0x2D43 JUMP JUMPDEST CALLVALUE DUP1 ISZERO PUSH2 0x34F JUMPI PUSH1 0x0 DUP1 REVERT JUMPDEST POP PUSH2 0x123 PUSH2 0x35E CALLDATASIZE PUSH1 0x4 PUSH2 0x4F68 JUMP JUMPDEST PUSH2 0x2E55 JUMP JUMPDEST PUSH1 0x60 DUP2 PUSH1 0x0 PUSH1 0x6F DUP3 PUSH1 0x40 MLOAD PUSH2 0x378 SWAP2 SWAP1 PUSH2 0x53AF JUMP JUMPDEST SWAP1 DUP2 MSTORE PUSH1 0x20 ADD PUSH1 0x40 MLOAD DUP1 SWAP2 SUB SWAP1 KECCAK256 PUSH1 0x40 MLOAD DUP1 PUSH2 0x160 ADD PUSH1 0x40 MSTORE SWAP1 DUP2 PUSH1 0x0 DUP3 ADD DUP1 SLOAD PUSH2 0x3A2 SWAP1 PUSH2 0x53CB JUMP JUMPDEST DUP1 PUSH1 0x1F ADD PUSH1 0x20 DUP1 SWAP2 DIV MUL PUSH1 0x20 ADD PUSH1 0x40 MLOAD SWAP1 DUP2 ADD PUSH1 0x40 MSTORE DUP1 SWAP3 SWAP2 SWAP1 DUP2 DUP2 MSTORE PUSH1 0x20 ADD DUP3 DUP1 SLOAD PUSH2 0x3CE SWAP1 PUSH2 0x53CB JUMP JUMPDEST DUP1 ISZERO PUSH2 0x41B JUMPI DUP1 PUSH1 0x1F LT PUSH2 0x3F0 JUMPI PUSH2 0x100 DUP1 DUP4 SLOAD DIV MUL DUP4 MSTORE SWAP2 PUSH1 0x20 ADD SWAP2 PUSH2 0x41B JUMP JUMPDEST DUP3 ADD SWAP2 SWAP1 PUSH1 0x0 MSTORE PUSH1 0x20 PUSH1 0x0 KECCAK256 SWAP1 JUMPDEST DUP2 SLOAD DUP2 MSTORE SWAP1 PUSH1 0x1 ADD SWAP1 PUSH1 0x20 ADD DUP1 DUP4 GT PUSH2 0x3FE JUMPI DUP3 SWAP1 SUB PUSH1 0x1F AND DUP3 ADD SWAP2 JUMPDEST POP POP POP POP POP DUP2 MSTORE PUSH1 0x20 ADD PUSH1 0x1 DUP3 ADD SLOAD DUP2 MSTORE PUSH1 0x20 ADD PUSH1 0x2 DUP3 ADD DUP1 SLOAD PUSH2 0x43E SWAP1 PUSH2 0x53CB JUMP JUMPDEST DUP1 PUSH1 0x1F ADD PUSH1 0x20 DUP1 SWAP2 DIV MUL PUSH1 0x20 ADD PUSH1 0x40 MLOAD SWAP1 DUP2 ADD PUSH1 0x40 MSTORE DUP1 SWAP3 SWAP2 SWAP1 DUP2 DUP2 MSTORE PUSH1 0x20 ADD DUP3 DUP1 SLOAD PUSH2 0x46A SWAP1 PUSH2 0x53CB JUMP JUMPDEST DUP1 ISZERO PUSH2 0x4B7 JUMPI DUP1 PUSH1 0x1F LT PUSH2 0x48C JUMPI PUSH2 0x100 DUP1 DUP4 SLOAD DIV MUL DUP4 MSTORE SWAP2 PUSH1 0x20 ADD SWAP2 PUSH2 0x4B7 JUMP JUMPDEST DUP3 ADD SWAP2 SWAP1 PUSH1 0x0 MSTORE PUSH1 0x20 PUSH1 0x0 KECCAK256 SWAP1 JUMPDEST DUP2 SLOAD DUP2 MSTORE SWAP1 PUSH1 0x1 ADD SWAP1 PUSH1 0x20 ADD DUP1 DUP4 GT PUSH2 0x49A JUMPI DUP3 SWAP1 SUB PUSH1 0x1F AND DUP3 ADD SWAP2 JUMPDEST POP POP POP SWAP2 DUP4 MSTORE POP POP PUSH1 0x3 DUP3 DUP2 ADD SLOAD PUSH1 0x1 PUSH1 0x1 PUSH1 0xA0 SHL SUB SWAP1 DUP2 AND PUSH1 0x20 DUP1 DUP6 ADD SWAP2 SWAP1 SWAP2 MSTORE PUSH1 0x4 DUP6 ADD SLOAD PUSH1 0x40 DUP6 ADD MSTORE PUSH1 0x5 DUP6 ADD SLOAD PUSH1 0x60 DUP6 ADD MSTORE PUSH1 0x6 DUP6 ADD SLOAD PUSH1 0x80 DUP6 ADD MSTORE PUSH1 0x7 DUP6 ADD SLOAD PUSH1 0xFF SWAP1 DUP2 AND ISZERO ISZERO PUSH1 0xA0 DUP7 ADD MSTORE PUSH1 0x8 DUP7 ADD SLOAD PUSH1 0xC0 DUP7 ADD MSTORE PUSH1 0x9 SWAP1 SWAP6 ADD SLOAD SWAP2 DUP3 AND PUSH1 0xE0 DUP6 ADD MSTORE PUSH1 0x1 PUSH1 0xA0 SHL SWAP1 SWAP2 DIV SWAP1 SWAP4 AND ISZERO ISZERO PUSH2 0x100 SWAP1 SWAP3 ADD SWAP2 SWAP1 SWAP2 MSTORE SWAP1 DUP3 ADD MLOAD SWAP2 SWAP3 POP GT PUSH2 0x564 JUMPI PUSH1 0x40 MLOAD PUSH3 0x461BCD PUSH1 0xE5 SHL DUP2 MSTORE PUSH1 0x4 ADD PUSH2 0x55B SWAP1 PUSH2 0x5406 JUMP JUMPDEST PUSH1 0x40 MLOAD DUP1 SWAP2 SUB SWAP1 REVERT JUMPDEST PUSH1 0x71 DUP5 PUSH1 0x40 MLOAD PUSH2 0x574 SWAP2 SWAP1 PUSH2 0x53AF JUMP JUMPDEST SWAP1 DUP2 MSTORE PUSH1 0x40 DUP1 MLOAD SWAP2 DUP3 SWAP1 SUB PUSH1 0x20 SWAP1 DUP2 ADD DUP4 KECCAK256 DUP1 SLOAD DUP1 DUP4 MUL DUP6 ADD DUP4 ADD SWAP1 SWAP4 MSTORE DUP3 DUP5 MSTORE SWAP2 SWAP1 DUP4 ADD DUP3 DUP3 DUP1 ISZERO PUSH2 0x5D0 JUMPI PUSH1 0x20 MUL DUP3 ADD SWAP2 SWAP1 PUSH1 0x0 MSTORE PUSH1 0x20 PUSH1 0x0 KECCAK256 SWAP1 JUMPDEST DUP2 SLOAD PUSH1 0x1 PUSH1 0x1 PUSH1 0xA0 SHL SUB AND DUP2 MSTORE PUSH1 0x1 SWAP1 SWAP2 ADD SWAP1 PUSH1 0x20 ADD DUP1 DUP4 GT PUSH2 0x5B2 JUMPI JUMPDEST POP POP POP POP POP SWAP3 POP JUMPDEST POP POP SWAP2 SWAP1 POP JUMP JUMPDEST PUSH1 0x0 DUP2 PUSH1 0x0 PUSH1 0x6F DUP3 PUSH1 0x40 MLOAD PUSH2 0x5F4 SWAP2 SWAP1 PUSH2 0x53AF JUMP JUMPDEST SWAP1 DUP2 MSTORE PUSH1 0x20 ADD PUSH1 0x40 MLOAD DUP1 SWAP2 SUB SWAP1 KECCAK256 PUSH1 0x40 MLOAD DUP1 PUSH2 0x160 ADD PUSH1 0x40 MSTORE SWAP1 DUP2 PUSH1 0x0 DUP3 ADD DUP1 SLOAD PUSH2 0x61E SWAP1 PUSH2 0x53CB JUMP JUMPDEST DUP1 PUSH1 0x1F ADD PUSH1 0x20 DUP1 SWAP2 DIV MUL PUSH1 0x20 ADD PUSH1 0x40 MLOAD SWAP1 DUP2 ADD PUSH1 0x40 MSTORE DUP1 SWAP3 SWAP2 SWAP1 DUP2 DUP2 MSTORE PUSH1 0x20 ADD DUP3 DUP1 SLOAD PUSH2 0x64A SWAP1 PUSH2 0x53CB JUMP JUMPDEST DUP1 ISZERO PUSH2 0x697 JUMPI DUP1 PUSH1 0x1F LT PUSH2 0x66C JUMPI PUSH2 0x100 DUP1 DUP4 SLOAD DIV MUL DUP4 MSTORE SWAP2 PUSH1 0x20 ADD SWAP2 PUSH2 0x697 JUMP JUMPDEST DUP3 ADD SWAP2 SWAP1 PUSH1 0x0 MSTORE PUSH1 0x20 PUSH1 0x0 KECCAK256 SWAP1 JUMPDEST DUP2 SLOAD DUP2 MSTORE SWAP1 PUSH1 0x1 ADD SWAP1 PUSH1 0x20 ADD DUP1 DUP4 GT PUSH2 0x67A JUMPI DUP3 SWAP1 SUB PUSH1 0x1F AND DUP3 ADD SWAP2 JUMPDEST POP POP POP POP POP DUP2 MSTORE PUSH1 0x20 ADD PUSH1 0x1 DUP3 ADD SLOAD DUP2 MSTORE PUSH1 0x20 ADD PUSH1 0x2 DUP3 ADD DUP1 SLOAD PUSH2 0x6BA SWAP1 PUSH2 0x53CB JUMP JUMPDEST DUP1 PUSH1 0x1F ADD PUSH1 0x20 DUP1 SWAP2 DIV MUL PUSH1 0x20 ADD PUSH1 0x40 MLOAD SWAP1 DUP2 ADD PUSH1 0x40 MSTORE DUP1 SWAP3 SWAP2 SWAP1 DUP2 DUP2 MSTORE PUSH1 0x20 ADD DUP3 DUP1 SLOAD PUSH2 0x6E6 SWAP1 PUSH2 0x53CB JUMP JUMPDEST DUP1 ISZERO PUSH2 0x733 JUMPI DUP1 PUSH1 0x1F LT PUSH2 0x708 JUMPI PUSH2 0x100 DUP1 DUP4 SLOAD DIV MUL DUP4 MSTORE SWAP2 PUSH1 0x20 ADD SWAP2 PUSH2 0x733 JUMP JUMPDEST DUP3 ADD SWAP2 SWAP1 PUSH1 0x0 MSTORE PUSH1 0x20 PUSH1 0x0 KECCAK256 SWAP1 JUMPDEST DUP2 SLOAD DUP2 MSTORE SWAP1 PUSH1 0x1 ADD SWAP1 PUSH1 0x20 ADD DUP1 DUP4 GT PUSH2 0x716 JUMPI DUP3 SWAP1 SUB PUSH1 0x1F AND DUP3 ADD SWAP2 JUMPDEST POP POP POP SWAP2 DUP4 MSTORE POP POP PUSH1 0x3 DUP3 DUP2 ADD SLOAD PUSH1 0x1 PUSH1 0x1 PUSH1 0xA0 SHL SUB SWAP1 DUP2 AND PUSH1 0x20 DUP1 DUP6 ADD SWAP2 SWAP1 SWAP2 MSTORE PUSH1 0x4 DUP6 ADD SLOAD PUSH1 0x40 DUP6 ADD MSTORE PUSH1 0x5 DUP6 ADD SLOAD PUSH1 0x60 DUP6 ADD MSTORE PUSH1 0x6 DUP6 ADD SLOAD PUSH1 0x80 DUP6 ADD MSTORE PUSH1 0x7 DUP6 ADD SLOAD PUSH1 0xFF SWAP1 DUP2 AND ISZERO ISZERO PUSH1 0xA0 DUP7 ADD MSTORE PUSH1 0x8 DUP7 ADD SLOAD PUSH1 0xC0 DUP7 ADD MSTORE PUSH1 0x9 SWAP1 SWAP6 ADD SLOAD SWAP2 DUP3 AND PUSH1 0xE0 DUP6 ADD MSTORE PUSH1 0x1 PUSH1 0xA0 SHL SWAP1 SWAP2 DIV SWAP1 SWAP4 AND ISZERO ISZERO PUSH2 0x100 SWAP1 SWAP3 ADD SWAP2 SWAP1 SWAP2 MSTORE SWAP1 DUP3 ADD MLOAD SWAP2 SWAP3 POP GT PUSH2 0x7D7 JUMPI PUSH1 0x40 MLOAD PUSH3 0x461BCD PUSH1 0xE5 SHL DUP2 MSTORE PUSH1 0x4 ADD PUSH2 0x55B SWAP1 PUSH2 0x5406 JUMP JUMPDEST PUSH1 0x0 PUSH1 0x6F DUP6 PUSH1 0x40 MLOAD PUSH2 0x7E9 SWAP2 SWAP1 PUSH2 0x53AF JUMP JUMPDEST SWAP1 DUP2 MSTORE PUSH1 0x20 ADD PUSH1 0x40 MLOAD DUP1 SWAP2 SUB SWAP1 KECCAK256 PUSH1 0x40 MLOAD DUP1 PUSH2 0x160 ADD PUSH1 0x40 MSTORE SWAP1 DUP2 PUSH1 0x0 DUP3 ADD DUP1 SLOAD PUSH2 0x813 SWAP1 PUSH2 0x53CB JUMP JUMPDEST DUP1 PUSH1 0x1F ADD PUSH1 0x20 DUP1 SWAP2 DIV MUL PUSH1 0x20 ADD PUSH1 0x40 MLOAD SWAP1 DUP2 ADD PUSH1 0x40 MSTORE DUP1 SWAP3 SWAP2 SWAP1 DUP2 DUP2 MSTORE PUSH1 0x20 ADD DUP3 DUP1 SLOAD PUSH2 0x83F SWAP1 PUSH2 0x53CB JUMP JUMPDEST DUP1 ISZERO PUSH2 0x88C JUMPI DUP1 PUSH1 0x1F LT PUSH2 0x861 JUMPI PUSH2 0x100 DUP1 DUP4 SLOAD DIV MUL DUP4 MSTORE SWAP2 PUSH1 0x20 ADD SWAP2 PUSH2 0x88C JUMP JUMPDEST DUP3 ADD SWAP2 SWAP1 PUSH1 0x0 MSTORE PUSH1 0x20 PUSH1 0x0 KECCAK256 SWAP1 JUMPDEST DUP2 SLOAD DUP2 MSTORE SWAP1 PUSH1 0x1 ADD SWAP1 PUSH1 0x20 ADD DUP1 DUP4 GT PUSH2 0x86F JUMPI DUP3 SWAP1 SUB PUSH1 0x1F AND DUP3 ADD SWAP2 JUMPDEST POP POP POP POP POP DUP2 MSTORE PUSH1 0x20 ADD PUSH1 0x1 DUP3 ADD SLOAD DUP2 MSTORE PUSH1 0x20 ADD PUSH1 0x2 DUP3 ADD DUP1 SLOAD PUSH2 0x8AF SWAP1 PUSH2 0x53CB JUMP JUMPDEST DUP1 PUSH1 0x1F ADD PUSH1 0x20 DUP1 SWAP2 DIV MUL PUSH1 0x20 ADD PUSH1 0x40 MLOAD SWAP1 DUP2 ADD PUSH1 0x40 MSTORE DUP1 SWAP3 SWAP2 SWAP1 DUP2 DUP2 MSTORE PUSH1 0x20 ADD DUP3 DUP1 SLOAD PUSH2 0x8DB SWAP1 PUSH2 0x53CB JUMP JUMPDEST DUP1 ISZERO PUSH2 0x928 JUMPI DUP1 PUSH1 0x1F LT PUSH2 0x8FD JUMPI PUSH2 0x100 DUP1 DUP4 SLOAD DIV MUL DUP4 MSTORE SWAP2 PUSH1 0x20 ADD SWAP2 PUSH2 0x928 JUMP JUMPDEST DUP3 ADD SWAP2 SWAP1 PUSH1 0x0 MSTORE PUSH1 0x20 PUSH1 0x0 KECCAK256 SWAP1 JUMPDEST DUP2 SLOAD DUP2 MSTORE SWAP1 PUSH1 0x1 ADD SWAP1 PUSH1 0x20 ADD DUP1 DUP4 GT PUSH2 0x90B JUMPI DUP3 SWAP1 SUB PUSH1 0x1F AND DUP3 ADD SWAP2 JUMPDEST POP POP POP SWAP2 DUP4 MSTORE POP POP PUSH1 0x3 DUP3 ADD SLOAD PUSH1 0x1 PUSH1 0x1 PUSH1 0xA0 SHL SUB SWAP1 DUP2 AND PUSH1 0x20 DUP4 ADD MSTORE PUSH1 0x4 DUP4 ADD SLOAD PUSH1 0x40 DUP4 ADD MSTORE PUSH1 0x5 DUP4 ADD SLOAD PUSH1 0x60 DUP4 ADD MSTORE PUSH1 0x6 DUP4 ADD SLOAD PUSH1 0x80 DUP4 ADD MSTORE PUSH1 0x7 DUP4 ADD SLOAD PUSH1 0xFF SWAP1 DUP2 AND ISZERO ISZERO PUSH1 0xA0 DUP1 DUP6 ADD SWAP2 SWAP1 SWAP2 MSTORE PUSH1 0x8 DUP6 ADD SLOAD PUSH1 0xC0 DUP6 ADD MSTORE PUSH1 0x9 SWAP1 SWAP5 ADD SLOAD SWAP2 DUP3 AND PUSH1 0xE0 DUP5 ADD MSTORE PUSH1 0x1 PUSH1 0xA0 SHL SWAP1 SWAP2 DIV AND ISZERO ISZERO PUSH2 0x100 SWAP1 SWAP2 ADD MSTORE DUP2 ADD MLOAD SWAP1 SWAP2 POP PUSH1 0x0 SWAP1 PUSH1 0x18 SWAP1 PUSH1 0x3C SWAP1 DUP2 SWAP1 PUSH2 0x9BD SWAP1 TIMESTAMP PUSH2 0x5453 JUMP JUMPDEST PUSH2 0x9C7 SWAP2 SWAP1 PUSH2 0x546A JUMP JUMPDEST PUSH2 0x9D1 SWAP2 SWAP1 PUSH2 0x546A JUMP JUMPDEST PUSH2 0x9DB SWAP2 SWAP1 PUSH2 0x546A JUMP JUMPDEST SWAP1 POP PUSH1 0x0 PUSH1 0x1 PUSH1 0x1 PUSH1 0xA0 SHL SUB AND PUSH1 0x6F DUP8 PUSH1 0x40 MLOAD PUSH2 0x9F8 SWAP2 SWAP1 PUSH2 0x53AF JUMP JUMPDEST SWAP1 DUP2 MSTORE PUSH1 0x40 MLOAD SWAP1 DUP2 SWAP1 SUB PUSH1 0x20 ADD SWAP1 KECCAK256 PUSH1 0x9 ADD SLOAD PUSH1 0x1 PUSH1 0x1 PUSH1 0xA0 SHL SUB AND EQ DUP1 ISZERO SWAP1 PUSH2 0xA25 JUMPI POP DUP2 PUSH1 0xC0 ADD MLOAD DUP2 GT JUMPDEST PUSH2 0xA6A JUMPI PUSH1 0x40 MLOAD PUSH3 0x461BCD PUSH1 0xE5 SHL DUP2 MSTORE PUSH1 0x20 PUSH1 0x4 DUP3 ADD MSTORE PUSH1 0x16 PUSH1 0x24 DUP3 ADD MSTORE PUSH22 0x4572726F722047657474696E672057696E6E65722121 PUSH1 0x50 SHL PUSH1 0x44 DUP3 ADD MSTORE PUSH1 0x64 ADD PUSH2 0x55B JUMP JUMPDEST PUSH2 0x140 DUP3 ADD MLOAD ISZERO ISZERO PUSH1 0x1 EQ ISZERO PUSH2 0xAC5 JUMPI PUSH32 0xAF9C5487A5254285C7E0CB270C5884FB3C73E8BF058E80FC0CF380DC6908FAC6 DUP3 PUSH2 0x140 ADD MLOAD PUSH1 0x40 MLOAD PUSH2 0xAB2 SWAP2 ISZERO ISZERO DUP2 MSTORE PUSH1 0x20 ADD SWAP1 JUMP JUMPDEST PUSH1 0x40 MLOAD DUP1 SWAP2 SUB SWAP1 LOG1 PUSH1 0x0 SWAP5 POP POP POP PUSH2 0x5D8 JUMP JUMPDEST POP PUSH2 0x120 ADD MLOAD SWAP3 POP PUSH2 0x5D8 JUMP JUMPDEST DUP2 DUP2 PUSH1 0x0 PUSH1 0x6F DUP3 PUSH1 0x40 MLOAD PUSH2 0xAE6 SWAP2 SWAP1 PUSH2 0x53AF JUMP JUMPDEST SWAP1 DUP2 MSTORE PUSH1 0x20 ADD PUSH1 0x40 MLOAD DUP1 SWAP2 SUB SWAP1 KECCAK256 PUSH1 0x40 MLOAD DUP1 PUSH2 0x160 ADD PUSH1 0x40 MSTORE SWAP1 DUP2 PUSH1 0x0 DUP3 ADD DUP1 SLOAD PUSH2 0xB10 SWAP1 PUSH2 0x53CB JUMP JUMPDEST DUP1 PUSH1 0x1F ADD PUSH1 0x20 DUP1 SWAP2 DIV MUL PUSH1 0x20 ADD PUSH1 0x40 MLOAD SWAP1 DUP2 ADD PUSH1 0x40 MSTORE DUP1 SWAP3 SWAP2 SWAP1 DUP2 DUP2 MSTORE PUSH1 0x20 ADD DUP3 DUP1 SLOAD PUSH2 0xB3C SWAP1 PUSH2 0x53CB JUMP JUMPDEST DUP1 ISZERO PUSH2 0xB89 JUMPI DUP1 PUSH1 0x1F LT PUSH2 0xB5E JUMPI PUSH2 0x100 DUP1 DUP4 SLOAD DIV MUL DUP4 MSTORE SWAP2 PUSH1 0x20 ADD SWAP2 PUSH2 0xB89 JUMP JUMPDEST DUP3 ADD SWAP2 SWAP1 PUSH1 0x0 MSTORE PUSH1 0x20 PUSH1 0x0 KECCAK256 SWAP1 JUMPDEST DUP2 SLOAD DUP2 MSTORE SWAP1 PUSH1 0x1 ADD SWAP1 PUSH1 0x20 ADD DUP1 DUP4 GT PUSH2 0xB6C JUMPI DUP3 SWAP1 SUB PUSH1 0x1F AND DUP3 ADD SWAP2 JUMPDEST POP POP POP POP POP DUP2 MSTORE PUSH1 0x20 ADD PUSH1 0x1 DUP3 ADD SLOAD DUP2 MSTORE PUSH1 0x20 ADD PUSH1 0x2 DUP3 ADD DUP1 SLOAD PUSH2 0xBAC SWAP1 PUSH2 0x53CB JUMP JUMPDEST DUP1 PUSH1 0x1F ADD PUSH1 0x20 DUP1 SWAP2 DIV MUL PUSH1 0x20 ADD PUSH1 0x40 MLOAD SWAP1 DUP2 ADD PUSH1 0x40 MSTORE DUP1 SWAP3 SWAP2 SWAP1 DUP2 DUP2 MSTORE PUSH1 0x20 ADD DUP3 DUP1 SLOAD PUSH2 0xBD8 SWAP1 PUSH2 0x53CB JUMP JUMPDEST DUP1 ISZERO PUSH2 0xC25 JUMPI DUP1 PUSH1 0x1F LT PUSH2 0xBFA JUMPI PUSH2 0x100 DUP1 DUP4 SLOAD DIV MUL DUP4 MSTORE SWAP2 PUSH1 0x20 ADD SWAP2 PUSH2 0xC25 JUMP JUMPDEST DUP3 ADD SWAP2 SWAP1 PUSH1 0x0 MSTORE PUSH1 0x20 PUSH1 0x0 KECCAK256 SWAP1 JUMPDEST DUP2 SLOAD DUP2 MSTORE SWAP1 PUSH1 0x1 ADD SWAP1 PUSH1 0x20 ADD DUP1 DUP4 GT PUSH2 0xC08 JUMPI DUP3 SWAP1 SUB PUSH1 0x1F AND DUP3 ADD SWAP2 JUMPDEST POP POP POP SWAP2 DUP4 MSTORE POP POP PUSH1 0x3 DUP3 DUP2 ADD SLOAD PUSH1 0x1 PUSH1 0x1 PUSH1 0xA0 SHL SUB SWAP1 DUP2 AND PUSH1 0x20 DUP1 DUP6 ADD SWAP2 SWAP1 SWAP2 MSTORE PUSH1 0x4 DUP6 ADD SLOAD PUSH1 0x40 DUP1 DUP7 ADD SWAP2 SWAP1 SWAP2 MSTORE PUSH1 0x5 DUP7 ADD SLOAD PUSH1 0x60 DUP7 ADD MSTORE PUSH1 0x6 DUP7 ADD SLOAD PUSH1 0x80 DUP7 ADD MSTORE PUSH1 0x7 DUP7 ADD SLOAD PUSH1 0xFF SWAP1 DUP2 AND ISZERO ISZERO PUSH1 0xA0 DUP8 ADD MSTORE PUSH1 0x8 DUP8 ADD SLOAD PUSH1 0xC0 DUP8 ADD MSTORE PUSH1 0x9 SWAP1 SWAP7 ADD SLOAD SWAP3 DUP4 AND PUSH1 0xE0 DUP7 ADD MSTORE PUSH1 0x1 PUSH1 0xA0 SHL SWAP1 SWAP3 DIV DUP6 AND ISZERO ISZERO PUSH2 0x100 SWAP1 SWAP5 ADD SWAP4 SWAP1 SWAP4 MSTORE CALLER PUSH1 0x0 SWAP1 DUP2 MSTORE PUSH1 0x73 SWAP1 SWAP4 MSTORE SWAP1 SWAP2 KECCAK256 ADD SLOAD SWAP2 SWAP3 POP AND ISZERO ISZERO PUSH1 0x1 EQ DUP1 ISZERO PUSH2 0xDB0 JUMPI POP CALLER PUSH1 0x0 SWAP1 DUP2 MSTORE PUSH1 0x75 PUSH1 0x20 SWAP1 DUP2 MSTORE PUSH1 0x40 DUP1 DUP4 KECCAK256 DUP1 SLOAD DUP3 MLOAD DUP2 DUP6 MUL DUP2 ADD DUP6 ADD SWAP1 SWAP4 MSTORE DUP1 DUP4 MSTORE PUSH2 0xDAE SWAP5 SWAP3 SWAP4 SWAP2 SWAP3 SWAP1 SWAP2 DUP5 ADD JUMPDEST DUP3 DUP3 LT ISZERO PUSH2 0xDA4 JUMPI DUP4 DUP3 SWAP1 PUSH1 0x0 MSTORE PUSH1 0x20 PUSH1 0x0 KECCAK256 ADD DUP1 SLOAD PUSH2 0xD17 SWAP1 PUSH2 0x53CB JUMP JUMPDEST DUP1 PUSH1 0x1F ADD PUSH1 0x20 DUP1 SWAP2 DIV MUL PUSH1 0x20 ADD PUSH1 0x40 MLOAD SWAP1 DUP2 ADD PUSH1 0x40 MSTORE DUP1 SWAP3 SWAP2 SWAP1 DUP2 DUP2 MSTORE PUSH1 0x20 ADD DUP3 DUP1 SLOAD PUSH2 0xD43 SWAP1 PUSH2 0x53CB JUMP JUMPDEST DUP1 ISZERO PUSH2 0xD90 JUMPI DUP1 PUSH1 0x1F LT PUSH2 0xD65 JUMPI PUSH2 0x100 DUP1 DUP4 SLOAD DIV MUL DUP4 MSTORE SWAP2 PUSH1 0x20 ADD SWAP2 PUSH2 0xD90 JUMP JUMPDEST DUP3 ADD SWAP2 SWAP1 PUSH1 0x0 MSTORE PUSH1 0x20 PUSH1 0x0 KECCAK256 SWAP1 JUMPDEST DUP2 SLOAD DUP2 MSTORE SWAP1 PUSH1 0x1 ADD SWAP1 PUSH1 0x20 ADD DUP1 DUP4 GT PUSH2 0xD73 JUMPI DUP3 SWAP1 SUB PUSH1 0x1F AND DUP3 ADD SWAP2 JUMPDEST POP POP POP POP POP DUP2 MSTORE PUSH1 0x20 ADD SWAP1 PUSH1 0x1 ADD SWAP1 PUSH2 0xCF8 JUMP JUMPDEST POP POP POP POP DUP4 PUSH2 0x2ECF JUMP JUMPDEST ISZERO JUMPDEST DUP1 ISZERO PUSH2 0xE6E JUMPI POP PUSH2 0xE68 PUSH1 0x6F DUP4 PUSH1 0x40 MLOAD PUSH2 0xDCA SWAP2 SWAP1 PUSH2 0x53AF JUMP JUMPDEST SWAP1 DUP2 MSTORE PUSH1 0x40 MLOAD SWAP1 DUP2 SWAP1 SUB PUSH1 0x20 ADD SWAP1 KECCAK256 DUP1 SLOAD PUSH2 0xDE4 SWAP1 PUSH2 0x53CB JUMP JUMPDEST DUP1 PUSH1 0x1F ADD PUSH1 0x20 DUP1 SWAP2 DIV MUL PUSH1 0x20 ADD PUSH1 0x40 MLOAD SWAP1 DUP2 ADD PUSH1 0x40 MSTORE DUP1 SWAP3 SWAP2 SWAP1 DUP2 DUP2 MSTORE PUSH1 0x20 ADD DUP3 DUP1 SLOAD PUSH2 0xE10 SWAP1 PUSH2 0x53CB JUMP JUMPDEST DUP1 ISZERO PUSH2 0xE5D JUMPI DUP1 PUSH1 0x1F LT PUSH2 0xE32 JUMPI PUSH2 0x100 DUP1 DUP4 SLOAD DIV MUL DUP4 MSTORE SWAP2 PUSH1 0x20 ADD SWAP2 PUSH2 0xE5D JUMP JUMPDEST DUP3 ADD SWAP2 SWAP1 PUSH1 0x0 MSTORE PUSH1 0x20 PUSH1 0x0 KECCAK256 SWAP1 JUMPDEST DUP2 SLOAD DUP2 MSTORE SWAP1 PUSH1 0x1 ADD SWAP1 PUSH1 0x20 ADD DUP1 DUP4 GT PUSH2 0xE40 JUMPI DUP3 SWAP1 SUB PUSH1 0x1F AND DUP3 ADD SWAP2 JUMPDEST POP POP POP POP POP DUP4 PUSH2 0x2F35 JUMP JUMPDEST ISZERO ISZERO PUSH1 0x1 EQ JUMPDEST DUP1 ISZERO PUSH2 0xE7C JUMPI POP PUSH1 0xE0 DUP2 ADD MLOAD ISZERO JUMPDEST DUP1 ISZERO PUSH2 0xEB4 JUMPI POP PUSH1 0x1 PUSH1 0x1 PUSH1 0xA0 SHL SUB DUP4 AND PUSH1 0x0 SWAP1 DUP2 MSTORE PUSH1 0x72 PUSH1 0x20 MSTORE PUSH1 0x40 SWAP1 KECCAK256 PUSH1 0x1 ADD DUP1 SLOAD PUSH2 0xEAE SWAP2 SWAP1 PUSH2 0xDE4 SWAP1 PUSH2 0x53CB JUMP JUMPDEST ISZERO ISZERO PUSH1 0x1 EQ JUMPDEST PUSH2 0xEEF JUMPI PUSH1 0x40 MLOAD PUSH3 0x461BCD PUSH1 0xE5 SHL DUP2 MSTORE PUSH1 0x20 PUSH1 0x4 DUP3 ADD MSTORE PUSH1 0xC PUSH1 0x24 DUP3 ADD MSTORE PUSH12 0x566F746572204572726F7221 PUSH1 0xA0 SHL PUSH1 0x44 DUP3 ADD MSTORE PUSH1 0x64 ADD PUSH2 0x55B JUMP JUMPDEST PUSH1 0x0 PUSH1 0x6F DUP6 PUSH1 0x40 MLOAD PUSH2 0xF01 SWAP2 SWAP1 PUSH2 0x53AF JUMP JUMPDEST SWAP1 DUP2 MSTORE PUSH1 0x20 ADD PUSH1 0x40 MLOAD DUP1 SWAP2 SUB SWAP1 KECCAK256 PUSH1 0x40 MLOAD DUP1 PUSH2 0x160 ADD PUSH1 0x40 MSTORE SWAP1 DUP2 PUSH1 0x0 DUP3 ADD DUP1 SLOAD PUSH2 0xF2B SWAP1 PUSH2 0x53CB JUMP JUMPDEST DUP1 PUSH1 0x1F ADD PUSH1 0x20 DUP1 SWAP2 DIV MUL PUSH1 0x20 ADD PUSH1 0x40 MLOAD SWAP1 DUP2 ADD PUSH1 0x40 MSTORE DUP1 SWAP3 SWAP2 SWAP1 DUP2 DUP2 MSTORE PUSH1 0x20 ADD DUP3 DUP1 SLOAD PUSH2 0xF57 SWAP1 PUSH2 0x53CB JUMP JUMPDEST DUP1 ISZERO PUSH2 0xFA4 JUMPI DUP1 PUSH1 0x1F LT PUSH2 0xF79 JUMPI PUSH2 0x100 DUP1 DUP4 SLOAD DIV MUL DUP4 MSTORE SWAP2 PUSH1 0x20 ADD SWAP2 PUSH2 0xFA4 JUMP JUMPDEST DUP3 ADD SWAP2 SWAP1 PUSH1 0x0 MSTORE PUSH1 0x20 PUSH1 0x0 KECCAK256 SWAP1 JUMPDEST DUP2 SLOAD DUP2 MSTORE SWAP1 PUSH1 0x1 ADD SWAP1 PUSH1 0x20 ADD DUP1 DUP4 GT PUSH2 0xF87 JUMPI DUP3 SWAP1 SUB PUSH1 0x1F AND DUP3 ADD SWAP2 JUMPDEST POP POP POP POP POP DUP2 MSTORE PUSH1 0x20 ADD PUSH1 0x1 DUP3 ADD SLOAD DUP2 MSTORE PUSH1 0x20 ADD PUSH1 0x2 DUP3 ADD DUP1 SLOAD PUSH2 0xFC7 SWAP1 PUSH2 0x53CB JUMP JUMPDEST DUP1 PUSH1 0x1F ADD PUSH1 0x20 DUP1 SWAP2 DIV MUL PUSH1 0x20 ADD PUSH1 0x40 MLOAD SWAP1 DUP2 ADD PUSH1 0x40 MSTORE DUP1 SWAP3 SWAP2 SWAP1 DUP2 DUP2 MSTORE PUSH1 0x20 ADD DUP3 DUP1 SLOAD PUSH2 0xFF3 SWAP1 PUSH2 0x53CB JUMP JUMPDEST DUP1 ISZERO PUSH2 0x1040 JUMPI DUP1 PUSH1 0x1F LT PUSH2 0x1015 JUMPI PUSH2 0x100 DUP1 DUP4 SLOAD DIV MUL DUP4 MSTORE SWAP2 PUSH1 0x20 ADD SWAP2 PUSH2 0x1040 JUMP JUMPDEST DUP3 ADD SWAP2 SWAP1 PUSH1 0x0 MSTORE PUSH1 0x20 PUSH1 0x0 KECCAK256 SWAP1 JUMPDEST DUP2 SLOAD DUP2 MSTORE SWAP1 PUSH1 0x1 ADD SWAP1 PUSH1 0x20 ADD DUP1 DUP4 GT PUSH2 0x1023 JUMPI DUP3 SWAP1 SUB PUSH1 0x1F AND DUP3 ADD SWAP2 JUMPDEST POP POP POP SWAP2 DUP4 MSTORE POP POP PUSH1 0x3 DUP3 ADD SLOAD PUSH1 0x1 PUSH1 0x1 PUSH1 0xA0 SHL SUB SWAP1 DUP2 AND PUSH1 0x20 DUP1 DUP5 ADD SWAP2 SWAP1 SWAP2 MSTORE PUSH1 0x4 DUP5 ADD SLOAD PUSH1 0x40 DUP5 ADD MSTORE PUSH1 0x5 DUP5 ADD SLOAD PUSH1 0x60 DUP5 ADD MSTORE PUSH1 0x6 DUP5 ADD SLOAD PUSH1 0x80 DUP5 ADD MSTORE PUSH1 0x7 DUP5 ADD SLOAD PUSH1 0xFF SWAP1 DUP2 AND ISZERO ISZERO PUSH1 0xA0 DUP6 ADD MSTORE PUSH1 0x8 DUP6 ADD SLOAD PUSH1 0xC0 DUP6 ADD MSTORE PUSH1 0x9 SWAP1 SWAP5 ADD SLOAD SWAP2 DUP3 AND PUSH1 0xE0 DUP5 ADD MSTORE PUSH1 0x1 PUSH1 0xA0 SHL SWAP1 SWAP2 DIV SWAP1 SWAP3 AND ISZERO ISZERO PUSH2 0x100 SWAP1 SWAP2 ADD MSTORE DUP2 ADD MLOAD SWAP1 SWAP2 POP PUSH2 0x10D5 JUMPI PUSH2 0x10D0 DUP7 DUP7 PUSH2 0x2F9C JUMP JUMPDEST PUSH2 0x10EC JUMP JUMPDEST DUP1 PUSH1 0x20 ADD MLOAD PUSH1 0x1 EQ ISZERO PUSH2 0x10EC JUMPI PUSH2 0x10EC DUP7 DUP7 PUSH2 0x34FF JUMP JUMPDEST CALLER PUSH1 0x0 SWAP1 DUP2 MSTORE PUSH1 0x75 PUSH1 0x20 SWAP1 DUP2 MSTORE PUSH1 0x40 DUP3 KECCAK256 DUP1 SLOAD PUSH1 0x1 DUP2 ADD DUP3 SSTORE SWAP1 DUP4 MSTORE SWAP2 DUP2 SWAP1 KECCAK256 DUP8 MLOAD PUSH2 0x111F SWAP4 SWAP2 SWAP1 SWAP2 ADD SWAP2 DUP9 ADD SWAP1 PUSH2 0x4DC3 JUMP JUMPDEST POP POP POP POP POP POP POP JUMP JUMPDEST PUSH2 0x119B PUSH1 0x40 MLOAD DUP1 PUSH2 0x160 ADD PUSH1 0x40 MSTORE DUP1 PUSH1 0x60 DUP2 MSTORE PUSH1 0x20 ADD PUSH1 0x0 DUP2 MSTORE PUSH1 0x20 ADD PUSH1 0x60 DUP2 MSTORE PUSH1 0x20 ADD PUSH1 0x0 PUSH1 0x1 PUSH1 0x1 PUSH1 0xA0 SHL SUB AND DUP2 MSTORE PUSH1 0x20 ADD PUSH1 0x0 DUP2 MSTORE PUSH1 0x20 ADD PUSH1 0x0 DUP2 MSTORE PUSH1 0x20 ADD PUSH1 0x0 DUP2 MSTORE PUSH1 0x20 ADD PUSH1 0x0 ISZERO ISZERO DUP2 MSTORE PUSH1 0x20 ADD PUSH1 0x0 DUP2 MSTORE PUSH1 0x20 ADD PUSH1 0x0 PUSH1 0x1 PUSH1 0x1 PUSH1 0xA0 SHL SUB AND DUP2 MSTORE PUSH1 0x20 ADD PUSH1 0x0 ISZERO ISZERO DUP2 MSTORE POP SWAP1 JUMP JUMPDEST DUP2 PUSH1 0x0 PUSH1 0x6F DUP3 PUSH1 0x40 MLOAD PUSH2 0x11AE SWAP2 SWAP1 PUSH2 0x53AF JUMP JUMPDEST SWAP1 DUP2 MSTORE PUSH1 0x20 ADD PUSH1 0x40 MLOAD DUP1 SWAP2 SUB SWAP1 KECCAK256 PUSH1 0x40 MLOAD DUP1 PUSH2 0x160 ADD PUSH1 0x40 MSTORE SWAP1 DUP2 PUSH1 0x0 DUP3 ADD DUP1 SLOAD PUSH2 0x11D8 SWAP1 PUSH2 0x53CB JUMP JUMPDEST DUP1 PUSH1 0x1F ADD PUSH1 0x20 DUP1 SWAP2 DIV MUL PUSH1 0x20 ADD PUSH1 0x40 MLOAD SWAP1 DUP2 ADD PUSH1 0x40 MSTORE DUP1 SWAP3 SWAP2 SWAP1 DUP2 DUP2 MSTORE PUSH1 0x20 ADD DUP3 DUP1 SLOAD PUSH2 0x1204 SWAP1 PUSH2 0x53CB JUMP JUMPDEST DUP1 ISZERO PUSH2 0x1251 JUMPI DUP1 PUSH1 0x1F LT PUSH2 0x1226 JUMPI PUSH2 0x100 DUP1 DUP4 SLOAD DIV MUL DUP4 MSTORE SWAP2 PUSH1 0x20 ADD SWAP2 PUSH2 0x1251 JUMP JUMPDEST DUP3 ADD SWAP2 SWAP1 PUSH1 0x0 MSTORE PUSH1 0x20 PUSH1 0x0 KECCAK256 SWAP1 JUMPDEST DUP2 SLOAD DUP2 MSTORE SWAP1 PUSH1 0x1 ADD SWAP1 PUSH1 0x20 ADD DUP1 DUP4 GT PUSH2 0x1234 JUMPI DUP3 SWAP1 SUB PUSH1 0x1F AND DUP3 ADD SWAP2 JUMPDEST POP POP POP POP POP DUP2 MSTORE PUSH1 0x20 ADD PUSH1 0x1 DUP3 ADD SLOAD DUP2 MSTORE PUSH1 0x20 ADD PUSH1 0x2 DUP3 ADD DUP1 SLOAD PUSH2 0x1274 SWAP1 PUSH2 0x53CB JUMP JUMPDEST DUP1 PUSH1 0x1F ADD PUSH1 0x20 DUP1 SWAP2 DIV MUL PUSH1 0x20 ADD PUSH1 0x40 MLOAD SWAP1 DUP2 ADD PUSH1 0x40 MSTORE DUP1 SWAP3 SWAP2 SWAP1 DUP2 DUP2 MSTORE PUSH1 0x20 ADD DUP3 DUP1 SLOAD PUSH2 0x12A0 SWAP1 PUSH2 0x53CB JUMP JUMPDEST DUP1 ISZERO PUSH2 0x12ED JUMPI DUP1 PUSH1 0x1F LT PUSH2 0x12C2 JUMPI PUSH2 0x100 DUP1 DUP4 SLOAD DIV MUL DUP4 MSTORE SWAP2 PUSH1 0x20 ADD SWAP2 PUSH2 0x12ED JUMP JUMPDEST DUP3 ADD SWAP2 SWAP1 PUSH1 0x0 MSTORE PUSH1 0x20 PUSH1 0x0 KECCAK256 SWAP1 JUMPDEST DUP2 SLOAD DUP2 MSTORE SWAP1 PUSH1 0x1 ADD SWAP1 PUSH1 0x20 ADD DUP1 DUP4 GT PUSH2 0x12D0 JUMPI DUP3 SWAP1 SUB PUSH1 0x1F AND DUP3 ADD SWAP2 JUMPDEST POP POP POP SWAP2 DUP4 MSTORE POP POP PUSH1 0x3 DUP3 DUP2 ADD SLOAD PUSH1 0x1 PUSH1 0x1 PUSH1 0xA0 SHL SUB SWAP1 DUP2 AND PUSH1 0x20 DUP1 DUP6 ADD SWAP2 SWAP1 SWAP2 MSTORE PUSH1 0x4 DUP6 ADD SLOAD PUSH1 0x40 DUP6 ADD MSTORE PUSH1 0x5 DUP6 ADD SLOAD PUSH1 0x60 DUP6 ADD MSTORE PUSH1 0x6 DUP6 ADD SLOAD PUSH1 0x80 DUP6 ADD MSTORE PUSH1 0x7 DUP6 ADD SLOAD PUSH1 0xFF SWAP1 DUP2 AND ISZERO ISZERO PUSH1 0xA0 DUP7 ADD MSTORE PUSH1 0x8 DUP7 ADD SLOAD PUSH1 0xC0 DUP7 ADD MSTORE PUSH1 0x9 SWAP1 SWAP6 ADD SLOAD SWAP2 DUP3 AND PUSH1 0xE0 DUP6 ADD MSTORE PUSH1 0x1 PUSH1 0xA0 SHL SWAP1 SWAP2 DIV SWAP1 SWAP4 AND ISZERO ISZERO PUSH2 0x100 SWAP1 SWAP3 ADD SWAP2 SWAP1 SWAP2 MSTORE SWAP1 DUP3 ADD MLOAD SWAP2 SWAP3 POP GT PUSH2 0x1391 JUMPI PUSH1 0x40 MLOAD PUSH3 0x461BCD PUSH1 0xE5 SHL DUP2 MSTORE PUSH1 0x4 ADD PUSH2 0x55B SWAP1 PUSH2 0x5406 JUMP JUMPDEST PUSH1 0x6F DUP5 PUSH1 0x40 MLOAD PUSH2 0x13A1 SWAP2 SWAP1 PUSH2 0x53AF JUMP JUMPDEST SWAP1 DUP2 MSTORE PUSH1 0x20 ADD PUSH1 0x40 MLOAD DUP1 SWAP2 SUB SWAP1 KECCAK256 PUSH1 0x40 MLOAD DUP1 PUSH2 0x160 ADD PUSH1 0x40 MSTORE SWAP1 DUP2 PUSH1 0x0 DUP3 ADD DUP1 SLOAD PUSH2 0x13CB SWAP1 PUSH2 0x53CB JUMP JUMPDEST DUP1 PUSH1 0x1F ADD PUSH1 0x20 DUP1 SWAP2 DIV MUL PUSH1 0x20 ADD PUSH1 0x40 MLOAD SWAP1 DUP2 ADD PUSH1 0x40 MSTORE DUP1 SWAP3 SWAP2 SWAP1 DUP2 DUP2 MSTORE PUSH1 0x20 ADD DUP3 DUP1 SLOAD PUSH2 0x13F7 SWAP1 PUSH2 0x53CB JUMP JUMPDEST DUP1 ISZERO PUSH2 0x1444 JUMPI DUP1 PUSH1 0x1F LT PUSH2 0x1419 JUMPI PUSH2 0x100 DUP1 DUP4 SLOAD DIV MUL DUP4 MSTORE SWAP2 PUSH1 0x20 ADD SWAP2 PUSH2 0x1444 JUMP JUMPDEST DUP3 ADD SWAP2 SWAP1 PUSH1 0x0 MSTORE PUSH1 0x20 PUSH1 0x0 KECCAK256 SWAP1 JUMPDEST DUP2 SLOAD DUP2 MSTORE SWAP1 PUSH1 0x1 ADD SWAP1 PUSH1 0x20 ADD DUP1 DUP4 GT PUSH2 0x1427 JUMPI DUP3 SWAP1 SUB PUSH1 0x1F AND DUP3 ADD SWAP2 JUMPDEST POP POP POP POP POP DUP2 MSTORE PUSH1 0x20 ADD PUSH1 0x1 DUP3 ADD SLOAD DUP2 MSTORE PUSH1 0x20 ADD PUSH1 0x2 DUP3 ADD DUP1 SLOAD PUSH2 0x1467 SWAP1 PUSH2 0x53CB JUMP JUMPDEST DUP1 PUSH1 0x1F ADD PUSH1 0x20 DUP1 SWAP2 DIV MUL PUSH1 0x20 ADD PUSH1 0x40 MLOAD SWAP1 DUP2 ADD PUSH1 0x40 MSTORE DUP1 SWAP3 SWAP2 SWAP1 DUP2 DUP2 MSTORE PUSH1 0x20 ADD DUP3 DUP1 SLOAD PUSH2 0x1493 SWAP1 PUSH2 0x53CB JUMP JUMPDEST DUP1 ISZERO PUSH2 0x14E0 JUMPI DUP1 PUSH1 0x1F LT PUSH2 0x14B5 JUMPI PUSH2 0x100 DUP1 DUP4 SLOAD DIV MUL DUP4 MSTORE SWAP2 PUSH1 0x20 ADD SWAP2 PUSH2 0x14E0 JUMP JUMPDEST DUP3 ADD SWAP2 SWAP1 PUSH1 0x0 MSTORE PUSH1 0x20 PUSH1 0x0 KECCAK256 SWAP1 JUMPDEST DUP2 SLOAD DUP2 MSTORE SWAP1 PUSH1 0x1 ADD SWAP1 PUSH1 0x20 ADD DUP1 DUP4 GT PUSH2 0x14C3 JUMPI DUP3 SWAP1 SUB PUSH1 0x1F AND DUP3 ADD SWAP2 JUMPDEST POP POP POP SWAP2 DUP4 MSTORE POP POP PUSH1 0x3 DUP3 ADD SLOAD PUSH1 0x1 PUSH1 0x1 PUSH1 0xA0 SHL SUB SWAP1 DUP2 AND PUSH1 0x20 DUP4 ADD MSTORE PUSH1 0x4 DUP4 ADD SLOAD PUSH1 0x40 DUP4 ADD MSTORE PUSH1 0x5 DUP4 ADD SLOAD PUSH1 0x60 DUP4 ADD MSTORE PUSH1 0x6 DUP4 ADD SLOAD PUSH1 0x80 DUP4 ADD MSTORE PUSH1 0x7 DUP4 ADD SLOAD PUSH1 0xFF SWAP1 DUP2 AND ISZERO ISZERO PUSH1 0xA0 DUP5 ADD MSTORE PUSH1 0x8 DUP5 ADD SLOAD PUSH1 0xC0 DUP5 ADD MSTORE PUSH1 0x9 SWAP1 SWAP4 ADD SLOAD SWAP1 DUP2 AND PUSH1 0xE0 DUP4 ADD MSTORE PUSH1 0x1 PUSH1 0xA0 SHL SWAP1 DIV SWAP1 SWAP2 AND ISZERO ISZERO PUSH2 0x100 SWAP1 SWAP2 ADD MSTORE SWAP5 SWAP4 POP POP POP POP JUMP JUMPDEST PUSH2 0x1567 PUSH2 0x3BEA JUMP JUMPDEST PUSH1 0x65 SLOAD PUSH1 0x40 MLOAD PUSH1 0x1 PUSH1 0x1 PUSH1 0xA0 SHL SUB SWAP1 SWAP2 AND SWAP1 SELFBALANCE DUP1 ISZERO PUSH2 0x8FC MUL SWAP2 PUSH1 0x0 DUP2 DUP2 DUP2 DUP6 DUP9 DUP9 CALL SWAP4 POP POP POP POP ISZERO DUP1 ISZERO PUSH2 0x15A0 JUMPI RETURNDATASIZE PUSH1 0x0 DUP1 RETURNDATACOPY RETURNDATASIZE PUSH1 0x0 REVERT JUMPDEST POP JUMP JUMPDEST PUSH1 0x0 PUSH1 0x6F DUP3 PUSH1 0x40 MLOAD PUSH2 0x15B5 SWAP2 SWAP1 PUSH2 0x53AF JUMP JUMPDEST SWAP1 DUP2 MSTORE PUSH1 0x20 ADD PUSH1 0x40 MLOAD DUP1 SWAP2 SUB SWAP1 KECCAK256 PUSH1 0x40 MLOAD DUP1 PUSH2 0x160 ADD PUSH1 0x40 MSTORE SWAP1 DUP2 PUSH1 0x0 DUP3 ADD DUP1 SLOAD PUSH2 0x15DF SWAP1 PUSH2 0x53CB JUMP JUMPDEST DUP1 PUSH1 0x1F ADD PUSH1 0x20 DUP1 SWAP2 DIV MUL PUSH1 0x20 ADD PUSH1 0x40 MLOAD SWAP1 DUP2 ADD PUSH1 0x40 MSTORE DUP1 SWAP3 SWAP2 SWAP1 DUP2 DUP2 MSTORE PUSH1 0x20 ADD DUP3 DUP1 SLOAD PUSH2 0x160B SWAP1 PUSH2 0x53CB JUMP JUMPDEST DUP1 ISZERO PUSH2 0x1658 JUMPI DUP1 PUSH1 0x1F LT PUSH2 0x162D JUMPI PUSH2 0x100 DUP1 DUP4 SLOAD DIV MUL DUP4 MSTORE SWAP2 PUSH1 0x20 ADD SWAP2 PUSH2 0x1658 JUMP JUMPDEST DUP3 ADD SWAP2 SWAP1 PUSH1 0x0 MSTORE PUSH1 0x20 PUSH1 0x0 KECCAK256 SWAP1 JUMPDEST DUP2 SLOAD DUP2 MSTORE SWAP1 PUSH1 0x1 ADD SWAP1 PUSH1 0x20 ADD DUP1 DUP4 GT PUSH2 0x163B JUMPI DUP3 SWAP1 SUB PUSH1 0x1F AND DUP3 ADD SWAP2 JUMPDEST POP POP POP POP POP DUP2 MSTORE PUSH1 0x20 ADD PUSH1 0x1 DUP3 ADD SLOAD DUP2 MSTORE PUSH1 0x20 ADD PUSH1 0x2 DUP3 ADD DUP1 SLOAD PUSH2 0x167B SWAP1 PUSH2 0x53CB JUMP JUMPDEST DUP1 PUSH1 0x1F ADD PUSH1 0x20 DUP1 SWAP2 DIV MUL PUSH1 0x20 ADD PUSH1 0x40 MLOAD SWAP1 DUP2 ADD PUSH1 0x40 MSTORE DUP1 SWAP3 SWAP2 SWAP1 DUP2 DUP2 MSTORE PUSH1 0x20 ADD DUP3 DUP1 SLOAD PUSH2 0x16A7 SWAP1 PUSH2 0x53CB JUMP JUMPDEST DUP1 ISZERO PUSH2 0x16F4 JUMPI DUP1 PUSH1 0x1F LT PUSH2 0x16C9 JUMPI PUSH2 0x100 DUP1 DUP4 SLOAD DIV MUL DUP4 MSTORE SWAP2 PUSH1 0x20 ADD SWAP2 PUSH2 0x16F4 JUMP JUMPDEST DUP3 ADD SWAP2 SWAP1 PUSH1 0x0 MSTORE PUSH1 0x20 PUSH1 0x0 KECCAK256 SWAP1 JUMPDEST DUP2 SLOAD DUP2 MSTORE SWAP1 PUSH1 0x1 ADD SWAP1 PUSH1 0x20 ADD DUP1 DUP4 GT PUSH2 0x16D7 JUMPI DUP3 SWAP1 SUB PUSH1 0x1F AND DUP3 ADD SWAP2 JUMPDEST POP POP POP SWAP2 DUP4 MSTORE POP POP PUSH1 0x3 DUP3 ADD SLOAD PUSH1 0x1 PUSH1 0x1 PUSH1 0xA0 SHL SUB SWAP1 DUP2 AND PUSH1 0x20 DUP1 DUP5 ADD SWAP2 SWAP1 SWAP2 MSTORE PUSH1 0x4 DUP5 ADD SLOAD PUSH1 0x40 DUP5 ADD MSTORE PUSH1 0x5 DUP5 ADD SLOAD PUSH1 0x60 DUP1 DUP6 ADD SWAP2 SWAP1 SWAP2 MSTORE PUSH1 0x6 DUP6 ADD SLOAD PUSH1 0x80 DUP6 ADD MSTORE PUSH1 0x7 DUP6 ADD SLOAD PUSH1 0xFF SWAP1 DUP2 AND ISZERO ISZERO PUSH1 0xA0 DUP7 ADD MSTORE PUSH1 0x8 DUP7 ADD SLOAD PUSH1 0xC0 DUP7 ADD MSTORE PUSH1 0x9 SWAP1 SWAP6 ADD SLOAD DUP1 DUP5 AND PUSH1 0xE0 DUP7 ADD MSTORE PUSH1 0x1 PUSH1 0xA0 SHL SWAP1 DIV SWAP1 SWAP5 AND ISZERO ISZERO PUSH2 0x100 SWAP1 SWAP4 ADD SWAP3 SWAP1 SWAP3 MSTORE SWAP1 DUP4 ADD MLOAD SWAP2 DUP4 ADD MLOAD SWAP3 SWAP4 POP SWAP1 SWAP2 AND CALLER EQ DUP1 ISZERO PUSH2 0x1797 JUMPI POP PUSH1 0x1 DUP3 PUSH1 0x80 ADD MLOAD LT ISZERO JUMPDEST DUP1 ISZERO PUSH2 0x17A5 JUMPI POP PUSH1 0xE0 DUP3 ADD MLOAD ISZERO JUMPDEST DUP1 ISZERO PUSH2 0x1861 JUMPI POP PUSH1 0x1 PUSH1 0x1 PUSH1 0xA0 SHL SUB DUP5 AND PUSH1 0x0 SWAP1 DUP2 MSTORE PUSH1 0x73 PUSH1 0x20 MSTORE PUSH1 0x40 SWAP1 KECCAK256 PUSH1 0x2 ADD DUP1 SLOAD PUSH2 0x185B SWAP2 SWAP1 PUSH2 0x17D7 SWAP1 PUSH2 0x53CB JUMP JUMPDEST DUP1 PUSH1 0x1F ADD PUSH1 0x20 DUP1 SWAP2 DIV MUL PUSH1 0x20 ADD PUSH1 0x40 MLOAD SWAP1 DUP2 ADD PUSH1 0x40 MSTORE DUP1 SWAP3 SWAP2 SWAP1 DUP2 DUP2 MSTORE PUSH1 0x20 ADD DUP3 DUP1 SLOAD PUSH2 0x1803 SWAP1 PUSH2 0x53CB JUMP JUMPDEST DUP1 ISZERO PUSH2 0x1850 JUMPI DUP1 PUSH1 0x1F LT PUSH2 0x1825 JUMPI PUSH2 0x100 DUP1 DUP4 SLOAD DIV MUL DUP4 MSTORE SWAP2 PUSH1 0x20 ADD SWAP2 PUSH2 0x1850 JUMP JUMPDEST DUP3 ADD SWAP2 SWAP1 PUSH1 0x0 MSTORE PUSH1 0x20 PUSH1 0x0 KECCAK256 SWAP1 JUMPDEST DUP2 SLOAD DUP2 MSTORE SWAP1 PUSH1 0x1 ADD SWAP1 PUSH1 0x20 ADD DUP1 DUP4 GT PUSH2 0x1833 JUMPI DUP3 SWAP1 SUB PUSH1 0x1F AND DUP3 ADD SWAP2 JUMPDEST POP POP POP POP POP DUP5 PUSH2 0x2F35 JUMP JUMPDEST ISZERO ISZERO PUSH1 0x1 EQ JUMPDEST DUP1 ISZERO PUSH2 0x188D JUMPI POP PUSH1 0x1 PUSH1 0x1 PUSH1 0xA0 SHL SUB DUP5 AND PUSH1 0x0 SWAP1 DUP2 MSTORE PUSH1 0x73 PUSH1 0x20 MSTORE PUSH1 0x40 SWAP1 KECCAK256 PUSH1 0x3 ADD SLOAD PUSH1 0xFF AND ISZERO ISZERO PUSH1 0x1 EQ JUMPDEST DUP1 ISZERO PUSH2 0x18BA JUMPI POP PUSH1 0x1 PUSH1 0x1 PUSH1 0xA0 SHL SUB DUP5 AND PUSH1 0x0 SWAP1 DUP2 MSTORE PUSH1 0x73 PUSH1 0x20 MSTORE PUSH1 0x40 SWAP1 KECCAK256 PUSH1 0x3 ADD SLOAD PUSH2 0x100 SWAP1 DIV PUSH1 0xFF AND ISZERO JUMPDEST DUP1 ISZERO PUSH2 0x18C6 JUMPI POP DUP1 PUSH1 0x1 EQ JUMPDEST DUP1 PUSH2 0x18D1 JUMPI POP DUP1 PUSH1 0x3 EQ JUMPDEST PUSH2 0x191D JUMPI PUSH1 0x40 MLOAD PUSH3 0x461BCD PUSH1 0xE5 SHL DUP2 MSTORE PUSH1 0x20 PUSH1 0x4 DUP3 ADD MSTORE PUSH1 0x1E PUSH1 0x24 DUP3 ADD MSTORE PUSH32 0x4572726F722041737369676E696E6720566F74696E6720526967687473210000 PUSH1 0x44 DUP3 ADD MSTORE PUSH1 0x64 ADD PUSH2 0x55B JUMP JUMPDEST PUSH1 0x1 PUSH1 0x1 PUSH1 0xA0 SHL SUB DUP5 AND PUSH1 0x0 DUP2 DUP2 MSTORE PUSH1 0x73 PUSH1 0x20 SWAP1 DUP2 MSTORE PUSH1 0x40 SWAP2 DUP3 SWAP1 KECCAK256 PUSH1 0x3 ADD DUP1 SLOAD PUSH2 0xFF00 NOT AND PUSH2 0x100 OR SWAP1 SSTORE SWAP1 MLOAD SWAP2 DUP3 MSTORE PUSH32 0x94055E6BCDFA83FA1F2CB2901FD22DB9E96F758348742A662B752BC32B765800 SWAP2 ADD PUSH1 0x40 MLOAD DUP1 SWAP2 SUB SWAP1 LOG1 POP POP POP POP JUMP JUMPDEST PUSH1 0x6A SLOAD DUP6 SWAP1 CALLVALUE LT DUP1 ISZERO SWAP1 PUSH2 0x1994 JUMPI POP PUSH1 0x0 DUP2 MLOAD GT JUMPDEST DUP1 ISZERO PUSH2 0x19A1 JUMPI POP PUSH1 0x1 DUP6 MLOAD GT JUMPDEST DUP1 ISZERO PUSH2 0x19AF JUMPI POP PUSH1 0x6E SLOAD DUP5 GT ISZERO JUMPDEST DUP1 ISZERO PUSH2 0x19BA JUMPI POP DUP2 DUP4 GT JUMPDEST DUP1 ISZERO PUSH2 0x19C6 JUMPI POP PUSH1 0x0 DUP3 GT JUMPDEST PUSH2 0x1A0B JUMPI PUSH1 0x40 MLOAD PUSH3 0x461BCD PUSH1 0xE5 SHL DUP2 MSTORE PUSH1 0x20 PUSH1 0x4 DUP3 ADD MSTORE PUSH1 0x16 PUSH1 0x24 DUP3 ADD MSTORE PUSH22 0x4572726F722042616C6C6F74204372656174696F6E21 PUSH1 0x50 SHL PUSH1 0x44 DUP3 ADD MSTORE PUSH1 0x64 ADD PUSH2 0x55B JUMP JUMPDEST DUP5 PUSH1 0x70 DUP9 PUSH1 0x40 MLOAD PUSH2 0x1A1C SWAP2 SWAP1 PUSH2 0x53AF JUMP JUMPDEST SWAP1 DUP2 MSTORE PUSH1 0x20 ADD PUSH1 0x40 MLOAD DUP1 SWAP2 SUB SWAP1 KECCAK256 SWAP1 DUP1 MLOAD SWAP1 PUSH1 0x20 ADD SWAP1 PUSH2 0x1A3D SWAP3 SWAP2 SWAP1 PUSH2 0x4E47 JUMP JUMPDEST POP DUP5 MLOAD PUSH1 0x0 JUMPDEST DUP2 DUP2 LT ISZERO PUSH2 0x1B56 JUMPI PUSH1 0x0 PUSH1 0x40 MLOAD DUP1 PUSH1 0x80 ADD PUSH1 0x40 MSTORE DUP1 PUSH1 0x66 SLOAD DUP2 MSTORE PUSH1 0x20 ADD DUP12 DUP2 MSTORE PUSH1 0x20 ADD DUP10 DUP5 DUP2 MLOAD DUP2 LT PUSH2 0x1A78 JUMPI PUSH2 0x1A78 PUSH2 0x548C JUMP JUMPDEST PUSH1 0x20 MUL PUSH1 0x20 ADD ADD MLOAD PUSH1 0x1 PUSH1 0x1 PUSH1 0xA0 SHL SUB AND DUP2 MSTORE PUSH1 0x20 ADD PUSH1 0x0 DUP2 MSTORE POP SWAP1 POP DUP1 PUSH1 0x72 PUSH1 0x0 DUP11 DUP6 DUP2 MLOAD DUP2 LT PUSH2 0x1AAC JUMPI PUSH2 0x1AAC PUSH2 0x548C JUMP JUMPDEST PUSH1 0x20 MUL PUSH1 0x20 ADD ADD MLOAD PUSH1 0x1 PUSH1 0x1 PUSH1 0xA0 SHL SUB AND PUSH1 0x1 PUSH1 0x1 PUSH1 0xA0 SHL SUB AND DUP2 MSTORE PUSH1 0x20 ADD SWAP1 DUP2 MSTORE PUSH1 0x20 ADD PUSH1 0x0 KECCAK256 PUSH1 0x0 DUP3 ADD MLOAD DUP2 PUSH1 0x0 ADD SSTORE PUSH1 0x20 DUP3 ADD MLOAD DUP2 PUSH1 0x1 ADD SWAP1 DUP1 MLOAD SWAP1 PUSH1 0x20 ADD SWAP1 PUSH2 0x1AFA SWAP3 SWAP2 SWAP1 PUSH2 0x4DC3 JUMP JUMPDEST POP PUSH1 0x40 DUP3 ADD MLOAD PUSH1 0x2 DUP3 ADD DUP1 SLOAD PUSH1 0x1 PUSH1 0x1 PUSH1 0xA0 SHL SUB NOT AND PUSH1 0x1 PUSH1 0x1 PUSH1 0xA0 SHL SUB SWAP1 SWAP3 AND SWAP2 SWAP1 SWAP2 OR SWAP1 SSTORE PUSH1 0x60 SWAP1 SWAP2 ADD MLOAD PUSH1 0x3 SWAP1 SWAP2 ADD SSTORE PUSH1 0x66 DUP1 SLOAD SWAP1 PUSH1 0x0 PUSH2 0x1B3D DUP4 PUSH2 0x54A2 JUMP JUMPDEST SWAP2 SWAP1 POP SSTORE POP POP DUP1 DUP1 PUSH2 0x1B4E SWAP1 PUSH2 0x54A2 JUMP JUMPDEST SWAP2 POP POP PUSH2 0x1A43 JUMP JUMPDEST POP PUSH1 0x40 DUP1 MLOAD PUSH2 0x160 DUP2 ADD DUP3 MSTORE DUP10 DUP2 MSTORE PUSH1 0x20 DUP2 ADD DUP8 SWAP1 MSTORE DUP1 DUP3 ADD DUP10 SWAP1 MSTORE CALLER PUSH1 0x60 DUP3 ADD MSTORE PUSH1 0x0 PUSH1 0x80 DUP3 ADD DUP2 SWAP1 MSTORE TIMESTAMP PUSH1 0xA0 DUP4 ADD MSTORE PUSH1 0xC0 DUP3 ADD DUP8 SWAP1 MSTORE PUSH1 0xE0 DUP3 ADD DUP2 SWAP1 MSTORE PUSH2 0x100 DUP3 ADD DUP7 SWAP1 MSTORE PUSH2 0x120 DUP3 ADD DUP2 SWAP1 MSTORE PUSH2 0x140 DUP3 ADD MSTORE SWAP1 MLOAD DUP2 SWAP1 PUSH1 0x6F SWAP1 PUSH2 0x1BBD SWAP1 DUP13 SWAP1 PUSH2 0x53AF JUMP JUMPDEST SWAP1 DUP2 MSTORE PUSH1 0x20 ADD PUSH1 0x40 MLOAD DUP1 SWAP2 SUB SWAP1 KECCAK256 PUSH1 0x0 DUP3 ADD MLOAD DUP2 PUSH1 0x0 ADD SWAP1 DUP1 MLOAD SWAP1 PUSH1 0x20 ADD SWAP1 PUSH2 0x1BE7 SWAP3 SWAP2 SWAP1 PUSH2 0x4DC3 JUMP JUMPDEST POP PUSH1 0x20 DUP3 DUP2 ADD MLOAD PUSH1 0x1 DUP4 ADD SSTORE PUSH1 0x40 DUP4 ADD MLOAD DUP1 MLOAD PUSH2 0x1C0A SWAP3 PUSH1 0x2 DUP6 ADD SWAP3 ADD SWAP1 PUSH2 0x4DC3 JUMP JUMPDEST POP PUSH1 0x60 DUP3 ADD MLOAD PUSH1 0x3 DUP3 ADD DUP1 SLOAD PUSH1 0x1 PUSH1 0x1 PUSH1 0xA0 SHL SUB NOT AND PUSH1 0x1 PUSH1 0x1 PUSH1 0xA0 SHL SUB SWAP3 DUP4 AND OR SWAP1 SSTORE PUSH1 0x80 DUP4 ADD MLOAD PUSH1 0x4 DUP4 ADD SSTORE PUSH1 0xA0 DUP4 ADD MLOAD PUSH1 0x5 DUP4 ADD SSTORE PUSH1 0xC0 DUP4 ADD MLOAD PUSH1 0x6 DUP4 ADD SSTORE PUSH1 0xE0 DUP4 ADD MLOAD PUSH1 0x7 DUP4 ADD DUP1 SLOAD PUSH1 0xFF NOT AND SWAP2 ISZERO ISZERO SWAP2 SWAP1 SWAP2 OR SWAP1 SSTORE PUSH2 0x100 DUP4 ADD MLOAD PUSH1 0x8 DUP4 ADD SSTORE PUSH2 0x120 DUP4 ADD MLOAD PUSH1 0x9 SWAP1 SWAP3 ADD DUP1 SLOAD PUSH2 0x140 SWAP1 SWAP5 ADD MLOAD SWAP3 SWAP1 SWAP2 AND PUSH1 0x1 PUSH1 0x1 PUSH1 0xA8 SHL SUB NOT SWAP1 SWAP4 AND SWAP3 SWAP1 SWAP3 OR PUSH1 0x1 PUSH1 0xA0 SHL SWAP2 ISZERO ISZERO SWAP2 SWAP1 SWAP2 MUL OR SWAP1 SSTORE PUSH1 0x68 DUP1 SLOAD PUSH1 0x1 DUP2 ADD DUP3 SSTORE PUSH1 0x0 SWAP2 SWAP1 SWAP2 MSTORE DUP2 MLOAD DUP1 MLOAD DUP4 SWAP3 PUSH32 0xA2153420D844928B4421650203C77BABC8B33D7F2E7B450E2966DB0C22097753 PUSH1 0xA SWAP1 SWAP2 MUL ADD SWAP2 PUSH2 0x1CF3 SWAP2 DUP4 SWAP2 PUSH1 0x20 ADD SWAP1 PUSH2 0x4DC3 JUMP JUMPDEST POP PUSH1 0x20 DUP3 DUP2 ADD MLOAD PUSH1 0x1 DUP4 ADD SSTORE PUSH1 0x40 DUP4 ADD MLOAD DUP1 MLOAD PUSH2 0x1D16 SWAP3 PUSH1 0x2 DUP6 ADD SWAP3 ADD SWAP1 PUSH2 0x4DC3 JUMP JUMPDEST POP PUSH1 0x60 DUP3 ADD MLOAD PUSH1 0x3 DUP3 ADD DUP1 SLOAD PUSH1 0x1 PUSH1 0x1 PUSH1 0xA0 SHL SUB NOT AND PUSH1 0x1 PUSH1 0x1 PUSH1 0xA0 SHL SUB SWAP3 DUP4 AND OR SWAP1 SSTORE PUSH1 0x80 DUP4 ADD MLOAD PUSH1 0x4 DUP4 ADD SSTORE PUSH1 0xA0 DUP4 ADD MLOAD PUSH1 0x5 DUP4 ADD SSTORE PUSH1 0xC0 DUP4 ADD MLOAD PUSH1 0x6 DUP4 ADD SSTORE PUSH1 0xE0 DUP4 ADD MLOAD PUSH1 0x7 DUP4 ADD DUP1 SLOAD PUSH1 0xFF NOT AND SWAP2 ISZERO ISZERO SWAP2 SWAP1 SWAP2 OR SWAP1 SSTORE PUSH2 0x100 DUP4 ADD MLOAD PUSH1 0x8 DUP4 ADD SSTORE PUSH2 0x120 DUP4 ADD MLOAD PUSH1 0x9 SWAP1 SWAP3 ADD DUP1 SLOAD PUSH2 0x140 SWAP1 SWAP5 ADD MLOAD SWAP3 SWAP1 SWAP2 AND PUSH1 0x1 PUSH1 0x1 PUSH1 0xA8 SHL SUB NOT SWAP1 SWAP4 AND SWAP3 SWAP1 SWAP3 OR PUSH1 0x1 PUSH1 0xA0 SHL SWAP2 ISZERO ISZERO SWAP2 SWAP1 SWAP2 MUL OR SWAP1 SSTORE PUSH1 0x6B DUP1 SLOAD SWAP1 PUSH1 0x0 PUSH2 0x1DC2 DUP4 PUSH2 0x54A2 JUMP JUMPDEST SWAP1 SWAP2 SSTORE POP POP PUSH1 0x40 MLOAD DUP7 DUP2 MSTORE PUSH32 0x3302601C0B6AD9794207D2EB4A29C724DB57C9348BF10DFFCC98C9D89E6D9C52 SWAP1 PUSH1 0x20 ADD PUSH1 0x40 MLOAD DUP1 SWAP2 SUB SWAP1 LOG1 POP POP POP POP POP POP POP POP POP JUMP JUMPDEST PUSH2 0x1E0D PUSH2 0x3BEA JUMP JUMPDEST PUSH2 0x1E17 PUSH1 0x0 PUSH2 0x3C44 JUMP JUMPDEST JUMP JUMPDEST PUSH1 0x40 DUP1 MLOAD PUSH1 0xE0 DUP2 ADD DUP3 MSTORE PUSH1 0x0 DUP1 DUP3 MSTORE PUSH1 0x20 DUP3 ADD DUP2 SWAP1 MSTORE PUSH1 0x60 SWAP3 DUP3 ADD DUP4 SWAP1 MSTORE SWAP2 DUP2 ADD DUP3 SWAP1 MSTORE PUSH1 0x80 DUP2 ADD DUP3 SWAP1 MSTORE PUSH1 0xA0 DUP2 ADD DUP3 SWAP1 MSTORE PUSH1 0xC0 DUP2 ADD SWAP2 SWAP1 SWAP2 MSTORE PUSH1 0x40 MLOAD DUP1 PUSH1 0x20 ADD PUSH1 0x40 MSTORE DUP1 PUSH1 0x0 DUP2 MSTORE POP PUSH1 0x0 PUSH1 0x6F DUP3 PUSH1 0x40 MLOAD PUSH2 0x1E75 SWAP2 SWAP1 PUSH2 0x53AF JUMP JUMPDEST SWAP1 DUP2 MSTORE PUSH1 0x20 ADD PUSH1 0x40 MLOAD DUP1 SWAP2 SUB SWAP1 KECCAK256 PUSH1 0x40 MLOAD DUP1 PUSH2 0x160 ADD PUSH1 0x40 MSTORE SWAP1 DUP2 PUSH1 0x0 DUP3 ADD DUP1 SLOAD PUSH2 0x1E9F SWAP1 PUSH2 0x53CB JUMP JUMPDEST DUP1 PUSH1 0x1F ADD PUSH1 0x20 DUP1 SWAP2 DIV MUL PUSH1 0x20 ADD PUSH1 0x40 MLOAD SWAP1 DUP2 ADD PUSH1 0x40 MSTORE DUP1 SWAP3 SWAP2 SWAP1 DUP2 DUP2 MSTORE PUSH1 0x20 ADD DUP3 DUP1 SLOAD PUSH2 0x1ECB SWAP1 PUSH2 0x53CB JUMP JUMPDEST DUP1 ISZERO PUSH2 0x1F18 JUMPI DUP1 PUSH1 0x1F LT PUSH2 0x1EED JUMPI PUSH2 0x100 DUP1 DUP4 SLOAD DIV MUL DUP4 MSTORE SWAP2 PUSH1 0x20 ADD SWAP2 PUSH2 0x1F18 JUMP JUMPDEST DUP3 ADD SWAP2 SWAP1 PUSH1 0x0 MSTORE PUSH1 0x20 PUSH1 0x0 KECCAK256 SWAP1 JUMPDEST DUP2 SLOAD DUP2 MSTORE SWAP1 PUSH1 0x1 ADD SWAP1 PUSH1 0x20 ADD DUP1 DUP4 GT PUSH2 0x1EFB JUMPI DUP3 SWAP1 SUB PUSH1 0x1F AND DUP3 ADD SWAP2 JUMPDEST POP POP POP POP POP DUP2 MSTORE PUSH1 0x20 ADD PUSH1 0x1 DUP3 ADD SLOAD DUP2 MSTORE PUSH1 0x20 ADD PUSH1 0x2 DUP3 ADD DUP1 SLOAD PUSH2 0x1F3B SWAP1 PUSH2 0x53CB JUMP JUMPDEST DUP1 PUSH1 0x1F ADD PUSH1 0x20 DUP1 SWAP2 DIV MUL PUSH1 0x20 ADD PUSH1 0x40 MLOAD SWAP1 DUP2 ADD PUSH1 0x40 MSTORE DUP1 SWAP3 SWAP2 SWAP1 DUP2 DUP2 MSTORE PUSH1 0x20 ADD DUP3 DUP1 SLOAD PUSH2 0x1F67 SWAP1 PUSH2 0x53CB JUMP JUMPDEST DUP1 ISZERO PUSH2 0x1FB4 JUMPI DUP1 PUSH1 0x1F LT PUSH2 0x1F89 JUMPI PUSH2 0x100 DUP1 DUP4 SLOAD DIV MUL DUP4 MSTORE SWAP2 PUSH1 0x20 ADD SWAP2 PUSH2 0x1FB4 JUMP JUMPDEST DUP3 ADD SWAP2 SWAP1 PUSH1 0x0 MSTORE PUSH1 0x20 PUSH1 0x0 KECCAK256 SWAP1 JUMPDEST DUP2 SLOAD DUP2 MSTORE SWAP1 PUSH1 0x1 ADD SWAP1 PUSH1 0x20 ADD DUP1 DUP4 GT PUSH2 0x1F97 JUMPI DUP3 SWAP1 SUB PUSH1 0x1F AND DUP3 ADD SWAP2 JUMPDEST POP POP POP SWAP2 DUP4 MSTORE POP POP PUSH1 0x3 DUP3 DUP2 ADD SLOAD PUSH1 0x1 PUSH1 0x1 PUSH1 0xA0 SHL SUB SWAP1 DUP2 AND PUSH1 0x20 DUP1 DUP6 ADD SWAP2 SWAP1 SWAP2 MSTORE PUSH1 0x4 DUP6 ADD SLOAD PUSH1 0x40 DUP6 ADD MSTORE PUSH1 0x5 DUP6 ADD SLOAD PUSH1 0x60 DUP6 ADD MSTORE PUSH1 0x6 DUP6 ADD SLOAD PUSH1 0x80 DUP6 ADD MSTORE PUSH1 0x7 DUP6 ADD SLOAD PUSH1 0xFF SWAP1 DUP2 AND ISZERO ISZERO PUSH1 0xA0 DUP7 ADD MSTORE PUSH1 0x8 DUP7 ADD SLOAD PUSH1 0xC0 DUP7 ADD MSTORE PUSH1 0x9 SWAP1 SWAP6 ADD SLOAD SWAP2 DUP3 AND PUSH1 0xE0 DUP6 ADD MSTORE PUSH1 0x1 PUSH1 0xA0 SHL SWAP1 SWAP2 DIV SWAP1 SWAP4 AND ISZERO ISZERO PUSH2 0x100 SWAP1 SWAP3 ADD SWAP2 SWAP1 SWAP2 MSTORE SWAP1 DUP3 ADD MLOAD SWAP2 SWAP3 POP GT PUSH2 0x2058 JUMPI PUSH1 0x40 MLOAD PUSH3 0x461BCD PUSH1 0xE5 SHL DUP2 MSTORE PUSH1 0x4 ADD PUSH2 0x55B SWAP1 PUSH2 0x5406 JUMP JUMPDEST PUSH1 0x1 PUSH1 0x1 PUSH1 0xA0 SHL SUB DUP1 DUP6 AND PUSH1 0x0 SWAP1 DUP2 MSTORE PUSH1 0x73 PUSH1 0x20 SWAP1 DUP2 MSTORE PUSH1 0x40 SWAP2 DUP3 SWAP1 KECCAK256 DUP3 MLOAD PUSH1 0xE0 DUP2 ADD DUP5 MSTORE DUP2 SLOAD DUP2 MSTORE PUSH1 0x1 DUP3 ADD SLOAD SWAP1 SWAP5 AND SWAP2 DUP5 ADD SWAP2 SWAP1 SWAP2 MSTORE PUSH1 0x2 DUP2 ADD DUP1 SLOAD SWAP2 SWAP3 DUP5 ADD SWAP2 PUSH2 0x20A4 SWAP1 PUSH2 0x53CB JUMP JUMPDEST DUP1 PUSH1 0x1F ADD PUSH1 0x20 DUP1 SWAP2 DIV MUL PUSH1 0x20 ADD PUSH1 0x40 MLOAD SWAP1 DUP2 ADD PUSH1 0x40 MSTORE DUP1 SWAP3 SWAP2 SWAP1 DUP2 DUP2 MSTORE PUSH1 0x20 ADD DUP3 DUP1 SLOAD PUSH2 0x20D0 SWAP1 PUSH2 0x53CB JUMP JUMPDEST DUP1 ISZERO PUSH2 0x211D JUMPI DUP1 PUSH1 0x1F LT PUSH2 0x20F2 JUMPI PUSH2 0x100 DUP1 DUP4 SLOAD DIV MUL DUP4 MSTORE SWAP2 PUSH1 0x20 ADD SWAP2 PUSH2 0x211D JUMP JUMPDEST DUP3 ADD SWAP2 SWAP1 PUSH1 0x0 MSTORE PUSH1 0x20 PUSH1 0x0 KECCAK256 SWAP1 JUMPDEST DUP2 SLOAD DUP2 MSTORE SWAP1 PUSH1 0x1 ADD SWAP1 PUSH1 0x20 ADD DUP1 DUP4 GT PUSH2 0x2100 JUMPI DUP3 SWAP1 SUB PUSH1 0x1F AND DUP3 ADD SWAP2 JUMPDEST POP POP POP SWAP2 DUP4 MSTORE POP POP PUSH1 0x3 DUP3 ADD SLOAD PUSH1 0xFF DUP1 DUP3 AND ISZERO ISZERO PUSH1 0x20 DUP5 ADD MSTORE PUSH2 0x100 DUP3 DIV DUP2 AND ISZERO ISZERO PUSH1 0x40 DUP5 ADD MSTORE PUSH3 0x10000 SWAP1 SWAP2 DIV AND ISZERO ISZERO PUSH1 0x60 DUP3 ADD MSTORE PUSH1 0x4 SWAP1 SWAP2 ADD SLOAD PUSH1 0x80 SWAP1 SWAP2 ADD MSTORE SWAP5 SWAP4 POP POP POP POP JUMP JUMPDEST PUSH2 0x219B PUSH1 0x40 MLOAD DUP1 PUSH1 0x80 ADD PUSH1 0x40 MSTORE DUP1 PUSH1 0x0 DUP2 MSTORE PUSH1 0x20 ADD PUSH1 0x60 DUP2 MSTORE PUSH1 0x20 ADD PUSH1 0x0 PUSH1 0x1 PUSH1 0x1 PUSH1 0xA0 SHL SUB AND DUP2 MSTORE PUSH1 0x20 ADD PUSH1 0x0 DUP2 MSTORE POP SWAP1 JUMP JUMPDEST PUSH1 0x40 MLOAD DUP1 PUSH1 0x20 ADD PUSH1 0x40 MSTORE DUP1 PUSH1 0x0 DUP2 MSTORE POP PUSH1 0x0 PUSH1 0x6F DUP3 PUSH1 0x40 MLOAD PUSH2 0x21BD SWAP2 SWAP1 PUSH2 0x53AF JUMP JUMPDEST SWAP1 DUP2 MSTORE PUSH1 0x20 ADD PUSH1 0x40 MLOAD DUP1 SWAP2 SUB SWAP1 KECCAK256 PUSH1 0x40 MLOAD DUP1 PUSH2 0x160 ADD PUSH1 0x40 MSTORE SWAP1 DUP2 PUSH1 0x0 DUP3 ADD DUP1 SLOAD PUSH2 0x21E7 SWAP1 PUSH2 0x53CB JUMP JUMPDEST DUP1 PUSH1 0x1F ADD PUSH1 0x20 DUP1 SWAP2 DIV MUL PUSH1 0x20 ADD PUSH1 0x40 MLOAD SWAP1 DUP2 ADD PUSH1 0x40 MSTORE DUP1 SWAP3 SWAP2 SWAP1 DUP2 DUP2 MSTORE PUSH1 0x20 ADD DUP3 DUP1 SLOAD PUSH2 0x2213 SWAP1 PUSH2 0x53CB JUMP JUMPDEST DUP1 ISZERO PUSH2 0x2260 JUMPI DUP1 PUSH1 0x1F LT PUSH2 0x2235 JUMPI PUSH2 0x100 DUP1 DUP4 SLOAD DIV MUL DUP4 MSTORE SWAP2 PUSH1 0x20 ADD SWAP2 PUSH2 0x2260 JUMP JUMPDEST DUP3 ADD SWAP2 SWAP1 PUSH1 0x0 MSTORE PUSH1 0x20 PUSH1 0x0 KECCAK256 SWAP1 JUMPDEST DUP2 SLOAD DUP2 MSTORE SWAP1 PUSH1 0x1 ADD SWAP1 PUSH1 0x20 ADD DUP1 DUP4 GT PUSH2 0x2243 JUMPI DUP3 SWAP1 SUB PUSH1 0x1F AND DUP3 ADD SWAP2 JUMPDEST POP POP POP POP POP DUP2 MSTORE PUSH1 0x20 ADD PUSH1 0x1 DUP3 ADD SLOAD DUP2 MSTORE PUSH1 0x20 ADD PUSH1 0x2 DUP3 ADD DUP1 SLOAD PUSH2 0x2283 SWAP1 PUSH2 0x53CB JUMP JUMPDEST DUP1 PUSH1 0x1F ADD PUSH1 0x20 DUP1 SWAP2 DIV MUL PUSH1 0x20 ADD PUSH1 0x40 MLOAD SWAP1 DUP2 ADD PUSH1 0x40 MSTORE DUP1 SWAP3 SWAP2 SWAP1 DUP2 DUP2 MSTORE PUSH1 0x20 ADD DUP3 DUP1 SLOAD PUSH2 0x22AF SWAP1 PUSH2 0x53CB JUMP JUMPDEST DUP1 ISZERO PUSH2 0x22FC JUMPI DUP1 PUSH1 0x1F LT PUSH2 0x22D1 JUMPI PUSH2 0x100 DUP1 DUP4 SLOAD DIV MUL DUP4 MSTORE SWAP2 PUSH1 0x20 ADD SWAP2 PUSH2 0x22FC JUMP JUMPDEST DUP3 ADD SWAP2 SWAP1 PUSH1 0x0 MSTORE PUSH1 0x20 PUSH1 0x0 KECCAK256 SWAP1 JUMPDEST DUP2 SLOAD DUP2 MSTORE SWAP1 PUSH1 0x1 ADD SWAP1 PUSH1 0x20 ADD DUP1 DUP4 GT PUSH2 0x22DF JUMPI DUP3 SWAP1 SUB PUSH1 0x1F AND DUP3 ADD SWAP2 JUMPDEST POP POP POP SWAP2 DUP4 MSTORE POP POP PUSH1 0x3 DUP3 DUP2 ADD SLOAD PUSH1 0x1 PUSH1 0x1 PUSH1 0xA0 SHL SUB SWAP1 DUP2 AND PUSH1 0x20 DUP1 DUP6 ADD SWAP2 SWAP1 SWAP2 MSTORE PUSH1 0x4 DUP6 ADD SLOAD PUSH1 0x40 DUP6 ADD MSTORE PUSH1 0x5 DUP6 ADD SLOAD PUSH1 0x60 DUP6 ADD MSTORE PUSH1 0x6 DUP6 ADD SLOAD PUSH1 0x80 DUP6 ADD MSTORE PUSH1 0x7 DUP6 ADD SLOAD PUSH1 0xFF SWAP1 DUP2 AND ISZERO ISZERO PUSH1 0xA0 DUP7 ADD MSTORE PUSH1 0x8 DUP7 ADD SLOAD PUSH1 0xC0 DUP7 ADD MSTORE PUSH1 0x9 SWAP1 SWAP6 ADD SLOAD SWAP2 DUP3 AND PUSH1 0xE0 DUP6 ADD MSTORE PUSH1 0x1 PUSH1 0xA0 SHL SWAP1 SWAP2 DIV SWAP1 SWAP4 AND ISZERO ISZERO PUSH2 0x100 SWAP1 SWAP3 ADD SWAP2 SWAP1 SWAP2 MSTORE SWAP1 DUP3 ADD MLOAD SWAP2 SWAP3 POP GT PUSH2 0x23A0 JUMPI PUSH1 0x40 MLOAD PUSH3 0x461BCD PUSH1 0xE5 SHL DUP2 MSTORE PUSH1 0x4 ADD PUSH2 0x55B SWAP1 PUSH2 0x5406 JUMP JUMPDEST PUSH1 0x1 PUSH1 0x1 PUSH1 0xA0 SHL SUB DUP5 AND PUSH1 0x0 SWAP1 DUP2 MSTORE PUSH1 0x72 PUSH1 0x20 SWAP1 DUP2 MSTORE PUSH1 0x40 SWAP2 DUP3 SWAP1 KECCAK256 DUP3 MLOAD PUSH1 0x80 DUP2 ADD SWAP1 SWAP4 MSTORE DUP1 SLOAD DUP4 MSTORE PUSH1 0x1 DUP2 ADD DUP1 SLOAD SWAP2 SWAP3 DUP5 ADD SWAP2 PUSH2 0x23DD SWAP1 PUSH2 0x53CB JUMP JUMPDEST DUP1 PUSH1 0x1F ADD PUSH1 0x20 DUP1 SWAP2 DIV MUL PUSH1 0x20 ADD PUSH1 0x40 MLOAD SWAP1 DUP2 ADD PUSH1 0x40 MSTORE DUP1 SWAP3 SWAP2 SWAP1 DUP2 DUP2 MSTORE PUSH1 0x20 ADD DUP3 DUP1 SLOAD PUSH2 0x2409 SWAP1 PUSH2 0x53CB JUMP JUMPDEST DUP1 ISZERO PUSH2 0x2456 JUMPI DUP1 PUSH1 0x1F LT PUSH2 0x242B JUMPI PUSH2 0x100 DUP1 DUP4 SLOAD DIV MUL DUP4 MSTORE SWAP2 PUSH1 0x20 ADD SWAP2 PUSH2 0x2456 JUMP JUMPDEST DUP3 ADD SWAP2 SWAP1 PUSH1 0x0 MSTORE PUSH1 0x20 PUSH1 0x0 KECCAK256 SWAP1 JUMPDEST DUP2 SLOAD DUP2 MSTORE SWAP1 PUSH1 0x1 ADD SWAP1 PUSH1 0x20 ADD DUP1 DUP4 GT PUSH2 0x2439 JUMPI DUP3 SWAP1 SUB PUSH1 0x1F AND DUP3 ADD SWAP2 JUMPDEST POP POP POP SWAP2 DUP4 MSTORE POP POP PUSH1 0x2 DUP3 ADD SLOAD PUSH1 0x1 PUSH1 0x1 PUSH1 0xA0 SHL SUB AND PUSH1 0x20 DUP3 ADD MSTORE PUSH1 0x3 SWAP1 SWAP2 ADD SLOAD PUSH1 0x40 SWAP1 SWAP2 ADD MSTORE SWAP5 SWAP4 POP POP POP POP JUMP JUMPDEST PUSH2 0x248D PUSH2 0x3BEA JUMP JUMPDEST PUSH1 0x1 PUSH1 0x6E SLOAD PUSH2 0x249C SWAP2 SWAP1 PUSH2 0x5453 JUMP JUMPDEST DUP3 GT DUP1 ISZERO PUSH2 0x24B6 JUMPI POP PUSH1 0x6E SLOAD PUSH2 0x24B3 SWAP1 PUSH1 0x1 PUSH2 0x54BD JUMP JUMPDEST DUP3 LT JUMPDEST PUSH2 0x24F8 JUMPI PUSH1 0x40 MLOAD PUSH3 0x461BCD PUSH1 0xE5 SHL DUP2 MSTORE PUSH1 0x20 PUSH1 0x4 DUP3 ADD MSTORE PUSH1 0x13 PUSH1 0x24 DUP3 ADD MSTORE PUSH19 0x496E76616C6964205479706520496E64657821 PUSH1 0x68 SHL PUSH1 0x44 DUP3 ADD MSTORE PUSH1 0x64 ADD PUSH2 0x55B JUMP JUMPDEST PUSH1 0x6D PUSH1 0x6E SLOAD PUSH1 0x1 PUSH2 0x2509 SWAP2 SWAP1 PUSH2 0x54BD JUMP JUMPDEST DUP2 SLOAD PUSH1 0x1 DUP2 ADD DUP4 SSTORE PUSH1 0x0 SWAP3 DUP4 MSTORE PUSH1 0x20 DUP1 DUP5 KECCAK256 SWAP1 SWAP2 ADD SWAP2 SWAP1 SWAP2 SSTORE DUP4 DUP3 MSTORE PUSH1 0x67 DUP2 MSTORE PUSH1 0x40 SWAP1 SWAP2 KECCAK256 DUP3 MLOAD PUSH2 0x253C SWAP3 DUP5 ADD SWAP1 PUSH2 0x4DC3 JUMP JUMPDEST POP POP POP JUMP JUMPDEST PUSH1 0x0 PUSH1 0x6F DUP3 PUSH1 0x40 MLOAD PUSH2 0x2553 SWAP2 SWAP1 PUSH2 0x53AF JUMP JUMPDEST SWAP1 DUP2 MSTORE PUSH1 0x20 ADD PUSH1 0x40 MLOAD DUP1 SWAP2 SUB SWAP1 KECCAK256 SWAP1 POP PUSH1 0x0 PUSH1 0x18 PUSH1 0x3C DUP1 DUP5 PUSH1 0x5 ADD SLOAD TIMESTAMP PUSH2 0x257A SWAP2 SWAP1 PUSH2 0x5453 JUMP JUMPDEST PUSH2 0x2584 SWAP2 SWAP1 PUSH2 0x546A JUMP JUMPDEST PUSH2 0x258E SWAP2 SWAP1 PUSH2 0x546A JUMP JUMPDEST PUSH2 0x2598 SWAP2 SWAP1 PUSH2 0x546A JUMP JUMPDEST SWAP1 POP DUP2 PUSH1 0x6 ADD SLOAD DUP2 LT DUP1 ISZERO PUSH2 0x25B9 JUMPI POP PUSH1 0x3 DUP3 ADD SLOAD PUSH1 0x1 PUSH1 0x1 PUSH1 0xA0 SHL SUB AND CALLER EQ JUMPDEST PUSH2 0x25FD JUMPI PUSH1 0x40 MLOAD PUSH3 0x461BCD PUSH1 0xE5 SHL DUP2 MSTORE PUSH1 0x20 PUSH1 0x4 DUP3 ADD MSTORE PUSH1 0x15 PUSH1 0x24 DUP3 ADD MSTORE PUSH21 0x4572726F7220456E64696E672042616C6C6F742121 PUSH1 0x58 SHL PUSH1 0x44 DUP3 ADD MSTORE PUSH1 0x64 ADD PUSH2 0x55B JUMP JUMPDEST PUSH1 0x7 DUP3 ADD DUP1 SLOAD PUSH1 0xFF NOT AND PUSH1 0x1 SWAP1 DUP2 OR SWAP1 SWAP2 SSTORE PUSH1 0x40 MLOAD PUSH1 0x6F SWAP1 PUSH2 0x2620 SWAP1 DUP7 SWAP1 PUSH2 0x53AF JUMP JUMPDEST SWAP1 DUP2 MSTORE PUSH1 0x40 MLOAD SWAP1 DUP2 SWAP1 SUB PUSH1 0x20 ADD DUP2 KECCAK256 PUSH1 0x7 ADD DUP1 SLOAD SWAP3 ISZERO ISZERO PUSH1 0xFF NOT SWAP1 SWAP4 AND SWAP3 SWAP1 SWAP3 OR SWAP1 SWAP2 SSTORE PUSH32 0x20B0A6E75F9B4E7936CF2C0AAB0F37EE94D3AEDF66A6B4540824B721C8BD592 SWAP1 PUSH2 0x2671 SWAP1 DUP6 SWAP1 PUSH2 0x54D5 JUMP JUMPDEST PUSH1 0x40 MLOAD DUP1 SWAP2 SUB SWAP1 LOG1 POP POP POP JUMP JUMPDEST PUSH1 0x0 DUP3 DUP3 PUSH1 0x0 PUSH1 0x6F DUP3 PUSH1 0x40 MLOAD PUSH2 0x2694 SWAP2 SWAP1 PUSH2 0x53AF JUMP JUMPDEST SWAP1 DUP2 MSTORE PUSH1 0x20 ADD PUSH1 0x40 MLOAD DUP1 SWAP2 SUB SWAP1 KECCAK256 PUSH1 0x40 MLOAD DUP1 PUSH2 0x160 ADD PUSH1 0x40 MSTORE SWAP1 DUP2 PUSH1 0x0 DUP3 ADD DUP1 SLOAD PUSH2 0x26BE SWAP1 PUSH2 0x53CB JUMP JUMPDEST DUP1 PUSH1 0x1F ADD PUSH1 0x20 DUP1 SWAP2 DIV MUL PUSH1 0x20 ADD PUSH1 0x40 MLOAD SWAP1 DUP2 ADD PUSH1 0x40 MSTORE DUP1 SWAP3 SWAP2 SWAP1 DUP2 DUP2 MSTORE PUSH1 0x20 ADD DUP3 DUP1 SLOAD PUSH2 0x26EA SWAP1 PUSH2 0x53CB JUMP JUMPDEST DUP1 ISZERO PUSH2 0x2737 JUMPI DUP1 PUSH1 0x1F LT PUSH2 0x270C JUMPI PUSH2 0x100 DUP1 DUP4 SLOAD DIV MUL DUP4 MSTORE SWAP2 PUSH1 0x20 ADD SWAP2 PUSH2 0x2737 JUMP JUMPDEST DUP3 ADD SWAP2 SWAP1 PUSH1 0x0 MSTORE PUSH1 0x20 PUSH1 0x0 KECCAK256 SWAP1 JUMPDEST DUP2 SLOAD DUP2 MSTORE SWAP1 PUSH1 0x1 ADD SWAP1 PUSH1 0x20 ADD DUP1 DUP4 GT PUSH2 0x271A JUMPI DUP3 SWAP1 SUB PUSH1 0x1F AND DUP3 ADD SWAP2 JUMPDEST POP POP POP POP POP DUP2 MSTORE PUSH1 0x20 ADD PUSH1 0x1 DUP3 ADD SLOAD DUP2 MSTORE PUSH1 0x20 ADD PUSH1 0x2 DUP3 ADD DUP1 SLOAD PUSH2 0x275A SWAP1 PUSH2 0x53CB JUMP JUMPDEST DUP1 PUSH1 0x1F ADD PUSH1 0x20 DUP1 SWAP2 DIV MUL PUSH1 0x20 ADD PUSH1 0x40 MLOAD SWAP1 DUP2 ADD PUSH1 0x40 MSTORE DUP1 SWAP3 SWAP2 SWAP1 DUP2 DUP2 MSTORE PUSH1 0x20 ADD DUP3 DUP1 SLOAD PUSH2 0x2786 SWAP1 PUSH2 0x53CB JUMP JUMPDEST DUP1 ISZERO PUSH2 0x27D3 JUMPI DUP1 PUSH1 0x1F LT PUSH2 0x27A8 JUMPI PUSH2 0x100 DUP1 DUP4 SLOAD DIV MUL DUP4 MSTORE SWAP2 PUSH1 0x20 ADD SWAP2 PUSH2 0x27D3 JUMP JUMPDEST DUP3 ADD SWAP2 SWAP1 PUSH1 0x0 MSTORE PUSH1 0x20 PUSH1 0x0 KECCAK256 SWAP1 JUMPDEST DUP2 SLOAD DUP2 MSTORE SWAP1 PUSH1 0x1 ADD SWAP1 PUSH1 0x20 ADD DUP1 DUP4 GT PUSH2 0x27B6 JUMPI DUP3 SWAP1 SUB PUSH1 0x1F AND DUP3 ADD SWAP2 JUMPDEST POP POP POP SWAP2 DUP4 MSTORE POP POP PUSH1 0x3 DUP3 ADD SLOAD PUSH1 0x1 PUSH1 0x1 PUSH1 0xA0 SHL SUB SWAP1 DUP2 AND PUSH1 0x20 DUP4 ADD MSTORE PUSH1 0x4 DUP4 ADD SLOAD PUSH1 0x40 DUP4 ADD MSTORE PUSH1 0x5 DUP4 ADD SLOAD PUSH1 0x60 DUP4 ADD MSTORE PUSH1 0x6 DUP4 ADD SLOAD PUSH1 0x80 DUP4 ADD MSTORE PUSH1 0x7 DUP4 ADD SLOAD PUSH1 0xFF SWAP1 DUP2 AND ISZERO ISZERO PUSH1 0xA0 DUP1 DUP6 ADD SWAP2 SWAP1 SWAP2 MSTORE PUSH1 0x8 DUP6 ADD SLOAD PUSH1 0xC0 DUP6 ADD MSTORE PUSH1 0x9 SWAP1 SWAP5 ADD SLOAD SWAP2 DUP3 AND PUSH1 0xE0 DUP5 ADD MSTORE PUSH1 0x1 PUSH1 0xA0 SHL SWAP1 SWAP2 DIV AND ISZERO ISZERO PUSH2 0x100 SWAP1 SWAP2 ADD MSTORE DUP2 ADD MLOAD SWAP1 SWAP2 POP PUSH1 0x0 SWAP1 PUSH2 0x2860 SWAP1 TIMESTAMP PUSH2 0x5453 JUMP JUMPDEST PUSH1 0x68 SLOAD SWAP1 SWAP2 POP PUSH1 0x1 DUP2 LT DUP1 ISZERO SWAP1 PUSH2 0x2887 JUMPI POP PUSH1 0xC0 DUP4 ADD MLOAD PUSH2 0x2884 SWAP1 PUSH3 0x15180 PUSH2 0x54E8 JUMP JUMPDEST DUP3 LT JUMPDEST DUP1 ISZERO PUSH2 0x2976 JUMPI POP CALLER PUSH1 0x0 SWAP1 DUP2 MSTORE PUSH1 0x74 PUSH1 0x20 SWAP1 DUP2 MSTORE PUSH1 0x40 DUP1 DUP4 KECCAK256 DUP1 SLOAD DUP3 MLOAD DUP2 DUP6 MUL DUP2 ADD DUP6 ADD SWAP1 SWAP4 MSTORE DUP1 DUP4 MSTORE PUSH2 0x2974 SWAP5 SWAP3 SWAP4 SWAP2 SWAP3 SWAP1 SWAP2 DUP5 ADD JUMPDEST DUP3 DUP3 LT ISZERO PUSH2 0x296A JUMPI DUP4 DUP3 SWAP1 PUSH1 0x0 MSTORE PUSH1 0x20 PUSH1 0x0 KECCAK256 ADD DUP1 SLOAD PUSH2 0x28DD SWAP1 PUSH2 0x53CB JUMP JUMPDEST DUP1 PUSH1 0x1F ADD PUSH1 0x20 DUP1 SWAP2 DIV MUL PUSH1 0x20 ADD PUSH1 0x40 MLOAD SWAP1 DUP2 ADD PUSH1 0x40 MSTORE DUP1 SWAP3 SWAP2 SWAP1 DUP2 DUP2 MSTORE PUSH1 0x20 ADD DUP3 DUP1 SLOAD PUSH2 0x2909 SWAP1 PUSH2 0x53CB JUMP JUMPDEST DUP1 ISZERO PUSH2 0x2956 JUMPI DUP1 PUSH1 0x1F LT PUSH2 0x292B JUMPI PUSH2 0x100 DUP1 DUP4 SLOAD DIV MUL DUP4 MSTORE SWAP2 PUSH1 0x20 ADD SWAP2 PUSH2 0x2956 JUMP JUMPDEST DUP3 ADD SWAP2 SWAP1 PUSH1 0x0 MSTORE PUSH1 0x20 PUSH1 0x0 KECCAK256 SWAP1 JUMPDEST DUP2 SLOAD DUP2 MSTORE SWAP1 PUSH1 0x1 ADD SWAP1 PUSH1 0x20 ADD DUP1 DUP4 GT PUSH2 0x2939 JUMPI DUP3 SWAP1 SUB PUSH1 0x1F AND DUP3 ADD SWAP2 JUMPDEST POP POP POP POP POP DUP2 MSTORE PUSH1 0x20 ADD SWAP1 PUSH1 0x1 ADD SWAP1 PUSH2 0x28BE JUMP JUMPDEST POP POP POP POP DUP6 PUSH2 0x2ECF JUMP JUMPDEST ISZERO JUMPDEST DUP1 ISZERO PUSH2 0x2A61 JUMPI POP PUSH2 0x2A5F PUSH1 0x76 PUSH1 0x0 DUP8 DUP2 MSTORE PUSH1 0x20 ADD SWAP1 DUP2 MSTORE PUSH1 0x20 ADD PUSH1 0x0 KECCAK256 DUP1 SLOAD DUP1 PUSH1 0x20 MUL PUSH1 0x20 ADD PUSH1 0x40 MLOAD SWAP1 DUP2 ADD PUSH1 0x40 MSTORE DUP1 SWAP3 SWAP2 SWAP1 DUP2 DUP2 MSTORE PUSH1 0x20 ADD PUSH1 0x0 SWAP1 JUMPDEST DUP3 DUP3 LT ISZERO PUSH2 0x296A JUMPI DUP4 DUP3 SWAP1 PUSH1 0x0 MSTORE PUSH1 0x20 PUSH1 0x0 KECCAK256 ADD DUP1 SLOAD PUSH2 0x29D2 SWAP1 PUSH2 0x53CB JUMP JUMPDEST DUP1 PUSH1 0x1F ADD PUSH1 0x20 DUP1 SWAP2 DIV MUL PUSH1 0x20 ADD PUSH1 0x40 MLOAD SWAP1 DUP2 ADD PUSH1 0x40 MSTORE DUP1 SWAP3 SWAP2 SWAP1 DUP2 DUP2 MSTORE PUSH1 0x20 ADD DUP3 DUP1 SLOAD PUSH2 0x29FE SWAP1 PUSH2 0x53CB JUMP JUMPDEST DUP1 ISZERO PUSH2 0x2A4B JUMPI DUP1 PUSH1 0x1F LT PUSH2 0x2A20 JUMPI PUSH2 0x100 DUP1 DUP4 SLOAD DIV MUL DUP4 MSTORE SWAP2 PUSH1 0x20 ADD SWAP2 PUSH2 0x2A4B JUMP JUMPDEST DUP3 ADD SWAP2 SWAP1 PUSH1 0x0 MSTORE PUSH1 0x20 PUSH1 0x0 KECCAK256 SWAP1 JUMPDEST DUP2 SLOAD DUP2 MSTORE SWAP1 PUSH1 0x1 ADD SWAP1 PUSH1 0x20 ADD DUP1 DUP4 GT PUSH2 0x2A2E JUMPI DUP3 SWAP1 SUB PUSH1 0x1F AND DUP3 ADD SWAP2 JUMPDEST POP POP POP POP POP DUP2 MSTORE PUSH1 0x20 ADD SWAP1 PUSH1 0x1 ADD SWAP1 PUSH2 0x29B3 JUMP JUMPDEST ISZERO JUMPDEST DUP1 ISZERO PUSH2 0x2A7E JUMPI POP PUSH2 0x100 DUP4 ADD MLOAD PUSH2 0x2A7B SWAP1 PUSH3 0x15180 PUSH2 0x54E8 JUMP JUMPDEST DUP3 LT JUMPDEST PUSH2 0x2A9A JUMPI PUSH1 0x40 MLOAD PUSH3 0x461BCD PUSH1 0xE5 SHL DUP2 MSTORE PUSH1 0x4 ADD PUSH2 0x55B SWAP1 PUSH2 0x5507 JUMP JUMPDEST PUSH1 0x0 PUSH1 0x6F DUP9 PUSH1 0x40 MLOAD PUSH2 0x2AAC SWAP2 SWAP1 PUSH2 0x53AF JUMP JUMPDEST SWAP1 DUP2 MSTORE PUSH1 0x20 ADD PUSH1 0x40 MLOAD DUP1 SWAP2 SUB SWAP1 KECCAK256 PUSH1 0x40 MLOAD DUP1 PUSH2 0x160 ADD PUSH1 0x40 MSTORE SWAP1 DUP2 PUSH1 0x0 DUP3 ADD DUP1 SLOAD PUSH2 0x2AD6 SWAP1 PUSH2 0x53CB JUMP JUMPDEST DUP1 PUSH1 0x1F ADD PUSH1 0x20 DUP1 SWAP2 DIV MUL PUSH1 0x20 ADD PUSH1 0x40 MLOAD SWAP1 DUP2 ADD PUSH1 0x40 MSTORE DUP1 SWAP3 SWAP2 SWAP1 DUP2 DUP2 MSTORE PUSH1 0x20 ADD DUP3 DUP1 SLOAD PUSH2 0x2B02 SWAP1 PUSH2 0x53CB JUMP JUMPDEST DUP1 ISZERO PUSH2 0x2B4F JUMPI DUP1 PUSH1 0x1F LT PUSH2 0x2B24 JUMPI PUSH2 0x100 DUP1 DUP4 SLOAD DIV MUL DUP4 MSTORE SWAP2 PUSH1 0x20 ADD SWAP2 PUSH2 0x2B4F JUMP JUMPDEST DUP3 ADD SWAP2 SWAP1 PUSH1 0x0 MSTORE PUSH1 0x20 PUSH1 0x0 KECCAK256 SWAP1 JUMPDEST DUP2 SLOAD DUP2 MSTORE SWAP1 PUSH1 0x1 ADD SWAP1 PUSH1 0x20 ADD DUP1 DUP4 GT PUSH2 0x2B32 JUMPI DUP3 SWAP1 SUB PUSH1 0x1F AND DUP3 ADD SWAP2 JUMPDEST POP POP POP POP POP DUP2 MSTORE PUSH1 0x20 ADD PUSH1 0x1 DUP3 ADD SLOAD DUP2 MSTORE PUSH1 0x20 ADD PUSH1 0x2 DUP3 ADD DUP1 SLOAD PUSH2 0x2B72 SWAP1 PUSH2 0x53CB JUMP JUMPDEST DUP1 PUSH1 0x1F ADD PUSH1 0x20 DUP1 SWAP2 DIV MUL PUSH1 0x20 ADD PUSH1 0x40 MLOAD SWAP1 DUP2 ADD PUSH1 0x40 MSTORE DUP1 SWAP3 SWAP2 SWAP1 DUP2 DUP2 MSTORE PUSH1 0x20 ADD DUP3 DUP1 SLOAD PUSH2 0x2B9E SWAP1 PUSH2 0x53CB JUMP JUMPDEST DUP1 ISZERO PUSH2 0x2BEB JUMPI DUP1 PUSH1 0x1F LT PUSH2 0x2BC0 JUMPI PUSH2 0x100 DUP1 DUP4 SLOAD DIV MUL DUP4 MSTORE SWAP2 PUSH1 0x20 ADD SWAP2 PUSH2 0x2BEB JUMP JUMPDEST DUP3 ADD SWAP2 SWAP1 PUSH1 0x0 MSTORE PUSH1 0x20 PUSH1 0x0 KECCAK256 SWAP1 JUMPDEST DUP2 SLOAD DUP2 MSTORE SWAP1 PUSH1 0x1 ADD SWAP1 PUSH1 0x20 ADD DUP1 DUP4 GT PUSH2 0x2BCE JUMPI DUP3 SWAP1 SUB PUSH1 0x1F AND DUP3 ADD SWAP2 JUMPDEST POP POP POP SWAP2 DUP4 MSTORE POP POP PUSH1 0x3 DUP3 ADD SLOAD PUSH1 0x1 PUSH1 0x1 PUSH1 0xA0 SHL SUB SWAP1 DUP2 AND PUSH1 0x20 DUP1 DUP5 ADD SWAP2 SWAP1 SWAP2 MSTORE PUSH1 0x4 DUP5 ADD SLOAD PUSH1 0x40 DUP5 ADD MSTORE PUSH1 0x5 DUP5 ADD SLOAD PUSH1 0x60 DUP5 ADD MSTORE PUSH1 0x6 DUP5 ADD SLOAD PUSH1 0x80 DUP5 ADD MSTORE PUSH1 0x7 DUP5 ADD SLOAD PUSH1 0xFF SWAP1 DUP2 AND ISZERO ISZERO PUSH1 0xA0 DUP6 ADD MSTORE PUSH1 0x8 DUP6 ADD SLOAD PUSH1 0xC0 DUP6 ADD MSTORE PUSH1 0x9 SWAP1 SWAP5 ADD SLOAD SWAP2 DUP3 AND PUSH1 0xE0 DUP5 ADD MSTORE PUSH1 0x1 PUSH1 0xA0 SHL SWAP1 SWAP2 DIV SWAP1 SWAP3 AND ISZERO ISZERO PUSH2 0x100 SWAP1 SWAP2 ADD MSTORE DUP2 ADD MLOAD SWAP1 SWAP2 POP ISZERO DUP1 PUSH2 0x2C7D JUMPI POP DUP1 PUSH1 0x20 ADD MLOAD PUSH1 0x2 EQ JUMPDEST ISZERO PUSH2 0x2C98 JUMPI PUSH1 0x0 PUSH2 0x2C8E DUP11 DUP11 PUSH2 0x3C96 JUMP JUMPDEST SWAP8 POP PUSH2 0x2CC2 SWAP2 POP POP JUMP JUMPDEST DUP1 PUSH1 0x20 ADD MLOAD PUSH1 0x1 EQ DUP1 PUSH2 0x2CAF JUMPI POP DUP1 PUSH1 0x20 ADD MLOAD PUSH1 0x3 EQ JUMPDEST ISZERO PUSH2 0x2CC0 JUMPI PUSH1 0x0 PUSH2 0x2C8E DUP11 DUP11 PUSH2 0x40C1 JUMP JUMPDEST POP JUMPDEST POP POP POP POP POP SWAP3 SWAP2 POP POP JUMP JUMPDEST PUSH2 0x2CD5 PUSH2 0x3BEA JUMP JUMPDEST PUSH1 0x1 PUSH1 0x1 PUSH1 0xA0 SHL SUB DUP2 AND PUSH2 0x2D3A JUMPI PUSH1 0x40 MLOAD PUSH3 0x461BCD PUSH1 0xE5 SHL DUP2 MSTORE PUSH1 0x20 PUSH1 0x4 DUP3 ADD MSTORE PUSH1 0x26 PUSH1 0x24 DUP3 ADD MSTORE PUSH32 0x4F776E61626C653A206E6577206F776E657220697320746865207A65726F2061 PUSH1 0x44 DUP3 ADD MSTORE PUSH6 0x646472657373 PUSH1 0xD0 SHL PUSH1 0x64 DUP3 ADD MSTORE PUSH1 0x84 ADD PUSH2 0x55B JUMP JUMPDEST PUSH2 0x15A0 DUP2 PUSH2 0x3C44 JUMP JUMPDEST PUSH1 0x0 SLOAD PUSH2 0x100 SWAP1 DIV PUSH1 0xFF AND ISZERO DUP1 DUP1 ISZERO PUSH2 0x2D63 JUMPI POP PUSH1 0x0 SLOAD PUSH1 0x1 PUSH1 0xFF SWAP1 SWAP2 AND LT JUMPDEST DUP1 PUSH2 0x2D7D JUMPI POP ADDRESS EXTCODESIZE ISZERO DUP1 ISZERO PUSH2 0x2D7D JUMPI POP PUSH1 0x0 SLOAD PUSH1 0xFF AND PUSH1 0x1 EQ JUMPDEST PUSH2 0x2DE0 JUMPI PUSH1 0x40 MLOAD PUSH3 0x461BCD PUSH1 0xE5 SHL DUP2 MSTORE PUSH1 0x20 PUSH1 0x4 DUP3 ADD MSTORE PUSH1 0x2E PUSH1 0x24 DUP3 ADD MSTORE PUSH32 0x496E697469616C697A61626C653A20636F6E747261637420697320616C726561 PUSH1 0x44 DUP3 ADD MSTORE PUSH14 0x191E481A5B9A5D1A585B1A5E9959 PUSH1 0x92 SHL PUSH1 0x64 DUP3 ADD MSTORE PUSH1 0x84 ADD PUSH2 0x55B JUMP JUMPDEST PUSH1 0x0 DUP1 SLOAD PUSH1 0xFF NOT AND PUSH1 0x1 OR SWAP1 SSTORE DUP1 ISZERO PUSH2 0x2E03 JUMPI PUSH1 0x0 DUP1 SLOAD PUSH2 0xFF00 NOT AND PUSH2 0x100 OR SWAP1 SSTORE JUMPDEST PUSH2 0x2E0B PUSH2 0x44DF JUMP JUMPDEST DUP1 ISZERO PUSH2 0x2E51 JUMPI PUSH1 0x0 DUP1 SLOAD PUSH2 0xFF00 NOT AND SWAP1 SSTORE PUSH1 0x40 MLOAD PUSH1 0x1 DUP2 MSTORE PUSH32 0x7F26B83FF96E1F2B6A682F133852F6798A09C465DA95921460CEFB3847402498 SWAP1 PUSH1 0x20 ADD PUSH1 0x40 MLOAD DUP1 SWAP2 SUB SWAP1 LOG1 JUMPDEST POP POP JUMP JUMPDEST PUSH1 0x60 PUSH1 0x70 DUP3 PUSH1 0x40 MLOAD PUSH2 0x2E67 SWAP2 SWAP1 PUSH2 0x53AF JUMP JUMPDEST SWAP1 DUP2 MSTORE PUSH1 0x40 DUP1 MLOAD SWAP2 DUP3 SWAP1 SUB PUSH1 0x20 SWAP1 DUP2 ADD DUP4 KECCAK256 DUP1 SLOAD DUP1 DUP4 MUL DUP6 ADD DUP4 ADD SWAP1 SWAP4 MSTORE DUP3 DUP5 MSTORE SWAP2 SWAP1 DUP4 ADD DUP3 DUP3 DUP1 ISZERO PUSH2 0x2EC3 JUMPI PUSH1 0x20 MUL DUP3 ADD SWAP2 SWAP1 PUSH1 0x0 MSTORE PUSH1 0x20 PUSH1 0x0 KECCAK256 SWAP1 JUMPDEST DUP2 SLOAD PUSH1 0x1 PUSH1 0x1 PUSH1 0xA0 SHL SUB AND DUP2 MSTORE PUSH1 0x1 SWAP1 SWAP2 ADD SWAP1 PUSH1 0x20 ADD DUP1 DUP4 GT PUSH2 0x2EA5 JUMPI JUMPDEST POP POP POP POP POP SWAP1 POP SWAP2 SWAP1 POP JUMP JUMPDEST DUP2 MLOAD PUSH1 0x0 SWAP1 DUP2 JUMPDEST DUP2 DUP2 LT ISZERO PUSH2 0x2F28 JUMPI PUSH2 0x2F01 DUP6 DUP3 DUP2 MLOAD DUP2 LT PUSH2 0x2EF3 JUMPI PUSH2 0x2EF3 PUSH2 0x548C JUMP JUMPDEST PUSH1 0x20 MUL PUSH1 0x20 ADD ADD MLOAD DUP6 PUSH2 0x2F35 JUMP JUMPDEST ISZERO ISZERO PUSH1 0x1 EQ ISZERO PUSH2 0x2F16 JUMPI PUSH1 0x1 SWAP3 POP POP POP PUSH2 0x2F2F JUMP JUMPDEST DUP1 PUSH2 0x2F20 DUP2 PUSH2 0x54A2 JUMP JUMPDEST SWAP2 POP POP PUSH2 0x2ED6 JUMP JUMPDEST POP PUSH1 0x0 SWAP2 POP POP JUMPDEST SWAP3 SWAP2 POP POP JUMP JUMPDEST PUSH1 0x0 DUP2 PUSH1 0x40 MLOAD PUSH1 0x20 ADD PUSH2 0x2F48 SWAP2 SWAP1 PUSH2 0x53AF JUMP JUMPDEST PUSH1 0x40 MLOAD PUSH1 0x20 DUP2 DUP4 SUB SUB DUP2 MSTORE SWAP1 PUSH1 0x40 MSTORE DUP1 MLOAD SWAP1 PUSH1 0x20 ADD KECCAK256 DUP4 PUSH1 0x40 MLOAD PUSH1 0x20 ADD PUSH2 0x2F6F SWAP2 SWAP1 PUSH2 0x53AF JUMP JUMPDEST PUSH1 0x40 MLOAD PUSH1 0x20 DUP2 DUP4 SUB SUB DUP2 MSTORE SWAP1 PUSH1 0x40 MSTORE DUP1 MLOAD SWAP1 PUSH1 0x20 ADD KECCAK256 EQ ISZERO PUSH2 0x2F93 JUMPI POP PUSH1 0x1 PUSH2 0x2F2F JUMP JUMPDEST POP PUSH1 0x0 SWAP3 SWAP2 POP POP JUMP JUMPDEST DUP2 DUP2 PUSH1 0x0 PUSH1 0x6F DUP3 PUSH1 0x40 MLOAD PUSH2 0x2FB0 SWAP2 SWAP1 PUSH2 0x53AF JUMP JUMPDEST SWAP1 DUP2 MSTORE PUSH1 0x20 ADD PUSH1 0x40 MLOAD DUP1 SWAP2 SUB SWAP1 KECCAK256 PUSH1 0x40 MLOAD DUP1 PUSH2 0x160 ADD PUSH1 0x40 MSTORE SWAP1 DUP2 PUSH1 0x0 DUP3 ADD DUP1 SLOAD PUSH2 0x2FDA SWAP1 PUSH2 0x53CB JUMP JUMPDEST DUP1 PUSH1 0x1F ADD PUSH1 0x20 DUP1 SWAP2 DIV MUL PUSH1 0x20 ADD PUSH1 0x40 MLOAD SWAP1 DUP2 ADD PUSH1 0x40 MSTORE DUP1 SWAP3 SWAP2 SWAP1 DUP2 DUP2 MSTORE PUSH1 0x20 ADD DUP3 DUP1 SLOAD PUSH2 0x3006 SWAP1 PUSH2 0x53CB JUMP JUMPDEST DUP1 ISZERO PUSH2 0x3053 JUMPI DUP1 PUSH1 0x1F LT PUSH2 0x3028 JUMPI PUSH2 0x100 DUP1 DUP4 SLOAD DIV MUL DUP4 MSTORE SWAP2 PUSH1 0x20 ADD SWAP2 PUSH2 0x3053 JUMP JUMPDEST DUP3 ADD SWAP2 SWAP1 PUSH1 0x0 MSTORE PUSH1 0x20 PUSH1 0x0 KECCAK256 SWAP1 JUMPDEST DUP2 SLOAD DUP2 MSTORE SWAP1 PUSH1 0x1 ADD SWAP1 PUSH1 0x20 ADD DUP1 DUP4 GT PUSH2 0x3036 JUMPI DUP3 SWAP1 SUB PUSH1 0x1F AND DUP3 ADD SWAP2 JUMPDEST POP POP POP POP POP DUP2 MSTORE PUSH1 0x20 ADD PUSH1 0x1 DUP3 ADD SLOAD DUP2 MSTORE PUSH1 0x20 ADD PUSH1 0x2 DUP3 ADD DUP1 SLOAD PUSH2 0x3076 SWAP1 PUSH2 0x53CB JUMP JUMPDEST DUP1 PUSH1 0x1F ADD PUSH1 0x20 DUP1 SWAP2 DIV MUL PUSH1 0x20 ADD PUSH1 0x40 MLOAD SWAP1 DUP2 ADD PUSH1 0x40 MSTORE DUP1 SWAP3 SWAP2 SWAP1 DUP2 DUP2 MSTORE PUSH1 0x20 ADD DUP3 DUP1 SLOAD PUSH2 0x30A2 SWAP1 PUSH2 0x53CB JUMP JUMPDEST DUP1 ISZERO PUSH2 0x30EF JUMPI DUP1 PUSH1 0x1F LT PUSH2 0x30C4 JUMPI PUSH2 0x100 DUP1 DUP4 SLOAD DIV MUL DUP4 MSTORE SWAP2 PUSH1 0x20 ADD SWAP2 PUSH2 0x30EF JUMP JUMPDEST DUP3 ADD SWAP2 SWAP1 PUSH1 0x0 MSTORE PUSH1 0x20 PUSH1 0x0 KECCAK256 SWAP1 JUMPDEST DUP2 SLOAD DUP2 MSTORE SWAP1 PUSH1 0x1 ADD SWAP1 PUSH1 0x20 ADD DUP1 DUP4 GT PUSH2 0x30D2 JUMPI DUP3 SWAP1 SUB PUSH1 0x1F AND DUP3 ADD SWAP2 JUMPDEST POP POP POP SWAP2 DUP4 MSTORE POP POP PUSH1 0x3 DUP3 DUP2 ADD SLOAD PUSH1 0x1 PUSH1 0x1 PUSH1 0xA0 SHL SUB SWAP1 DUP2 AND PUSH1 0x20 DUP1 DUP6 ADD SWAP2 SWAP1 SWAP2 MSTORE PUSH1 0x4 DUP6 ADD SLOAD PUSH1 0x40 DUP1 DUP7 ADD SWAP2 SWAP1 SWAP2 MSTORE PUSH1 0x5 DUP7 ADD SLOAD PUSH1 0x60 DUP7 ADD MSTORE PUSH1 0x6 DUP7 ADD SLOAD PUSH1 0x80 DUP7 ADD MSTORE PUSH1 0x7 DUP7 ADD SLOAD PUSH1 0xFF SWAP1 DUP2 AND ISZERO ISZERO PUSH1 0xA0 DUP8 ADD MSTORE PUSH1 0x8 DUP8 ADD SLOAD PUSH1 0xC0 DUP8 ADD MSTORE PUSH1 0x9 SWAP1 SWAP7 ADD SLOAD SWAP3 DUP4 AND PUSH1 0xE0 DUP7 ADD MSTORE PUSH1 0x1 PUSH1 0xA0 SHL SWAP1 SWAP3 DIV DUP6 AND ISZERO ISZERO PUSH2 0x100 SWAP1 SWAP5 ADD SWAP4 SWAP1 SWAP4 MSTORE CALLER PUSH1 0x0 SWAP1 DUP2 MSTORE PUSH1 0x73 SWAP1 SWAP4 MSTORE SWAP1 SWAP2 KECCAK256 ADD SLOAD SWAP2 SWAP3 POP AND ISZERO ISZERO PUSH1 0x1 EQ DUP1 ISZERO PUSH2 0x3270 JUMPI POP CALLER PUSH1 0x0 SWAP1 DUP2 MSTORE PUSH1 0x75 PUSH1 0x20 SWAP1 DUP2 MSTORE PUSH1 0x40 DUP1 DUP4 KECCAK256 DUP1 SLOAD DUP3 MLOAD DUP2 DUP6 MUL DUP2 ADD DUP6 ADD SWAP1 SWAP4 MSTORE DUP1 DUP4 MSTORE PUSH2 0x326E SWAP5 SWAP3 SWAP4 SWAP2 SWAP3 SWAP1 SWAP2 DUP5 ADD JUMPDEST DUP3 DUP3 LT ISZERO PUSH2 0xDA4 JUMPI DUP4 DUP3 SWAP1 PUSH1 0x0 MSTORE PUSH1 0x20 PUSH1 0x0 KECCAK256 ADD DUP1 SLOAD PUSH2 0x31E1 SWAP1 PUSH2 0x53CB JUMP JUMPDEST DUP1 PUSH1 0x1F ADD PUSH1 0x20 DUP1 SWAP2 DIV MUL PUSH1 0x20 ADD PUSH1 0x40 MLOAD SWAP1 DUP2 ADD PUSH1 0x40 MSTORE DUP1 SWAP3 SWAP2 SWAP1 DUP2 DUP2 MSTORE PUSH1 0x20 ADD DUP3 DUP1 SLOAD PUSH2 0x320D SWAP1 PUSH2 0x53CB JUMP JUMPDEST DUP1 ISZERO PUSH2 0x325A JUMPI DUP1 PUSH1 0x1F LT PUSH2 0x322F JUMPI PUSH2 0x100 DUP1 DUP4 SLOAD DIV MUL DUP4 MSTORE SWAP2 PUSH1 0x20 ADD SWAP2 PUSH2 0x325A JUMP JUMPDEST DUP3 ADD SWAP2 SWAP1 PUSH1 0x0 MSTORE PUSH1 0x20 PUSH1 0x0 KECCAK256 SWAP1 JUMPDEST DUP2 SLOAD DUP2 MSTORE SWAP1 PUSH1 0x1 ADD SWAP1 PUSH1 0x20 ADD DUP1 DUP4 GT PUSH2 0x323D JUMPI DUP3 SWAP1 SUB PUSH1 0x1F AND DUP3 ADD SWAP2 JUMPDEST POP POP POP POP POP DUP2 MSTORE PUSH1 0x20 ADD SWAP1 PUSH1 0x1 ADD SWAP1 PUSH2 0x31C2 JUMP JUMPDEST ISZERO JUMPDEST DUP1 ISZERO PUSH2 0x3290 JUMPI POP PUSH2 0x328A PUSH1 0x6F DUP4 PUSH1 0x40 MLOAD PUSH2 0xDCA SWAP2 SWAP1 PUSH2 0x53AF JUMP JUMPDEST ISZERO ISZERO PUSH1 0x1 EQ JUMPDEST DUP1 ISZERO PUSH2 0x329E JUMPI POP PUSH1 0xE0 DUP2 ADD MLOAD ISZERO JUMPDEST DUP1 ISZERO PUSH2 0x32D6 JUMPI POP PUSH1 0x1 PUSH1 0x1 PUSH1 0xA0 SHL SUB DUP4 AND PUSH1 0x0 SWAP1 DUP2 MSTORE PUSH1 0x72 PUSH1 0x20 MSTORE PUSH1 0x40 SWAP1 KECCAK256 PUSH1 0x1 ADD DUP1 SLOAD PUSH2 0x32D0 SWAP2 SWAP1 PUSH2 0xDE4 SWAP1 PUSH2 0x53CB JUMP JUMPDEST ISZERO ISZERO PUSH1 0x1 EQ JUMPDEST PUSH2 0x3311 JUMPI PUSH1 0x40 MLOAD PUSH3 0x461BCD PUSH1 0xE5 SHL DUP2 MSTORE PUSH1 0x20 PUSH1 0x4 DUP3 ADD MSTORE PUSH1 0xC PUSH1 0x24 DUP3 ADD MSTORE PUSH12 0x566F746572204572726F7221 PUSH1 0xA0 SHL PUSH1 0x44 DUP3 ADD MSTORE PUSH1 0x64 ADD PUSH2 0x55B JUMP JUMPDEST PUSH1 0x0 PUSH1 0x6F DUP6 PUSH1 0x40 MLOAD PUSH2 0x3323 SWAP2 SWAP1 PUSH2 0x53AF JUMP JUMPDEST SWAP1 DUP2 MSTORE PUSH1 0x20 ADD PUSH1 0x40 MLOAD DUP1 SWAP2 SUB SWAP1 KECCAK256 PUSH1 0x40 MLOAD DUP1 PUSH2 0x160 ADD PUSH1 0x40 MSTORE SWAP1 DUP2 PUSH1 0x0 DUP3 ADD DUP1 SLOAD PUSH2 0x334D SWAP1 PUSH2 0x53CB JUMP JUMPDEST DUP1 PUSH1 0x1F ADD PUSH1 0x20 DUP1 SWAP2 DIV MUL PUSH1 0x20 ADD PUSH1 0x40 MLOAD SWAP1 DUP2 ADD PUSH1 0x40 MSTORE DUP1 SWAP3 SWAP2 SWAP1 DUP2 DUP2 MSTORE PUSH1 0x20 ADD DUP3 DUP1 SLOAD PUSH2 0x3379 SWAP1 PUSH2 0x53CB JUMP JUMPDEST DUP1 ISZERO PUSH2 0x33C6 JUMPI DUP1 PUSH1 0x1F LT PUSH2 0x339B JUMPI PUSH2 0x100 DUP1 DUP4 SLOAD DIV MUL DUP4 MSTORE SWAP2 PUSH1 0x20 ADD SWAP2 PUSH2 0x33C6 JUMP JUMPDEST DUP3 ADD SWAP2 SWAP1 PUSH1 0x0 MSTORE PUSH1 0x20 PUSH1 0x0 KECCAK256 SWAP1 JUMPDEST DUP2 SLOAD DUP2 MSTORE SWAP1 PUSH1 0x1 ADD SWAP1 PUSH1 0x20 ADD DUP1 DUP4 GT PUSH2 0x33A9 JUMPI DUP3 SWAP1 SUB PUSH1 0x1F AND DUP3 ADD SWAP2 JUMPDEST POP POP POP POP POP DUP2 MSTORE PUSH1 0x20 ADD PUSH1 0x1 DUP3 ADD SLOAD DUP2 MSTORE PUSH1 0x20 ADD PUSH1 0x2 DUP3 ADD DUP1 SLOAD PUSH2 0x33E9 SWAP1 PUSH2 0x53CB JUMP JUMPDEST DUP1 PUSH1 0x1F ADD PUSH1 0x20 DUP1 SWAP2 DIV MUL PUSH1 0x20 ADD PUSH1 0x40 MLOAD SWAP1 DUP2 ADD PUSH1 0x40 MSTORE DUP1 SWAP3 SWAP2 SWAP1 DUP2 DUP2 MSTORE PUSH1 0x20 ADD DUP3 DUP1 SLOAD PUSH2 0x3415 SWAP1 PUSH2 0x53CB JUMP JUMPDEST DUP1 ISZERO PUSH2 0x3462 JUMPI DUP1 PUSH1 0x1F LT PUSH2 0x3437 JUMPI PUSH2 0x100 DUP1 DUP4 SLOAD DIV MUL DUP4 MSTORE SWAP2 PUSH1 0x20 ADD SWAP2 PUSH2 0x3462 JUMP JUMPDEST DUP3 ADD SWAP2 SWAP1 PUSH1 0x0 MSTORE PUSH1 0x20 PUSH1 0x0 KECCAK256 SWAP1 JUMPDEST DUP2 SLOAD DUP2 MSTORE SWAP1 PUSH1 0x1 ADD SWAP1 PUSH1 0x20 ADD DUP1 DUP4 GT PUSH2 0x3445 JUMPI DUP3 SWAP1 SUB PUSH1 0x1F AND DUP3 ADD SWAP2 JUMPDEST POP POP POP SWAP2 DUP4 MSTORE POP POP PUSH1 0x3 DUP3 ADD SLOAD PUSH1 0x1 PUSH1 0x1 PUSH1 0xA0 SHL SUB SWAP1 DUP2 AND PUSH1 0x20 DUP4 ADD MSTORE PUSH1 0x4 DUP4 ADD SLOAD PUSH1 0x40 DUP4 ADD MSTORE PUSH1 0x5 DUP4 ADD SLOAD PUSH1 0x60 DUP4 ADD MSTORE PUSH1 0x6 DUP4 ADD SLOAD PUSH1 0x80 DUP4 ADD MSTORE PUSH1 0x7 DUP4 ADD SLOAD PUSH1 0xFF SWAP1 DUP2 AND ISZERO ISZERO PUSH1 0xA0 DUP5 ADD MSTORE PUSH1 0x8 DUP5 ADD SLOAD PUSH1 0xC0 DUP5 ADD MSTORE PUSH1 0x9 SWAP1 SWAP4 ADD SLOAD DUP1 DUP3 AND PUSH1 0xE0 DUP5 ADD MSTORE PUSH1 0x1 PUSH1 0xA0 SHL SWAP1 DIV SWAP1 SWAP3 AND ISZERO ISZERO PUSH2 0x100 SWAP1 SWAP2 ADD MSTORE DUP8 AND PUSH2 0x120 DUP3 ADD MSTORE SWAP1 POP PUSH2 0x34ED DUP7 DUP3 PUSH2 0x4540 JUMP JUMPDEST POP PUSH2 0x34F7 DUP7 PUSH2 0x45F5 JUMP JUMPDEST POP POP POP POP POP POP JUMP JUMPDEST DUP2 DUP2 PUSH1 0x0 PUSH1 0x6F DUP3 PUSH1 0x40 MLOAD PUSH2 0x3513 SWAP2 SWAP1 PUSH2 0x53AF JUMP JUMPDEST SWAP1 DUP2 MSTORE PUSH1 0x20 ADD PUSH1 0x40 MLOAD DUP1 SWAP2 SUB SWAP1 KECCAK256 PUSH1 0x40 MLOAD DUP1 PUSH2 0x160 ADD PUSH1 0x40 MSTORE SWAP1 DUP2 PUSH1 0x0 DUP3 ADD DUP1 SLOAD PUSH2 0x353D SWAP1 PUSH2 0x53CB JUMP JUMPDEST DUP1 PUSH1 0x1F ADD PUSH1 0x20 DUP1 SWAP2 DIV MUL PUSH1 0x20 ADD PUSH1 0x40 MLOAD SWAP1 DUP2 ADD PUSH1 0x40 MSTORE DUP1 SWAP3 SWAP2 SWAP1 DUP2 DUP2 MSTORE PUSH1 0x20 ADD DUP3 DUP1 SLOAD PUSH2 0x3569 SWAP1 PUSH2 0x53CB JUMP JUMPDEST DUP1 ISZERO PUSH2 0x35B6 JUMPI DUP1 PUSH1 0x1F LT PUSH2 0x358B JUMPI PUSH2 0x100 DUP1 DUP4 SLOAD DIV MUL DUP4 MSTORE SWAP2 PUSH1 0x20 ADD SWAP2 PUSH2 0x35B6 JUMP JUMPDEST DUP3 ADD SWAP2 SWAP1 PUSH1 0x0 MSTORE PUSH1 0x20 PUSH1 0x0 KECCAK256 SWAP1 JUMPDEST DUP2 SLOAD DUP2 MSTORE SWAP1 PUSH1 0x1 ADD SWAP1 PUSH1 0x20 ADD DUP1 DUP4 GT PUSH2 0x3599 JUMPI DUP3 SWAP1 SUB PUSH1 0x1F AND DUP3 ADD SWAP2 JUMPDEST POP POP POP POP POP DUP2 MSTORE PUSH1 0x20 ADD PUSH1 0x1 DUP3 ADD SLOAD DUP2 MSTORE PUSH1 0x20 ADD PUSH1 0x2 DUP3 ADD DUP1 SLOAD PUSH2 0x35D9 SWAP1 PUSH2 0x53CB JUMP JUMPDEST DUP1 PUSH1 0x1F ADD PUSH1 0x20 DUP1 SWAP2 DIV MUL PUSH1 0x20 ADD PUSH1 0x40 MLOAD SWAP1 DUP2 ADD PUSH1 0x40 MSTORE DUP1 SWAP3 SWAP2 SWAP1 DUP2 DUP2 MSTORE PUSH1 0x20 ADD DUP3 DUP1 SLOAD PUSH2 0x3605 SWAP1 PUSH2 0x53CB JUMP JUMPDEST DUP1 ISZERO PUSH2 0x3652 JUMPI DUP1 PUSH1 0x1F LT PUSH2 0x3627 JUMPI PUSH2 0x100 DUP1 DUP4 SLOAD DIV MUL DUP4 MSTORE SWAP2 PUSH1 0x20 ADD SWAP2 PUSH2 0x3652 JUMP JUMPDEST DUP3 ADD SWAP2 SWAP1 PUSH1 0x0 MSTORE PUSH1 0x20 PUSH1 0x0 KECCAK256 SWAP1 JUMPDEST DUP2 SLOAD DUP2 MSTORE SWAP1 PUSH1 0x1 ADD SWAP1 PUSH1 0x20 ADD DUP1 DUP4 GT PUSH2 0x3635 JUMPI DUP3 SWAP1 SUB PUSH1 0x1F AND DUP3 ADD SWAP2 JUMPDEST POP POP POP SWAP2 DUP4 MSTORE POP POP PUSH1 0x3 DUP3 ADD SLOAD PUSH1 0x1 PUSH1 0x1 PUSH1 0xA0 SHL SUB SWAP1 DUP2 AND PUSH1 0x20 DUP1 DUP5 ADD SWAP2 SWAP1 SWAP2 MSTORE PUSH1 0x4 DUP5 ADD SLOAD PUSH1 0x40 DUP1 DUP6 ADD SWAP2 SWAP1 SWAP2 MSTORE PUSH1 0x5 DUP6 ADD SLOAD PUSH1 0x60 DUP6 ADD MSTORE PUSH1 0x6 DUP6 ADD SLOAD PUSH1 0x80 DUP6 ADD MSTORE PUSH1 0x7 DUP6 ADD SLOAD PUSH1 0xFF SWAP1 DUP2 AND ISZERO ISZERO PUSH1 0xA0 DUP7 ADD MSTORE PUSH1 0x8 DUP7 ADD SLOAD PUSH1 0xC0 DUP7 ADD MSTORE PUSH1 0x9 SWAP1 SWAP6 ADD SLOAD DUP1 DUP5 AND PUSH1 0xE0 DUP1 DUP8 ADD SWAP2 SWAP1 SWAP2 MSTORE PUSH1 0x1 PUSH1 0xA0 SHL SWAP1 SWAP2 DIV SWAP1 SWAP6 AND ISZERO ISZERO PUSH2 0x100 SWAP1 SWAP5 ADD SWAP4 SWAP1 SWAP4 MSTORE CALLER PUSH1 0x0 SWAP1 DUP2 MSTORE PUSH1 0x73 DUP3 MSTORE DUP4 DUP2 KECCAK256 DUP5 MLOAD SWAP6 DUP7 ADD DUP6 MSTORE DUP1 SLOAD DUP7 MSTORE PUSH1 0x1 DUP2 ADD SLOAD SWAP1 SWAP4 AND SWAP2 DUP6 ADD SWAP2 SWAP1 SWAP2 MSTORE PUSH1 0x2 DUP3 ADD DUP1 SLOAD SWAP6 SWAP7 POP SWAP1 SWAP5 SWAP2 SWAP3 DUP5 ADD SWAP2 PUSH2 0x3719 SWAP1 PUSH2 0x53CB JUMP JUMPDEST DUP1 PUSH1 0x1F ADD PUSH1 0x20 DUP1 SWAP2 DIV MUL PUSH1 0x20 ADD PUSH1 0x40 MLOAD SWAP1 DUP2 ADD PUSH1 0x40 MSTORE DUP1 SWAP3 SWAP2 SWAP1 DUP2 DUP2 MSTORE PUSH1 0x20 ADD DUP3 DUP1 SLOAD PUSH2 0x3745 SWAP1 PUSH2 0x53CB JUMP JUMPDEST DUP1 ISZERO PUSH2 0x3792 JUMPI DUP1 PUSH1 0x1F LT PUSH2 0x3767 JUMPI PUSH2 0x100 DUP1 DUP4 SLOAD DIV MUL DUP4 MSTORE SWAP2 PUSH1 0x20 ADD SWAP2 PUSH2 0x3792 JUMP JUMPDEST DUP3 ADD SWAP2 SWAP1 PUSH1 0x0 MSTORE PUSH1 0x20 PUSH1 0x0 KECCAK256 SWAP1 JUMPDEST DUP2 SLOAD DUP2 MSTORE SWAP1 PUSH1 0x1 ADD SWAP1 PUSH1 0x20 ADD DUP1 DUP4 GT PUSH2 0x3775 JUMPI DUP3 SWAP1 SUB PUSH1 0x1F AND DUP3 ADD SWAP2 JUMPDEST POP POP POP SWAP2 DUP4 MSTORE POP POP PUSH1 0x3 DUP3 ADD SLOAD PUSH1 0xFF DUP1 DUP3 AND ISZERO ISZERO PUSH1 0x20 DUP5 ADD MSTORE PUSH2 0x100 DUP3 DIV DUP2 AND ISZERO ISZERO PUSH1 0x40 DUP5 ADD MSTORE PUSH3 0x10000 SWAP1 SWAP2 DIV AND ISZERO ISZERO PUSH1 0x60 DUP3 ADD MSTORE PUSH1 0x4 SWAP1 SWAP2 ADD SLOAD PUSH1 0x80 SWAP2 DUP3 ADD MSTORE DUP2 ADD MLOAD SWAP1 SWAP2 POP ISZERO ISZERO PUSH1 0x1 EQ DUP1 ISZERO PUSH2 0x3802 JUMPI POP CALLER PUSH1 0x0 SWAP1 DUP2 MSTORE PUSH1 0x73 PUSH1 0x20 MSTORE PUSH1 0x40 SWAP1 KECCAK256 PUSH1 0x3 ADD SLOAD PUSH1 0xFF AND ISZERO ISZERO PUSH1 0x1 EQ JUMPDEST DUP1 ISZERO PUSH2 0x38F1 JUMPI POP CALLER PUSH1 0x0 SWAP1 DUP2 MSTORE PUSH1 0x75 PUSH1 0x20 SWAP1 DUP2 MSTORE PUSH1 0x40 DUP1 DUP4 KECCAK256 DUP1 SLOAD DUP3 MLOAD DUP2 DUP6 MUL DUP2 ADD DUP6 ADD SWAP1 SWAP4 MSTORE DUP1 DUP4 MSTORE PUSH2 0x38EF SWAP5 SWAP3 SWAP4 SWAP2 SWAP3 SWAP1 SWAP2 DUP5 ADD JUMPDEST DUP3 DUP3 LT ISZERO PUSH2 0x38E5 JUMPI DUP4 DUP3 SWAP1 PUSH1 0x0 MSTORE PUSH1 0x20 PUSH1 0x0 KECCAK256 ADD DUP1 SLOAD PUSH2 0x3858 SWAP1 PUSH2 0x53CB JUMP JUMPDEST DUP1 PUSH1 0x1F ADD PUSH1 0x20 DUP1 SWAP2 DIV MUL PUSH1 0x20 ADD PUSH1 0x40 MLOAD SWAP1 DUP2 ADD PUSH1 0x40 MSTORE DUP1 SWAP3 SWAP2 SWAP1 DUP2 DUP2 MSTORE PUSH1 0x20 ADD DUP3 DUP1 SLOAD PUSH2 0x3884 SWAP1 PUSH2 0x53CB JUMP JUMPDEST DUP1 ISZERO PUSH2 0x38D1 JUMPI DUP1 PUSH1 0x1F LT PUSH2 0x38A6 JUMPI PUSH2 0x100 DUP1 DUP4 SLOAD DIV MUL DUP4 MSTORE SWAP2 PUSH1 0x20 ADD SWAP2 PUSH2 0x38D1 JUMP JUMPDEST DUP3 ADD SWAP2 SWAP1 PUSH1 0x0 MSTORE PUSH1 0x20 PUSH1 0x0 KECCAK256 SWAP1 JUMPDEST DUP2 SLOAD DUP2 MSTORE SWAP1 PUSH1 0x1 ADD SWAP1 PUSH1 0x20 ADD DUP1 DUP4 GT PUSH2 0x38B4 JUMPI DUP3 SWAP1 SUB PUSH1 0x1F AND DUP3 ADD SWAP2 JUMPDEST POP POP POP POP POP DUP2 MSTORE PUSH1 0x20 ADD SWAP1 PUSH1 0x1 ADD SWAP1 PUSH2 0x3839 JUMP JUMPDEST POP POP POP POP DUP5 PUSH2 0x2ECF JUMP JUMPDEST ISZERO JUMPDEST DUP1 ISZERO PUSH2 0x392B JUMPI POP PUSH2 0x3925 PUSH1 0x6F DUP5 PUSH1 0x40 MLOAD PUSH2 0x390B SWAP2 SWAP1 PUSH2 0x53AF JUMP JUMPDEST SWAP1 DUP2 MSTORE PUSH1 0x40 MLOAD SWAP1 DUP2 SWAP1 SUB PUSH1 0x20 ADD SWAP1 KECCAK256 DUP1 SLOAD PUSH2 0x17D7 SWAP1 PUSH2 0x53CB JUMP JUMPDEST ISZERO ISZERO PUSH1 0x1 EQ JUMPDEST DUP1 ISZERO PUSH2 0x3963 JUMPI POP PUSH1 0x1 PUSH1 0x1 PUSH1 0xA0 SHL SUB DUP5 AND PUSH1 0x0 SWAP1 DUP2 MSTORE PUSH1 0x72 PUSH1 0x20 MSTORE PUSH1 0x40 SWAP1 KECCAK256 PUSH1 0x1 ADD DUP1 SLOAD PUSH2 0x395D SWAP2 SWAP1 PUSH2 0x17D7 SWAP1 PUSH2 0x53CB JUMP JUMPDEST ISZERO ISZERO PUSH1 0x1 EQ JUMPDEST PUSH2 0x39AF JUMPI PUSH1 0x40 MLOAD PUSH3 0x461BCD PUSH1 0xE5 SHL DUP2 MSTORE PUSH1 0x20 PUSH1 0x4 DUP3 ADD MSTORE PUSH1 0x1B PUSH1 0x24 DUP3 ADD MSTORE PUSH32 0x566F746572204572726F7228436C6F7365642042616C6C6F7429210000000000 PUSH1 0x44 DUP3 ADD MSTORE PUSH1 0x64 ADD PUSH2 0x55B JUMP JUMPDEST PUSH1 0x0 PUSH1 0x6F DUP7 PUSH1 0x40 MLOAD PUSH2 0x39C1 SWAP2 SWAP1 PUSH2 0x53AF JUMP JUMPDEST SWAP1 DUP2 MSTORE PUSH1 0x20 ADD PUSH1 0x40 MLOAD DUP1 SWAP2 SUB SWAP1 KECCAK256 PUSH1 0x40 MLOAD DUP1 PUSH2 0x160 ADD PUSH1 0x40 MSTORE SWAP1 DUP2 PUSH1 0x0 DUP3 ADD DUP1 SLOAD PUSH2 0x39EB SWAP1 PUSH2 0x53CB JUMP JUMPDEST DUP1 PUSH1 0x1F ADD PUSH1 0x20 DUP1 SWAP2 DIV MUL PUSH1 0x20 ADD PUSH1 0x40 MLOAD SWAP1 DUP2 ADD PUSH1 0x40 MSTORE DUP1 SWAP3 SWAP2 SWAP1 DUP2 DUP2 MSTORE PUSH1 0x20 ADD DUP3 DUP1 SLOAD PUSH2 0x3A17 SWAP1 PUSH2 0x53CB JUMP JUMPDEST DUP1 ISZERO PUSH2 0x3A64 JUMPI DUP1 PUSH1 0x1F LT PUSH2 0x3A39 JUMPI PUSH2 0x100 DUP1 DUP4 SLOAD DIV MUL DUP4 MSTORE SWAP2 PUSH1 0x20 ADD SWAP2 PUSH2 0x3A64 JUMP JUMPDEST DUP3 ADD SWAP2 SWAP1 PUSH1 0x0 MSTORE PUSH1 0x20 PUSH1 0x0 KECCAK256 SWAP1 JUMPDEST DUP2 SLOAD DUP2 MSTORE SWAP1 PUSH1 0x1 ADD SWAP1 PUSH1 0x20 ADD DUP1 DUP4 GT PUSH2 0x3A47 JUMPI DUP3 SWAP1 SUB PUSH1 0x1F AND DUP3 ADD SWAP2 JUMPDEST POP POP POP POP POP DUP2 MSTORE PUSH1 0x20 ADD PUSH1 0x1 DUP3 ADD SLOAD DUP2 MSTORE PUSH1 0x20 ADD PUSH1 0x2 DUP3 ADD DUP1 SLOAD PUSH2 0x3A87 SWAP1 PUSH2 0x53CB JUMP JUMPDEST DUP1 PUSH1 0x1F ADD PUSH1 0x20 DUP1 SWAP2 DIV MUL PUSH1 0x20 ADD PUSH1 0x40 MLOAD SWAP1 DUP2 ADD PUSH1 0x40 MSTORE DUP1 SWAP3 SWAP2 SWAP1 DUP2 DUP2 MSTORE PUSH1 0x20 ADD DUP3 DUP1 SLOAD PUSH2 0x3AB3 SWAP1 PUSH2 0x53CB JUMP JUMPDEST DUP1 ISZERO PUSH2 0x3B00 JUMPI DUP1 PUSH1 0x1F LT PUSH2 0x3AD5 JUMPI PUSH2 0x100 DUP1 DUP4 SLOAD DIV MUL DUP4 MSTORE SWAP2 PUSH1 0x20 ADD SWAP2 PUSH2 0x3B00 JUMP JUMPDEST DUP3 ADD SWAP2 SWAP1 PUSH1 0x0 MSTORE PUSH1 0x20 PUSH1 0x0 KECCAK256 SWAP1 JUMPDEST DUP2 SLOAD DUP2 MSTORE SWAP1 PUSH1 0x1 ADD SWAP1 PUSH1 0x20 ADD DUP1 DUP4 GT PUSH2 0x3AE3 JUMPI DUP3 SWAP1 SUB PUSH1 0x1F AND DUP3 ADD SWAP2 JUMPDEST POP POP POP SWAP2 DUP4 MSTORE POP POP PUSH1 0x3 DUP3 ADD SLOAD PUSH1 0x1 PUSH1 0x1 PUSH1 0xA0 SHL SUB SWAP1 DUP2 AND PUSH1 0x20 DUP1 DUP5 ADD SWAP2 SWAP1 SWAP2 MSTORE PUSH1 0x4 DUP5 ADD SLOAD PUSH1 0x40 DUP5 ADD MSTORE PUSH1 0x5 DUP5 ADD SLOAD PUSH1 0x60 DUP5 ADD MSTORE PUSH1 0x6 DUP5 ADD SLOAD PUSH1 0x80 DUP5 ADD MSTORE PUSH1 0x7 DUP5 ADD SLOAD PUSH1 0xFF SWAP1 DUP2 AND ISZERO ISZERO PUSH1 0xA0 DUP6 ADD MSTORE PUSH1 0x8 DUP6 ADD SLOAD PUSH1 0xC0 DUP6 ADD MSTORE PUSH1 0x9 SWAP1 SWAP5 ADD SLOAD SWAP2 DUP3 AND PUSH1 0xE0 DUP5 ADD MSTORE PUSH1 0x1 PUSH1 0xA0 SHL SWAP1 SWAP2 DIV SWAP1 SWAP3 AND ISZERO ISZERO PUSH2 0x100 SWAP1 SWAP2 ADD MSTORE DUP2 ADD MLOAD SWAP1 SWAP2 POP PUSH1 0x1 EQ PUSH2 0x3BC6 JUMPI PUSH1 0x40 MLOAD PUSH3 0x461BCD PUSH1 0xE5 SHL DUP2 MSTORE PUSH1 0x20 PUSH1 0x4 DUP3 ADD MSTORE PUSH1 0x12 PUSH1 0x24 DUP3 ADD MSTORE PUSH18 0x57726F6E672042616C6C6F74205479706521 PUSH1 0x70 SHL PUSH1 0x44 DUP3 ADD MSTORE PUSH1 0x64 ADD PUSH2 0x55B JUMP JUMPDEST PUSH1 0x1 PUSH1 0x1 PUSH1 0xA0 SHL SUB DUP8 AND PUSH2 0x120 DUP3 ADD MSTORE PUSH2 0x3BE0 DUP8 DUP3 PUSH2 0x4540 JUMP JUMPDEST POP PUSH2 0x111F DUP8 PUSH2 0x45F5 JUMP JUMPDEST PUSH1 0x33 SLOAD PUSH1 0x1 PUSH1 0x1 PUSH1 0xA0 SHL SUB AND CALLER EQ PUSH2 0x1E17 JUMPI PUSH1 0x40 MLOAD PUSH3 0x461BCD PUSH1 0xE5 SHL DUP2 MSTORE PUSH1 0x20 PUSH1 0x4 DUP3 ADD DUP2 SWAP1 MSTORE PUSH1 0x24 DUP3 ADD MSTORE PUSH32 0x4F776E61626C653A2063616C6C6572206973206E6F7420746865206F776E6572 PUSH1 0x44 DUP3 ADD MSTORE PUSH1 0x64 ADD PUSH2 0x55B JUMP JUMPDEST PUSH1 0x33 DUP1 SLOAD PUSH1 0x1 PUSH1 0x1 PUSH1 0xA0 SHL SUB DUP4 DUP2 AND PUSH1 0x1 PUSH1 0x1 PUSH1 0xA0 SHL SUB NOT DUP4 AND DUP2 OR SWAP1 SWAP4 SSTORE PUSH1 0x40 MLOAD SWAP2 AND SWAP2 SWAP1 DUP3 SWAP1 PUSH32 0x8BE0079C531659141344CD1FD0A4F28419497F9722A3DAAFE3B4186F6B6457E0 SWAP1 PUSH1 0x0 SWAP1 LOG3 POP POP JUMP JUMPDEST PUSH1 0x0 DUP3 DUP3 PUSH1 0x0 PUSH1 0x6F DUP3 PUSH1 0x40 MLOAD PUSH2 0x3CAC SWAP2 SWAP1 PUSH2 0x53AF JUMP JUMPDEST SWAP1 DUP2 MSTORE PUSH1 0x20 ADD PUSH1 0x40 MLOAD DUP1 SWAP2 SUB SWAP1 KECCAK256 PUSH1 0x40 MLOAD DUP1 PUSH2 0x160 ADD PUSH1 0x40 MSTORE SWAP1 DUP2 PUSH1 0x0 DUP3 ADD DUP1 SLOAD PUSH2 0x3CD6 SWAP1 PUSH2 0x53CB JUMP JUMPDEST DUP1 PUSH1 0x1F ADD PUSH1 0x20 DUP1 SWAP2 DIV MUL PUSH1 0x20 ADD PUSH1 0x40 MLOAD SWAP1 DUP2 ADD PUSH1 0x40 MSTORE DUP1 SWAP3 SWAP2 SWAP1 DUP2 DUP2 MSTORE PUSH1 0x20 ADD DUP3 DUP1 SLOAD PUSH2 0x3D02 SWAP1 PUSH2 0x53CB JUMP JUMPDEST DUP1 ISZERO PUSH2 0x3D4F JUMPI DUP1 PUSH1 0x1F LT PUSH2 0x3D24 JUMPI PUSH2 0x100 DUP1 DUP4 SLOAD DIV MUL DUP4 MSTORE SWAP2 PUSH1 0x20 ADD SWAP2 PUSH2 0x3D4F JUMP JUMPDEST DUP3 ADD SWAP2 SWAP1 PUSH1 0x0 MSTORE PUSH1 0x20 PUSH1 0x0 KECCAK256 SWAP1 JUMPDEST DUP2 SLOAD DUP2 MSTORE SWAP1 PUSH1 0x1 ADD SWAP1 PUSH1 0x20 ADD DUP1 DUP4 GT PUSH2 0x3D32 JUMPI DUP3 SWAP1 SUB PUSH1 0x1F AND DUP3 ADD SWAP2 JUMPDEST POP POP POP POP POP DUP2 MSTORE PUSH1 0x20 ADD PUSH1 0x1 DUP3 ADD SLOAD DUP2 MSTORE PUSH1 0x20 ADD PUSH1 0x2 DUP3 ADD DUP1 SLOAD PUSH2 0x3D72 SWAP1 PUSH2 0x53CB JUMP JUMPDEST DUP1 PUSH1 0x1F ADD PUSH1 0x20 DUP1 SWAP2 DIV MUL PUSH1 0x20 ADD PUSH1 0x40 MLOAD SWAP1 DUP2 ADD PUSH1 0x40 MSTORE DUP1 SWAP3 SWAP2 SWAP1 DUP2 DUP2 MSTORE PUSH1 0x20 ADD DUP3 DUP1 SLOAD PUSH2 0x3D9E SWAP1 PUSH2 0x53CB JUMP JUMPDEST DUP1 ISZERO PUSH2 0x3DEB JUMPI DUP1 PUSH1 0x1F LT PUSH2 0x3DC0 JUMPI PUSH2 0x100 DUP1 DUP4 SLOAD DIV MUL DUP4 MSTORE SWAP2 PUSH1 0x20 ADD SWAP2 PUSH2 0x3DEB JUMP JUMPDEST DUP3 ADD SWAP2 SWAP1 PUSH1 0x0 MSTORE PUSH1 0x20 PUSH1 0x0 KECCAK256 SWAP1 JUMPDEST DUP2 SLOAD DUP2 MSTORE SWAP1 PUSH1 0x1 ADD SWAP1 PUSH1 0x20 ADD DUP1 DUP4 GT PUSH2 0x3DCE JUMPI DUP3 SWAP1 SUB PUSH1 0x1F AND DUP3 ADD SWAP2 JUMPDEST POP POP POP SWAP2 DUP4 MSTORE POP POP PUSH1 0x3 DUP3 ADD SLOAD PUSH1 0x1 PUSH1 0x1 PUSH1 0xA0 SHL SUB SWAP1 DUP2 AND PUSH1 0x20 DUP4 ADD MSTORE PUSH1 0x4 DUP4 ADD SLOAD PUSH1 0x40 DUP4 ADD MSTORE PUSH1 0x5 DUP4 ADD SLOAD PUSH1 0x60 DUP4 ADD MSTORE PUSH1 0x6 DUP4 ADD SLOAD PUSH1 0x80 DUP4 ADD MSTORE PUSH1 0x7 DUP4 ADD SLOAD PUSH1 0xFF SWAP1 DUP2 AND ISZERO ISZERO PUSH1 0xA0 DUP1 DUP6 ADD SWAP2 SWAP1 SWAP2 MSTORE PUSH1 0x8 DUP6 ADD SLOAD PUSH1 0xC0 DUP6 ADD MSTORE PUSH1 0x9 SWAP1 SWAP5 ADD SLOAD SWAP2 DUP3 AND PUSH1 0xE0 DUP5 ADD MSTORE PUSH1 0x1 PUSH1 0xA0 SHL SWAP1 SWAP2 DIV AND ISZERO ISZERO PUSH2 0x100 SWAP1 SWAP2 ADD MSTORE DUP2 ADD MLOAD SWAP1 SWAP2 POP PUSH1 0x0 SWAP1 PUSH2 0x3E78 SWAP1 TIMESTAMP PUSH2 0x5453 JUMP JUMPDEST PUSH1 0x68 SLOAD SWAP1 SWAP2 POP PUSH1 0x1 DUP2 LT DUP1 ISZERO SWAP1 PUSH2 0x3E9F JUMPI POP PUSH1 0xC0 DUP4 ADD MLOAD PUSH2 0x3E9C SWAP1 PUSH3 0x15180 PUSH2 0x54E8 JUMP JUMPDEST DUP3 LT JUMPDEST DUP1 ISZERO PUSH2 0x3F84 JUMPI POP CALLER PUSH1 0x0 SWAP1 DUP2 MSTORE PUSH1 0x74 PUSH1 0x20 SWAP1 DUP2 MSTORE PUSH1 0x40 DUP1 DUP4 KECCAK256 DUP1 SLOAD DUP3 MLOAD DUP2 DUP6 MUL DUP2 ADD DUP6 ADD SWAP1 SWAP4 MSTORE DUP1 DUP4 MSTORE PUSH2 0x3F82 SWAP5 SWAP3 SWAP4 SWAP2 SWAP3 SWAP1 SWAP2 DUP5 ADD JUMPDEST DUP3 DUP3 LT ISZERO PUSH2 0x296A JUMPI DUP4 DUP3 SWAP1 PUSH1 0x0 MSTORE PUSH1 0x20 PUSH1 0x0 KECCAK256 ADD DUP1 SLOAD PUSH2 0x3EF5 SWAP1 PUSH2 0x53CB JUMP JUMPDEST DUP1 PUSH1 0x1F ADD PUSH1 0x20 DUP1 SWAP2 DIV MUL PUSH1 0x20 ADD PUSH1 0x40 MLOAD SWAP1 DUP2 ADD PUSH1 0x40 MSTORE DUP1 SWAP3 SWAP2 SWAP1 DUP2 DUP2 MSTORE PUSH1 0x20 ADD DUP3 DUP1 SLOAD PUSH2 0x3F21 SWAP1 PUSH2 0x53CB JUMP JUMPDEST DUP1 ISZERO PUSH2 0x3F6E JUMPI DUP1 PUSH1 0x1F LT PUSH2 0x3F43 JUMPI PUSH2 0x100 DUP1 DUP4 SLOAD DIV MUL DUP4 MSTORE SWAP2 PUSH1 0x20 ADD SWAP2 PUSH2 0x3F6E JUMP JUMPDEST DUP3 ADD SWAP2 SWAP1 PUSH1 0x0 MSTORE PUSH1 0x20 PUSH1 0x0 KECCAK256 SWAP1 JUMPDEST DUP2 SLOAD DUP2 MSTORE SWAP1 PUSH1 0x1 ADD SWAP1 PUSH1 0x20 ADD DUP1 DUP4 GT PUSH2 0x3F51 JUMPI DUP3 SWAP1 SUB PUSH1 0x1F AND DUP3 ADD SWAP2 JUMPDEST POP POP POP POP POP DUP2 MSTORE PUSH1 0x20 ADD SWAP1 PUSH1 0x1 ADD SWAP1 PUSH2 0x3ED6 JUMP JUMPDEST ISZERO JUMPDEST DUP1 ISZERO PUSH2 0x406F JUMPI POP PUSH2 0x406D PUSH1 0x76 PUSH1 0x0 DUP8 DUP2 MSTORE PUSH1 0x20 ADD SWAP1 DUP2 MSTORE PUSH1 0x20 ADD PUSH1 0x0 KECCAK256 DUP1 SLOAD DUP1 PUSH1 0x20 MUL PUSH1 0x20 ADD PUSH1 0x40 MLOAD SWAP1 DUP2 ADD PUSH1 0x40 MSTORE DUP1 SWAP3 SWAP2 SWAP1 DUP2 DUP2 MSTORE PUSH1 0x20 ADD PUSH1 0x0 SWAP1 JUMPDEST DUP3 DUP3 LT ISZERO PUSH2 0x296A JUMPI DUP4 DUP3 SWAP1 PUSH1 0x0 MSTORE PUSH1 0x20 PUSH1 0x0 KECCAK256 ADD DUP1 SLOAD PUSH2 0x3FE0 SWAP1 PUSH2 0x53CB JUMP JUMPDEST DUP1 PUSH1 0x1F ADD PUSH1 0x20 DUP1 SWAP2 DIV MUL PUSH1 0x20 ADD PUSH1 0x40 MLOAD SWAP1 DUP2 ADD PUSH1 0x40 MSTORE DUP1 SWAP3 SWAP2 SWAP1 DUP2 DUP2 MSTORE PUSH1 0x20 ADD DUP3 DUP1 SLOAD PUSH2 0x400C SWAP1 PUSH2 0x53CB JUMP JUMPDEST DUP1 ISZERO PUSH2 0x4059 JUMPI DUP1 PUSH1 0x1F LT PUSH2 0x402E JUMPI PUSH2 0x100 DUP1 DUP4 SLOAD DIV MUL DUP4 MSTORE SWAP2 PUSH1 0x20 ADD SWAP2 PUSH2 0x4059 JUMP JUMPDEST DUP3 ADD SWAP2 SWAP1 PUSH1 0x0 MSTORE PUSH1 0x20 PUSH1 0x0 KECCAK256 SWAP1 JUMPDEST DUP2 SLOAD DUP2 MSTORE SWAP1 PUSH1 0x1 ADD SWAP1 PUSH1 0x20 ADD DUP1 DUP4 GT PUSH2 0x403C JUMPI DUP3 SWAP1 SUB PUSH1 0x1F AND DUP3 ADD SWAP2 JUMPDEST POP POP POP POP POP DUP2 MSTORE PUSH1 0x20 ADD SWAP1 PUSH1 0x1 ADD SWAP1 PUSH2 0x3FC1 JUMP JUMPDEST ISZERO JUMPDEST DUP1 ISZERO PUSH2 0x408C JUMPI POP PUSH2 0x100 DUP4 ADD MLOAD PUSH2 0x4089 SWAP1 PUSH3 0x15180 PUSH2 0x54E8 JUMP JUMPDEST DUP3 LT JUMPDEST PUSH2 0x40A8 JUMPI PUSH1 0x40 MLOAD PUSH3 0x461BCD PUSH1 0xE5 SHL DUP2 MSTORE PUSH1 0x4 ADD PUSH2 0x55B SWAP1 PUSH2 0x5507 JUMP JUMPDEST PUSH1 0x0 PUSH2 0x40B4 DUP10 DUP10 PUSH2 0x4675 JUMP JUMPDEST SWAP10 SWAP9 POP POP POP POP POP POP POP POP POP JUMP JUMPDEST PUSH1 0x0 DUP3 DUP3 PUSH1 0x0 PUSH1 0x6F DUP3 PUSH1 0x40 MLOAD PUSH2 0x40D7 SWAP2 SWAP1 PUSH2 0x53AF JUMP JUMPDEST SWAP1 DUP2 MSTORE PUSH1 0x20 ADD PUSH1 0x40 MLOAD DUP1 SWAP2 SUB SWAP1 KECCAK256 PUSH1 0x40 MLOAD DUP1 PUSH2 0x160 ADD PUSH1 0x40 MSTORE SWAP1 DUP2 PUSH1 0x0 DUP3 ADD DUP1 SLOAD PUSH2 0x4101 SWAP1 PUSH2 0x53CB JUMP JUMPDEST DUP1 PUSH1 0x1F ADD PUSH1 0x20 DUP1 SWAP2 DIV MUL PUSH1 0x20 ADD PUSH1 0x40 MLOAD SWAP1 DUP2 ADD PUSH1 0x40 MSTORE DUP1 SWAP3 SWAP2 SWAP1 DUP2 DUP2 MSTORE PUSH1 0x20 ADD DUP3 DUP1 SLOAD PUSH2 0x412D SWAP1 PUSH2 0x53CB JUMP JUMPDEST DUP1 ISZERO PUSH2 0x417A JUMPI DUP1 PUSH1 0x1F LT PUSH2 0x414F JUMPI PUSH2 0x100 DUP1 DUP4 SLOAD DIV MUL DUP4 MSTORE SWAP2 PUSH1 0x20 ADD SWAP2 PUSH2 0x417A JUMP JUMPDEST DUP3 ADD SWAP2 SWAP1 PUSH1 0x0 MSTORE PUSH1 0x20 PUSH1 0x0 KECCAK256 SWAP1 JUMPDEST DUP2 SLOAD DUP2 MSTORE SWAP1 PUSH1 0x1 ADD SWAP1 PUSH1 0x20 ADD DUP1 DUP4 GT PUSH2 0x415D JUMPI DUP3 SWAP1 SUB PUSH1 0x1F AND DUP3 ADD SWAP2 JUMPDEST POP POP POP POP POP DUP2 MSTORE PUSH1 0x20 ADD PUSH1 0x1 DUP3 ADD SLOAD DUP2 MSTORE PUSH1 0x20 ADD PUSH1 0x2 DUP3 ADD DUP1 SLOAD PUSH2 0x419D SWAP1 PUSH2 0x53CB JUMP JUMPDEST DUP1 PUSH1 0x1F ADD PUSH1 0x20 DUP1 SWAP2 DIV MUL PUSH1 0x20 ADD PUSH1 0x40 MLOAD SWAP1 DUP2 ADD PUSH1 0x40 MSTORE DUP1 SWAP3 SWAP2 SWAP1 DUP2 DUP2 MSTORE PUSH1 0x20 ADD DUP3 DUP1 SLOAD PUSH2 0x41C9 SWAP1 PUSH2 0x53CB JUMP JUMPDEST DUP1 ISZERO PUSH2 0x4216 JUMPI DUP1 PUSH1 0x1F LT PUSH2 0x41EB JUMPI PUSH2 0x100 DUP1 DUP4 SLOAD DIV MUL DUP4 MSTORE SWAP2 PUSH1 0x20 ADD SWAP2 PUSH2 0x4216 JUMP JUMPDEST DUP3 ADD SWAP2 SWAP1 PUSH1 0x0 MSTORE PUSH1 0x20 PUSH1 0x0 KECCAK256 SWAP1 JUMPDEST DUP2 SLOAD DUP2 MSTORE SWAP1 PUSH1 0x1 ADD SWAP1 PUSH1 0x20 ADD DUP1 DUP4 GT PUSH2 0x41F9 JUMPI DUP3 SWAP1 SUB PUSH1 0x1F AND DUP3 ADD SWAP2 JUMPDEST POP POP POP SWAP2 DUP4 MSTORE POP POP PUSH1 0x3 DUP3 ADD SLOAD PUSH1 0x1 PUSH1 0x1 PUSH1 0xA0 SHL SUB SWAP1 DUP2 AND PUSH1 0x20 DUP4 ADD MSTORE PUSH1 0x4 DUP4 ADD SLOAD PUSH1 0x40 DUP4 ADD MSTORE PUSH1 0x5 DUP4 ADD SLOAD PUSH1 0x60 DUP4 ADD MSTORE PUSH1 0x6 DUP4 ADD SLOAD PUSH1 0x80 DUP4 ADD MSTORE PUSH1 0x7 DUP4 ADD SLOAD PUSH1 0xFF SWAP1 DUP2 AND ISZERO ISZERO PUSH1 0xA0 DUP1 DUP6 ADD SWAP2 SWAP1 SWAP2 MSTORE PUSH1 0x8 DUP6 ADD SLOAD PUSH1 0xC0 DUP6 ADD MSTORE PUSH1 0x9 SWAP1 SWAP5 ADD SLOAD SWAP2 DUP3 AND PUSH1 0xE0 DUP5 ADD MSTORE PUSH1 0x1 PUSH1 0xA0 SHL SWAP1 SWAP2 DIV AND ISZERO ISZERO PUSH2 0x100 SWAP1 SWAP2 ADD MSTORE DUP2 ADD MLOAD SWAP1 SWAP2 POP PUSH1 0x0 SWAP1 PUSH2 0x42A3 SWAP1 TIMESTAMP PUSH2 0x5453 JUMP JUMPDEST PUSH1 0x68 SLOAD SWAP1 SWAP2 POP PUSH1 0x1 DUP2 LT DUP1 ISZERO SWAP1 PUSH2 0x42CA JUMPI POP PUSH1 0xC0 DUP4 ADD MLOAD PUSH2 0x42C7 SWAP1 PUSH3 0x15180 PUSH2 0x54E8 JUMP JUMPDEST DUP3 LT JUMPDEST DUP1 ISZERO PUSH2 0x43AF JUMPI POP CALLER PUSH1 0x0 SWAP1 DUP2 MSTORE PUSH1 0x74 PUSH1 0x20 SWAP1 DUP2 MSTORE PUSH1 0x40 DUP1 DUP4 KECCAK256 DUP1 SLOAD DUP3 MLOAD DUP2 DUP6 MUL DUP2 ADD DUP6 ADD SWAP1 SWAP4 MSTORE DUP1 DUP4 MSTORE PUSH2 0x43AD SWAP5 SWAP3 SWAP4 SWAP2 SWAP3 SWAP1 SWAP2 DUP5 ADD JUMPDEST DUP3 DUP3 LT ISZERO PUSH2 0x296A JUMPI DUP4 DUP3 SWAP1 PUSH1 0x0 MSTORE PUSH1 0x20 PUSH1 0x0 KECCAK256 ADD DUP1 SLOAD PUSH2 0x4320 SWAP1 PUSH2 0x53CB JUMP JUMPDEST DUP1 PUSH1 0x1F ADD PUSH1 0x20 DUP1 SWAP2 DIV MUL PUSH1 0x20 ADD PUSH1 0x40 MLOAD SWAP1 DUP2 ADD PUSH1 0x40 MSTORE DUP1 SWAP3 SWAP2 SWAP1 DUP2 DUP2 MSTORE PUSH1 0x20 ADD DUP3 DUP1 SLOAD PUSH2 0x434C SWAP1 PUSH2 0x53CB JUMP JUMPDEST DUP1 ISZERO PUSH2 0x4399 JUMPI DUP1 PUSH1 0x1F LT PUSH2 0x436E JUMPI PUSH2 0x100 DUP1 DUP4 SLOAD DIV MUL DUP4 MSTORE SWAP2 PUSH1 0x20 ADD SWAP2 PUSH2 0x4399 JUMP JUMPDEST DUP3 ADD SWAP2 SWAP1 PUSH1 0x0 MSTORE PUSH1 0x20 PUSH1 0x0 KECCAK256 SWAP1 JUMPDEST DUP2 SLOAD DUP2 MSTORE SWAP1 PUSH1 0x1 ADD SWAP1 PUSH1 0x20 ADD DUP1 DUP4 GT PUSH2 0x437C JUMPI DUP3 SWAP1 SUB PUSH1 0x1F AND DUP3 ADD SWAP2 JUMPDEST POP POP POP POP POP DUP2 MSTORE PUSH1 0x20 ADD SWAP1 PUSH1 0x1 ADD SWAP1 PUSH2 0x4301 JUMP JUMPDEST ISZERO JUMPDEST DUP1 ISZERO PUSH2 0x449A JUMPI POP PUSH2 0x4498 PUSH1 0x76 PUSH1 0x0 DUP8 DUP2 MSTORE PUSH1 0x20 ADD SWAP1 DUP2 MSTORE PUSH1 0x20 ADD PUSH1 0x0 KECCAK256 DUP1 SLOAD DUP1 PUSH1 0x20 MUL PUSH1 0x20 ADD PUSH1 0x40 MLOAD SWAP1 DUP2 ADD PUSH1 0x40 MSTORE DUP1 SWAP3 SWAP2 SWAP1 DUP2 DUP2 MSTORE PUSH1 0x20 ADD PUSH1 0x0 SWAP1 JUMPDEST DUP3 DUP3 LT ISZERO PUSH2 0x296A JUMPI DUP4 DUP3 SWAP1 PUSH1 0x0 MSTORE PUSH1 0x20 PUSH1 0x0 KECCAK256 ADD DUP1 SLOAD PUSH2 0x440B SWAP1 PUSH2 0x53CB JUMP JUMPDEST DUP1 PUSH1 0x1F ADD PUSH1 0x20 DUP1 SWAP2 DIV MUL PUSH1 0x20 ADD PUSH1 0x40 MLOAD SWAP1 DUP2 ADD PUSH1 0x40 MSTORE DUP1 SWAP3 SWAP2 SWAP1 DUP2 DUP2 MSTORE PUSH1 0x20 ADD DUP3 DUP1 SLOAD PUSH2 0x4437 SWAP1 PUSH2 0x53CB JUMP JUMPDEST DUP1 ISZERO PUSH2 0x4484 JUMPI DUP1 PUSH1 0x1F LT PUSH2 0x4459 JUMPI PUSH2 0x100 DUP1 DUP4 SLOAD DIV MUL DUP4 MSTORE SWAP2 PUSH1 0x20 ADD SWAP2 PUSH2 0x4484 JUMP JUMPDEST DUP3 ADD SWAP2 SWAP1 PUSH1 0x0 MSTORE PUSH1 0x20 PUSH1 0x0 KECCAK256 SWAP1 JUMPDEST DUP2 SLOAD DUP2 MSTORE SWAP1 PUSH1 0x1 ADD SWAP1 PUSH1 0x20 ADD DUP1 DUP4 GT PUSH2 0x4467 JUMPI DUP3 SWAP1 SUB PUSH1 0x1F AND DUP3 ADD SWAP2 JUMPDEST POP POP POP POP POP DUP2 MSTORE PUSH1 0x20 ADD SWAP1 PUSH1 0x1 ADD SWAP1 PUSH2 0x43EC JUMP JUMPDEST ISZERO JUMPDEST DUP1 ISZERO PUSH2 0x44B7 JUMPI POP PUSH2 0x100 DUP4 ADD MLOAD PUSH2 0x44B4 SWAP1 PUSH3 0x15180 PUSH2 0x54E8 JUMP JUMPDEST DUP3 LT JUMPDEST PUSH2 0x44D3 JUMPI PUSH1 0x40 MLOAD PUSH3 0x461BCD PUSH1 0xE5 SHL DUP2 MSTORE PUSH1 0x4 ADD PUSH2 0x55B SWAP1 PUSH2 0x5507 JUMP JUMPDEST PUSH1 0x0 PUSH2 0x40B4 DUP10 DUP10 PUSH2 0x49CB JUMP JUMPDEST PUSH1 0x0 SLOAD PUSH2 0x100 SWAP1 DIV PUSH1 0xFF AND PUSH2 0x4506 JUMPI PUSH1 0x40 MLOAD PUSH3 0x461BCD PUSH1 0xE5 SHL DUP2 MSTORE PUSH1 0x4 ADD PUSH2 0x55B SWAP1 PUSH2 0x553E JUMP JUMPDEST PUSH2 0x3E8 PUSH1 0x66 SSTORE PUSH2 0x4514 PUSH2 0x4AD8 JUMP JUMPDEST PUSH2 0x451C PUSH2 0x4D69 JUMP JUMPDEST PUSH1 0x33 SLOAD PUSH1 0x65 DUP1 SLOAD PUSH1 0x1 PUSH1 0x1 PUSH1 0xA0 SHL SUB NOT AND PUSH1 0x1 PUSH1 0x1 PUSH1 0xA0 SHL SUB SWAP1 SWAP3 AND SWAP2 SWAP1 SWAP2 OR SWAP1 SSTORE JUMP JUMPDEST PUSH2 0x120 DUP2 ADD MLOAD PUSH1 0x1 PUSH1 0x1 PUSH1 0xA0 SHL SUB SWAP1 DUP2 AND PUSH1 0x0 SWAP1 DUP2 MSTORE PUSH1 0x72 PUSH1 0x20 MSTORE PUSH1 0x40 DUP1 DUP3 KECCAK256 PUSH1 0x3 SWAP1 DUP2 ADD SLOAD SWAP4 DUP7 AND DUP4 MSTORE SWAP1 DUP3 KECCAK256 ADD SLOAD SWAP1 SWAP2 SWAP1 PUSH2 0x457E SWAP1 PUSH1 0x1 PUSH2 0x54BD JUMP JUMPDEST GT ISZERO PUSH2 0x45A1 JUMPI PUSH1 0x1 PUSH1 0x1 PUSH1 0xA0 SHL SUB DUP4 AND PUSH2 0x120 DUP4 ADD MSTORE PUSH1 0x0 PUSH2 0x140 DUP4 ADD MSTORE PUSH2 0x45EA JUMP JUMPDEST PUSH2 0x120 DUP3 ADD MLOAD PUSH1 0x1 PUSH1 0x1 PUSH1 0xA0 SHL SUB SWAP1 DUP2 AND PUSH1 0x0 SWAP1 DUP2 MSTORE PUSH1 0x72 PUSH1 0x20 MSTORE PUSH1 0x40 DUP1 DUP3 KECCAK256 PUSH1 0x3 SWAP1 DUP2 ADD SLOAD SWAP4 DUP8 AND DUP4 MSTORE SWAP2 KECCAK256 ADD SLOAD PUSH2 0x45DB SWAP1 PUSH1 0x1 PUSH2 0x54BD JUMP JUMPDEST EQ ISZERO PUSH2 0x45EA JUMPI PUSH1 0x1 PUSH2 0x140 DUP4 ADD MSTORE JUMPDEST POP PUSH2 0x140 ADD MLOAD SWAP2 SWAP1 POP JUMP JUMPDEST PUSH1 0x1 PUSH1 0x1 PUSH1 0xA0 SHL SUB DUP2 AND PUSH1 0x0 SWAP1 DUP2 MSTORE PUSH1 0x72 PUSH1 0x20 MSTORE PUSH1 0x40 DUP2 KECCAK256 PUSH1 0x3 ADD DUP1 SLOAD SWAP2 PUSH2 0x461C DUP4 PUSH2 0x54A2 JUMP JUMPDEST SWAP1 SWAP2 SSTORE POP POP CALLER PUSH1 0x0 SWAP1 DUP2 MSTORE PUSH1 0x73 PUSH1 0x20 MSTORE PUSH1 0x40 DUP1 DUP3 KECCAK256 PUSH1 0x3 ADD DUP1 SLOAD PUSH3 0xFF0000 NOT AND PUSH3 0x10000 OR SWAP1 SSTORE MLOAD PUSH1 0x1 PUSH1 0x1 PUSH1 0xA0 SHL SUB DUP4 AND SWAP2 PUSH32 0xAEC2CCAE8681FD01AD220ECB7E9B5F7D485B1CC3CC01599ACB1578016B30A6BD SWAP2 LOG2 POP JUMP JUMPDEST PUSH1 0x0 DUP1 PUSH1 0x6F DUP4 PUSH1 0x40 MLOAD PUSH2 0x4688 SWAP2 SWAP1 PUSH2 0x53AF JUMP JUMPDEST SWAP1 DUP2 MSTORE PUSH1 0x20 ADD PUSH1 0x40 MLOAD DUP1 SWAP2 SUB SWAP1 KECCAK256 SWAP1 POP PUSH1 0x71 DUP4 PUSH1 0x40 MLOAD PUSH2 0x46A8 SWAP2 SWAP1 PUSH2 0x53AF JUMP JUMPDEST SWAP1 DUP2 MSTORE PUSH1 0x40 DUP1 MLOAD PUSH1 0x20 SWAP3 DUP2 SWAP1 SUB DUP4 ADD DUP2 KECCAK256 DUP1 SLOAD PUSH1 0x1 DUP2 ADD DUP3 SSTORE PUSH1 0x0 SWAP2 DUP3 MSTORE DUP5 DUP3 KECCAK256 ADD DUP1 SLOAD CALLER PUSH1 0x1 PUSH1 0x1 PUSH1 0xA0 SHL SUB NOT SWAP1 SWAP2 AND OR SWAP1 SSTORE SWAP3 DUP2 ADD DUP8 SWAP1 MSTORE ADD PUSH1 0x40 DUP1 MLOAD DUP1 DUP4 SUB PUSH1 0x1F NOT ADD DUP2 MSTORE DUP3 DUP3 MSTORE DUP1 MLOAD PUSH1 0x20 SWAP2 DUP3 ADD KECCAK256 PUSH1 0xE0 DUP5 ADD DUP4 MSTORE PUSH1 0x4 DUP7 ADD SLOAD DUP5 MSTORE CALLER DUP3 DUP6 ADD DUP2 DUP2 MSTORE DUP6 DUP6 ADD DUP11 DUP2 MSTORE PUSH1 0x1 PUSH1 0x60 DUP9 ADD DUP2 SWAP1 MSTORE PUSH1 0x80 DUP9 ADD DUP2 SWAP1 MSTORE PUSH1 0x0 PUSH1 0xA0 DUP10 ADD DUP2 SWAP1 MSTORE PUSH1 0xC0 DUP10 ADD DUP7 SWAP1 MSTORE SWAP4 DUP5 MSTORE PUSH1 0x73 DUP7 MSTORE SWAP6 SWAP1 SWAP3 KECCAK256 DUP7 MLOAD DUP2 SSTORE SWAP1 MLOAD SWAP5 DUP2 ADD DUP1 SLOAD PUSH1 0x1 PUSH1 0x1 PUSH1 0xA0 SHL SUB NOT AND PUSH1 0x1 PUSH1 0x1 PUSH1 0xA0 SHL SUB SWAP1 SWAP7 AND SWAP6 SWAP1 SWAP6 OR SWAP1 SWAP5 SSTORE MLOAD DUP1 MLOAD SWAP2 SWAP6 POP DUP5 SWAP4 SWAP3 PUSH2 0x4782 SWAP3 PUSH1 0x2 DUP6 ADD SWAP3 SWAP1 SWAP2 ADD SWAP1 PUSH2 0x4DC3 JUMP JUMPDEST POP PUSH1 0x60 DUP3 ADD MLOAD PUSH1 0x3 DUP3 ADD DUP1 SLOAD PUSH1 0x80 DUP6 ADD MLOAD PUSH1 0xA0 DUP7 ADD MLOAD PUSH2 0xFFFF NOT SWAP1 SWAP3 AND SWAP4 ISZERO ISZERO PUSH2 0xFF00 NOT AND SWAP4 SWAP1 SWAP4 OR PUSH2 0x100 SWAP4 ISZERO ISZERO SWAP4 SWAP1 SWAP4 MUL SWAP3 SWAP1 SWAP3 OR PUSH3 0xFF0000 NOT AND PUSH3 0x10000 SWAP3 ISZERO ISZERO SWAP3 SWAP1 SWAP3 MUL SWAP2 SWAP1 SWAP2 OR SWAP1 SSTORE PUSH1 0xC0 SWAP1 SWAP2 ADD MLOAD PUSH1 0x4 SWAP1 SWAP2 ADD SSTORE PUSH1 0x69 DUP1 SLOAD PUSH1 0x1 DUP2 ADD DUP3 SSTORE PUSH1 0x0 SWAP2 SWAP1 SWAP2 MSTORE DUP2 MLOAD PUSH32 0x7FB4302E8E91F9110A6554C2C0A24601252C2A42C2220CA988EFCFE399914308 PUSH1 0x5 SWAP1 SWAP3 MUL SWAP2 DUP3 ADD SWAP1 DUP2 SSTORE PUSH1 0x20 DUP1 DUP5 ADD MLOAD PUSH32 0x7FB4302E8E91F9110A6554C2C0A24601252C2A42C2220CA988EFCFE399914309 DUP5 ADD DUP1 SLOAD PUSH1 0x1 PUSH1 0x1 PUSH1 0xA0 SHL SUB NOT AND PUSH1 0x1 PUSH1 0x1 PUSH1 0xA0 SHL SUB SWAP1 SWAP3 AND SWAP2 SWAP1 SWAP2 OR SWAP1 SSTORE PUSH1 0x40 DUP5 ADD MLOAD DUP1 MLOAD DUP6 SWAP5 PUSH2 0x4899 SWAP4 PUSH32 0x7FB4302E8E91F9110A6554C2C0A24601252C2A42C2220CA988EFCFE39991430A SWAP1 SWAP2 ADD SWAP3 ADD SWAP1 PUSH2 0x4DC3 JUMP JUMPDEST POP PUSH1 0x60 DUP3 ADD MLOAD PUSH1 0x3 DUP3 ADD DUP1 SLOAD PUSH1 0x80 DUP6 ADD MLOAD PUSH1 0xA0 DUP7 ADD MLOAD ISZERO ISZERO PUSH3 0x10000 MUL PUSH3 0xFF0000 NOT SWAP2 ISZERO ISZERO PUSH2 0x100 MUL PUSH2 0xFF00 NOT SWAP6 ISZERO ISZERO SWAP6 SWAP1 SWAP6 AND PUSH2 0xFFFF NOT SWAP1 SWAP4 AND SWAP3 SWAP1 SWAP3 OR SWAP4 SWAP1 SWAP4 OR SWAP3 SWAP1 SWAP3 AND SWAP2 SWAP1 SWAP2 OR SWAP1 SSTORE PUSH1 0xC0 SWAP1 SWAP2 ADD MLOAD PUSH1 0x4 SWAP1 SWAP2 ADD SSTORE PUSH1 0x40 MLOAD PUSH1 0x6F SWAP1 PUSH2 0x4903 SWAP1 DUP8 SWAP1 PUSH2 0x53AF JUMP JUMPDEST SWAP1 DUP2 MSTORE PUSH1 0x40 MLOAD SWAP1 DUP2 SWAP1 SUB PUSH1 0x20 ADD SWAP1 KECCAK256 PUSH1 0x4 ADD DUP1 SLOAD SWAP1 PUSH1 0x0 PUSH2 0x4923 DUP4 PUSH2 0x54A2 JUMP JUMPDEST SWAP1 SWAP2 SSTORE POP POP CALLER PUSH1 0x0 SWAP1 DUP2 MSTORE PUSH1 0x74 PUSH1 0x20 SWAP1 DUP2 MSTORE PUSH1 0x40 DUP3 KECCAK256 DUP1 SLOAD PUSH1 0x1 DUP2 ADD DUP3 SSTORE SWAP1 DUP4 MSTORE SWAP2 DUP2 SWAP1 KECCAK256 DUP8 MLOAD PUSH2 0x495B SWAP4 SWAP2 SWAP1 SWAP2 ADD SWAP2 DUP9 ADD SWAP1 PUSH2 0x4DC3 JUMP JUMPDEST POP PUSH1 0x0 DUP7 DUP2 MSTORE PUSH1 0x76 PUSH1 0x20 SWAP1 DUP2 MSTORE PUSH1 0x40 DUP3 KECCAK256 DUP1 SLOAD PUSH1 0x1 DUP2 ADD DUP3 SSTORE SWAP1 DUP4 MSTORE SWAP2 DUP2 SWAP1 KECCAK256 DUP8 MLOAD PUSH2 0x498E SWAP4 SWAP2 SWAP1 SWAP2 ADD SWAP2 DUP9 ADD SWAP1 PUSH2 0x4DC3 JUMP JUMPDEST POP PUSH1 0x40 MLOAD DUP3 DUP2 MSTORE PUSH32 0xD850A8248DF1456F35B1B26DB099385CB363335BB60A8E99294BC10124267871 SWAP1 PUSH1 0x20 ADD PUSH1 0x40 MLOAD DUP1 SWAP2 SUB SWAP1 LOG1 POP SWAP5 SWAP4 POP POP POP POP JUMP JUMPDEST PUSH1 0x0 DUP1 PUSH1 0x6F DUP4 PUSH1 0x40 MLOAD PUSH2 0x49DE SWAP2 SWAP1 PUSH2 0x53AF JUMP JUMPDEST SWAP1 DUP2 MSTORE PUSH1 0x20 ADD PUSH1 0x40 MLOAD DUP1 SWAP2 SUB SWAP1 KECCAK256 SWAP1 POP PUSH1 0x71 DUP4 PUSH1 0x40 MLOAD PUSH2 0x49FE SWAP2 SWAP1 PUSH2 0x53AF JUMP JUMPDEST SWAP1 DUP2 MSTORE PUSH1 0x40 DUP1 MLOAD PUSH1 0x20 SWAP3 DUP2 SWAP1 SUB DUP4 ADD DUP2 KECCAK256 DUP1 SLOAD PUSH1 0x1 DUP2 ADD DUP3 SSTORE PUSH1 0x0 SWAP2 DUP3 MSTORE DUP5 DUP3 KECCAK256 ADD DUP1 SLOAD CALLER PUSH1 0x1 PUSH1 0x1 PUSH1 0xA0 SHL SUB NOT SWAP1 SWAP2 AND OR SWAP1 SSTORE SWAP3 DUP2 ADD DUP8 SWAP1 MSTORE ADD PUSH1 0x40 DUP1 MLOAD DUP1 DUP4 SUB PUSH1 0x1F NOT ADD DUP2 MSTORE DUP3 DUP3 MSTORE DUP1 MLOAD PUSH1 0x20 SWAP2 DUP3 ADD KECCAK256 PUSH1 0xE0 DUP5 ADD DUP4 MSTORE PUSH1 0x4 DUP7 ADD SLOAD DUP5 MSTORE CALLER DUP3 DUP6 ADD DUP2 DUP2 MSTORE DUP6 DUP6 ADD DUP11 DUP2 MSTORE PUSH1 0x1 PUSH1 0x60 DUP9 ADD DUP2 SWAP1 MSTORE PUSH1 0x0 PUSH1 0x80 DUP10 ADD DUP2 SWAP1 MSTORE PUSH1 0xA0 DUP10 ADD DUP2 SWAP1 MSTORE PUSH1 0xC0 DUP10 ADD DUP7 SWAP1 MSTORE SWAP4 DUP5 MSTORE PUSH1 0x73 DUP7 MSTORE SWAP6 SWAP1 SWAP3 KECCAK256 DUP7 MLOAD DUP2 SSTORE SWAP1 MLOAD SWAP5 DUP2 ADD DUP1 SLOAD PUSH1 0x1 PUSH1 0x1 PUSH1 0xA0 SHL SUB NOT AND PUSH1 0x1 PUSH1 0x1 PUSH1 0xA0 SHL SUB SWAP1 SWAP7 AND SWAP6 SWAP1 SWAP6 OR SWAP1 SWAP5 SSTORE MLOAD DUP1 MLOAD SWAP2 SWAP6 POP DUP5 SWAP4 SWAP3 PUSH2 0x4782 SWAP3 PUSH1 0x2 DUP6 ADD SWAP3 SWAP1 SWAP2 ADD SWAP1 PUSH2 0x4DC3 JUMP JUMPDEST PUSH1 0x40 DUP1 MLOAD DUP1 DUP3 ADD SWAP1 SWAP2 MSTORE PUSH1 0x9 DUP2 MSTORE PUSH9 0x6F70656E2D66726565 PUSH1 0xB8 SHL PUSH1 0x20 DUP1 DUP4 ADD SWAP2 DUP3 MSTORE PUSH1 0x0 DUP1 MSTORE PUSH1 0x67 SWAP1 MSTORE SWAP1 MLOAD PUSH2 0x4B30 SWAP2 PUSH32 0xD4E1AC8B62C3FF1E2C1B7113742533B8310CE5AB8A8767EAD9BA8B250C7E3CC9 SWAP2 PUSH2 0x4DC3 JUMP JUMPDEST POP PUSH1 0x40 DUP1 MLOAD DUP1 DUP3 ADD SWAP1 SWAP2 MSTORE PUSH1 0xB DUP2 MSTORE PUSH11 0x636C6F7365642D66726565 PUSH1 0xA8 SHL PUSH1 0x20 DUP1 DUP4 ADD SWAP2 DUP3 MSTORE PUSH1 0x1 PUSH1 0x0 MSTORE PUSH1 0x67 SWAP1 MSTORE SWAP1 MLOAD PUSH2 0x4B8C SWAP2 PUSH32 0x6BEE784EFEB983674392298AB585B22866BEDF00EBB0EEA949D1E66F3F50E71D SWAP2 PUSH2 0x4DC3 JUMP JUMPDEST POP PUSH1 0x40 DUP1 MLOAD DUP1 DUP3 ADD SWAP1 SWAP2 MSTORE PUSH1 0x9 DUP2 MSTORE PUSH9 0x1BDC195B8B5C185A59 PUSH1 0xBA SHL PUSH1 0x20 DUP1 DUP4 ADD SWAP2 DUP3 MSTORE PUSH1 0x2 PUSH1 0x0 MSTORE PUSH1 0x67 SWAP1 MSTORE SWAP1 MLOAD PUSH2 0x4BE6 SWAP2 PUSH32 0x34A128FF2438BCCB68124DE780EA45BE60ACA78C6FB6CE114324EE2DD88C546D SWAP2 PUSH2 0x4DC3 JUMP JUMPDEST POP PUSH1 0x40 DUP1 MLOAD DUP1 DUP3 ADD SWAP1 SWAP2 MSTORE PUSH1 0xB DUP2 MSTORE PUSH11 0x18DB1BDCD9590B5C185A59 PUSH1 0xAA SHL PUSH1 0x20 DUP1 DUP4 ADD SWAP2 DUP3 MSTORE PUSH1 0x3 PUSH1 0x0 MSTORE PUSH1 0x67 SWAP1 MSTORE SWAP1 MLOAD PUSH2 0x4C42 SWAP2 PUSH32 0x8C1C91810985109892A55558A5891C2831CD29DC314F55DACA604B52719F9F36 SWAP2 PUSH2 0x4DC3 JUMP JUMPDEST POP PUSH1 0x40 DUP1 MLOAD DUP1 DUP3 ADD SWAP1 SWAP2 MSTORE PUSH1 0x12 DUP2 MSTORE PUSH18 0x18DB1BDCD9590B599C99594B5CD958DC995D PUSH1 0x72 SHL PUSH1 0x20 DUP1 DUP4 ADD SWAP2 DUP3 MSTORE PUSH1 0x4 PUSH1 0x0 MSTORE PUSH1 0x67 SWAP1 MSTORE SWAP1 MLOAD PUSH2 0x4CA5 SWAP2 PUSH32 0x4813066CC9BC2FFB2908859373A01B2BDF685062DF07D3BBC2275A773C101414 SWAP2 PUSH2 0x4DC3 JUMP JUMPDEST POP PUSH1 0x40 DUP1 MLOAD DUP1 DUP3 ADD SWAP1 SWAP2 MSTORE PUSH1 0x10 DUP2 MSTORE PUSH16 0x1BDC195B8B5C185A590B5CD958DC995D PUSH1 0x82 SHL PUSH1 0x20 DUP1 DUP4 ADD SWAP2 DUP3 MSTORE PUSH1 0x5 PUSH1 0x0 MSTORE PUSH1 0x67 SWAP1 MSTORE SWAP1 MLOAD PUSH2 0x4D06 SWAP2 PUSH32 0x2D7518069FFE0DD7E7AB74F326D370E23A25560D4B83756E518197D858C5A393 SWAP2 PUSH2 0x4DC3 JUMP JUMPDEST POP PUSH1 0x40 DUP1 MLOAD DUP1 DUP3 ADD SWAP1 SWAP2 MSTORE PUSH1 0x12 DUP2 MSTORE PUSH18 0x18DB1BDCD9590B5C185A590B5CD958DC995D PUSH1 0x72 SHL PUSH1 0x20 DUP1 DUP4 ADD SWAP2 DUP3 MSTORE PUSH1 0x6 PUSH1 0x0 MSTORE PUSH1 0x67 SWAP1 MSTORE SWAP1 MLOAD PUSH2 0x15A0 SWAP2 PUSH32 0xAD91BDF316595464714A4F9B2538304767DDB9763115D960EFC5CDDCA3D04EA7 SWAP2 PUSH2 0x4DC3 JUMP JUMPDEST PUSH1 0x0 SLOAD PUSH2 0x100 SWAP1 DIV PUSH1 0xFF AND PUSH2 0x4D90 JUMPI PUSH1 0x40 MLOAD PUSH3 0x461BCD PUSH1 0xE5 SHL DUP2 MSTORE PUSH1 0x4 ADD PUSH2 0x55B SWAP1 PUSH2 0x553E JUMP JUMPDEST PUSH2 0x1E17 PUSH1 0x0 SLOAD PUSH2 0x100 SWAP1 DIV PUSH1 0xFF AND PUSH2 0x4DBA JUMPI PUSH1 0x40 MLOAD PUSH3 0x461BCD PUSH1 0xE5 SHL DUP2 MSTORE PUSH1 0x4 ADD PUSH2 0x55B SWAP1 PUSH2 0x553E JUMP JUMPDEST PUSH2 0x1E17 CALLER PUSH2 0x3C44 JUMP JUMPDEST DUP3 DUP1 SLOAD PUSH2 0x4DCF SWAP1 PUSH2 0x53CB JUMP JUMPDEST SWAP1 PUSH1 0x0 MSTORE PUSH1 0x20 PUSH1 0x0 KECCAK256 SWAP1 PUSH1 0x1F ADD PUSH1 0x20 SWAP1 DIV DUP2 ADD SWAP3 DUP3 PUSH2 0x4DF1 JUMPI PUSH1 0x0 DUP6 SSTORE PUSH2 0x4E37 JUMP JUMPDEST DUP3 PUSH1 0x1F LT PUSH2 0x4E0A JUMPI DUP1 MLOAD PUSH1 0xFF NOT AND DUP4 DUP1 ADD OR DUP6 SSTORE PUSH2 0x4E37 JUMP JUMPDEST DUP3 DUP1 ADD PUSH1 0x1 ADD DUP6 SSTORE DUP3 ISZERO PUSH2 0x4E37 JUMPI SWAP2 DUP3 ADD JUMPDEST DUP3 DUP2 GT ISZERO PUSH2 0x4E37 JUMPI DUP3 MLOAD DUP3 SSTORE SWAP2 PUSH1 0x20 ADD SWAP2 SWAP1 PUSH1 0x1 ADD SWAP1 PUSH2 0x4E1C JUMP JUMPDEST POP PUSH2 0x4E43 SWAP3 SWAP2 POP PUSH2 0x4E9C JUMP JUMPDEST POP SWAP1 JUMP JUMPDEST DUP3 DUP1 SLOAD DUP3 DUP3 SSTORE SWAP1 PUSH1 0x0 MSTORE PUSH1 0x20 PUSH1 0x0 KECCAK256 SWAP1 DUP2 ADD SWAP3 DUP3 ISZERO PUSH2 0x4E37 JUMPI SWAP2 PUSH1 0x20 MUL DUP3 ADD JUMPDEST DUP3 DUP2 GT ISZERO PUSH2 0x4E37 JUMPI DUP3 MLOAD DUP3 SLOAD PUSH1 0x1 PUSH1 0x1 PUSH1 0xA0 SHL SUB NOT AND PUSH1 0x1 PUSH1 0x1 PUSH1 0xA0 SHL SUB SWAP1 SWAP2 AND OR DUP3 SSTORE PUSH1 0x20 SWAP1 SWAP3 ADD SWAP2 PUSH1 0x1 SWAP1 SWAP2 ADD SWAP1 PUSH2 0x4E67 JUMP JUMPDEST JUMPDEST DUP1 DUP3 GT ISZERO PUSH2 0x4E43 JUMPI PUSH1 0x0 DUP2 SSTORE PUSH1 0x1 ADD PUSH2 0x4E9D JUMP JUMPDEST PUSH4 0x4E487B71 PUSH1 0xE0 SHL PUSH1 0x0 MSTORE PUSH1 0x41 PUSH1 0x4 MSTORE PUSH1 0x24 PUSH1 0x0 REVERT JUMPDEST PUSH1 0x40 MLOAD PUSH1 0x1F DUP3 ADD PUSH1 0x1F NOT AND DUP2 ADD PUSH8 0xFFFFFFFFFFFFFFFF DUP2 GT DUP3 DUP3 LT OR ISZERO PUSH2 0x4EF0 JUMPI PUSH2 0x4EF0 PUSH2 0x4EB1 JUMP JUMPDEST PUSH1 0x40 MSTORE SWAP2 SWAP1 POP JUMP JUMPDEST PUSH1 0x0 DUP3 PUSH1 0x1F DUP4 ADD SLT PUSH2 0x4F09 JUMPI PUSH1 0x0 DUP1 REVERT JUMPDEST DUP2 CALLDATALOAD PUSH8 0xFFFFFFFFFFFFFFFF DUP2 GT ISZERO PUSH2 0x4F23 JUMPI PUSH2 0x4F23 PUSH2 0x4EB1 JUMP JUMPDEST PUSH2 0x4F36 PUSH1 0x1F DUP3 ADD PUSH1 0x1F NOT AND PUSH1 0x20 ADD PUSH2 0x4EC7 JUMP JUMPDEST DUP2 DUP2 MSTORE DUP5 PUSH1 0x20 DUP4 DUP7 ADD ADD GT ISZERO PUSH2 0x4F4B JUMPI PUSH1 0x0 DUP1 REVERT JUMPDEST DUP2 PUSH1 0x20 DUP6 ADD PUSH1 0x20 DUP4 ADD CALLDATACOPY PUSH1 0x0 SWAP2 DUP2 ADD PUSH1 0x20 ADD SWAP2 SWAP1 SWAP2 MSTORE SWAP4 SWAP3 POP POP POP JUMP JUMPDEST PUSH1 0x0 PUSH1 0x20 DUP3 DUP5 SUB SLT ISZERO PUSH2 0x4F7A JUMPI PUSH1 0x0 DUP1 REVERT JUMPDEST DUP2 CALLDATALOAD PUSH8 0xFFFFFFFFFFFFFFFF DUP2 GT ISZERO PUSH2 0x4F91 JUMPI PUSH1 0x0 DUP1 REVERT JUMPDEST PUSH2 0x4F9D DUP5 DUP3 DUP6 ADD PUSH2 0x4EF8 JUMP JUMPDEST SWAP5 SWAP4 POP POP POP POP JUMP JUMPDEST PUSH1 0x20 DUP1 DUP3 MSTORE DUP3 MLOAD DUP3 DUP3 ADD DUP2 SWAP1 MSTORE PUSH1 0x0 SWAP2 SWAP1 DUP5 DUP3 ADD SWAP1 PUSH1 0x40 DUP6 ADD SWAP1 DUP5 JUMPDEST DUP2 DUP2 LT ISZERO PUSH2 0x4FE6 JUMPI DUP4 MLOAD PUSH1 0x1 PUSH1 0x1 PUSH1 0xA0 SHL SUB AND DUP4 MSTORE SWAP3 DUP5 ADD SWAP3 SWAP2 DUP5 ADD SWAP2 PUSH1 0x1 ADD PUSH2 0x4FC1 JUMP JUMPDEST POP SWAP1 SWAP7 SWAP6 POP POP POP POP POP POP JUMP JUMPDEST DUP1 CALLDATALOAD PUSH1 0x1 PUSH1 0x1 PUSH1 0xA0 SHL SUB DUP2 AND DUP2 EQ PUSH2 0x5009 JUMPI PUSH1 0x0 DUP1 REVERT JUMPDEST SWAP2 SWAP1 POP JUMP JUMPDEST PUSH1 0x0 DUP1 PUSH1 0x40 DUP4 DUP6 SUB SLT ISZERO PUSH2 0x5021 JUMPI PUSH1 0x0 DUP1 REVERT JUMPDEST PUSH2 0x502A DUP4 PUSH2 0x4FF2 JUMP JUMPDEST SWAP2 POP PUSH1 0x20 DUP4 ADD CALLDATALOAD PUSH8 0xFFFFFFFFFFFFFFFF DUP2 GT ISZERO PUSH2 0x5046 JUMPI PUSH1 0x0 DUP1 REVERT JUMPDEST PUSH2 0x5052 DUP6 DUP3 DUP7 ADD PUSH2 0x4EF8 JUMP JUMPDEST SWAP2 POP POP SWAP3 POP SWAP3 SWAP1 POP JUMP JUMPDEST PUSH1 0x0 JUMPDEST DUP4 DUP2 LT ISZERO PUSH2 0x5077 JUMPI DUP2 DUP2 ADD MLOAD DUP4 DUP3 ADD MSTORE PUSH1 0x20 ADD PUSH2 0x505F JUMP JUMPDEST DUP4 DUP2 GT ISZERO PUSH2 0x5086 JUMPI PUSH1 0x0 DUP5 DUP5 ADD MSTORE JUMPDEST POP POP POP POP JUMP JUMPDEST PUSH1 0x0 DUP2 MLOAD DUP1 DUP5 MSTORE PUSH2 0x50A4 DUP2 PUSH1 0x20 DUP7 ADD PUSH1 0x20 DUP7 ADD PUSH2 0x505C JUMP JUMPDEST PUSH1 0x1F ADD PUSH1 0x1F NOT AND SWAP3 SWAP1 SWAP3 ADD PUSH1 0x20 ADD SWAP3 SWAP2 POP POP JUMP JUMPDEST PUSH1 0x20 DUP2 MSTORE PUSH1 0x0 DUP3 MLOAD PUSH2 0x160 DUP1 PUSH1 0x20 DUP6 ADD MSTORE PUSH2 0x50D7 PUSH2 0x180 DUP6 ADD DUP4 PUSH2 0x508C JUMP JUMPDEST SWAP2 POP PUSH1 0x20 DUP6 ADD MLOAD PUSH1 0x40 DUP6 ADD MSTORE PUSH1 0x40 DUP6 ADD MLOAD PUSH1 0x1F NOT DUP6 DUP5 SUB ADD PUSH1 0x60 DUP7 ADD MSTORE PUSH2 0x50FE DUP4 DUP3 PUSH2 0x508C JUMP JUMPDEST SWAP3 POP POP PUSH1 0x60 DUP6 ADD MLOAD PUSH2 0x511B PUSH1 0x80 DUP7 ADD DUP3 PUSH1 0x1 PUSH1 0x1 PUSH1 0xA0 SHL SUB AND SWAP1 MSTORE JUMP JUMPDEST POP PUSH1 0x80 DUP6 ADD MLOAD PUSH1 0xA0 DUP6 ADD MSTORE PUSH1 0xA0 DUP6 ADD MLOAD PUSH1 0xC0 DUP6 ADD MSTORE PUSH1 0xC0 DUP6 ADD MLOAD PUSH1 0xE0 DUP6 ADD MSTORE PUSH1 0xE0 DUP6 ADD MLOAD PUSH2 0x100 PUSH2 0x514F DUP2 DUP8 ADD DUP4 ISZERO ISZERO SWAP1 MSTORE JUMP JUMPDEST DUP7 ADD MLOAD PUSH2 0x120 DUP7 DUP2 ADD SWAP2 SWAP1 SWAP2 MSTORE DUP7 ADD MLOAD SWAP1 POP PUSH2 0x140 PUSH2 0x5178 DUP2 DUP8 ADD DUP4 PUSH1 0x1 PUSH1 0x1 PUSH1 0xA0 SHL SUB AND SWAP1 MSTORE JUMP JUMPDEST SWAP1 SWAP6 ADD MLOAD ISZERO ISZERO SWAP4 ADD SWAP3 SWAP1 SWAP3 MSTORE POP SWAP2 SWAP1 POP JUMP JUMPDEST PUSH1 0x0 DUP1 PUSH1 0x0 DUP1 PUSH1 0x0 DUP1 PUSH1 0xC0 DUP8 DUP10 SUB SLT ISZERO PUSH2 0x51A3 JUMPI PUSH1 0x0 DUP1 REVERT JUMPDEST DUP7 CALLDATALOAD PUSH8 0xFFFFFFFFFFFFFFFF DUP1 DUP3 GT ISZERO PUSH2 0x51BB JUMPI PUSH1 0x0 DUP1 REVERT JUMPDEST PUSH2 0x51C7 DUP11 DUP4 DUP12 ADD PUSH2 0x4EF8 JUMP JUMPDEST SWAP8 POP PUSH1 0x20 SWAP2 POP DUP2 DUP10 ADD CALLDATALOAD DUP2 DUP2 GT ISZERO PUSH2 0x51DE JUMPI PUSH1 0x0 DUP1 REVERT JUMPDEST PUSH2 0x51EA DUP12 DUP3 DUP13 ADD PUSH2 0x4EF8 JUMP JUMPDEST SWAP8 POP POP PUSH1 0x40 DUP10 ADD CALLDATALOAD DUP2 DUP2 GT ISZERO PUSH2 0x51FF JUMPI PUSH1 0x0 DUP1 REVERT JUMPDEST DUP10 ADD PUSH1 0x1F DUP2 ADD DUP12 SGT PUSH2 0x5210 JUMPI PUSH1 0x0 DUP1 REVERT JUMPDEST DUP1 CALLDATALOAD DUP3 DUP2 GT ISZERO PUSH2 0x5222 JUMPI PUSH2 0x5222 PUSH2 0x4EB1 JUMP JUMPDEST DUP1 PUSH1 0x5 SHL SWAP3 POP PUSH2 0x5233 DUP5 DUP5 ADD PUSH2 0x4EC7 JUMP JUMPDEST DUP2 DUP2 MSTORE SWAP3 DUP3 ADD DUP5 ADD SWAP3 DUP5 DUP2 ADD SWAP1 DUP14 DUP6 GT ISZERO PUSH2 0x524D JUMPI PUSH1 0x0 DUP1 REVERT JUMPDEST SWAP3 DUP6 ADD SWAP3 JUMPDEST DUP5 DUP5 LT ISZERO PUSH2 0x5272 JUMPI PUSH2 0x5263 DUP5 PUSH2 0x4FF2 JUMP JUMPDEST DUP3 MSTORE SWAP3 DUP6 ADD SWAP3 SWAP1 DUP6 ADD SWAP1 PUSH2 0x5252 JUMP JUMPDEST SWAP11 SWAP14 SWAP10 SWAP13 POP SWAP10 SWAP11 PUSH1 0x60 DUP2 ADD CALLDATALOAD SWAP11 POP PUSH1 0x80 DUP2 ADD CALLDATALOAD SWAP10 PUSH1 0xA0 SWAP1 SWAP2 ADD CALLDATALOAD SWAP9 POP SWAP7 POP POP POP POP POP POP POP JUMP JUMPDEST PUSH1 0x0 PUSH1 0x20 DUP3 DUP5 SUB SLT ISZERO PUSH2 0x52AA JUMPI PUSH1 0x0 DUP1 REVERT JUMPDEST PUSH2 0x52B3 DUP3 PUSH2 0x4FF2 JUMP JUMPDEST SWAP4 SWAP3 POP POP POP JUMP JUMPDEST PUSH1 0x20 DUP2 MSTORE DUP2 MLOAD PUSH1 0x20 DUP3 ADD MSTORE PUSH1 0x1 DUP1 PUSH1 0xA0 SHL SUB PUSH1 0x20 DUP4 ADD MLOAD AND PUSH1 0x40 DUP3 ADD MSTORE PUSH1 0x0 PUSH1 0x40 DUP4 ADD MLOAD PUSH1 0xE0 PUSH1 0x60 DUP5 ADD MSTORE PUSH2 0x52F3 PUSH2 0x100 DUP5 ADD DUP3 PUSH2 0x508C JUMP JUMPDEST SWAP1 POP PUSH1 0x60 DUP5 ADD MLOAD ISZERO ISZERO PUSH1 0x80 DUP5 ADD MSTORE PUSH1 0x80 DUP5 ADD MLOAD ISZERO ISZERO PUSH1 0xA0 DUP5 ADD MSTORE PUSH1 0xA0 DUP5 ADD MLOAD ISZERO ISZERO PUSH1 0xC0 DUP5 ADD MSTORE PUSH1 0xC0 DUP5 ADD MLOAD PUSH1 0xE0 DUP5 ADD MSTORE DUP1 SWAP2 POP POP SWAP3 SWAP2 POP POP JUMP JUMPDEST PUSH1 0x20 DUP2 MSTORE DUP2 MLOAD PUSH1 0x20 DUP3 ADD MSTORE PUSH1 0x0 PUSH1 0x20 DUP4 ADD MLOAD PUSH1 0x80 PUSH1 0x40 DUP5 ADD MSTORE PUSH2 0x5353 PUSH1 0xA0 DUP5 ADD DUP3 PUSH2 0x508C JUMP JUMPDEST PUSH1 0x40 DUP6 ADD MLOAD PUSH1 0x1 PUSH1 0x1 PUSH1 0xA0 SHL SUB AND PUSH1 0x60 DUP6 DUP2 ADD SWAP2 SWAP1 SWAP2 MSTORE SWAP1 SWAP5 ADD MLOAD PUSH1 0x80 SWAP1 SWAP4 ADD SWAP3 SWAP1 SWAP3 MSTORE POP SWAP1 SWAP2 SWAP1 POP JUMP JUMPDEST PUSH1 0x0 DUP1 PUSH1 0x40 DUP4 DUP6 SUB SLT ISZERO PUSH2 0x5391 JUMPI PUSH1 0x0 DUP1 REVERT JUMPDEST DUP3 CALLDATALOAD SWAP2 POP PUSH1 0x20 DUP4 ADD CALLDATALOAD PUSH8 0xFFFFFFFFFFFFFFFF DUP2 GT ISZERO PUSH2 0x5046 JUMPI PUSH1 0x0 DUP1 REVERT JUMPDEST PUSH1 0x0 DUP3 MLOAD PUSH2 0x53C1 DUP2 DUP5 PUSH1 0x20 DUP8 ADD PUSH2 0x505C JUMP JUMPDEST SWAP2 SWAP1 SWAP2 ADD SWAP3 SWAP2 POP POP JUMP JUMPDEST PUSH1 0x1 DUP2 DUP2 SHR SWAP1 DUP3 AND DUP1 PUSH2 0x53DF JUMPI PUSH1 0x7F DUP3 AND SWAP2 POP JUMPDEST PUSH1 0x20 DUP3 LT DUP2 EQ ISZERO PUSH2 0x5400 JUMPI PUSH4 0x4E487B71 PUSH1 0xE0 SHL PUSH1 0x0 MSTORE PUSH1 0x22 PUSH1 0x4 MSTORE PUSH1 0x24 PUSH1 0x0 REVERT JUMPDEST POP SWAP2 SWAP1 POP JUMP JUMPDEST PUSH1 0x20 DUP1 DUP3 MSTORE PUSH1 0x18 SWAP1 DUP3 ADD MSTORE PUSH32 0x546869732069732061205365637265742042616C6C6F74210000000000000000 PUSH1 0x40 DUP3 ADD MSTORE PUSH1 0x60 ADD SWAP1 JUMP JUMPDEST PUSH4 0x4E487B71 PUSH1 0xE0 SHL PUSH1 0x0 MSTORE PUSH1 0x11 PUSH1 0x4 MSTORE PUSH1 0x24 PUSH1 0x0 REVERT JUMPDEST PUSH1 0x0 DUP3 DUP3 LT ISZERO PUSH2 0x5465 JUMPI PUSH2 0x5465 PUSH2 0x543D JUMP JUMPDEST POP SUB SWAP1 JUMP JUMPDEST PUSH1 0x0 DUP3 PUSH2 0x5487 JUMPI PUSH4 0x4E487B71 PUSH1 0xE0 SHL PUSH1 0x0 MSTORE PUSH1 0x12 PUSH1 0x4 MSTORE PUSH1 0x24 PUSH1 0x0 REVERT JUMPDEST POP DIV SWAP1 JUMP JUMPDEST PUSH4 0x4E487B71 PUSH1 0xE0 SHL PUSH1 0x0 MSTORE PUSH1 0x32 PUSH1 0x4 MSTORE PUSH1 0x24 PUSH1 0x0 REVERT JUMPDEST PUSH1 0x0 PUSH1 0x0 NOT DUP3 EQ ISZERO PUSH2 0x54B6 JUMPI PUSH2 0x54B6 PUSH2 0x543D JUMP JUMPDEST POP PUSH1 0x1 ADD SWAP1 JUMP JUMPDEST PUSH1 0x0 DUP3 NOT DUP3 GT ISZERO PUSH2 0x54D0 JUMPI PUSH2 0x54D0 PUSH2 0x543D JUMP JUMPDEST POP ADD SWAP1 JUMP JUMPDEST PUSH1 0x20 DUP2 MSTORE PUSH1 0x0 PUSH2 0x52B3 PUSH1 0x20 DUP4 ADD DUP5 PUSH2 0x508C JUMP JUMPDEST PUSH1 0x0 DUP2 PUSH1 0x0 NOT DIV DUP4 GT DUP3 ISZERO ISZERO AND ISZERO PUSH2 0x5502 JUMPI PUSH2 0x5502 PUSH2 0x543D JUMP JUMPDEST POP MUL SWAP1 JUMP JUMPDEST PUSH1 0x20 DUP1 DUP3 MSTORE PUSH1 0x1A SWAP1 DUP3 ADD MSTORE PUSH32 0x4572726F7220566F74657220526567697374726174696F6E2121000000000000 PUSH1 0x40 DUP3 ADD MSTORE PUSH1 0x60 ADD SWAP1 JUMP JUMPDEST PUSH1 0x20 DUP1 DUP3 MSTORE PUSH1 0x2B SWAP1 DUP3 ADD MSTORE PUSH32 0x496E697469616C697A61626C653A20636F6E7472616374206973206E6F742069 PUSH1 0x40 DUP3 ADD MSTORE PUSH11 0x6E697469616C697A696E67 PUSH1 0xA8 SHL PUSH1 0x60 DUP3 ADD MSTORE PUSH1 0x80 ADD SWAP1 JUMP INVALID LOG2 PUSH5 0x6970667358 0x22 SLT KECCAK256 0xA8 DIFFICULTY CODECOPY 0xED 0x22 LT 0xA7 DUP10 0xDE 0xDA 0xD3 MSTORE8 0xE1 MLOAD PUSH25 0x84AB347AD9D731958B535C0972DEF5F81B64736F6C63430008 ADDMOD STOP CALLER ","sha1":"ba5b47b9fac242a3aa00e38268bc7111fe95e9da","source":"// SPDX-License-Identifier: UNLICENSED\n\npragma solidity 0.8.8;\n\nimport \"../interfaces/IJamiiFactory.sol\";\nimport \"./JamiiBase.sol\";\nimport \"./Utils.sol\";\n\ncontract JamiiFactory is IJamiiFactory, JamiiBase, Utils {\n    Ballot[] private ballots;\n    Voter[] private voters;\n\n    // numbers\n    // uint256 private ballot_fee = 340000000000000000; // $\n    uint256 private ballot_fee = 10000000000000000; // $\n    uint256 private ballot_count;\n    uint256[] private voter_ids;\n    uint256[] internal ballot_types_arr = [0, 1, 2, 3, 4];\n    uint256 internal ballot_types = ballot_types_arr.length;\n\n    // mappings\n    mapping(string => Ballot) private id_to_ballot_mapping;\n    mapping(string => address[]) private ballot_candidate_mapping;\n    mapping(string => address[]) private ballot_voters_mapping;\n    mapping(address => Candidate) private address_to_candidate_mapping;\n    mapping(address => Voter) private address_to_voter_mapping;\n    mapping(address => string[]) private voter_to_ballots;\n    mapping(address => string[]) private voted_to_ballots;\n    mapping(uint256 => string[]) private voter_id_to_ballots;\n\n    modifier only_voter(address _candidate, string memory _ballot_id) {\n        Ballot memory ballot = id_to_ballot_mapping[_ballot_id];\n        require(\n            address_to_voter_mapping[msg.sender].registered == true && // voter is registered\n                !exists(voted_to_ballots[msg.sender], _ballot_id) && // voted has NOT voted\n                compare_strings(\n                    id_to_ballot_mapping[_ballot_id].ballot_id,\n                    _ballot_id\n                ) ==\n                true && // ballot_id is valid\n                ballot.expired == false && // ballot still open\n                compare_strings(\n                    address_to_candidate_mapping[_candidate].ballot_id,\n                    _ballot_id\n                ) ==\n                true, // candidate exists in ballot\n            \"Voter Error!\"\n        );\n        _;\n    }\n\n    modifier only_voter_closed_ballots(\n        address _candidate,\n        string memory _ballot_id\n    ) {\n        Ballot memory ballot = id_to_ballot_mapping[_ballot_id];\n        Voter memory voter = address_to_voter_mapping[msg.sender];\n        require(\n            voter.rights == true && // voter has voting rights\n                address_to_voter_mapping[msg.sender].registered == true && // voter is registered\n                !exists(voted_to_ballots[msg.sender], _ballot_id) && // voter has NOT voted\n                compare_strings(\n                    id_to_ballot_mapping[_ballot_id].ballot_id,\n                    _ballot_id\n                ) ==\n                true && // ballot_id is valid\n                compare_strings(\n                    address_to_candidate_mapping[_candidate].ballot_id,\n                    _ballot_id\n                ) ==\n                true, // candidate exists in ballot\n            \"Voter Error(Closed Ballot)!\"\n        );\n        _;\n    }\n\n    modifier only_secret_ballot(string memory _ballot_id) {\n        Ballot memory ballot = id_to_ballot_mapping[_ballot_id];\n        require(ballot.ballot_type < 3, \"This is a Secret Ballot!\");\n        _;\n    }\n\n    modifier only_register_voter(uint256 _id_number, string memory _ballot_id) {\n        Ballot memory ballot = id_to_ballot_mapping[_ballot_id];\n        uint256 duration = (block.timestamp - ballot.open_date);\n        uint256 n = ballots.length;\n        require(\n            n >= 1 && // ballot exists\n                duration < (ballot._days * 86400) && // ballot NOT expired\n                !exists(voter_to_ballots[msg.sender], _ballot_id) && // NOT yet registered(address)\n                !exists(voter_id_to_ballots[_id_number], _ballot_id) && // NOT yet registered(id_number)\n                duration < (ballot.registration_window * 86400), // registration still Open\n            \"Error Voter Registration!!\"\n        );\n        _;\n    }\n\n    function initialize(string memory _arbitrary_text) public initializer {\n        JamiiBase.initialize();\n    }\n\n    function create_ballot_type(\n        uint256 _ballot_type,\n        string memory _ballot_name\n    ) public onlyOwner {\n        require(\n            _ballot_type > (ballot_types - 1) &&\n                _ballot_type < (ballot_types + 1),\n            \"Invalid Type Index!\"\n        );\n        ballot_types_arr.push(ballot_types + 1);\n        ballot_types_mapping[_ballot_type] = _ballot_name;\n    }\n\n    function create_ballot(\n        string memory _ballot_id,\n        string memory _ballot_name,\n        address[] memory _ballot_candidates_addr,\n        uint256 _ballot_type,\n        uint256 _days,\n        uint256 _registration_period\n    ) public payable {\n        bytes memory bytes_ballot_name = bytes(_ballot_name);\n        require(\n            msg.value >= ballot_fee && // make sure funds are enough\n                bytes_ballot_name.length > 0 && // Valid ballot name\n                _ballot_candidates_addr.length > 1 && // > 2 ballot candidates\n                _ballot_type <= ballot_types && // valid ballot type\n                _days > _registration_period && // invalid dates\n                _registration_period > 0, // invalid registration period\n            \"Error Ballot Creation!\"\n        );\n\n        ballot_candidate_mapping[_ballot_id] = _ballot_candidates_addr;\n\n        uint256 n = _ballot_candidates_addr.length;\n        for (uint256 i = 0; i < n; i++) {\n            Candidate memory candidate = Candidate(\n                candidates_count,\n                _ballot_id,\n                _ballot_candidates_addr[i],\n                0\n            );\n            address_to_candidate_mapping[\n                _ballot_candidates_addr[i]\n            ] = candidate;\n            candidates_count++;\n        }\n\n        Ballot memory new_ballot = Ballot(\n            _ballot_id,\n            _ballot_type,\n            _ballot_name,\n            msg.sender,\n            0,\n            block.timestamp,\n            _days,\n            false,\n            _registration_period,\n            address(0x0),\n            false\n        );\n        id_to_ballot_mapping[_ballot_id] = new_ballot;\n        ballots.push(new_ballot);\n        ballot_count++;\n\n        emit created_ballot(_ballot_type);\n    }\n\n    // createBallot(_ballot_candidates)\n    // ballot 0 -> [\"0xf9d48aC9eC8F207AEF93518B51D2CdA61e596904\", \"0x6c0A17AEe0a1420583446B77f0c8a55e369Bb07e\"]\n    // ballot 1 -> [\"0xa8d17cc9cAF29Af964d19267DDEb4dfF122697B0\",\"0xA0341558519429f6A93475bA53AD319f99302bff\"]\n    // ballot 2 -> [\"0x4A4eC531A0c952d76fdb0E1DC9561A893Cc3177c\", \"0xfA5C1650946124cB9ACBe478e6D37b5F6c1983D6\"]\n    // ballot 3 -> [\"0x7ffC57839B00206D1ad20c69A1981b489f772031\", \"0x8E9a9f198d9d6457339A11b05A214F9aa78dbc8b\"]\n    // ballot 4 -> [\"0xfA5C1650946124cB9ACBe478e6D37b5F6c1983D6\", \"0xfe3e6ab5d787f4099478bbe811a740d903e219fb\"]\n    // ballot 5 -> ballot 0\n    // ballot 6 -> ballot 1\n\n    /** REGISTERS VOTERS **/\n\n    function create_voter_open_ballot(\n        uint256 _id_number,\n        string memory _ballot_id\n    ) internal returns (bytes32) {\n        Ballot storage ballot = id_to_ballot_mapping[_ballot_id];\n\n        ballot_voters_mapping[_ballot_id].push(msg.sender);\n\n        // id_number validation here\n        bytes32 unique_voter_id = keccak256(abi.encode(_id_number));\n        Voter memory new_voter = Voter(\n            ballot.voters_count,\n            msg.sender,\n            _ballot_id,\n            true,\n            true,\n            false,\n            unique_voter_id\n        );\n        address_to_voter_mapping[msg.sender] = new_voter;\n        voters.push(new_voter);\n\n        id_to_ballot_mapping[_ballot_id].voters_count++;\n\n        voter_to_ballots[msg.sender].push(_ballot_id);\n        voter_id_to_ballots[_id_number].push(_ballot_id);\n\n        emit registered_voter(unique_voter_id);\n\n        return unique_voter_id;\n    }\n\n    function create_voter_closed_ballot(\n        uint256 _id_number,\n        string memory _ballot_id\n    ) internal returns (bytes32) {\n        Ballot storage ballot = id_to_ballot_mapping[_ballot_id];\n\n        ballot_voters_mapping[_ballot_id].push(msg.sender);\n\n        // id_number validation here\n        bytes32 unique_voter_id = keccak256(abi.encode(_id_number));\n\n        Voter memory new_voter = Voter(\n            ballot.voters_count,\n            msg.sender,\n            _ballot_id,\n            true,\n            false,\n            false,\n            unique_voter_id\n        );\n        address_to_voter_mapping[msg.sender] = new_voter;\n        voters.push(new_voter);\n\n        id_to_ballot_mapping[_ballot_id].voters_count++;\n\n        voter_to_ballots[msg.sender].push(_ballot_id);\n        voter_id_to_ballots[_id_number].push(_ballot_id);\n\n        emit registered_voter(unique_voter_id);\n\n        return unique_voter_id;\n    }\n\n    function register_voter_open_ballot(\n        uint256 _id_number,\n        string memory _ballot_id\n    ) internal only_register_voter(_id_number, _ballot_id) returns (bytes32) {\n        bytes32 unique_voter_id = create_voter_open_ballot(\n            _id_number,\n            _ballot_id\n        );\n        return unique_voter_id;\n    }\n\n    function register_voter_closed_ballot(\n        uint256 _id_number,\n        string memory _ballot_id\n    ) internal only_register_voter(_id_number, _ballot_id) returns (bytes32) {\n        // require(\"You need to lock value in the Ballot! -> redistributed after ballot!\");\n        bytes32 unique_voter_id = create_voter_closed_ballot(\n            _id_number,\n            _ballot_id\n        );\n        return unique_voter_id;\n    }\n\n    function register_voter(uint256 _id_number, string memory _ballot_id)\n        public\n        only_register_voter(_id_number, _ballot_id)\n        returns (bytes32)\n    {\n        Ballot memory ballot = id_to_ballot_mapping[_ballot_id];\n\n        // 0, 1, 2, 3 -> open, closed, open secret, closed secret,\n        if (ballot.ballot_type == 0 || ballot.ballot_type == 2) {\n            bytes32 unique_voter_id = register_voter_open_ballot(\n                _id_number,\n                _ballot_id\n            );\n            return unique_voter_id;\n        } else if (ballot.ballot_type == 1 || ballot.ballot_type == 3) {\n            bytes32 unique_voter_id = register_voter_closed_ballot(\n                _id_number,\n                _ballot_id\n            );\n            return unique_voter_id;\n        }\n    }\n\n    /** VOTING RIGHTS **/\n    function assign_voting_rights(address _voter, string memory _ballot_id)\n        public\n    {\n        Ballot memory ballot = id_to_ballot_mapping[_ballot_id];\n        uint256 _ballot_type = ballot.ballot_type;\n\n        require(\n            (msg.sender == ballot.chair && // check permissions\n                ballot.voters_count >= 1 && // ballot is valid\n                ballot.expired == false && // balot is Open\n                compare_strings(\n                    address_to_voter_mapping[_voter].ballot_id,\n                    _ballot_id\n                ) ==\n                true && // voter is registered in ballot\n                address_to_voter_mapping[_voter].registered == true && // voter is registered voter\n                address_to_voter_mapping[_voter].rights == false && // voter does NOT have voting rights\n                _ballot_type == 1) || _ballot_type == 3, // ballot is closed-paid ballot\n            \"Error Assigning Voting Rights!\"\n        );\n        // closed paid ballot [3]\n        // require voter has sufficient voting tokens for a ballot -> buy voting rights -> awaiting approval\n        address_to_voter_mapping[_voter].rights = true;\n\n        emit assigned_voting_rights(_voter);\n    }\n\n    // function buy_voting_rights(){ }\n\n    function create_vote(address _candidate) internal {\n        address_to_candidate_mapping[_candidate].vote_count++;\n        address_to_voter_mapping[msg.sender].voted = true;\n        emit voted(_candidate);\n    }\n\n    function vote_open_ballot(address _candidate, string memory _ballot_id)\n        internal\n        only_voter(_candidate, _ballot_id)\n    {\n        // require(\"Need to have locked value in ballot during registration!\")\n\n        Ballot memory ballot = id_to_ballot_mapping[_ballot_id];\n        ballot.current_winner = _candidate;\n        find_winner(_candidate, ballot);\n        create_vote(_candidate);\n    }\n\n    function vote_closed_ballot(address _candidate, string memory _ballot_id)\n        internal\n        only_voter_closed_ballots(_candidate, _ballot_id)\n    {\n        Ballot memory ballot = id_to_ballot_mapping[_ballot_id];\n        require(ballot.ballot_type == 1, \"Wrong Ballot Type!\");\n        // require(\"Need to have locked value in ballot during registration!\")\n\n        ballot.current_winner = _candidate;\n        find_winner(_candidate, ballot);\n        create_vote(_candidate);\n    }\n\n    function vote(address _candidate, string memory _ballot_id)\n        public\n        only_voter(_candidate, _ballot_id)\n    {\n        Ballot memory ballot = id_to_ballot_mapping[_ballot_id];\n\n        // 0, 1, 2, 3, 4, 5, 6 => open free, closed free, open paid, closed paid,\n        if (ballot.ballot_type == 0) {\n            vote_open_ballot(_candidate, _ballot_id);\n        } else if (ballot.ballot_type == 1) {\n            vote_closed_ballot(_candidate, _ballot_id);\n        }\n        voted_to_ballots[msg.sender].push(_ballot_id);\n    }\n\n    /** GETTERS **/\n    function get_ballot(string memory _ballot_id)\n        public\n        view\n        only_secret_ballot(_ballot_id)\n        returns (Ballot memory)\n    {\n        return id_to_ballot_mapping[_ballot_id];\n    }\n\n    function get_candidate(address _candidate_addr)\n        public\n        view\n        only_secret_ballot(\"\")\n        returns (Candidate memory)\n    {\n        return address_to_candidate_mapping[_candidate_addr];\n    }\n\n    function get_voter(address _voter_address)\n        public\n        view\n        only_secret_ballot(\"\")\n        returns (Voter memory)\n    {\n        return address_to_voter_mapping[_voter_address];\n    }\n\n    function get_candidates(string memory _ballot_id)\n        public\n        view\n        returns (address[] memory)\n    {\n        return ballot_candidate_mapping[_ballot_id];\n    }\n\n    function get_voters(string memory _ballot_id)\n        public\n        view\n        only_secret_ballot(_ballot_id)\n        returns (address[] memory)\n    {\n        return ballot_voters_mapping[_ballot_id];\n    }\n\n    function find_winner(address _candidate, Ballot memory ballot)\n        internal\n        view\n        returns (bool)\n    {\n        if (\n            address_to_candidate_mapping[_candidate].vote_count + 1 >\n            address_to_candidate_mapping[ballot.current_winner].vote_count\n        ) {\n            ballot.current_winner = _candidate;\n            ballot.tie = false;\n        } else if (\n            address_to_candidate_mapping[_candidate].vote_count + 1 ==\n            address_to_candidate_mapping[ballot.current_winner].vote_count\n        ) {\n            ballot.tie = true;\n        }\n        return ballot.tie;\n    }\n\n    function get_winner(string memory _ballot_id)\n        public\n        only_secret_ballot(_ballot_id)\n        returns (address)\n    {\n        Ballot memory ballot = id_to_ballot_mapping[_ballot_id];\n        uint256 duration = (block.timestamp - ballot.open_date) / 60 / 60 / 24;\n\n        require(\n            id_to_ballot_mapping[_ballot_id].current_winner != address(0x0) &&\n                duration > ballot._days,\n            \"Error Getting Winner!!\"\n        );\n        // require(\n        //     id_to_ballot_mapping[_ballot_id].current_winner != address(0x0),\n        //     \"No Such Ballot Exists!\"\n        // );\n\n        // require(duration > ballot._days, \"This Ballot is NOT yet Expired!\");\n\n        if (ballot.tie == true) {\n            emit tied_ballot(ballot.tie);\n            return address(0x0);\n        } else {\n            address winner = ballot.current_winner;\n            return winner;\n        }\n    }\n\n    function end_ballot(string memory _ballot_id) public {\n        Ballot storage ballot = id_to_ballot_mapping[_ballot_id];\n\n        uint256 duration = (block.timestamp - ballot.open_date) / 60 / 60 / 24;\n        require(\n            duration < ballot._days && msg.sender == ballot.chair,\n            \"Error Ending Ballot!!\"\n        );\n        // require(duration < ballot._days, \"This Ballot is NOT yet Expired!\");\n\n        // require(msg.sender == ballot.chair, \"Insufficient Permissions!\");\n\n        ballot.expired = true;\n        id_to_ballot_mapping[_ballot_id].expired = true;\n\n        emit ended_ballot(_ballot_id);\n    }\n\n    function withdraw() public onlyOwner {\n        payable(fee_addr).transfer(address(this).balance);\n    }\n}\n","sourcePath":"contracts/JamiiFactory.sol","deployment":{"address":"0x7083506fC7De140c86C1117387369F377dd7e0a0","chainid":"5","blockHeight":7474599}}