{"bytecode":"6704b7ec32d7a20000606b5561016060405260006080908152600160a052600260c052600360e0526004610100526005610120526006610140526200004990606e90600762000064565b50606e54606f553480156200005d57600080fd5b50620000d0565b828054828255906000526020600020908101928215620000a7579160200282015b82811115620000a7578251829060ff1690559160200191906001019062000085565b50620000b5929150620000b9565b5090565b5b80821115620000b55760008155600101620000ba565b615d8080620000e06000396000f3fe6080604052600436106101095760003560e01c8063715018a611610095578063adbdbc9711610064578063adbdbc971461036b578063dcfc13801461038b578063e8873b8f1461039e578063f2fde38b146103be578063f62d1888146103de57600080fd5b8063715018a6146102af5780638987076b146102c45780638da5cb5b146102f1578063953ef76d1461030f57600080fd5b8063243dc409116100dc578063243dc4091461021a5780633ccfd60b1461023a578063514d7d661461024f5780635b881f6b1461026f5780635f74bbde1461028f57600080fd5b8063040de0c51461010e578063091cb18a1461014b578063112819bd146101cb578063133e59aa146101ed575b600080fd5b34801561011a57600080fd5b5061012e610129366004615526565b6103fe565b6040516001600160a01b0390911681526020015b60405180910390f35b34801561015757600080fd5b5061016b61016636600461555b565b610591565b6040516101429190815181526020808301516001600160a01b0316908201526040808301519082015260608083015115159082015260808083015115159082015260a08083015115159082015260c0918201519181019190915260e00190565b3480156101d757600080fd5b506101eb6101e636600461555b565b6107a4565b005b3480156101f957600080fd5b5061020d610208366004615526565b610bd9565b6040516101429190615585565b34801561022657600080fd5b5061012e610235366004615526565b610c45565b34801561024657600080fd5b506101eb611032565b34801561025b57600080fd5b506101eb61026a3660046155d2565b611076565b34801561027b57600080fd5b506101eb61028a366004615526565b611517565b34801561029b57600080fd5b506101eb6102aa36600461555b565b611686565b3480156102bb57600080fd5b506101eb611b0a565b3480156102d057600080fd5b506102e46102df366004615526565b611b1e565b6040516101429190615641565b3480156102fd57600080fd5b506033546001600160a01b031661012e565b34801561031b57600080fd5b5061032f61032a3660046156ff565b611e2f565b604051610142919081518152602080830151908201526040808301516001600160a01b0316908201526060918201519181019190915260800190565b34801561037757600080fd5b506101eb6103863660046157d8565b61206e565b6101eb61039936600461581f565b61212a565b3480156103aa57600080fd5b5061020d6103b9366004615526565b6127f3565b3480156103ca57600080fd5b506101eb6103d93660046156ff565b6129c4565b3480156103ea57600080fd5b506101eb6103f9366004615909565b612a3a565b60008160006071600083815260200190815260200160002060405180610160016040529081600082015481526020016001820154815260200160028201805461044690615946565b80601f016020809104026020016040519081016040528092919081815260200182805461047290615946565b80156104bf5780601f10610494576101008083540402835291602001916104bf565b820191906000526020600020905b8154815290600101906020018083116104a257829003601f168201915b505050918352505060038201546001600160a01b0390811660208084019190915260048085015460408501526005850154606085015260068501546080850152600785015460ff908116151560a0860152600886015460c086015260099095015492831660e0850152600160a01b909204909316151561010090920191909152908201519192501161056c5760405162461bcd60e51b815260040161056390615981565b60405180910390fd5b6000848152607160205260409020600301546001600160a01b031692505b5050919050565b6040805160e08101825260008082526020808301829052828401829052606083018290526080830182905260a0830182905260c08301829052848252607181528382208451610160810186528154815260018201549281019290925260028101805494958795908401919061060590615946565b80601f016020809104026020016040519081016040528092919081815260200182805461063190615946565b801561067e5780601f106106535761010080835404028352916020019161067e565b820191906000526020600020905b81548152906001019060200180831161066157829003601f168201915b505050918352505060038201546001600160a01b0390811660208084019190915260048085015460408501526005850154606085015260068501546080850152600785015460ff908116151560a0860152600886015460c086015260099095015492831660e0850152600160a01b90920490931615156101009092019190915290820151919250116107225760405162461bcd60e51b815260040161056390615981565b505050506001600160a01b03908116600090815260766020908152604091829020825160e08101845281548152600182015490941691840191909152600281015491830191909152600381015460ff8082161515606085015261010082048116151560808501526201000090910416151560a08301526004015460c082015290565b6107ad816103fe565b6001600160a01b0316336001600160a01b0316146108095760405162461bcd60e51b8152602060048201526019602482015278496e73756666696369656e74205065726d697373696f6e732160381b6044820152606401610563565b60006071600083815260200190815260200160002060405180610160016040529081600082015481526020016001820154815260200160028201805461084e90615946565b80601f016020809104026020016040519081016040528092919081815260200182805461087a90615946565b80156108c75780601f1061089c576101008083540402835291602001916108c7565b820191906000526020600020905b8154815290600101906020018083116108aa57829003601f168201915b505050918352505060038201546001600160a01b039081166020830152600483015460408301526005830154606083015260068301546080830152600783015460ff908116151560a0840152600884015460c084015260099093015490811660e0830152600160a01b9004909116151561010090910152606980549192506109506001836159ce565b81548110610960576109606159e5565b60009182526020909120600a9091020154825111156109915760405162461bcd60e51b8152600401610563906159fb565b602082015160e0830151156109b85760405162461bcd60e51b815260040161056390615a2b565b80600114806109c75750806003145b806109d25750806004145b806109dd5750806006145b610a205760405162461bcd60e51b81526020600482015260146024820152734e6f74206120436c6f7365642042616c6c6f742160601b6044820152606401610563565b6001600160a01b0385166000908152607660205260409020600201548414610a945760405162461bcd60e51b815260206004820152602160248201527f566f7465722043616e4e4f5420766f746520696e20746869732042616c6c6f746044820152602160f81b6064820152608401610563565b6001600160a01b03851660009081526076602052604090206003015460ff161515600114610b045760405162461bcd60e51b815260206004820152601760248201527f4e4f542061205265676973746572656420566f746572210000000000000000006044820152606401610563565b6001600160a01b038516600090815260766020526040902060030154610100900460ff1615610b755760405162461bcd60e51b815260206004820152601a60248201527f416c72656164792068617320566f74696e6720526967687473210000000000006044820152606401610563565b6001600160a01b038516600081815260766020908152604091829020600301805461ff00191661010017905590519182527f94055e6bcdfa83fa1f2cb2901fd22db9e96f758348742a662b752bc32b76580091015b60405180910390a15050505050565b600081815260726020908152604091829020805483518184028101840190945280845260609392830182828015610c3957602002820191906000526020600020905b81546001600160a01b03168152600190910190602001808311610c1b575b50505050509050919050565b600081600060716000838152602001908152602001600020604051806101600160405290816000820154815260200160018201548152602001600282018054610c8d90615946565b80601f0160208091040260200160405190810160405280929190818152602001828054610cb990615946565b8015610d065780601f10610cdb57610100808354040283529160200191610d06565b820191906000526020600020905b815481529060010190602001808311610ce957829003601f168201915b505050918352505060038201546001600160a01b0390811660208084019190915260048085015460408501526005850154606085015260068501546080850152600785015460ff908116151560a0860152600886015460c086015260099095015492831660e0850152600160a01b9092049093161515610100909201919091529082015191925011610daa5760405162461bcd60e51b815260040161056390615981565b600060716000868152602001908152602001600020604051806101600160405290816000820154815260200160018201548152602001600282018054610def90615946565b80601f0160208091040260200160405190810160405280929190818152602001828054610e1b90615946565b8015610e685780601f10610e3d57610100808354040283529160200191610e68565b820191906000526020600020905b815481529060010190602001808311610e4b57829003601f168201915b505050918352505060038201546001600160a01b039081166020830152600483015460408301526005830154606083015260068301546080830152600783015460ff908116151560a0840152600884015460c084015260099093015490811660e0830152600160a01b9004909116151561010090910152606c54909150851115610f405760405162461bcd60e51b815260206004820152602360248201527f42616c6c6f742077697468207468617420496420646f6573204e4f542065786960448201526273742160e81b6064820152608401610563565b60006018603c808460a0015142610f5791906159ce565b610f619190615a59565b610f6b9190615a59565b610f759190615a59565b90508160c001518111610fca5760405162461bcd60e51b815260206004820152601f60248201527f546869732042616c6c6f74206973204e4f5420796574204578706972656421006044820152606401610563565b610140820151151560011415611025577faf9c5487a5254285c7e0cb270c5884fb3c73e8bf058e80fc0cf380dc6908fac6826101400151604051611012911515815260200190565b60405180910390a160009450505061058a565b506101200151925061058a565b61103a612b4c565b6065546040516001600160a01b03909116904780156108fc02916000818181858888f19350505050158015611073573d6000803e3d6000fd5b50565b81816000607160008381526020019081526020016000206040518061016001604052908160008201548152602001600182015481526020016002820180546110bd90615946565b80601f01602080910402602001604051908101604052809291908181526020018280546110e990615946565b80156111365780601f1061110b57610100808354040283529160200191611136565b820191906000526020600020905b81548152906001019060200180831161111957829003601f168201915b505050918352505060038201546001600160a01b039081166020830152600483015460408301526005830154606083015260068301546080830152600783015460ff908116151560a080850191909152600885015460c085015260099094015491821660e0840152600160a01b909104161515610100909101528101519091506000906111c390426159ce565b60695490915060018110156111ea5760405162461bcd60e51b8152600401610563906159fb565b60c08301516111fc9062015180615a7b565b821061121a5760405162461bcd60e51b815260040161056390615a2b565b33600090815260796020908152604091829020805483518184028101840190945280845261127d939283018282801561127257602002820191906000526020600020905b81548152602001906001019080831161125e575b505050505085612ba6565b1561129a5760405162461bcd60e51b815260040161056390615a9a565b6000858152607b602090815260409182902080548351818402810184019094528084526112fa9392830182828015611272576020028201919060005260206000209081548152602001906001019080831161125e57505050505085612ba6565b156113175760405162461bcd60e51b815260040161056390615adc565b61010083015161132a9062015180615a7b565b82106113485760405162461bcd60e51b815260040161056390615b21565b60006071600088815260200190815260200160002060405180610160016040529081600082015481526020016001820154815260200160028201805461138d90615946565b80601f01602080910402602001604051908101604052809291908181526020018280546113b990615946565b80156114065780601f106113db57610100808354040283529160200191611406565b820191906000526020600020905b8154815290600101906020018083116113e957829003601f168201915b505050918352505060038201546001600160a01b03908116602080840191909152600484015460408401526005840154606084015260068401546080840152600784015460ff908116151560a0850152600885015460c085015260099094015491821660e0840152600160a01b90910490921615156101009091015281015190915061149b576114968888612c00565b61150d565b8060200151600114806114b2575080602001516004145b156114c1576114968888612f0a565b8060200151600214806114d8575080602001516005145b156114e7576114968888613224565b8060200151600314806114fe575080602001516006145b1561150d5761150d8888613535565b5050505050505050565b60008181526071602052604081206005810154909190601890603c90819061153f90426159ce565b6115499190615a59565b6115539190615a59565b61155d9190615a59565b9050816006015481106115b25760405162461bcd60e51b815260206004820152601f60248201527f546869732042616c6c6f74206973204e4f5420796574204578706972656421006044820152606401610563565b60038201546001600160a01b0316331461160a5760405162461bcd60e51b8152602060048201526019602482015278496e73756666696369656e74205065726d697373696f6e732160381b6044820152606401610563565b60078281018054600160ff19918216811790925533600090815260706020908152604080832086018054851686179055888352607182529182902090940180549092169092179055518481527fee47b3ab572870e3b3bc916bcded65025f6ad6e7795583611f5a9085502148e7910160405180910390a1505050565b81816000607160008381526020019081526020016000206040518061016001604052908160008201548152602001600182015481526020016002820180546116cd90615946565b80601f01602080910402602001604051908101604052809291908181526020018280546116f990615946565b80156117465780601f1061171b57610100808354040283529160200191611746565b820191906000526020600020905b81548152906001019060200180831161172957829003601f168201915b50505091835250506003828101546001600160a01b0390811660208085019190915260048501546040808601919091526005860154606086015260068601546080860152600786015460ff908116151560a0870152600887015460c087015260099096015492831660e0860152600160a01b9092048516151561010090940193909352336000908152607690935290912001549192501615156001146117fe5760405162461bcd60e51b815260040161056390615b58565b336000908152607a60209081526040918290208054835181840281018401909452808452611861939283018282801561185657602002820191906000526020600020905b815481526020019060010190808311611842575b505050505083612ba6565b1561187e5760405162461bcd60e51b815260040161056390615b8f565b60008281526071602052604090205482146118ab5760405162461bcd60e51b815260040161056390615bd9565b60e0810151156118cd5760405162461bcd60e51b815260040161056390615c05565b6001600160a01b03831660009081526074602052604090206001015482146119075760405162461bcd60e51b815260040161056390615c31565b60006119146064866159ce565b905060006069828154811061192b5761192b6159e5565b90600052602060002090600a020160405180610160016040529081600082015481526020016001820154815260200160028201805461196990615946565b80601f016020809104026020016040519081016040528092919081815260200182805461199590615946565b80156119e25780601f106119b7576101008083540402835291602001916119e2565b820191906000526020600020905b8154815290600101906020018083116119c557829003601f168201915b505050918352505060038201546001600160a01b03908116602080840191909152600484015460408401526005840154606084015260068401546080840152600784015460ff908116151560a0850152600885015460c085015260099094015491821660e0840152600160a01b909104909216151561010090910152810151909150611a9957611a728787613845565b336000908152607a6020908152604082208054600181018255908352912001869055611b01565b806020015160011415611ab057611a728787613c1f565b806020015160021415611ac757611a7287876140e8565b806020015160031415611b0157611ade87876144e0565b336000908152607a60209081526040822080546001810182559083529120018690555b50505050505050565b611b12612b4c565b611b1c6000614986565b565b611b9160405180610160016040528060008152602001600081526020016060815260200160006001600160a01b031681526020016000815260200160008152602001600081526020016000151581526020016000815260200160006001600160a01b031681526020016000151581525090565b81600060716000838152602001908152602001600020604051806101600160405290816000820154815260200160018201548152602001600282018054611bd790615946565b80601f0160208091040260200160405190810160405280929190818152602001828054611c0390615946565b8015611c505780601f10611c2557610100808354040283529160200191611c50565b820191906000526020600020905b815481529060010190602001808311611c3357829003601f168201915b505050918352505060038201546001600160a01b0390811660208084019190915260048085015460408501526005850154606085015260068501546080850152600785015460ff908116151560a0860152600886015460c086015260099095015492831660e0850152600160a01b9092049093161515610100909201919091529082015191925011611cf45760405162461bcd60e51b815260040161056390615981565b60716000858152602001908152602001600020604051806101600160405290816000820154815260200160018201548152602001600282018054611d3790615946565b80601f0160208091040260200160405190810160405280929190818152602001828054611d6390615946565b8015611db05780601f10611d8557610100808354040283529160200191611db0565b820191906000526020600020905b815481529060010190602001808311611d9357829003601f168201915b505050918352505060038201546001600160a01b039081166020830152600483015460408301526005830154606083015260068301546080830152600783015460ff908116151560a0840152600884015460c084015260099093015490811660e0830152600160a01b9004909116151561010090910152949350505050565b611e636040518060800160405280600081526020016000815260200160006001600160a01b03168152602001600081525090565b606460008181526071602090815260408051610160810182527f36e71b47fcba6027aba68e25275267572a53e79f92bd67f84e9486cae12134fb805482527f36e71b47fcba6027aba68e25275267572a53e79f92bd67f84e9486cae12134fc54938201939093527f36e71b47fcba6027aba68e25275267572a53e79f92bd67f84e9486cae12134fd8054919392840191611efc90615946565b80601f0160208091040260200160405190810160405280929190818152602001828054611f2890615946565b8015611f755780601f10611f4a57610100808354040283529160200191611f75565b820191906000526020600020905b815481529060010190602001808311611f5857829003601f168201915b505050918352505060038201546001600160a01b0390811660208084019190915260048085015460408501526005850154606085015260068501546080850152600785015460ff908116151560a0860152600886015460c086015260099095015492831660e0850152600160a01b90920490931615156101009092019190915290820151919250116120195760405162461bcd60e51b815260040161056390615981565b5050506001600160a01b03908116600090815260746020908152604091829020825160808101845281548152600182015492810192909252600281015490931691810191909152600390910154606082015290565b612076612b4c565b6001606f5461208591906159ce565b8211801561209f5750606f5461209c906001615c74565b82105b6120e15760405162461bcd60e51b8152602060048201526013602482015272496e76616c6964205479706520496e6465782160681b6044820152606401610563565b606e606f5460016120f29190615c74565b81546001810183556000928352602080842090910191909155838252606881526040909120825161212592840190615438565b505050565b606b543410156121725760405162461bcd60e51b8152602060048201526013602482015272496e73756666696369656e742066756e64732160681b6044820152606401610563565b845185906121c25760405162461bcd60e51b815260206004820152601a60248201527f456e74657220612076616c69642042616c6c6f74204e616d65210000000000006044820152606401610563565b60018551116122135760405162461bcd60e51b815260206004820152601d60248201527f4e6f7420456e6f7567682042616c6c6f742043616e64696461746573210000006044820152606401610563565b606f548411156122655760405162461bcd60e51b815260206004820152601860248201527f4e6f7420612076616c69642042616c6c6f7420547970652100000000000000006044820152606401610563565b8183116122bf5760405162461bcd60e51b815260206004820152602260248201527f526567697374726174696f6e20506572696f64203e20566f74696e6720446179604482015261732160f01b6064820152608401610563565b6000821161231a5760405162461bcd60e51b815260206004820152602260248201527f526567697374726174696f6e20506572696f642073686f756c64206265203e20604482015261312160f01b6064820152608401610563565b6066546000908152607260209081526040909120865161233c928801906154bc565b50845160005b81811015612433576000604051806080016040528060675481526020016066548152602001898481518110612379576123796159e5565b60200260200101516001600160a01b031681526020016000815250905080607460008a85815181106123ad576123ad6159e5565b6020908102919091018101516001600160a01b039081168352828201939093526040918201600090812085518155918501516001830155918401516002820180546001600160a01b0319169190941617909255606090920151600390910155606780549161241a83615c8c565b919050555050808061242b90615c8c565b915050612342565b50604080516101608101825260665480825260208083018981528385018c81523360608601526000608086018190524260a087015260c086018b905260e0860181905261010086018a9052610120860181905261014086018190529384526071835294909220835181559151600183015592518051929384936124bc9260028501920190615438565b5060608201516003820180546001600160a01b0319166001600160a01b039283161790556080830151600483015560a0830151600583015560c0830151600683015560e083015160078301805460ff191691151591909117905561010083015160088301556101208301516009909201805461014090940151929091166001600160a81b031990931692909217600160a01b911515919091021790556069805460018101825560009190915281517f7fb4302e8e91f9110a6554c2c0a24601252c2a42c2220ca988efcfe399914308600a9092029182019081556020808401517f7fb4302e8e91f9110a6554c2c0a24601252c2a42c2220ca988efcfe3999143098401556040840151805185946125f9937f7fb4302e8e91f9110a6554c2c0a24601252c2a42c2220ca988efcfe39991430a909101920190615438565b5060608201516003820180546001600160a01b0319166001600160a01b039283161790556080830151600483015560a0830151600583015560c0830151600683015560e083015160078301805460ff191691151591909117905561010083015160088301556101208301516009909201805461014090940151929091166001600160a81b031990931692909217600160a01b9115159190910217905533600090815260706020908152604091829020835181558382015160018201559183015180518493926126cf926002850192910190615438565b5060608201516003820180546001600160a01b0319166001600160a01b039283161790556080830151600483015560a0830151600583015560c0830151600683015560e083015160078301805460ff191691151591909117905561010083015160088301556101208301516009909201805461014090940151929091166001600160a81b031990931692909217600160a01b91151591909102179055336000908152607560209081526040909120885161278b928a01906154bc565b50606c805490600061279c83615c8c565b9091555050606680549060006127b183615c8c565b90915550506040518681527f3302601c0b6ad9794207d2eb4a29c724db57c9348bf10dffcc98c9d89e6d9c529060200160405180910390a15050505050505050565b60608160006071600083815260200190815260200160002060405180610160016040529081600082015481526020016001820154815260200160028201805461283b90615946565b80601f016020809104026020016040519081016040528092919081815260200182805461286790615946565b80156128b45780601f10612889576101008083540402835291602001916128b4565b820191906000526020600020905b81548152906001019060200180831161289757829003601f168201915b505050918352505060038201546001600160a01b0390811660208084019190915260048085015460408501526005850154606085015260068501546080850152600785015460ff908116151560a0860152600886015460c086015260099095015492831660e0850152600160a01b90920490931615156101009092019190915290820151919250116129585760405162461bcd60e51b815260040161056390615981565b600084815260736020908152604091829020805483518184028101840190945280845290918301828280156129b657602002820191906000526020600020905b81546001600160a01b03168152600190910190602001808311612998575b505050505092505050919050565b6129cc612b4c565b6001600160a01b038116612a315760405162461bcd60e51b815260206004820152602660248201527f4f776e61626c653a206e6577206f776e657220697320746865207a65726f206160448201526564647265737360d01b6064820152608401610563565b61107381614986565b600054610100900460ff1615808015612a5a5750600054600160ff909116105b80612a745750303b158015612a74575060005460ff166001145b612ad75760405162461bcd60e51b815260206004820152602e60248201527f496e697469616c697a61626c653a20636f6e747261637420697320616c72656160448201526d191e481a5b9a5d1a585b1a5e995960921b6064820152608401610563565b6000805460ff191660011790558015612afa576000805461ff0019166101001790555b612b026149d8565b8015612b48576000805461ff0019169055604051600181527f7f26b83ff96e1f2b6a682f133852f6798a09c465da95921460cefb38474024989060200160405180910390a15b5050565b6033546001600160a01b03163314611b1c5760405162461bcd60e51b815260206004820181905260248201527f4f776e61626c653a2063616c6c6572206973206e6f7420746865206f776e65726044820152606401610563565b8151600090815b81811015612bf35783858281518110612bc857612bc86159e5565b60200260200101511415612be157600192505050612bfa565b80612beb81615c8c565b915050612bad565b5060009150505b92915050565b8181600060716000838152602001908152602001600020604051806101600160405290816000820154815260200160018201548152602001600282018054612c4790615946565b80601f0160208091040260200160405190810160405280929190818152602001828054612c7390615946565b8015612cc05780601f10612c9557610100808354040283529160200191612cc0565b820191906000526020600020905b815481529060010190602001808311612ca357829003601f168201915b505050918352505060038201546001600160a01b039081166020830152600483015460408301526005830154606083015260068301546080830152600783015460ff908116151560a080850191909152600885015460c085015260099094015491821660e0840152600160a01b90910416151561010090910152810151909150600090612d4d90426159ce565b6069549091506001811015612d745760405162461bcd60e51b8152600401610563906159fb565b60c0830151612d869062015180615a7b565b8210612da45760405162461bcd60e51b815260040161056390615a2b565b336000908152607960209081526040918290208054835181840281018401909452808452612e059392830182828015611272576020028201919060005260206000209081548152602001906001019080831161125e57505050505085612ba6565b15612e225760405162461bcd60e51b815260040161056390615a9a565b6000858152607b60209081526040918290208054835181840281018401909452808452612e829392830182828015611272576020028201919060005260206000209081548152602001906001019080831161125e57505050505085612ba6565b15612e9f5760405162461bcd60e51b815260040161056390615adc565b610100830151612eb29062015180615a7b565b8210612ed05760405162461bcd60e51b815260040161056390615b21565b6000868152607160205260409020600181015415612f005760405162461bcd60e51b815260040161056390615ca7565b61150d8888614a3e565b8181600060716000838152602001908152602001600020604051806101600160405290816000820154815260200160018201548152602001600282018054612f5190615946565b80601f0160208091040260200160405190810160405280929190818152602001828054612f7d90615946565b8015612fca5780601f10612f9f57610100808354040283529160200191612fca565b820191906000526020600020905b815481529060010190602001808311612fad57829003601f168201915b505050918352505060038201546001600160a01b039081166020830152600483015460408301526005830154606083015260068301546080830152600783015460ff908116151560a080850191909152600885015460c085015260099094015491821660e0840152600160a01b9091041615156101009091015281015190915060009061305790426159ce565b606954909150600181101561307e5760405162461bcd60e51b8152600401610563906159fb565b60c08301516130909062015180615a7b565b82106130ae5760405162461bcd60e51b815260040161056390615a2b565b33600090815260796020908152604091829020805483518184028101840190945280845261310f9392830182828015611272576020028201919060005260206000209081548152602001906001019080831161125e57505050505085612ba6565b1561312c5760405162461bcd60e51b815260040161056390615a9a565b6000858152607b6020908152604091829020805483518184028101840190945280845261318c9392830182828015611272576020028201919060005260206000209081548152602001906001019080831161125e57505050505085612ba6565b156131a95760405162461bcd60e51b815260040161056390615adc565b6101008301516131bc9062015180615a7b565b82106131da5760405162461bcd60e51b815260040161056390615b21565b600086815260716020526040902060018082015414806131fe575080600101546004145b61321a5760405162461bcd60e51b815260040161056390615ca7565b61150d8888614d73565b818160006071600083815260200190815260200160002060405180610160016040529081600082015481526020016001820154815260200160028201805461326b90615946565b80601f016020809104026020016040519081016040528092919081815260200182805461329790615946565b80156132e45780601f106132b9576101008083540402835291602001916132e4565b820191906000526020600020905b8154815290600101906020018083116132c757829003601f168201915b505050918352505060038201546001600160a01b039081166020830152600483015460408301526005830154606083015260068301546080830152600783015460ff908116151560a080850191909152600885015460c085015260099094015491821660e0840152600160a01b9091041615156101009091015281015190915060009061337190426159ce565b60695490915060018110156133985760405162461bcd60e51b8152600401610563906159fb565b60c08301516133aa9062015180615a7b565b82106133c85760405162461bcd60e51b815260040161056390615a2b565b3360009081526079602090815260409182902080548351818402810184019094528084526134299392830182828015611272576020028201919060005260206000209081548152602001906001019080831161125e57505050505085612ba6565b156134465760405162461bcd60e51b815260040161056390615a9a565b6000858152607b602090815260409182902080548351818402810184019094528084526134a69392830182828015611272576020028201919060005260206000209081548152602001906001019080831161125e57505050505085612ba6565b156134c35760405162461bcd60e51b815260040161056390615adc565b6101008301516134d69062015180615a7b565b82106134f45760405162461bcd60e51b815260040161056390615b21565b6000868152607160205260409020600181015460021480613519575080600101546005145b612f005760405162461bcd60e51b815260040161056390615ca7565b818160006071600083815260200190815260200160002060405180610160016040529081600082015481526020016001820154815260200160028201805461357c90615946565b80601f01602080910402602001604051908101604052809291908181526020018280546135a890615946565b80156135f55780601f106135ca576101008083540402835291602001916135f5565b820191906000526020600020905b8154815290600101906020018083116135d857829003601f168201915b505050918352505060038201546001600160a01b039081166020830152600483015460408301526005830154606083015260068301546080830152600783015460ff908116151560a080850191909152600885015460c085015260099094015491821660e0840152600160a01b9091041615156101009091015281015190915060009061368290426159ce565b60695490915060018110156136a95760405162461bcd60e51b8152600401610563906159fb565b60c08301516136bb9062015180615a7b565b82106136d95760405162461bcd60e51b815260040161056390615a2b565b33600090815260796020908152604091829020805483518184028101840190945280845261373a9392830182828015611272576020028201919060005260206000209081548152602001906001019080831161125e57505050505085612ba6565b156137575760405162461bcd60e51b815260040161056390615a9a565b6000858152607b602090815260409182902080548351818402810184019094528084526137b79392830182828015611272576020028201919060005260206000209081548152602001906001019080831161125e57505050505085612ba6565b156137d45760405162461bcd60e51b815260040161056390615adc565b6101008301516137e79062015180615a7b565b82106138055760405162461bcd60e51b815260040161056390615b21565b60008681526071602052604090206001810154600314806131fe5750806001015460061461321a5760405162461bcd60e51b815260040161056390615ca7565b818160006071600083815260200190815260200160002060405180610160016040529081600082015481526020016001820154815260200160028201805461388c90615946565b80601f01602080910402602001604051908101604052809291908181526020018280546138b890615946565b80156139055780601f106138da57610100808354040283529160200191613905565b820191906000526020600020905b8154815290600101906020018083116138e857829003601f168201915b50505091835250506003828101546001600160a01b0390811660208085019190915260048501546040808601919091526005860154606086015260068601546080860152600786015460ff908116151560a0870152600887015460c087015260099096015492831660e0860152600160a01b9092048516151561010090940193909352336000908152607690935290912001549192501615156001146139bd5760405162461bcd60e51b815260040161056390615b58565b336000908152607a60209081526040918290208054835181840281018401909452808452613a1e9392830182828015611856576020028201919060005260206000209081548152602001906001019080831161184257505050505083612ba6565b15613a3b5760405162461bcd60e51b815260040161056390615b8f565b6000828152607160205260409020548214613a685760405162461bcd60e51b815260040161056390615bd9565b60e081015115613a8a5760405162461bcd60e51b815260040161056390615c05565b6001600160a01b0383166000908152607460205260409020600101548214613ac45760405162461bcd60e51b815260040161056390615c31565b600060716000868152602001908152602001600020604051806101600160405290816000820154815260200160018201548152602001600282018054613b0990615946565b80601f0160208091040260200160405190810160405280929190818152602001828054613b3590615946565b8015613b825780601f10613b5757610100808354040283529160200191613b82565b820191906000526020600020905b815481529060010190602001808311613b6557829003601f168201915b505050918352505060038201546001600160a01b039081166020830152600483015460408301526005830154606083015260068301546080830152600783015460ff908116151560a0840152600884015460c084015260099093015480821660e0840152600160a01b900490921615156101009091015287166101208201529050613c0d8682615018565b50613c17866150cd565b505050505050565b8181600060716000838152602001908152602001600020604051806101600160405290816000820154815260200160018201548152602001600282018054613c6690615946565b80601f0160208091040260200160405190810160405280929190818152602001828054613c9290615946565b8015613cdf5780601f10613cb457610100808354040283529160200191613cdf565b820191906000526020600020905b815481529060010190602001808311613cc257829003601f168201915b50505091835250506003828101546001600160a01b0390811660208085019190915260048086015460408087019190915260058701546060808801919091526006880154608080890191909152600789015460ff908116151560a0808b019190915260088b015460c0808c01919091526009909b015480891660e0808d0191909152600160a01b909104831615156101009b8c0152336000908152607689528690208651918201875280548252600181810154909a169882019890985260028801549581019590955297860154808216151593850193909352978204881615159083018190526201000090910490961615159481019490945201549382019390935292935014613e255760405162461bcd60e51b81526020600482015260116024820152704e6f20566f74696e67205269676874732160781b6044820152606401610563565b3360009081526076602052604090206003015460ff161515600114613e5c5760405162461bcd60e51b815260040161056390615b58565b336000908152607a60209081526040918290208054835181840281018401909452808452613ebf9392830182828015613eb457602002820191906000526020600020905b815481526020019060010190808311613ea0575b505050505084612ba6565b15613edc5760405162461bcd60e51b815260040161056390615b8f565b6000838152607160205260409020548314613f095760405162461bcd60e51b815260040161056390615bd9565b60e082015115613f2b5760405162461bcd60e51b815260040161056390615c05565b6001600160a01b0384166000908152607460205260409020600101548314613f655760405162461bcd60e51b815260040161056390615c31565b600060716000878152602001908152602001600020604051806101600160405290816000820154815260200160018201548152602001600282018054613faa90615946565b80601f0160208091040260200160405190810160405280929190818152602001828054613fd690615946565b80156140235780601f10613ff857610100808354040283529160200191614023565b820191906000526020600020905b81548152906001019060200180831161400657829003601f168201915b505050918352505060038201546001600160a01b03908116602080840191909152600484015460408401526005840154606084015260068401546080840152600784015460ff908116151560a0850152600885015460c085015260099094015491821660e0840152600160a01b9091049092161515610100909101528101519091506001146140c45760405162461bcd60e51b815260040161056390615cd3565b6001600160a01b0387166101208201526140de8782615018565b50611b01876150cd565b818160006071600083815260200190815260200160002060405180610160016040529081600082015481526020016001820154815260200160028201805461412f90615946565b80601f016020809104026020016040519081016040528092919081815260200182805461415b90615946565b80156141a85780601f1061417d576101008083540402835291602001916141a8565b820191906000526020600020905b81548152906001019060200180831161418b57829003601f168201915b50505091835250506003828101546001600160a01b0390811660208085019190915260048501546040808601919091526005860154606086015260068601546080860152600786015460ff908116151560a0870152600887015460c087015260099096015492831660e0860152600160a01b9092048516151561010090940193909352336000908152607690935290912001549192501615156001146142605760405162461bcd60e51b815260040161056390615b58565b336000908152607a602090815260409182902080548351818402810184019094528084526142c19392830182828015611856576020028201919060005260206000209081548152602001906001019080831161184257505050505083612ba6565b156142de5760405162461bcd60e51b815260040161056390615b8f565b600082815260716020526040902054821461430b5760405162461bcd60e51b815260040161056390615bd9565b60e08101511561432d5760405162461bcd60e51b815260040161056390615c05565b6001600160a01b03831660009081526074602052604090206001015482146143675760405162461bcd60e51b815260040161056390615c31565b6000607160008681526020019081526020016000206040518061016001604052908160008201548152602001600182015481526020016002820180546143ac90615946565b80601f01602080910402602001604051908101604052809291908181526020018280546143d890615946565b80156144255780601f106143fa57610100808354040283529160200191614425565b820191906000526020600020905b81548152906001019060200180831161440857829003601f168201915b505050918352505060038201546001600160a01b03908116602080840191909152600484015460408401526005840154606084015260068401546080840152600784015460ff908116151560a0850152600885015460c085015260099094015491821660e0840152600160a01b9091049092161515610100909101528101519091506002146144c65760405162461bcd60e51b815260040161056390615cd3565b6001600160a01b038616610120820152613c0d8682615018565b818160006071600083815260200190815260200160002060405180610160016040529081600082015481526020016001820154815260200160028201805461452790615946565b80601f016020809104026020016040519081016040528092919081815260200182805461455390615946565b80156145a05780601f10614575576101008083540402835291602001916145a0565b820191906000526020600020905b81548152906001019060200180831161458357829003601f168201915b50505091835250506003828101546001600160a01b0390811660208085019190915260048086015460408087019190915260058701546060808801919091526006880154608080890191909152600789015460ff908116151560a0808b019190915260088b015460c0808c01919091526009909b015480891660e0808d0191909152600160a01b909104831615156101009b8c0152336000908152607689528690208651918201875280548252600181810154909a1698820198909852600288015495810195909552978601548082161515938501939093529782048816151590830181905262010000909104909616151594810194909452015493820193909352929350146146e65760405162461bcd60e51b81526020600482015260116024820152704e6f20566f74696e67205269676874732160781b6044820152606401610563565b3360009081526076602052604090206003015460ff16151560011461471d5760405162461bcd60e51b815260040161056390615b58565b336000908152607a6020908152604091829020805483518184028101840190945280845261477e9392830182828015613eb45760200282019190600052602060002090815481526020019060010190808311613ea057505050505084612ba6565b1561479b5760405162461bcd60e51b815260040161056390615b8f565b60008381526071602052604090205483146147c85760405162461bcd60e51b815260040161056390615bd9565b60e0820151156147ea5760405162461bcd60e51b815260040161056390615c05565b6001600160a01b03841660009081526074602052604090206001015483146148245760405162461bcd60e51b815260040161056390615c31565b60006071600087815260200190815260200160002060405180610160016040529081600082015481526020016001820154815260200160028201805461486990615946565b80601f016020809104026020016040519081016040528092919081815260200182805461489590615946565b80156148e25780601f106148b7576101008083540402835291602001916148e2565b820191906000526020600020905b8154815290600101906020018083116148c557829003601f168201915b50505091835250506003828101546001600160a01b03908116602080850191909152600485015460408501526005850154606085015260068501546080850152600785015460ff908116151560a0860152600886015460c086015260099095015491821660e0850152600160a01b90910490931615156101009092019190915290820151919250146140c45760405162461bcd60e51b815260040161056390615cd3565b603380546001600160a01b038381166001600160a01b0319831681179093556040519116919082907f8be0079c531659141344cd1fd0a4f28419497f9722a3daafe3b4186f6b6457e090600090a35050565b600054610100900460ff166149ff5760405162461bcd60e51b815260040161056390615cff565b60646066556103e8606755614a1261514d565b614a1a6153de565b603354606580546001600160a01b0319166001600160a01b03909216919091179055565b60008181526071602090815260408083206073835281842080546001810182559085528385200180546001600160a01b0319163317905581519283018690529291016040516020818303038152906040528051906020012090508060776000336001600160a01b03166001600160a01b031681526020019081526020016000208190555060006040518060e0016040528084600401548152602001336001600160a01b031681526020018581526020016001151581526020016001151581526020016000151581526020018381525090508060766000336001600160a01b03166001600160a01b031681526020019081526020016000206000820151816000015560208201518160010160006101000a8154816001600160a01b0302191690836001600160a01b031602179055506040820151816002015560608201518160030160006101000a81548160ff02191690831515021790555060808201518160030160016101000a81548160ff02191690831515021790555060a08201518160030160026101000a81548160ff02191690831515021790555060c08201518160040155905050606a8190806001815401808255809150506001900390600052602060002090600502016000909190919091506000820151816000015560208201518160010160006101000a8154816001600160a01b0302191690836001600160a01b031602179055506040820151816002015560608201518160030160006101000a81548160ff02191690831515021790555060808201518160030160016101000a81548160ff02191690831515021790555060a08201518160030160026101000a81548160ff02191690831515021790555060c082015181600401555050607160008581526020019081526020016000206004016000815480929190614ce390615c8c565b9091555050600085815260786020908152604080832080546001600160a01b0319163390811790915583526079825280832080546001818101835591855283852001889055888452607b83528184208054918201815584529190922001859055517fd850a8248df1456f35b1b26db099385cb363335bb60a8e99294bc1012426787190610bca9084815260200190565b60008181526071602090815260408083206073835281842080546001810182559085528385200180546001600160a01b0319163317905581519283018690529291016040516020818303038152906040528051906020012090508060776000336001600160a01b03166001600160a01b031681526020019081526020016000208190555060006040518060e0016040528084600401548152602001336001600160a01b031681526020018581526020016001151581526020016000151581526020016000151581526020018381525090508060766000336001600160a01b03166001600160a01b031681526020019081526020016000206000820151816000015560208201518160010160006101000a8154816001600160a01b0302191690836001600160a01b031602179055506040820151816002015560608201518160030160006101000a81548160ff02191690831515021790555060808201518160030160016101000a81548160ff02191690831515021790555060a08201518160030160026101000a81548160ff02191690831515021790555060c08201518160040155905050606a8190806001815401808255809150506001900390600052602060002090600502016000909190919091506000820151816000015560208201518160010160006101000a8154816001600160a01b0302191690836001600160a01b031602179055506040820151816002015560608201518160030160006101000a81548160ff02191690831515021790555060808201518160030160016101000a81548160ff02191690831515021790555060a08201518160030160026101000a81548160ff02191690831515021790555060c082015181600401555050607160008581526020019081526020016000206004016000815480929190614ce390615c8c565b6101208101516001600160a01b0390811660009081526074602052604080822060039081015493861683529082200154909190615056906001615c74565b1115615079576001600160a01b03831661012083015260006101408301526150c2565b6101208201516001600160a01b039081166000908152607460205260408082206003908101549387168352912001546150b3906001615c74565b14156150c25760016101408301525b506101400151919050565b6001600160a01b03811660009081526074602052604081206003018054916150f483615c8c565b909155505033600090815260766020526040808220600301805462ff0000191662010000179055516001600160a01b038316917faec2ccae8681fd01ad220ecb7e9b5f7d485b1cc3cc01599acb1578016b30a6bd91a250565b6040805180820190915260098152686f70656e2d6672656560b81b6020808301918252600080526068905290516151a5917fad6f8124f6081c2622ab3a16acd47af73d52fe87b755c3f897263c58ba3fdbd791615438565b5060408051808201909152600b81526a636c6f7365642d6672656560a81b60208083019182526001600052606890529051615201917f82eaf0fca2207f91f5027fcf68136c84edb7e928c081c42aa5bbc2a771c7d37691615438565b506040805180820190915260098152681bdc195b8b5c185a5960ba1b6020808301918252600260005260689052905161525b917f7738fc943d038775bed8ef01a67b748c956896b0b810b5b4d06dc2c8632420e291615438565b5060408051808201909152600b81526a18db1bdcd9590b5c185a5960aa1b602080830191825260036000526068905290516152b7917f621935e5e2d2334e817fa0366e6727cdfbb18abed03a929d20a8be2175643efe91615438565b5060408051808201909152601281527118db1bdcd9590b599c99594b5cd958dc995d60721b6020808301918252600460005260689052905161531a917f80333aa37bbc0dd2312116cfc6d7c23756afe8292d63da7b97b36300cc5e273f91615438565b5060408051808201909152601081526f1bdc195b8b5c185a590b5cd958dc995d60821b6020808301918252600560005260689052905161537b917f3400fd8fba61b4217ec7ea224439ec53c7b66f5ac5f0b56a53b76ad74bf5ec3b91615438565b5060408051808201909152601281527118db1bdcd9590b5c185a590b5cd958dc995d60721b60208083019182526006600052606890529051611073917f374dc179ab22b15b16e95e8d09508d6170a7451c6357e0b730cf2e3e1d257f9891615438565b600054610100900460ff166154055760405162461bcd60e51b815260040161056390615cff565b611b1c600054610100900460ff1661542f5760405162461bcd60e51b815260040161056390615cff565b611b1c33614986565b82805461544490615946565b90600052602060002090601f01602090048101928261546657600085556154ac565b82601f1061547f57805160ff19168380011785556154ac565b828001600101855582156154ac579182015b828111156154ac578251825591602001919060010190615491565b506154b8929150615511565b5090565b8280548282559060005260206000209081019282156154ac579160200282015b828111156154ac57825182546001600160a01b0319166001600160a01b039091161782556020909201916001909101906154dc565b5b808211156154b85760008155600101615512565b60006020828403121561553857600080fd5b5035919050565b80356001600160a01b038116811461555657600080fd5b919050565b6000806040838503121561556e57600080fd5b6155778361553f565b946020939093013593505050565b6020808252825182820181905260009190848201906040850190845b818110156155c65783516001600160a01b0316835292840192918401916001016155a1565b50909695505050505050565b600080604083850312156155e557600080fd5b50508035926020909101359150565b6000815180845260005b8181101561561a576020818501810151868301820152016155fe565b8181111561562c576000602083870101525b50601f01601f19169290920160200192915050565b602081528151602082015260208201516040820152600060408301516101608060608501526156746101808501836155f4565b9150606085015161569060808601826001600160a01b03169052565b50608085015160a085015260a085015160c085015260c085015160e085015260e08501516101006156c48187018315159052565b8601516101208681019190915286015190506101406156ed818701836001600160a01b03169052565b90950151151593019290925250919050565b60006020828403121561571157600080fd5b61571a8261553f565b9392505050565b634e487b7160e01b600052604160045260246000fd5b604051601f8201601f1916810167ffffffffffffffff8111828210171561576057615760615721565b604052919050565b600082601f83011261577957600080fd5b813567ffffffffffffffff81111561579357615793615721565b6157a6601f8201601f1916602001615737565b8181528460208386010111156157bb57600080fd5b816020850160208301376000918101602001919091529392505050565b600080604083850312156157eb57600080fd5b82359150602083013567ffffffffffffffff81111561580957600080fd5b61581585828601615768565b9150509250929050565b600080600080600060a0868803121561583757600080fd5b853567ffffffffffffffff8082111561584f57600080fd5b61585b89838a01615768565b965060209150818801358181111561587257600080fd5b8801601f81018a1361588357600080fd5b80358281111561589557615895615721565b8060051b92506158a6848401615737565b818152928201840192848101908c8511156158c057600080fd5b928501925b848410156158e5576158d68461553f565b825292850192908501906158c5565b999c999b505050506040880135976060810135976080909101359650945050505050565b60006020828403121561591b57600080fd5b813567ffffffffffffffff81111561593257600080fd5b61593e84828501615768565b949350505050565b600181811c9082168061595a57607f821691505b6020821081141561597b57634e487b7160e01b600052602260045260246000fd5b50919050565b60208082526018908201527f546869732069732061205365637265742042616c6c6f74210000000000000000604082015260600190565b634e487b7160e01b600052601160045260246000fd5b6000828210156159e0576159e06159b8565b500390565b634e487b7160e01b600052603260045260246000fd5b6020808252601690820152754e6f20737563682042616c6c6f74204578697374732160501b604082015260600190565b602080825260149082015273546869732042616c6c6f7420457870697265642160601b604082015260600190565b600082615a7657634e487b7160e01b600052601260045260246000fd5b500490565b6000816000190483118215151615615a9557615a956159b8565b500290565b60208082526022908201527f596f7520617265205265676973746572656420696e20746869732042616c6c6f604082015261742160f01b606082015260800190565b60208082526025908201527f596f7572204944206973205265676973746572656420696e20746869732042616040820152646c6c6f742160d81b606082015260800190565b6020808252601f908201527f526567697374726174696f6e20506572696f6420686173205061737365642100604082015260600190565b60208082526018908201527f506c6561736520526567697374657220746f20566f7465210000000000000000604082015260600190565b6020808252602a908201527f596f7520616c7265616479204341535420796f757220566f746520696e20546860408201526969732042616c6c6f742160b01b606082015260800190565b602080825260129082015271496e76616c69642042616c6c6f742049642160701b604082015260600190565b60208082526012908201527110985b1b1bdd081a185cc8115e1c1a5c995960721b604082015260600190565b60208082526023908201527f43616e64696461746520646f6573206e6f7420657869737420696e2042616c6c6040820152626f742160e81b606082015260800190565b60008219821115615c8757615c876159b8565b500190565b6000600019821415615ca057615ca06159b8565b5060010190565b60208082526012908201527157726f6e672062616c6c6f7420547970652160701b604082015260600190565b60208082526012908201527157726f6e672042616c6c6f7420547970652160701b604082015260600190565b6020808252602b908201527f496e697469616c697a61626c653a20636f6e7472616374206973206e6f74206960408201526a6e697469616c697a696e6760a81b60608201526080019056fea26469706673582212206f085a9d0a10b1d6de2652262f7e40f609fe4fcb067c39e5d8dedde3993aba4064736f6c63430008080033","bytecodeSha1":"5e4e50b01af3345a161b3c323493d3f830028fbb","type":"contract","abi":[{"anonymous":false,"inputs":[{"indexed":false,"internalType":"uint8","name":"version","type":"uint8"}],"name":"Initialized","type":"event"},{"anonymous":false,"inputs":[{"indexed":true,"internalType":"address","name":"previousOwner","type":"address"},{"indexed":true,"internalType":"address","name":"newOwner","type":"address"}],"name":"OwnershipTransferred","type":"event"},{"anonymous":false,"inputs":[{"indexed":false,"internalType":"address","name":"_voter","type":"address"}],"name":"assigned_voting_rights","type":"event"},{"anonymous":false,"inputs":[{"indexed":false,"internalType":"uint256","name":"_ballot_type","type":"uint256"}],"name":"created_ballot","type":"event"},{"anonymous":false,"inputs":[{"indexed":false,"internalType":"uint256","name":"_ballot_id","type":"uint256"}],"name":"ended_ballot","type":"event"},{"anonymous":false,"inputs":[{"indexed":false,"internalType":"bytes32","name":"_voter_unique_id","type":"bytes32"}],"name":"registered_voter","type":"event"},{"anonymous":false,"inputs":[{"indexed":false,"internalType":"bool","name":"_tie","type":"bool"}],"name":"tied_ballot","type":"event"},{"anonymous":false,"inputs":[{"indexed":true,"internalType":"address","name":"_candidate","type":"address"}],"name":"voted","type":"event"},{"inputs":[{"internalType":"address","name":"_voter","type":"address"},{"internalType":"uint256","name":"_ballot_id","type":"uint256"}],"name":"assign_voting_rights","outputs":[],"stateMutability":"nonpayable","type":"function"},{"inputs":[{"internalType":"string","name":"_ballot_name","type":"string"},{"internalType":"address[]","name":"_ballot_candidates_addr","type":"address[]"},{"internalType":"uint256","name":"_ballot_type","type":"uint256"},{"internalType":"uint256","name":"_days","type":"uint256"},{"internalType":"uint256","name":"_registration_period","type":"uint256"}],"name":"create_ballot","outputs":[],"stateMutability":"payable","type":"function"},{"inputs":[{"internalType":"uint256","name":"_ballot_type","type":"uint256"},{"internalType":"string","name":"_ballot_name","type":"string"}],"name":"create_ballot_type","outputs":[],"stateMutability":"nonpayable","type":"function"},{"inputs":[{"internalType":"uint256","name":"_ballot_id","type":"uint256"}],"name":"end_ballot","outputs":[],"stateMutability":"nonpayable","type":"function"},{"inputs":[{"internalType":"uint256","name":"_ballot_id","type":"uint256"}],"name":"get_ballot","outputs":[{"components":[{"internalType":"uint256","name":"ballot_id","type":"uint256"},{"internalType":"uint256","name":"ballot_type","type":"uint256"},{"internalType":"string","name":"ballot_name","type":"string"},{"internalType":"address","name":"chair","type":"address"},{"internalType":"uint256","name":"voters_count","type":"uint256"},{"internalType":"uint256","name":"open_date","type":"uint256"},{"internalType":"uint256","name":"_days","type":"uint256"},{"internalType":"bool","name":"expired","type":"bool"},{"internalType":"uint256","name":"registration_window","type":"uint256"},{"internalType":"address","name":"current_winner","type":"address"},{"internalType":"bool","name":"tie","type":"bool"}],"internalType":"struct IJamiiFactory.Ballot","name":"","type":"tuple"}],"stateMutability":"view","type":"function"},{"inputs":[{"internalType":"uint256","name":"_ballot_id","type":"uint256"}],"name":"get_ballot_owner","outputs":[{"internalType":"address","name":"","type":"address"}],"stateMutability":"view","type":"function"},{"inputs":[{"internalType":"address","name":"_candidate_addr","type":"address"}],"name":"get_candidate","outputs":[{"components":[{"internalType":"uint256","name":"candidate_id","type":"uint256"},{"internalType":"uint256","name":"ballot_id","type":"uint256"},{"internalType":"address","name":"candidate_address","type":"address"},{"internalType":"uint256","name":"vote_count","type":"uint256"}],"internalType":"struct IJamiiFactory.Candidate","name":"","type":"tuple"}],"stateMutability":"view","type":"function"},{"inputs":[{"internalType":"uint256","name":"_ballot_id","type":"uint256"}],"name":"get_candidates","outputs":[{"internalType":"address[]","name":"","type":"address[]"}],"stateMutability":"view","type":"function"},{"inputs":[{"internalType":"address","name":"_voter_address","type":"address"},{"internalType":"uint256","name":"_ballot_id","type":"uint256"}],"name":"get_voter","outputs":[{"components":[{"internalType":"uint256","name":"voter_id","type":"uint256"},{"internalType":"address","name":"voter_address","type":"address"},{"internalType":"uint256","name":"ballot_id","type":"uint256"},{"internalType":"bool","name":"registered","type":"bool"},{"internalType":"bool","name":"rights","type":"bool"},{"internalType":"bool","name":"voted","type":"bool"},{"internalType":"bytes32","name":"unique_voter_id","type":"bytes32"}],"internalType":"struct IJamiiFactory.Voter","name":"","type":"tuple"}],"stateMutability":"view","type":"function"},{"inputs":[{"internalType":"uint256","name":"_ballot_id","type":"uint256"}],"name":"get_voters","outputs":[{"internalType":"address[]","name":"","type":"address[]"}],"stateMutability":"view","type":"function"},{"inputs":[{"internalType":"uint256","name":"_ballot_id","type":"uint256"}],"name":"get_winner","outputs":[{"internalType":"address","name":"","type":"address"}],"stateMutability":"nonpayable","type":"function"},{"inputs":[{"internalType":"string","name":"_arbitrary_text","type":"string"}],"name":"initialize","outputs":[],"stateMutability":"nonpayable","type":"function"},{"inputs":[],"name":"owner","outputs":[{"internalType":"address","name":"","type":"address"}],"stateMutability":"view","type":"function"},{"inputs":[{"internalType":"uint256","name":"_id_number","type":"uint256"},{"internalType":"uint256","name":"_ballot_id","type":"uint256"}],"name":"register_voter","outputs":[],"stateMutability":"nonpayable","type":"function"},{"inputs":[],"name":"renounceOwnership","outputs":[],"stateMutability":"nonpayable","type":"function"},{"inputs":[{"internalType":"address","name":"newOwner","type":"address"}],"name":"transferOwnership","outputs":[],"stateMutability":"nonpayable","type":"function"},{"inputs":[{"internalType":"address","name":"_candidate","type":"address"},{"internalType":"uint256","name":"_ballot_id","type":"uint256"}],"name":"vote","outputs":[],"stateMutability":"nonpayable","type":"function"},{"inputs":[],"name":"withdraw","outputs":[],"stateMutability":"nonpayable","type":"function"}],"compiler":{"version":"0.8.8+commit.dddeac2f","evm_version":"istanbul","optimizer":{"enabled":true,"runs":200}},"contractName":"JamiiFactory","language":"Solidity","natspec":{"methods":{"owner()":{"details":"Returns the address of the current owner."},"renounceOwnership()":{"details":"Leaves the contract without owner. It will not be possible to call `onlyOwner` functions anymore. Can only be called by the current owner. NOTE: Renouncing ownership will leave the contract without an owner, thereby removing any functionality that is only available to the owner."},"transferOwnership(address)":{"details":"Transfers ownership of the contract to a new account (`newOwner`). Can only be called by the current owner."},"get_ballot_owner(uint256)":{"notice":"GETTERS *"},"assign_voting_rights(address,uint256)":{"notice":"VOTING RIGHTS *"}},"kind":"dev","version":1},"opcodes":"PUSH1 0x80 PUSH1 0x40 MSTORE PUSH1 0x4 CALLDATASIZE LT PUSH2 0x109 JUMPI PUSH1 0x0 CALLDATALOAD PUSH1 0xE0 SHR DUP1 PUSH4 0x715018A6 GT PUSH2 0x95 JUMPI DUP1 PUSH4 0xADBDBC97 GT PUSH2 0x64 JUMPI DUP1 PUSH4 0xADBDBC97 EQ PUSH2 0x36B JUMPI DUP1 PUSH4 0xDCFC1380 EQ PUSH2 0x38B JUMPI DUP1 PUSH4 0xE8873B8F EQ PUSH2 0x39E JUMPI DUP1 PUSH4 0xF2FDE38B EQ PUSH2 0x3BE JUMPI DUP1 PUSH4 0xF62D1888 EQ PUSH2 0x3DE JUMPI PUSH1 0x0 DUP1 REVERT JUMPDEST DUP1 PUSH4 0x715018A6 EQ PUSH2 0x2AF JUMPI DUP1 PUSH4 0x8987076B EQ PUSH2 0x2C4 JUMPI DUP1 PUSH4 0x8DA5CB5B EQ PUSH2 0x2F1 JUMPI DUP1 PUSH4 0x953EF76D EQ PUSH2 0x30F JUMPI PUSH1 0x0 DUP1 REVERT JUMPDEST DUP1 PUSH4 0x243DC409 GT PUSH2 0xDC JUMPI DUP1 PUSH4 0x243DC409 EQ PUSH2 0x21A JUMPI DUP1 PUSH4 0x3CCFD60B EQ PUSH2 0x23A JUMPI DUP1 PUSH4 0x514D7D66 EQ PUSH2 0x24F JUMPI DUP1 PUSH4 0x5B881F6B EQ PUSH2 0x26F JUMPI DUP1 PUSH4 0x5F74BBDE EQ PUSH2 0x28F JUMPI PUSH1 0x0 DUP1 REVERT JUMPDEST DUP1 PUSH4 0x40DE0C5 EQ PUSH2 0x10E JUMPI DUP1 PUSH4 0x91CB18A EQ PUSH2 0x14B JUMPI DUP1 PUSH4 0x112819BD EQ PUSH2 0x1CB JUMPI DUP1 PUSH4 0x133E59AA EQ PUSH2 0x1ED JUMPI JUMPDEST PUSH1 0x0 DUP1 REVERT JUMPDEST CALLVALUE DUP1 ISZERO PUSH2 0x11A JUMPI PUSH1 0x0 DUP1 REVERT JUMPDEST POP PUSH2 0x12E PUSH2 0x129 CALLDATASIZE PUSH1 0x4 PUSH2 0x5526 JUMP JUMPDEST PUSH2 0x3FE JUMP JUMPDEST PUSH1 0x40 MLOAD PUSH1 0x1 PUSH1 0x1 PUSH1 0xA0 SHL SUB SWAP1 SWAP2 AND DUP2 MSTORE PUSH1 0x20 ADD JUMPDEST PUSH1 0x40 MLOAD DUP1 SWAP2 SUB SWAP1 RETURN JUMPDEST CALLVALUE DUP1 ISZERO PUSH2 0x157 JUMPI PUSH1 0x0 DUP1 REVERT JUMPDEST POP PUSH2 0x16B PUSH2 0x166 CALLDATASIZE PUSH1 0x4 PUSH2 0x555B JUMP JUMPDEST PUSH2 0x591 JUMP JUMPDEST PUSH1 0x40 MLOAD PUSH2 0x142 SWAP2 SWAP1 DUP2 MLOAD DUP2 MSTORE PUSH1 0x20 DUP1 DUP4 ADD MLOAD PUSH1 0x1 PUSH1 0x1 PUSH1 0xA0 SHL SUB AND SWAP1 DUP3 ADD MSTORE PUSH1 0x40 DUP1 DUP4 ADD MLOAD SWAP1 DUP3 ADD MSTORE PUSH1 0x60 DUP1 DUP4 ADD MLOAD ISZERO ISZERO SWAP1 DUP3 ADD MSTORE PUSH1 0x80 DUP1 DUP4 ADD MLOAD ISZERO ISZERO SWAP1 DUP3 ADD MSTORE PUSH1 0xA0 DUP1 DUP4 ADD MLOAD ISZERO ISZERO SWAP1 DUP3 ADD MSTORE PUSH1 0xC0 SWAP2 DUP3 ADD MLOAD SWAP2 DUP2 ADD SWAP2 SWAP1 SWAP2 MSTORE PUSH1 0xE0 ADD SWAP1 JUMP JUMPDEST CALLVALUE DUP1 ISZERO PUSH2 0x1D7 JUMPI PUSH1 0x0 DUP1 REVERT JUMPDEST POP PUSH2 0x1EB PUSH2 0x1E6 CALLDATASIZE PUSH1 0x4 PUSH2 0x555B JUMP JUMPDEST PUSH2 0x7A4 JUMP JUMPDEST STOP JUMPDEST CALLVALUE DUP1 ISZERO PUSH2 0x1F9 JUMPI PUSH1 0x0 DUP1 REVERT JUMPDEST POP PUSH2 0x20D PUSH2 0x208 CALLDATASIZE PUSH1 0x4 PUSH2 0x5526 JUMP JUMPDEST PUSH2 0xBD9 JUMP JUMPDEST PUSH1 0x40 MLOAD PUSH2 0x142 SWAP2 SWAP1 PUSH2 0x5585 JUMP JUMPDEST CALLVALUE DUP1 ISZERO PUSH2 0x226 JUMPI PUSH1 0x0 DUP1 REVERT JUMPDEST POP PUSH2 0x12E PUSH2 0x235 CALLDATASIZE PUSH1 0x4 PUSH2 0x5526 JUMP JUMPDEST PUSH2 0xC45 JUMP JUMPDEST CALLVALUE DUP1 ISZERO PUSH2 0x246 JUMPI PUSH1 0x0 DUP1 REVERT JUMPDEST POP PUSH2 0x1EB PUSH2 0x1032 JUMP JUMPDEST CALLVALUE DUP1 ISZERO PUSH2 0x25B JUMPI PUSH1 0x0 DUP1 REVERT JUMPDEST POP PUSH2 0x1EB PUSH2 0x26A CALLDATASIZE PUSH1 0x4 PUSH2 0x55D2 JUMP JUMPDEST PUSH2 0x1076 JUMP JUMPDEST CALLVALUE DUP1 ISZERO PUSH2 0x27B JUMPI PUSH1 0x0 DUP1 REVERT JUMPDEST POP PUSH2 0x1EB PUSH2 0x28A CALLDATASIZE PUSH1 0x4 PUSH2 0x5526 JUMP JUMPDEST PUSH2 0x1517 JUMP JUMPDEST CALLVALUE DUP1 ISZERO PUSH2 0x29B JUMPI PUSH1 0x0 DUP1 REVERT JUMPDEST POP PUSH2 0x1EB PUSH2 0x2AA CALLDATASIZE PUSH1 0x4 PUSH2 0x555B JUMP JUMPDEST PUSH2 0x1686 JUMP JUMPDEST CALLVALUE DUP1 ISZERO PUSH2 0x2BB JUMPI PUSH1 0x0 DUP1 REVERT JUMPDEST POP PUSH2 0x1EB PUSH2 0x1B0A JUMP JUMPDEST CALLVALUE DUP1 ISZERO PUSH2 0x2D0 JUMPI PUSH1 0x0 DUP1 REVERT JUMPDEST POP PUSH2 0x2E4 PUSH2 0x2DF CALLDATASIZE PUSH1 0x4 PUSH2 0x5526 JUMP JUMPDEST PUSH2 0x1B1E JUMP JUMPDEST PUSH1 0x40 MLOAD PUSH2 0x142 SWAP2 SWAP1 PUSH2 0x5641 JUMP JUMPDEST CALLVALUE DUP1 ISZERO PUSH2 0x2FD JUMPI PUSH1 0x0 DUP1 REVERT JUMPDEST POP PUSH1 0x33 SLOAD PUSH1 0x1 PUSH1 0x1 PUSH1 0xA0 SHL SUB AND PUSH2 0x12E JUMP JUMPDEST CALLVALUE DUP1 ISZERO PUSH2 0x31B JUMPI PUSH1 0x0 DUP1 REVERT JUMPDEST POP PUSH2 0x32F PUSH2 0x32A CALLDATASIZE PUSH1 0x4 PUSH2 0x56FF JUMP JUMPDEST PUSH2 0x1E2F JUMP JUMPDEST PUSH1 0x40 MLOAD PUSH2 0x142 SWAP2 SWAP1 DUP2 MLOAD DUP2 MSTORE PUSH1 0x20 DUP1 DUP4 ADD MLOAD SWAP1 DUP3 ADD MSTORE PUSH1 0x40 DUP1 DUP4 ADD MLOAD PUSH1 0x1 PUSH1 0x1 PUSH1 0xA0 SHL SUB AND SWAP1 DUP3 ADD MSTORE PUSH1 0x60 SWAP2 DUP3 ADD MLOAD SWAP2 DUP2 ADD SWAP2 SWAP1 SWAP2 MSTORE PUSH1 0x80 ADD SWAP1 JUMP JUMPDEST CALLVALUE DUP1 ISZERO PUSH2 0x377 JUMPI PUSH1 0x0 DUP1 REVERT JUMPDEST POP PUSH2 0x1EB PUSH2 0x386 CALLDATASIZE PUSH1 0x4 PUSH2 0x57D8 JUMP JUMPDEST PUSH2 0x206E JUMP JUMPDEST PUSH2 0x1EB PUSH2 0x399 CALLDATASIZE PUSH1 0x4 PUSH2 0x581F JUMP JUMPDEST PUSH2 0x212A JUMP JUMPDEST CALLVALUE DUP1 ISZERO PUSH2 0x3AA JUMPI PUSH1 0x0 DUP1 REVERT JUMPDEST POP PUSH2 0x20D PUSH2 0x3B9 CALLDATASIZE PUSH1 0x4 PUSH2 0x5526 JUMP JUMPDEST PUSH2 0x27F3 JUMP JUMPDEST CALLVALUE DUP1 ISZERO PUSH2 0x3CA JUMPI PUSH1 0x0 DUP1 REVERT JUMPDEST POP PUSH2 0x1EB PUSH2 0x3D9 CALLDATASIZE PUSH1 0x4 PUSH2 0x56FF JUMP JUMPDEST PUSH2 0x29C4 JUMP JUMPDEST CALLVALUE DUP1 ISZERO PUSH2 0x3EA JUMPI PUSH1 0x0 DUP1 REVERT JUMPDEST POP PUSH2 0x1EB PUSH2 0x3F9 CALLDATASIZE PUSH1 0x4 PUSH2 0x5909 JUMP JUMPDEST PUSH2 0x2A3A JUMP JUMPDEST PUSH1 0x0 DUP2 PUSH1 0x0 PUSH1 0x71 PUSH1 0x0 DUP4 DUP2 MSTORE PUSH1 0x20 ADD SWAP1 DUP2 MSTORE PUSH1 0x20 ADD PUSH1 0x0 KECCAK256 PUSH1 0x40 MLOAD DUP1 PUSH2 0x160 ADD PUSH1 0x40 MSTORE SWAP1 DUP2 PUSH1 0x0 DUP3 ADD SLOAD DUP2 MSTORE PUSH1 0x20 ADD PUSH1 0x1 DUP3 ADD SLOAD DUP2 MSTORE PUSH1 0x20 ADD PUSH1 0x2 DUP3 ADD DUP1 SLOAD PUSH2 0x446 SWAP1 PUSH2 0x5946 JUMP JUMPDEST DUP1 PUSH1 0x1F ADD PUSH1 0x20 DUP1 SWAP2 DIV MUL PUSH1 0x20 ADD PUSH1 0x40 MLOAD SWAP1 DUP2 ADD PUSH1 0x40 MSTORE DUP1 SWAP3 SWAP2 SWAP1 DUP2 DUP2 MSTORE PUSH1 0x20 ADD DUP3 DUP1 SLOAD PUSH2 0x472 SWAP1 PUSH2 0x5946 JUMP JUMPDEST DUP1 ISZERO PUSH2 0x4BF JUMPI DUP1 PUSH1 0x1F LT PUSH2 0x494 JUMPI PUSH2 0x100 DUP1 DUP4 SLOAD DIV MUL DUP4 MSTORE SWAP2 PUSH1 0x20 ADD SWAP2 PUSH2 0x4BF JUMP JUMPDEST DUP3 ADD SWAP2 SWAP1 PUSH1 0x0 MSTORE PUSH1 0x20 PUSH1 0x0 KECCAK256 SWAP1 JUMPDEST DUP2 SLOAD DUP2 MSTORE SWAP1 PUSH1 0x1 ADD SWAP1 PUSH1 0x20 ADD DUP1 DUP4 GT PUSH2 0x4A2 JUMPI DUP3 SWAP1 SUB PUSH1 0x1F AND DUP3 ADD SWAP2 JUMPDEST POP POP POP SWAP2 DUP4 MSTORE POP POP PUSH1 0x3 DUP3 ADD SLOAD PUSH1 0x1 PUSH1 0x1 PUSH1 0xA0 SHL SUB SWAP1 DUP2 AND PUSH1 0x20 DUP1 DUP5 ADD SWAP2 SWAP1 SWAP2 MSTORE PUSH1 0x4 DUP1 DUP6 ADD SLOAD PUSH1 0x40 DUP6 ADD MSTORE PUSH1 0x5 DUP6 ADD SLOAD PUSH1 0x60 DUP6 ADD MSTORE PUSH1 0x6 DUP6 ADD SLOAD PUSH1 0x80 DUP6 ADD MSTORE PUSH1 0x7 DUP6 ADD SLOAD PUSH1 0xFF SWAP1 DUP2 AND ISZERO ISZERO PUSH1 0xA0 DUP7 ADD MSTORE PUSH1 0x8 DUP7 ADD SLOAD PUSH1 0xC0 DUP7 ADD MSTORE PUSH1 0x9 SWAP1 SWAP6 ADD SLOAD SWAP3 DUP4 AND PUSH1 0xE0 DUP6 ADD MSTORE PUSH1 0x1 PUSH1 0xA0 SHL SWAP1 SWAP3 DIV SWAP1 SWAP4 AND ISZERO ISZERO PUSH2 0x100 SWAP1 SWAP3 ADD SWAP2 SWAP1 SWAP2 MSTORE SWAP1 DUP3 ADD MLOAD SWAP2 SWAP3 POP GT PUSH2 0x56C JUMPI PUSH1 0x40 MLOAD PUSH3 0x461BCD PUSH1 0xE5 SHL DUP2 MSTORE PUSH1 0x4 ADD PUSH2 0x563 SWAP1 PUSH2 0x5981 JUMP JUMPDEST PUSH1 0x40 MLOAD DUP1 SWAP2 SUB SWAP1 REVERT JUMPDEST PUSH1 0x0 DUP5 DUP2 MSTORE PUSH1 0x71 PUSH1 0x20 MSTORE PUSH1 0x40 SWAP1 KECCAK256 PUSH1 0x3 ADD SLOAD PUSH1 0x1 PUSH1 0x1 PUSH1 0xA0 SHL SUB AND SWAP3 POP JUMPDEST POP POP SWAP2 SWAP1 POP JUMP JUMPDEST PUSH1 0x40 DUP1 MLOAD PUSH1 0xE0 DUP2 ADD DUP3 MSTORE PUSH1 0x0 DUP1 DUP3 MSTORE PUSH1 0x20 DUP1 DUP4 ADD DUP3 SWAP1 MSTORE DUP3 DUP5 ADD DUP3 SWAP1 MSTORE PUSH1 0x60 DUP4 ADD DUP3 SWAP1 MSTORE PUSH1 0x80 DUP4 ADD DUP3 SWAP1 MSTORE PUSH1 0xA0 DUP4 ADD DUP3 SWAP1 MSTORE PUSH1 0xC0 DUP4 ADD DUP3 SWAP1 MSTORE DUP5 DUP3 MSTORE PUSH1 0x71 DUP2 MSTORE DUP4 DUP3 KECCAK256 DUP5 MLOAD PUSH2 0x160 DUP2 ADD DUP7 MSTORE DUP2 SLOAD DUP2 MSTORE PUSH1 0x1 DUP3 ADD SLOAD SWAP3 DUP2 ADD SWAP3 SWAP1 SWAP3 MSTORE PUSH1 0x2 DUP2 ADD DUP1 SLOAD SWAP5 SWAP6 DUP8 SWAP6 SWAP1 DUP5 ADD SWAP2 SWAP1 PUSH2 0x605 SWAP1 PUSH2 0x5946 JUMP JUMPDEST DUP1 PUSH1 0x1F ADD PUSH1 0x20 DUP1 SWAP2 DIV MUL PUSH1 0x20 ADD PUSH1 0x40 MLOAD SWAP1 DUP2 ADD PUSH1 0x40 MSTORE DUP1 SWAP3 SWAP2 SWAP1 DUP2 DUP2 MSTORE PUSH1 0x20 ADD DUP3 DUP1 SLOAD PUSH2 0x631 SWAP1 PUSH2 0x5946 JUMP JUMPDEST DUP1 ISZERO PUSH2 0x67E JUMPI DUP1 PUSH1 0x1F LT PUSH2 0x653 JUMPI PUSH2 0x100 DUP1 DUP4 SLOAD DIV MUL DUP4 MSTORE SWAP2 PUSH1 0x20 ADD SWAP2 PUSH2 0x67E JUMP JUMPDEST DUP3 ADD SWAP2 SWAP1 PUSH1 0x0 MSTORE PUSH1 0x20 PUSH1 0x0 KECCAK256 SWAP1 JUMPDEST DUP2 SLOAD DUP2 MSTORE SWAP1 PUSH1 0x1 ADD SWAP1 PUSH1 0x20 ADD DUP1 DUP4 GT PUSH2 0x661 JUMPI DUP3 SWAP1 SUB PUSH1 0x1F AND DUP3 ADD SWAP2 JUMPDEST POP POP POP SWAP2 DUP4 MSTORE POP POP PUSH1 0x3 DUP3 ADD SLOAD PUSH1 0x1 PUSH1 0x1 PUSH1 0xA0 SHL SUB SWAP1 DUP2 AND PUSH1 0x20 DUP1 DUP5 ADD SWAP2 SWAP1 SWAP2 MSTORE PUSH1 0x4 DUP1 DUP6 ADD SLOAD PUSH1 0x40 DUP6 ADD MSTORE PUSH1 0x5 DUP6 ADD SLOAD PUSH1 0x60 DUP6 ADD MSTORE PUSH1 0x6 DUP6 ADD SLOAD PUSH1 0x80 DUP6 ADD MSTORE PUSH1 0x7 DUP6 ADD SLOAD PUSH1 0xFF SWAP1 DUP2 AND ISZERO ISZERO PUSH1 0xA0 DUP7 ADD MSTORE PUSH1 0x8 DUP7 ADD SLOAD PUSH1 0xC0 DUP7 ADD MSTORE PUSH1 0x9 SWAP1 SWAP6 ADD SLOAD SWAP3 DUP4 AND PUSH1 0xE0 DUP6 ADD MSTORE PUSH1 0x1 PUSH1 0xA0 SHL SWAP1 SWAP3 DIV SWAP1 SWAP4 AND ISZERO ISZERO PUSH2 0x100 SWAP1 SWAP3 ADD SWAP2 SWAP1 SWAP2 MSTORE SWAP1 DUP3 ADD MLOAD SWAP2 SWAP3 POP GT PUSH2 0x722 JUMPI PUSH1 0x40 MLOAD PUSH3 0x461BCD PUSH1 0xE5 SHL DUP2 MSTORE PUSH1 0x4 ADD PUSH2 0x563 SWAP1 PUSH2 0x5981 JUMP JUMPDEST POP POP POP POP PUSH1 0x1 PUSH1 0x1 PUSH1 0xA0 SHL SUB SWAP1 DUP2 AND PUSH1 0x0 SWAP1 DUP2 MSTORE PUSH1 0x76 PUSH1 0x20 SWAP1 DUP2 MSTORE PUSH1 0x40 SWAP2 DUP3 SWAP1 KECCAK256 DUP3 MLOAD PUSH1 0xE0 DUP2 ADD DUP5 MSTORE DUP2 SLOAD DUP2 MSTORE PUSH1 0x1 DUP3 ADD SLOAD SWAP1 SWAP5 AND SWAP2 DUP5 ADD SWAP2 SWAP1 SWAP2 MSTORE PUSH1 0x2 DUP2 ADD SLOAD SWAP2 DUP4 ADD SWAP2 SWAP1 SWAP2 MSTORE PUSH1 0x3 DUP2 ADD SLOAD PUSH1 0xFF DUP1 DUP3 AND ISZERO ISZERO PUSH1 0x60 DUP6 ADD MSTORE PUSH2 0x100 DUP3 DIV DUP2 AND ISZERO ISZERO PUSH1 0x80 DUP6 ADD MSTORE PUSH3 0x10000 SWAP1 SWAP2 DIV AND ISZERO ISZERO PUSH1 0xA0 DUP4 ADD MSTORE PUSH1 0x4 ADD SLOAD PUSH1 0xC0 DUP3 ADD MSTORE SWAP1 JUMP JUMPDEST PUSH2 0x7AD DUP2 PUSH2 0x3FE JUMP JUMPDEST PUSH1 0x1 PUSH1 0x1 PUSH1 0xA0 SHL SUB AND CALLER PUSH1 0x1 PUSH1 0x1 PUSH1 0xA0 SHL SUB AND EQ PUSH2 0x809 JUMPI PUSH1 0x40 MLOAD PUSH3 0x461BCD PUSH1 0xE5 SHL DUP2 MSTORE PUSH1 0x20 PUSH1 0x4 DUP3 ADD MSTORE PUSH1 0x19 PUSH1 0x24 DUP3 ADD MSTORE PUSH25 0x496E73756666696369656E74205065726D697373696F6E7321 PUSH1 0x38 SHL PUSH1 0x44 DUP3 ADD MSTORE PUSH1 0x64 ADD PUSH2 0x563 JUMP JUMPDEST PUSH1 0x0 PUSH1 0x71 PUSH1 0x0 DUP4 DUP2 MSTORE PUSH1 0x20 ADD SWAP1 DUP2 MSTORE PUSH1 0x20 ADD PUSH1 0x0 KECCAK256 PUSH1 0x40 MLOAD DUP1 PUSH2 0x160 ADD PUSH1 0x40 MSTORE SWAP1 DUP2 PUSH1 0x0 DUP3 ADD SLOAD DUP2 MSTORE PUSH1 0x20 ADD PUSH1 0x1 DUP3 ADD SLOAD DUP2 MSTORE PUSH1 0x20 ADD PUSH1 0x2 DUP3 ADD DUP1 SLOAD PUSH2 0x84E SWAP1 PUSH2 0x5946 JUMP JUMPDEST DUP1 PUSH1 0x1F ADD PUSH1 0x20 DUP1 SWAP2 DIV MUL PUSH1 0x20 ADD PUSH1 0x40 MLOAD SWAP1 DUP2 ADD PUSH1 0x40 MSTORE DUP1 SWAP3 SWAP2 SWAP1 DUP2 DUP2 MSTORE PUSH1 0x20 ADD DUP3 DUP1 SLOAD PUSH2 0x87A SWAP1 PUSH2 0x5946 JUMP JUMPDEST DUP1 ISZERO PUSH2 0x8C7 JUMPI DUP1 PUSH1 0x1F LT PUSH2 0x89C JUMPI PUSH2 0x100 DUP1 DUP4 SLOAD DIV MUL DUP4 MSTORE SWAP2 PUSH1 0x20 ADD SWAP2 PUSH2 0x8C7 JUMP JUMPDEST DUP3 ADD SWAP2 SWAP1 PUSH1 0x0 MSTORE PUSH1 0x20 PUSH1 0x0 KECCAK256 SWAP1 JUMPDEST DUP2 SLOAD DUP2 MSTORE SWAP1 PUSH1 0x1 ADD SWAP1 PUSH1 0x20 ADD DUP1 DUP4 GT PUSH2 0x8AA JUMPI DUP3 SWAP1 SUB PUSH1 0x1F AND DUP3 ADD SWAP2 JUMPDEST POP POP POP SWAP2 DUP4 MSTORE POP POP PUSH1 0x3 DUP3 ADD SLOAD PUSH1 0x1 PUSH1 0x1 PUSH1 0xA0 SHL SUB SWAP1 DUP2 AND PUSH1 0x20 DUP4 ADD MSTORE PUSH1 0x4 DUP4 ADD SLOAD PUSH1 0x40 DUP4 ADD MSTORE PUSH1 0x5 DUP4 ADD SLOAD PUSH1 0x60 DUP4 ADD MSTORE PUSH1 0x6 DUP4 ADD SLOAD PUSH1 0x80 DUP4 ADD MSTORE PUSH1 0x7 DUP4 ADD SLOAD PUSH1 0xFF SWAP1 DUP2 AND ISZERO ISZERO PUSH1 0xA0 DUP5 ADD MSTORE PUSH1 0x8 DUP5 ADD SLOAD PUSH1 0xC0 DUP5 ADD MSTORE PUSH1 0x9 SWAP1 SWAP4 ADD SLOAD SWAP1 DUP2 AND PUSH1 0xE0 DUP4 ADD MSTORE PUSH1 0x1 PUSH1 0xA0 SHL SWAP1 DIV SWAP1 SWAP2 AND ISZERO ISZERO PUSH2 0x100 SWAP1 SWAP2 ADD MSTORE PUSH1 0x69 DUP1 SLOAD SWAP2 SWAP3 POP PUSH2 0x950 PUSH1 0x1 DUP4 PUSH2 0x59CE JUMP JUMPDEST DUP2 SLOAD DUP2 LT PUSH2 0x960 JUMPI PUSH2 0x960 PUSH2 0x59E5 JUMP JUMPDEST PUSH1 0x0 SWAP2 DUP3 MSTORE PUSH1 0x20 SWAP1 SWAP2 KECCAK256 PUSH1 0xA SWAP1 SWAP2 MUL ADD SLOAD DUP3 MLOAD GT ISZERO PUSH2 0x991 JUMPI PUSH1 0x40 MLOAD PUSH3 0x461BCD PUSH1 0xE5 SHL DUP2 MSTORE PUSH1 0x4 ADD PUSH2 0x563 SWAP1 PUSH2 0x59FB JUMP JUMPDEST PUSH1 0x20 DUP3 ADD MLOAD PUSH1 0xE0 DUP4 ADD MLOAD ISZERO PUSH2 0x9B8 JUMPI PUSH1 0x40 MLOAD PUSH3 0x461BCD PUSH1 0xE5 SHL DUP2 MSTORE PUSH1 0x4 ADD PUSH2 0x563 SWAP1 PUSH2 0x5A2B JUMP JUMPDEST DUP1 PUSH1 0x1 EQ DUP1 PUSH2 0x9C7 JUMPI POP DUP1 PUSH1 0x3 EQ JUMPDEST DUP1 PUSH2 0x9D2 JUMPI POP DUP1 PUSH1 0x4 EQ JUMPDEST DUP1 PUSH2 0x9DD JUMPI POP DUP1 PUSH1 0x6 EQ JUMPDEST PUSH2 0xA20 JUMPI PUSH1 0x40 MLOAD PUSH3 0x461BCD PUSH1 0xE5 SHL DUP2 MSTORE PUSH1 0x20 PUSH1 0x4 DUP3 ADD MSTORE PUSH1 0x14 PUSH1 0x24 DUP3 ADD MSTORE PUSH20 0x4E6F74206120436C6F7365642042616C6C6F7421 PUSH1 0x60 SHL PUSH1 0x44 DUP3 ADD MSTORE PUSH1 0x64 ADD PUSH2 0x563 JUMP JUMPDEST PUSH1 0x1 PUSH1 0x1 PUSH1 0xA0 SHL SUB DUP6 AND PUSH1 0x0 SWAP1 DUP2 MSTORE PUSH1 0x76 PUSH1 0x20 MSTORE PUSH1 0x40 SWAP1 KECCAK256 PUSH1 0x2 ADD SLOAD DUP5 EQ PUSH2 0xA94 JUMPI PUSH1 0x40 MLOAD PUSH3 0x461BCD PUSH1 0xE5 SHL DUP2 MSTORE PUSH1 0x20 PUSH1 0x4 DUP3 ADD MSTORE PUSH1 0x21 PUSH1 0x24 DUP3 ADD MSTORE PUSH32 0x566F7465722043616E4E4F5420766F746520696E20746869732042616C6C6F74 PUSH1 0x44 DUP3 ADD MSTORE PUSH1 0x21 PUSH1 0xF8 SHL PUSH1 0x64 DUP3 ADD MSTORE PUSH1 0x84 ADD PUSH2 0x563 JUMP JUMPDEST PUSH1 0x1 PUSH1 0x1 PUSH1 0xA0 SHL SUB DUP6 AND PUSH1 0x0 SWAP1 DUP2 MSTORE PUSH1 0x76 PUSH1 0x20 MSTORE PUSH1 0x40 SWAP1 KECCAK256 PUSH1 0x3 ADD SLOAD PUSH1 0xFF AND ISZERO ISZERO PUSH1 0x1 EQ PUSH2 0xB04 JUMPI PUSH1 0x40 MLOAD PUSH3 0x461BCD PUSH1 0xE5 SHL DUP2 MSTORE PUSH1 0x20 PUSH1 0x4 DUP3 ADD MSTORE PUSH1 0x17 PUSH1 0x24 DUP3 ADD MSTORE PUSH32 0x4E4F542061205265676973746572656420566F74657221000000000000000000 PUSH1 0x44 DUP3 ADD MSTORE PUSH1 0x64 ADD PUSH2 0x563 JUMP JUMPDEST PUSH1 0x1 PUSH1 0x1 PUSH1 0xA0 SHL SUB DUP6 AND PUSH1 0x0 SWAP1 DUP2 MSTORE PUSH1 0x76 PUSH1 0x20 MSTORE PUSH1 0x40 SWAP1 KECCAK256 PUSH1 0x3 ADD SLOAD PUSH2 0x100 SWAP1 DIV PUSH1 0xFF AND ISZERO PUSH2 0xB75 JUMPI PUSH1 0x40 MLOAD PUSH3 0x461BCD PUSH1 0xE5 SHL DUP2 MSTORE PUSH1 0x20 PUSH1 0x4 DUP3 ADD MSTORE PUSH1 0x1A PUSH1 0x24 DUP3 ADD MSTORE PUSH32 0x416C72656164792068617320566F74696E672052696768747321000000000000 PUSH1 0x44 DUP3 ADD MSTORE PUSH1 0x64 ADD PUSH2 0x563 JUMP JUMPDEST PUSH1 0x1 PUSH1 0x1 PUSH1 0xA0 SHL SUB DUP6 AND PUSH1 0x0 DUP2 DUP2 MSTORE PUSH1 0x76 PUSH1 0x20 SWAP1 DUP2 MSTORE PUSH1 0x40 SWAP2 DUP3 SWAP1 KECCAK256 PUSH1 0x3 ADD DUP1 SLOAD PUSH2 0xFF00 NOT AND PUSH2 0x100 OR SWAP1 SSTORE SWAP1 MLOAD SWAP2 DUP3 MSTORE PUSH32 0x94055E6BCDFA83FA1F2CB2901FD22DB9E96F758348742A662B752BC32B765800 SWAP2 ADD JUMPDEST PUSH1 0x40 MLOAD DUP1 SWAP2 SUB SWAP1 LOG1 POP POP POP POP POP JUMP JUMPDEST PUSH1 0x0 DUP2 DUP2 MSTORE PUSH1 0x72 PUSH1 0x20 SWAP1 DUP2 MSTORE PUSH1 0x40 SWAP2 DUP3 SWAP1 KECCAK256 DUP1 SLOAD DUP4 MLOAD DUP2 DUP5 MUL DUP2 ADD DUP5 ADD SWAP1 SWAP5 MSTORE DUP1 DUP5 MSTORE PUSH1 0x60 SWAP4 SWAP3 DUP4 ADD DUP3 DUP3 DUP1 ISZERO PUSH2 0xC39 JUMPI PUSH1 0x20 MUL DUP3 ADD SWAP2 SWAP1 PUSH1 0x0 MSTORE PUSH1 0x20 PUSH1 0x0 KECCAK256 SWAP1 JUMPDEST DUP2 SLOAD PUSH1 0x1 PUSH1 0x1 PUSH1 0xA0 SHL SUB AND DUP2 MSTORE PUSH1 0x1 SWAP1 SWAP2 ADD SWAP1 PUSH1 0x20 ADD DUP1 DUP4 GT PUSH2 0xC1B JUMPI JUMPDEST POP POP POP POP POP SWAP1 POP SWAP2 SWAP1 POP JUMP JUMPDEST PUSH1 0x0 DUP2 PUSH1 0x0 PUSH1 0x71 PUSH1 0x0 DUP4 DUP2 MSTORE PUSH1 0x20 ADD SWAP1 DUP2 MSTORE PUSH1 0x20 ADD PUSH1 0x0 KECCAK256 PUSH1 0x40 MLOAD DUP1 PUSH2 0x160 ADD PUSH1 0x40 MSTORE SWAP1 DUP2 PUSH1 0x0 DUP3 ADD SLOAD DUP2 MSTORE PUSH1 0x20 ADD PUSH1 0x1 DUP3 ADD SLOAD DUP2 MSTORE PUSH1 0x20 ADD PUSH1 0x2 DUP3 ADD DUP1 SLOAD PUSH2 0xC8D SWAP1 PUSH2 0x5946 JUMP JUMPDEST DUP1 PUSH1 0x1F ADD PUSH1 0x20 DUP1 SWAP2 DIV MUL PUSH1 0x20 ADD PUSH1 0x40 MLOAD SWAP1 DUP2 ADD PUSH1 0x40 MSTORE DUP1 SWAP3 SWAP2 SWAP1 DUP2 DUP2 MSTORE PUSH1 0x20 ADD DUP3 DUP1 SLOAD PUSH2 0xCB9 SWAP1 PUSH2 0x5946 JUMP JUMPDEST DUP1 ISZERO PUSH2 0xD06 JUMPI DUP1 PUSH1 0x1F LT PUSH2 0xCDB JUMPI PUSH2 0x100 DUP1 DUP4 SLOAD DIV MUL DUP4 MSTORE SWAP2 PUSH1 0x20 ADD SWAP2 PUSH2 0xD06 JUMP JUMPDEST DUP3 ADD SWAP2 SWAP1 PUSH1 0x0 MSTORE PUSH1 0x20 PUSH1 0x0 KECCAK256 SWAP1 JUMPDEST DUP2 SLOAD DUP2 MSTORE SWAP1 PUSH1 0x1 ADD SWAP1 PUSH1 0x20 ADD DUP1 DUP4 GT PUSH2 0xCE9 JUMPI DUP3 SWAP1 SUB PUSH1 0x1F AND DUP3 ADD SWAP2 JUMPDEST POP POP POP SWAP2 DUP4 MSTORE POP POP PUSH1 0x3 DUP3 ADD SLOAD PUSH1 0x1 PUSH1 0x1 PUSH1 0xA0 SHL SUB SWAP1 DUP2 AND PUSH1 0x20 DUP1 DUP5 ADD SWAP2 SWAP1 SWAP2 MSTORE PUSH1 0x4 DUP1 DUP6 ADD SLOAD PUSH1 0x40 DUP6 ADD MSTORE PUSH1 0x5 DUP6 ADD SLOAD PUSH1 0x60 DUP6 ADD MSTORE PUSH1 0x6 DUP6 ADD SLOAD PUSH1 0x80 DUP6 ADD MSTORE PUSH1 0x7 DUP6 ADD SLOAD PUSH1 0xFF SWAP1 DUP2 AND ISZERO ISZERO PUSH1 0xA0 DUP7 ADD MSTORE PUSH1 0x8 DUP7 ADD SLOAD PUSH1 0xC0 DUP7 ADD MSTORE PUSH1 0x9 SWAP1 SWAP6 ADD SLOAD SWAP3 DUP4 AND PUSH1 0xE0 DUP6 ADD MSTORE PUSH1 0x1 PUSH1 0xA0 SHL SWAP1 SWAP3 DIV SWAP1 SWAP4 AND ISZERO ISZERO PUSH2 0x100 SWAP1 SWAP3 ADD SWAP2 SWAP1 SWAP2 MSTORE SWAP1 DUP3 ADD MLOAD SWAP2 SWAP3 POP GT PUSH2 0xDAA JUMPI PUSH1 0x40 MLOAD PUSH3 0x461BCD PUSH1 0xE5 SHL DUP2 MSTORE PUSH1 0x4 ADD PUSH2 0x563 SWAP1 PUSH2 0x5981 JUMP JUMPDEST PUSH1 0x0 PUSH1 0x71 PUSH1 0x0 DUP7 DUP2 MSTORE PUSH1 0x20 ADD SWAP1 DUP2 MSTORE PUSH1 0x20 ADD PUSH1 0x0 KECCAK256 PUSH1 0x40 MLOAD DUP1 PUSH2 0x160 ADD PUSH1 0x40 MSTORE SWAP1 DUP2 PUSH1 0x0 DUP3 ADD SLOAD DUP2 MSTORE PUSH1 0x20 ADD PUSH1 0x1 DUP3 ADD SLOAD DUP2 MSTORE PUSH1 0x20 ADD PUSH1 0x2 DUP3 ADD DUP1 SLOAD PUSH2 0xDEF SWAP1 PUSH2 0x5946 JUMP JUMPDEST DUP1 PUSH1 0x1F ADD PUSH1 0x20 DUP1 SWAP2 DIV MUL PUSH1 0x20 ADD PUSH1 0x40 MLOAD SWAP1 DUP2 ADD PUSH1 0x40 MSTORE DUP1 SWAP3 SWAP2 SWAP1 DUP2 DUP2 MSTORE PUSH1 0x20 ADD DUP3 DUP1 SLOAD PUSH2 0xE1B SWAP1 PUSH2 0x5946 JUMP JUMPDEST DUP1 ISZERO PUSH2 0xE68 JUMPI DUP1 PUSH1 0x1F LT PUSH2 0xE3D JUMPI PUSH2 0x100 DUP1 DUP4 SLOAD DIV MUL DUP4 MSTORE SWAP2 PUSH1 0x20 ADD SWAP2 PUSH2 0xE68 JUMP JUMPDEST DUP3 ADD SWAP2 SWAP1 PUSH1 0x0 MSTORE PUSH1 0x20 PUSH1 0x0 KECCAK256 SWAP1 JUMPDEST DUP2 SLOAD DUP2 MSTORE SWAP1 PUSH1 0x1 ADD SWAP1 PUSH1 0x20 ADD DUP1 DUP4 GT PUSH2 0xE4B JUMPI DUP3 SWAP1 SUB PUSH1 0x1F AND DUP3 ADD SWAP2 JUMPDEST POP POP POP SWAP2 DUP4 MSTORE POP POP PUSH1 0x3 DUP3 ADD SLOAD PUSH1 0x1 PUSH1 0x1 PUSH1 0xA0 SHL SUB SWAP1 DUP2 AND PUSH1 0x20 DUP4 ADD MSTORE PUSH1 0x4 DUP4 ADD SLOAD PUSH1 0x40 DUP4 ADD MSTORE PUSH1 0x5 DUP4 ADD SLOAD PUSH1 0x60 DUP4 ADD MSTORE PUSH1 0x6 DUP4 ADD SLOAD PUSH1 0x80 DUP4 ADD MSTORE PUSH1 0x7 DUP4 ADD SLOAD PUSH1 0xFF SWAP1 DUP2 AND ISZERO ISZERO PUSH1 0xA0 DUP5 ADD MSTORE PUSH1 0x8 DUP5 ADD SLOAD PUSH1 0xC0 DUP5 ADD MSTORE PUSH1 0x9 SWAP1 SWAP4 ADD SLOAD SWAP1 DUP2 AND PUSH1 0xE0 DUP4 ADD MSTORE PUSH1 0x1 PUSH1 0xA0 SHL SWAP1 DIV SWAP1 SWAP2 AND ISZERO ISZERO PUSH2 0x100 SWAP1 SWAP2 ADD MSTORE PUSH1 0x6C SLOAD SWAP1 SWAP2 POP DUP6 GT ISZERO PUSH2 0xF40 JUMPI PUSH1 0x40 MLOAD PUSH3 0x461BCD PUSH1 0xE5 SHL DUP2 MSTORE PUSH1 0x20 PUSH1 0x4 DUP3 ADD MSTORE PUSH1 0x23 PUSH1 0x24 DUP3 ADD MSTORE PUSH32 0x42616C6C6F742077697468207468617420496420646F6573204E4F5420657869 PUSH1 0x44 DUP3 ADD MSTORE PUSH3 0x737421 PUSH1 0xE8 SHL PUSH1 0x64 DUP3 ADD MSTORE PUSH1 0x84 ADD PUSH2 0x563 JUMP JUMPDEST PUSH1 0x0 PUSH1 0x18 PUSH1 0x3C DUP1 DUP5 PUSH1 0xA0 ADD MLOAD TIMESTAMP PUSH2 0xF57 SWAP2 SWAP1 PUSH2 0x59CE JUMP JUMPDEST PUSH2 0xF61 SWAP2 SWAP1 PUSH2 0x5A59 JUMP JUMPDEST PUSH2 0xF6B SWAP2 SWAP1 PUSH2 0x5A59 JUMP JUMPDEST PUSH2 0xF75 SWAP2 SWAP1 PUSH2 0x5A59 JUMP JUMPDEST SWAP1 POP DUP2 PUSH1 0xC0 ADD MLOAD DUP2 GT PUSH2 0xFCA JUMPI PUSH1 0x40 MLOAD PUSH3 0x461BCD PUSH1 0xE5 SHL DUP2 MSTORE PUSH1 0x20 PUSH1 0x4 DUP3 ADD MSTORE PUSH1 0x1F PUSH1 0x24 DUP3 ADD MSTORE PUSH32 0x546869732042616C6C6F74206973204E4F542079657420457870697265642100 PUSH1 0x44 DUP3 ADD MSTORE PUSH1 0x64 ADD PUSH2 0x563 JUMP JUMPDEST PUSH2 0x140 DUP3 ADD MLOAD ISZERO ISZERO PUSH1 0x1 EQ ISZERO PUSH2 0x1025 JUMPI PUSH32 0xAF9C5487A5254285C7E0CB270C5884FB3C73E8BF058E80FC0CF380DC6908FAC6 DUP3 PUSH2 0x140 ADD MLOAD PUSH1 0x40 MLOAD PUSH2 0x1012 SWAP2 ISZERO ISZERO DUP2 MSTORE PUSH1 0x20 ADD SWAP1 JUMP JUMPDEST PUSH1 0x40 MLOAD DUP1 SWAP2 SUB SWAP1 LOG1 PUSH1 0x0 SWAP5 POP POP POP PUSH2 0x58A JUMP JUMPDEST POP PUSH2 0x120 ADD MLOAD SWAP3 POP PUSH2 0x58A JUMP JUMPDEST PUSH2 0x103A PUSH2 0x2B4C JUMP JUMPDEST PUSH1 0x65 SLOAD PUSH1 0x40 MLOAD PUSH1 0x1 PUSH1 0x1 PUSH1 0xA0 SHL SUB SWAP1 SWAP2 AND SWAP1 SELFBALANCE DUP1 ISZERO PUSH2 0x8FC MUL SWAP2 PUSH1 0x0 DUP2 DUP2 DUP2 DUP6 DUP9 DUP9 CALL SWAP4 POP POP POP POP ISZERO DUP1 ISZERO PUSH2 0x1073 JUMPI RETURNDATASIZE PUSH1 0x0 DUP1 RETURNDATACOPY RETURNDATASIZE PUSH1 0x0 REVERT JUMPDEST POP JUMP JUMPDEST DUP2 DUP2 PUSH1 0x0 PUSH1 0x71 PUSH1 0x0 DUP4 DUP2 MSTORE PUSH1 0x20 ADD SWAP1 DUP2 MSTORE PUSH1 0x20 ADD PUSH1 0x0 KECCAK256 PUSH1 0x40 MLOAD DUP1 PUSH2 0x160 ADD PUSH1 0x40 MSTORE SWAP1 DUP2 PUSH1 0x0 DUP3 ADD SLOAD DUP2 MSTORE PUSH1 0x20 ADD PUSH1 0x1 DUP3 ADD SLOAD DUP2 MSTORE PUSH1 0x20 ADD PUSH1 0x2 DUP3 ADD DUP1 SLOAD PUSH2 0x10BD SWAP1 PUSH2 0x5946 JUMP JUMPDEST DUP1 PUSH1 0x1F ADD PUSH1 0x20 DUP1 SWAP2 DIV MUL PUSH1 0x20 ADD PUSH1 0x40 MLOAD SWAP1 DUP2 ADD PUSH1 0x40 MSTORE DUP1 SWAP3 SWAP2 SWAP1 DUP2 DUP2 MSTORE PUSH1 0x20 ADD DUP3 DUP1 SLOAD PUSH2 0x10E9 SWAP1 PUSH2 0x5946 JUMP JUMPDEST DUP1 ISZERO PUSH2 0x1136 JUMPI DUP1 PUSH1 0x1F LT PUSH2 0x110B JUMPI PUSH2 0x100 DUP1 DUP4 SLOAD DIV MUL DUP4 MSTORE SWAP2 PUSH1 0x20 ADD SWAP2 PUSH2 0x1136 JUMP JUMPDEST DUP3 ADD SWAP2 SWAP1 PUSH1 0x0 MSTORE PUSH1 0x20 PUSH1 0x0 KECCAK256 SWAP1 JUMPDEST DUP2 SLOAD DUP2 MSTORE SWAP1 PUSH1 0x1 ADD SWAP1 PUSH1 0x20 ADD DUP1 DUP4 GT PUSH2 0x1119 JUMPI DUP3 SWAP1 SUB PUSH1 0x1F AND DUP3 ADD SWAP2 JUMPDEST POP POP POP SWAP2 DUP4 MSTORE POP POP PUSH1 0x3 DUP3 ADD SLOAD PUSH1 0x1 PUSH1 0x1 PUSH1 0xA0 SHL SUB SWAP1 DUP2 AND PUSH1 0x20 DUP4 ADD MSTORE PUSH1 0x4 DUP4 ADD SLOAD PUSH1 0x40 DUP4 ADD MSTORE PUSH1 0x5 DUP4 ADD SLOAD PUSH1 0x60 DUP4 ADD MSTORE PUSH1 0x6 DUP4 ADD SLOAD PUSH1 0x80 DUP4 ADD MSTORE PUSH1 0x7 DUP4 ADD SLOAD PUSH1 0xFF SWAP1 DUP2 AND ISZERO ISZERO PUSH1 0xA0 DUP1 DUP6 ADD SWAP2 SWAP1 SWAP2 MSTORE PUSH1 0x8 DUP6 ADD SLOAD PUSH1 0xC0 DUP6 ADD MSTORE PUSH1 0x9 SWAP1 SWAP5 ADD SLOAD SWAP2 DUP3 AND PUSH1 0xE0 DUP5 ADD MSTORE PUSH1 0x1 PUSH1 0xA0 SHL SWAP1 SWAP2 DIV AND ISZERO ISZERO PUSH2 0x100 SWAP1 SWAP2 ADD MSTORE DUP2 ADD MLOAD SWAP1 SWAP2 POP PUSH1 0x0 SWAP1 PUSH2 0x11C3 SWAP1 TIMESTAMP PUSH2 0x59CE JUMP JUMPDEST PUSH1 0x69 SLOAD SWAP1 SWAP2 POP PUSH1 0x1 DUP2 LT ISZERO PUSH2 0x11EA JUMPI PUSH1 0x40 MLOAD PUSH3 0x461BCD PUSH1 0xE5 SHL DUP2 MSTORE PUSH1 0x4 ADD PUSH2 0x563 SWAP1 PUSH2 0x59FB JUMP JUMPDEST PUSH1 0xC0 DUP4 ADD MLOAD PUSH2 0x11FC SWAP1 PUSH3 0x15180 PUSH2 0x5A7B JUMP JUMPDEST DUP3 LT PUSH2 0x121A JUMPI PUSH1 0x40 MLOAD PUSH3 0x461BCD PUSH1 0xE5 SHL DUP2 MSTORE PUSH1 0x4 ADD PUSH2 0x563 SWAP1 PUSH2 0x5A2B JUMP JUMPDEST CALLER PUSH1 0x0 SWAP1 DUP2 MSTORE PUSH1 0x79 PUSH1 0x20 SWAP1 DUP2 MSTORE PUSH1 0x40 SWAP2 DUP3 SWAP1 KECCAK256 DUP1 SLOAD DUP4 MLOAD DUP2 DUP5 MUL DUP2 ADD DUP5 ADD SWAP1 SWAP5 MSTORE DUP1 DUP5 MSTORE PUSH2 0x127D SWAP4 SWAP3 DUP4 ADD DUP3 DUP3 DUP1 ISZERO PUSH2 0x1272 JUMPI PUSH1 0x20 MUL DUP3 ADD SWAP2 SWAP1 PUSH1 0x0 MSTORE PUSH1 0x20 PUSH1 0x0 KECCAK256 SWAP1 JUMPDEST DUP2 SLOAD DUP2 MSTORE PUSH1 0x20 ADD SWAP1 PUSH1 0x1 ADD SWAP1 DUP1 DUP4 GT PUSH2 0x125E JUMPI JUMPDEST POP POP POP POP POP DUP6 PUSH2 0x2BA6 JUMP JUMPDEST ISZERO PUSH2 0x129A JUMPI PUSH1 0x40 MLOAD PUSH3 0x461BCD PUSH1 0xE5 SHL DUP2 MSTORE PUSH1 0x4 ADD PUSH2 0x563 SWAP1 PUSH2 0x5A9A JUMP JUMPDEST PUSH1 0x0 DUP6 DUP2 MSTORE PUSH1 0x7B PUSH1 0x20 SWAP1 DUP2 MSTORE PUSH1 0x40 SWAP2 DUP3 SWAP1 KECCAK256 DUP1 SLOAD DUP4 MLOAD DUP2 DUP5 MUL DUP2 ADD DUP5 ADD SWAP1 SWAP5 MSTORE DUP1 DUP5 MSTORE PUSH2 0x12FA SWAP4 SWAP3 DUP4 ADD DUP3 DUP3 DUP1 ISZERO PUSH2 0x1272 JUMPI PUSH1 0x20 MUL DUP3 ADD SWAP2 SWAP1 PUSH1 0x0 MSTORE PUSH1 0x20 PUSH1 0x0 KECCAK256 SWAP1 DUP2 SLOAD DUP2 MSTORE PUSH1 0x20 ADD SWAP1 PUSH1 0x1 ADD SWAP1 DUP1 DUP4 GT PUSH2 0x125E JUMPI POP POP POP POP POP DUP6 PUSH2 0x2BA6 JUMP JUMPDEST ISZERO PUSH2 0x1317 JUMPI PUSH1 0x40 MLOAD PUSH3 0x461BCD PUSH1 0xE5 SHL DUP2 MSTORE PUSH1 0x4 ADD PUSH2 0x563 SWAP1 PUSH2 0x5ADC JUMP JUMPDEST PUSH2 0x100 DUP4 ADD MLOAD PUSH2 0x132A SWAP1 PUSH3 0x15180 PUSH2 0x5A7B JUMP JUMPDEST DUP3 LT PUSH2 0x1348 JUMPI PUSH1 0x40 MLOAD PUSH3 0x461BCD PUSH1 0xE5 SHL DUP2 MSTORE PUSH1 0x4 ADD PUSH2 0x563 SWAP1 PUSH2 0x5B21 JUMP JUMPDEST PUSH1 0x0 PUSH1 0x71 PUSH1 0x0 DUP9 DUP2 MSTORE PUSH1 0x20 ADD SWAP1 DUP2 MSTORE PUSH1 0x20 ADD PUSH1 0x0 KECCAK256 PUSH1 0x40 MLOAD DUP1 PUSH2 0x160 ADD PUSH1 0x40 MSTORE SWAP1 DUP2 PUSH1 0x0 DUP3 ADD SLOAD DUP2 MSTORE PUSH1 0x20 ADD PUSH1 0x1 DUP3 ADD SLOAD DUP2 MSTORE PUSH1 0x20 ADD PUSH1 0x2 DUP3 ADD DUP1 SLOAD PUSH2 0x138D SWAP1 PUSH2 0x5946 JUMP JUMPDEST DUP1 PUSH1 0x1F ADD PUSH1 0x20 DUP1 SWAP2 DIV MUL PUSH1 0x20 ADD PUSH1 0x40 MLOAD SWAP1 DUP2 ADD PUSH1 0x40 MSTORE DUP1 SWAP3 SWAP2 SWAP1 DUP2 DUP2 MSTORE PUSH1 0x20 ADD DUP3 DUP1 SLOAD PUSH2 0x13B9 SWAP1 PUSH2 0x5946 JUMP JUMPDEST DUP1 ISZERO PUSH2 0x1406 JUMPI DUP1 PUSH1 0x1F LT PUSH2 0x13DB JUMPI PUSH2 0x100 DUP1 DUP4 SLOAD DIV MUL DUP4 MSTORE SWAP2 PUSH1 0x20 ADD SWAP2 PUSH2 0x1406 JUMP JUMPDEST DUP3 ADD SWAP2 SWAP1 PUSH1 0x0 MSTORE PUSH1 0x20 PUSH1 0x0 KECCAK256 SWAP1 JUMPDEST DUP2 SLOAD DUP2 MSTORE SWAP1 PUSH1 0x1 ADD SWAP1 PUSH1 0x20 ADD DUP1 DUP4 GT PUSH2 0x13E9 JUMPI DUP3 SWAP1 SUB PUSH1 0x1F AND DUP3 ADD SWAP2 JUMPDEST POP POP POP SWAP2 DUP4 MSTORE POP POP PUSH1 0x3 DUP3 ADD SLOAD PUSH1 0x1 PUSH1 0x1 PUSH1 0xA0 SHL SUB SWAP1 DUP2 AND PUSH1 0x20 DUP1 DUP5 ADD SWAP2 SWAP1 SWAP2 MSTORE PUSH1 0x4 DUP5 ADD SLOAD PUSH1 0x40 DUP5 ADD MSTORE PUSH1 0x5 DUP5 ADD SLOAD PUSH1 0x60 DUP5 ADD MSTORE PUSH1 0x6 DUP5 ADD SLOAD PUSH1 0x80 DUP5 ADD MSTORE PUSH1 0x7 DUP5 ADD SLOAD PUSH1 0xFF SWAP1 DUP2 AND ISZERO ISZERO PUSH1 0xA0 DUP6 ADD MSTORE PUSH1 0x8 DUP6 ADD SLOAD PUSH1 0xC0 DUP6 ADD MSTORE PUSH1 0x9 SWAP1 SWAP5 ADD SLOAD SWAP2 DUP3 AND PUSH1 0xE0 DUP5 ADD MSTORE PUSH1 0x1 PUSH1 0xA0 SHL SWAP1 SWAP2 DIV SWAP1 SWAP3 AND ISZERO ISZERO PUSH2 0x100 SWAP1 SWAP2 ADD MSTORE DUP2 ADD MLOAD SWAP1 SWAP2 POP PUSH2 0x149B JUMPI PUSH2 0x1496 DUP9 DUP9 PUSH2 0x2C00 JUMP JUMPDEST PUSH2 0x150D JUMP JUMPDEST DUP1 PUSH1 0x20 ADD MLOAD PUSH1 0x1 EQ DUP1 PUSH2 0x14B2 JUMPI POP DUP1 PUSH1 0x20 ADD MLOAD PUSH1 0x4 EQ JUMPDEST ISZERO PUSH2 0x14C1 JUMPI PUSH2 0x1496 DUP9 DUP9 PUSH2 0x2F0A JUMP JUMPDEST DUP1 PUSH1 0x20 ADD MLOAD PUSH1 0x2 EQ DUP1 PUSH2 0x14D8 JUMPI POP DUP1 PUSH1 0x20 ADD MLOAD PUSH1 0x5 EQ JUMPDEST ISZERO PUSH2 0x14E7 JUMPI PUSH2 0x1496 DUP9 DUP9 PUSH2 0x3224 JUMP JUMPDEST DUP1 PUSH1 0x20 ADD MLOAD PUSH1 0x3 EQ DUP1 PUSH2 0x14FE JUMPI POP DUP1 PUSH1 0x20 ADD MLOAD PUSH1 0x6 EQ JUMPDEST ISZERO PUSH2 0x150D JUMPI PUSH2 0x150D DUP9 DUP9 PUSH2 0x3535 JUMP JUMPDEST POP POP POP POP POP POP POP POP JUMP JUMPDEST PUSH1 0x0 DUP2 DUP2 MSTORE PUSH1 0x71 PUSH1 0x20 MSTORE PUSH1 0x40 DUP2 KECCAK256 PUSH1 0x5 DUP2 ADD SLOAD SWAP1 SWAP2 SWAP1 PUSH1 0x18 SWAP1 PUSH1 0x3C SWAP1 DUP2 SWAP1 PUSH2 0x153F SWAP1 TIMESTAMP PUSH2 0x59CE JUMP JUMPDEST PUSH2 0x1549 SWAP2 SWAP1 PUSH2 0x5A59 JUMP JUMPDEST PUSH2 0x1553 SWAP2 SWAP1 PUSH2 0x5A59 JUMP JUMPDEST PUSH2 0x155D SWAP2 SWAP1 PUSH2 0x5A59 JUMP JUMPDEST SWAP1 POP DUP2 PUSH1 0x6 ADD SLOAD DUP2 LT PUSH2 0x15B2 JUMPI PUSH1 0x40 MLOAD PUSH3 0x461BCD PUSH1 0xE5 SHL DUP2 MSTORE PUSH1 0x20 PUSH1 0x4 DUP3 ADD MSTORE PUSH1 0x1F PUSH1 0x24 DUP3 ADD MSTORE PUSH32 0x546869732042616C6C6F74206973204E4F542079657420457870697265642100 PUSH1 0x44 DUP3 ADD MSTORE PUSH1 0x64 ADD PUSH2 0x563 JUMP JUMPDEST PUSH1 0x3 DUP3 ADD SLOAD PUSH1 0x1 PUSH1 0x1 PUSH1 0xA0 SHL SUB AND CALLER EQ PUSH2 0x160A JUMPI PUSH1 0x40 MLOAD PUSH3 0x461BCD PUSH1 0xE5 SHL DUP2 MSTORE PUSH1 0x20 PUSH1 0x4 DUP3 ADD MSTORE PUSH1 0x19 PUSH1 0x24 DUP3 ADD MSTORE PUSH25 0x496E73756666696369656E74205065726D697373696F6E7321 PUSH1 0x38 SHL PUSH1 0x44 DUP3 ADD MSTORE PUSH1 0x64 ADD PUSH2 0x563 JUMP JUMPDEST PUSH1 0x7 DUP3 DUP2 ADD DUP1 SLOAD PUSH1 0x1 PUSH1 0xFF NOT SWAP2 DUP3 AND DUP2 OR SWAP1 SWAP3 SSTORE CALLER PUSH1 0x0 SWAP1 DUP2 MSTORE PUSH1 0x70 PUSH1 0x20 SWAP1 DUP2 MSTORE PUSH1 0x40 DUP1 DUP4 KECCAK256 DUP7 ADD DUP1 SLOAD DUP6 AND DUP7 OR SWAP1 SSTORE DUP9 DUP4 MSTORE PUSH1 0x71 DUP3 MSTORE SWAP2 DUP3 SWAP1 KECCAK256 SWAP1 SWAP5 ADD DUP1 SLOAD SWAP1 SWAP3 AND SWAP1 SWAP3 OR SWAP1 SSTORE MLOAD DUP5 DUP2 MSTORE PUSH32 0xEE47B3AB572870E3B3BC916BCDED65025F6AD6E7795583611F5A9085502148E7 SWAP2 ADD PUSH1 0x40 MLOAD DUP1 SWAP2 SUB SWAP1 LOG1 POP POP POP JUMP JUMPDEST DUP2 DUP2 PUSH1 0x0 PUSH1 0x71 PUSH1 0x0 DUP4 DUP2 MSTORE PUSH1 0x20 ADD SWAP1 DUP2 MSTORE PUSH1 0x20 ADD PUSH1 0x0 KECCAK256 PUSH1 0x40 MLOAD DUP1 PUSH2 0x160 ADD PUSH1 0x40 MSTORE SWAP1 DUP2 PUSH1 0x0 DUP3 ADD SLOAD DUP2 MSTORE PUSH1 0x20 ADD PUSH1 0x1 DUP3 ADD SLOAD DUP2 MSTORE PUSH1 0x20 ADD PUSH1 0x2 DUP3 ADD DUP1 SLOAD PUSH2 0x16CD SWAP1 PUSH2 0x5946 JUMP JUMPDEST DUP1 PUSH1 0x1F ADD PUSH1 0x20 DUP1 SWAP2 DIV MUL PUSH1 0x20 ADD PUSH1 0x40 MLOAD SWAP1 DUP2 ADD PUSH1 0x40 MSTORE DUP1 SWAP3 SWAP2 SWAP1 DUP2 DUP2 MSTORE PUSH1 0x20 ADD DUP3 DUP1 SLOAD PUSH2 0x16F9 SWAP1 PUSH2 0x5946 JUMP JUMPDEST DUP1 ISZERO PUSH2 0x1746 JUMPI DUP1 PUSH1 0x1F LT PUSH2 0x171B JUMPI PUSH2 0x100 DUP1 DUP4 SLOAD DIV MUL DUP4 MSTORE SWAP2 PUSH1 0x20 ADD SWAP2 PUSH2 0x1746 JUMP JUMPDEST DUP3 ADD SWAP2 SWAP1 PUSH1 0x0 MSTORE PUSH1 0x20 PUSH1 0x0 KECCAK256 SWAP1 JUMPDEST DUP2 SLOAD DUP2 MSTORE SWAP1 PUSH1 0x1 ADD SWAP1 PUSH1 0x20 ADD DUP1 DUP4 GT PUSH2 0x1729 JUMPI DUP3 SWAP1 SUB PUSH1 0x1F AND DUP3 ADD SWAP2 JUMPDEST POP POP POP SWAP2 DUP4 MSTORE POP POP PUSH1 0x3 DUP3 DUP2 ADD SLOAD PUSH1 0x1 PUSH1 0x1 PUSH1 0xA0 SHL SUB SWAP1 DUP2 AND PUSH1 0x20 DUP1 DUP6 ADD SWAP2 SWAP1 SWAP2 MSTORE PUSH1 0x4 DUP6 ADD SLOAD PUSH1 0x40 DUP1 DUP7 ADD SWAP2 SWAP1 SWAP2 MSTORE PUSH1 0x5 DUP7 ADD SLOAD PUSH1 0x60 DUP7 ADD MSTORE PUSH1 0x6 DUP7 ADD SLOAD PUSH1 0x80 DUP7 ADD MSTORE PUSH1 0x7 DUP7 ADD SLOAD PUSH1 0xFF SWAP1 DUP2 AND ISZERO ISZERO PUSH1 0xA0 DUP8 ADD MSTORE PUSH1 0x8 DUP8 ADD SLOAD PUSH1 0xC0 DUP8 ADD MSTORE PUSH1 0x9 SWAP1 SWAP7 ADD SLOAD SWAP3 DUP4 AND PUSH1 0xE0 DUP7 ADD MSTORE PUSH1 0x1 PUSH1 0xA0 SHL SWAP1 SWAP3 DIV DUP6 AND ISZERO ISZERO PUSH2 0x100 SWAP1 SWAP5 ADD SWAP4 SWAP1 SWAP4 MSTORE CALLER PUSH1 0x0 SWAP1 DUP2 MSTORE PUSH1 0x76 SWAP1 SWAP4 MSTORE SWAP1 SWAP2 KECCAK256 ADD SLOAD SWAP2 SWAP3 POP AND ISZERO ISZERO PUSH1 0x1 EQ PUSH2 0x17FE JUMPI PUSH1 0x40 MLOAD PUSH3 0x461BCD PUSH1 0xE5 SHL DUP2 MSTORE PUSH1 0x4 ADD PUSH2 0x563 SWAP1 PUSH2 0x5B58 JUMP JUMPDEST CALLER PUSH1 0x0 SWAP1 DUP2 MSTORE PUSH1 0x7A PUSH1 0x20 SWAP1 DUP2 MSTORE PUSH1 0x40 SWAP2 DUP3 SWAP1 KECCAK256 DUP1 SLOAD DUP4 MLOAD DUP2 DUP5 MUL DUP2 ADD DUP5 ADD SWAP1 SWAP5 MSTORE DUP1 DUP5 MSTORE PUSH2 0x1861 SWAP4 SWAP3 DUP4 ADD DUP3 DUP3 DUP1 ISZERO PUSH2 0x1856 JUMPI PUSH1 0x20 MUL DUP3 ADD SWAP2 SWAP1 PUSH1 0x0 MSTORE PUSH1 0x20 PUSH1 0x0 KECCAK256 SWAP1 JUMPDEST DUP2 SLOAD DUP2 MSTORE PUSH1 0x20 ADD SWAP1 PUSH1 0x1 ADD SWAP1 DUP1 DUP4 GT PUSH2 0x1842 JUMPI JUMPDEST POP POP POP POP POP DUP4 PUSH2 0x2BA6 JUMP JUMPDEST ISZERO PUSH2 0x187E JUMPI PUSH1 0x40 MLOAD PUSH3 0x461BCD PUSH1 0xE5 SHL DUP2 MSTORE PUSH1 0x4 ADD PUSH2 0x563 SWAP1 PUSH2 0x5B8F JUMP JUMPDEST PUSH1 0x0 DUP3 DUP2 MSTORE PUSH1 0x71 PUSH1 0x20 MSTORE PUSH1 0x40 SWAP1 KECCAK256 SLOAD DUP3 EQ PUSH2 0x18AB JUMPI PUSH1 0x40 MLOAD PUSH3 0x461BCD PUSH1 0xE5 SHL DUP2 MSTORE PUSH1 0x4 ADD PUSH2 0x563 SWAP1 PUSH2 0x5BD9 JUMP JUMPDEST PUSH1 0xE0 DUP2 ADD MLOAD ISZERO PUSH2 0x18CD JUMPI PUSH1 0x40 MLOAD PUSH3 0x461BCD PUSH1 0xE5 SHL DUP2 MSTORE PUSH1 0x4 ADD PUSH2 0x563 SWAP1 PUSH2 0x5C05 JUMP JUMPDEST PUSH1 0x1 PUSH1 0x1 PUSH1 0xA0 SHL SUB DUP4 AND PUSH1 0x0 SWAP1 DUP2 MSTORE PUSH1 0x74 PUSH1 0x20 MSTORE PUSH1 0x40 SWAP1 KECCAK256 PUSH1 0x1 ADD SLOAD DUP3 EQ PUSH2 0x1907 JUMPI PUSH1 0x40 MLOAD PUSH3 0x461BCD PUSH1 0xE5 SHL DUP2 MSTORE PUSH1 0x4 ADD PUSH2 0x563 SWAP1 PUSH2 0x5C31 JUMP JUMPDEST PUSH1 0x0 PUSH2 0x1914 PUSH1 0x64 DUP7 PUSH2 0x59CE JUMP JUMPDEST SWAP1 POP PUSH1 0x0 PUSH1 0x69 DUP3 DUP2 SLOAD DUP2 LT PUSH2 0x192B JUMPI PUSH2 0x192B PUSH2 0x59E5 JUMP JUMPDEST SWAP1 PUSH1 0x0 MSTORE PUSH1 0x20 PUSH1 0x0 KECCAK256 SWAP1 PUSH1 0xA MUL ADD PUSH1 0x40 MLOAD DUP1 PUSH2 0x160 ADD PUSH1 0x40 MSTORE SWAP1 DUP2 PUSH1 0x0 DUP3 ADD SLOAD DUP2 MSTORE PUSH1 0x20 ADD PUSH1 0x1 DUP3 ADD SLOAD DUP2 MSTORE PUSH1 0x20 ADD PUSH1 0x2 DUP3 ADD DUP1 SLOAD PUSH2 0x1969 SWAP1 PUSH2 0x5946 JUMP JUMPDEST DUP1 PUSH1 0x1F ADD PUSH1 0x20 DUP1 SWAP2 DIV MUL PUSH1 0x20 ADD PUSH1 0x40 MLOAD SWAP1 DUP2 ADD PUSH1 0x40 MSTORE DUP1 SWAP3 SWAP2 SWAP1 DUP2 DUP2 MSTORE PUSH1 0x20 ADD DUP3 DUP1 SLOAD PUSH2 0x1995 SWAP1 PUSH2 0x5946 JUMP JUMPDEST DUP1 ISZERO PUSH2 0x19E2 JUMPI DUP1 PUSH1 0x1F LT PUSH2 0x19B7 JUMPI PUSH2 0x100 DUP1 DUP4 SLOAD DIV MUL DUP4 MSTORE SWAP2 PUSH1 0x20 ADD SWAP2 PUSH2 0x19E2 JUMP JUMPDEST DUP3 ADD SWAP2 SWAP1 PUSH1 0x0 MSTORE PUSH1 0x20 PUSH1 0x0 KECCAK256 SWAP1 JUMPDEST DUP2 SLOAD DUP2 MSTORE SWAP1 PUSH1 0x1 ADD SWAP1 PUSH1 0x20 ADD DUP1 DUP4 GT PUSH2 0x19C5 JUMPI DUP3 SWAP1 SUB PUSH1 0x1F AND DUP3 ADD SWAP2 JUMPDEST POP POP POP SWAP2 DUP4 MSTORE POP POP PUSH1 0x3 DUP3 ADD SLOAD PUSH1 0x1 PUSH1 0x1 PUSH1 0xA0 SHL SUB SWAP1 DUP2 AND PUSH1 0x20 DUP1 DUP5 ADD SWAP2 SWAP1 SWAP2 MSTORE PUSH1 0x4 DUP5 ADD SLOAD PUSH1 0x40 DUP5 ADD MSTORE PUSH1 0x5 DUP5 ADD SLOAD PUSH1 0x60 DUP5 ADD MSTORE PUSH1 0x6 DUP5 ADD SLOAD PUSH1 0x80 DUP5 ADD MSTORE PUSH1 0x7 DUP5 ADD SLOAD PUSH1 0xFF SWAP1 DUP2 AND ISZERO ISZERO PUSH1 0xA0 DUP6 ADD MSTORE PUSH1 0x8 DUP6 ADD SLOAD PUSH1 0xC0 DUP6 ADD MSTORE PUSH1 0x9 SWAP1 SWAP5 ADD SLOAD SWAP2 DUP3 AND PUSH1 0xE0 DUP5 ADD MSTORE PUSH1 0x1 PUSH1 0xA0 SHL SWAP1 SWAP2 DIV SWAP1 SWAP3 AND ISZERO ISZERO PUSH2 0x100 SWAP1 SWAP2 ADD MSTORE DUP2 ADD MLOAD SWAP1 SWAP2 POP PUSH2 0x1A99 JUMPI PUSH2 0x1A72 DUP8 DUP8 PUSH2 0x3845 JUMP JUMPDEST CALLER PUSH1 0x0 SWAP1 DUP2 MSTORE PUSH1 0x7A PUSH1 0x20 SWAP1 DUP2 MSTORE PUSH1 0x40 DUP3 KECCAK256 DUP1 SLOAD PUSH1 0x1 DUP2 ADD DUP3 SSTORE SWAP1 DUP4 MSTORE SWAP2 KECCAK256 ADD DUP7 SWAP1 SSTORE PUSH2 0x1B01 JUMP JUMPDEST DUP1 PUSH1 0x20 ADD MLOAD PUSH1 0x1 EQ ISZERO PUSH2 0x1AB0 JUMPI PUSH2 0x1A72 DUP8 DUP8 PUSH2 0x3C1F JUMP JUMPDEST DUP1 PUSH1 0x20 ADD MLOAD PUSH1 0x2 EQ ISZERO PUSH2 0x1AC7 JUMPI PUSH2 0x1A72 DUP8 DUP8 PUSH2 0x40E8 JUMP JUMPDEST DUP1 PUSH1 0x20 ADD MLOAD PUSH1 0x3 EQ ISZERO PUSH2 0x1B01 JUMPI PUSH2 0x1ADE DUP8 DUP8 PUSH2 0x44E0 JUMP JUMPDEST CALLER PUSH1 0x0 SWAP1 DUP2 MSTORE PUSH1 0x7A PUSH1 0x20 SWAP1 DUP2 MSTORE PUSH1 0x40 DUP3 KECCAK256 DUP1 SLOAD PUSH1 0x1 DUP2 ADD DUP3 SSTORE SWAP1 DUP4 MSTORE SWAP2 KECCAK256 ADD DUP7 SWAP1 SSTORE JUMPDEST POP POP POP POP POP POP POP JUMP JUMPDEST PUSH2 0x1B12 PUSH2 0x2B4C JUMP JUMPDEST PUSH2 0x1B1C PUSH1 0x0 PUSH2 0x4986 JUMP JUMPDEST JUMP JUMPDEST PUSH2 0x1B91 PUSH1 0x40 MLOAD DUP1 PUSH2 0x160 ADD PUSH1 0x40 MSTORE DUP1 PUSH1 0x0 DUP2 MSTORE PUSH1 0x20 ADD PUSH1 0x0 DUP2 MSTORE PUSH1 0x20 ADD PUSH1 0x60 DUP2 MSTORE PUSH1 0x20 ADD PUSH1 0x0 PUSH1 0x1 PUSH1 0x1 PUSH1 0xA0 SHL SUB AND DUP2 MSTORE PUSH1 0x20 ADD PUSH1 0x0 DUP2 MSTORE PUSH1 0x20 ADD PUSH1 0x0 DUP2 MSTORE PUSH1 0x20 ADD PUSH1 0x0 DUP2 MSTORE PUSH1 0x20 ADD PUSH1 0x0 ISZERO ISZERO DUP2 MSTORE PUSH1 0x20 ADD PUSH1 0x0 DUP2 MSTORE PUSH1 0x20 ADD PUSH1 0x0 PUSH1 0x1 PUSH1 0x1 PUSH1 0xA0 SHL SUB AND DUP2 MSTORE PUSH1 0x20 ADD PUSH1 0x0 ISZERO ISZERO DUP2 MSTORE POP SWAP1 JUMP JUMPDEST DUP2 PUSH1 0x0 PUSH1 0x71 PUSH1 0x0 DUP4 DUP2 MSTORE PUSH1 0x20 ADD SWAP1 DUP2 MSTORE PUSH1 0x20 ADD PUSH1 0x0 KECCAK256 PUSH1 0x40 MLOAD DUP1 PUSH2 0x160 ADD PUSH1 0x40 MSTORE SWAP1 DUP2 PUSH1 0x0 DUP3 ADD SLOAD DUP2 MSTORE PUSH1 0x20 ADD PUSH1 0x1 DUP3 ADD SLOAD DUP2 MSTORE PUSH1 0x20 ADD PUSH1 0x2 DUP3 ADD DUP1 SLOAD PUSH2 0x1BD7 SWAP1 PUSH2 0x5946 JUMP JUMPDEST DUP1 PUSH1 0x1F ADD PUSH1 0x20 DUP1 SWAP2 DIV MUL PUSH1 0x20 ADD PUSH1 0x40 MLOAD SWAP1 DUP2 ADD PUSH1 0x40 MSTORE DUP1 SWAP3 SWAP2 SWAP1 DUP2 DUP2 MSTORE PUSH1 0x20 ADD DUP3 DUP1 SLOAD PUSH2 0x1C03 SWAP1 PUSH2 0x5946 JUMP JUMPDEST DUP1 ISZERO PUSH2 0x1C50 JUMPI DUP1 PUSH1 0x1F LT PUSH2 0x1C25 JUMPI PUSH2 0x100 DUP1 DUP4 SLOAD DIV MUL DUP4 MSTORE SWAP2 PUSH1 0x20 ADD SWAP2 PUSH2 0x1C50 JUMP JUMPDEST DUP3 ADD SWAP2 SWAP1 PUSH1 0x0 MSTORE PUSH1 0x20 PUSH1 0x0 KECCAK256 SWAP1 JUMPDEST DUP2 SLOAD DUP2 MSTORE SWAP1 PUSH1 0x1 ADD SWAP1 PUSH1 0x20 ADD DUP1 DUP4 GT PUSH2 0x1C33 JUMPI DUP3 SWAP1 SUB PUSH1 0x1F AND DUP3 ADD SWAP2 JUMPDEST POP POP POP SWAP2 DUP4 MSTORE POP POP PUSH1 0x3 DUP3 ADD SLOAD PUSH1 0x1 PUSH1 0x1 PUSH1 0xA0 SHL SUB SWAP1 DUP2 AND PUSH1 0x20 DUP1 DUP5 ADD SWAP2 SWAP1 SWAP2 MSTORE PUSH1 0x4 DUP1 DUP6 ADD SLOAD PUSH1 0x40 DUP6 ADD MSTORE PUSH1 0x5 DUP6 ADD SLOAD PUSH1 0x60 DUP6 ADD MSTORE PUSH1 0x6 DUP6 ADD SLOAD PUSH1 0x80 DUP6 ADD MSTORE PUSH1 0x7 DUP6 ADD SLOAD PUSH1 0xFF SWAP1 DUP2 AND ISZERO ISZERO PUSH1 0xA0 DUP7 ADD MSTORE PUSH1 0x8 DUP7 ADD SLOAD PUSH1 0xC0 DUP7 ADD MSTORE PUSH1 0x9 SWAP1 SWAP6 ADD SLOAD SWAP3 DUP4 AND PUSH1 0xE0 DUP6 ADD MSTORE PUSH1 0x1 PUSH1 0xA0 SHL SWAP1 SWAP3 DIV SWAP1 SWAP4 AND ISZERO ISZERO PUSH2 0x100 SWAP1 SWAP3 ADD SWAP2 SWAP1 SWAP2 MSTORE SWAP1 DUP3 ADD MLOAD SWAP2 SWAP3 POP GT PUSH2 0x1CF4 JUMPI PUSH1 0x40 MLOAD PUSH3 0x461BCD PUSH1 0xE5 SHL DUP2 MSTORE PUSH1 0x4 ADD PUSH2 0x563 SWAP1 PUSH2 0x5981 JUMP JUMPDEST PUSH1 0x71 PUSH1 0x0 DUP6 DUP2 MSTORE PUSH1 0x20 ADD SWAP1 DUP2 MSTORE PUSH1 0x20 ADD PUSH1 0x0 KECCAK256 PUSH1 0x40 MLOAD DUP1 PUSH2 0x160 ADD PUSH1 0x40 MSTORE SWAP1 DUP2 PUSH1 0x0 DUP3 ADD SLOAD DUP2 MSTORE PUSH1 0x20 ADD PUSH1 0x1 DUP3 ADD SLOAD DUP2 MSTORE PUSH1 0x20 ADD PUSH1 0x2 DUP3 ADD DUP1 SLOAD PUSH2 0x1D37 SWAP1 PUSH2 0x5946 JUMP JUMPDEST DUP1 PUSH1 0x1F ADD PUSH1 0x20 DUP1 SWAP2 DIV MUL PUSH1 0x20 ADD PUSH1 0x40 MLOAD SWAP1 DUP2 ADD PUSH1 0x40 MSTORE DUP1 SWAP3 SWAP2 SWAP1 DUP2 DUP2 MSTORE PUSH1 0x20 ADD DUP3 DUP1 SLOAD PUSH2 0x1D63 SWAP1 PUSH2 0x5946 JUMP JUMPDEST DUP1 ISZERO PUSH2 0x1DB0 JUMPI DUP1 PUSH1 0x1F LT PUSH2 0x1D85 JUMPI PUSH2 0x100 DUP1 DUP4 SLOAD DIV MUL DUP4 MSTORE SWAP2 PUSH1 0x20 ADD SWAP2 PUSH2 0x1DB0 JUMP JUMPDEST DUP3 ADD SWAP2 SWAP1 PUSH1 0x0 MSTORE PUSH1 0x20 PUSH1 0x0 KECCAK256 SWAP1 JUMPDEST DUP2 SLOAD DUP2 MSTORE SWAP1 PUSH1 0x1 ADD SWAP1 PUSH1 0x20 ADD DUP1 DUP4 GT PUSH2 0x1D93 JUMPI DUP3 SWAP1 SUB PUSH1 0x1F AND DUP3 ADD SWAP2 JUMPDEST POP POP POP SWAP2 DUP4 MSTORE POP POP PUSH1 0x3 DUP3 ADD SLOAD PUSH1 0x1 PUSH1 0x1 PUSH1 0xA0 SHL SUB SWAP1 DUP2 AND PUSH1 0x20 DUP4 ADD MSTORE PUSH1 0x4 DUP4 ADD SLOAD PUSH1 0x40 DUP4 ADD MSTORE PUSH1 0x5 DUP4 ADD SLOAD PUSH1 0x60 DUP4 ADD MSTORE PUSH1 0x6 DUP4 ADD SLOAD PUSH1 0x80 DUP4 ADD MSTORE PUSH1 0x7 DUP4 ADD SLOAD PUSH1 0xFF SWAP1 DUP2 AND ISZERO ISZERO PUSH1 0xA0 DUP5 ADD MSTORE PUSH1 0x8 DUP5 ADD SLOAD PUSH1 0xC0 DUP5 ADD MSTORE PUSH1 0x9 SWAP1 SWAP4 ADD SLOAD SWAP1 DUP2 AND PUSH1 0xE0 DUP4 ADD MSTORE PUSH1 0x1 PUSH1 0xA0 SHL SWAP1 DIV SWAP1 SWAP2 AND ISZERO ISZERO PUSH2 0x100 SWAP1 SWAP2 ADD MSTORE SWAP5 SWAP4 POP POP POP POP JUMP JUMPDEST PUSH2 0x1E63 PUSH1 0x40 MLOAD DUP1 PUSH1 0x80 ADD PUSH1 0x40 MSTORE DUP1 PUSH1 0x0 DUP2 MSTORE PUSH1 0x20 ADD PUSH1 0x0 DUP2 MSTORE PUSH1 0x20 ADD PUSH1 0x0 PUSH1 0x1 PUSH1 0x1 PUSH1 0xA0 SHL SUB AND DUP2 MSTORE PUSH1 0x20 ADD PUSH1 0x0 DUP2 MSTORE POP SWAP1 JUMP JUMPDEST PUSH1 0x64 PUSH1 0x0 DUP2 DUP2 MSTORE PUSH1 0x71 PUSH1 0x20 SWAP1 DUP2 MSTORE PUSH1 0x40 DUP1 MLOAD PUSH2 0x160 DUP2 ADD DUP3 MSTORE PUSH32 0x36E71B47FCBA6027ABA68E25275267572A53E79F92BD67F84E9486CAE12134FB DUP1 SLOAD DUP3 MSTORE PUSH32 0x36E71B47FCBA6027ABA68E25275267572A53E79F92BD67F84E9486CAE12134FC SLOAD SWAP4 DUP3 ADD SWAP4 SWAP1 SWAP4 MSTORE PUSH32 0x36E71B47FCBA6027ABA68E25275267572A53E79F92BD67F84E9486CAE12134FD DUP1 SLOAD SWAP2 SWAP4 SWAP3 DUP5 ADD SWAP2 PUSH2 0x1EFC SWAP1 PUSH2 0x5946 JUMP JUMPDEST DUP1 PUSH1 0x1F ADD PUSH1 0x20 DUP1 SWAP2 DIV MUL PUSH1 0x20 ADD PUSH1 0x40 MLOAD SWAP1 DUP2 ADD PUSH1 0x40 MSTORE DUP1 SWAP3 SWAP2 SWAP1 DUP2 DUP2 MSTORE PUSH1 0x20 ADD DUP3 DUP1 SLOAD PUSH2 0x1F28 SWAP1 PUSH2 0x5946 JUMP JUMPDEST DUP1 ISZERO PUSH2 0x1F75 JUMPI DUP1 PUSH1 0x1F LT PUSH2 0x1F4A JUMPI PUSH2 0x100 DUP1 DUP4 SLOAD DIV MUL DUP4 MSTORE SWAP2 PUSH1 0x20 ADD SWAP2 PUSH2 0x1F75 JUMP JUMPDEST DUP3 ADD SWAP2 SWAP1 PUSH1 0x0 MSTORE PUSH1 0x20 PUSH1 0x0 KECCAK256 SWAP1 JUMPDEST DUP2 SLOAD DUP2 MSTORE SWAP1 PUSH1 0x1 ADD SWAP1 PUSH1 0x20 ADD DUP1 DUP4 GT PUSH2 0x1F58 JUMPI DUP3 SWAP1 SUB PUSH1 0x1F AND DUP3 ADD SWAP2 JUMPDEST POP POP POP SWAP2 DUP4 MSTORE POP POP PUSH1 0x3 DUP3 ADD SLOAD PUSH1 0x1 PUSH1 0x1 PUSH1 0xA0 SHL SUB SWAP1 DUP2 AND PUSH1 0x20 DUP1 DUP5 ADD SWAP2 SWAP1 SWAP2 MSTORE PUSH1 0x4 DUP1 DUP6 ADD SLOAD PUSH1 0x40 DUP6 ADD MSTORE PUSH1 0x5 DUP6 ADD SLOAD PUSH1 0x60 DUP6 ADD MSTORE PUSH1 0x6 DUP6 ADD SLOAD PUSH1 0x80 DUP6 ADD MSTORE PUSH1 0x7 DUP6 ADD SLOAD PUSH1 0xFF SWAP1 DUP2 AND ISZERO ISZERO PUSH1 0xA0 DUP7 ADD MSTORE PUSH1 0x8 DUP7 ADD SLOAD PUSH1 0xC0 DUP7 ADD MSTORE PUSH1 0x9 SWAP1 SWAP6 ADD SLOAD SWAP3 DUP4 AND PUSH1 0xE0 DUP6 ADD MSTORE PUSH1 0x1 PUSH1 0xA0 SHL SWAP1 SWAP3 DIV SWAP1 SWAP4 AND ISZERO ISZERO PUSH2 0x100 SWAP1 SWAP3 ADD SWAP2 SWAP1 SWAP2 MSTORE SWAP1 DUP3 ADD MLOAD SWAP2 SWAP3 POP GT PUSH2 0x2019 JUMPI PUSH1 0x40 MLOAD PUSH3 0x461BCD PUSH1 0xE5 SHL DUP2 MSTORE PUSH1 0x4 ADD PUSH2 0x563 SWAP1 PUSH2 0x5981 JUMP JUMPDEST POP POP POP PUSH1 0x1 PUSH1 0x1 PUSH1 0xA0 SHL SUB SWAP1 DUP2 AND PUSH1 0x0 SWAP1 DUP2 MSTORE PUSH1 0x74 PUSH1 0x20 SWAP1 DUP2 MSTORE PUSH1 0x40 SWAP2 DUP3 SWAP1 KECCAK256 DUP3 MLOAD PUSH1 0x80 DUP2 ADD DUP5 MSTORE DUP2 SLOAD DUP2 MSTORE PUSH1 0x1 DUP3 ADD SLOAD SWAP3 DUP2 ADD SWAP3 SWAP1 SWAP3 MSTORE PUSH1 0x2 DUP2 ADD SLOAD SWAP1 SWAP4 AND SWAP2 DUP2 ADD SWAP2 SWAP1 SWAP2 MSTORE PUSH1 0x3 SWAP1 SWAP2 ADD SLOAD PUSH1 0x60 DUP3 ADD MSTORE SWAP1 JUMP JUMPDEST PUSH2 0x2076 PUSH2 0x2B4C JUMP JUMPDEST PUSH1 0x1 PUSH1 0x6F SLOAD PUSH2 0x2085 SWAP2 SWAP1 PUSH2 0x59CE JUMP JUMPDEST DUP3 GT DUP1 ISZERO PUSH2 0x209F JUMPI POP PUSH1 0x6F SLOAD PUSH2 0x209C SWAP1 PUSH1 0x1 PUSH2 0x5C74 JUMP JUMPDEST DUP3 LT JUMPDEST PUSH2 0x20E1 JUMPI PUSH1 0x40 MLOAD PUSH3 0x461BCD PUSH1 0xE5 SHL DUP2 MSTORE PUSH1 0x20 PUSH1 0x4 DUP3 ADD MSTORE PUSH1 0x13 PUSH1 0x24 DUP3 ADD MSTORE PUSH19 0x496E76616C6964205479706520496E64657821 PUSH1 0x68 SHL PUSH1 0x44 DUP3 ADD MSTORE PUSH1 0x64 ADD PUSH2 0x563 JUMP JUMPDEST PUSH1 0x6E PUSH1 0x6F SLOAD PUSH1 0x1 PUSH2 0x20F2 SWAP2 SWAP1 PUSH2 0x5C74 JUMP JUMPDEST DUP2 SLOAD PUSH1 0x1 DUP2 ADD DUP4 SSTORE PUSH1 0x0 SWAP3 DUP4 MSTORE PUSH1 0x20 DUP1 DUP5 KECCAK256 SWAP1 SWAP2 ADD SWAP2 SWAP1 SWAP2 SSTORE DUP4 DUP3 MSTORE PUSH1 0x68 DUP2 MSTORE PUSH1 0x40 SWAP1 SWAP2 KECCAK256 DUP3 MLOAD PUSH2 0x2125 SWAP3 DUP5 ADD SWAP1 PUSH2 0x5438 JUMP JUMPDEST POP POP POP JUMP JUMPDEST PUSH1 0x6B SLOAD CALLVALUE LT ISZERO PUSH2 0x2172 JUMPI PUSH1 0x40 MLOAD PUSH3 0x461BCD PUSH1 0xE5 SHL DUP2 MSTORE PUSH1 0x20 PUSH1 0x4 DUP3 ADD MSTORE PUSH1 0x13 PUSH1 0x24 DUP3 ADD MSTORE PUSH19 0x496E73756666696369656E742066756E647321 PUSH1 0x68 SHL PUSH1 0x44 DUP3 ADD MSTORE PUSH1 0x64 ADD PUSH2 0x563 JUMP JUMPDEST DUP5 MLOAD DUP6 SWAP1 PUSH2 0x21C2 JUMPI PUSH1 0x40 MLOAD PUSH3 0x461BCD PUSH1 0xE5 SHL DUP2 MSTORE PUSH1 0x20 PUSH1 0x4 DUP3 ADD MSTORE PUSH1 0x1A PUSH1 0x24 DUP3 ADD MSTORE PUSH32 0x456E74657220612076616C69642042616C6C6F74204E616D6521000000000000 PUSH1 0x44 DUP3 ADD MSTORE PUSH1 0x64 ADD PUSH2 0x563 JUMP JUMPDEST PUSH1 0x1 DUP6 MLOAD GT PUSH2 0x2213 JUMPI PUSH1 0x40 MLOAD PUSH3 0x461BCD PUSH1 0xE5 SHL DUP2 MSTORE PUSH1 0x20 PUSH1 0x4 DUP3 ADD MSTORE PUSH1 0x1D PUSH1 0x24 DUP3 ADD MSTORE PUSH32 0x4E6F7420456E6F7567682042616C6C6F742043616E6469646174657321000000 PUSH1 0x44 DUP3 ADD MSTORE PUSH1 0x64 ADD PUSH2 0x563 JUMP JUMPDEST PUSH1 0x6F SLOAD DUP5 GT ISZERO PUSH2 0x2265 JUMPI PUSH1 0x40 MLOAD PUSH3 0x461BCD PUSH1 0xE5 SHL DUP2 MSTORE PUSH1 0x20 PUSH1 0x4 DUP3 ADD MSTORE PUSH1 0x18 PUSH1 0x24 DUP3 ADD MSTORE PUSH32 0x4E6F7420612076616C69642042616C6C6F742054797065210000000000000000 PUSH1 0x44 DUP3 ADD MSTORE PUSH1 0x64 ADD PUSH2 0x563 JUMP JUMPDEST DUP2 DUP4 GT PUSH2 0x22BF JUMPI PUSH1 0x40 MLOAD PUSH3 0x461BCD PUSH1 0xE5 SHL DUP2 MSTORE PUSH1 0x20 PUSH1 0x4 DUP3 ADD MSTORE PUSH1 0x22 PUSH1 0x24 DUP3 ADD MSTORE PUSH32 0x526567697374726174696F6E20506572696F64203E20566F74696E6720446179 PUSH1 0x44 DUP3 ADD MSTORE PUSH2 0x7321 PUSH1 0xF0 SHL PUSH1 0x64 DUP3 ADD MSTORE PUSH1 0x84 ADD PUSH2 0x563 JUMP JUMPDEST PUSH1 0x0 DUP3 GT PUSH2 0x231A JUMPI PUSH1 0x40 MLOAD PUSH3 0x461BCD PUSH1 0xE5 SHL DUP2 MSTORE PUSH1 0x20 PUSH1 0x4 DUP3 ADD MSTORE PUSH1 0x22 PUSH1 0x24 DUP3 ADD MSTORE PUSH32 0x526567697374726174696F6E20506572696F642073686F756C64206265203E20 PUSH1 0x44 DUP3 ADD MSTORE PUSH2 0x3121 PUSH1 0xF0 SHL PUSH1 0x64 DUP3 ADD MSTORE PUSH1 0x84 ADD PUSH2 0x563 JUMP JUMPDEST PUSH1 0x66 SLOAD PUSH1 0x0 SWAP1 DUP2 MSTORE PUSH1 0x72 PUSH1 0x20 SWAP1 DUP2 MSTORE PUSH1 0x40 SWAP1 SWAP2 KECCAK256 DUP7 MLOAD PUSH2 0x233C SWAP3 DUP9 ADD SWAP1 PUSH2 0x54BC JUMP JUMPDEST POP DUP5 MLOAD PUSH1 0x0 JUMPDEST DUP2 DUP2 LT ISZERO PUSH2 0x2433 JUMPI PUSH1 0x0 PUSH1 0x40 MLOAD DUP1 PUSH1 0x80 ADD PUSH1 0x40 MSTORE DUP1 PUSH1 0x67 SLOAD DUP2 MSTORE PUSH1 0x20 ADD PUSH1 0x66 SLOAD DUP2 MSTORE PUSH1 0x20 ADD DUP10 DUP5 DUP2 MLOAD DUP2 LT PUSH2 0x2379 JUMPI PUSH2 0x2379 PUSH2 0x59E5 JUMP JUMPDEST PUSH1 0x20 MUL PUSH1 0x20 ADD ADD MLOAD PUSH1 0x1 PUSH1 0x1 PUSH1 0xA0 SHL SUB AND DUP2 MSTORE PUSH1 0x20 ADD PUSH1 0x0 DUP2 MSTORE POP SWAP1 POP DUP1 PUSH1 0x74 PUSH1 0x0 DUP11 DUP6 DUP2 MLOAD DUP2 LT PUSH2 0x23AD JUMPI PUSH2 0x23AD PUSH2 0x59E5 JUMP JUMPDEST PUSH1 0x20 SWAP1 DUP2 MUL SWAP2 SWAP1 SWAP2 ADD DUP2 ADD MLOAD PUSH1 0x1 PUSH1 0x1 PUSH1 0xA0 SHL SUB SWAP1 DUP2 AND DUP4 MSTORE DUP3 DUP3 ADD SWAP4 SWAP1 SWAP4 MSTORE PUSH1 0x40 SWAP2 DUP3 ADD PUSH1 0x0 SWAP1 DUP2 KECCAK256 DUP6 MLOAD DUP2 SSTORE SWAP2 DUP6 ADD MLOAD PUSH1 0x1 DUP4 ADD SSTORE SWAP2 DUP5 ADD MLOAD PUSH1 0x2 DUP3 ADD DUP1 SLOAD PUSH1 0x1 PUSH1 0x1 PUSH1 0xA0 SHL SUB NOT AND SWAP2 SWAP1 SWAP5 AND OR SWAP1 SWAP3 SSTORE PUSH1 0x60 SWAP1 SWAP3 ADD MLOAD PUSH1 0x3 SWAP1 SWAP2 ADD SSTORE PUSH1 0x67 DUP1 SLOAD SWAP2 PUSH2 0x241A DUP4 PUSH2 0x5C8C JUMP JUMPDEST SWAP2 SWAP1 POP SSTORE POP POP DUP1 DUP1 PUSH2 0x242B SWAP1 PUSH2 0x5C8C JUMP JUMPDEST SWAP2 POP POP PUSH2 0x2342 JUMP JUMPDEST POP PUSH1 0x40 DUP1 MLOAD PUSH2 0x160 DUP2 ADD DUP3 MSTORE PUSH1 0x66 SLOAD DUP1 DUP3 MSTORE PUSH1 0x20 DUP1 DUP4 ADD DUP10 DUP2 MSTORE DUP4 DUP6 ADD DUP13 DUP2 MSTORE CALLER PUSH1 0x60 DUP7 ADD MSTORE PUSH1 0x0 PUSH1 0x80 DUP7 ADD DUP2 SWAP1 MSTORE TIMESTAMP PUSH1 0xA0 DUP8 ADD MSTORE PUSH1 0xC0 DUP7 ADD DUP12 SWAP1 MSTORE PUSH1 0xE0 DUP7 ADD DUP2 SWAP1 MSTORE PUSH2 0x100 DUP7 ADD DUP11 SWAP1 MSTORE PUSH2 0x120 DUP7 ADD DUP2 SWAP1 MSTORE PUSH2 0x140 DUP7 ADD DUP2 SWAP1 MSTORE SWAP4 DUP5 MSTORE PUSH1 0x71 DUP4 MSTORE SWAP5 SWAP1 SWAP3 KECCAK256 DUP4 MLOAD DUP2 SSTORE SWAP2 MLOAD PUSH1 0x1 DUP4 ADD SSTORE SWAP3 MLOAD DUP1 MLOAD SWAP3 SWAP4 DUP5 SWAP4 PUSH2 0x24BC SWAP3 PUSH1 0x2 DUP6 ADD SWAP3 ADD SWAP1 PUSH2 0x5438 JUMP JUMPDEST POP PUSH1 0x60 DUP3 ADD MLOAD PUSH1 0x3 DUP3 ADD DUP1 SLOAD PUSH1 0x1 PUSH1 0x1 PUSH1 0xA0 SHL SUB NOT AND PUSH1 0x1 PUSH1 0x1 PUSH1 0xA0 SHL SUB SWAP3 DUP4 AND OR SWAP1 SSTORE PUSH1 0x80 DUP4 ADD MLOAD PUSH1 0x4 DUP4 ADD SSTORE PUSH1 0xA0 DUP4 ADD MLOAD PUSH1 0x5 DUP4 ADD SSTORE PUSH1 0xC0 DUP4 ADD MLOAD PUSH1 0x6 DUP4 ADD SSTORE PUSH1 0xE0 DUP4 ADD MLOAD PUSH1 0x7 DUP4 ADD DUP1 SLOAD PUSH1 0xFF NOT AND SWAP2 ISZERO ISZERO SWAP2 SWAP1 SWAP2 OR SWAP1 SSTORE PUSH2 0x100 DUP4 ADD MLOAD PUSH1 0x8 DUP4 ADD SSTORE PUSH2 0x120 DUP4 ADD MLOAD PUSH1 0x9 SWAP1 SWAP3 ADD DUP1 SLOAD PUSH2 0x140 SWAP1 SWAP5 ADD MLOAD SWAP3 SWAP1 SWAP2 AND PUSH1 0x1 PUSH1 0x1 PUSH1 0xA8 SHL SUB NOT SWAP1 SWAP4 AND SWAP3 SWAP1 SWAP3 OR PUSH1 0x1 PUSH1 0xA0 SHL SWAP2 ISZERO ISZERO SWAP2 SWAP1 SWAP2 MUL OR SWAP1 SSTORE PUSH1 0x69 DUP1 SLOAD PUSH1 0x1 DUP2 ADD DUP3 SSTORE PUSH1 0x0 SWAP2 SWAP1 SWAP2 MSTORE DUP2 MLOAD PUSH32 0x7FB4302E8E91F9110A6554C2C0A24601252C2A42C2220CA988EFCFE399914308 PUSH1 0xA SWAP1 SWAP3 MUL SWAP2 DUP3 ADD SWAP1 DUP2 SSTORE PUSH1 0x20 DUP1 DUP5 ADD MLOAD PUSH32 0x7FB4302E8E91F9110A6554C2C0A24601252C2A42C2220CA988EFCFE399914309 DUP5 ADD SSTORE PUSH1 0x40 DUP5 ADD MLOAD DUP1 MLOAD DUP6 SWAP5 PUSH2 0x25F9 SWAP4 PUSH32 0x7FB4302E8E91F9110A6554C2C0A24601252C2A42C2220CA988EFCFE39991430A SWAP1 SWAP2 ADD SWAP3 ADD SWAP1 PUSH2 0x5438 JUMP JUMPDEST POP PUSH1 0x60 DUP3 ADD MLOAD PUSH1 0x3 DUP3 ADD DUP1 SLOAD PUSH1 0x1 PUSH1 0x1 PUSH1 0xA0 SHL SUB NOT AND PUSH1 0x1 PUSH1 0x1 PUSH1 0xA0 SHL SUB SWAP3 DUP4 AND OR SWAP1 SSTORE PUSH1 0x80 DUP4 ADD MLOAD PUSH1 0x4 DUP4 ADD SSTORE PUSH1 0xA0 DUP4 ADD MLOAD PUSH1 0x5 DUP4 ADD SSTORE PUSH1 0xC0 DUP4 ADD MLOAD PUSH1 0x6 DUP4 ADD SSTORE PUSH1 0xE0 DUP4 ADD MLOAD PUSH1 0x7 DUP4 ADD DUP1 SLOAD PUSH1 0xFF NOT AND SWAP2 ISZERO ISZERO SWAP2 SWAP1 SWAP2 OR SWAP1 SSTORE PUSH2 0x100 DUP4 ADD MLOAD PUSH1 0x8 DUP4 ADD SSTORE PUSH2 0x120 DUP4 ADD MLOAD PUSH1 0x9 SWAP1 SWAP3 ADD DUP1 SLOAD PUSH2 0x140 SWAP1 SWAP5 ADD MLOAD SWAP3 SWAP1 SWAP2 AND PUSH1 0x1 PUSH1 0x1 PUSH1 0xA8 SHL SUB NOT SWAP1 SWAP4 AND SWAP3 SWAP1 SWAP3 OR PUSH1 0x1 PUSH1 0xA0 SHL SWAP2 ISZERO ISZERO SWAP2 SWAP1 SWAP2 MUL OR SWAP1 SSTORE CALLER PUSH1 0x0 SWAP1 DUP2 MSTORE PUSH1 0x70 PUSH1 0x20 SWAP1 DUP2 MSTORE PUSH1 0x40 SWAP2 DUP3 SWAP1 KECCAK256 DUP4 MLOAD DUP2 SSTORE DUP4 DUP3 ADD MLOAD PUSH1 0x1 DUP3 ADD SSTORE SWAP2 DUP4 ADD MLOAD DUP1 MLOAD DUP5 SWAP4 SWAP3 PUSH2 0x26CF SWAP3 PUSH1 0x2 DUP6 ADD SWAP3 SWAP2 ADD SWAP1 PUSH2 0x5438 JUMP JUMPDEST POP PUSH1 0x60 DUP3 ADD MLOAD PUSH1 0x3 DUP3 ADD DUP1 SLOAD PUSH1 0x1 PUSH1 0x1 PUSH1 0xA0 SHL SUB NOT AND PUSH1 0x1 PUSH1 0x1 PUSH1 0xA0 SHL SUB SWAP3 DUP4 AND OR SWAP1 SSTORE PUSH1 0x80 DUP4 ADD MLOAD PUSH1 0x4 DUP4 ADD SSTORE PUSH1 0xA0 DUP4 ADD MLOAD PUSH1 0x5 DUP4 ADD SSTORE PUSH1 0xC0 DUP4 ADD MLOAD PUSH1 0x6 DUP4 ADD SSTORE PUSH1 0xE0 DUP4 ADD MLOAD PUSH1 0x7 DUP4 ADD DUP1 SLOAD PUSH1 0xFF NOT AND SWAP2 ISZERO ISZERO SWAP2 SWAP1 SWAP2 OR SWAP1 SSTORE PUSH2 0x100 DUP4 ADD MLOAD PUSH1 0x8 DUP4 ADD SSTORE PUSH2 0x120 DUP4 ADD MLOAD PUSH1 0x9 SWAP1 SWAP3 ADD DUP1 SLOAD PUSH2 0x140 SWAP1 SWAP5 ADD MLOAD SWAP3 SWAP1 SWAP2 AND PUSH1 0x1 PUSH1 0x1 PUSH1 0xA8 SHL SUB NOT SWAP1 SWAP4 AND SWAP3 SWAP1 SWAP3 OR PUSH1 0x1 PUSH1 0xA0 SHL SWAP2 ISZERO ISZERO SWAP2 SWAP1 SWAP2 MUL OR SWAP1 SSTORE CALLER PUSH1 0x0 SWAP1 DUP2 MSTORE PUSH1 0x75 PUSH1 0x20 SWAP1 DUP2 MSTORE PUSH1 0x40 SWAP1 SWAP2 KECCAK256 DUP9 MLOAD PUSH2 0x278B SWAP3 DUP11 ADD SWAP1 PUSH2 0x54BC JUMP JUMPDEST POP PUSH1 0x6C DUP1 SLOAD SWAP1 PUSH1 0x0 PUSH2 0x279C DUP4 PUSH2 0x5C8C JUMP JUMPDEST SWAP1 SWAP2 SSTORE POP POP PUSH1 0x66 DUP1 SLOAD SWAP1 PUSH1 0x0 PUSH2 0x27B1 DUP4 PUSH2 0x5C8C JUMP JUMPDEST SWAP1 SWAP2 SSTORE POP POP PUSH1 0x40 MLOAD DUP7 DUP2 MSTORE PUSH32 0x3302601C0B6AD9794207D2EB4A29C724DB57C9348BF10DFFCC98C9D89E6D9C52 SWAP1 PUSH1 0x20 ADD PUSH1 0x40 MLOAD DUP1 SWAP2 SUB SWAP1 LOG1 POP POP POP POP POP POP POP POP JUMP JUMPDEST PUSH1 0x60 DUP2 PUSH1 0x0 PUSH1 0x71 PUSH1 0x0 DUP4 DUP2 MSTORE PUSH1 0x20 ADD SWAP1 DUP2 MSTORE PUSH1 0x20 ADD PUSH1 0x0 KECCAK256 PUSH1 0x40 MLOAD DUP1 PUSH2 0x160 ADD PUSH1 0x40 MSTORE SWAP1 DUP2 PUSH1 0x0 DUP3 ADD SLOAD DUP2 MSTORE PUSH1 0x20 ADD PUSH1 0x1 DUP3 ADD SLOAD DUP2 MSTORE PUSH1 0x20 ADD PUSH1 0x2 DUP3 ADD DUP1 SLOAD PUSH2 0x283B SWAP1 PUSH2 0x5946 JUMP JUMPDEST DUP1 PUSH1 0x1F ADD PUSH1 0x20 DUP1 SWAP2 DIV MUL PUSH1 0x20 ADD PUSH1 0x40 MLOAD SWAP1 DUP2 ADD PUSH1 0x40 MSTORE DUP1 SWAP3 SWAP2 SWAP1 DUP2 DUP2 MSTORE PUSH1 0x20 ADD DUP3 DUP1 SLOAD PUSH2 0x2867 SWAP1 PUSH2 0x5946 JUMP JUMPDEST DUP1 ISZERO PUSH2 0x28B4 JUMPI DUP1 PUSH1 0x1F LT PUSH2 0x2889 JUMPI PUSH2 0x100 DUP1 DUP4 SLOAD DIV MUL DUP4 MSTORE SWAP2 PUSH1 0x20 ADD SWAP2 PUSH2 0x28B4 JUMP JUMPDEST DUP3 ADD SWAP2 SWAP1 PUSH1 0x0 MSTORE PUSH1 0x20 PUSH1 0x0 KECCAK256 SWAP1 JUMPDEST DUP2 SLOAD DUP2 MSTORE SWAP1 PUSH1 0x1 ADD SWAP1 PUSH1 0x20 ADD DUP1 DUP4 GT PUSH2 0x2897 JUMPI DUP3 SWAP1 SUB PUSH1 0x1F AND DUP3 ADD SWAP2 JUMPDEST POP POP POP SWAP2 DUP4 MSTORE POP POP PUSH1 0x3 DUP3 ADD SLOAD PUSH1 0x1 PUSH1 0x1 PUSH1 0xA0 SHL SUB SWAP1 DUP2 AND PUSH1 0x20 DUP1 DUP5 ADD SWAP2 SWAP1 SWAP2 MSTORE PUSH1 0x4 DUP1 DUP6 ADD SLOAD PUSH1 0x40 DUP6 ADD MSTORE PUSH1 0x5 DUP6 ADD SLOAD PUSH1 0x60 DUP6 ADD MSTORE PUSH1 0x6 DUP6 ADD SLOAD PUSH1 0x80 DUP6 ADD MSTORE PUSH1 0x7 DUP6 ADD SLOAD PUSH1 0xFF SWAP1 DUP2 AND ISZERO ISZERO PUSH1 0xA0 DUP7 ADD MSTORE PUSH1 0x8 DUP7 ADD SLOAD PUSH1 0xC0 DUP7 ADD MSTORE PUSH1 0x9 SWAP1 SWAP6 ADD SLOAD SWAP3 DUP4 AND PUSH1 0xE0 DUP6 ADD MSTORE PUSH1 0x1 PUSH1 0xA0 SHL SWAP1 SWAP3 DIV SWAP1 SWAP4 AND ISZERO ISZERO PUSH2 0x100 SWAP1 SWAP3 ADD SWAP2 SWAP1 SWAP2 MSTORE SWAP1 DUP3 ADD MLOAD SWAP2 SWAP3 POP GT PUSH2 0x2958 JUMPI PUSH1 0x40 MLOAD PUSH3 0x461BCD PUSH1 0xE5 SHL DUP2 MSTORE PUSH1 0x4 ADD PUSH2 0x563 SWAP1 PUSH2 0x5981 JUMP JUMPDEST PUSH1 0x0 DUP5 DUP2 MSTORE PUSH1 0x73 PUSH1 0x20 SWAP1 DUP2 MSTORE PUSH1 0x40 SWAP2 DUP3 SWAP1 KECCAK256 DUP1 SLOAD DUP4 MLOAD DUP2 DUP5 MUL DUP2 ADD DUP5 ADD SWAP1 SWAP5 MSTORE DUP1 DUP5 MSTORE SWAP1 SWAP2 DUP4 ADD DUP3 DUP3 DUP1 ISZERO PUSH2 0x29B6 JUMPI PUSH1 0x20 MUL DUP3 ADD SWAP2 SWAP1 PUSH1 0x0 MSTORE PUSH1 0x20 PUSH1 0x0 KECCAK256 SWAP1 JUMPDEST DUP2 SLOAD PUSH1 0x1 PUSH1 0x1 PUSH1 0xA0 SHL SUB AND DUP2 MSTORE PUSH1 0x1 SWAP1 SWAP2 ADD SWAP1 PUSH1 0x20 ADD DUP1 DUP4 GT PUSH2 0x2998 JUMPI JUMPDEST POP POP POP POP POP SWAP3 POP POP POP SWAP2 SWAP1 POP JUMP JUMPDEST PUSH2 0x29CC PUSH2 0x2B4C JUMP JUMPDEST PUSH1 0x1 PUSH1 0x1 PUSH1 0xA0 SHL SUB DUP2 AND PUSH2 0x2A31 JUMPI PUSH1 0x40 MLOAD PUSH3 0x461BCD PUSH1 0xE5 SHL DUP2 MSTORE PUSH1 0x20 PUSH1 0x4 DUP3 ADD MSTORE PUSH1 0x26 PUSH1 0x24 DUP3 ADD MSTORE PUSH32 0x4F776E61626C653A206E6577206F776E657220697320746865207A65726F2061 PUSH1 0x44 DUP3 ADD MSTORE PUSH6 0x646472657373 PUSH1 0xD0 SHL PUSH1 0x64 DUP3 ADD MSTORE PUSH1 0x84 ADD PUSH2 0x563 JUMP JUMPDEST PUSH2 0x1073 DUP2 PUSH2 0x4986 JUMP JUMPDEST PUSH1 0x0 SLOAD PUSH2 0x100 SWAP1 DIV PUSH1 0xFF AND ISZERO DUP1 DUP1 ISZERO PUSH2 0x2A5A JUMPI POP PUSH1 0x0 SLOAD PUSH1 0x1 PUSH1 0xFF SWAP1 SWAP2 AND LT JUMPDEST DUP1 PUSH2 0x2A74 JUMPI POP ADDRESS EXTCODESIZE ISZERO DUP1 ISZERO PUSH2 0x2A74 JUMPI POP PUSH1 0x0 SLOAD PUSH1 0xFF AND PUSH1 0x1 EQ JUMPDEST PUSH2 0x2AD7 JUMPI PUSH1 0x40 MLOAD PUSH3 0x461BCD PUSH1 0xE5 SHL DUP2 MSTORE PUSH1 0x20 PUSH1 0x4 DUP3 ADD MSTORE PUSH1 0x2E PUSH1 0x24 DUP3 ADD MSTORE PUSH32 0x496E697469616C697A61626C653A20636F6E747261637420697320616C726561 PUSH1 0x44 DUP3 ADD MSTORE PUSH14 0x191E481A5B9A5D1A585B1A5E9959 PUSH1 0x92 SHL PUSH1 0x64 DUP3 ADD MSTORE PUSH1 0x84 ADD PUSH2 0x563 JUMP JUMPDEST PUSH1 0x0 DUP1 SLOAD PUSH1 0xFF NOT AND PUSH1 0x1 OR SWAP1 SSTORE DUP1 ISZERO PUSH2 0x2AFA JUMPI PUSH1 0x0 DUP1 SLOAD PUSH2 0xFF00 NOT AND PUSH2 0x100 OR SWAP1 SSTORE JUMPDEST PUSH2 0x2B02 PUSH2 0x49D8 JUMP JUMPDEST DUP1 ISZERO PUSH2 0x2B48 JUMPI PUSH1 0x0 DUP1 SLOAD PUSH2 0xFF00 NOT AND SWAP1 SSTORE PUSH1 0x40 MLOAD PUSH1 0x1 DUP2 MSTORE PUSH32 0x7F26B83FF96E1F2B6A682F133852F6798A09C465DA95921460CEFB3847402498 SWAP1 PUSH1 0x20 ADD PUSH1 0x40 MLOAD DUP1 SWAP2 SUB SWAP1 LOG1 JUMPDEST POP POP JUMP JUMPDEST PUSH1 0x33 SLOAD PUSH1 0x1 PUSH1 0x1 PUSH1 0xA0 SHL SUB AND CALLER EQ PUSH2 0x1B1C JUMPI PUSH1 0x40 MLOAD PUSH3 0x461BCD PUSH1 0xE5 SHL DUP2 MSTORE PUSH1 0x20 PUSH1 0x4 DUP3 ADD DUP2 SWAP1 MSTORE PUSH1 0x24 DUP3 ADD MSTORE PUSH32 0x4F776E61626C653A2063616C6C6572206973206E6F7420746865206F776E6572 PUSH1 0x44 DUP3 ADD MSTORE PUSH1 0x64 ADD PUSH2 0x563 JUMP JUMPDEST DUP2 MLOAD PUSH1 0x0 SWAP1 DUP2 JUMPDEST DUP2 DUP2 LT ISZERO PUSH2 0x2BF3 JUMPI DUP4 DUP6 DUP3 DUP2 MLOAD DUP2 LT PUSH2 0x2BC8 JUMPI PUSH2 0x2BC8 PUSH2 0x59E5 JUMP JUMPDEST PUSH1 0x20 MUL PUSH1 0x20 ADD ADD MLOAD EQ ISZERO PUSH2 0x2BE1 JUMPI PUSH1 0x1 SWAP3 POP POP POP PUSH2 0x2BFA JUMP JUMPDEST DUP1 PUSH2 0x2BEB DUP2 PUSH2 0x5C8C JUMP JUMPDEST SWAP2 POP POP PUSH2 0x2BAD JUMP JUMPDEST POP PUSH1 0x0 SWAP2 POP POP JUMPDEST SWAP3 SWAP2 POP POP JUMP JUMPDEST DUP2 DUP2 PUSH1 0x0 PUSH1 0x71 PUSH1 0x0 DUP4 DUP2 MSTORE PUSH1 0x20 ADD SWAP1 DUP2 MSTORE PUSH1 0x20 ADD PUSH1 0x0 KECCAK256 PUSH1 0x40 MLOAD DUP1 PUSH2 0x160 ADD PUSH1 0x40 MSTORE SWAP1 DUP2 PUSH1 0x0 DUP3 ADD SLOAD DUP2 MSTORE PUSH1 0x20 ADD PUSH1 0x1 DUP3 ADD SLOAD DUP2 MSTORE PUSH1 0x20 ADD PUSH1 0x2 DUP3 ADD DUP1 SLOAD PUSH2 0x2C47 SWAP1 PUSH2 0x5946 JUMP JUMPDEST DUP1 PUSH1 0x1F ADD PUSH1 0x20 DUP1 SWAP2 DIV MUL PUSH1 0x20 ADD PUSH1 0x40 MLOAD SWAP1 DUP2 ADD PUSH1 0x40 MSTORE DUP1 SWAP3 SWAP2 SWAP1 DUP2 DUP2 MSTORE PUSH1 0x20 ADD DUP3 DUP1 SLOAD PUSH2 0x2C73 SWAP1 PUSH2 0x5946 JUMP JUMPDEST DUP1 ISZERO PUSH2 0x2CC0 JUMPI DUP1 PUSH1 0x1F LT PUSH2 0x2C95 JUMPI PUSH2 0x100 DUP1 DUP4 SLOAD DIV MUL DUP4 MSTORE SWAP2 PUSH1 0x20 ADD SWAP2 PUSH2 0x2CC0 JUMP JUMPDEST DUP3 ADD SWAP2 SWAP1 PUSH1 0x0 MSTORE PUSH1 0x20 PUSH1 0x0 KECCAK256 SWAP1 JUMPDEST DUP2 SLOAD DUP2 MSTORE SWAP1 PUSH1 0x1 ADD SWAP1 PUSH1 0x20 ADD DUP1 DUP4 GT PUSH2 0x2CA3 JUMPI DUP3 SWAP1 SUB PUSH1 0x1F AND DUP3 ADD SWAP2 JUMPDEST POP POP POP SWAP2 DUP4 MSTORE POP POP PUSH1 0x3 DUP3 ADD SLOAD PUSH1 0x1 PUSH1 0x1 PUSH1 0xA0 SHL SUB SWAP1 DUP2 AND PUSH1 0x20 DUP4 ADD MSTORE PUSH1 0x4 DUP4 ADD SLOAD PUSH1 0x40 DUP4 ADD MSTORE PUSH1 0x5 DUP4 ADD SLOAD PUSH1 0x60 DUP4 ADD MSTORE PUSH1 0x6 DUP4 ADD SLOAD PUSH1 0x80 DUP4 ADD MSTORE PUSH1 0x7 DUP4 ADD SLOAD PUSH1 0xFF SWAP1 DUP2 AND ISZERO ISZERO PUSH1 0xA0 DUP1 DUP6 ADD SWAP2 SWAP1 SWAP2 MSTORE PUSH1 0x8 DUP6 ADD SLOAD PUSH1 0xC0 DUP6 ADD MSTORE PUSH1 0x9 SWAP1 SWAP5 ADD SLOAD SWAP2 DUP3 AND PUSH1 0xE0 DUP5 ADD MSTORE PUSH1 0x1 PUSH1 0xA0 SHL SWAP1 SWAP2 DIV AND ISZERO ISZERO PUSH2 0x100 SWAP1 SWAP2 ADD MSTORE DUP2 ADD MLOAD SWAP1 SWAP2 POP PUSH1 0x0 SWAP1 PUSH2 0x2D4D SWAP1 TIMESTAMP PUSH2 0x59CE JUMP JUMPDEST PUSH1 0x69 SLOAD SWAP1 SWAP2 POP PUSH1 0x1 DUP2 LT ISZERO PUSH2 0x2D74 JUMPI PUSH1 0x40 MLOAD PUSH3 0x461BCD PUSH1 0xE5 SHL DUP2 MSTORE PUSH1 0x4 ADD PUSH2 0x563 SWAP1 PUSH2 0x59FB JUMP JUMPDEST PUSH1 0xC0 DUP4 ADD MLOAD PUSH2 0x2D86 SWAP1 PUSH3 0x15180 PUSH2 0x5A7B JUMP JUMPDEST DUP3 LT PUSH2 0x2DA4 JUMPI PUSH1 0x40 MLOAD PUSH3 0x461BCD PUSH1 0xE5 SHL DUP2 MSTORE PUSH1 0x4 ADD PUSH2 0x563 SWAP1 PUSH2 0x5A2B JUMP JUMPDEST CALLER PUSH1 0x0 SWAP1 DUP2 MSTORE PUSH1 0x79 PUSH1 0x20 SWAP1 DUP2 MSTORE PUSH1 0x40 SWAP2 DUP3 SWAP1 KECCAK256 DUP1 SLOAD DUP4 MLOAD DUP2 DUP5 MUL DUP2 ADD DUP5 ADD SWAP1 SWAP5 MSTORE DUP1 DUP5 MSTORE PUSH2 0x2E05 SWAP4 SWAP3 DUP4 ADD DUP3 DUP3 DUP1 ISZERO PUSH2 0x1272 JUMPI PUSH1 0x20 MUL DUP3 ADD SWAP2 SWAP1 PUSH1 0x0 MSTORE PUSH1 0x20 PUSH1 0x0 KECCAK256 SWAP1 DUP2 SLOAD DUP2 MSTORE PUSH1 0x20 ADD SWAP1 PUSH1 0x1 ADD SWAP1 DUP1 DUP4 GT PUSH2 0x125E JUMPI POP POP POP POP POP DUP6 PUSH2 0x2BA6 JUMP JUMPDEST ISZERO PUSH2 0x2E22 JUMPI PUSH1 0x40 MLOAD PUSH3 0x461BCD PUSH1 0xE5 SHL DUP2 MSTORE PUSH1 0x4 ADD PUSH2 0x563 SWAP1 PUSH2 0x5A9A JUMP JUMPDEST PUSH1 0x0 DUP6 DUP2 MSTORE PUSH1 0x7B PUSH1 0x20 SWAP1 DUP2 MSTORE PUSH1 0x40 SWAP2 DUP3 SWAP1 KECCAK256 DUP1 SLOAD DUP4 MLOAD DUP2 DUP5 MUL DUP2 ADD DUP5 ADD SWAP1 SWAP5 MSTORE DUP1 DUP5 MSTORE PUSH2 0x2E82 SWAP4 SWAP3 DUP4 ADD DUP3 DUP3 DUP1 ISZERO PUSH2 0x1272 JUMPI PUSH1 0x20 MUL DUP3 ADD SWAP2 SWAP1 PUSH1 0x0 MSTORE PUSH1 0x20 PUSH1 0x0 KECCAK256 SWAP1 DUP2 SLOAD DUP2 MSTORE PUSH1 0x20 ADD SWAP1 PUSH1 0x1 ADD SWAP1 DUP1 DUP4 GT PUSH2 0x125E JUMPI POP POP POP POP POP DUP6 PUSH2 0x2BA6 JUMP JUMPDEST ISZERO PUSH2 0x2E9F JUMPI PUSH1 0x40 MLOAD PUSH3 0x461BCD PUSH1 0xE5 SHL DUP2 MSTORE PUSH1 0x4 ADD PUSH2 0x563 SWAP1 PUSH2 0x5ADC JUMP JUMPDEST PUSH2 0x100 DUP4 ADD MLOAD PUSH2 0x2EB2 SWAP1 PUSH3 0x15180 PUSH2 0x5A7B JUMP JUMPDEST DUP3 LT PUSH2 0x2ED0 JUMPI PUSH1 0x40 MLOAD PUSH3 0x461BCD PUSH1 0xE5 SHL DUP2 MSTORE PUSH1 0x4 ADD PUSH2 0x563 SWAP1 PUSH2 0x5B21 JUMP JUMPDEST PUSH1 0x0 DUP7 DUP2 MSTORE PUSH1 0x71 PUSH1 0x20 MSTORE PUSH1 0x40 SWAP1 KECCAK256 PUSH1 0x1 DUP2 ADD SLOAD ISZERO PUSH2 0x2F00 JUMPI PUSH1 0x40 MLOAD PUSH3 0x461BCD PUSH1 0xE5 SHL DUP2 MSTORE PUSH1 0x4 ADD PUSH2 0x563 SWAP1 PUSH2 0x5CA7 JUMP JUMPDEST PUSH2 0x150D DUP9 DUP9 PUSH2 0x4A3E JUMP JUMPDEST DUP2 DUP2 PUSH1 0x0 PUSH1 0x71 PUSH1 0x0 DUP4 DUP2 MSTORE PUSH1 0x20 ADD SWAP1 DUP2 MSTORE PUSH1 0x20 ADD PUSH1 0x0 KECCAK256 PUSH1 0x40 MLOAD DUP1 PUSH2 0x160 ADD PUSH1 0x40 MSTORE SWAP1 DUP2 PUSH1 0x0 DUP3 ADD SLOAD DUP2 MSTORE PUSH1 0x20 ADD PUSH1 0x1 DUP3 ADD SLOAD DUP2 MSTORE PUSH1 0x20 ADD PUSH1 0x2 DUP3 ADD DUP1 SLOAD PUSH2 0x2F51 SWAP1 PUSH2 0x5946 JUMP JUMPDEST DUP1 PUSH1 0x1F ADD PUSH1 0x20 DUP1 SWAP2 DIV MUL PUSH1 0x20 ADD PUSH1 0x40 MLOAD SWAP1 DUP2 ADD PUSH1 0x40 MSTORE DUP1 SWAP3 SWAP2 SWAP1 DUP2 DUP2 MSTORE PUSH1 0x20 ADD DUP3 DUP1 SLOAD PUSH2 0x2F7D SWAP1 PUSH2 0x5946 JUMP JUMPDEST DUP1 ISZERO PUSH2 0x2FCA JUMPI DUP1 PUSH1 0x1F LT PUSH2 0x2F9F JUMPI PUSH2 0x100 DUP1 DUP4 SLOAD DIV MUL DUP4 MSTORE SWAP2 PUSH1 0x20 ADD SWAP2 PUSH2 0x2FCA JUMP JUMPDEST DUP3 ADD SWAP2 SWAP1 PUSH1 0x0 MSTORE PUSH1 0x20 PUSH1 0x0 KECCAK256 SWAP1 JUMPDEST DUP2 SLOAD DUP2 MSTORE SWAP1 PUSH1 0x1 ADD SWAP1 PUSH1 0x20 ADD DUP1 DUP4 GT PUSH2 0x2FAD JUMPI DUP3 SWAP1 SUB PUSH1 0x1F AND DUP3 ADD SWAP2 JUMPDEST POP POP POP SWAP2 DUP4 MSTORE POP POP PUSH1 0x3 DUP3 ADD SLOAD PUSH1 0x1 PUSH1 0x1 PUSH1 0xA0 SHL SUB SWAP1 DUP2 AND PUSH1 0x20 DUP4 ADD MSTORE PUSH1 0x4 DUP4 ADD SLOAD PUSH1 0x40 DUP4 ADD MSTORE PUSH1 0x5 DUP4 ADD SLOAD PUSH1 0x60 DUP4 ADD MSTORE PUSH1 0x6 DUP4 ADD SLOAD PUSH1 0x80 DUP4 ADD MSTORE PUSH1 0x7 DUP4 ADD SLOAD PUSH1 0xFF SWAP1 DUP2 AND ISZERO ISZERO PUSH1 0xA0 DUP1 DUP6 ADD SWAP2 SWAP1 SWAP2 MSTORE PUSH1 0x8 DUP6 ADD SLOAD PUSH1 0xC0 DUP6 ADD MSTORE PUSH1 0x9 SWAP1 SWAP5 ADD SLOAD SWAP2 DUP3 AND PUSH1 0xE0 DUP5 ADD MSTORE PUSH1 0x1 PUSH1 0xA0 SHL SWAP1 SWAP2 DIV AND ISZERO ISZERO PUSH2 0x100 SWAP1 SWAP2 ADD MSTORE DUP2 ADD MLOAD SWAP1 SWAP2 POP PUSH1 0x0 SWAP1 PUSH2 0x3057 SWAP1 TIMESTAMP PUSH2 0x59CE JUMP JUMPDEST PUSH1 0x69 SLOAD SWAP1 SWAP2 POP PUSH1 0x1 DUP2 LT ISZERO PUSH2 0x307E JUMPI PUSH1 0x40 MLOAD PUSH3 0x461BCD PUSH1 0xE5 SHL DUP2 MSTORE PUSH1 0x4 ADD PUSH2 0x563 SWAP1 PUSH2 0x59FB JUMP JUMPDEST PUSH1 0xC0 DUP4 ADD MLOAD PUSH2 0x3090 SWAP1 PUSH3 0x15180 PUSH2 0x5A7B JUMP JUMPDEST DUP3 LT PUSH2 0x30AE JUMPI PUSH1 0x40 MLOAD PUSH3 0x461BCD PUSH1 0xE5 SHL DUP2 MSTORE PUSH1 0x4 ADD PUSH2 0x563 SWAP1 PUSH2 0x5A2B JUMP JUMPDEST CALLER PUSH1 0x0 SWAP1 DUP2 MSTORE PUSH1 0x79 PUSH1 0x20 SWAP1 DUP2 MSTORE PUSH1 0x40 SWAP2 DUP3 SWAP1 KECCAK256 DUP1 SLOAD DUP4 MLOAD DUP2 DUP5 MUL DUP2 ADD DUP5 ADD SWAP1 SWAP5 MSTORE DUP1 DUP5 MSTORE PUSH2 0x310F SWAP4 SWAP3 DUP4 ADD DUP3 DUP3 DUP1 ISZERO PUSH2 0x1272 JUMPI PUSH1 0x20 MUL DUP3 ADD SWAP2 SWAP1 PUSH1 0x0 MSTORE PUSH1 0x20 PUSH1 0x0 KECCAK256 SWAP1 DUP2 SLOAD DUP2 MSTORE PUSH1 0x20 ADD SWAP1 PUSH1 0x1 ADD SWAP1 DUP1 DUP4 GT PUSH2 0x125E JUMPI POP POP POP POP POP DUP6 PUSH2 0x2BA6 JUMP JUMPDEST ISZERO PUSH2 0x312C JUMPI PUSH1 0x40 MLOAD PUSH3 0x461BCD PUSH1 0xE5 SHL DUP2 MSTORE PUSH1 0x4 ADD PUSH2 0x563 SWAP1 PUSH2 0x5A9A JUMP JUMPDEST PUSH1 0x0 DUP6 DUP2 MSTORE PUSH1 0x7B PUSH1 0x20 SWAP1 DUP2 MSTORE PUSH1 0x40 SWAP2 DUP3 SWAP1 KECCAK256 DUP1 SLOAD DUP4 MLOAD DUP2 DUP5 MUL DUP2 ADD DUP5 ADD SWAP1 SWAP5 MSTORE DUP1 DUP5 MSTORE PUSH2 0x318C SWAP4 SWAP3 DUP4 ADD DUP3 DUP3 DUP1 ISZERO PUSH2 0x1272 JUMPI PUSH1 0x20 MUL DUP3 ADD SWAP2 SWAP1 PUSH1 0x0 MSTORE PUSH1 0x20 PUSH1 0x0 KECCAK256 SWAP1 DUP2 SLOAD DUP2 MSTORE PUSH1 0x20 ADD SWAP1 PUSH1 0x1 ADD SWAP1 DUP1 DUP4 GT PUSH2 0x125E JUMPI POP POP POP POP POP DUP6 PUSH2 0x2BA6 JUMP JUMPDEST ISZERO PUSH2 0x31A9 JUMPI PUSH1 0x40 MLOAD PUSH3 0x461BCD PUSH1 0xE5 SHL DUP2 MSTORE PUSH1 0x4 ADD PUSH2 0x563 SWAP1 PUSH2 0x5ADC JUMP JUMPDEST PUSH2 0x100 DUP4 ADD MLOAD PUSH2 0x31BC SWAP1 PUSH3 0x15180 PUSH2 0x5A7B JUMP JUMPDEST DUP3 LT PUSH2 0x31DA JUMPI PUSH1 0x40 MLOAD PUSH3 0x461BCD PUSH1 0xE5 SHL DUP2 MSTORE PUSH1 0x4 ADD PUSH2 0x563 SWAP1 PUSH2 0x5B21 JUMP JUMPDEST PUSH1 0x0 DUP7 DUP2 MSTORE PUSH1 0x71 PUSH1 0x20 MSTORE PUSH1 0x40 SWAP1 KECCAK256 PUSH1 0x1 DUP1 DUP3 ADD SLOAD EQ DUP1 PUSH2 0x31FE JUMPI POP DUP1 PUSH1 0x1 ADD SLOAD PUSH1 0x4 EQ JUMPDEST PUSH2 0x321A JUMPI PUSH1 0x40 MLOAD PUSH3 0x461BCD PUSH1 0xE5 SHL DUP2 MSTORE PUSH1 0x4 ADD PUSH2 0x563 SWAP1 PUSH2 0x5CA7 JUMP JUMPDEST PUSH2 0x150D DUP9 DUP9 PUSH2 0x4D73 JUMP JUMPDEST DUP2 DUP2 PUSH1 0x0 PUSH1 0x71 PUSH1 0x0 DUP4 DUP2 MSTORE PUSH1 0x20 ADD SWAP1 DUP2 MSTORE PUSH1 0x20 ADD PUSH1 0x0 KECCAK256 PUSH1 0x40 MLOAD DUP1 PUSH2 0x160 ADD PUSH1 0x40 MSTORE SWAP1 DUP2 PUSH1 0x0 DUP3 ADD SLOAD DUP2 MSTORE PUSH1 0x20 ADD PUSH1 0x1 DUP3 ADD SLOAD DUP2 MSTORE PUSH1 0x20 ADD PUSH1 0x2 DUP3 ADD DUP1 SLOAD PUSH2 0x326B SWAP1 PUSH2 0x5946 JUMP JUMPDEST DUP1 PUSH1 0x1F ADD PUSH1 0x20 DUP1 SWAP2 DIV MUL PUSH1 0x20 ADD PUSH1 0x40 MLOAD SWAP1 DUP2 ADD PUSH1 0x40 MSTORE DUP1 SWAP3 SWAP2 SWAP1 DUP2 DUP2 MSTORE PUSH1 0x20 ADD DUP3 DUP1 SLOAD PUSH2 0x3297 SWAP1 PUSH2 0x5946 JUMP JUMPDEST DUP1 ISZERO PUSH2 0x32E4 JUMPI DUP1 PUSH1 0x1F LT PUSH2 0x32B9 JUMPI PUSH2 0x100 DUP1 DUP4 SLOAD DIV MUL DUP4 MSTORE SWAP2 PUSH1 0x20 ADD SWAP2 PUSH2 0x32E4 JUMP JUMPDEST DUP3 ADD SWAP2 SWAP1 PUSH1 0x0 MSTORE PUSH1 0x20 PUSH1 0x0 KECCAK256 SWAP1 JUMPDEST DUP2 SLOAD DUP2 MSTORE SWAP1 PUSH1 0x1 ADD SWAP1 PUSH1 0x20 ADD DUP1 DUP4 GT PUSH2 0x32C7 JUMPI DUP3 SWAP1 SUB PUSH1 0x1F AND DUP3 ADD SWAP2 JUMPDEST POP POP POP SWAP2 DUP4 MSTORE POP POP PUSH1 0x3 DUP3 ADD SLOAD PUSH1 0x1 PUSH1 0x1 PUSH1 0xA0 SHL SUB SWAP1 DUP2 AND PUSH1 0x20 DUP4 ADD MSTORE PUSH1 0x4 DUP4 ADD SLOAD PUSH1 0x40 DUP4 ADD MSTORE PUSH1 0x5 DUP4 ADD SLOAD PUSH1 0x60 DUP4 ADD MSTORE PUSH1 0x6 DUP4 ADD SLOAD PUSH1 0x80 DUP4 ADD MSTORE PUSH1 0x7 DUP4 ADD SLOAD PUSH1 0xFF SWAP1 DUP2 AND ISZERO ISZERO PUSH1 0xA0 DUP1 DUP6 ADD SWAP2 SWAP1 SWAP2 MSTORE PUSH1 0x8 DUP6 ADD SLOAD PUSH1 0xC0 DUP6 ADD MSTORE PUSH1 0x9 SWAP1 SWAP5 ADD SLOAD SWAP2 DUP3 AND PUSH1 0xE0 DUP5 ADD MSTORE PUSH1 0x1 PUSH1 0xA0 SHL SWAP1 SWAP2 DIV AND ISZERO ISZERO PUSH2 0x100 SWAP1 SWAP2 ADD MSTORE DUP2 ADD MLOAD SWAP1 SWAP2 POP PUSH1 0x0 SWAP1 PUSH2 0x3371 SWAP1 TIMESTAMP PUSH2 0x59CE JUMP JUMPDEST PUSH1 0x69 SLOAD SWAP1 SWAP2 POP PUSH1 0x1 DUP2 LT ISZERO PUSH2 0x3398 JUMPI PUSH1 0x40 MLOAD PUSH3 0x461BCD PUSH1 0xE5 SHL DUP2 MSTORE PUSH1 0x4 ADD PUSH2 0x563 SWAP1 PUSH2 0x59FB JUMP JUMPDEST PUSH1 0xC0 DUP4 ADD MLOAD PUSH2 0x33AA SWAP1 PUSH3 0x15180 PUSH2 0x5A7B JUMP JUMPDEST DUP3 LT PUSH2 0x33C8 JUMPI PUSH1 0x40 MLOAD PUSH3 0x461BCD PUSH1 0xE5 SHL DUP2 MSTORE PUSH1 0x4 ADD PUSH2 0x563 SWAP1 PUSH2 0x5A2B JUMP JUMPDEST CALLER PUSH1 0x0 SWAP1 DUP2 MSTORE PUSH1 0x79 PUSH1 0x20 SWAP1 DUP2 MSTORE PUSH1 0x40 SWAP2 DUP3 SWAP1 KECCAK256 DUP1 SLOAD DUP4 MLOAD DUP2 DUP5 MUL DUP2 ADD DUP5 ADD SWAP1 SWAP5 MSTORE DUP1 DUP5 MSTORE PUSH2 0x3429 SWAP4 SWAP3 DUP4 ADD DUP3 DUP3 DUP1 ISZERO PUSH2 0x1272 JUMPI PUSH1 0x20 MUL DUP3 ADD SWAP2 SWAP1 PUSH1 0x0 MSTORE PUSH1 0x20 PUSH1 0x0 KECCAK256 SWAP1 DUP2 SLOAD DUP2 MSTORE PUSH1 0x20 ADD SWAP1 PUSH1 0x1 ADD SWAP1 DUP1 DUP4 GT PUSH2 0x125E JUMPI POP POP POP POP POP DUP6 PUSH2 0x2BA6 JUMP JUMPDEST ISZERO PUSH2 0x3446 JUMPI PUSH1 0x40 MLOAD PUSH3 0x461BCD PUSH1 0xE5 SHL DUP2 MSTORE PUSH1 0x4 ADD PUSH2 0x563 SWAP1 PUSH2 0x5A9A JUMP JUMPDEST PUSH1 0x0 DUP6 DUP2 MSTORE PUSH1 0x7B PUSH1 0x20 SWAP1 DUP2 MSTORE PUSH1 0x40 SWAP2 DUP3 SWAP1 KECCAK256 DUP1 SLOAD DUP4 MLOAD DUP2 DUP5 MUL DUP2 ADD DUP5 ADD SWAP1 SWAP5 MSTORE DUP1 DUP5 MSTORE PUSH2 0x34A6 SWAP4 SWAP3 DUP4 ADD DUP3 DUP3 DUP1 ISZERO PUSH2 0x1272 JUMPI PUSH1 0x20 MUL DUP3 ADD SWAP2 SWAP1 PUSH1 0x0 MSTORE PUSH1 0x20 PUSH1 0x0 KECCAK256 SWAP1 DUP2 SLOAD DUP2 MSTORE PUSH1 0x20 ADD SWAP1 PUSH1 0x1 ADD SWAP1 DUP1 DUP4 GT PUSH2 0x125E JUMPI POP POP POP POP POP DUP6 PUSH2 0x2BA6 JUMP JUMPDEST ISZERO PUSH2 0x34C3 JUMPI PUSH1 0x40 MLOAD PUSH3 0x461BCD PUSH1 0xE5 SHL DUP2 MSTORE PUSH1 0x4 ADD PUSH2 0x563 SWAP1 PUSH2 0x5ADC JUMP JUMPDEST PUSH2 0x100 DUP4 ADD MLOAD PUSH2 0x34D6 SWAP1 PUSH3 0x15180 PUSH2 0x5A7B JUMP JUMPDEST DUP3 LT PUSH2 0x34F4 JUMPI PUSH1 0x40 MLOAD PUSH3 0x461BCD PUSH1 0xE5 SHL DUP2 MSTORE PUSH1 0x4 ADD PUSH2 0x563 SWAP1 PUSH2 0x5B21 JUMP JUMPDEST PUSH1 0x0 DUP7 DUP2 MSTORE PUSH1 0x71 PUSH1 0x20 MSTORE PUSH1 0x40 SWAP1 KECCAK256 PUSH1 0x1 DUP2 ADD SLOAD PUSH1 0x2 EQ DUP1 PUSH2 0x3519 JUMPI POP DUP1 PUSH1 0x1 ADD SLOAD PUSH1 0x5 EQ JUMPDEST PUSH2 0x2F00 JUMPI PUSH1 0x40 MLOAD PUSH3 0x461BCD PUSH1 0xE5 SHL DUP2 MSTORE PUSH1 0x4 ADD PUSH2 0x563 SWAP1 PUSH2 0x5CA7 JUMP JUMPDEST DUP2 DUP2 PUSH1 0x0 PUSH1 0x71 PUSH1 0x0 DUP4 DUP2 MSTORE PUSH1 0x20 ADD SWAP1 DUP2 MSTORE PUSH1 0x20 ADD PUSH1 0x0 KECCAK256 PUSH1 0x40 MLOAD DUP1 PUSH2 0x160 ADD PUSH1 0x40 MSTORE SWAP1 DUP2 PUSH1 0x0 DUP3 ADD SLOAD DUP2 MSTORE PUSH1 0x20 ADD PUSH1 0x1 DUP3 ADD SLOAD DUP2 MSTORE PUSH1 0x20 ADD PUSH1 0x2 DUP3 ADD DUP1 SLOAD PUSH2 0x357C SWAP1 PUSH2 0x5946 JUMP JUMPDEST DUP1 PUSH1 0x1F ADD PUSH1 0x20 DUP1 SWAP2 DIV MUL PUSH1 0x20 ADD PUSH1 0x40 MLOAD SWAP1 DUP2 ADD PUSH1 0x40 MSTORE DUP1 SWAP3 SWAP2 SWAP1 DUP2 DUP2 MSTORE PUSH1 0x20 ADD DUP3 DUP1 SLOAD PUSH2 0x35A8 SWAP1 PUSH2 0x5946 JUMP JUMPDEST DUP1 ISZERO PUSH2 0x35F5 JUMPI DUP1 PUSH1 0x1F LT PUSH2 0x35CA JUMPI PUSH2 0x100 DUP1 DUP4 SLOAD DIV MUL DUP4 MSTORE SWAP2 PUSH1 0x20 ADD SWAP2 PUSH2 0x35F5 JUMP JUMPDEST DUP3 ADD SWAP2 SWAP1 PUSH1 0x0 MSTORE PUSH1 0x20 PUSH1 0x0 KECCAK256 SWAP1 JUMPDEST DUP2 SLOAD DUP2 MSTORE SWAP1 PUSH1 0x1 ADD SWAP1 PUSH1 0x20 ADD DUP1 DUP4 GT PUSH2 0x35D8 JUMPI DUP3 SWAP1 SUB PUSH1 0x1F AND DUP3 ADD SWAP2 JUMPDEST POP POP POP SWAP2 DUP4 MSTORE POP POP PUSH1 0x3 DUP3 ADD SLOAD PUSH1 0x1 PUSH1 0x1 PUSH1 0xA0 SHL SUB SWAP1 DUP2 AND PUSH1 0x20 DUP4 ADD MSTORE PUSH1 0x4 DUP4 ADD SLOAD PUSH1 0x40 DUP4 ADD MSTORE PUSH1 0x5 DUP4 ADD SLOAD PUSH1 0x60 DUP4 ADD MSTORE PUSH1 0x6 DUP4 ADD SLOAD PUSH1 0x80 DUP4 ADD MSTORE PUSH1 0x7 DUP4 ADD SLOAD PUSH1 0xFF SWAP1 DUP2 AND ISZERO ISZERO PUSH1 0xA0 DUP1 DUP6 ADD SWAP2 SWAP1 SWAP2 MSTORE PUSH1 0x8 DUP6 ADD SLOAD PUSH1 0xC0 DUP6 ADD MSTORE PUSH1 0x9 SWAP1 SWAP5 ADD SLOAD SWAP2 DUP3 AND PUSH1 0xE0 DUP5 ADD MSTORE PUSH1 0x1 PUSH1 0xA0 SHL SWAP1 SWAP2 DIV AND ISZERO ISZERO PUSH2 0x100 SWAP1 SWAP2 ADD MSTORE DUP2 ADD MLOAD SWAP1 SWAP2 POP PUSH1 0x0 SWAP1 PUSH2 0x3682 SWAP1 TIMESTAMP PUSH2 0x59CE JUMP JUMPDEST PUSH1 0x69 SLOAD SWAP1 SWAP2 POP PUSH1 0x1 DUP2 LT ISZERO PUSH2 0x36A9 JUMPI PUSH1 0x40 MLOAD PUSH3 0x461BCD PUSH1 0xE5 SHL DUP2 MSTORE PUSH1 0x4 ADD PUSH2 0x563 SWAP1 PUSH2 0x59FB JUMP JUMPDEST PUSH1 0xC0 DUP4 ADD MLOAD PUSH2 0x36BB SWAP1 PUSH3 0x15180 PUSH2 0x5A7B JUMP JUMPDEST DUP3 LT PUSH2 0x36D9 JUMPI PUSH1 0x40 MLOAD PUSH3 0x461BCD PUSH1 0xE5 SHL DUP2 MSTORE PUSH1 0x4 ADD PUSH2 0x563 SWAP1 PUSH2 0x5A2B JUMP JUMPDEST CALLER PUSH1 0x0 SWAP1 DUP2 MSTORE PUSH1 0x79 PUSH1 0x20 SWAP1 DUP2 MSTORE PUSH1 0x40 SWAP2 DUP3 SWAP1 KECCAK256 DUP1 SLOAD DUP4 MLOAD DUP2 DUP5 MUL DUP2 ADD DUP5 ADD SWAP1 SWAP5 MSTORE DUP1 DUP5 MSTORE PUSH2 0x373A SWAP4 SWAP3 DUP4 ADD DUP3 DUP3 DUP1 ISZERO PUSH2 0x1272 JUMPI PUSH1 0x20 MUL DUP3 ADD SWAP2 SWAP1 PUSH1 0x0 MSTORE PUSH1 0x20 PUSH1 0x0 KECCAK256 SWAP1 DUP2 SLOAD DUP2 MSTORE PUSH1 0x20 ADD SWAP1 PUSH1 0x1 ADD SWAP1 DUP1 DUP4 GT PUSH2 0x125E JUMPI POP POP POP POP POP DUP6 PUSH2 0x2BA6 JUMP JUMPDEST ISZERO PUSH2 0x3757 JUMPI PUSH1 0x40 MLOAD PUSH3 0x461BCD PUSH1 0xE5 SHL DUP2 MSTORE PUSH1 0x4 ADD PUSH2 0x563 SWAP1 PUSH2 0x5A9A JUMP JUMPDEST PUSH1 0x0 DUP6 DUP2 MSTORE PUSH1 0x7B PUSH1 0x20 SWAP1 DUP2 MSTORE PUSH1 0x40 SWAP2 DUP3 SWAP1 KECCAK256 DUP1 SLOAD DUP4 MLOAD DUP2 DUP5 MUL DUP2 ADD DUP5 ADD SWAP1 SWAP5 MSTORE DUP1 DUP5 MSTORE PUSH2 0x37B7 SWAP4 SWAP3 DUP4 ADD DUP3 DUP3 DUP1 ISZERO PUSH2 0x1272 JUMPI PUSH1 0x20 MUL DUP3 ADD SWAP2 SWAP1 PUSH1 0x0 MSTORE PUSH1 0x20 PUSH1 0x0 KECCAK256 SWAP1 DUP2 SLOAD DUP2 MSTORE PUSH1 0x20 ADD SWAP1 PUSH1 0x1 ADD SWAP1 DUP1 DUP4 GT PUSH2 0x125E JUMPI POP POP POP POP POP DUP6 PUSH2 0x2BA6 JUMP JUMPDEST ISZERO PUSH2 0x37D4 JUMPI PUSH1 0x40 MLOAD PUSH3 0x461BCD PUSH1 0xE5 SHL DUP2 MSTORE PUSH1 0x4 ADD PUSH2 0x563 SWAP1 PUSH2 0x5ADC JUMP JUMPDEST PUSH2 0x100 DUP4 ADD MLOAD PUSH2 0x37E7 SWAP1 PUSH3 0x15180 PUSH2 0x5A7B JUMP JUMPDEST DUP3 LT PUSH2 0x3805 JUMPI PUSH1 0x40 MLOAD PUSH3 0x461BCD PUSH1 0xE5 SHL DUP2 MSTORE PUSH1 0x4 ADD PUSH2 0x563 SWAP1 PUSH2 0x5B21 JUMP JUMPDEST PUSH1 0x0 DUP7 DUP2 MSTORE PUSH1 0x71 PUSH1 0x20 MSTORE PUSH1 0x40 SWAP1 KECCAK256 PUSH1 0x1 DUP2 ADD SLOAD PUSH1 0x3 EQ DUP1 PUSH2 0x31FE JUMPI POP DUP1 PUSH1 0x1 ADD SLOAD PUSH1 0x6 EQ PUSH2 0x321A JUMPI PUSH1 0x40 MLOAD PUSH3 0x461BCD PUSH1 0xE5 SHL DUP2 MSTORE PUSH1 0x4 ADD PUSH2 0x563 SWAP1 PUSH2 0x5CA7 JUMP JUMPDEST DUP2 DUP2 PUSH1 0x0 PUSH1 0x71 PUSH1 0x0 DUP4 DUP2 MSTORE PUSH1 0x20 ADD SWAP1 DUP2 MSTORE PUSH1 0x20 ADD PUSH1 0x0 KECCAK256 PUSH1 0x40 MLOAD DUP1 PUSH2 0x160 ADD PUSH1 0x40 MSTORE SWAP1 DUP2 PUSH1 0x0 DUP3 ADD SLOAD DUP2 MSTORE PUSH1 0x20 ADD PUSH1 0x1 DUP3 ADD SLOAD DUP2 MSTORE PUSH1 0x20 ADD PUSH1 0x2 DUP3 ADD DUP1 SLOAD PUSH2 0x388C SWAP1 PUSH2 0x5946 JUMP JUMPDEST DUP1 PUSH1 0x1F ADD PUSH1 0x20 DUP1 SWAP2 DIV MUL PUSH1 0x20 ADD PUSH1 0x40 MLOAD SWAP1 DUP2 ADD PUSH1 0x40 MSTORE DUP1 SWAP3 SWAP2 SWAP1 DUP2 DUP2 MSTORE PUSH1 0x20 ADD DUP3 DUP1 SLOAD PUSH2 0x38B8 SWAP1 PUSH2 0x5946 JUMP JUMPDEST DUP1 ISZERO PUSH2 0x3905 JUMPI DUP1 PUSH1 0x1F LT PUSH2 0x38DA JUMPI PUSH2 0x100 DUP1 DUP4 SLOAD DIV MUL DUP4 MSTORE SWAP2 PUSH1 0x20 ADD SWAP2 PUSH2 0x3905 JUMP JUMPDEST DUP3 ADD SWAP2 SWAP1 PUSH1 0x0 MSTORE PUSH1 0x20 PUSH1 0x0 KECCAK256 SWAP1 JUMPDEST DUP2 SLOAD DUP2 MSTORE SWAP1 PUSH1 0x1 ADD SWAP1 PUSH1 0x20 ADD DUP1 DUP4 GT PUSH2 0x38E8 JUMPI DUP3 SWAP1 SUB PUSH1 0x1F AND DUP3 ADD SWAP2 JUMPDEST POP POP POP SWAP2 DUP4 MSTORE POP POP PUSH1 0x3 DUP3 DUP2 ADD SLOAD PUSH1 0x1 PUSH1 0x1 PUSH1 0xA0 SHL SUB SWAP1 DUP2 AND PUSH1 0x20 DUP1 DUP6 ADD SWAP2 SWAP1 SWAP2 MSTORE PUSH1 0x4 DUP6 ADD SLOAD PUSH1 0x40 DUP1 DUP7 ADD SWAP2 SWAP1 SWAP2 MSTORE PUSH1 0x5 DUP7 ADD SLOAD PUSH1 0x60 DUP7 ADD MSTORE PUSH1 0x6 DUP7 ADD SLOAD PUSH1 0x80 DUP7 ADD MSTORE PUSH1 0x7 DUP7 ADD SLOAD PUSH1 0xFF SWAP1 DUP2 AND ISZERO ISZERO PUSH1 0xA0 DUP8 ADD MSTORE PUSH1 0x8 DUP8 ADD SLOAD PUSH1 0xC0 DUP8 ADD MSTORE PUSH1 0x9 SWAP1 SWAP7 ADD SLOAD SWAP3 DUP4 AND PUSH1 0xE0 DUP7 ADD MSTORE PUSH1 0x1 PUSH1 0xA0 SHL SWAP1 SWAP3 DIV DUP6 AND ISZERO ISZERO PUSH2 0x100 SWAP1 SWAP5 ADD SWAP4 SWAP1 SWAP4 MSTORE CALLER PUSH1 0x0 SWAP1 DUP2 MSTORE PUSH1 0x76 SWAP1 SWAP4 MSTORE SWAP1 SWAP2 KECCAK256 ADD SLOAD SWAP2 SWAP3 POP AND ISZERO ISZERO PUSH1 0x1 EQ PUSH2 0x39BD JUMPI PUSH1 0x40 MLOAD PUSH3 0x461BCD PUSH1 0xE5 SHL DUP2 MSTORE PUSH1 0x4 ADD PUSH2 0x563 SWAP1 PUSH2 0x5B58 JUMP JUMPDEST CALLER PUSH1 0x0 SWAP1 DUP2 MSTORE PUSH1 0x7A PUSH1 0x20 SWAP1 DUP2 MSTORE PUSH1 0x40 SWAP2 DUP3 SWAP1 KECCAK256 DUP1 SLOAD DUP4 MLOAD DUP2 DUP5 MUL DUP2 ADD DUP5 ADD SWAP1 SWAP5 MSTORE DUP1 DUP5 MSTORE PUSH2 0x3A1E SWAP4 SWAP3 DUP4 ADD DUP3 DUP3 DUP1 ISZERO PUSH2 0x1856 JUMPI PUSH1 0x20 MUL DUP3 ADD SWAP2 SWAP1 PUSH1 0x0 MSTORE PUSH1 0x20 PUSH1 0x0 KECCAK256 SWAP1 DUP2 SLOAD DUP2 MSTORE PUSH1 0x20 ADD SWAP1 PUSH1 0x1 ADD SWAP1 DUP1 DUP4 GT PUSH2 0x1842 JUMPI POP POP POP POP POP DUP4 PUSH2 0x2BA6 JUMP JUMPDEST ISZERO PUSH2 0x3A3B JUMPI PUSH1 0x40 MLOAD PUSH3 0x461BCD PUSH1 0xE5 SHL DUP2 MSTORE PUSH1 0x4 ADD PUSH2 0x563 SWAP1 PUSH2 0x5B8F JUMP JUMPDEST PUSH1 0x0 DUP3 DUP2 MSTORE PUSH1 0x71 PUSH1 0x20 MSTORE PUSH1 0x40 SWAP1 KECCAK256 SLOAD DUP3 EQ PUSH2 0x3A68 JUMPI PUSH1 0x40 MLOAD PUSH3 0x461BCD PUSH1 0xE5 SHL DUP2 MSTORE PUSH1 0x4 ADD PUSH2 0x563 SWAP1 PUSH2 0x5BD9 JUMP JUMPDEST PUSH1 0xE0 DUP2 ADD MLOAD ISZERO PUSH2 0x3A8A JUMPI PUSH1 0x40 MLOAD PUSH3 0x461BCD PUSH1 0xE5 SHL DUP2 MSTORE PUSH1 0x4 ADD PUSH2 0x563 SWAP1 PUSH2 0x5C05 JUMP JUMPDEST PUSH1 0x1 PUSH1 0x1 PUSH1 0xA0 SHL SUB DUP4 AND PUSH1 0x0 SWAP1 DUP2 MSTORE PUSH1 0x74 PUSH1 0x20 MSTORE PUSH1 0x40 SWAP1 KECCAK256 PUSH1 0x1 ADD SLOAD DUP3 EQ PUSH2 0x3AC4 JUMPI PUSH1 0x40 MLOAD PUSH3 0x461BCD PUSH1 0xE5 SHL DUP2 MSTORE PUSH1 0x4 ADD PUSH2 0x563 SWAP1 PUSH2 0x5C31 JUMP JUMPDEST PUSH1 0x0 PUSH1 0x71 PUSH1 0x0 DUP7 DUP2 MSTORE PUSH1 0x20 ADD SWAP1 DUP2 MSTORE PUSH1 0x20 ADD PUSH1 0x0 KECCAK256 PUSH1 0x40 MLOAD DUP1 PUSH2 0x160 ADD PUSH1 0x40 MSTORE SWAP1 DUP2 PUSH1 0x0 DUP3 ADD SLOAD DUP2 MSTORE PUSH1 0x20 ADD PUSH1 0x1 DUP3 ADD SLOAD DUP2 MSTORE PUSH1 0x20 ADD PUSH1 0x2 DUP3 ADD DUP1 SLOAD PUSH2 0x3B09 SWAP1 PUSH2 0x5946 JUMP JUMPDEST DUP1 PUSH1 0x1F ADD PUSH1 0x20 DUP1 SWAP2 DIV MUL PUSH1 0x20 ADD PUSH1 0x40 MLOAD SWAP1 DUP2 ADD PUSH1 0x40 MSTORE DUP1 SWAP3 SWAP2 SWAP1 DUP2 DUP2 MSTORE PUSH1 0x20 ADD DUP3 DUP1 SLOAD PUSH2 0x3B35 SWAP1 PUSH2 0x5946 JUMP JUMPDEST DUP1 ISZERO PUSH2 0x3B82 JUMPI DUP1 PUSH1 0x1F LT PUSH2 0x3B57 JUMPI PUSH2 0x100 DUP1 DUP4 SLOAD DIV MUL DUP4 MSTORE SWAP2 PUSH1 0x20 ADD SWAP2 PUSH2 0x3B82 JUMP JUMPDEST DUP3 ADD SWAP2 SWAP1 PUSH1 0x0 MSTORE PUSH1 0x20 PUSH1 0x0 KECCAK256 SWAP1 JUMPDEST DUP2 SLOAD DUP2 MSTORE SWAP1 PUSH1 0x1 ADD SWAP1 PUSH1 0x20 ADD DUP1 DUP4 GT PUSH2 0x3B65 JUMPI DUP3 SWAP1 SUB PUSH1 0x1F AND DUP3 ADD SWAP2 JUMPDEST POP POP POP SWAP2 DUP4 MSTORE POP POP PUSH1 0x3 DUP3 ADD SLOAD PUSH1 0x1 PUSH1 0x1 PUSH1 0xA0 SHL SUB SWAP1 DUP2 AND PUSH1 0x20 DUP4 ADD MSTORE PUSH1 0x4 DUP4 ADD SLOAD PUSH1 0x40 DUP4 ADD MSTORE PUSH1 0x5 DUP4 ADD SLOAD PUSH1 0x60 DUP4 ADD MSTORE PUSH1 0x6 DUP4 ADD SLOAD PUSH1 0x80 DUP4 ADD MSTORE PUSH1 0x7 DUP4 ADD SLOAD PUSH1 0xFF SWAP1 DUP2 AND ISZERO ISZERO PUSH1 0xA0 DUP5 ADD MSTORE PUSH1 0x8 DUP5 ADD SLOAD PUSH1 0xC0 DUP5 ADD MSTORE PUSH1 0x9 SWAP1 SWAP4 ADD SLOAD DUP1 DUP3 AND PUSH1 0xE0 DUP5 ADD MSTORE PUSH1 0x1 PUSH1 0xA0 SHL SWAP1 DIV SWAP1 SWAP3 AND ISZERO ISZERO PUSH2 0x100 SWAP1 SWAP2 ADD MSTORE DUP8 AND PUSH2 0x120 DUP3 ADD MSTORE SWAP1 POP PUSH2 0x3C0D DUP7 DUP3 PUSH2 0x5018 JUMP JUMPDEST POP PUSH2 0x3C17 DUP7 PUSH2 0x50CD JUMP JUMPDEST POP POP POP POP POP POP JUMP JUMPDEST DUP2 DUP2 PUSH1 0x0 PUSH1 0x71 PUSH1 0x0 DUP4 DUP2 MSTORE PUSH1 0x20 ADD SWAP1 DUP2 MSTORE PUSH1 0x20 ADD PUSH1 0x0 KECCAK256 PUSH1 0x40 MLOAD DUP1 PUSH2 0x160 ADD PUSH1 0x40 MSTORE SWAP1 DUP2 PUSH1 0x0 DUP3 ADD SLOAD DUP2 MSTORE PUSH1 0x20 ADD PUSH1 0x1 DUP3 ADD SLOAD DUP2 MSTORE PUSH1 0x20 ADD PUSH1 0x2 DUP3 ADD DUP1 SLOAD PUSH2 0x3C66 SWAP1 PUSH2 0x5946 JUMP JUMPDEST DUP1 PUSH1 0x1F ADD PUSH1 0x20 DUP1 SWAP2 DIV MUL PUSH1 0x20 ADD PUSH1 0x40 MLOAD SWAP1 DUP2 ADD PUSH1 0x40 MSTORE DUP1 SWAP3 SWAP2 SWAP1 DUP2 DUP2 MSTORE PUSH1 0x20 ADD DUP3 DUP1 SLOAD PUSH2 0x3C92 SWAP1 PUSH2 0x5946 JUMP JUMPDEST DUP1 ISZERO PUSH2 0x3CDF JUMPI DUP1 PUSH1 0x1F LT PUSH2 0x3CB4 JUMPI PUSH2 0x100 DUP1 DUP4 SLOAD DIV MUL DUP4 MSTORE SWAP2 PUSH1 0x20 ADD SWAP2 PUSH2 0x3CDF JUMP JUMPDEST DUP3 ADD SWAP2 SWAP1 PUSH1 0x0 MSTORE PUSH1 0x20 PUSH1 0x0 KECCAK256 SWAP1 JUMPDEST DUP2 SLOAD DUP2 MSTORE SWAP1 PUSH1 0x1 ADD SWAP1 PUSH1 0x20 ADD DUP1 DUP4 GT PUSH2 0x3CC2 JUMPI DUP3 SWAP1 SUB PUSH1 0x1F AND DUP3 ADD SWAP2 JUMPDEST POP POP POP SWAP2 DUP4 MSTORE POP POP PUSH1 0x3 DUP3 DUP2 ADD SLOAD PUSH1 0x1 PUSH1 0x1 PUSH1 0xA0 SHL SUB SWAP1 DUP2 AND PUSH1 0x20 DUP1 DUP6 ADD SWAP2 SWAP1 SWAP2 MSTORE PUSH1 0x4 DUP1 DUP7 ADD SLOAD PUSH1 0x40 DUP1 DUP8 ADD SWAP2 SWAP1 SWAP2 MSTORE PUSH1 0x5 DUP8 ADD SLOAD PUSH1 0x60 DUP1 DUP9 ADD SWAP2 SWAP1 SWAP2 MSTORE PUSH1 0x6 DUP9 ADD SLOAD PUSH1 0x80 DUP1 DUP10 ADD SWAP2 SWAP1 SWAP2 MSTORE PUSH1 0x7 DUP10 ADD SLOAD PUSH1 0xFF SWAP1 DUP2 AND ISZERO ISZERO PUSH1 0xA0 DUP1 DUP12 ADD SWAP2 SWAP1 SWAP2 MSTORE PUSH1 0x8 DUP12 ADD SLOAD PUSH1 0xC0 DUP1 DUP13 ADD SWAP2 SWAP1 SWAP2 MSTORE PUSH1 0x9 SWAP1 SWAP12 ADD SLOAD DUP1 DUP10 AND PUSH1 0xE0 DUP1 DUP14 ADD SWAP2 SWAP1 SWAP2 MSTORE PUSH1 0x1 PUSH1 0xA0 SHL SWAP1 SWAP2 DIV DUP4 AND ISZERO ISZERO PUSH2 0x100 SWAP12 DUP13 ADD MSTORE CALLER PUSH1 0x0 SWAP1 DUP2 MSTORE PUSH1 0x76 DUP10 MSTORE DUP7 SWAP1 KECCAK256 DUP7 MLOAD SWAP2 DUP3 ADD DUP8 MSTORE DUP1 SLOAD DUP3 MSTORE PUSH1 0x1 DUP2 DUP2 ADD SLOAD SWAP1 SWAP11 AND SWAP9 DUP3 ADD SWAP9 SWAP1 SWAP9 MSTORE PUSH1 0x2 DUP9 ADD SLOAD SWAP6 DUP2 ADD SWAP6 SWAP1 SWAP6 MSTORE SWAP8 DUP7 ADD SLOAD DUP1 DUP3 AND ISZERO ISZERO SWAP4 DUP6 ADD SWAP4 SWAP1 SWAP4 MSTORE SWAP8 DUP3 DIV DUP9 AND ISZERO ISZERO SWAP1 DUP4 ADD DUP2 SWAP1 MSTORE PUSH3 0x10000 SWAP1 SWAP2 DIV SWAP1 SWAP7 AND ISZERO ISZERO SWAP5 DUP2 ADD SWAP5 SWAP1 SWAP5 MSTORE ADD SLOAD SWAP4 DUP3 ADD SWAP4 SWAP1 SWAP4 MSTORE SWAP3 SWAP4 POP EQ PUSH2 0x3E25 JUMPI PUSH1 0x40 MLOAD PUSH3 0x461BCD PUSH1 0xE5 SHL DUP2 MSTORE PUSH1 0x20 PUSH1 0x4 DUP3 ADD MSTORE PUSH1 0x11 PUSH1 0x24 DUP3 ADD MSTORE PUSH17 0x4E6F20566F74696E672052696768747321 PUSH1 0x78 SHL PUSH1 0x44 DUP3 ADD MSTORE PUSH1 0x64 ADD PUSH2 0x563 JUMP JUMPDEST CALLER PUSH1 0x0 SWAP1 DUP2 MSTORE PUSH1 0x76 PUSH1 0x20 MSTORE PUSH1 0x40 SWAP1 KECCAK256 PUSH1 0x3 ADD SLOAD PUSH1 0xFF AND ISZERO ISZERO PUSH1 0x1 EQ PUSH2 0x3E5C JUMPI PUSH1 0x40 MLOAD PUSH3 0x461BCD PUSH1 0xE5 SHL DUP2 MSTORE PUSH1 0x4 ADD PUSH2 0x563 SWAP1 PUSH2 0x5B58 JUMP JUMPDEST CALLER PUSH1 0x0 SWAP1 DUP2 MSTORE PUSH1 0x7A PUSH1 0x20 SWAP1 DUP2 MSTORE PUSH1 0x40 SWAP2 DUP3 SWAP1 KECCAK256 DUP1 SLOAD DUP4 MLOAD DUP2 DUP5 MUL DUP2 ADD DUP5 ADD SWAP1 SWAP5 MSTORE DUP1 DUP5 MSTORE PUSH2 0x3EBF SWAP4 SWAP3 DUP4 ADD DUP3 DUP3 DUP1 ISZERO PUSH2 0x3EB4 JUMPI PUSH1 0x20 MUL DUP3 ADD SWAP2 SWAP1 PUSH1 0x0 MSTORE PUSH1 0x20 PUSH1 0x0 KECCAK256 SWAP1 JUMPDEST DUP2 SLOAD DUP2 MSTORE PUSH1 0x20 ADD SWAP1 PUSH1 0x1 ADD SWAP1 DUP1 DUP4 GT PUSH2 0x3EA0 JUMPI JUMPDEST POP POP POP POP POP DUP5 PUSH2 0x2BA6 JUMP JUMPDEST ISZERO PUSH2 0x3EDC JUMPI PUSH1 0x40 MLOAD PUSH3 0x461BCD PUSH1 0xE5 SHL DUP2 MSTORE PUSH1 0x4 ADD PUSH2 0x563 SWAP1 PUSH2 0x5B8F JUMP JUMPDEST PUSH1 0x0 DUP4 DUP2 MSTORE PUSH1 0x71 PUSH1 0x20 MSTORE PUSH1 0x40 SWAP1 KECCAK256 SLOAD DUP4 EQ PUSH2 0x3F09 JUMPI PUSH1 0x40 MLOAD PUSH3 0x461BCD PUSH1 0xE5 SHL DUP2 MSTORE PUSH1 0x4 ADD PUSH2 0x563 SWAP1 PUSH2 0x5BD9 JUMP JUMPDEST PUSH1 0xE0 DUP3 ADD MLOAD ISZERO PUSH2 0x3F2B JUMPI PUSH1 0x40 MLOAD PUSH3 0x461BCD PUSH1 0xE5 SHL DUP2 MSTORE PUSH1 0x4 ADD PUSH2 0x563 SWAP1 PUSH2 0x5C05 JUMP JUMPDEST PUSH1 0x1 PUSH1 0x1 PUSH1 0xA0 SHL SUB DUP5 AND PUSH1 0x0 SWAP1 DUP2 MSTORE PUSH1 0x74 PUSH1 0x20 MSTORE PUSH1 0x40 SWAP1 KECCAK256 PUSH1 0x1 ADD SLOAD DUP4 EQ PUSH2 0x3F65 JUMPI PUSH1 0x40 MLOAD PUSH3 0x461BCD PUSH1 0xE5 SHL DUP2 MSTORE PUSH1 0x4 ADD PUSH2 0x563 SWAP1 PUSH2 0x5C31 JUMP JUMPDEST PUSH1 0x0 PUSH1 0x71 PUSH1 0x0 DUP8 DUP2 MSTORE PUSH1 0x20 ADD SWAP1 DUP2 MSTORE PUSH1 0x20 ADD PUSH1 0x0 KECCAK256 PUSH1 0x40 MLOAD DUP1 PUSH2 0x160 ADD PUSH1 0x40 MSTORE SWAP1 DUP2 PUSH1 0x0 DUP3 ADD SLOAD DUP2 MSTORE PUSH1 0x20 ADD PUSH1 0x1 DUP3 ADD SLOAD DUP2 MSTORE PUSH1 0x20 ADD PUSH1 0x2 DUP3 ADD DUP1 SLOAD PUSH2 0x3FAA SWAP1 PUSH2 0x5946 JUMP JUMPDEST DUP1 PUSH1 0x1F ADD PUSH1 0x20 DUP1 SWAP2 DIV MUL PUSH1 0x20 ADD PUSH1 0x40 MLOAD SWAP1 DUP2 ADD PUSH1 0x40 MSTORE DUP1 SWAP3 SWAP2 SWAP1 DUP2 DUP2 MSTORE PUSH1 0x20 ADD DUP3 DUP1 SLOAD PUSH2 0x3FD6 SWAP1 PUSH2 0x5946 JUMP JUMPDEST DUP1 ISZERO PUSH2 0x4023 JUMPI DUP1 PUSH1 0x1F LT PUSH2 0x3FF8 JUMPI PUSH2 0x100 DUP1 DUP4 SLOAD DIV MUL DUP4 MSTORE SWAP2 PUSH1 0x20 ADD SWAP2 PUSH2 0x4023 JUMP JUMPDEST DUP3 ADD SWAP2 SWAP1 PUSH1 0x0 MSTORE PUSH1 0x20 PUSH1 0x0 KECCAK256 SWAP1 JUMPDEST DUP2 SLOAD DUP2 MSTORE SWAP1 PUSH1 0x1 ADD SWAP1 PUSH1 0x20 ADD DUP1 DUP4 GT PUSH2 0x4006 JUMPI DUP3 SWAP1 SUB PUSH1 0x1F AND DUP3 ADD SWAP2 JUMPDEST POP POP POP SWAP2 DUP4 MSTORE POP POP PUSH1 0x3 DUP3 ADD SLOAD PUSH1 0x1 PUSH1 0x1 PUSH1 0xA0 SHL SUB SWAP1 DUP2 AND PUSH1 0x20 DUP1 DUP5 ADD SWAP2 SWAP1 SWAP2 MSTORE PUSH1 0x4 DUP5 ADD SLOAD PUSH1 0x40 DUP5 ADD MSTORE PUSH1 0x5 DUP5 ADD SLOAD PUSH1 0x60 DUP5 ADD MSTORE PUSH1 0x6 DUP5 ADD SLOAD PUSH1 0x80 DUP5 ADD MSTORE PUSH1 0x7 DUP5 ADD SLOAD PUSH1 0xFF SWAP1 DUP2 AND ISZERO ISZERO PUSH1 0xA0 DUP6 ADD MSTORE PUSH1 0x8 DUP6 ADD SLOAD PUSH1 0xC0 DUP6 ADD MSTORE PUSH1 0x9 SWAP1 SWAP5 ADD SLOAD SWAP2 DUP3 AND PUSH1 0xE0 DUP5 ADD MSTORE PUSH1 0x1 PUSH1 0xA0 SHL SWAP1 SWAP2 DIV SWAP1 SWAP3 AND ISZERO ISZERO PUSH2 0x100 SWAP1 SWAP2 ADD MSTORE DUP2 ADD MLOAD SWAP1 SWAP2 POP PUSH1 0x1 EQ PUSH2 0x40C4 JUMPI PUSH1 0x40 MLOAD PUSH3 0x461BCD PUSH1 0xE5 SHL DUP2 MSTORE PUSH1 0x4 ADD PUSH2 0x563 SWAP1 PUSH2 0x5CD3 JUMP JUMPDEST PUSH1 0x1 PUSH1 0x1 PUSH1 0xA0 SHL SUB DUP8 AND PUSH2 0x120 DUP3 ADD MSTORE PUSH2 0x40DE DUP8 DUP3 PUSH2 0x5018 JUMP JUMPDEST POP PUSH2 0x1B01 DUP8 PUSH2 0x50CD JUMP JUMPDEST DUP2 DUP2 PUSH1 0x0 PUSH1 0x71 PUSH1 0x0 DUP4 DUP2 MSTORE PUSH1 0x20 ADD SWAP1 DUP2 MSTORE PUSH1 0x20 ADD PUSH1 0x0 KECCAK256 PUSH1 0x40 MLOAD DUP1 PUSH2 0x160 ADD PUSH1 0x40 MSTORE SWAP1 DUP2 PUSH1 0x0 DUP3 ADD SLOAD DUP2 MSTORE PUSH1 0x20 ADD PUSH1 0x1 DUP3 ADD SLOAD DUP2 MSTORE PUSH1 0x20 ADD PUSH1 0x2 DUP3 ADD DUP1 SLOAD PUSH2 0x412F SWAP1 PUSH2 0x5946 JUMP JUMPDEST DUP1 PUSH1 0x1F ADD PUSH1 0x20 DUP1 SWAP2 DIV MUL PUSH1 0x20 ADD PUSH1 0x40 MLOAD SWAP1 DUP2 ADD PUSH1 0x40 MSTORE DUP1 SWAP3 SWAP2 SWAP1 DUP2 DUP2 MSTORE PUSH1 0x20 ADD DUP3 DUP1 SLOAD PUSH2 0x415B SWAP1 PUSH2 0x5946 JUMP JUMPDEST DUP1 ISZERO PUSH2 0x41A8 JUMPI DUP1 PUSH1 0x1F LT PUSH2 0x417D JUMPI PUSH2 0x100 DUP1 DUP4 SLOAD DIV MUL DUP4 MSTORE SWAP2 PUSH1 0x20 ADD SWAP2 PUSH2 0x41A8 JUMP JUMPDEST DUP3 ADD SWAP2 SWAP1 PUSH1 0x0 MSTORE PUSH1 0x20 PUSH1 0x0 KECCAK256 SWAP1 JUMPDEST DUP2 SLOAD DUP2 MSTORE SWAP1 PUSH1 0x1 ADD SWAP1 PUSH1 0x20 ADD DUP1 DUP4 GT PUSH2 0x418B JUMPI DUP3 SWAP1 SUB PUSH1 0x1F AND DUP3 ADD SWAP2 JUMPDEST POP POP POP SWAP2 DUP4 MSTORE POP POP PUSH1 0x3 DUP3 DUP2 ADD SLOAD PUSH1 0x1 PUSH1 0x1 PUSH1 0xA0 SHL SUB SWAP1 DUP2 AND PUSH1 0x20 DUP1 DUP6 ADD SWAP2 SWAP1 SWAP2 MSTORE PUSH1 0x4 DUP6 ADD SLOAD PUSH1 0x40 DUP1 DUP7 ADD SWAP2 SWAP1 SWAP2 MSTORE PUSH1 0x5 DUP7 ADD SLOAD PUSH1 0x60 DUP7 ADD MSTORE PUSH1 0x6 DUP7 ADD SLOAD PUSH1 0x80 DUP7 ADD MSTORE PUSH1 0x7 DUP7 ADD SLOAD PUSH1 0xFF SWAP1 DUP2 AND ISZERO ISZERO PUSH1 0xA0 DUP8 ADD MSTORE PUSH1 0x8 DUP8 ADD SLOAD PUSH1 0xC0 DUP8 ADD MSTORE PUSH1 0x9 SWAP1 SWAP7 ADD SLOAD SWAP3 DUP4 AND PUSH1 0xE0 DUP7 ADD MSTORE PUSH1 0x1 PUSH1 0xA0 SHL SWAP1 SWAP3 DIV DUP6 AND ISZERO ISZERO PUSH2 0x100 SWAP1 SWAP5 ADD SWAP4 SWAP1 SWAP4 MSTORE CALLER PUSH1 0x0 SWAP1 DUP2 MSTORE PUSH1 0x76 SWAP1 SWAP4 MSTORE SWAP1 SWAP2 KECCAK256 ADD SLOAD SWAP2 SWAP3 POP AND ISZERO ISZERO PUSH1 0x1 EQ PUSH2 0x4260 JUMPI PUSH1 0x40 MLOAD PUSH3 0x461BCD PUSH1 0xE5 SHL DUP2 MSTORE PUSH1 0x4 ADD PUSH2 0x563 SWAP1 PUSH2 0x5B58 JUMP JUMPDEST CALLER PUSH1 0x0 SWAP1 DUP2 MSTORE PUSH1 0x7A PUSH1 0x20 SWAP1 DUP2 MSTORE PUSH1 0x40 SWAP2 DUP3 SWAP1 KECCAK256 DUP1 SLOAD DUP4 MLOAD DUP2 DUP5 MUL DUP2 ADD DUP5 ADD SWAP1 SWAP5 MSTORE DUP1 DUP5 MSTORE PUSH2 0x42C1 SWAP4 SWAP3 DUP4 ADD DUP3 DUP3 DUP1 ISZERO PUSH2 0x1856 JUMPI PUSH1 0x20 MUL DUP3 ADD SWAP2 SWAP1 PUSH1 0x0 MSTORE PUSH1 0x20 PUSH1 0x0 KECCAK256 SWAP1 DUP2 SLOAD DUP2 MSTORE PUSH1 0x20 ADD SWAP1 PUSH1 0x1 ADD SWAP1 DUP1 DUP4 GT PUSH2 0x1842 JUMPI POP POP POP POP POP DUP4 PUSH2 0x2BA6 JUMP JUMPDEST ISZERO PUSH2 0x42DE JUMPI PUSH1 0x40 MLOAD PUSH3 0x461BCD PUSH1 0xE5 SHL DUP2 MSTORE PUSH1 0x4 ADD PUSH2 0x563 SWAP1 PUSH2 0x5B8F JUMP JUMPDEST PUSH1 0x0 DUP3 DUP2 MSTORE PUSH1 0x71 PUSH1 0x20 MSTORE PUSH1 0x40 SWAP1 KECCAK256 SLOAD DUP3 EQ PUSH2 0x430B JUMPI PUSH1 0x40 MLOAD PUSH3 0x461BCD PUSH1 0xE5 SHL DUP2 MSTORE PUSH1 0x4 ADD PUSH2 0x563 SWAP1 PUSH2 0x5BD9 JUMP JUMPDEST PUSH1 0xE0 DUP2 ADD MLOAD ISZERO PUSH2 0x432D JUMPI PUSH1 0x40 MLOAD PUSH3 0x461BCD PUSH1 0xE5 SHL DUP2 MSTORE PUSH1 0x4 ADD PUSH2 0x563 SWAP1 PUSH2 0x5C05 JUMP JUMPDEST PUSH1 0x1 PUSH1 0x1 PUSH1 0xA0 SHL SUB DUP4 AND PUSH1 0x0 SWAP1 DUP2 MSTORE PUSH1 0x74 PUSH1 0x20 MSTORE PUSH1 0x40 SWAP1 KECCAK256 PUSH1 0x1 ADD SLOAD DUP3 EQ PUSH2 0x4367 JUMPI PUSH1 0x40 MLOAD PUSH3 0x461BCD PUSH1 0xE5 SHL DUP2 MSTORE PUSH1 0x4 ADD PUSH2 0x563 SWAP1 PUSH2 0x5C31 JUMP JUMPDEST PUSH1 0x0 PUSH1 0x71 PUSH1 0x0 DUP7 DUP2 MSTORE PUSH1 0x20 ADD SWAP1 DUP2 MSTORE PUSH1 0x20 ADD PUSH1 0x0 KECCAK256 PUSH1 0x40 MLOAD DUP1 PUSH2 0x160 ADD PUSH1 0x40 MSTORE SWAP1 DUP2 PUSH1 0x0 DUP3 ADD SLOAD DUP2 MSTORE PUSH1 0x20 ADD PUSH1 0x1 DUP3 ADD SLOAD DUP2 MSTORE PUSH1 0x20 ADD PUSH1 0x2 DUP3 ADD DUP1 SLOAD PUSH2 0x43AC SWAP1 PUSH2 0x5946 JUMP JUMPDEST DUP1 PUSH1 0x1F ADD PUSH1 0x20 DUP1 SWAP2 DIV MUL PUSH1 0x20 ADD PUSH1 0x40 MLOAD SWAP1 DUP2 ADD PUSH1 0x40 MSTORE DUP1 SWAP3 SWAP2 SWAP1 DUP2 DUP2 MSTORE PUSH1 0x20 ADD DUP3 DUP1 SLOAD PUSH2 0x43D8 SWAP1 PUSH2 0x5946 JUMP JUMPDEST DUP1 ISZERO PUSH2 0x4425 JUMPI DUP1 PUSH1 0x1F LT PUSH2 0x43FA JUMPI PUSH2 0x100 DUP1 DUP4 SLOAD DIV MUL DUP4 MSTORE SWAP2 PUSH1 0x20 ADD SWAP2 PUSH2 0x4425 JUMP JUMPDEST DUP3 ADD SWAP2 SWAP1 PUSH1 0x0 MSTORE PUSH1 0x20 PUSH1 0x0 KECCAK256 SWAP1 JUMPDEST DUP2 SLOAD DUP2 MSTORE SWAP1 PUSH1 0x1 ADD SWAP1 PUSH1 0x20 ADD DUP1 DUP4 GT PUSH2 0x4408 JUMPI DUP3 SWAP1 SUB PUSH1 0x1F AND DUP3 ADD SWAP2 JUMPDEST POP POP POP SWAP2 DUP4 MSTORE POP POP PUSH1 0x3 DUP3 ADD SLOAD PUSH1 0x1 PUSH1 0x1 PUSH1 0xA0 SHL SUB SWAP1 DUP2 AND PUSH1 0x20 DUP1 DUP5 ADD SWAP2 SWAP1 SWAP2 MSTORE PUSH1 0x4 DUP5 ADD SLOAD PUSH1 0x40 DUP5 ADD MSTORE PUSH1 0x5 DUP5 ADD SLOAD PUSH1 0x60 DUP5 ADD MSTORE PUSH1 0x6 DUP5 ADD SLOAD PUSH1 0x80 DUP5 ADD MSTORE PUSH1 0x7 DUP5 ADD SLOAD PUSH1 0xFF SWAP1 DUP2 AND ISZERO ISZERO PUSH1 0xA0 DUP6 ADD MSTORE PUSH1 0x8 DUP6 ADD SLOAD PUSH1 0xC0 DUP6 ADD MSTORE PUSH1 0x9 SWAP1 SWAP5 ADD SLOAD SWAP2 DUP3 AND PUSH1 0xE0 DUP5 ADD MSTORE PUSH1 0x1 PUSH1 0xA0 SHL SWAP1 SWAP2 DIV SWAP1 SWAP3 AND ISZERO ISZERO PUSH2 0x100 SWAP1 SWAP2 ADD MSTORE DUP2 ADD MLOAD SWAP1 SWAP2 POP PUSH1 0x2 EQ PUSH2 0x44C6 JUMPI PUSH1 0x40 MLOAD PUSH3 0x461BCD PUSH1 0xE5 SHL DUP2 MSTORE PUSH1 0x4 ADD PUSH2 0x563 SWAP1 PUSH2 0x5CD3 JUMP JUMPDEST PUSH1 0x1 PUSH1 0x1 PUSH1 0xA0 SHL SUB DUP7 AND PUSH2 0x120 DUP3 ADD MSTORE PUSH2 0x3C0D DUP7 DUP3 PUSH2 0x5018 JUMP JUMPDEST DUP2 DUP2 PUSH1 0x0 PUSH1 0x71 PUSH1 0x0 DUP4 DUP2 MSTORE PUSH1 0x20 ADD SWAP1 DUP2 MSTORE PUSH1 0x20 ADD PUSH1 0x0 KECCAK256 PUSH1 0x40 MLOAD DUP1 PUSH2 0x160 ADD PUSH1 0x40 MSTORE SWAP1 DUP2 PUSH1 0x0 DUP3 ADD SLOAD DUP2 MSTORE PUSH1 0x20 ADD PUSH1 0x1 DUP3 ADD SLOAD DUP2 MSTORE PUSH1 0x20 ADD PUSH1 0x2 DUP3 ADD DUP1 SLOAD PUSH2 0x4527 SWAP1 PUSH2 0x5946 JUMP JUMPDEST DUP1 PUSH1 0x1F ADD PUSH1 0x20 DUP1 SWAP2 DIV MUL PUSH1 0x20 ADD PUSH1 0x40 MLOAD SWAP1 DUP2 ADD PUSH1 0x40 MSTORE DUP1 SWAP3 SWAP2 SWAP1 DUP2 DUP2 MSTORE PUSH1 0x20 ADD DUP3 DUP1 SLOAD PUSH2 0x4553 SWAP1 PUSH2 0x5946 JUMP JUMPDEST DUP1 ISZERO PUSH2 0x45A0 JUMPI DUP1 PUSH1 0x1F LT PUSH2 0x4575 JUMPI PUSH2 0x100 DUP1 DUP4 SLOAD DIV MUL DUP4 MSTORE SWAP2 PUSH1 0x20 ADD SWAP2 PUSH2 0x45A0 JUMP JUMPDEST DUP3 ADD SWAP2 SWAP1 PUSH1 0x0 MSTORE PUSH1 0x20 PUSH1 0x0 KECCAK256 SWAP1 JUMPDEST DUP2 SLOAD DUP2 MSTORE SWAP1 PUSH1 0x1 ADD SWAP1 PUSH1 0x20 ADD DUP1 DUP4 GT PUSH2 0x4583 JUMPI DUP3 SWAP1 SUB PUSH1 0x1F AND DUP3 ADD SWAP2 JUMPDEST POP POP POP SWAP2 DUP4 MSTORE POP POP PUSH1 0x3 DUP3 DUP2 ADD SLOAD PUSH1 0x1 PUSH1 0x1 PUSH1 0xA0 SHL SUB SWAP1 DUP2 AND PUSH1 0x20 DUP1 DUP6 ADD SWAP2 SWAP1 SWAP2 MSTORE PUSH1 0x4 DUP1 DUP7 ADD SLOAD PUSH1 0x40 DUP1 DUP8 ADD SWAP2 SWAP1 SWAP2 MSTORE PUSH1 0x5 DUP8 ADD SLOAD PUSH1 0x60 DUP1 DUP9 ADD SWAP2 SWAP1 SWAP2 MSTORE PUSH1 0x6 DUP9 ADD SLOAD PUSH1 0x80 DUP1 DUP10 ADD SWAP2 SWAP1 SWAP2 MSTORE PUSH1 0x7 DUP10 ADD SLOAD PUSH1 0xFF SWAP1 DUP2 AND ISZERO ISZERO PUSH1 0xA0 DUP1 DUP12 ADD SWAP2 SWAP1 SWAP2 MSTORE PUSH1 0x8 DUP12 ADD SLOAD PUSH1 0xC0 DUP1 DUP13 ADD SWAP2 SWAP1 SWAP2 MSTORE PUSH1 0x9 SWAP1 SWAP12 ADD SLOAD DUP1 DUP10 AND PUSH1 0xE0 DUP1 DUP14 ADD SWAP2 SWAP1 SWAP2 MSTORE PUSH1 0x1 PUSH1 0xA0 SHL SWAP1 SWAP2 DIV DUP4 AND ISZERO ISZERO PUSH2 0x100 SWAP12 DUP13 ADD MSTORE CALLER PUSH1 0x0 SWAP1 DUP2 MSTORE PUSH1 0x76 DUP10 MSTORE DUP7 SWAP1 KECCAK256 DUP7 MLOAD SWAP2 DUP3 ADD DUP8 MSTORE DUP1 SLOAD DUP3 MSTORE PUSH1 0x1 DUP2 DUP2 ADD SLOAD SWAP1 SWAP11 AND SWAP9 DUP3 ADD SWAP9 SWAP1 SWAP9 MSTORE PUSH1 0x2 DUP9 ADD SLOAD SWAP6 DUP2 ADD SWAP6 SWAP1 SWAP6 MSTORE SWAP8 DUP7 ADD SLOAD DUP1 DUP3 AND ISZERO ISZERO SWAP4 DUP6 ADD SWAP4 SWAP1 SWAP4 MSTORE SWAP8 DUP3 DIV DUP9 AND ISZERO ISZERO SWAP1 DUP4 ADD DUP2 SWAP1 MSTORE PUSH3 0x10000 SWAP1 SWAP2 DIV SWAP1 SWAP7 AND ISZERO ISZERO SWAP5 DUP2 ADD SWAP5 SWAP1 SWAP5 MSTORE ADD SLOAD SWAP4 DUP3 ADD SWAP4 SWAP1 SWAP4 MSTORE SWAP3 SWAP4 POP EQ PUSH2 0x46E6 JUMPI PUSH1 0x40 MLOAD PUSH3 0x461BCD PUSH1 0xE5 SHL DUP2 MSTORE PUSH1 0x20 PUSH1 0x4 DUP3 ADD MSTORE PUSH1 0x11 PUSH1 0x24 DUP3 ADD MSTORE PUSH17 0x4E6F20566F74696E672052696768747321 PUSH1 0x78 SHL PUSH1 0x44 DUP3 ADD MSTORE PUSH1 0x64 ADD PUSH2 0x563 JUMP JUMPDEST CALLER PUSH1 0x0 SWAP1 DUP2 MSTORE PUSH1 0x76 PUSH1 0x20 MSTORE PUSH1 0x40 SWAP1 KECCAK256 PUSH1 0x3 ADD SLOAD PUSH1 0xFF AND ISZERO ISZERO PUSH1 0x1 EQ PUSH2 0x471D JUMPI PUSH1 0x40 MLOAD PUSH3 0x461BCD PUSH1 0xE5 SHL DUP2 MSTORE PUSH1 0x4 ADD PUSH2 0x563 SWAP1 PUSH2 0x5B58 JUMP JUMPDEST CALLER PUSH1 0x0 SWAP1 DUP2 MSTORE PUSH1 0x7A PUSH1 0x20 SWAP1 DUP2 MSTORE PUSH1 0x40 SWAP2 DUP3 SWAP1 KECCAK256 DUP1 SLOAD DUP4 MLOAD DUP2 DUP5 MUL DUP2 ADD DUP5 ADD SWAP1 SWAP5 MSTORE DUP1 DUP5 MSTORE PUSH2 0x477E SWAP4 SWAP3 DUP4 ADD DUP3 DUP3 DUP1 ISZERO PUSH2 0x3EB4 JUMPI PUSH1 0x20 MUL DUP3 ADD SWAP2 SWAP1 PUSH1 0x0 MSTORE PUSH1 0x20 PUSH1 0x0 KECCAK256 SWAP1 DUP2 SLOAD DUP2 MSTORE PUSH1 0x20 ADD SWAP1 PUSH1 0x1 ADD SWAP1 DUP1 DUP4 GT PUSH2 0x3EA0 JUMPI POP POP POP POP POP DUP5 PUSH2 0x2BA6 JUMP JUMPDEST ISZERO PUSH2 0x479B JUMPI PUSH1 0x40 MLOAD PUSH3 0x461BCD PUSH1 0xE5 SHL DUP2 MSTORE PUSH1 0x4 ADD PUSH2 0x563 SWAP1 PUSH2 0x5B8F JUMP JUMPDEST PUSH1 0x0 DUP4 DUP2 MSTORE PUSH1 0x71 PUSH1 0x20 MSTORE PUSH1 0x40 SWAP1 KECCAK256 SLOAD DUP4 EQ PUSH2 0x47C8 JUMPI PUSH1 0x40 MLOAD PUSH3 0x461BCD PUSH1 0xE5 SHL DUP2 MSTORE PUSH1 0x4 ADD PUSH2 0x563 SWAP1 PUSH2 0x5BD9 JUMP JUMPDEST PUSH1 0xE0 DUP3 ADD MLOAD ISZERO PUSH2 0x47EA JUMPI PUSH1 0x40 MLOAD PUSH3 0x461BCD PUSH1 0xE5 SHL DUP2 MSTORE PUSH1 0x4 ADD PUSH2 0x563 SWAP1 PUSH2 0x5C05 JUMP JUMPDEST PUSH1 0x1 PUSH1 0x1 PUSH1 0xA0 SHL SUB DUP5 AND PUSH1 0x0 SWAP1 DUP2 MSTORE PUSH1 0x74 PUSH1 0x20 MSTORE PUSH1 0x40 SWAP1 KECCAK256 PUSH1 0x1 ADD SLOAD DUP4 EQ PUSH2 0x4824 JUMPI PUSH1 0x40 MLOAD PUSH3 0x461BCD PUSH1 0xE5 SHL DUP2 MSTORE PUSH1 0x4 ADD PUSH2 0x563 SWAP1 PUSH2 0x5C31 JUMP JUMPDEST PUSH1 0x0 PUSH1 0x71 PUSH1 0x0 DUP8 DUP2 MSTORE PUSH1 0x20 ADD SWAP1 DUP2 MSTORE PUSH1 0x20 ADD PUSH1 0x0 KECCAK256 PUSH1 0x40 MLOAD DUP1 PUSH2 0x160 ADD PUSH1 0x40 MSTORE SWAP1 DUP2 PUSH1 0x0 DUP3 ADD SLOAD DUP2 MSTORE PUSH1 0x20 ADD PUSH1 0x1 DUP3 ADD SLOAD DUP2 MSTORE PUSH1 0x20 ADD PUSH1 0x2 DUP3 ADD DUP1 SLOAD PUSH2 0x4869 SWAP1 PUSH2 0x5946 JUMP JUMPDEST DUP1 PUSH1 0x1F ADD PUSH1 0x20 DUP1 SWAP2 DIV MUL PUSH1 0x20 ADD PUSH1 0x40 MLOAD SWAP1 DUP2 ADD PUSH1 0x40 MSTORE DUP1 SWAP3 SWAP2 SWAP1 DUP2 DUP2 MSTORE PUSH1 0x20 ADD DUP3 DUP1 SLOAD PUSH2 0x4895 SWAP1 PUSH2 0x5946 JUMP JUMPDEST DUP1 ISZERO PUSH2 0x48E2 JUMPI DUP1 PUSH1 0x1F LT PUSH2 0x48B7 JUMPI PUSH2 0x100 DUP1 DUP4 SLOAD DIV MUL DUP4 MSTORE SWAP2 PUSH1 0x20 ADD SWAP2 PUSH2 0x48E2 JUMP JUMPDEST DUP3 ADD SWAP2 SWAP1 PUSH1 0x0 MSTORE PUSH1 0x20 PUSH1 0x0 KECCAK256 SWAP1 JUMPDEST DUP2 SLOAD DUP2 MSTORE SWAP1 PUSH1 0x1 ADD SWAP1 PUSH1 0x20 ADD DUP1 DUP4 GT PUSH2 0x48C5 JUMPI DUP3 SWAP1 SUB PUSH1 0x1F AND DUP3 ADD SWAP2 JUMPDEST POP POP POP SWAP2 DUP4 MSTORE POP POP PUSH1 0x3 DUP3 DUP2 ADD SLOAD PUSH1 0x1 PUSH1 0x1 PUSH1 0xA0 SHL SUB SWAP1 DUP2 AND PUSH1 0x20 DUP1 DUP6 ADD SWAP2 SWAP1 SWAP2 MSTORE PUSH1 0x4 DUP6 ADD SLOAD PUSH1 0x40 DUP6 ADD MSTORE PUSH1 0x5 DUP6 ADD SLOAD PUSH1 0x60 DUP6 ADD MSTORE PUSH1 0x6 DUP6 ADD SLOAD PUSH1 0x80 DUP6 ADD MSTORE PUSH1 0x7 DUP6 ADD SLOAD PUSH1 0xFF SWAP1 DUP2 AND ISZERO ISZERO PUSH1 0xA0 DUP7 ADD MSTORE PUSH1 0x8 DUP7 ADD SLOAD PUSH1 0xC0 DUP7 ADD MSTORE PUSH1 0x9 SWAP1 SWAP6 ADD SLOAD SWAP2 DUP3 AND PUSH1 0xE0 DUP6 ADD MSTORE PUSH1 0x1 PUSH1 0xA0 SHL SWAP1 SWAP2 DIV SWAP1 SWAP4 AND ISZERO ISZERO PUSH2 0x100 SWAP1 SWAP3 ADD SWAP2 SWAP1 SWAP2 MSTORE SWAP1 DUP3 ADD MLOAD SWAP2 SWAP3 POP EQ PUSH2 0x40C4 JUMPI PUSH1 0x40 MLOAD PUSH3 0x461BCD PUSH1 0xE5 SHL DUP2 MSTORE PUSH1 0x4 ADD PUSH2 0x563 SWAP1 PUSH2 0x5CD3 JUMP JUMPDEST PUSH1 0x33 DUP1 SLOAD PUSH1 0x1 PUSH1 0x1 PUSH1 0xA0 SHL SUB DUP4 DUP2 AND PUSH1 0x1 PUSH1 0x1 PUSH1 0xA0 SHL SUB NOT DUP4 AND DUP2 OR SWAP1 SWAP4 SSTORE PUSH1 0x40 MLOAD SWAP2 AND SWAP2 SWAP1 DUP3 SWAP1 PUSH32 0x8BE0079C531659141344CD1FD0A4F28419497F9722A3DAAFE3B4186F6B6457E0 SWAP1 PUSH1 0x0 SWAP1 LOG3 POP POP JUMP JUMPDEST PUSH1 0x0 SLOAD PUSH2 0x100 SWAP1 DIV PUSH1 0xFF AND PUSH2 0x49FF JUMPI PUSH1 0x40 MLOAD PUSH3 0x461BCD PUSH1 0xE5 SHL DUP2 MSTORE PUSH1 0x4 ADD PUSH2 0x563 SWAP1 PUSH2 0x5CFF JUMP JUMPDEST PUSH1 0x64 PUSH1 0x66 SSTORE PUSH2 0x3E8 PUSH1 0x67 SSTORE PUSH2 0x4A12 PUSH2 0x514D JUMP JUMPDEST PUSH2 0x4A1A PUSH2 0x53DE JUMP JUMPDEST PUSH1 0x33 SLOAD PUSH1 0x65 DUP1 SLOAD PUSH1 0x1 PUSH1 0x1 PUSH1 0xA0 SHL SUB NOT AND PUSH1 0x1 PUSH1 0x1 PUSH1 0xA0 SHL SUB SWAP1 SWAP3 AND SWAP2 SWAP1 SWAP2 OR SWAP1 SSTORE JUMP JUMPDEST PUSH1 0x0 DUP2 DUP2 MSTORE PUSH1 0x71 PUSH1 0x20 SWAP1 DUP2 MSTORE PUSH1 0x40 DUP1 DUP4 KECCAK256 PUSH1 0x73 DUP4 MSTORE DUP2 DUP5 KECCAK256 DUP1 SLOAD PUSH1 0x1 DUP2 ADD DUP3 SSTORE SWAP1 DUP6 MSTORE DUP4 DUP6 KECCAK256 ADD DUP1 SLOAD PUSH1 0x1 PUSH1 0x1 PUSH1 0xA0 SHL SUB NOT AND CALLER OR SWAP1 SSTORE DUP2 MLOAD SWAP3 DUP4 ADD DUP7 SWAP1 MSTORE SWAP3 SWAP2 ADD PUSH1 0x40 MLOAD PUSH1 0x20 DUP2 DUP4 SUB SUB DUP2 MSTORE SWAP1 PUSH1 0x40 MSTORE DUP1 MLOAD SWAP1 PUSH1 0x20 ADD KECCAK256 SWAP1 POP DUP1 PUSH1 0x77 PUSH1 0x0 CALLER PUSH1 0x1 PUSH1 0x1 PUSH1 0xA0 SHL SUB AND PUSH1 0x1 PUSH1 0x1 PUSH1 0xA0 SHL SUB AND DUP2 MSTORE PUSH1 0x20 ADD SWAP1 DUP2 MSTORE PUSH1 0x20 ADD PUSH1 0x0 KECCAK256 DUP2 SWAP1 SSTORE POP PUSH1 0x0 PUSH1 0x40 MLOAD DUP1 PUSH1 0xE0 ADD PUSH1 0x40 MSTORE DUP1 DUP5 PUSH1 0x4 ADD SLOAD DUP2 MSTORE PUSH1 0x20 ADD CALLER PUSH1 0x1 PUSH1 0x1 PUSH1 0xA0 SHL SUB AND DUP2 MSTORE PUSH1 0x20 ADD DUP6 DUP2 MSTORE PUSH1 0x20 ADD PUSH1 0x1 ISZERO ISZERO DUP2 MSTORE PUSH1 0x20 ADD PUSH1 0x1 ISZERO ISZERO DUP2 MSTORE PUSH1 0x20 ADD PUSH1 0x0 ISZERO ISZERO DUP2 MSTORE PUSH1 0x20 ADD DUP4 DUP2 MSTORE POP SWAP1 POP DUP1 PUSH1 0x76 PUSH1 0x0 CALLER PUSH1 0x1 PUSH1 0x1 PUSH1 0xA0 SHL SUB AND PUSH1 0x1 PUSH1 0x1 PUSH1 0xA0 SHL SUB AND DUP2 MSTORE PUSH1 0x20 ADD SWAP1 DUP2 MSTORE PUSH1 0x20 ADD PUSH1 0x0 KECCAK256 PUSH1 0x0 DUP3 ADD MLOAD DUP2 PUSH1 0x0 ADD SSTORE PUSH1 0x20 DUP3 ADD MLOAD DUP2 PUSH1 0x1 ADD PUSH1 0x0 PUSH2 0x100 EXP DUP2 SLOAD DUP2 PUSH1 0x1 PUSH1 0x1 PUSH1 0xA0 SHL SUB MUL NOT AND SWAP1 DUP4 PUSH1 0x1 PUSH1 0x1 PUSH1 0xA0 SHL SUB AND MUL OR SWAP1 SSTORE POP PUSH1 0x40 DUP3 ADD MLOAD DUP2 PUSH1 0x2 ADD SSTORE PUSH1 0x60 DUP3 ADD MLOAD DUP2 PUSH1 0x3 ADD PUSH1 0x0 PUSH2 0x100 EXP DUP2 SLOAD DUP2 PUSH1 0xFF MUL NOT AND SWAP1 DUP4 ISZERO ISZERO MUL OR SWAP1 SSTORE POP PUSH1 0x80 DUP3 ADD MLOAD DUP2 PUSH1 0x3 ADD PUSH1 0x1 PUSH2 0x100 EXP DUP2 SLOAD DUP2 PUSH1 0xFF MUL NOT AND SWAP1 DUP4 ISZERO ISZERO MUL OR SWAP1 SSTORE POP PUSH1 0xA0 DUP3 ADD MLOAD DUP2 PUSH1 0x3 ADD PUSH1 0x2 PUSH2 0x100 EXP DUP2 SLOAD DUP2 PUSH1 0xFF MUL NOT AND SWAP1 DUP4 ISZERO ISZERO MUL OR SWAP1 SSTORE POP PUSH1 0xC0 DUP3 ADD MLOAD DUP2 PUSH1 0x4 ADD SSTORE SWAP1 POP POP PUSH1 0x6A DUP2 SWAP1 DUP1 PUSH1 0x1 DUP2 SLOAD ADD DUP1 DUP3 SSTORE DUP1 SWAP2 POP POP PUSH1 0x1 SWAP1 SUB SWAP1 PUSH1 0x0 MSTORE PUSH1 0x20 PUSH1 0x0 KECCAK256 SWAP1 PUSH1 0x5 MUL ADD PUSH1 0x0 SWAP1 SWAP2 SWAP1 SWAP2 SWAP1 SWAP2 POP PUSH1 0x0 DUP3 ADD MLOAD DUP2 PUSH1 0x0 ADD SSTORE PUSH1 0x20 DUP3 ADD MLOAD DUP2 PUSH1 0x1 ADD PUSH1 0x0 PUSH2 0x100 EXP DUP2 SLOAD DUP2 PUSH1 0x1 PUSH1 0x1 PUSH1 0xA0 SHL SUB MUL NOT AND SWAP1 DUP4 PUSH1 0x1 PUSH1 0x1 PUSH1 0xA0 SHL SUB AND MUL OR SWAP1 SSTORE POP PUSH1 0x40 DUP3 ADD MLOAD DUP2 PUSH1 0x2 ADD SSTORE PUSH1 0x60 DUP3 ADD MLOAD DUP2 PUSH1 0x3 ADD PUSH1 0x0 PUSH2 0x100 EXP DUP2 SLOAD DUP2 PUSH1 0xFF MUL NOT AND SWAP1 DUP4 ISZERO ISZERO MUL OR SWAP1 SSTORE POP PUSH1 0x80 DUP3 ADD MLOAD DUP2 PUSH1 0x3 ADD PUSH1 0x1 PUSH2 0x100 EXP DUP2 SLOAD DUP2 PUSH1 0xFF MUL NOT AND SWAP1 DUP4 ISZERO ISZERO MUL OR SWAP1 SSTORE POP PUSH1 0xA0 DUP3 ADD MLOAD DUP2 PUSH1 0x3 ADD PUSH1 0x2 PUSH2 0x100 EXP DUP2 SLOAD DUP2 PUSH1 0xFF MUL NOT AND SWAP1 DUP4 ISZERO ISZERO MUL OR SWAP1 SSTORE POP PUSH1 0xC0 DUP3 ADD MLOAD DUP2 PUSH1 0x4 ADD SSTORE POP POP PUSH1 0x71 PUSH1 0x0 DUP6 DUP2 MSTORE PUSH1 0x20 ADD SWAP1 DUP2 MSTORE PUSH1 0x20 ADD PUSH1 0x0 KECCAK256 PUSH1 0x4 ADD PUSH1 0x0 DUP2 SLOAD DUP1 SWAP3 SWAP2 SWAP1 PUSH2 0x4CE3 SWAP1 PUSH2 0x5C8C JUMP JUMPDEST SWAP1 SWAP2 SSTORE POP POP PUSH1 0x0 DUP6 DUP2 MSTORE PUSH1 0x78 PUSH1 0x20 SWAP1 DUP2 MSTORE PUSH1 0x40 DUP1 DUP4 KECCAK256 DUP1 SLOAD PUSH1 0x1 PUSH1 0x1 PUSH1 0xA0 SHL SUB NOT AND CALLER SWAP1 DUP2 OR SWAP1 SWAP2 SSTORE DUP4 MSTORE PUSH1 0x79 DUP3 MSTORE DUP1 DUP4 KECCAK256 DUP1 SLOAD PUSH1 0x1 DUP2 DUP2 ADD DUP4 SSTORE SWAP2 DUP6 MSTORE DUP4 DUP6 KECCAK256 ADD DUP9 SWAP1 SSTORE DUP9 DUP5 MSTORE PUSH1 0x7B DUP4 MSTORE DUP2 DUP5 KECCAK256 DUP1 SLOAD SWAP2 DUP3 ADD DUP2 SSTORE DUP5 MSTORE SWAP2 SWAP1 SWAP3 KECCAK256 ADD DUP6 SWAP1 SSTORE MLOAD PUSH32 0xD850A8248DF1456F35B1B26DB099385CB363335BB60A8E99294BC10124267871 SWAP1 PUSH2 0xBCA SWAP1 DUP5 DUP2 MSTORE PUSH1 0x20 ADD SWAP1 JUMP JUMPDEST PUSH1 0x0 DUP2 DUP2 MSTORE PUSH1 0x71 PUSH1 0x20 SWAP1 DUP2 MSTORE PUSH1 0x40 DUP1 DUP4 KECCAK256 PUSH1 0x73 DUP4 MSTORE DUP2 DUP5 KECCAK256 DUP1 SLOAD PUSH1 0x1 DUP2 ADD DUP3 SSTORE SWAP1 DUP6 MSTORE DUP4 DUP6 KECCAK256 ADD DUP1 SLOAD PUSH1 0x1 PUSH1 0x1 PUSH1 0xA0 SHL SUB NOT AND CALLER OR SWAP1 SSTORE DUP2 MLOAD SWAP3 DUP4 ADD DUP7 SWAP1 MSTORE SWAP3 SWAP2 ADD PUSH1 0x40 MLOAD PUSH1 0x20 DUP2 DUP4 SUB SUB DUP2 MSTORE SWAP1 PUSH1 0x40 MSTORE DUP1 MLOAD SWAP1 PUSH1 0x20 ADD KECCAK256 SWAP1 POP DUP1 PUSH1 0x77 PUSH1 0x0 CALLER PUSH1 0x1 PUSH1 0x1 PUSH1 0xA0 SHL SUB AND PUSH1 0x1 PUSH1 0x1 PUSH1 0xA0 SHL SUB AND DUP2 MSTORE PUSH1 0x20 ADD SWAP1 DUP2 MSTORE PUSH1 0x20 ADD PUSH1 0x0 KECCAK256 DUP2 SWAP1 SSTORE POP PUSH1 0x0 PUSH1 0x40 MLOAD DUP1 PUSH1 0xE0 ADD PUSH1 0x40 MSTORE DUP1 DUP5 PUSH1 0x4 ADD SLOAD DUP2 MSTORE PUSH1 0x20 ADD CALLER PUSH1 0x1 PUSH1 0x1 PUSH1 0xA0 SHL SUB AND DUP2 MSTORE PUSH1 0x20 ADD DUP6 DUP2 MSTORE PUSH1 0x20 ADD PUSH1 0x1 ISZERO ISZERO DUP2 MSTORE PUSH1 0x20 ADD PUSH1 0x0 ISZERO ISZERO DUP2 MSTORE PUSH1 0x20 ADD PUSH1 0x0 ISZERO ISZERO DUP2 MSTORE PUSH1 0x20 ADD DUP4 DUP2 MSTORE POP SWAP1 POP DUP1 PUSH1 0x76 PUSH1 0x0 CALLER PUSH1 0x1 PUSH1 0x1 PUSH1 0xA0 SHL SUB AND PUSH1 0x1 PUSH1 0x1 PUSH1 0xA0 SHL SUB AND DUP2 MSTORE PUSH1 0x20 ADD SWAP1 DUP2 MSTORE PUSH1 0x20 ADD PUSH1 0x0 KECCAK256 PUSH1 0x0 DUP3 ADD MLOAD DUP2 PUSH1 0x0 ADD SSTORE PUSH1 0x20 DUP3 ADD MLOAD DUP2 PUSH1 0x1 ADD PUSH1 0x0 PUSH2 0x100 EXP DUP2 SLOAD DUP2 PUSH1 0x1 PUSH1 0x1 PUSH1 0xA0 SHL SUB MUL NOT AND SWAP1 DUP4 PUSH1 0x1 PUSH1 0x1 PUSH1 0xA0 SHL SUB AND MUL OR SWAP1 SSTORE POP PUSH1 0x40 DUP3 ADD MLOAD DUP2 PUSH1 0x2 ADD SSTORE PUSH1 0x60 DUP3 ADD MLOAD DUP2 PUSH1 0x3 ADD PUSH1 0x0 PUSH2 0x100 EXP DUP2 SLOAD DUP2 PUSH1 0xFF MUL NOT AND SWAP1 DUP4 ISZERO ISZERO MUL OR SWAP1 SSTORE POP PUSH1 0x80 DUP3 ADD MLOAD DUP2 PUSH1 0x3 ADD PUSH1 0x1 PUSH2 0x100 EXP DUP2 SLOAD DUP2 PUSH1 0xFF MUL NOT AND SWAP1 DUP4 ISZERO ISZERO MUL OR SWAP1 SSTORE POP PUSH1 0xA0 DUP3 ADD MLOAD DUP2 PUSH1 0x3 ADD PUSH1 0x2 PUSH2 0x100 EXP DUP2 SLOAD DUP2 PUSH1 0xFF MUL NOT AND SWAP1 DUP4 ISZERO ISZERO MUL OR SWAP1 SSTORE POP PUSH1 0xC0 DUP3 ADD MLOAD DUP2 PUSH1 0x4 ADD SSTORE SWAP1 POP POP PUSH1 0x6A DUP2 SWAP1 DUP1 PUSH1 0x1 DUP2 SLOAD ADD DUP1 DUP3 SSTORE DUP1 SWAP2 POP POP PUSH1 0x1 SWAP1 SUB SWAP1 PUSH1 0x0 MSTORE PUSH1 0x20 PUSH1 0x0 KECCAK256 SWAP1 PUSH1 0x5 MUL ADD PUSH1 0x0 SWAP1 SWAP2 SWAP1 SWAP2 SWAP1 SWAP2 POP PUSH1 0x0 DUP3 ADD MLOAD DUP2 PUSH1 0x0 ADD SSTORE PUSH1 0x20 DUP3 ADD MLOAD DUP2 PUSH1 0x1 ADD PUSH1 0x0 PUSH2 0x100 EXP DUP2 SLOAD DUP2 PUSH1 0x1 PUSH1 0x1 PUSH1 0xA0 SHL SUB MUL NOT AND SWAP1 DUP4 PUSH1 0x1 PUSH1 0x1 PUSH1 0xA0 SHL SUB AND MUL OR SWAP1 SSTORE POP PUSH1 0x40 DUP3 ADD MLOAD DUP2 PUSH1 0x2 ADD SSTORE PUSH1 0x60 DUP3 ADD MLOAD DUP2 PUSH1 0x3 ADD PUSH1 0x0 PUSH2 0x100 EXP DUP2 SLOAD DUP2 PUSH1 0xFF MUL NOT AND SWAP1 DUP4 ISZERO ISZERO MUL OR SWAP1 SSTORE POP PUSH1 0x80 DUP3 ADD MLOAD DUP2 PUSH1 0x3 ADD PUSH1 0x1 PUSH2 0x100 EXP DUP2 SLOAD DUP2 PUSH1 0xFF MUL NOT AND SWAP1 DUP4 ISZERO ISZERO MUL OR SWAP1 SSTORE POP PUSH1 0xA0 DUP3 ADD MLOAD DUP2 PUSH1 0x3 ADD PUSH1 0x2 PUSH2 0x100 EXP DUP2 SLOAD DUP2 PUSH1 0xFF MUL NOT AND SWAP1 DUP4 ISZERO ISZERO MUL OR SWAP1 SSTORE POP PUSH1 0xC0 DUP3 ADD MLOAD DUP2 PUSH1 0x4 ADD SSTORE POP POP PUSH1 0x71 PUSH1 0x0 DUP6 DUP2 MSTORE PUSH1 0x20 ADD SWAP1 DUP2 MSTORE PUSH1 0x20 ADD PUSH1 0x0 KECCAK256 PUSH1 0x4 ADD PUSH1 0x0 DUP2 SLOAD DUP1 SWAP3 SWAP2 SWAP1 PUSH2 0x4CE3 SWAP1 PUSH2 0x5C8C JUMP JUMPDEST PUSH2 0x120 DUP2 ADD MLOAD PUSH1 0x1 PUSH1 0x1 PUSH1 0xA0 SHL SUB SWAP1 DUP2 AND PUSH1 0x0 SWAP1 DUP2 MSTORE PUSH1 0x74 PUSH1 0x20 MSTORE PUSH1 0x40 DUP1 DUP3 KECCAK256 PUSH1 0x3 SWAP1 DUP2 ADD SLOAD SWAP4 DUP7 AND DUP4 MSTORE SWAP1 DUP3 KECCAK256 ADD SLOAD SWAP1 SWAP2 SWAP1 PUSH2 0x5056 SWAP1 PUSH1 0x1 PUSH2 0x5C74 JUMP JUMPDEST GT ISZERO PUSH2 0x5079 JUMPI PUSH1 0x1 PUSH1 0x1 PUSH1 0xA0 SHL SUB DUP4 AND PUSH2 0x120 DUP4 ADD MSTORE PUSH1 0x0 PUSH2 0x140 DUP4 ADD MSTORE PUSH2 0x50C2 JUMP JUMPDEST PUSH2 0x120 DUP3 ADD MLOAD PUSH1 0x1 PUSH1 0x1 PUSH1 0xA0 SHL SUB SWAP1 DUP2 AND PUSH1 0x0 SWAP1 DUP2 MSTORE PUSH1 0x74 PUSH1 0x20 MSTORE PUSH1 0x40 DUP1 DUP3 KECCAK256 PUSH1 0x3 SWAP1 DUP2 ADD SLOAD SWAP4 DUP8 AND DUP4 MSTORE SWAP2 KECCAK256 ADD SLOAD PUSH2 0x50B3 SWAP1 PUSH1 0x1 PUSH2 0x5C74 JUMP JUMPDEST EQ ISZERO PUSH2 0x50C2 JUMPI PUSH1 0x1 PUSH2 0x140 DUP4 ADD MSTORE JUMPDEST POP PUSH2 0x140 ADD MLOAD SWAP2 SWAP1 POP JUMP JUMPDEST PUSH1 0x1 PUSH1 0x1 PUSH1 0xA0 SHL SUB DUP2 AND PUSH1 0x0 SWAP1 DUP2 MSTORE PUSH1 0x74 PUSH1 0x20 MSTORE PUSH1 0x40 DUP2 KECCAK256 PUSH1 0x3 ADD DUP1 SLOAD SWAP2 PUSH2 0x50F4 DUP4 PUSH2 0x5C8C JUMP JUMPDEST SWAP1 SWAP2 SSTORE POP POP CALLER PUSH1 0x0 SWAP1 DUP2 MSTORE PUSH1 0x76 PUSH1 0x20 MSTORE PUSH1 0x40 DUP1 DUP3 KECCAK256 PUSH1 0x3 ADD DUP1 SLOAD PUSH3 0xFF0000 NOT AND PUSH3 0x10000 OR SWAP1 SSTORE MLOAD PUSH1 0x1 PUSH1 0x1 PUSH1 0xA0 SHL SUB DUP4 AND SWAP2 PUSH32 0xAEC2CCAE8681FD01AD220ECB7E9B5F7D485B1CC3CC01599ACB1578016B30A6BD SWAP2 LOG2 POP JUMP JUMPDEST PUSH1 0x40 DUP1 MLOAD DUP1 DUP3 ADD SWAP1 SWAP2 MSTORE PUSH1 0x9 DUP2 MSTORE PUSH9 0x6F70656E2D66726565 PUSH1 0xB8 SHL PUSH1 0x20 DUP1 DUP4 ADD SWAP2 DUP3 MSTORE PUSH1 0x0 DUP1 MSTORE PUSH1 0x68 SWAP1 MSTORE SWAP1 MLOAD PUSH2 0x51A5 SWAP2 PUSH32 0xAD6F8124F6081C2622AB3A16ACD47AF73D52FE87B755C3F897263C58BA3FDBD7 SWAP2 PUSH2 0x5438 JUMP JUMPDEST POP PUSH1 0x40 DUP1 MLOAD DUP1 DUP3 ADD SWAP1 SWAP2 MSTORE PUSH1 0xB DUP2 MSTORE PUSH11 0x636C6F7365642D66726565 PUSH1 0xA8 SHL PUSH1 0x20 DUP1 DUP4 ADD SWAP2 DUP3 MSTORE PUSH1 0x1 PUSH1 0x0 MSTORE PUSH1 0x68 SWAP1 MSTORE SWAP1 MLOAD PUSH2 0x5201 SWAP2 PUSH32 0x82EAF0FCA2207F91F5027FCF68136C84EDB7E928C081C42AA5BBC2A771C7D376 SWAP2 PUSH2 0x5438 JUMP JUMPDEST POP PUSH1 0x40 DUP1 MLOAD DUP1 DUP3 ADD SWAP1 SWAP2 MSTORE PUSH1 0x9 DUP2 MSTORE PUSH9 0x1BDC195B8B5C185A59 PUSH1 0xBA SHL PUSH1 0x20 DUP1 DUP4 ADD SWAP2 DUP3 MSTORE PUSH1 0x2 PUSH1 0x0 MSTORE PUSH1 0x68 SWAP1 MSTORE SWAP1 MLOAD PUSH2 0x525B SWAP2 PUSH32 0x7738FC943D038775BED8EF01A67B748C956896B0B810B5B4D06DC2C8632420E2 SWAP2 PUSH2 0x5438 JUMP JUMPDEST POP PUSH1 0x40 DUP1 MLOAD DUP1 DUP3 ADD SWAP1 SWAP2 MSTORE PUSH1 0xB DUP2 MSTORE PUSH11 0x18DB1BDCD9590B5C185A59 PUSH1 0xAA SHL PUSH1 0x20 DUP1 DUP4 ADD SWAP2 DUP3 MSTORE PUSH1 0x3 PUSH1 0x0 MSTORE PUSH1 0x68 SWAP1 MSTORE SWAP1 MLOAD PUSH2 0x52B7 SWAP2 PUSH32 0x621935E5E2D2334E817FA0366E6727CDFBB18ABED03A929D20A8BE2175643EFE SWAP2 PUSH2 0x5438 JUMP JUMPDEST POP PUSH1 0x40 DUP1 MLOAD DUP1 DUP3 ADD SWAP1 SWAP2 MSTORE PUSH1 0x12 DUP2 MSTORE PUSH18 0x18DB1BDCD9590B599C99594B5CD958DC995D PUSH1 0x72 SHL PUSH1 0x20 DUP1 DUP4 ADD SWAP2 DUP3 MSTORE PUSH1 0x4 PUSH1 0x0 MSTORE PUSH1 0x68 SWAP1 MSTORE SWAP1 MLOAD PUSH2 0x531A SWAP2 PUSH32 0x80333AA37BBC0DD2312116CFC6D7C23756AFE8292D63DA7B97B36300CC5E273F SWAP2 PUSH2 0x5438 JUMP JUMPDEST POP PUSH1 0x40 DUP1 MLOAD DUP1 DUP3 ADD SWAP1 SWAP2 MSTORE PUSH1 0x10 DUP2 MSTORE PUSH16 0x1BDC195B8B5C185A590B5CD958DC995D PUSH1 0x82 SHL PUSH1 0x20 DUP1 DUP4 ADD SWAP2 DUP3 MSTORE PUSH1 0x5 PUSH1 0x0 MSTORE PUSH1 0x68 SWAP1 MSTORE SWAP1 MLOAD PUSH2 0x537B SWAP2 PUSH32 0x3400FD8FBA61B4217EC7EA224439EC53C7B66F5AC5F0B56A53B76AD74BF5EC3B SWAP2 PUSH2 0x5438 JUMP JUMPDEST POP PUSH1 0x40 DUP1 MLOAD DUP1 DUP3 ADD SWAP1 SWAP2 MSTORE PUSH1 0x12 DUP2 MSTORE PUSH18 0x18DB1BDCD9590B5C185A590B5CD958DC995D PUSH1 0x72 SHL PUSH1 0x20 DUP1 DUP4 ADD SWAP2 DUP3 MSTORE PUSH1 0x6 PUSH1 0x0 MSTORE PUSH1 0x68 SWAP1 MSTORE SWAP1 MLOAD PUSH2 0x1073 SWAP2 PUSH32 0x374DC179AB22B15B16E95E8D09508D6170A7451C6357E0B730CF2E3E1D257F98 SWAP2 PUSH2 0x5438 JUMP JUMPDEST PUSH1 0x0 SLOAD PUSH2 0x100 SWAP1 DIV PUSH1 0xFF AND PUSH2 0x5405 JUMPI PUSH1 0x40 MLOAD PUSH3 0x461BCD PUSH1 0xE5 SHL DUP2 MSTORE PUSH1 0x4 ADD PUSH2 0x563 SWAP1 PUSH2 0x5CFF JUMP JUMPDEST PUSH2 0x1B1C PUSH1 0x0 SLOAD PUSH2 0x100 SWAP1 DIV PUSH1 0xFF AND PUSH2 0x542F JUMPI PUSH1 0x40 MLOAD PUSH3 0x461BCD PUSH1 0xE5 SHL DUP2 MSTORE PUSH1 0x4 ADD PUSH2 0x563 SWAP1 PUSH2 0x5CFF JUMP JUMPDEST PUSH2 0x1B1C CALLER PUSH2 0x4986 JUMP JUMPDEST DUP3 DUP1 SLOAD PUSH2 0x5444 SWAP1 PUSH2 0x5946 JUMP JUMPDEST SWAP1 PUSH1 0x0 MSTORE PUSH1 0x20 PUSH1 0x0 KECCAK256 SWAP1 PUSH1 0x1F ADD PUSH1 0x20 SWAP1 DIV DUP2 ADD SWAP3 DUP3 PUSH2 0x5466 JUMPI PUSH1 0x0 DUP6 SSTORE PUSH2 0x54AC JUMP JUMPDEST DUP3 PUSH1 0x1F LT PUSH2 0x547F JUMPI DUP1 MLOAD PUSH1 0xFF NOT AND DUP4 DUP1 ADD OR DUP6 SSTORE PUSH2 0x54AC JUMP JUMPDEST DUP3 DUP1 ADD PUSH1 0x1 ADD DUP6 SSTORE DUP3 ISZERO PUSH2 0x54AC JUMPI SWAP2 DUP3 ADD JUMPDEST DUP3 DUP2 GT ISZERO PUSH2 0x54AC JUMPI DUP3 MLOAD DUP3 SSTORE SWAP2 PUSH1 0x20 ADD SWAP2 SWAP1 PUSH1 0x1 ADD SWAP1 PUSH2 0x5491 JUMP JUMPDEST POP PUSH2 0x54B8 SWAP3 SWAP2 POP PUSH2 0x5511 JUMP JUMPDEST POP SWAP1 JUMP JUMPDEST DUP3 DUP1 SLOAD DUP3 DUP3 SSTORE SWAP1 PUSH1 0x0 MSTORE PUSH1 0x20 PUSH1 0x0 KECCAK256 SWAP1 DUP2 ADD SWAP3 DUP3 ISZERO PUSH2 0x54AC JUMPI SWAP2 PUSH1 0x20 MUL DUP3 ADD JUMPDEST DUP3 DUP2 GT ISZERO PUSH2 0x54AC JUMPI DUP3 MLOAD DUP3 SLOAD PUSH1 0x1 PUSH1 0x1 PUSH1 0xA0 SHL SUB NOT AND PUSH1 0x1 PUSH1 0x1 PUSH1 0xA0 SHL SUB SWAP1 SWAP2 AND OR DUP3 SSTORE PUSH1 0x20 SWAP1 SWAP3 ADD SWAP2 PUSH1 0x1 SWAP1 SWAP2 ADD SWAP1 PUSH2 0x54DC JUMP JUMPDEST JUMPDEST DUP1 DUP3 GT ISZERO PUSH2 0x54B8 JUMPI PUSH1 0x0 DUP2 SSTORE PUSH1 0x1 ADD PUSH2 0x5512 JUMP JUMPDEST PUSH1 0x0 PUSH1 0x20 DUP3 DUP5 SUB SLT ISZERO PUSH2 0x5538 JUMPI PUSH1 0x0 DUP1 REVERT JUMPDEST POP CALLDATALOAD SWAP2 SWAP1 POP JUMP JUMPDEST DUP1 CALLDATALOAD PUSH1 0x1 PUSH1 0x1 PUSH1 0xA0 SHL SUB DUP2 AND DUP2 EQ PUSH2 0x5556 JUMPI PUSH1 0x0 DUP1 REVERT JUMPDEST SWAP2 SWAP1 POP JUMP JUMPDEST PUSH1 0x0 DUP1 PUSH1 0x40 DUP4 DUP6 SUB SLT ISZERO PUSH2 0x556E JUMPI PUSH1 0x0 DUP1 REVERT JUMPDEST PUSH2 0x5577 DUP4 PUSH2 0x553F JUMP JUMPDEST SWAP5 PUSH1 0x20 SWAP4 SWAP1 SWAP4 ADD CALLDATALOAD SWAP4 POP POP POP JUMP JUMPDEST PUSH1 0x20 DUP1 DUP3 MSTORE DUP3 MLOAD DUP3 DUP3 ADD DUP2 SWAP1 MSTORE PUSH1 0x0 SWAP2 SWAP1 DUP5 DUP3 ADD SWAP1 PUSH1 0x40 DUP6 ADD SWAP1 DUP5 JUMPDEST DUP2 DUP2 LT ISZERO PUSH2 0x55C6 JUMPI DUP4 MLOAD PUSH1 0x1 PUSH1 0x1 PUSH1 0xA0 SHL SUB AND DUP4 MSTORE SWAP3 DUP5 ADD SWAP3 SWAP2 DUP5 ADD SWAP2 PUSH1 0x1 ADD PUSH2 0x55A1 JUMP JUMPDEST POP SWAP1 SWAP7 SWAP6 POP POP POP POP POP POP JUMP JUMPDEST PUSH1 0x0 DUP1 PUSH1 0x40 DUP4 DUP6 SUB SLT ISZERO PUSH2 0x55E5 JUMPI PUSH1 0x0 DUP1 REVERT JUMPDEST POP POP DUP1 CALLDATALOAD SWAP3 PUSH1 0x20 SWAP1 SWAP2 ADD CALLDATALOAD SWAP2 POP JUMP JUMPDEST PUSH1 0x0 DUP2 MLOAD DUP1 DUP5 MSTORE PUSH1 0x0 JUMPDEST DUP2 DUP2 LT ISZERO PUSH2 0x561A JUMPI PUSH1 0x20 DUP2 DUP6 ADD DUP2 ADD MLOAD DUP7 DUP4 ADD DUP3 ADD MSTORE ADD PUSH2 0x55FE JUMP JUMPDEST DUP2 DUP2 GT ISZERO PUSH2 0x562C JUMPI PUSH1 0x0 PUSH1 0x20 DUP4 DUP8 ADD ADD MSTORE JUMPDEST POP PUSH1 0x1F ADD PUSH1 0x1F NOT AND SWAP3 SWAP1 SWAP3 ADD PUSH1 0x20 ADD SWAP3 SWAP2 POP POP JUMP JUMPDEST PUSH1 0x20 DUP2 MSTORE DUP2 MLOAD PUSH1 0x20 DUP3 ADD MSTORE PUSH1 0x20 DUP3 ADD MLOAD PUSH1 0x40 DUP3 ADD MSTORE PUSH1 0x0 PUSH1 0x40 DUP4 ADD MLOAD PUSH2 0x160 DUP1 PUSH1 0x60 DUP6 ADD MSTORE PUSH2 0x5674 PUSH2 0x180 DUP6 ADD DUP4 PUSH2 0x55F4 JUMP JUMPDEST SWAP2 POP PUSH1 0x60 DUP6 ADD MLOAD PUSH2 0x5690 PUSH1 0x80 DUP7 ADD DUP3 PUSH1 0x1 PUSH1 0x1 PUSH1 0xA0 SHL SUB AND SWAP1 MSTORE JUMP JUMPDEST POP PUSH1 0x80 DUP6 ADD MLOAD PUSH1 0xA0 DUP6 ADD MSTORE PUSH1 0xA0 DUP6 ADD MLOAD PUSH1 0xC0 DUP6 ADD MSTORE PUSH1 0xC0 DUP6 ADD MLOAD PUSH1 0xE0 DUP6 ADD MSTORE PUSH1 0xE0 DUP6 ADD MLOAD PUSH2 0x100 PUSH2 0x56C4 DUP2 DUP8 ADD DUP4 ISZERO ISZERO SWAP1 MSTORE JUMP JUMPDEST DUP7 ADD MLOAD PUSH2 0x120 DUP7 DUP2 ADD SWAP2 SWAP1 SWAP2 MSTORE DUP7 ADD MLOAD SWAP1 POP PUSH2 0x140 PUSH2 0x56ED DUP2 DUP8 ADD DUP4 PUSH1 0x1 PUSH1 0x1 PUSH1 0xA0 SHL SUB AND SWAP1 MSTORE JUMP JUMPDEST SWAP1 SWAP6 ADD MLOAD ISZERO ISZERO SWAP4 ADD SWAP3 SWAP1 SWAP3 MSTORE POP SWAP2 SWAP1 POP JUMP JUMPDEST PUSH1 0x0 PUSH1 0x20 DUP3 DUP5 SUB SLT ISZERO PUSH2 0x5711 JUMPI PUSH1 0x0 DUP1 REVERT JUMPDEST PUSH2 0x571A DUP3 PUSH2 0x553F JUMP JUMPDEST SWAP4 SWAP3 POP POP POP JUMP JUMPDEST PUSH4 0x4E487B71 PUSH1 0xE0 SHL PUSH1 0x0 MSTORE PUSH1 0x41 PUSH1 0x4 MSTORE PUSH1 0x24 PUSH1 0x0 REVERT JUMPDEST PUSH1 0x40 MLOAD PUSH1 0x1F DUP3 ADD PUSH1 0x1F NOT AND DUP2 ADD PUSH8 0xFFFFFFFFFFFFFFFF DUP2 GT DUP3 DUP3 LT OR ISZERO PUSH2 0x5760 JUMPI PUSH2 0x5760 PUSH2 0x5721 JUMP JUMPDEST PUSH1 0x40 MSTORE SWAP2 SWAP1 POP JUMP JUMPDEST PUSH1 0x0 DUP3 PUSH1 0x1F DUP4 ADD SLT PUSH2 0x5779 JUMPI PUSH1 0x0 DUP1 REVERT JUMPDEST DUP2 CALLDATALOAD PUSH8 0xFFFFFFFFFFFFFFFF DUP2 GT ISZERO PUSH2 0x5793 JUMPI PUSH2 0x5793 PUSH2 0x5721 JUMP JUMPDEST PUSH2 0x57A6 PUSH1 0x1F DUP3 ADD PUSH1 0x1F NOT AND PUSH1 0x20 ADD PUSH2 0x5737 JUMP JUMPDEST DUP2 DUP2 MSTORE DUP5 PUSH1 0x20 DUP4 DUP7 ADD ADD GT ISZERO PUSH2 0x57BB JUMPI PUSH1 0x0 DUP1 REVERT JUMPDEST DUP2 PUSH1 0x20 DUP6 ADD PUSH1 0x20 DUP4 ADD CALLDATACOPY PUSH1 0x0 SWAP2 DUP2 ADD PUSH1 0x20 ADD SWAP2 SWAP1 SWAP2 MSTORE SWAP4 SWAP3 POP POP POP JUMP JUMPDEST PUSH1 0x0 DUP1 PUSH1 0x40 DUP4 DUP6 SUB SLT ISZERO PUSH2 0x57EB JUMPI PUSH1 0x0 DUP1 REVERT JUMPDEST DUP3 CALLDATALOAD SWAP2 POP PUSH1 0x20 DUP4 ADD CALLDATALOAD PUSH8 0xFFFFFFFFFFFFFFFF DUP2 GT ISZERO PUSH2 0x5809 JUMPI PUSH1 0x0 DUP1 REVERT JUMPDEST PUSH2 0x5815 DUP6 DUP3 DUP7 ADD PUSH2 0x5768 JUMP JUMPDEST SWAP2 POP POP SWAP3 POP SWAP3 SWAP1 POP JUMP JUMPDEST PUSH1 0x0 DUP1 PUSH1 0x0 DUP1 PUSH1 0x0 PUSH1 0xA0 DUP7 DUP9 SUB SLT ISZERO PUSH2 0x5837 JUMPI PUSH1 0x0 DUP1 REVERT JUMPDEST DUP6 CALLDATALOAD PUSH8 0xFFFFFFFFFFFFFFFF DUP1 DUP3 GT ISZERO PUSH2 0x584F JUMPI PUSH1 0x0 DUP1 REVERT JUMPDEST PUSH2 0x585B DUP10 DUP4 DUP11 ADD PUSH2 0x5768 JUMP JUMPDEST SWAP7 POP PUSH1 0x20 SWAP2 POP DUP2 DUP9 ADD CALLDATALOAD DUP2 DUP2 GT ISZERO PUSH2 0x5872 JUMPI PUSH1 0x0 DUP1 REVERT JUMPDEST DUP9 ADD PUSH1 0x1F DUP2 ADD DUP11 SGT PUSH2 0x5883 JUMPI PUSH1 0x0 DUP1 REVERT JUMPDEST DUP1 CALLDATALOAD DUP3 DUP2 GT ISZERO PUSH2 0x5895 JUMPI PUSH2 0x5895 PUSH2 0x5721 JUMP JUMPDEST DUP1 PUSH1 0x5 SHL SWAP3 POP PUSH2 0x58A6 DUP5 DUP5 ADD PUSH2 0x5737 JUMP JUMPDEST DUP2 DUP2 MSTORE SWAP3 DUP3 ADD DUP5 ADD SWAP3 DUP5 DUP2 ADD SWAP1 DUP13 DUP6 GT ISZERO PUSH2 0x58C0 JUMPI PUSH1 0x0 DUP1 REVERT JUMPDEST SWAP3 DUP6 ADD SWAP3 JUMPDEST DUP5 DUP5 LT ISZERO PUSH2 0x58E5 JUMPI PUSH2 0x58D6 DUP5 PUSH2 0x553F JUMP JUMPDEST DUP3 MSTORE SWAP3 DUP6 ADD SWAP3 SWAP1 DUP6 ADD SWAP1 PUSH2 0x58C5 JUMP JUMPDEST SWAP10 SWAP13 SWAP10 SWAP12 POP POP POP POP PUSH1 0x40 DUP9 ADD CALLDATALOAD SWAP8 PUSH1 0x60 DUP2 ADD CALLDATALOAD SWAP8 PUSH1 0x80 SWAP1 SWAP2 ADD CALLDATALOAD SWAP7 POP SWAP5 POP POP POP POP POP JUMP JUMPDEST PUSH1 0x0 PUSH1 0x20 DUP3 DUP5 SUB SLT ISZERO PUSH2 0x591B JUMPI PUSH1 0x0 DUP1 REVERT JUMPDEST DUP2 CALLDATALOAD PUSH8 0xFFFFFFFFFFFFFFFF DUP2 GT ISZERO PUSH2 0x5932 JUMPI PUSH1 0x0 DUP1 REVERT JUMPDEST PUSH2 0x593E DUP5 DUP3 DUP6 ADD PUSH2 0x5768 JUMP JUMPDEST SWAP5 SWAP4 POP POP POP POP JUMP JUMPDEST PUSH1 0x1 DUP2 DUP2 SHR SWAP1 DUP3 AND DUP1 PUSH2 0x595A JUMPI PUSH1 0x7F DUP3 AND SWAP2 POP JUMPDEST PUSH1 0x20 DUP3 LT DUP2 EQ ISZERO PUSH2 0x597B JUMPI PUSH4 0x4E487B71 PUSH1 0xE0 SHL PUSH1 0x0 MSTORE PUSH1 0x22 PUSH1 0x4 MSTORE PUSH1 0x24 PUSH1 0x0 REVERT JUMPDEST POP SWAP2 SWAP1 POP JUMP JUMPDEST PUSH1 0x20 DUP1 DUP3 MSTORE PUSH1 0x18 SWAP1 DUP3 ADD MSTORE PUSH32 0x546869732069732061205365637265742042616C6C6F74210000000000000000 PUSH1 0x40 DUP3 ADD MSTORE PUSH1 0x60 ADD SWAP1 JUMP JUMPDEST PUSH4 0x4E487B71 PUSH1 0xE0 SHL PUSH1 0x0 MSTORE PUSH1 0x11 PUSH1 0x4 MSTORE PUSH1 0x24 PUSH1 0x0 REVERT JUMPDEST PUSH1 0x0 DUP3 DUP3 LT ISZERO PUSH2 0x59E0 JUMPI PUSH2 0x59E0 PUSH2 0x59B8 JUMP JUMPDEST POP SUB SWAP1 JUMP JUMPDEST PUSH4 0x4E487B71 PUSH1 0xE0 SHL PUSH1 0x0 MSTORE PUSH1 0x32 PUSH1 0x4 MSTORE PUSH1 0x24 PUSH1 0x0 REVERT JUMPDEST PUSH1 0x20 DUP1 DUP3 MSTORE PUSH1 0x16 SWAP1 DUP3 ADD MSTORE PUSH22 0x4E6F20737563682042616C6C6F742045786973747321 PUSH1 0x50 SHL PUSH1 0x40 DUP3 ADD MSTORE PUSH1 0x60 ADD SWAP1 JUMP JUMPDEST PUSH1 0x20 DUP1 DUP3 MSTORE PUSH1 0x14 SWAP1 DUP3 ADD MSTORE PUSH20 0x546869732042616C6C6F74204578706972656421 PUSH1 0x60 SHL PUSH1 0x40 DUP3 ADD MSTORE PUSH1 0x60 ADD SWAP1 JUMP JUMPDEST PUSH1 0x0 DUP3 PUSH2 0x5A76 JUMPI PUSH4 0x4E487B71 PUSH1 0xE0 SHL PUSH1 0x0 MSTORE PUSH1 0x12 PUSH1 0x4 MSTORE PUSH1 0x24 PUSH1 0x0 REVERT JUMPDEST POP DIV SWAP1 JUMP JUMPDEST PUSH1 0x0 DUP2 PUSH1 0x0 NOT DIV DUP4 GT DUP3 ISZERO ISZERO AND ISZERO PUSH2 0x5A95 JUMPI PUSH2 0x5A95 PUSH2 0x59B8 JUMP JUMPDEST POP MUL SWAP1 JUMP JUMPDEST PUSH1 0x20 DUP1 DUP3 MSTORE PUSH1 0x22 SWAP1 DUP3 ADD MSTORE PUSH32 0x596F7520617265205265676973746572656420696E20746869732042616C6C6F PUSH1 0x40 DUP3 ADD MSTORE PUSH2 0x7421 PUSH1 0xF0 SHL PUSH1 0x60 DUP3 ADD MSTORE PUSH1 0x80 ADD SWAP1 JUMP JUMPDEST PUSH1 0x20 DUP1 DUP3 MSTORE PUSH1 0x25 SWAP1 DUP3 ADD MSTORE PUSH32 0x596F7572204944206973205265676973746572656420696E2074686973204261 PUSH1 0x40 DUP3 ADD MSTORE PUSH5 0x6C6C6F7421 PUSH1 0xD8 SHL PUSH1 0x60 DUP3 ADD MSTORE PUSH1 0x80 ADD SWAP1 JUMP JUMPDEST PUSH1 0x20 DUP1 DUP3 MSTORE PUSH1 0x1F SWAP1 DUP3 ADD MSTORE PUSH32 0x526567697374726174696F6E20506572696F6420686173205061737365642100 PUSH1 0x40 DUP3 ADD MSTORE PUSH1 0x60 ADD SWAP1 JUMP JUMPDEST PUSH1 0x20 DUP1 DUP3 MSTORE PUSH1 0x18 SWAP1 DUP3 ADD MSTORE PUSH32 0x506C6561736520526567697374657220746F20566F7465210000000000000000 PUSH1 0x40 DUP3 ADD MSTORE PUSH1 0x60 ADD SWAP1 JUMP JUMPDEST PUSH1 0x20 DUP1 DUP3 MSTORE PUSH1 0x2A SWAP1 DUP3 ADD MSTORE PUSH32 0x596F7520616C7265616479204341535420796F757220566F746520696E205468 PUSH1 0x40 DUP3 ADD MSTORE PUSH10 0x69732042616C6C6F7421 PUSH1 0xB0 SHL PUSH1 0x60 DUP3 ADD MSTORE PUSH1 0x80 ADD SWAP1 JUMP JUMPDEST PUSH1 0x20 DUP1 DUP3 MSTORE PUSH1 0x12 SWAP1 DUP3 ADD MSTORE PUSH18 0x496E76616C69642042616C6C6F7420496421 PUSH1 0x70 SHL PUSH1 0x40 DUP3 ADD MSTORE PUSH1 0x60 ADD SWAP1 JUMP JUMPDEST PUSH1 0x20 DUP1 DUP3 MSTORE PUSH1 0x12 SWAP1 DUP3 ADD MSTORE PUSH18 0x10985B1B1BDD081A185CC8115E1C1A5C9959 PUSH1 0x72 SHL PUSH1 0x40 DUP3 ADD MSTORE PUSH1 0x60 ADD SWAP1 JUMP JUMPDEST PUSH1 0x20 DUP1 DUP3 MSTORE PUSH1 0x23 SWAP1 DUP3 ADD MSTORE PUSH32 0x43616E64696461746520646F6573206E6F7420657869737420696E2042616C6C PUSH1 0x40 DUP3 ADD MSTORE PUSH3 0x6F7421 PUSH1 0xE8 SHL PUSH1 0x60 DUP3 ADD MSTORE PUSH1 0x80 ADD SWAP1 JUMP JUMPDEST PUSH1 0x0 DUP3 NOT DUP3 GT ISZERO PUSH2 0x5C87 JUMPI PUSH2 0x5C87 PUSH2 0x59B8 JUMP JUMPDEST POP ADD SWAP1 JUMP JUMPDEST PUSH1 0x0 PUSH1 0x0 NOT DUP3 EQ ISZERO PUSH2 0x5CA0 JUMPI PUSH2 0x5CA0 PUSH2 0x59B8 JUMP JUMPDEST POP PUSH1 0x1 ADD SWAP1 JUMP JUMPDEST PUSH1 0x20 DUP1 DUP3 MSTORE PUSH1 0x12 SWAP1 DUP3 ADD MSTORE PUSH18 0x57726F6E672062616C6C6F74205479706521 PUSH1 0x70 SHL PUSH1 0x40 DUP3 ADD MSTORE PUSH1 0x60 ADD SWAP1 JUMP JUMPDEST PUSH1 0x20 DUP1 DUP3 MSTORE PUSH1 0x12 SWAP1 DUP3 ADD MSTORE PUSH18 0x57726F6E672042616C6C6F74205479706521 PUSH1 0x70 SHL PUSH1 0x40 DUP3 ADD MSTORE PUSH1 0x60 ADD SWAP1 JUMP JUMPDEST PUSH1 0x20 DUP1 DUP3 MSTORE PUSH1 0x2B SWAP1 DUP3 ADD MSTORE PUSH32 0x496E697469616C697A61626C653A20636F6E7472616374206973206E6F742069 PUSH1 0x40 DUP3 ADD MSTORE PUSH11 0x6E697469616C697A696E67 PUSH1 0xA8 SHL PUSH1 0x60 DUP3 ADD MSTORE PUSH1 0x80 ADD SWAP1 JUMP INVALID LOG2 PUSH5 0x6970667358 0x22 SLT KECCAK256 PUSH16 0x85A9D0A10B1D6DE2652262F7E40F609 INVALID 0x4F 0xCB MOD PUSH29 0x39E5D8DEDDE3993ABA4064736F6C634300080800330000000000000000 ","sha1":"7604f37560f1d2c2042ab0e3e251b5ea4f81dd40","source":"// SPDX-License-Identifier: UNLICENSED\n\npragma solidity 0.8.8;\n\nimport \"../interfaces/IJamiiFactory.sol\";\nimport \"./JamiiBase.sol\";\n\ncontract JamiiFactory is IJamiiFactory, JamiiBase {\n    Ballot[] private ballots;\n    Voter[] private voters;\n\n    // numbers\n    uint256 private ballot_fee = 340000000000000000; // $\n    uint256 private ballot_count;\n    uint256[] private voter_ids;\n    uint256[] internal ballot_types_arr = [0, 1, 2, 3, 4, 5, 6];\n    uint256 internal ballot_types = ballot_types_arr.length;\n\n    // mappings\n    mapping(address => Ballot) private ballots_mapping;\n    mapping(uint256 => Ballot) private id_to_ballot_mapping;\n    mapping(uint256 => address[]) private ballot_candidate_mapping;\n    mapping(uint256 => address[]) private ballot_voters_mapping;\n    mapping(address => Candidate) private address_to_candidate_mapping;\n    mapping(address => address[]) private chair_to_candidates;\n    mapping(address => Voter) private address_to_voter_mapping;\n    mapping(address => bytes32) private voter_to_unique_id;\n    mapping(uint256 => address) private id_to_voter;\n    mapping(address => uint256[]) private voter_to_ballots;\n    mapping(address => uint256[]) private voted_to_ballots;\n    mapping(uint256 => uint256[]) private voter_id_to_ballots;\n\n    modifier only_voter(address _candidate, uint256 _ballot_id) {\n        Ballot memory ballot = id_to_ballot_mapping[_ballot_id];\n        require(\n            address_to_voter_mapping[msg.sender].registered == true,\n            \"Please Register to Vote!\"\n        );\n        require(\n            !exists(voted_to_ballots[msg.sender], _ballot_id),\n            \"You already CAST your Vote in This Ballot!\"\n        );\n        require(\n            id_to_ballot_mapping[_ballot_id].ballot_id == _ballot_id,\n            \"Invalid Ballot Id!\"\n        );\n        require(ballot.expired == false, \"Ballot has Expired\");\n        require(\n            address_to_candidate_mapping[_candidate].ballot_id == _ballot_id,\n            \"Candidate does not exist in Ballot!\"\n        );\n        _;\n    }\n\n    modifier only_voter_closed_ballots(address _candidate, uint256 _ballot_id) {\n        Ballot memory ballot = id_to_ballot_mapping[_ballot_id];\n        Voter memory voter = address_to_voter_mapping[msg.sender];\n        require(voter.rights == true, \"No Voting Rights!\");\n        require(\n            address_to_voter_mapping[msg.sender].registered == true,\n            \"Please Register to Vote!\"\n        );\n        require(\n            !exists(voted_to_ballots[msg.sender], _ballot_id),\n            \"You already CAST your Vote in This Ballot!\"\n        );\n        require(\n            id_to_ballot_mapping[_ballot_id].ballot_id == _ballot_id,\n            \"Invalid Ballot Id!\"\n        );\n        require(ballot.expired == false, \"Ballot has Expired\");\n        require(\n            address_to_candidate_mapping[_candidate].ballot_id == _ballot_id,\n            \"Candidate does not exist in Ballot!\"\n        );\n        _;\n    }\n\n    modifier only_secret_ballot(uint256 _ballot_id) {\n        Ballot memory ballot = id_to_ballot_mapping[_ballot_id];\n        require(ballot.ballot_type < 4, \"This is a Secret Ballot!\");\n        _;\n    }\n\n    modifier only_register_voter(uint256 _id_number, uint256 _ballot_id) {\n        Ballot memory ballot = id_to_ballot_mapping[_ballot_id];\n        uint256 duration = (block.timestamp - ballot.open_date);\n        uint256 n = ballots.length;\n        require(n >= 1, \"No such Ballot Exists!\");\n        // require(\n        //     ballot.ballot_id <= ballots[n - 1].ballot_id,\n        //     \"No such Ballot Exists!\"\n        // );\n        require(duration < (ballot._days * 86400), \"This Ballot Expired!\");\n        require(\n            !exists(voter_to_ballots[msg.sender], _ballot_id),\n            \"You are Registered in this Ballot!\"\n        );\n        require(\n            !exists(voter_id_to_ballots[_id_number], _ballot_id),\n            \"Your ID is Registered in this Ballot!\"\n        );\n        require(\n            (duration < (ballot.registration_window * 86400)),\n            \"Registration Period has Passed!\"\n        );\n        _;\n    }\n\n    function initialize(string memory _arbitrary_text) public initializer {\n        JamiiBase.initialize();\n    }\n\n    function exists(uint256[] memory _voter_ballots, uint256 _target)\n        internal\n        pure\n        returns (bool)\n    {\n        uint256 n = _voter_ballots.length;\n        for (uint256 i = 0; i < n; i++) {\n            if (_voter_ballots[i] == _target) {\n                return true;\n            }\n        }\n        return false;\n    }\n\n    function create_ballot_type(\n        uint256 _ballot_type,\n        string memory _ballot_name\n    ) public onlyOwner {\n        require(\n            _ballot_type > (ballot_types - 1) &&\n                _ballot_type < (ballot_types + 1),\n            \"Invalid Type Index!\"\n        );\n        ballot_types_arr.push(ballot_types + 1);\n        ballot_types_mapping[_ballot_type] = _ballot_name;\n    }\n\n    function create_ballot(\n        string memory _ballot_name,\n        address[] memory _ballot_candidates_addr,\n        uint256 _ballot_type,\n        uint256 _days,\n        uint256 _registration_period\n    ) public payable {\n        require(msg.value >= ballot_fee, \"Insufficient funds!\");\n        bytes memory bytes_ballot_name = bytes(_ballot_name);\n        require(bytes_ballot_name.length > 0, \"Enter a valid Ballot Name!\");\n        require(\n            _ballot_candidates_addr.length > 1,\n            \"Not Enough Ballot Candidates!\"\n        );\n        require(_ballot_type <= ballot_types, \"Not a valid Ballot Type!\");\n        require(\n            _days > _registration_period,\n            \"Registration Period > Voting Days!\"\n        );\n        require(_registration_period > 0, \"Registration Period should be > 1!\");\n\n        ballot_candidate_mapping[uid] = _ballot_candidates_addr;\n\n        uint256 n = _ballot_candidates_addr.length;\n        for (uint256 i = 0; i < n; i++) {\n            Candidate memory candidate = Candidate(\n                candidates_count,\n                uid,\n                _ballot_candidates_addr[i],\n                0\n            );\n            address_to_candidate_mapping[\n                _ballot_candidates_addr[i]\n            ] = candidate;\n            candidates_count++;\n        }\n\n        Ballot memory new_ballot = Ballot(\n            uid,\n            _ballot_type,\n            _ballot_name,\n            msg.sender,\n            0,\n            block.timestamp,\n            _days,\n            false,\n            _registration_period,\n            address(0x0),\n            false\n        );\n        id_to_ballot_mapping[uid] = new_ballot;\n        ballots.push(new_ballot);\n        ballots_mapping[msg.sender] = new_ballot;\n        chair_to_candidates[msg.sender] = _ballot_candidates_addr;\n        ballot_count++;\n        uid++;\n\n        emit created_ballot(_ballot_type);\n    }\n\n    // createBallot(_ballot_candidates)\n    // ballot 0 -> [\"0xf9d48aC9eC8F207AEF93518B51D2CdA61e596904\", \"0x6c0A17AEe0a1420583446B77f0c8a55e369Bb07e\"]\n    // ballot 1 -> [\"0xa8d17cc9cAF29Af964d19267DDEb4dfF122697B0\",\"0xA0341558519429f6A93475bA53AD319f99302bff\"]\n    // ballot 2 -> [\"0x4A4eC531A0c952d76fdb0E1DC9561A893Cc3177c\", \"0xfA5C1650946124cB9ACBe478e6D37b5F6c1983D6\"]\n    // ballot 3 -> [\"0x7ffC57839B00206D1ad20c69A1981b489f772031\", \"0x8E9a9f198d9d6457339A11b05A214F9aa78dbc8b\"]\n    // ballot 4 -> [\"0xfA5C1650946124cB9ACBe478e6D37b5F6c1983D6\", \"0xfe3e6ab5d787f4099478bbe811a740d903e219fb\"]\n    // ballot 5 -> ballot 0\n    // ballot 6 -> ballot 1\n\n    /** REGISTERS VOTERS **/\n\n    function create_voter_open_ballot(uint256 _id_number, uint256 _ballot_id)\n        internal\n    {\n        Ballot storage ballot = id_to_ballot_mapping[_ballot_id];\n\n        ballot_voters_mapping[_ballot_id].push(msg.sender);\n\n        // id_number validation here\n        bytes32 unique_voter_id = keccak256(abi.encode(_id_number));\n        voter_to_unique_id[msg.sender] = unique_voter_id;\n\n        Voter memory new_voter = Voter(\n            ballot.voters_count,\n            msg.sender,\n            _ballot_id,\n            true,\n            true,\n            false,\n            unique_voter_id\n        );\n        address_to_voter_mapping[msg.sender] = new_voter;\n        voters.push(new_voter);\n\n        id_to_ballot_mapping[_ballot_id].voters_count++;\n\n        id_to_voter[_id_number] = msg.sender;\n\n        voter_to_ballots[msg.sender].push(_ballot_id);\n        voter_id_to_ballots[_id_number].push(_ballot_id);\n\n        emit registered_voter(unique_voter_id);\n    }\n\n    function create_voter_closed_ballot(uint256 _id_number, uint256 _ballot_id)\n        internal\n    {\n        Ballot storage ballot = id_to_ballot_mapping[_ballot_id];\n\n        ballot_voters_mapping[_ballot_id].push(msg.sender);\n\n        // id_number validation here\n        bytes32 unique_voter_id = keccak256(abi.encode(_id_number));\n        voter_to_unique_id[msg.sender] = unique_voter_id;\n\n        Voter memory new_voter = Voter(\n            ballot.voters_count,\n            msg.sender,\n            _ballot_id,\n            true,\n            false,\n            false,\n            unique_voter_id\n        );\n        address_to_voter_mapping[msg.sender] = new_voter;\n        voters.push(new_voter);\n\n        id_to_ballot_mapping[_ballot_id].voters_count++;\n\n        id_to_voter[_id_number] = msg.sender;\n\n        voter_to_ballots[msg.sender].push(_ballot_id);\n        voter_id_to_ballots[_id_number].push(_ballot_id);\n\n        emit registered_voter(unique_voter_id);\n    }\n\n    function register_voter_open_ballot(uint256 _id_number, uint256 _ballot_id)\n        internal\n        only_register_voter(_id_number, _ballot_id)\n    {\n        Ballot storage ballot = id_to_ballot_mapping[_ballot_id];\n        require(ballot.ballot_type == 0, \"Wrong ballot Type!\");\n\n        create_voter_open_ballot(_id_number, _ballot_id);\n    }\n\n    function register_voter_closed_ballot(\n        uint256 _id_number,\n        uint256 _ballot_id\n    ) internal only_register_voter(_id_number, _ballot_id) {\n        Ballot storage ballot = id_to_ballot_mapping[_ballot_id];\n        require(\n            ballot.ballot_type == 1 || ballot.ballot_type == 4,\n            \"Wrong ballot Type!\"\n        );\n        // require(\"You need to lock value in the Ballot! -> redistributed after ballot!\");\n\n        create_voter_closed_ballot(_id_number, _ballot_id);\n    }\n\n    // register voter closedPaidElection\n    function register_voter_open_paid_ballot(\n        uint256 _id_number,\n        uint256 _ballot_id\n    ) internal only_register_voter(_id_number, _ballot_id) {\n        Ballot storage ballot = id_to_ballot_mapping[_ballot_id];\n        require(\n            ballot.ballot_type == 2 || ballot.ballot_type == 5,\n            \"Wrong ballot Type!\"\n        );\n        // require(\"You need to lock value in the Ballot!\");\n\n        create_voter_open_ballot(_id_number, _ballot_id);\n    }\n\n    function register_voter_closed_paid_ballot(\n        uint256 _id_number,\n        uint256 _ballot_id\n    ) internal only_register_voter(_id_number, _ballot_id) {\n        Ballot storage ballot = id_to_ballot_mapping[_ballot_id];\n        require(\n            ballot.ballot_type == 3 || ballot.ballot_type == 6,\n            \"Wrong ballot Type!\"\n        );\n        // require(\"You need to lock value in the Ballot!\");\n\n        create_voter_closed_ballot(_id_number, _ballot_id);\n    }\n\n    function register_voter(uint256 _id_number, uint256 _ballot_id)\n        public\n        only_register_voter(_id_number, _ballot_id)\n    {\n        Ballot memory ballot = id_to_ballot_mapping[_ballot_id];\n\n        // 0, 1, 2, 3, 4, 5, 6 => open free, closed free, open paid, closed paid,\n        if (ballot.ballot_type == 0) {\n            register_voter_open_ballot(_id_number, _ballot_id);\n        } else if (ballot.ballot_type == 1 || ballot.ballot_type == 4) {\n            register_voter_closed_ballot(_id_number, _ballot_id);\n        } else if (ballot.ballot_type == 2 || ballot.ballot_type == 5) {\n            register_voter_open_paid_ballot(_id_number, _ballot_id);\n        } else if (ballot.ballot_type == 3 || ballot.ballot_type == 6) {\n            register_voter_closed_paid_ballot(_id_number, _ballot_id);\n        }\n    }\n\n    /** VOTING RIGHTS **/\n    function assign_voting_rights(address _voter, uint256 _ballot_id) public {\n        require(\n            msg.sender == get_ballot_owner(_ballot_id),\n            \"Insufficient Permissions!\"\n        );\n        Ballot memory ballot = id_to_ballot_mapping[_ballot_id];\n\n        uint256 n = ballots.length;\n        require(\n            ballot.ballot_id <= ballots[n - 1].ballot_id,\n            \"No such Ballot Exists!\"\n        );\n\n        uint256 _ballot_type = ballot.ballot_type;\n        require(ballot.expired == false, \"This Ballot Expired!\");\n\n        require(\n            _ballot_type == 1 ||\n                _ballot_type == 3 ||\n                _ballot_type == 4 ||\n                _ballot_type == 6,\n            \"Not a Closed Ballot!\"\n        );\n        require(\n            address_to_voter_mapping[_voter].ballot_id == _ballot_id,\n            \"Voter CanNOT vote in this Ballot!\"\n        );\n        require(\n            address_to_voter_mapping[_voter].registered == true,\n            \"NOT a Registered Voter!\"\n        );\n        require(\n            address_to_voter_mapping[_voter].rights == false,\n            \"Already has Voting Rights!\"\n        );\n\n        // closed paid ballot [3]\n        // require voter has sufficient voting tokens for a ballot -> buy voting rights -> awaiting approval\n        address_to_voter_mapping[_voter].rights = true;\n\n        emit assigned_voting_rights(_voter);\n    }\n\n    // function buy_voting_rights(){\n\n    // }\n\n    function create_vote(address _candidate) internal {\n        address_to_candidate_mapping[_candidate].vote_count++;\n        address_to_voter_mapping[msg.sender].voted = true;\n        emit voted(_candidate);\n    }\n\n    function vote_open_ballot(address _candidate, uint256 _ballot_id)\n        internal\n        only_voter(_candidate, _ballot_id)\n    {\n        // require(\"Need to have locked value in ballot during registration!\")\n\n        Ballot memory ballot = id_to_ballot_mapping[_ballot_id];\n        ballot.current_winner = _candidate;\n        find_winner(_candidate, ballot);\n        create_vote(_candidate);\n    }\n\n    function vote_closed_free_ballot(address _candidate, uint256 _ballot_id)\n        internal\n        only_voter_closed_ballots(_candidate, _ballot_id)\n    {\n        Ballot memory ballot = id_to_ballot_mapping[_ballot_id];\n        require(ballot.ballot_type == 1, \"Wrong Ballot Type!\");\n        // require(\"Need to have locked value in ballot during registration!\")\n\n        ballot.current_winner = _candidate;\n        find_winner(_candidate, ballot);\n        create_vote(_candidate);\n    }\n\n    function vote_open_paid_ballot(address _candidate, uint256 _ballot_id)\n        internal\n        only_voter(_candidate, _ballot_id)\n    {\n        Ballot memory ballot = id_to_ballot_mapping[_ballot_id];\n        require(ballot.ballot_type == 2, \"Wrong Ballot Type!\");\n        // require(\"Enough tokens for This Vote\")\n        ballot.current_winner = _candidate;\n\n        find_winner(_candidate, ballot);\n        create_vote(_candidate);\n    }\n\n    function vote_closed_paid_ballot(address _candidate, uint256 _ballot_id)\n        internal\n        only_voter_closed_ballots(_candidate, _ballot_id)\n    {\n        // require(election_type == 2);\n        Ballot memory ballot = id_to_ballot_mapping[_ballot_id];\n        require(ballot.ballot_type == 3, \"Wrong Ballot Type!\");\n        // require(\"Enough tokens for This Vote\")\n\n        ballot.current_winner = _candidate;\n        find_winner(_candidate, ballot);\n        create_vote(_candidate);\n    }\n\n    function vote(address _candidate, uint256 _ballot_id)\n        public\n        only_voter(_candidate, _ballot_id)\n    {\n        uint256 int_ballot_id = _ballot_id - 100;\n        Ballot memory ballot = ballots[int_ballot_id];\n\n        // 0, 1, 2, 3, 4, 5, 6 => open free, closed free, open paid, closed paid,\n        if (ballot.ballot_type == 0) {\n            vote_open_ballot(_candidate, _ballot_id);\n            voted_to_ballots[msg.sender].push(_ballot_id);\n        } else if (ballot.ballot_type == 1) {\n            vote_closed_free_ballot(_candidate, _ballot_id);\n            voted_to_ballots[msg.sender].push(_ballot_id);\n        } else if (ballot.ballot_type == 2) {\n            vote_open_paid_ballot(_candidate, _ballot_id);\n            voted_to_ballots[msg.sender].push(_ballot_id);\n        } else if (ballot.ballot_type == 3) {\n            vote_closed_paid_ballot(_candidate, _ballot_id);\n            voted_to_ballots[msg.sender].push(_ballot_id);\n        }\n    }\n\n    /** GETTERS **/\n\n    function get_ballot_owner(uint256 _ballot_id)\n        public\n        view\n        only_secret_ballot(_ballot_id)\n        returns (address)\n    {\n        return id_to_ballot_mapping[_ballot_id].chair;\n    }\n\n    function get_ballot(uint256 _ballot_id)\n        public\n        view\n        only_secret_ballot(_ballot_id)\n        returns (Ballot memory)\n    {\n        return id_to_ballot_mapping[_ballot_id];\n    }\n\n    function get_candidate(address _candidate_addr)\n        public\n        view\n        only_secret_ballot(100)\n        returns (Candidate memory)\n    {\n        return address_to_candidate_mapping[_candidate_addr];\n    }\n\n    function get_voter(address _voter_address, uint256 _ballot_id)\n        public\n        view\n        only_secret_ballot(_ballot_id)\n        returns (Voter memory)\n    {\n        return address_to_voter_mapping[_voter_address];\n    }\n\n    function get_candidates(uint256 _ballot_id)\n        public\n        view\n        returns (address[] memory)\n    {\n        return ballot_candidate_mapping[_ballot_id];\n    }\n\n    function get_voters(uint256 _ballot_id)\n        public\n        view\n        only_secret_ballot(_ballot_id)\n        returns (address[] memory)\n    {\n        return ballot_voters_mapping[_ballot_id];\n    }\n\n    function find_winner(address _candidate, Ballot memory ballot)\n        internal\n        view\n        returns (bool)\n    {\n        if (\n            address_to_candidate_mapping[_candidate].vote_count + 1 >\n            address_to_candidate_mapping[ballot.current_winner].vote_count\n        ) {\n            ballot.current_winner = _candidate;\n            ballot.tie = false;\n        } else if (\n            address_to_candidate_mapping[_candidate].vote_count + 1 ==\n            address_to_candidate_mapping[ballot.current_winner].vote_count\n        ) {\n            ballot.tie = true;\n        }\n        return ballot.tie;\n    }\n\n    function get_winner(uint256 _ballot_id)\n        public\n        only_secret_ballot(_ballot_id)\n        returns (address)\n    {\n        Ballot memory ballot = id_to_ballot_mapping[_ballot_id];\n        require(\n            _ballot_id <= ballot_count,\n            \"Ballot with that Id does NOT exist!\"\n        );\n\n        uint256 duration = (block.timestamp - ballot.open_date) / 60 / 60 / 24;\n        require(duration > ballot._days, \"This Ballot is NOT yet Expired!\");\n\n        if (ballot.tie == true) {\n            emit tied_ballot(ballot.tie);\n            return address(0x0);\n        } else {\n            address winner = ballot.current_winner;\n            return winner;\n        }\n    }\n\n    function end_ballot(uint256 _ballot_id) public {\n        Ballot storage ballot = id_to_ballot_mapping[_ballot_id];\n\n        uint256 duration = (block.timestamp - ballot.open_date) / 60 / 60 / 24;\n        require(duration < ballot._days, \"This Ballot is NOT yet Expired!\");\n\n        require(msg.sender == ballot.chair, \"Insufficient Permissions!\");\n\n        ballot.expired = true;\n        ballots_mapping[msg.sender].expired = true;\n        id_to_ballot_mapping[_ballot_id].expired = true;\n\n        emit ended_ballot(_ballot_id);\n    }\n\n    function withdraw() public onlyOwner {\n        payable(fee_addr).transfer(address(this).balance);\n    }\n}\n","sourcePath":"contracts/JamiiFactory.sol","deployment":{"address":"0x359D35247cAA96cc3d1d4A7D3A9C82F8972d742E","chainid":"4","blockHeight":11081813}}