{"bytecode":"6704b7ec32d7a20000600790815561016060405260006080908152600160a052600260c052600360e0526004610100526005610120526006610140526200004a91600a9190620000cb565b50600a54600b553480156200005e57600080fd5b506200006a3362000070565b62000137565b600080546001600160a01b038381166201000081810262010000600160b01b0319851617855560405193049190911692909183917f8be0079c531659141344cd1fd0a4f28419497f9722a3daafe3b4186f6b6457e091a35050565b8280548282559060005260206000209081019282156200010e579160200282015b828111156200010e578251829060ff16905591602001919060010190620000ec565b506200011c92915062000120565b5090565b5b808211156200011c576000815560010162000121565b615d3580620001476000396000f3fe6080604052600436106101095760003560e01c8063715018a611610095578063adbdbc9711610064578063adbdbc9714610371578063dcfc138014610391578063e8873b8f146103a4578063f2fde38b146103c4578063f62d1888146103e457600080fd5b8063715018a6146102af5780638987076b146102c45780638da5cb5b146102f1578063953ef76d1461031557600080fd5b8063243dc409116100dc578063243dc4091461021a5780633ccfd60b1461023a578063514d7d661461024f5780635b881f6b1461026f5780635f74bbde1461028f57600080fd5b8063040de0c51461010e578063091cb18a1461014b578063112819bd146101cb578063133e59aa146101ed575b600080fd5b34801561011a57600080fd5b5061012e610129366004615526565b610404565b6040516001600160a01b0390911681526020015b60405180910390f35b34801561015757600080fd5b5061016b61016636600461555b565b610597565b6040516101429190815181526020808301516001600160a01b0316908201526040808301519082015260608083015115159082015260808083015115159082015260a08083015115159082015260c0918201519181019190915260e00190565b3480156101d757600080fd5b506101eb6101e636600461555b565b6107aa565b005b3480156101f957600080fd5b5061020d610208366004615526565b610bdf565b6040516101429190615585565b34801561022657600080fd5b5061012e610235366004615526565b610c4b565b34801561024657600080fd5b506101eb611036565b34801561025b57600080fd5b506101eb61026a3660046155d2565b61107a565b34801561027b57600080fd5b506101eb61028a366004615526565b61151b565b34801561029b57600080fd5b506101eb6102aa36600461555b565b61168a565b3480156102bb57600080fd5b506101eb611b0e565b3480156102d057600080fd5b506102e46102df366004615526565b611b22565b6040516101429190615641565b3480156102fd57600080fd5b506000546201000090046001600160a01b031661012e565b34801561032157600080fd5b506103356103303660046156ff565b611e33565b604051610142919081518152602080830151908201526040808301516001600160a01b0316908201526060918201519181019190915260800190565b34801561037d57600080fd5b506101eb61038c3660046157d8565b612072565b6101eb61039f36600461581f565b61212e565b3480156103b057600080fd5b5061020d6103bf366004615526565b6127fe565b3480156103d057600080fd5b506101eb6103df3660046156ff565b6129cf565b3480156103f057600080fd5b506101eb6103ff366004615909565b612a45565b6000816000600d600083815260200190815260200160002060405180610160016040529081600082015481526020016001820154815260200160028201805461044c90615946565b80601f016020809104026020016040519081016040528092919081815260200182805461047890615946565b80156104c55780601f1061049a576101008083540402835291602001916104c5565b820191906000526020600020905b8154815290600101906020018083116104a857829003601f168201915b505050918352505060038201546001600160a01b0390811660208084019190915260048085015460408501526005850154606085015260068501546080850152600785015460ff908116151560a0860152600886015460c086015260099095015492831660e0850152600160a01b90920490931615156101009092019190915290820151919250116105725760405162461bcd60e51b815260040161056990615981565b60405180910390fd5b6000848152600d60205260409020600301546001600160a01b031692505b5050919050565b6040805160e08101825260008082526020808301829052828401829052606083018290526080830182905260a0830182905260c08301829052848252600d81528382208451610160810186528154815260018201549281019290925260028101805494958795908401919061060b90615946565b80601f016020809104026020016040519081016040528092919081815260200182805461063790615946565b80156106845780601f1061065957610100808354040283529160200191610684565b820191906000526020600020905b81548152906001019060200180831161066757829003601f168201915b505050918352505060038201546001600160a01b0390811660208084019190915260048085015460408501526005850154606085015260068501546080850152600785015460ff908116151560a0860152600886015460c086015260099095015492831660e0850152600160a01b90920490931615156101009092019190915290820151919250116107285760405162461bcd60e51b815260040161056990615981565b505050506001600160a01b03908116600090815260126020908152604091829020825160e08101845281548152600182015490941691840191909152600281015491830191909152600381015460ff8082161515606085015261010082048116151560808501526201000090910416151560a08301526004015460c082015290565b6107b381610404565b6001600160a01b0316336001600160a01b03161461080f5760405162461bcd60e51b8152602060048201526019602482015278496e73756666696369656e74205065726d697373696f6e732160381b6044820152606401610569565b6000600d600083815260200190815260200160002060405180610160016040529081600082015481526020016001820154815260200160028201805461085490615946565b80601f016020809104026020016040519081016040528092919081815260200182805461088090615946565b80156108cd5780601f106108a2576101008083540402835291602001916108cd565b820191906000526020600020905b8154815290600101906020018083116108b057829003601f168201915b505050918352505060038201546001600160a01b03908116602083015260048301546040830152600580840154606084015260068401546080840152600784015460ff908116151560a0850152600885015460c085015260099094015491821660e0840152600160a01b90910490921615156101009091015280549192506109566001836159ce565b81548110610966576109666159e5565b60009182526020909120600a9091020154825111156109975760405162461bcd60e51b8152600401610569906159fb565b602082015160e0830151156109be5760405162461bcd60e51b815260040161056990615a2b565b80600114806109cd5750806003145b806109d85750806004145b806109e35750806006145b610a265760405162461bcd60e51b81526020600482015260146024820152734e6f74206120436c6f7365642042616c6c6f742160601b6044820152606401610569565b6001600160a01b0385166000908152601260205260409020600201548414610a9a5760405162461bcd60e51b815260206004820152602160248201527f566f7465722043616e4e4f5420766f746520696e20746869732042616c6c6f746044820152602160f81b6064820152608401610569565b6001600160a01b03851660009081526012602052604090206003015460ff161515600114610b0a5760405162461bcd60e51b815260206004820152601760248201527f4e4f542061205265676973746572656420566f746572210000000000000000006044820152606401610569565b6001600160a01b038516600090815260126020526040902060030154610100900460ff1615610b7b5760405162461bcd60e51b815260206004820152601a60248201527f416c72656164792068617320566f74696e6720526967687473210000000000006044820152606401610569565b6001600160a01b038516600081815260126020908152604091829020600301805461ff00191661010017905590519182527f94055e6bcdfa83fa1f2cb2901fd22db9e96f758348742a662b752bc32b76580091015b60405180910390a15050505050565b6000818152600e6020908152604091829020805483518184028101840190945280845260609392830182828015610c3f57602002820191906000526020600020905b81546001600160a01b03168152600190910190602001808311610c21575b50505050509050919050565b6000816000600d6000838152602001908152602001600020604051806101600160405290816000820154815260200160018201548152602001600282018054610c9390615946565b80601f0160208091040260200160405190810160405280929190818152602001828054610cbf90615946565b8015610d0c5780601f10610ce157610100808354040283529160200191610d0c565b820191906000526020600020905b815481529060010190602001808311610cef57829003601f168201915b505050918352505060038201546001600160a01b0390811660208084019190915260048085015460408501526005850154606085015260068501546080850152600785015460ff908116151560a0860152600886015460c086015260099095015492831660e0850152600160a01b9092049093161515610100909201919091529082015191925011610db05760405162461bcd60e51b815260040161056990615981565b6000600d6000868152602001908152602001600020604051806101600160405290816000820154815260200160018201548152602001600282018054610df590615946565b80601f0160208091040260200160405190810160405280929190818152602001828054610e2190615946565b8015610e6e5780601f10610e4357610100808354040283529160200191610e6e565b820191906000526020600020905b815481529060010190602001808311610e5157829003601f168201915b505050918352505060038201546001600160a01b039081166020830152600483015460408301526005830154606083015260068301546080830152600783015460ff908116151560a084015260088085015460c085015260099094015491821660e0840152600160a01b9091041615156101009091015254909150851115610f445760405162461bcd60e51b815260206004820152602360248201527f42616c6c6f742077697468207468617420496420646f6573204e4f542065786960448201526273742160e81b6064820152608401610569565b60006018603c808460a0015142610f5b91906159ce565b610f659190615a59565b610f6f9190615a59565b610f799190615a59565b90508160c001518111610fce5760405162461bcd60e51b815260206004820152601f60248201527f546869732042616c6c6f74206973204e4f5420796574204578706972656421006044820152606401610569565b610140820151151560011415611029577faf9c5487a5254285c7e0cb270c5884fb3c73e8bf058e80fc0cf380dc6908fac6826101400151604051611016911515815260200190565b60405180910390a1600094505050610590565b5061012001519250610590565b61103e612b57565b6001546040516001600160a01b03909116904780156108fc02916000818181858888f19350505050158015611077573d6000803e3d6000fd5b50565b81816000600d60008381526020019081526020016000206040518061016001604052908160008201548152602001600182015481526020016002820180546110c190615946565b80601f01602080910402602001604051908101604052809291908181526020018280546110ed90615946565b801561113a5780601f1061110f5761010080835404028352916020019161113a565b820191906000526020600020905b81548152906001019060200180831161111d57829003601f168201915b505050918352505060038201546001600160a01b039081166020830152600483015460408301526005830154606083015260068301546080830152600783015460ff908116151560a080850191909152600885015460c085015260099094015491821660e0840152600160a01b909104161515610100909101528101519091506000906111c790426159ce565b60055490915060018110156111ee5760405162461bcd60e51b8152600401610569906159fb565b60c08301516112009062015180615a7b565b821061121e5760405162461bcd60e51b815260040161056990615a2b565b336000908152601560209081526040918290208054835181840281018401909452808452611281939283018282801561127657602002820191906000526020600020905b815481526020019060010190808311611262575b505050505085612bb8565b1561129e5760405162461bcd60e51b815260040161056990615a9a565b60008581526017602090815260409182902080548351818402810184019094528084526112fe9392830182828015611276576020028201919060005260206000209081548152602001906001019080831161126257505050505085612bb8565b1561131b5760405162461bcd60e51b815260040161056990615adc565b61010083015161132e9062015180615a7b565b821061134c5760405162461bcd60e51b815260040161056990615b21565b6000600d600088815260200190815260200160002060405180610160016040529081600082015481526020016001820154815260200160028201805461139190615946565b80601f01602080910402602001604051908101604052809291908181526020018280546113bd90615946565b801561140a5780601f106113df5761010080835404028352916020019161140a565b820191906000526020600020905b8154815290600101906020018083116113ed57829003601f168201915b505050918352505060038201546001600160a01b03908116602080840191909152600484015460408401526005840154606084015260068401546080840152600784015460ff908116151560a0850152600885015460c085015260099094015491821660e0840152600160a01b90910490921615156101009091015281015190915061149f5761149a8888612c12565b611511565b8060200151600114806114b6575080602001516004145b156114c55761149a8888612f1c565b8060200151600214806114dc575080602001516005145b156114eb5761149a8888613236565b806020015160031480611502575080602001516006145b15611511576115118888613547565b5050505050505050565b6000818152600d602052604081206005810154909190601890603c90819061154390426159ce565b61154d9190615a59565b6115579190615a59565b6115619190615a59565b9050816006015481106115b65760405162461bcd60e51b815260206004820152601f60248201527f546869732042616c6c6f74206973204e4f5420796574204578706972656421006044820152606401610569565b60038201546001600160a01b0316331461160e5760405162461bcd60e51b8152602060048201526019602482015278496e73756666696369656e74205065726d697373696f6e732160381b6044820152606401610569565b60078281018054600160ff199182168117909255336000908152600c6020908152604080832086018054851686179055888352600d82529182902090940180549092169092179055518481527fee47b3ab572870e3b3bc916bcded65025f6ad6e7795583611f5a9085502148e7910160405180910390a1505050565b81816000600d60008381526020019081526020016000206040518061016001604052908160008201548152602001600182015481526020016002820180546116d190615946565b80601f01602080910402602001604051908101604052809291908181526020018280546116fd90615946565b801561174a5780601f1061171f5761010080835404028352916020019161174a565b820191906000526020600020905b81548152906001019060200180831161172d57829003601f168201915b50505091835250506003828101546001600160a01b0390811660208085019190915260048501546040808601919091526005860154606086015260068601546080860152600786015460ff908116151560a0870152600887015460c087015260099096015492831660e0860152600160a01b9092048516151561010090940193909352336000908152601290935290912001549192501615156001146118025760405162461bcd60e51b815260040161056990615b58565b336000908152601660209081526040918290208054835181840281018401909452808452611865939283018282801561185a57602002820191906000526020600020905b815481526020019060010190808311611846575b505050505083612bb8565b156118825760405162461bcd60e51b815260040161056990615b8f565b6000828152600d602052604090205482146118af5760405162461bcd60e51b815260040161056990615bd9565b60e0810151156118d15760405162461bcd60e51b815260040161056990615c05565b6001600160a01b038316600090815260106020526040902060010154821461190b5760405162461bcd60e51b815260040161056990615c31565b60006119186064866159ce565b905060006005828154811061192f5761192f6159e5565b90600052602060002090600a020160405180610160016040529081600082015481526020016001820154815260200160028201805461196d90615946565b80601f016020809104026020016040519081016040528092919081815260200182805461199990615946565b80156119e65780601f106119bb576101008083540402835291602001916119e6565b820191906000526020600020905b8154815290600101906020018083116119c957829003601f168201915b505050918352505060038201546001600160a01b03908116602080840191909152600484015460408401526005840154606084015260068401546080840152600784015460ff908116151560a0850152600885015460c085015260099094015491821660e0840152600160a01b909104909216151561010090910152810151909150611a9d57611a768787613857565b33600090815260166020908152604082208054600181018255908352912001869055611b05565b806020015160011415611ab457611a768787613c31565b806020015160021415611acb57611a7687876140fa565b806020015160031415611b0557611ae287876144f2565b336000908152601660209081526040822080546001810182559083529120018690555b50505050505050565b611b16612b57565b611b206000614998565b565b611b9560405180610160016040528060008152602001600081526020016060815260200160006001600160a01b031681526020016000815260200160008152602001600081526020016000151581526020016000815260200160006001600160a01b031681526020016000151581525090565b816000600d6000838152602001908152602001600020604051806101600160405290816000820154815260200160018201548152602001600282018054611bdb90615946565b80601f0160208091040260200160405190810160405280929190818152602001828054611c0790615946565b8015611c545780601f10611c2957610100808354040283529160200191611c54565b820191906000526020600020905b815481529060010190602001808311611c3757829003601f168201915b505050918352505060038201546001600160a01b0390811660208084019190915260048085015460408501526005850154606085015260068501546080850152600785015460ff908116151560a0860152600886015460c086015260099095015492831660e0850152600160a01b9092049093161515610100909201919091529082015191925011611cf85760405162461bcd60e51b815260040161056990615981565b600d6000858152602001908152602001600020604051806101600160405290816000820154815260200160018201548152602001600282018054611d3b90615946565b80601f0160208091040260200160405190810160405280929190818152602001828054611d6790615946565b8015611db45780601f10611d8957610100808354040283529160200191611db4565b820191906000526020600020905b815481529060010190602001808311611d9757829003601f168201915b505050918352505060038201546001600160a01b039081166020830152600483015460408301526005830154606083015260068301546080830152600783015460ff908116151560a0840152600884015460c084015260099093015490811660e0830152600160a01b9004909116151561010090910152949350505050565b611e676040518060800160405280600081526020016000815260200160006001600160a01b03168152602001600081525090565b60646000818152600d602090815260408051610160810182527f816f36130a06c897ec411bf59d06163b0ee29e27b58d1183bbd41c477319952d805482527f816f36130a06c897ec411bf59d06163b0ee29e27b58d1183bbd41c477319952e54938201939093527f816f36130a06c897ec411bf59d06163b0ee29e27b58d1183bbd41c477319952f8054919392840191611f0090615946565b80601f0160208091040260200160405190810160405280929190818152602001828054611f2c90615946565b8015611f795780601f10611f4e57610100808354040283529160200191611f79565b820191906000526020600020905b815481529060010190602001808311611f5c57829003601f168201915b505050918352505060038201546001600160a01b0390811660208084019190915260048085015460408501526005850154606085015260068501546080850152600785015460ff908116151560a0860152600886015460c086015260099095015492831660e0850152600160a01b909204909316151561010090920191909152908201519192501161201d5760405162461bcd60e51b815260040161056990615981565b5050506001600160a01b03908116600090815260106020908152604091829020825160808101845281548152600182015492810192909252600281015490931691810191909152600390910154606082015290565b61207a612b57565b6001600b5461208991906159ce565b821180156120a35750600b546120a0906001615c74565b82105b6120e55760405162461bcd60e51b8152602060048201526013602482015272496e76616c6964205479706520496e6465782160681b6044820152606401610569565b600a600b5460016120f69190615c74565b81546001810183556000928352602080842090910191909155838252600481526040909120825161212992840190615438565b505050565b6007543410156121765760405162461bcd60e51b8152602060048201526013602482015272496e73756666696369656e742066756e64732160681b6044820152606401610569565b845185906121c65760405162461bcd60e51b815260206004820152601a60248201527f456e74657220612076616c69642042616c6c6f74204e616d65210000000000006044820152606401610569565b60018551116122175760405162461bcd60e51b815260206004820152601d60248201527f4e6f7420456e6f7567682042616c6c6f742043616e64696461746573210000006044820152606401610569565b600b548411156122695760405162461bcd60e51b815260206004820152601860248201527f4e6f7420612076616c69642042616c6c6f7420547970652100000000000000006044820152606401610569565b8183116122c35760405162461bcd60e51b815260206004820152602260248201527f526567697374726174696f6e20506572696f64203e20566f74696e6720446179604482015261732160f01b6064820152608401610569565b6000821161231e5760405162461bcd60e51b815260206004820152602260248201527f526567697374726174696f6e20506572696f642073686f756c64206265203e20604482015261312160f01b6064820152608401610569565b6002546000908152600e602090815260409091208651612340928801906154bc565b50845160005b8181101561243557600060405180608001604052806003548152602001600254815260200189848151811061237d5761237d6159e5565b60200260200101516001600160a01b031681526020016000815250905080601060008a85815181106123b1576123b16159e5565b6020908102919091018101516001600160a01b039081168352828201939093526040918201600090812085518155918501516001830155918401516002820180546001600160a01b031916919094161790925560609092015160039182015580549161241c83615c8c565b919050555050808061242d90615c8c565b915050612346565b5060408051610160810182526002805480835260208084018a81528486018d81523360608701526000608087018190524260a088015260c087018c905260e0870181905261010087018b905261012087018190526101408701819052938452600d8352959092208451815591516001830155935180519394859492936124c2939085019290910190615438565b5060608201516003820180546001600160a01b0319166001600160a01b039283161790556080830151600483015560a083015160058084019190915560c0840151600684015560e084015160078401805460ff191691151591909117905561010084015160088401556101208401516009909301805461014090950151939092166001600160a81b031990941693909317600160a01b92151592909202919091179055805460018101825560009190915281517f036b6384b5eca791c62761152d0c79bb0604c104a5fb6f4eb0703f3154bb3db0600a9092029182019081556020808401517f036b6384b5eca791c62761152d0c79bb0604c104a5fb6f4eb0703f3154bb3db1840155604084015180518594612604937f036b6384b5eca791c62761152d0c79bb0604c104a5fb6f4eb0703f3154bb3db2909101920190615438565b5060608201516003820180546001600160a01b0319166001600160a01b039283161790556080830151600483015560a0830151600583015560c0830151600683015560e083015160078301805460ff191691151591909117905561010083015160088301556101208301516009909201805461014090940151929091166001600160a81b031990931692909217600160a01b91151591909102179055336000908152600c6020908152604091829020835181558382015160018201559183015180518493926126da926002850192910190615438565b5060608201516003820180546001600160a01b0319166001600160a01b039283161790556080830151600483015560a0830151600583015560c0830151600683015560e083015160078301805460ff191691151591909117905561010083015160088301556101208301516009909201805461014090940151929091166001600160a81b031990931692909217600160a01b911515919091021790553360009081526011602090815260409091208851612796928a01906154bc565b50600880549060006127a783615c8c565b9091555050600280549060006127bc83615c8c565b90915550506040518681527f3302601c0b6ad9794207d2eb4a29c724db57c9348bf10dffcc98c9d89e6d9c529060200160405180910390a15050505050505050565b6060816000600d600083815260200190815260200160002060405180610160016040529081600082015481526020016001820154815260200160028201805461284690615946565b80601f016020809104026020016040519081016040528092919081815260200182805461287290615946565b80156128bf5780601f10612894576101008083540402835291602001916128bf565b820191906000526020600020905b8154815290600101906020018083116128a257829003601f168201915b505050918352505060038201546001600160a01b0390811660208084019190915260048085015460408501526005850154606085015260068501546080850152600785015460ff908116151560a0860152600886015460c086015260099095015492831660e0850152600160a01b90920490931615156101009092019190915290820151919250116129635760405162461bcd60e51b815260040161056990615981565b6000848152600f6020908152604091829020805483518184028101840190945280845290918301828280156129c157602002820191906000526020600020905b81546001600160a01b031681526001909101906020018083116129a3575b505050505092505050919050565b6129d7612b57565b6001600160a01b038116612a3c5760405162461bcd60e51b815260206004820152602660248201527f4f776e61626c653a206e6577206f776e657220697320746865207a65726f206160448201526564647265737360d01b6064820152608401610569565b61107781614998565b600054610100900460ff1615808015612a655750600054600160ff909116105b80612a7f5750303b158015612a7f575060005460ff166001145b612ae25760405162461bcd60e51b815260206004820152602e60248201527f496e697469616c697a61626c653a20636f6e747261637420697320616c72656160448201526d191e481a5b9a5d1a585b1a5e995960921b6064820152608401610569565b6000805460ff191660011790558015612b05576000805461ff0019166101001790555b612b0d6149f3565b8015612b53576000805461ff0019169055604051600181527f7f26b83ff96e1f2b6a682f133852f6798a09c465da95921460cefb38474024989060200160405180910390a15b5050565b6000546001600160a01b0362010000909104163314611b205760405162461bcd60e51b815260206004820181905260248201527f4f776e61626c653a2063616c6c6572206973206e6f7420746865206f776e65726044820152606401610569565b8151600090815b81811015612c055783858281518110612bda57612bda6159e5565b60200260200101511415612bf357600192505050612c0c565b80612bfd81615c8c565b915050612bbf565b5060009150505b92915050565b81816000600d6000838152602001908152602001600020604051806101600160405290816000820154815260200160018201548152602001600282018054612c5990615946565b80601f0160208091040260200160405190810160405280929190818152602001828054612c8590615946565b8015612cd25780601f10612ca757610100808354040283529160200191612cd2565b820191906000526020600020905b815481529060010190602001808311612cb557829003601f168201915b505050918352505060038201546001600160a01b039081166020830152600483015460408301526005830154606083015260068301546080830152600783015460ff908116151560a080850191909152600885015460c085015260099094015491821660e0840152600160a01b90910416151561010090910152810151909150600090612d5f90426159ce565b6005549091506001811015612d865760405162461bcd60e51b8152600401610569906159fb565b60c0830151612d989062015180615a7b565b8210612db65760405162461bcd60e51b815260040161056990615a2b565b336000908152601560209081526040918290208054835181840281018401909452808452612e179392830182828015611276576020028201919060005260206000209081548152602001906001019080831161126257505050505085612bb8565b15612e345760405162461bcd60e51b815260040161056990615a9a565b6000858152601760209081526040918290208054835181840281018401909452808452612e949392830182828015611276576020028201919060005260206000209081548152602001906001019080831161126257505050505085612bb8565b15612eb15760405162461bcd60e51b815260040161056990615adc565b610100830151612ec49062015180615a7b565b8210612ee25760405162461bcd60e51b815260040161056990615b21565b6000868152600d60205260409020600181015415612f125760405162461bcd60e51b815260040161056990615ca7565b6115118888614a9c565b81816000600d6000838152602001908152602001600020604051806101600160405290816000820154815260200160018201548152602001600282018054612f6390615946565b80601f0160208091040260200160405190810160405280929190818152602001828054612f8f90615946565b8015612fdc5780601f10612fb157610100808354040283529160200191612fdc565b820191906000526020600020905b815481529060010190602001808311612fbf57829003601f168201915b505050918352505060038201546001600160a01b039081166020830152600483015460408301526005830154606083015260068301546080830152600783015460ff908116151560a080850191909152600885015460c085015260099094015491821660e0840152600160a01b9091041615156101009091015281015190915060009061306990426159ce565b60055490915060018110156130905760405162461bcd60e51b8152600401610569906159fb565b60c08301516130a29062015180615a7b565b82106130c05760405162461bcd60e51b815260040161056990615a2b565b3360009081526015602090815260409182902080548351818402810184019094528084526131219392830182828015611276576020028201919060005260206000209081548152602001906001019080831161126257505050505085612bb8565b1561313e5760405162461bcd60e51b815260040161056990615a9a565b600085815260176020908152604091829020805483518184028101840190945280845261319e9392830182828015611276576020028201919060005260206000209081548152602001906001019080831161126257505050505085612bb8565b156131bb5760405162461bcd60e51b815260040161056990615adc565b6101008301516131ce9062015180615a7b565b82106131ec5760405162461bcd60e51b815260040161056990615b21565b6000868152600d602052604090206001808201541480613210575080600101546004145b61322c5760405162461bcd60e51b815260040161056990615ca7565b6115118888614dd1565b81816000600d600083815260200190815260200160002060405180610160016040529081600082015481526020016001820154815260200160028201805461327d90615946565b80601f01602080910402602001604051908101604052809291908181526020018280546132a990615946565b80156132f65780601f106132cb576101008083540402835291602001916132f6565b820191906000526020600020905b8154815290600101906020018083116132d957829003601f168201915b505050918352505060038201546001600160a01b039081166020830152600483015460408301526005830154606083015260068301546080830152600783015460ff908116151560a080850191909152600885015460c085015260099094015491821660e0840152600160a01b9091041615156101009091015281015190915060009061338390426159ce565b60055490915060018110156133aa5760405162461bcd60e51b8152600401610569906159fb565b60c08301516133bc9062015180615a7b565b82106133da5760405162461bcd60e51b815260040161056990615a2b565b33600090815260156020908152604091829020805483518184028101840190945280845261343b9392830182828015611276576020028201919060005260206000209081548152602001906001019080831161126257505050505085612bb8565b156134585760405162461bcd60e51b815260040161056990615a9a565b60008581526017602090815260409182902080548351818402810184019094528084526134b89392830182828015611276576020028201919060005260206000209081548152602001906001019080831161126257505050505085612bb8565b156134d55760405162461bcd60e51b815260040161056990615adc565b6101008301516134e89062015180615a7b565b82106135065760405162461bcd60e51b815260040161056990615b21565b6000868152600d6020526040902060018101546002148061352b575080600101546005145b612f125760405162461bcd60e51b815260040161056990615ca7565b81816000600d600083815260200190815260200160002060405180610160016040529081600082015481526020016001820154815260200160028201805461358e90615946565b80601f01602080910402602001604051908101604052809291908181526020018280546135ba90615946565b80156136075780601f106135dc57610100808354040283529160200191613607565b820191906000526020600020905b8154815290600101906020018083116135ea57829003601f168201915b505050918352505060038201546001600160a01b039081166020830152600483015460408301526005830154606083015260068301546080830152600783015460ff908116151560a080850191909152600885015460c085015260099094015491821660e0840152600160a01b9091041615156101009091015281015190915060009061369490426159ce565b60055490915060018110156136bb5760405162461bcd60e51b8152600401610569906159fb565b60c08301516136cd9062015180615a7b565b82106136eb5760405162461bcd60e51b815260040161056990615a2b565b33600090815260156020908152604091829020805483518184028101840190945280845261374c9392830182828015611276576020028201919060005260206000209081548152602001906001019080831161126257505050505085612bb8565b156137695760405162461bcd60e51b815260040161056990615a9a565b60008581526017602090815260409182902080548351818402810184019094528084526137c99392830182828015611276576020028201919060005260206000209081548152602001906001019080831161126257505050505085612bb8565b156137e65760405162461bcd60e51b815260040161056990615adc565b6101008301516137f99062015180615a7b565b82106138175760405162461bcd60e51b815260040161056990615b21565b6000868152600d602052604090206001810154600314806132105750806001015460061461322c5760405162461bcd60e51b815260040161056990615ca7565b81816000600d600083815260200190815260200160002060405180610160016040529081600082015481526020016001820154815260200160028201805461389e90615946565b80601f01602080910402602001604051908101604052809291908181526020018280546138ca90615946565b80156139175780601f106138ec57610100808354040283529160200191613917565b820191906000526020600020905b8154815290600101906020018083116138fa57829003601f168201915b50505091835250506003828101546001600160a01b0390811660208085019190915260048501546040808601919091526005860154606086015260068601546080860152600786015460ff908116151560a0870152600887015460c087015260099096015492831660e0860152600160a01b9092048516151561010090940193909352336000908152601290935290912001549192501615156001146139cf5760405162461bcd60e51b815260040161056990615b58565b336000908152601660209081526040918290208054835181840281018401909452808452613a30939283018282801561185a576020028201919060005260206000209081548152602001906001019080831161184657505050505083612bb8565b15613a4d5760405162461bcd60e51b815260040161056990615b8f565b6000828152600d60205260409020548214613a7a5760405162461bcd60e51b815260040161056990615bd9565b60e081015115613a9c5760405162461bcd60e51b815260040161056990615c05565b6001600160a01b0383166000908152601060205260409020600101548214613ad65760405162461bcd60e51b815260040161056990615c31565b6000600d6000868152602001908152602001600020604051806101600160405290816000820154815260200160018201548152602001600282018054613b1b90615946565b80601f0160208091040260200160405190810160405280929190818152602001828054613b4790615946565b8015613b945780601f10613b6957610100808354040283529160200191613b94565b820191906000526020600020905b815481529060010190602001808311613b7757829003601f168201915b505050918352505060038201546001600160a01b039081166020830152600483015460408301526005830154606083015260068301546080830152600783015460ff908116151560a0840152600884015460c084015260099093015480821660e0840152600160a01b900490921615156101009091015287166101208201529050613c1f8682615076565b50613c298661512b565b505050505050565b81816000600d6000838152602001908152602001600020604051806101600160405290816000820154815260200160018201548152602001600282018054613c7890615946565b80601f0160208091040260200160405190810160405280929190818152602001828054613ca490615946565b8015613cf15780601f10613cc657610100808354040283529160200191613cf1565b820191906000526020600020905b815481529060010190602001808311613cd457829003601f168201915b50505091835250506003828101546001600160a01b0390811660208085019190915260048086015460408087019190915260058701546060808801919091526006880154608080890191909152600789015460ff908116151560a0808b019190915260088b015460c0808c01919091526009909b015480891660e0808d0191909152600160a01b909104831615156101009b8c0152336000908152601289528690208651918201875280548252600181810154909a169882019890985260028801549581019590955297860154808216151593850193909352978204881615159083018190526201000090910490961615159481019490945201549382019390935292935014613e375760405162461bcd60e51b81526020600482015260116024820152704e6f20566f74696e67205269676874732160781b6044820152606401610569565b3360009081526012602052604090206003015460ff161515600114613e6e5760405162461bcd60e51b815260040161056990615b58565b336000908152601660209081526040918290208054835181840281018401909452808452613ed19392830182828015613ec657602002820191906000526020600020905b815481526020019060010190808311613eb2575b505050505084612bb8565b15613eee5760405162461bcd60e51b815260040161056990615b8f565b6000838152600d60205260409020548314613f1b5760405162461bcd60e51b815260040161056990615bd9565b60e082015115613f3d5760405162461bcd60e51b815260040161056990615c05565b6001600160a01b0384166000908152601060205260409020600101548314613f775760405162461bcd60e51b815260040161056990615c31565b6000600d6000878152602001908152602001600020604051806101600160405290816000820154815260200160018201548152602001600282018054613fbc90615946565b80601f0160208091040260200160405190810160405280929190818152602001828054613fe890615946565b80156140355780601f1061400a57610100808354040283529160200191614035565b820191906000526020600020905b81548152906001019060200180831161401857829003601f168201915b505050918352505060038201546001600160a01b03908116602080840191909152600484015460408401526005840154606084015260068401546080840152600784015460ff908116151560a0850152600885015460c085015260099094015491821660e0840152600160a01b9091049092161515610100909101528101519091506001146140d65760405162461bcd60e51b815260040161056990615cd3565b6001600160a01b0387166101208201526140f08782615076565b50611b058761512b565b81816000600d600083815260200190815260200160002060405180610160016040529081600082015481526020016001820154815260200160028201805461414190615946565b80601f016020809104026020016040519081016040528092919081815260200182805461416d90615946565b80156141ba5780601f1061418f576101008083540402835291602001916141ba565b820191906000526020600020905b81548152906001019060200180831161419d57829003601f168201915b50505091835250506003828101546001600160a01b0390811660208085019190915260048501546040808601919091526005860154606086015260068601546080860152600786015460ff908116151560a0870152600887015460c087015260099096015492831660e0860152600160a01b9092048516151561010090940193909352336000908152601290935290912001549192501615156001146142725760405162461bcd60e51b815260040161056990615b58565b3360009081526016602090815260409182902080548351818402810184019094528084526142d3939283018282801561185a576020028201919060005260206000209081548152602001906001019080831161184657505050505083612bb8565b156142f05760405162461bcd60e51b815260040161056990615b8f565b6000828152600d6020526040902054821461431d5760405162461bcd60e51b815260040161056990615bd9565b60e08101511561433f5760405162461bcd60e51b815260040161056990615c05565b6001600160a01b03831660009081526010602052604090206001015482146143795760405162461bcd60e51b815260040161056990615c31565b6000600d60008681526020019081526020016000206040518061016001604052908160008201548152602001600182015481526020016002820180546143be90615946565b80601f01602080910402602001604051908101604052809291908181526020018280546143ea90615946565b80156144375780601f1061440c57610100808354040283529160200191614437565b820191906000526020600020905b81548152906001019060200180831161441a57829003601f168201915b505050918352505060038201546001600160a01b03908116602080840191909152600484015460408401526005840154606084015260068401546080840152600784015460ff908116151560a0850152600885015460c085015260099094015491821660e0840152600160a01b9091049092161515610100909101528101519091506002146144d85760405162461bcd60e51b815260040161056990615cd3565b6001600160a01b038616610120820152613c1f8682615076565b81816000600d600083815260200190815260200160002060405180610160016040529081600082015481526020016001820154815260200160028201805461453990615946565b80601f016020809104026020016040519081016040528092919081815260200182805461456590615946565b80156145b25780601f10614587576101008083540402835291602001916145b2565b820191906000526020600020905b81548152906001019060200180831161459557829003601f168201915b50505091835250506003828101546001600160a01b0390811660208085019190915260048086015460408087019190915260058701546060808801919091526006880154608080890191909152600789015460ff908116151560a0808b019190915260088b015460c0808c01919091526009909b015480891660e0808d0191909152600160a01b909104831615156101009b8c0152336000908152601289528690208651918201875280548252600181810154909a1698820198909852600288015495810195909552978601548082161515938501939093529782048816151590830181905262010000909104909616151594810194909452015493820193909352929350146146f85760405162461bcd60e51b81526020600482015260116024820152704e6f20566f74696e67205269676874732160781b6044820152606401610569565b3360009081526012602052604090206003015460ff16151560011461472f5760405162461bcd60e51b815260040161056990615b58565b3360009081526016602090815260409182902080548351818402810184019094528084526147909392830182828015613ec65760200282019190600052602060002090815481526020019060010190808311613eb257505050505084612bb8565b156147ad5760405162461bcd60e51b815260040161056990615b8f565b6000838152600d602052604090205483146147da5760405162461bcd60e51b815260040161056990615bd9565b60e0820151156147fc5760405162461bcd60e51b815260040161056990615c05565b6001600160a01b03841660009081526010602052604090206001015483146148365760405162461bcd60e51b815260040161056990615c31565b6000600d600087815260200190815260200160002060405180610160016040529081600082015481526020016001820154815260200160028201805461487b90615946565b80601f01602080910402602001604051908101604052809291908181526020018280546148a790615946565b80156148f45780601f106148c9576101008083540402835291602001916148f4565b820191906000526020600020905b8154815290600101906020018083116148d757829003601f168201915b50505091835250506003828101546001600160a01b03908116602080850191909152600485015460408501526005850154606085015260068501546080850152600785015460ff908116151560a0860152600886015460c086015260099095015491821660e0850152600160a01b90910490931615156101009092019190915290820151919250146140d65760405162461bcd60e51b815260040161056990615cd3565b600080546001600160a01b038381166201000081810262010000600160b01b0319851617855560405193049190911692909183917f8be0079c531659141344cd1fd0a4f28419497f9722a3daafe3b4186f6b6457e091a35050565b600054610100900460ff16614a5e5760405162461bcd60e51b815260206004820152602b60248201527f496e697469616c697a61626c653a20636f6e7472616374206973206e6f74206960448201526a6e697469616c697a696e6760a81b6064820152608401610569565b60646002556103e8600355614a716151ab565b60005460018054620100009092046001600160a01b03166001600160a01b0319909216919091179055565b6000818152600d60209081526040808320600f835281842080546001810182559085528385200180546001600160a01b0319163317905581519283018690529291016040516020818303038152906040528051906020012090508060136000336001600160a01b03166001600160a01b031681526020019081526020016000208190555060006040518060e0016040528084600401548152602001336001600160a01b031681526020018581526020016001151581526020016001151581526020016000151581526020018381525090508060126000336001600160a01b03166001600160a01b031681526020019081526020016000206000820151816000015560208201518160010160006101000a8154816001600160a01b0302191690836001600160a01b031602179055506040820151816002015560608201518160030160006101000a81548160ff02191690831515021790555060808201518160030160016101000a81548160ff02191690831515021790555060a08201518160030160026101000a81548160ff02191690831515021790555060c0820151816004015590505060068190806001815401808255809150506001900390600052602060002090600502016000909190919091506000820151816000015560208201518160010160006101000a8154816001600160a01b0302191690836001600160a01b031602179055506040820151816002015560608201518160030160006101000a81548160ff02191690831515021790555060808201518160030160016101000a81548160ff02191690831515021790555060a08201518160030160026101000a81548160ff02191690831515021790555060c082015181600401555050600d60008581526020019081526020016000206004016000815480929190614d4190615c8c565b9091555050600085815260146020908152604080832080546001600160a01b0319163390811790915583526015825280832080546001818101835591855283852001889055888452601783528184208054918201815584529190922001859055517fd850a8248df1456f35b1b26db099385cb363335bb60a8e99294bc1012426787190610bd09084815260200190565b6000818152600d60209081526040808320600f835281842080546001810182559085528385200180546001600160a01b0319163317905581519283018690529291016040516020818303038152906040528051906020012090508060136000336001600160a01b03166001600160a01b031681526020019081526020016000208190555060006040518060e0016040528084600401548152602001336001600160a01b031681526020018581526020016001151581526020016000151581526020016000151581526020018381525090508060126000336001600160a01b03166001600160a01b031681526020019081526020016000206000820151816000015560208201518160010160006101000a8154816001600160a01b0302191690836001600160a01b031602179055506040820151816002015560608201518160030160006101000a81548160ff02191690831515021790555060808201518160030160016101000a81548160ff02191690831515021790555060a08201518160030160026101000a81548160ff02191690831515021790555060c0820151816004015590505060068190806001815401808255809150506001900390600052602060002090600502016000909190919091506000820151816000015560208201518160010160006101000a8154816001600160a01b0302191690836001600160a01b031602179055506040820151816002015560608201518160030160006101000a81548160ff02191690831515021790555060808201518160030160016101000a81548160ff02191690831515021790555060a08201518160030160026101000a81548160ff02191690831515021790555060c082015181600401555050600d60008581526020019081526020016000206004016000815480929190614d4190615c8c565b6101208101516001600160a01b03908116600090815260106020526040808220600390810154938616835290822001549091906150b4906001615c74565b11156150d7576001600160a01b0383166101208301526000610140830152615120565b6101208201516001600160a01b03908116600090815260106020526040808220600390810154938716835291200154615111906001615c74565b14156151205760016101408301525b506101400151919050565b6001600160a01b038116600090815260106020526040812060030180549161515283615c8c565b909155505033600090815260126020526040808220600301805462ff0000191662010000179055516001600160a01b038316917faec2ccae8681fd01ad220ecb7e9b5f7d485b1cc3cc01599acb1578016b30a6bd91a250565b6040805180820190915260098152686f70656e2d6672656560b81b602080830191825260008052600490529051615203917f17ef568e3e12ab5b9c7254a8d58478811de00f9e6eb34345acd53bf8fd09d3ec91615438565b5060408051808201909152600b81526a636c6f7365642d6672656560a81b6020808301918252600160005260049052905161525f917fabd6e7cb50984ff9c2f3e18a2660c3353dadf4e3291deeb275dae2cd1e44fe0591615438565b506040805180820190915260098152681bdc195b8b5c185a5960ba1b602080830191825260026000526004905290516152b9917f91da3fd0782e51c6b3986e9e672fd566868e71f3dbc2d6c2cd6fbb3e361af2a791615438565b5060408051808201909152600b81526a18db1bdcd9590b5c185a5960aa1b60208083019182526003600052600490529051615315917f2e174c10e159ea99b867ce3205125c24a42d128804e4070ed6fcc8cc98166aa091615438565b5060408051808201909152601281527118db1bdcd9590b599c99594b5cd958dc995d60721b60208083019182526004600081905290529051615378917f1a1e6821cde7d0159c0d293177871e09677b4e42307c7db3ba94f8648a5a050f91615438565b5060408051808201909152601081526f1bdc195b8b5c185a590b5cd958dc995d60821b602080830191825260056000526004905290516153d9917f04cde762ef08b6b6c5ded8e8c4c0b3f4e5c9ad7342c88fcc93681b4588b73f0591615438565b5060408051808201909152601281527118db1bdcd9590b5c185a590b5cd958dc995d60721b60208083019182526006600052600490529051611077917fc59312466997bb42aaaf719ece141047820e6b34531e1670dc1852a453648f0f915b82805461544490615946565b90600052602060002090601f01602090048101928261546657600085556154ac565b82601f1061547f57805160ff19168380011785556154ac565b828001600101855582156154ac579182015b828111156154ac578251825591602001919060010190615491565b506154b8929150615511565b5090565b8280548282559060005260206000209081019282156154ac579160200282015b828111156154ac57825182546001600160a01b0319166001600160a01b039091161782556020909201916001909101906154dc565b5b808211156154b85760008155600101615512565b60006020828403121561553857600080fd5b5035919050565b80356001600160a01b038116811461555657600080fd5b919050565b6000806040838503121561556e57600080fd5b6155778361553f565b946020939093013593505050565b6020808252825182820181905260009190848201906040850190845b818110156155c65783516001600160a01b0316835292840192918401916001016155a1565b50909695505050505050565b600080604083850312156155e557600080fd5b50508035926020909101359150565b6000815180845260005b8181101561561a576020818501810151868301820152016155fe565b8181111561562c576000602083870101525b50601f01601f19169290920160200192915050565b602081528151602082015260208201516040820152600060408301516101608060608501526156746101808501836155f4565b9150606085015161569060808601826001600160a01b03169052565b50608085015160a085015260a085015160c085015260c085015160e085015260e08501516101006156c48187018315159052565b8601516101208681019190915286015190506101406156ed818701836001600160a01b03169052565b90950151151593019290925250919050565b60006020828403121561571157600080fd5b61571a8261553f565b9392505050565b634e487b7160e01b600052604160045260246000fd5b604051601f8201601f1916810167ffffffffffffffff8111828210171561576057615760615721565b604052919050565b600082601f83011261577957600080fd5b813567ffffffffffffffff81111561579357615793615721565b6157a6601f8201601f1916602001615737565b8181528460208386010111156157bb57600080fd5b816020850160208301376000918101602001919091529392505050565b600080604083850312156157eb57600080fd5b82359150602083013567ffffffffffffffff81111561580957600080fd5b61581585828601615768565b9150509250929050565b600080600080600060a0868803121561583757600080fd5b853567ffffffffffffffff8082111561584f57600080fd5b61585b89838a01615768565b965060209150818801358181111561587257600080fd5b8801601f81018a1361588357600080fd5b80358281111561589557615895615721565b8060051b92506158a6848401615737565b818152928201840192848101908c8511156158c057600080fd5b928501925b848410156158e5576158d68461553f565b825292850192908501906158c5565b999c999b505050506040880135976060810135976080909101359650945050505050565b60006020828403121561591b57600080fd5b813567ffffffffffffffff81111561593257600080fd5b61593e84828501615768565b949350505050565b600181811c9082168061595a57607f821691505b6020821081141561597b57634e487b7160e01b600052602260045260246000fd5b50919050565b60208082526018908201527f546869732069732061205365637265742042616c6c6f74210000000000000000604082015260600190565b634e487b7160e01b600052601160045260246000fd5b6000828210156159e0576159e06159b8565b500390565b634e487b7160e01b600052603260045260246000fd5b6020808252601690820152754e6f20737563682042616c6c6f74204578697374732160501b604082015260600190565b602080825260149082015273546869732042616c6c6f7420457870697265642160601b604082015260600190565b600082615a7657634e487b7160e01b600052601260045260246000fd5b500490565b6000816000190483118215151615615a9557615a956159b8565b500290565b60208082526022908201527f596f7520617265205265676973746572656420696e20746869732042616c6c6f604082015261742160f01b606082015260800190565b60208082526025908201527f596f7572204944206973205265676973746572656420696e20746869732042616040820152646c6c6f742160d81b606082015260800190565b6020808252601f908201527f526567697374726174696f6e20506572696f6420686173205061737365642100604082015260600190565b60208082526018908201527f506c6561736520526567697374657220746f20566f7465210000000000000000604082015260600190565b6020808252602a908201527f596f7520616c7265616479204341535420796f757220566f746520696e20546860408201526969732042616c6c6f742160b01b606082015260800190565b602080825260129082015271496e76616c69642042616c6c6f742049642160701b604082015260600190565b60208082526012908201527110985b1b1bdd081a185cc8115e1c1a5c995960721b604082015260600190565b60208082526023908201527f43616e64696461746520646f6573206e6f7420657869737420696e2042616c6c6040820152626f742160e81b606082015260800190565b60008219821115615c8757615c876159b8565b500190565b6000600019821415615ca057615ca06159b8565b5060010190565b60208082526012908201527157726f6e672062616c6c6f7420547970652160701b604082015260600190565b60208082526012908201527157726f6e672042616c6c6f7420547970652160701b60408201526060019056fea26469706673582212201e3f63f61054ed337cf5cf3cf5abf5b85304b2371ce48ee202027f437783e53964736f6c63430008080033","bytecodeSha1":"460d3eb5d178cf05c8094860e654faeda9abd9ec","type":"contract","abi":[{"anonymous":false,"inputs":[{"indexed":false,"internalType":"uint8","name":"version","type":"uint8"}],"name":"Initialized","type":"event"},{"anonymous":false,"inputs":[{"indexed":true,"internalType":"address","name":"previousOwner","type":"address"},{"indexed":true,"internalType":"address","name":"newOwner","type":"address"}],"name":"OwnershipTransferred","type":"event"},{"anonymous":false,"inputs":[{"indexed":false,"internalType":"address","name":"_voter","type":"address"}],"name":"assigned_voting_rights","type":"event"},{"anonymous":false,"inputs":[{"indexed":false,"internalType":"uint256","name":"_ballot_type","type":"uint256"}],"name":"created_ballot","type":"event"},{"anonymous":false,"inputs":[{"indexed":false,"internalType":"uint256","name":"_ballot_id","type":"uint256"}],"name":"ended_ballot","type":"event"},{"anonymous":false,"inputs":[{"indexed":false,"internalType":"bytes32","name":"_voter_unique_id","type":"bytes32"}],"name":"registered_voter","type":"event"},{"anonymous":false,"inputs":[{"indexed":false,"internalType":"bool","name":"_tie","type":"bool"}],"name":"tied_ballot","type":"event"},{"anonymous":false,"inputs":[{"indexed":true,"internalType":"address","name":"_candidate","type":"address"}],"name":"voted","type":"event"},{"inputs":[{"internalType":"address","name":"_voter","type":"address"},{"internalType":"uint256","name":"_ballot_id","type":"uint256"}],"name":"assign_voting_rights","outputs":[],"stateMutability":"nonpayable","type":"function"},{"inputs":[{"internalType":"string","name":"_ballot_name","type":"string"},{"internalType":"address[]","name":"_ballot_candidates_addr","type":"address[]"},{"internalType":"uint256","name":"_ballot_type","type":"uint256"},{"internalType":"uint256","name":"_days","type":"uint256"},{"internalType":"uint256","name":"_registration_period","type":"uint256"}],"name":"create_ballot","outputs":[],"stateMutability":"payable","type":"function"},{"inputs":[{"internalType":"uint256","name":"_ballot_type","type":"uint256"},{"internalType":"string","name":"_ballot_name","type":"string"}],"name":"create_ballot_type","outputs":[],"stateMutability":"nonpayable","type":"function"},{"inputs":[{"internalType":"uint256","name":"_ballot_id","type":"uint256"}],"name":"end_ballot","outputs":[],"stateMutability":"nonpayable","type":"function"},{"inputs":[{"internalType":"uint256","name":"_ballot_id","type":"uint256"}],"name":"get_ballot","outputs":[{"components":[{"internalType":"uint256","name":"ballot_id","type":"uint256"},{"internalType":"uint256","name":"ballot_type","type":"uint256"},{"internalType":"string","name":"ballot_name","type":"string"},{"internalType":"address","name":"chair","type":"address"},{"internalType":"uint256","name":"voters_count","type":"uint256"},{"internalType":"uint256","name":"open_date","type":"uint256"},{"internalType":"uint256","name":"_days","type":"uint256"},{"internalType":"bool","name":"expired","type":"bool"},{"internalType":"uint256","name":"registration_window","type":"uint256"},{"internalType":"address","name":"current_winner","type":"address"},{"internalType":"bool","name":"tie","type":"bool"}],"internalType":"struct IJamiiFactory.Ballot","name":"","type":"tuple"}],"stateMutability":"view","type":"function"},{"inputs":[{"internalType":"uint256","name":"_ballot_id","type":"uint256"}],"name":"get_ballot_owner","outputs":[{"internalType":"address","name":"","type":"address"}],"stateMutability":"view","type":"function"},{"inputs":[{"internalType":"address","name":"_candidate_addr","type":"address"}],"name":"get_candidate","outputs":[{"components":[{"internalType":"uint256","name":"candidate_id","type":"uint256"},{"internalType":"uint256","name":"ballot_id","type":"uint256"},{"internalType":"address","name":"candidate_address","type":"address"},{"internalType":"uint256","name":"vote_count","type":"uint256"}],"internalType":"struct IJamiiFactory.Candidate","name":"","type":"tuple"}],"stateMutability":"view","type":"function"},{"inputs":[{"internalType":"uint256","name":"_ballot_id","type":"uint256"}],"name":"get_candidates","outputs":[{"internalType":"address[]","name":"","type":"address[]"}],"stateMutability":"view","type":"function"},{"inputs":[{"internalType":"address","name":"_voter_address","type":"address"},{"internalType":"uint256","name":"_ballot_id","type":"uint256"}],"name":"get_voter","outputs":[{"components":[{"internalType":"uint256","name":"voter_id","type":"uint256"},{"internalType":"address","name":"voter_address","type":"address"},{"internalType":"uint256","name":"ballot_id","type":"uint256"},{"internalType":"bool","name":"registered","type":"bool"},{"internalType":"bool","name":"rights","type":"bool"},{"internalType":"bool","name":"voted","type":"bool"},{"internalType":"bytes32","name":"unique_voter_id","type":"bytes32"}],"internalType":"struct IJamiiFactory.Voter","name":"","type":"tuple"}],"stateMutability":"view","type":"function"},{"inputs":[{"internalType":"uint256","name":"_ballot_id","type":"uint256"}],"name":"get_voters","outputs":[{"internalType":"address[]","name":"","type":"address[]"}],"stateMutability":"view","type":"function"},{"inputs":[{"internalType":"uint256","name":"_ballot_id","type":"uint256"}],"name":"get_winner","outputs":[{"internalType":"address","name":"","type":"address"}],"stateMutability":"nonpayable","type":"function"},{"inputs":[{"internalType":"string","name":"_arbitrary_text","type":"string"}],"name":"initialize","outputs":[],"stateMutability":"nonpayable","type":"function"},{"inputs":[],"name":"owner","outputs":[{"internalType":"address","name":"","type":"address"}],"stateMutability":"view","type":"function"},{"inputs":[{"internalType":"uint256","name":"_id_number","type":"uint256"},{"internalType":"uint256","name":"_ballot_id","type":"uint256"}],"name":"register_voter","outputs":[],"stateMutability":"nonpayable","type":"function"},{"inputs":[],"name":"renounceOwnership","outputs":[],"stateMutability":"nonpayable","type":"function"},{"inputs":[{"internalType":"address","name":"newOwner","type":"address"}],"name":"transferOwnership","outputs":[],"stateMutability":"nonpayable","type":"function"},{"inputs":[{"internalType":"address","name":"_candidate","type":"address"},{"internalType":"uint256","name":"_ballot_id","type":"uint256"}],"name":"vote","outputs":[],"stateMutability":"nonpayable","type":"function"},{"inputs":[],"name":"withdraw","outputs":[],"stateMutability":"nonpayable","type":"function"}],"compiler":{"version":"0.8.8+commit.dddeac2f","evm_version":"istanbul","optimizer":{"enabled":true,"runs":200}},"contractName":"JamiiFactory","language":"Solidity","natspec":{"methods":{"owner()":{"details":"Returns the address of the current owner."},"renounceOwnership()":{"details":"Leaves the contract without owner. It will not be possible to call `onlyOwner` functions anymore. Can only be called by the current owner. NOTE: Renouncing ownership will leave the contract without an owner, thereby removing any functionality that is only available to the owner."},"transferOwnership(address)":{"details":"Transfers ownership of the contract to a new account (`newOwner`). Can only be called by the current owner."},"assign_voting_rights(address,uint256)":{"notice":"VOTING RIGHTS *"},"get_ballot_owner(uint256)":{"notice":"GETTERS *"}},"kind":"dev","version":1},"opcodes":"PUSH1 0x80 PUSH1 0x40 MSTORE PUSH1 0x4 CALLDATASIZE LT PUSH2 0x109 JUMPI PUSH1 0x0 CALLDATALOAD PUSH1 0xE0 SHR DUP1 PUSH4 0x715018A6 GT PUSH2 0x95 JUMPI DUP1 PUSH4 0xADBDBC97 GT PUSH2 0x64 JUMPI DUP1 PUSH4 0xADBDBC97 EQ PUSH2 0x371 JUMPI DUP1 PUSH4 0xDCFC1380 EQ PUSH2 0x391 JUMPI DUP1 PUSH4 0xE8873B8F EQ PUSH2 0x3A4 JUMPI DUP1 PUSH4 0xF2FDE38B EQ PUSH2 0x3C4 JUMPI DUP1 PUSH4 0xF62D1888 EQ PUSH2 0x3E4 JUMPI PUSH1 0x0 DUP1 REVERT JUMPDEST DUP1 PUSH4 0x715018A6 EQ PUSH2 0x2AF JUMPI DUP1 PUSH4 0x8987076B EQ PUSH2 0x2C4 JUMPI DUP1 PUSH4 0x8DA5CB5B EQ PUSH2 0x2F1 JUMPI DUP1 PUSH4 0x953EF76D EQ PUSH2 0x315 JUMPI PUSH1 0x0 DUP1 REVERT JUMPDEST DUP1 PUSH4 0x243DC409 GT PUSH2 0xDC JUMPI DUP1 PUSH4 0x243DC409 EQ PUSH2 0x21A JUMPI DUP1 PUSH4 0x3CCFD60B EQ PUSH2 0x23A JUMPI DUP1 PUSH4 0x514D7D66 EQ PUSH2 0x24F JUMPI DUP1 PUSH4 0x5B881F6B EQ PUSH2 0x26F JUMPI DUP1 PUSH4 0x5F74BBDE EQ PUSH2 0x28F JUMPI PUSH1 0x0 DUP1 REVERT JUMPDEST DUP1 PUSH4 0x40DE0C5 EQ PUSH2 0x10E JUMPI DUP1 PUSH4 0x91CB18A EQ PUSH2 0x14B JUMPI DUP1 PUSH4 0x112819BD EQ PUSH2 0x1CB JUMPI DUP1 PUSH4 0x133E59AA EQ PUSH2 0x1ED JUMPI JUMPDEST PUSH1 0x0 DUP1 REVERT JUMPDEST CALLVALUE DUP1 ISZERO PUSH2 0x11A JUMPI PUSH1 0x0 DUP1 REVERT JUMPDEST POP PUSH2 0x12E PUSH2 0x129 CALLDATASIZE PUSH1 0x4 PUSH2 0x5526 JUMP JUMPDEST PUSH2 0x404 JUMP JUMPDEST PUSH1 0x40 MLOAD PUSH1 0x1 PUSH1 0x1 PUSH1 0xA0 SHL SUB SWAP1 SWAP2 AND DUP2 MSTORE PUSH1 0x20 ADD JUMPDEST PUSH1 0x40 MLOAD DUP1 SWAP2 SUB SWAP1 RETURN JUMPDEST CALLVALUE DUP1 ISZERO PUSH2 0x157 JUMPI PUSH1 0x0 DUP1 REVERT JUMPDEST POP PUSH2 0x16B PUSH2 0x166 CALLDATASIZE PUSH1 0x4 PUSH2 0x555B JUMP JUMPDEST PUSH2 0x597 JUMP JUMPDEST PUSH1 0x40 MLOAD PUSH2 0x142 SWAP2 SWAP1 DUP2 MLOAD DUP2 MSTORE PUSH1 0x20 DUP1 DUP4 ADD MLOAD PUSH1 0x1 PUSH1 0x1 PUSH1 0xA0 SHL SUB AND SWAP1 DUP3 ADD MSTORE PUSH1 0x40 DUP1 DUP4 ADD MLOAD SWAP1 DUP3 ADD MSTORE PUSH1 0x60 DUP1 DUP4 ADD MLOAD ISZERO ISZERO SWAP1 DUP3 ADD MSTORE PUSH1 0x80 DUP1 DUP4 ADD MLOAD ISZERO ISZERO SWAP1 DUP3 ADD MSTORE PUSH1 0xA0 DUP1 DUP4 ADD MLOAD ISZERO ISZERO SWAP1 DUP3 ADD MSTORE PUSH1 0xC0 SWAP2 DUP3 ADD MLOAD SWAP2 DUP2 ADD SWAP2 SWAP1 SWAP2 MSTORE PUSH1 0xE0 ADD SWAP1 JUMP JUMPDEST CALLVALUE DUP1 ISZERO PUSH2 0x1D7 JUMPI PUSH1 0x0 DUP1 REVERT JUMPDEST POP PUSH2 0x1EB PUSH2 0x1E6 CALLDATASIZE PUSH1 0x4 PUSH2 0x555B JUMP JUMPDEST PUSH2 0x7AA JUMP JUMPDEST STOP JUMPDEST CALLVALUE DUP1 ISZERO PUSH2 0x1F9 JUMPI PUSH1 0x0 DUP1 REVERT JUMPDEST POP PUSH2 0x20D PUSH2 0x208 CALLDATASIZE PUSH1 0x4 PUSH2 0x5526 JUMP JUMPDEST PUSH2 0xBDF JUMP JUMPDEST PUSH1 0x40 MLOAD PUSH2 0x142 SWAP2 SWAP1 PUSH2 0x5585 JUMP JUMPDEST CALLVALUE DUP1 ISZERO PUSH2 0x226 JUMPI PUSH1 0x0 DUP1 REVERT JUMPDEST POP PUSH2 0x12E PUSH2 0x235 CALLDATASIZE PUSH1 0x4 PUSH2 0x5526 JUMP JUMPDEST PUSH2 0xC4B JUMP JUMPDEST CALLVALUE DUP1 ISZERO PUSH2 0x246 JUMPI PUSH1 0x0 DUP1 REVERT JUMPDEST POP PUSH2 0x1EB PUSH2 0x1036 JUMP JUMPDEST CALLVALUE DUP1 ISZERO PUSH2 0x25B JUMPI PUSH1 0x0 DUP1 REVERT JUMPDEST POP PUSH2 0x1EB PUSH2 0x26A CALLDATASIZE PUSH1 0x4 PUSH2 0x55D2 JUMP JUMPDEST PUSH2 0x107A JUMP JUMPDEST CALLVALUE DUP1 ISZERO PUSH2 0x27B JUMPI PUSH1 0x0 DUP1 REVERT JUMPDEST POP PUSH2 0x1EB PUSH2 0x28A CALLDATASIZE PUSH1 0x4 PUSH2 0x5526 JUMP JUMPDEST PUSH2 0x151B JUMP JUMPDEST CALLVALUE DUP1 ISZERO PUSH2 0x29B JUMPI PUSH1 0x0 DUP1 REVERT JUMPDEST POP PUSH2 0x1EB PUSH2 0x2AA CALLDATASIZE PUSH1 0x4 PUSH2 0x555B JUMP JUMPDEST PUSH2 0x168A JUMP JUMPDEST CALLVALUE DUP1 ISZERO PUSH2 0x2BB JUMPI PUSH1 0x0 DUP1 REVERT JUMPDEST POP PUSH2 0x1EB PUSH2 0x1B0E JUMP JUMPDEST CALLVALUE DUP1 ISZERO PUSH2 0x2D0 JUMPI PUSH1 0x0 DUP1 REVERT JUMPDEST POP PUSH2 0x2E4 PUSH2 0x2DF CALLDATASIZE PUSH1 0x4 PUSH2 0x5526 JUMP JUMPDEST PUSH2 0x1B22 JUMP JUMPDEST PUSH1 0x40 MLOAD PUSH2 0x142 SWAP2 SWAP1 PUSH2 0x5641 JUMP JUMPDEST CALLVALUE DUP1 ISZERO PUSH2 0x2FD JUMPI PUSH1 0x0 DUP1 REVERT JUMPDEST POP PUSH1 0x0 SLOAD PUSH3 0x10000 SWAP1 DIV PUSH1 0x1 PUSH1 0x1 PUSH1 0xA0 SHL SUB AND PUSH2 0x12E JUMP JUMPDEST CALLVALUE DUP1 ISZERO PUSH2 0x321 JUMPI PUSH1 0x0 DUP1 REVERT JUMPDEST POP PUSH2 0x335 PUSH2 0x330 CALLDATASIZE PUSH1 0x4 PUSH2 0x56FF JUMP JUMPDEST PUSH2 0x1E33 JUMP JUMPDEST PUSH1 0x40 MLOAD PUSH2 0x142 SWAP2 SWAP1 DUP2 MLOAD DUP2 MSTORE PUSH1 0x20 DUP1 DUP4 ADD MLOAD SWAP1 DUP3 ADD MSTORE PUSH1 0x40 DUP1 DUP4 ADD MLOAD PUSH1 0x1 PUSH1 0x1 PUSH1 0xA0 SHL SUB AND SWAP1 DUP3 ADD MSTORE PUSH1 0x60 SWAP2 DUP3 ADD MLOAD SWAP2 DUP2 ADD SWAP2 SWAP1 SWAP2 MSTORE PUSH1 0x80 ADD SWAP1 JUMP JUMPDEST CALLVALUE DUP1 ISZERO PUSH2 0x37D JUMPI PUSH1 0x0 DUP1 REVERT JUMPDEST POP PUSH2 0x1EB PUSH2 0x38C CALLDATASIZE PUSH1 0x4 PUSH2 0x57D8 JUMP JUMPDEST PUSH2 0x2072 JUMP JUMPDEST PUSH2 0x1EB PUSH2 0x39F CALLDATASIZE PUSH1 0x4 PUSH2 0x581F JUMP JUMPDEST PUSH2 0x212E JUMP JUMPDEST CALLVALUE DUP1 ISZERO PUSH2 0x3B0 JUMPI PUSH1 0x0 DUP1 REVERT JUMPDEST POP PUSH2 0x20D PUSH2 0x3BF CALLDATASIZE PUSH1 0x4 PUSH2 0x5526 JUMP JUMPDEST PUSH2 0x27FE JUMP JUMPDEST CALLVALUE DUP1 ISZERO PUSH2 0x3D0 JUMPI PUSH1 0x0 DUP1 REVERT JUMPDEST POP PUSH2 0x1EB PUSH2 0x3DF CALLDATASIZE PUSH1 0x4 PUSH2 0x56FF JUMP JUMPDEST PUSH2 0x29CF JUMP JUMPDEST CALLVALUE DUP1 ISZERO PUSH2 0x3F0 JUMPI PUSH1 0x0 DUP1 REVERT JUMPDEST POP PUSH2 0x1EB PUSH2 0x3FF CALLDATASIZE PUSH1 0x4 PUSH2 0x5909 JUMP JUMPDEST PUSH2 0x2A45 JUMP JUMPDEST PUSH1 0x0 DUP2 PUSH1 0x0 PUSH1 0xD PUSH1 0x0 DUP4 DUP2 MSTORE PUSH1 0x20 ADD SWAP1 DUP2 MSTORE PUSH1 0x20 ADD PUSH1 0x0 KECCAK256 PUSH1 0x40 MLOAD DUP1 PUSH2 0x160 ADD PUSH1 0x40 MSTORE SWAP1 DUP2 PUSH1 0x0 DUP3 ADD SLOAD DUP2 MSTORE PUSH1 0x20 ADD PUSH1 0x1 DUP3 ADD SLOAD DUP2 MSTORE PUSH1 0x20 ADD PUSH1 0x2 DUP3 ADD DUP1 SLOAD PUSH2 0x44C SWAP1 PUSH2 0x5946 JUMP JUMPDEST DUP1 PUSH1 0x1F ADD PUSH1 0x20 DUP1 SWAP2 DIV MUL PUSH1 0x20 ADD PUSH1 0x40 MLOAD SWAP1 DUP2 ADD PUSH1 0x40 MSTORE DUP1 SWAP3 SWAP2 SWAP1 DUP2 DUP2 MSTORE PUSH1 0x20 ADD DUP3 DUP1 SLOAD PUSH2 0x478 SWAP1 PUSH2 0x5946 JUMP JUMPDEST DUP1 ISZERO PUSH2 0x4C5 JUMPI DUP1 PUSH1 0x1F LT PUSH2 0x49A JUMPI PUSH2 0x100 DUP1 DUP4 SLOAD DIV MUL DUP4 MSTORE SWAP2 PUSH1 0x20 ADD SWAP2 PUSH2 0x4C5 JUMP JUMPDEST DUP3 ADD SWAP2 SWAP1 PUSH1 0x0 MSTORE PUSH1 0x20 PUSH1 0x0 KECCAK256 SWAP1 JUMPDEST DUP2 SLOAD DUP2 MSTORE SWAP1 PUSH1 0x1 ADD SWAP1 PUSH1 0x20 ADD DUP1 DUP4 GT PUSH2 0x4A8 JUMPI DUP3 SWAP1 SUB PUSH1 0x1F AND DUP3 ADD SWAP2 JUMPDEST POP POP POP SWAP2 DUP4 MSTORE POP POP PUSH1 0x3 DUP3 ADD SLOAD PUSH1 0x1 PUSH1 0x1 PUSH1 0xA0 SHL SUB SWAP1 DUP2 AND PUSH1 0x20 DUP1 DUP5 ADD SWAP2 SWAP1 SWAP2 MSTORE PUSH1 0x4 DUP1 DUP6 ADD SLOAD PUSH1 0x40 DUP6 ADD MSTORE PUSH1 0x5 DUP6 ADD SLOAD PUSH1 0x60 DUP6 ADD MSTORE PUSH1 0x6 DUP6 ADD SLOAD PUSH1 0x80 DUP6 ADD MSTORE PUSH1 0x7 DUP6 ADD SLOAD PUSH1 0xFF SWAP1 DUP2 AND ISZERO ISZERO PUSH1 0xA0 DUP7 ADD MSTORE PUSH1 0x8 DUP7 ADD SLOAD PUSH1 0xC0 DUP7 ADD MSTORE PUSH1 0x9 SWAP1 SWAP6 ADD SLOAD SWAP3 DUP4 AND PUSH1 0xE0 DUP6 ADD MSTORE PUSH1 0x1 PUSH1 0xA0 SHL SWAP1 SWAP3 DIV SWAP1 SWAP4 AND ISZERO ISZERO PUSH2 0x100 SWAP1 SWAP3 ADD SWAP2 SWAP1 SWAP2 MSTORE SWAP1 DUP3 ADD MLOAD SWAP2 SWAP3 POP GT PUSH2 0x572 JUMPI PUSH1 0x40 MLOAD PUSH3 0x461BCD PUSH1 0xE5 SHL DUP2 MSTORE PUSH1 0x4 ADD PUSH2 0x569 SWAP1 PUSH2 0x5981 JUMP JUMPDEST PUSH1 0x40 MLOAD DUP1 SWAP2 SUB SWAP1 REVERT JUMPDEST PUSH1 0x0 DUP5 DUP2 MSTORE PUSH1 0xD PUSH1 0x20 MSTORE PUSH1 0x40 SWAP1 KECCAK256 PUSH1 0x3 ADD SLOAD PUSH1 0x1 PUSH1 0x1 PUSH1 0xA0 SHL SUB AND SWAP3 POP JUMPDEST POP POP SWAP2 SWAP1 POP JUMP JUMPDEST PUSH1 0x40 DUP1 MLOAD PUSH1 0xE0 DUP2 ADD DUP3 MSTORE PUSH1 0x0 DUP1 DUP3 MSTORE PUSH1 0x20 DUP1 DUP4 ADD DUP3 SWAP1 MSTORE DUP3 DUP5 ADD DUP3 SWAP1 MSTORE PUSH1 0x60 DUP4 ADD DUP3 SWAP1 MSTORE PUSH1 0x80 DUP4 ADD DUP3 SWAP1 MSTORE PUSH1 0xA0 DUP4 ADD DUP3 SWAP1 MSTORE PUSH1 0xC0 DUP4 ADD DUP3 SWAP1 MSTORE DUP5 DUP3 MSTORE PUSH1 0xD DUP2 MSTORE DUP4 DUP3 KECCAK256 DUP5 MLOAD PUSH2 0x160 DUP2 ADD DUP7 MSTORE DUP2 SLOAD DUP2 MSTORE PUSH1 0x1 DUP3 ADD SLOAD SWAP3 DUP2 ADD SWAP3 SWAP1 SWAP3 MSTORE PUSH1 0x2 DUP2 ADD DUP1 SLOAD SWAP5 SWAP6 DUP8 SWAP6 SWAP1 DUP5 ADD SWAP2 SWAP1 PUSH2 0x60B SWAP1 PUSH2 0x5946 JUMP JUMPDEST DUP1 PUSH1 0x1F ADD PUSH1 0x20 DUP1 SWAP2 DIV MUL PUSH1 0x20 ADD PUSH1 0x40 MLOAD SWAP1 DUP2 ADD PUSH1 0x40 MSTORE DUP1 SWAP3 SWAP2 SWAP1 DUP2 DUP2 MSTORE PUSH1 0x20 ADD DUP3 DUP1 SLOAD PUSH2 0x637 SWAP1 PUSH2 0x5946 JUMP JUMPDEST DUP1 ISZERO PUSH2 0x684 JUMPI DUP1 PUSH1 0x1F LT PUSH2 0x659 JUMPI PUSH2 0x100 DUP1 DUP4 SLOAD DIV MUL DUP4 MSTORE SWAP2 PUSH1 0x20 ADD SWAP2 PUSH2 0x684 JUMP JUMPDEST DUP3 ADD SWAP2 SWAP1 PUSH1 0x0 MSTORE PUSH1 0x20 PUSH1 0x0 KECCAK256 SWAP1 JUMPDEST DUP2 SLOAD DUP2 MSTORE SWAP1 PUSH1 0x1 ADD SWAP1 PUSH1 0x20 ADD DUP1 DUP4 GT PUSH2 0x667 JUMPI DUP3 SWAP1 SUB PUSH1 0x1F AND DUP3 ADD SWAP2 JUMPDEST POP POP POP SWAP2 DUP4 MSTORE POP POP PUSH1 0x3 DUP3 ADD SLOAD PUSH1 0x1 PUSH1 0x1 PUSH1 0xA0 SHL SUB SWAP1 DUP2 AND PUSH1 0x20 DUP1 DUP5 ADD SWAP2 SWAP1 SWAP2 MSTORE PUSH1 0x4 DUP1 DUP6 ADD SLOAD PUSH1 0x40 DUP6 ADD MSTORE PUSH1 0x5 DUP6 ADD SLOAD PUSH1 0x60 DUP6 ADD MSTORE PUSH1 0x6 DUP6 ADD SLOAD PUSH1 0x80 DUP6 ADD MSTORE PUSH1 0x7 DUP6 ADD SLOAD PUSH1 0xFF SWAP1 DUP2 AND ISZERO ISZERO PUSH1 0xA0 DUP7 ADD MSTORE PUSH1 0x8 DUP7 ADD SLOAD PUSH1 0xC0 DUP7 ADD MSTORE PUSH1 0x9 SWAP1 SWAP6 ADD SLOAD SWAP3 DUP4 AND PUSH1 0xE0 DUP6 ADD MSTORE PUSH1 0x1 PUSH1 0xA0 SHL SWAP1 SWAP3 DIV SWAP1 SWAP4 AND ISZERO ISZERO PUSH2 0x100 SWAP1 SWAP3 ADD SWAP2 SWAP1 SWAP2 MSTORE SWAP1 DUP3 ADD MLOAD SWAP2 SWAP3 POP GT PUSH2 0x728 JUMPI PUSH1 0x40 MLOAD PUSH3 0x461BCD PUSH1 0xE5 SHL DUP2 MSTORE PUSH1 0x4 ADD PUSH2 0x569 SWAP1 PUSH2 0x5981 JUMP JUMPDEST POP POP POP POP PUSH1 0x1 PUSH1 0x1 PUSH1 0xA0 SHL SUB SWAP1 DUP2 AND PUSH1 0x0 SWAP1 DUP2 MSTORE PUSH1 0x12 PUSH1 0x20 SWAP1 DUP2 MSTORE PUSH1 0x40 SWAP2 DUP3 SWAP1 KECCAK256 DUP3 MLOAD PUSH1 0xE0 DUP2 ADD DUP5 MSTORE DUP2 SLOAD DUP2 MSTORE PUSH1 0x1 DUP3 ADD SLOAD SWAP1 SWAP5 AND SWAP2 DUP5 ADD SWAP2 SWAP1 SWAP2 MSTORE PUSH1 0x2 DUP2 ADD SLOAD SWAP2 DUP4 ADD SWAP2 SWAP1 SWAP2 MSTORE PUSH1 0x3 DUP2 ADD SLOAD PUSH1 0xFF DUP1 DUP3 AND ISZERO ISZERO PUSH1 0x60 DUP6 ADD MSTORE PUSH2 0x100 DUP3 DIV DUP2 AND ISZERO ISZERO PUSH1 0x80 DUP6 ADD MSTORE PUSH3 0x10000 SWAP1 SWAP2 DIV AND ISZERO ISZERO PUSH1 0xA0 DUP4 ADD MSTORE PUSH1 0x4 ADD SLOAD PUSH1 0xC0 DUP3 ADD MSTORE SWAP1 JUMP JUMPDEST PUSH2 0x7B3 DUP2 PUSH2 0x404 JUMP JUMPDEST PUSH1 0x1 PUSH1 0x1 PUSH1 0xA0 SHL SUB AND CALLER PUSH1 0x1 PUSH1 0x1 PUSH1 0xA0 SHL SUB AND EQ PUSH2 0x80F JUMPI PUSH1 0x40 MLOAD PUSH3 0x461BCD PUSH1 0xE5 SHL DUP2 MSTORE PUSH1 0x20 PUSH1 0x4 DUP3 ADD MSTORE PUSH1 0x19 PUSH1 0x24 DUP3 ADD MSTORE PUSH25 0x496E73756666696369656E74205065726D697373696F6E7321 PUSH1 0x38 SHL PUSH1 0x44 DUP3 ADD MSTORE PUSH1 0x64 ADD PUSH2 0x569 JUMP JUMPDEST PUSH1 0x0 PUSH1 0xD PUSH1 0x0 DUP4 DUP2 MSTORE PUSH1 0x20 ADD SWAP1 DUP2 MSTORE PUSH1 0x20 ADD PUSH1 0x0 KECCAK256 PUSH1 0x40 MLOAD DUP1 PUSH2 0x160 ADD PUSH1 0x40 MSTORE SWAP1 DUP2 PUSH1 0x0 DUP3 ADD SLOAD DUP2 MSTORE PUSH1 0x20 ADD PUSH1 0x1 DUP3 ADD SLOAD DUP2 MSTORE PUSH1 0x20 ADD PUSH1 0x2 DUP3 ADD DUP1 SLOAD PUSH2 0x854 SWAP1 PUSH2 0x5946 JUMP JUMPDEST DUP1 PUSH1 0x1F ADD PUSH1 0x20 DUP1 SWAP2 DIV MUL PUSH1 0x20 ADD PUSH1 0x40 MLOAD SWAP1 DUP2 ADD PUSH1 0x40 MSTORE DUP1 SWAP3 SWAP2 SWAP1 DUP2 DUP2 MSTORE PUSH1 0x20 ADD DUP3 DUP1 SLOAD PUSH2 0x880 SWAP1 PUSH2 0x5946 JUMP JUMPDEST DUP1 ISZERO PUSH2 0x8CD JUMPI DUP1 PUSH1 0x1F LT PUSH2 0x8A2 JUMPI PUSH2 0x100 DUP1 DUP4 SLOAD DIV MUL DUP4 MSTORE SWAP2 PUSH1 0x20 ADD SWAP2 PUSH2 0x8CD JUMP JUMPDEST DUP3 ADD SWAP2 SWAP1 PUSH1 0x0 MSTORE PUSH1 0x20 PUSH1 0x0 KECCAK256 SWAP1 JUMPDEST DUP2 SLOAD DUP2 MSTORE SWAP1 PUSH1 0x1 ADD SWAP1 PUSH1 0x20 ADD DUP1 DUP4 GT PUSH2 0x8B0 JUMPI DUP3 SWAP1 SUB PUSH1 0x1F AND DUP3 ADD SWAP2 JUMPDEST POP POP POP SWAP2 DUP4 MSTORE POP POP PUSH1 0x3 DUP3 ADD SLOAD PUSH1 0x1 PUSH1 0x1 PUSH1 0xA0 SHL SUB SWAP1 DUP2 AND PUSH1 0x20 DUP4 ADD MSTORE PUSH1 0x4 DUP4 ADD SLOAD PUSH1 0x40 DUP4 ADD MSTORE PUSH1 0x5 DUP1 DUP5 ADD SLOAD PUSH1 0x60 DUP5 ADD MSTORE PUSH1 0x6 DUP5 ADD SLOAD PUSH1 0x80 DUP5 ADD MSTORE PUSH1 0x7 DUP5 ADD SLOAD PUSH1 0xFF SWAP1 DUP2 AND ISZERO ISZERO PUSH1 0xA0 DUP6 ADD MSTORE PUSH1 0x8 DUP6 ADD SLOAD PUSH1 0xC0 DUP6 ADD MSTORE PUSH1 0x9 SWAP1 SWAP5 ADD SLOAD SWAP2 DUP3 AND PUSH1 0xE0 DUP5 ADD MSTORE PUSH1 0x1 PUSH1 0xA0 SHL SWAP1 SWAP2 DIV SWAP1 SWAP3 AND ISZERO ISZERO PUSH2 0x100 SWAP1 SWAP2 ADD MSTORE DUP1 SLOAD SWAP2 SWAP3 POP PUSH2 0x956 PUSH1 0x1 DUP4 PUSH2 0x59CE JUMP JUMPDEST DUP2 SLOAD DUP2 LT PUSH2 0x966 JUMPI PUSH2 0x966 PUSH2 0x59E5 JUMP JUMPDEST PUSH1 0x0 SWAP2 DUP3 MSTORE PUSH1 0x20 SWAP1 SWAP2 KECCAK256 PUSH1 0xA SWAP1 SWAP2 MUL ADD SLOAD DUP3 MLOAD GT ISZERO PUSH2 0x997 JUMPI PUSH1 0x40 MLOAD PUSH3 0x461BCD PUSH1 0xE5 SHL DUP2 MSTORE PUSH1 0x4 ADD PUSH2 0x569 SWAP1 PUSH2 0x59FB JUMP JUMPDEST PUSH1 0x20 DUP3 ADD MLOAD PUSH1 0xE0 DUP4 ADD MLOAD ISZERO PUSH2 0x9BE JUMPI PUSH1 0x40 MLOAD PUSH3 0x461BCD PUSH1 0xE5 SHL DUP2 MSTORE PUSH1 0x4 ADD PUSH2 0x569 SWAP1 PUSH2 0x5A2B JUMP JUMPDEST DUP1 PUSH1 0x1 EQ DUP1 PUSH2 0x9CD JUMPI POP DUP1 PUSH1 0x3 EQ JUMPDEST DUP1 PUSH2 0x9D8 JUMPI POP DUP1 PUSH1 0x4 EQ JUMPDEST DUP1 PUSH2 0x9E3 JUMPI POP DUP1 PUSH1 0x6 EQ JUMPDEST PUSH2 0xA26 JUMPI PUSH1 0x40 MLOAD PUSH3 0x461BCD PUSH1 0xE5 SHL DUP2 MSTORE PUSH1 0x20 PUSH1 0x4 DUP3 ADD MSTORE PUSH1 0x14 PUSH1 0x24 DUP3 ADD MSTORE PUSH20 0x4E6F74206120436C6F7365642042616C6C6F7421 PUSH1 0x60 SHL PUSH1 0x44 DUP3 ADD MSTORE PUSH1 0x64 ADD PUSH2 0x569 JUMP JUMPDEST PUSH1 0x1 PUSH1 0x1 PUSH1 0xA0 SHL SUB DUP6 AND PUSH1 0x0 SWAP1 DUP2 MSTORE PUSH1 0x12 PUSH1 0x20 MSTORE PUSH1 0x40 SWAP1 KECCAK256 PUSH1 0x2 ADD SLOAD DUP5 EQ PUSH2 0xA9A JUMPI PUSH1 0x40 MLOAD PUSH3 0x461BCD PUSH1 0xE5 SHL DUP2 MSTORE PUSH1 0x20 PUSH1 0x4 DUP3 ADD MSTORE PUSH1 0x21 PUSH1 0x24 DUP3 ADD MSTORE PUSH32 0x566F7465722043616E4E4F5420766F746520696E20746869732042616C6C6F74 PUSH1 0x44 DUP3 ADD MSTORE PUSH1 0x21 PUSH1 0xF8 SHL PUSH1 0x64 DUP3 ADD MSTORE PUSH1 0x84 ADD PUSH2 0x569 JUMP JUMPDEST PUSH1 0x1 PUSH1 0x1 PUSH1 0xA0 SHL SUB DUP6 AND PUSH1 0x0 SWAP1 DUP2 MSTORE PUSH1 0x12 PUSH1 0x20 MSTORE PUSH1 0x40 SWAP1 KECCAK256 PUSH1 0x3 ADD SLOAD PUSH1 0xFF AND ISZERO ISZERO PUSH1 0x1 EQ PUSH2 0xB0A JUMPI PUSH1 0x40 MLOAD PUSH3 0x461BCD PUSH1 0xE5 SHL DUP2 MSTORE PUSH1 0x20 PUSH1 0x4 DUP3 ADD MSTORE PUSH1 0x17 PUSH1 0x24 DUP3 ADD MSTORE PUSH32 0x4E4F542061205265676973746572656420566F74657221000000000000000000 PUSH1 0x44 DUP3 ADD MSTORE PUSH1 0x64 ADD PUSH2 0x569 JUMP JUMPDEST PUSH1 0x1 PUSH1 0x1 PUSH1 0xA0 SHL SUB DUP6 AND PUSH1 0x0 SWAP1 DUP2 MSTORE PUSH1 0x12 PUSH1 0x20 MSTORE PUSH1 0x40 SWAP1 KECCAK256 PUSH1 0x3 ADD SLOAD PUSH2 0x100 SWAP1 DIV PUSH1 0xFF AND ISZERO PUSH2 0xB7B JUMPI PUSH1 0x40 MLOAD PUSH3 0x461BCD PUSH1 0xE5 SHL DUP2 MSTORE PUSH1 0x20 PUSH1 0x4 DUP3 ADD MSTORE PUSH1 0x1A PUSH1 0x24 DUP3 ADD MSTORE PUSH32 0x416C72656164792068617320566F74696E672052696768747321000000000000 PUSH1 0x44 DUP3 ADD MSTORE PUSH1 0x64 ADD PUSH2 0x569 JUMP JUMPDEST PUSH1 0x1 PUSH1 0x1 PUSH1 0xA0 SHL SUB DUP6 AND PUSH1 0x0 DUP2 DUP2 MSTORE PUSH1 0x12 PUSH1 0x20 SWAP1 DUP2 MSTORE PUSH1 0x40 SWAP2 DUP3 SWAP1 KECCAK256 PUSH1 0x3 ADD DUP1 SLOAD PUSH2 0xFF00 NOT AND PUSH2 0x100 OR SWAP1 SSTORE SWAP1 MLOAD SWAP2 DUP3 MSTORE PUSH32 0x94055E6BCDFA83FA1F2CB2901FD22DB9E96F758348742A662B752BC32B765800 SWAP2 ADD JUMPDEST PUSH1 0x40 MLOAD DUP1 SWAP2 SUB SWAP1 LOG1 POP POP POP POP POP JUMP JUMPDEST PUSH1 0x0 DUP2 DUP2 MSTORE PUSH1 0xE PUSH1 0x20 SWAP1 DUP2 MSTORE PUSH1 0x40 SWAP2 DUP3 SWAP1 KECCAK256 DUP1 SLOAD DUP4 MLOAD DUP2 DUP5 MUL DUP2 ADD DUP5 ADD SWAP1 SWAP5 MSTORE DUP1 DUP5 MSTORE PUSH1 0x60 SWAP4 SWAP3 DUP4 ADD DUP3 DUP3 DUP1 ISZERO PUSH2 0xC3F JUMPI PUSH1 0x20 MUL DUP3 ADD SWAP2 SWAP1 PUSH1 0x0 MSTORE PUSH1 0x20 PUSH1 0x0 KECCAK256 SWAP1 JUMPDEST DUP2 SLOAD PUSH1 0x1 PUSH1 0x1 PUSH1 0xA0 SHL SUB AND DUP2 MSTORE PUSH1 0x1 SWAP1 SWAP2 ADD SWAP1 PUSH1 0x20 ADD DUP1 DUP4 GT PUSH2 0xC21 JUMPI JUMPDEST POP POP POP POP POP SWAP1 POP SWAP2 SWAP1 POP JUMP JUMPDEST PUSH1 0x0 DUP2 PUSH1 0x0 PUSH1 0xD PUSH1 0x0 DUP4 DUP2 MSTORE PUSH1 0x20 ADD SWAP1 DUP2 MSTORE PUSH1 0x20 ADD PUSH1 0x0 KECCAK256 PUSH1 0x40 MLOAD DUP1 PUSH2 0x160 ADD PUSH1 0x40 MSTORE SWAP1 DUP2 PUSH1 0x0 DUP3 ADD SLOAD DUP2 MSTORE PUSH1 0x20 ADD PUSH1 0x1 DUP3 ADD SLOAD DUP2 MSTORE PUSH1 0x20 ADD PUSH1 0x2 DUP3 ADD DUP1 SLOAD PUSH2 0xC93 SWAP1 PUSH2 0x5946 JUMP JUMPDEST DUP1 PUSH1 0x1F ADD PUSH1 0x20 DUP1 SWAP2 DIV MUL PUSH1 0x20 ADD PUSH1 0x40 MLOAD SWAP1 DUP2 ADD PUSH1 0x40 MSTORE DUP1 SWAP3 SWAP2 SWAP1 DUP2 DUP2 MSTORE PUSH1 0x20 ADD DUP3 DUP1 SLOAD PUSH2 0xCBF SWAP1 PUSH2 0x5946 JUMP JUMPDEST DUP1 ISZERO PUSH2 0xD0C JUMPI DUP1 PUSH1 0x1F LT PUSH2 0xCE1 JUMPI PUSH2 0x100 DUP1 DUP4 SLOAD DIV MUL DUP4 MSTORE SWAP2 PUSH1 0x20 ADD SWAP2 PUSH2 0xD0C JUMP JUMPDEST DUP3 ADD SWAP2 SWAP1 PUSH1 0x0 MSTORE PUSH1 0x20 PUSH1 0x0 KECCAK256 SWAP1 JUMPDEST DUP2 SLOAD DUP2 MSTORE SWAP1 PUSH1 0x1 ADD SWAP1 PUSH1 0x20 ADD DUP1 DUP4 GT PUSH2 0xCEF JUMPI DUP3 SWAP1 SUB PUSH1 0x1F AND DUP3 ADD SWAP2 JUMPDEST POP POP POP SWAP2 DUP4 MSTORE POP POP PUSH1 0x3 DUP3 ADD SLOAD PUSH1 0x1 PUSH1 0x1 PUSH1 0xA0 SHL SUB SWAP1 DUP2 AND PUSH1 0x20 DUP1 DUP5 ADD SWAP2 SWAP1 SWAP2 MSTORE PUSH1 0x4 DUP1 DUP6 ADD SLOAD PUSH1 0x40 DUP6 ADD MSTORE PUSH1 0x5 DUP6 ADD SLOAD PUSH1 0x60 DUP6 ADD MSTORE PUSH1 0x6 DUP6 ADD SLOAD PUSH1 0x80 DUP6 ADD MSTORE PUSH1 0x7 DUP6 ADD SLOAD PUSH1 0xFF SWAP1 DUP2 AND ISZERO ISZERO PUSH1 0xA0 DUP7 ADD MSTORE PUSH1 0x8 DUP7 ADD SLOAD PUSH1 0xC0 DUP7 ADD MSTORE PUSH1 0x9 SWAP1 SWAP6 ADD SLOAD SWAP3 DUP4 AND PUSH1 0xE0 DUP6 ADD MSTORE PUSH1 0x1 PUSH1 0xA0 SHL SWAP1 SWAP3 DIV SWAP1 SWAP4 AND ISZERO ISZERO PUSH2 0x100 SWAP1 SWAP3 ADD SWAP2 SWAP1 SWAP2 MSTORE SWAP1 DUP3 ADD MLOAD SWAP2 SWAP3 POP GT PUSH2 0xDB0 JUMPI PUSH1 0x40 MLOAD PUSH3 0x461BCD PUSH1 0xE5 SHL DUP2 MSTORE PUSH1 0x4 ADD PUSH2 0x569 SWAP1 PUSH2 0x5981 JUMP JUMPDEST PUSH1 0x0 PUSH1 0xD PUSH1 0x0 DUP7 DUP2 MSTORE PUSH1 0x20 ADD SWAP1 DUP2 MSTORE PUSH1 0x20 ADD PUSH1 0x0 KECCAK256 PUSH1 0x40 MLOAD DUP1 PUSH2 0x160 ADD PUSH1 0x40 MSTORE SWAP1 DUP2 PUSH1 0x0 DUP3 ADD SLOAD DUP2 MSTORE PUSH1 0x20 ADD PUSH1 0x1 DUP3 ADD SLOAD DUP2 MSTORE PUSH1 0x20 ADD PUSH1 0x2 DUP3 ADD DUP1 SLOAD PUSH2 0xDF5 SWAP1 PUSH2 0x5946 JUMP JUMPDEST DUP1 PUSH1 0x1F ADD PUSH1 0x20 DUP1 SWAP2 DIV MUL PUSH1 0x20 ADD PUSH1 0x40 MLOAD SWAP1 DUP2 ADD PUSH1 0x40 MSTORE DUP1 SWAP3 SWAP2 SWAP1 DUP2 DUP2 MSTORE PUSH1 0x20 ADD DUP3 DUP1 SLOAD PUSH2 0xE21 SWAP1 PUSH2 0x5946 JUMP JUMPDEST DUP1 ISZERO PUSH2 0xE6E JUMPI DUP1 PUSH1 0x1F LT PUSH2 0xE43 JUMPI PUSH2 0x100 DUP1 DUP4 SLOAD DIV MUL DUP4 MSTORE SWAP2 PUSH1 0x20 ADD SWAP2 PUSH2 0xE6E JUMP JUMPDEST DUP3 ADD SWAP2 SWAP1 PUSH1 0x0 MSTORE PUSH1 0x20 PUSH1 0x0 KECCAK256 SWAP1 JUMPDEST DUP2 SLOAD DUP2 MSTORE SWAP1 PUSH1 0x1 ADD SWAP1 PUSH1 0x20 ADD DUP1 DUP4 GT PUSH2 0xE51 JUMPI DUP3 SWAP1 SUB PUSH1 0x1F AND DUP3 ADD SWAP2 JUMPDEST POP POP POP SWAP2 DUP4 MSTORE POP POP PUSH1 0x3 DUP3 ADD SLOAD PUSH1 0x1 PUSH1 0x1 PUSH1 0xA0 SHL SUB SWAP1 DUP2 AND PUSH1 0x20 DUP4 ADD MSTORE PUSH1 0x4 DUP4 ADD SLOAD PUSH1 0x40 DUP4 ADD MSTORE PUSH1 0x5 DUP4 ADD SLOAD PUSH1 0x60 DUP4 ADD MSTORE PUSH1 0x6 DUP4 ADD SLOAD PUSH1 0x80 DUP4 ADD MSTORE PUSH1 0x7 DUP4 ADD SLOAD PUSH1 0xFF SWAP1 DUP2 AND ISZERO ISZERO PUSH1 0xA0 DUP5 ADD MSTORE PUSH1 0x8 DUP1 DUP6 ADD SLOAD PUSH1 0xC0 DUP6 ADD MSTORE PUSH1 0x9 SWAP1 SWAP5 ADD SLOAD SWAP2 DUP3 AND PUSH1 0xE0 DUP5 ADD MSTORE PUSH1 0x1 PUSH1 0xA0 SHL SWAP1 SWAP2 DIV AND ISZERO ISZERO PUSH2 0x100 SWAP1 SWAP2 ADD MSTORE SLOAD SWAP1 SWAP2 POP DUP6 GT ISZERO PUSH2 0xF44 JUMPI PUSH1 0x40 MLOAD PUSH3 0x461BCD PUSH1 0xE5 SHL DUP2 MSTORE PUSH1 0x20 PUSH1 0x4 DUP3 ADD MSTORE PUSH1 0x23 PUSH1 0x24 DUP3 ADD MSTORE PUSH32 0x42616C6C6F742077697468207468617420496420646F6573204E4F5420657869 PUSH1 0x44 DUP3 ADD MSTORE PUSH3 0x737421 PUSH1 0xE8 SHL PUSH1 0x64 DUP3 ADD MSTORE PUSH1 0x84 ADD PUSH2 0x569 JUMP JUMPDEST PUSH1 0x0 PUSH1 0x18 PUSH1 0x3C DUP1 DUP5 PUSH1 0xA0 ADD MLOAD TIMESTAMP PUSH2 0xF5B SWAP2 SWAP1 PUSH2 0x59CE JUMP JUMPDEST PUSH2 0xF65 SWAP2 SWAP1 PUSH2 0x5A59 JUMP JUMPDEST PUSH2 0xF6F SWAP2 SWAP1 PUSH2 0x5A59 JUMP JUMPDEST PUSH2 0xF79 SWAP2 SWAP1 PUSH2 0x5A59 JUMP JUMPDEST SWAP1 POP DUP2 PUSH1 0xC0 ADD MLOAD DUP2 GT PUSH2 0xFCE JUMPI PUSH1 0x40 MLOAD PUSH3 0x461BCD PUSH1 0xE5 SHL DUP2 MSTORE PUSH1 0x20 PUSH1 0x4 DUP3 ADD MSTORE PUSH1 0x1F PUSH1 0x24 DUP3 ADD MSTORE PUSH32 0x546869732042616C6C6F74206973204E4F542079657420457870697265642100 PUSH1 0x44 DUP3 ADD MSTORE PUSH1 0x64 ADD PUSH2 0x569 JUMP JUMPDEST PUSH2 0x140 DUP3 ADD MLOAD ISZERO ISZERO PUSH1 0x1 EQ ISZERO PUSH2 0x1029 JUMPI PUSH32 0xAF9C5487A5254285C7E0CB270C5884FB3C73E8BF058E80FC0CF380DC6908FAC6 DUP3 PUSH2 0x140 ADD MLOAD PUSH1 0x40 MLOAD PUSH2 0x1016 SWAP2 ISZERO ISZERO DUP2 MSTORE PUSH1 0x20 ADD SWAP1 JUMP JUMPDEST PUSH1 0x40 MLOAD DUP1 SWAP2 SUB SWAP1 LOG1 PUSH1 0x0 SWAP5 POP POP POP PUSH2 0x590 JUMP JUMPDEST POP PUSH2 0x120 ADD MLOAD SWAP3 POP PUSH2 0x590 JUMP JUMPDEST PUSH2 0x103E PUSH2 0x2B57 JUMP JUMPDEST PUSH1 0x1 SLOAD PUSH1 0x40 MLOAD PUSH1 0x1 PUSH1 0x1 PUSH1 0xA0 SHL SUB SWAP1 SWAP2 AND SWAP1 SELFBALANCE DUP1 ISZERO PUSH2 0x8FC MUL SWAP2 PUSH1 0x0 DUP2 DUP2 DUP2 DUP6 DUP9 DUP9 CALL SWAP4 POP POP POP POP ISZERO DUP1 ISZERO PUSH2 0x1077 JUMPI RETURNDATASIZE PUSH1 0x0 DUP1 RETURNDATACOPY RETURNDATASIZE PUSH1 0x0 REVERT JUMPDEST POP JUMP JUMPDEST DUP2 DUP2 PUSH1 0x0 PUSH1 0xD PUSH1 0x0 DUP4 DUP2 MSTORE PUSH1 0x20 ADD SWAP1 DUP2 MSTORE PUSH1 0x20 ADD PUSH1 0x0 KECCAK256 PUSH1 0x40 MLOAD DUP1 PUSH2 0x160 ADD PUSH1 0x40 MSTORE SWAP1 DUP2 PUSH1 0x0 DUP3 ADD SLOAD DUP2 MSTORE PUSH1 0x20 ADD PUSH1 0x1 DUP3 ADD SLOAD DUP2 MSTORE PUSH1 0x20 ADD PUSH1 0x2 DUP3 ADD DUP1 SLOAD PUSH2 0x10C1 SWAP1 PUSH2 0x5946 JUMP JUMPDEST DUP1 PUSH1 0x1F ADD PUSH1 0x20 DUP1 SWAP2 DIV MUL PUSH1 0x20 ADD PUSH1 0x40 MLOAD SWAP1 DUP2 ADD PUSH1 0x40 MSTORE DUP1 SWAP3 SWAP2 SWAP1 DUP2 DUP2 MSTORE PUSH1 0x20 ADD DUP3 DUP1 SLOAD PUSH2 0x10ED SWAP1 PUSH2 0x5946 JUMP JUMPDEST DUP1 ISZERO PUSH2 0x113A JUMPI DUP1 PUSH1 0x1F LT PUSH2 0x110F JUMPI PUSH2 0x100 DUP1 DUP4 SLOAD DIV MUL DUP4 MSTORE SWAP2 PUSH1 0x20 ADD SWAP2 PUSH2 0x113A JUMP JUMPDEST DUP3 ADD SWAP2 SWAP1 PUSH1 0x0 MSTORE PUSH1 0x20 PUSH1 0x0 KECCAK256 SWAP1 JUMPDEST DUP2 SLOAD DUP2 MSTORE SWAP1 PUSH1 0x1 ADD SWAP1 PUSH1 0x20 ADD DUP1 DUP4 GT PUSH2 0x111D JUMPI DUP3 SWAP1 SUB PUSH1 0x1F AND DUP3 ADD SWAP2 JUMPDEST POP POP POP SWAP2 DUP4 MSTORE POP POP PUSH1 0x3 DUP3 ADD SLOAD PUSH1 0x1 PUSH1 0x1 PUSH1 0xA0 SHL SUB SWAP1 DUP2 AND PUSH1 0x20 DUP4 ADD MSTORE PUSH1 0x4 DUP4 ADD SLOAD PUSH1 0x40 DUP4 ADD MSTORE PUSH1 0x5 DUP4 ADD SLOAD PUSH1 0x60 DUP4 ADD MSTORE PUSH1 0x6 DUP4 ADD SLOAD PUSH1 0x80 DUP4 ADD MSTORE PUSH1 0x7 DUP4 ADD SLOAD PUSH1 0xFF SWAP1 DUP2 AND ISZERO ISZERO PUSH1 0xA0 DUP1 DUP6 ADD SWAP2 SWAP1 SWAP2 MSTORE PUSH1 0x8 DUP6 ADD SLOAD PUSH1 0xC0 DUP6 ADD MSTORE PUSH1 0x9 SWAP1 SWAP5 ADD SLOAD SWAP2 DUP3 AND PUSH1 0xE0 DUP5 ADD MSTORE PUSH1 0x1 PUSH1 0xA0 SHL SWAP1 SWAP2 DIV AND ISZERO ISZERO PUSH2 0x100 SWAP1 SWAP2 ADD MSTORE DUP2 ADD MLOAD SWAP1 SWAP2 POP PUSH1 0x0 SWAP1 PUSH2 0x11C7 SWAP1 TIMESTAMP PUSH2 0x59CE JUMP JUMPDEST PUSH1 0x5 SLOAD SWAP1 SWAP2 POP PUSH1 0x1 DUP2 LT ISZERO PUSH2 0x11EE JUMPI PUSH1 0x40 MLOAD PUSH3 0x461BCD PUSH1 0xE5 SHL DUP2 MSTORE PUSH1 0x4 ADD PUSH2 0x569 SWAP1 PUSH2 0x59FB JUMP JUMPDEST PUSH1 0xC0 DUP4 ADD MLOAD PUSH2 0x1200 SWAP1 PUSH3 0x15180 PUSH2 0x5A7B JUMP JUMPDEST DUP3 LT PUSH2 0x121E JUMPI PUSH1 0x40 MLOAD PUSH3 0x461BCD PUSH1 0xE5 SHL DUP2 MSTORE PUSH1 0x4 ADD PUSH2 0x569 SWAP1 PUSH2 0x5A2B JUMP JUMPDEST CALLER PUSH1 0x0 SWAP1 DUP2 MSTORE PUSH1 0x15 PUSH1 0x20 SWAP1 DUP2 MSTORE PUSH1 0x40 SWAP2 DUP3 SWAP1 KECCAK256 DUP1 SLOAD DUP4 MLOAD DUP2 DUP5 MUL DUP2 ADD DUP5 ADD SWAP1 SWAP5 MSTORE DUP1 DUP5 MSTORE PUSH2 0x1281 SWAP4 SWAP3 DUP4 ADD DUP3 DUP3 DUP1 ISZERO PUSH2 0x1276 JUMPI PUSH1 0x20 MUL DUP3 ADD SWAP2 SWAP1 PUSH1 0x0 MSTORE PUSH1 0x20 PUSH1 0x0 KECCAK256 SWAP1 JUMPDEST DUP2 SLOAD DUP2 MSTORE PUSH1 0x20 ADD SWAP1 PUSH1 0x1 ADD SWAP1 DUP1 DUP4 GT PUSH2 0x1262 JUMPI JUMPDEST POP POP POP POP POP DUP6 PUSH2 0x2BB8 JUMP JUMPDEST ISZERO PUSH2 0x129E JUMPI PUSH1 0x40 MLOAD PUSH3 0x461BCD PUSH1 0xE5 SHL DUP2 MSTORE PUSH1 0x4 ADD PUSH2 0x569 SWAP1 PUSH2 0x5A9A JUMP JUMPDEST PUSH1 0x0 DUP6 DUP2 MSTORE PUSH1 0x17 PUSH1 0x20 SWAP1 DUP2 MSTORE PUSH1 0x40 SWAP2 DUP3 SWAP1 KECCAK256 DUP1 SLOAD DUP4 MLOAD DUP2 DUP5 MUL DUP2 ADD DUP5 ADD SWAP1 SWAP5 MSTORE DUP1 DUP5 MSTORE PUSH2 0x12FE SWAP4 SWAP3 DUP4 ADD DUP3 DUP3 DUP1 ISZERO PUSH2 0x1276 JUMPI PUSH1 0x20 MUL DUP3 ADD SWAP2 SWAP1 PUSH1 0x0 MSTORE PUSH1 0x20 PUSH1 0x0 KECCAK256 SWAP1 DUP2 SLOAD DUP2 MSTORE PUSH1 0x20 ADD SWAP1 PUSH1 0x1 ADD SWAP1 DUP1 DUP4 GT PUSH2 0x1262 JUMPI POP POP POP POP POP DUP6 PUSH2 0x2BB8 JUMP JUMPDEST ISZERO PUSH2 0x131B JUMPI PUSH1 0x40 MLOAD PUSH3 0x461BCD PUSH1 0xE5 SHL DUP2 MSTORE PUSH1 0x4 ADD PUSH2 0x569 SWAP1 PUSH2 0x5ADC JUMP JUMPDEST PUSH2 0x100 DUP4 ADD MLOAD PUSH2 0x132E SWAP1 PUSH3 0x15180 PUSH2 0x5A7B JUMP JUMPDEST DUP3 LT PUSH2 0x134C JUMPI PUSH1 0x40 MLOAD PUSH3 0x461BCD PUSH1 0xE5 SHL DUP2 MSTORE PUSH1 0x4 ADD PUSH2 0x569 SWAP1 PUSH2 0x5B21 JUMP JUMPDEST PUSH1 0x0 PUSH1 0xD PUSH1 0x0 DUP9 DUP2 MSTORE PUSH1 0x20 ADD SWAP1 DUP2 MSTORE PUSH1 0x20 ADD PUSH1 0x0 KECCAK256 PUSH1 0x40 MLOAD DUP1 PUSH2 0x160 ADD PUSH1 0x40 MSTORE SWAP1 DUP2 PUSH1 0x0 DUP3 ADD SLOAD DUP2 MSTORE PUSH1 0x20 ADD PUSH1 0x1 DUP3 ADD SLOAD DUP2 MSTORE PUSH1 0x20 ADD PUSH1 0x2 DUP3 ADD DUP1 SLOAD PUSH2 0x1391 SWAP1 PUSH2 0x5946 JUMP JUMPDEST DUP1 PUSH1 0x1F ADD PUSH1 0x20 DUP1 SWAP2 DIV MUL PUSH1 0x20 ADD PUSH1 0x40 MLOAD SWAP1 DUP2 ADD PUSH1 0x40 MSTORE DUP1 SWAP3 SWAP2 SWAP1 DUP2 DUP2 MSTORE PUSH1 0x20 ADD DUP3 DUP1 SLOAD PUSH2 0x13BD SWAP1 PUSH2 0x5946 JUMP JUMPDEST DUP1 ISZERO PUSH2 0x140A JUMPI DUP1 PUSH1 0x1F LT PUSH2 0x13DF JUMPI PUSH2 0x100 DUP1 DUP4 SLOAD DIV MUL DUP4 MSTORE SWAP2 PUSH1 0x20 ADD SWAP2 PUSH2 0x140A JUMP JUMPDEST DUP3 ADD SWAP2 SWAP1 PUSH1 0x0 MSTORE PUSH1 0x20 PUSH1 0x0 KECCAK256 SWAP1 JUMPDEST DUP2 SLOAD DUP2 MSTORE SWAP1 PUSH1 0x1 ADD SWAP1 PUSH1 0x20 ADD DUP1 DUP4 GT PUSH2 0x13ED JUMPI DUP3 SWAP1 SUB PUSH1 0x1F AND DUP3 ADD SWAP2 JUMPDEST POP POP POP SWAP2 DUP4 MSTORE POP POP PUSH1 0x3 DUP3 ADD SLOAD PUSH1 0x1 PUSH1 0x1 PUSH1 0xA0 SHL SUB SWAP1 DUP2 AND PUSH1 0x20 DUP1 DUP5 ADD SWAP2 SWAP1 SWAP2 MSTORE PUSH1 0x4 DUP5 ADD SLOAD PUSH1 0x40 DUP5 ADD MSTORE PUSH1 0x5 DUP5 ADD SLOAD PUSH1 0x60 DUP5 ADD MSTORE PUSH1 0x6 DUP5 ADD SLOAD PUSH1 0x80 DUP5 ADD MSTORE PUSH1 0x7 DUP5 ADD SLOAD PUSH1 0xFF SWAP1 DUP2 AND ISZERO ISZERO PUSH1 0xA0 DUP6 ADD MSTORE PUSH1 0x8 DUP6 ADD SLOAD PUSH1 0xC0 DUP6 ADD MSTORE PUSH1 0x9 SWAP1 SWAP5 ADD SLOAD SWAP2 DUP3 AND PUSH1 0xE0 DUP5 ADD MSTORE PUSH1 0x1 PUSH1 0xA0 SHL SWAP1 SWAP2 DIV SWAP1 SWAP3 AND ISZERO ISZERO PUSH2 0x100 SWAP1 SWAP2 ADD MSTORE DUP2 ADD MLOAD SWAP1 SWAP2 POP PUSH2 0x149F JUMPI PUSH2 0x149A DUP9 DUP9 PUSH2 0x2C12 JUMP JUMPDEST PUSH2 0x1511 JUMP JUMPDEST DUP1 PUSH1 0x20 ADD MLOAD PUSH1 0x1 EQ DUP1 PUSH2 0x14B6 JUMPI POP DUP1 PUSH1 0x20 ADD MLOAD PUSH1 0x4 EQ JUMPDEST ISZERO PUSH2 0x14C5 JUMPI PUSH2 0x149A DUP9 DUP9 PUSH2 0x2F1C JUMP JUMPDEST DUP1 PUSH1 0x20 ADD MLOAD PUSH1 0x2 EQ DUP1 PUSH2 0x14DC JUMPI POP DUP1 PUSH1 0x20 ADD MLOAD PUSH1 0x5 EQ JUMPDEST ISZERO PUSH2 0x14EB JUMPI PUSH2 0x149A DUP9 DUP9 PUSH2 0x3236 JUMP JUMPDEST DUP1 PUSH1 0x20 ADD MLOAD PUSH1 0x3 EQ DUP1 PUSH2 0x1502 JUMPI POP DUP1 PUSH1 0x20 ADD MLOAD PUSH1 0x6 EQ JUMPDEST ISZERO PUSH2 0x1511 JUMPI PUSH2 0x1511 DUP9 DUP9 PUSH2 0x3547 JUMP JUMPDEST POP POP POP POP POP POP POP POP JUMP JUMPDEST PUSH1 0x0 DUP2 DUP2 MSTORE PUSH1 0xD PUSH1 0x20 MSTORE PUSH1 0x40 DUP2 KECCAK256 PUSH1 0x5 DUP2 ADD SLOAD SWAP1 SWAP2 SWAP1 PUSH1 0x18 SWAP1 PUSH1 0x3C SWAP1 DUP2 SWAP1 PUSH2 0x1543 SWAP1 TIMESTAMP PUSH2 0x59CE JUMP JUMPDEST PUSH2 0x154D SWAP2 SWAP1 PUSH2 0x5A59 JUMP JUMPDEST PUSH2 0x1557 SWAP2 SWAP1 PUSH2 0x5A59 JUMP JUMPDEST PUSH2 0x1561 SWAP2 SWAP1 PUSH2 0x5A59 JUMP JUMPDEST SWAP1 POP DUP2 PUSH1 0x6 ADD SLOAD DUP2 LT PUSH2 0x15B6 JUMPI PUSH1 0x40 MLOAD PUSH3 0x461BCD PUSH1 0xE5 SHL DUP2 MSTORE PUSH1 0x20 PUSH1 0x4 DUP3 ADD MSTORE PUSH1 0x1F PUSH1 0x24 DUP3 ADD MSTORE PUSH32 0x546869732042616C6C6F74206973204E4F542079657420457870697265642100 PUSH1 0x44 DUP3 ADD MSTORE PUSH1 0x64 ADD PUSH2 0x569 JUMP JUMPDEST PUSH1 0x3 DUP3 ADD SLOAD PUSH1 0x1 PUSH1 0x1 PUSH1 0xA0 SHL SUB AND CALLER EQ PUSH2 0x160E JUMPI PUSH1 0x40 MLOAD PUSH3 0x461BCD PUSH1 0xE5 SHL DUP2 MSTORE PUSH1 0x20 PUSH1 0x4 DUP3 ADD MSTORE PUSH1 0x19 PUSH1 0x24 DUP3 ADD MSTORE PUSH25 0x496E73756666696369656E74205065726D697373696F6E7321 PUSH1 0x38 SHL PUSH1 0x44 DUP3 ADD MSTORE PUSH1 0x64 ADD PUSH2 0x569 JUMP JUMPDEST PUSH1 0x7 DUP3 DUP2 ADD DUP1 SLOAD PUSH1 0x1 PUSH1 0xFF NOT SWAP2 DUP3 AND DUP2 OR SWAP1 SWAP3 SSTORE CALLER PUSH1 0x0 SWAP1 DUP2 MSTORE PUSH1 0xC PUSH1 0x20 SWAP1 DUP2 MSTORE PUSH1 0x40 DUP1 DUP4 KECCAK256 DUP7 ADD DUP1 SLOAD DUP6 AND DUP7 OR SWAP1 SSTORE DUP9 DUP4 MSTORE PUSH1 0xD DUP3 MSTORE SWAP2 DUP3 SWAP1 KECCAK256 SWAP1 SWAP5 ADD DUP1 SLOAD SWAP1 SWAP3 AND SWAP1 SWAP3 OR SWAP1 SSTORE MLOAD DUP5 DUP2 MSTORE PUSH32 0xEE47B3AB572870E3B3BC916BCDED65025F6AD6E7795583611F5A9085502148E7 SWAP2 ADD PUSH1 0x40 MLOAD DUP1 SWAP2 SUB SWAP1 LOG1 POP POP POP JUMP JUMPDEST DUP2 DUP2 PUSH1 0x0 PUSH1 0xD PUSH1 0x0 DUP4 DUP2 MSTORE PUSH1 0x20 ADD SWAP1 DUP2 MSTORE PUSH1 0x20 ADD PUSH1 0x0 KECCAK256 PUSH1 0x40 MLOAD DUP1 PUSH2 0x160 ADD PUSH1 0x40 MSTORE SWAP1 DUP2 PUSH1 0x0 DUP3 ADD SLOAD DUP2 MSTORE PUSH1 0x20 ADD PUSH1 0x1 DUP3 ADD SLOAD DUP2 MSTORE PUSH1 0x20 ADD PUSH1 0x2 DUP3 ADD DUP1 SLOAD PUSH2 0x16D1 SWAP1 PUSH2 0x5946 JUMP JUMPDEST DUP1 PUSH1 0x1F ADD PUSH1 0x20 DUP1 SWAP2 DIV MUL PUSH1 0x20 ADD PUSH1 0x40 MLOAD SWAP1 DUP2 ADD PUSH1 0x40 MSTORE DUP1 SWAP3 SWAP2 SWAP1 DUP2 DUP2 MSTORE PUSH1 0x20 ADD DUP3 DUP1 SLOAD PUSH2 0x16FD SWAP1 PUSH2 0x5946 JUMP JUMPDEST DUP1 ISZERO PUSH2 0x174A JUMPI DUP1 PUSH1 0x1F LT PUSH2 0x171F JUMPI PUSH2 0x100 DUP1 DUP4 SLOAD DIV MUL DUP4 MSTORE SWAP2 PUSH1 0x20 ADD SWAP2 PUSH2 0x174A JUMP JUMPDEST DUP3 ADD SWAP2 SWAP1 PUSH1 0x0 MSTORE PUSH1 0x20 PUSH1 0x0 KECCAK256 SWAP1 JUMPDEST DUP2 SLOAD DUP2 MSTORE SWAP1 PUSH1 0x1 ADD SWAP1 PUSH1 0x20 ADD DUP1 DUP4 GT PUSH2 0x172D JUMPI DUP3 SWAP1 SUB PUSH1 0x1F AND DUP3 ADD SWAP2 JUMPDEST POP POP POP SWAP2 DUP4 MSTORE POP POP PUSH1 0x3 DUP3 DUP2 ADD SLOAD PUSH1 0x1 PUSH1 0x1 PUSH1 0xA0 SHL SUB SWAP1 DUP2 AND PUSH1 0x20 DUP1 DUP6 ADD SWAP2 SWAP1 SWAP2 MSTORE PUSH1 0x4 DUP6 ADD SLOAD PUSH1 0x40 DUP1 DUP7 ADD SWAP2 SWAP1 SWAP2 MSTORE PUSH1 0x5 DUP7 ADD SLOAD PUSH1 0x60 DUP7 ADD MSTORE PUSH1 0x6 DUP7 ADD SLOAD PUSH1 0x80 DUP7 ADD MSTORE PUSH1 0x7 DUP7 ADD SLOAD PUSH1 0xFF SWAP1 DUP2 AND ISZERO ISZERO PUSH1 0xA0 DUP8 ADD MSTORE PUSH1 0x8 DUP8 ADD SLOAD PUSH1 0xC0 DUP8 ADD MSTORE PUSH1 0x9 SWAP1 SWAP7 ADD SLOAD SWAP3 DUP4 AND PUSH1 0xE0 DUP7 ADD MSTORE PUSH1 0x1 PUSH1 0xA0 SHL SWAP1 SWAP3 DIV DUP6 AND ISZERO ISZERO PUSH2 0x100 SWAP1 SWAP5 ADD SWAP4 SWAP1 SWAP4 MSTORE CALLER PUSH1 0x0 SWAP1 DUP2 MSTORE PUSH1 0x12 SWAP1 SWAP4 MSTORE SWAP1 SWAP2 KECCAK256 ADD SLOAD SWAP2 SWAP3 POP AND ISZERO ISZERO PUSH1 0x1 EQ PUSH2 0x1802 JUMPI PUSH1 0x40 MLOAD PUSH3 0x461BCD PUSH1 0xE5 SHL DUP2 MSTORE PUSH1 0x4 ADD PUSH2 0x569 SWAP1 PUSH2 0x5B58 JUMP JUMPDEST CALLER PUSH1 0x0 SWAP1 DUP2 MSTORE PUSH1 0x16 PUSH1 0x20 SWAP1 DUP2 MSTORE PUSH1 0x40 SWAP2 DUP3 SWAP1 KECCAK256 DUP1 SLOAD DUP4 MLOAD DUP2 DUP5 MUL DUP2 ADD DUP5 ADD SWAP1 SWAP5 MSTORE DUP1 DUP5 MSTORE PUSH2 0x1865 SWAP4 SWAP3 DUP4 ADD DUP3 DUP3 DUP1 ISZERO PUSH2 0x185A JUMPI PUSH1 0x20 MUL DUP3 ADD SWAP2 SWAP1 PUSH1 0x0 MSTORE PUSH1 0x20 PUSH1 0x0 KECCAK256 SWAP1 JUMPDEST DUP2 SLOAD DUP2 MSTORE PUSH1 0x20 ADD SWAP1 PUSH1 0x1 ADD SWAP1 DUP1 DUP4 GT PUSH2 0x1846 JUMPI JUMPDEST POP POP POP POP POP DUP4 PUSH2 0x2BB8 JUMP JUMPDEST ISZERO PUSH2 0x1882 JUMPI PUSH1 0x40 MLOAD PUSH3 0x461BCD PUSH1 0xE5 SHL DUP2 MSTORE PUSH1 0x4 ADD PUSH2 0x569 SWAP1 PUSH2 0x5B8F JUMP JUMPDEST PUSH1 0x0 DUP3 DUP2 MSTORE PUSH1 0xD PUSH1 0x20 MSTORE PUSH1 0x40 SWAP1 KECCAK256 SLOAD DUP3 EQ PUSH2 0x18AF JUMPI PUSH1 0x40 MLOAD PUSH3 0x461BCD PUSH1 0xE5 SHL DUP2 MSTORE PUSH1 0x4 ADD PUSH2 0x569 SWAP1 PUSH2 0x5BD9 JUMP JUMPDEST PUSH1 0xE0 DUP2 ADD MLOAD ISZERO PUSH2 0x18D1 JUMPI PUSH1 0x40 MLOAD PUSH3 0x461BCD PUSH1 0xE5 SHL DUP2 MSTORE PUSH1 0x4 ADD PUSH2 0x569 SWAP1 PUSH2 0x5C05 JUMP JUMPDEST PUSH1 0x1 PUSH1 0x1 PUSH1 0xA0 SHL SUB DUP4 AND PUSH1 0x0 SWAP1 DUP2 MSTORE PUSH1 0x10 PUSH1 0x20 MSTORE PUSH1 0x40 SWAP1 KECCAK256 PUSH1 0x1 ADD SLOAD DUP3 EQ PUSH2 0x190B JUMPI PUSH1 0x40 MLOAD PUSH3 0x461BCD PUSH1 0xE5 SHL DUP2 MSTORE PUSH1 0x4 ADD PUSH2 0x569 SWAP1 PUSH2 0x5C31 JUMP JUMPDEST PUSH1 0x0 PUSH2 0x1918 PUSH1 0x64 DUP7 PUSH2 0x59CE JUMP JUMPDEST SWAP1 POP PUSH1 0x0 PUSH1 0x5 DUP3 DUP2 SLOAD DUP2 LT PUSH2 0x192F JUMPI PUSH2 0x192F PUSH2 0x59E5 JUMP JUMPDEST SWAP1 PUSH1 0x0 MSTORE PUSH1 0x20 PUSH1 0x0 KECCAK256 SWAP1 PUSH1 0xA MUL ADD PUSH1 0x40 MLOAD DUP1 PUSH2 0x160 ADD PUSH1 0x40 MSTORE SWAP1 DUP2 PUSH1 0x0 DUP3 ADD SLOAD DUP2 MSTORE PUSH1 0x20 ADD PUSH1 0x1 DUP3 ADD SLOAD DUP2 MSTORE PUSH1 0x20 ADD PUSH1 0x2 DUP3 ADD DUP1 SLOAD PUSH2 0x196D SWAP1 PUSH2 0x5946 JUMP JUMPDEST DUP1 PUSH1 0x1F ADD PUSH1 0x20 DUP1 SWAP2 DIV MUL PUSH1 0x20 ADD PUSH1 0x40 MLOAD SWAP1 DUP2 ADD PUSH1 0x40 MSTORE DUP1 SWAP3 SWAP2 SWAP1 DUP2 DUP2 MSTORE PUSH1 0x20 ADD DUP3 DUP1 SLOAD PUSH2 0x1999 SWAP1 PUSH2 0x5946 JUMP JUMPDEST DUP1 ISZERO PUSH2 0x19E6 JUMPI DUP1 PUSH1 0x1F LT PUSH2 0x19BB JUMPI PUSH2 0x100 DUP1 DUP4 SLOAD DIV MUL DUP4 MSTORE SWAP2 PUSH1 0x20 ADD SWAP2 PUSH2 0x19E6 JUMP JUMPDEST DUP3 ADD SWAP2 SWAP1 PUSH1 0x0 MSTORE PUSH1 0x20 PUSH1 0x0 KECCAK256 SWAP1 JUMPDEST DUP2 SLOAD DUP2 MSTORE SWAP1 PUSH1 0x1 ADD SWAP1 PUSH1 0x20 ADD DUP1 DUP4 GT PUSH2 0x19C9 JUMPI DUP3 SWAP1 SUB PUSH1 0x1F AND DUP3 ADD SWAP2 JUMPDEST POP POP POP SWAP2 DUP4 MSTORE POP POP PUSH1 0x3 DUP3 ADD SLOAD PUSH1 0x1 PUSH1 0x1 PUSH1 0xA0 SHL SUB SWAP1 DUP2 AND PUSH1 0x20 DUP1 DUP5 ADD SWAP2 SWAP1 SWAP2 MSTORE PUSH1 0x4 DUP5 ADD SLOAD PUSH1 0x40 DUP5 ADD MSTORE PUSH1 0x5 DUP5 ADD SLOAD PUSH1 0x60 DUP5 ADD MSTORE PUSH1 0x6 DUP5 ADD SLOAD PUSH1 0x80 DUP5 ADD MSTORE PUSH1 0x7 DUP5 ADD SLOAD PUSH1 0xFF SWAP1 DUP2 AND ISZERO ISZERO PUSH1 0xA0 DUP6 ADD MSTORE PUSH1 0x8 DUP6 ADD SLOAD PUSH1 0xC0 DUP6 ADD MSTORE PUSH1 0x9 SWAP1 SWAP5 ADD SLOAD SWAP2 DUP3 AND PUSH1 0xE0 DUP5 ADD MSTORE PUSH1 0x1 PUSH1 0xA0 SHL SWAP1 SWAP2 DIV SWAP1 SWAP3 AND ISZERO ISZERO PUSH2 0x100 SWAP1 SWAP2 ADD MSTORE DUP2 ADD MLOAD SWAP1 SWAP2 POP PUSH2 0x1A9D JUMPI PUSH2 0x1A76 DUP8 DUP8 PUSH2 0x3857 JUMP JUMPDEST CALLER PUSH1 0x0 SWAP1 DUP2 MSTORE PUSH1 0x16 PUSH1 0x20 SWAP1 DUP2 MSTORE PUSH1 0x40 DUP3 KECCAK256 DUP1 SLOAD PUSH1 0x1 DUP2 ADD DUP3 SSTORE SWAP1 DUP4 MSTORE SWAP2 KECCAK256 ADD DUP7 SWAP1 SSTORE PUSH2 0x1B05 JUMP JUMPDEST DUP1 PUSH1 0x20 ADD MLOAD PUSH1 0x1 EQ ISZERO PUSH2 0x1AB4 JUMPI PUSH2 0x1A76 DUP8 DUP8 PUSH2 0x3C31 JUMP JUMPDEST DUP1 PUSH1 0x20 ADD MLOAD PUSH1 0x2 EQ ISZERO PUSH2 0x1ACB JUMPI PUSH2 0x1A76 DUP8 DUP8 PUSH2 0x40FA JUMP JUMPDEST DUP1 PUSH1 0x20 ADD MLOAD PUSH1 0x3 EQ ISZERO PUSH2 0x1B05 JUMPI PUSH2 0x1AE2 DUP8 DUP8 PUSH2 0x44F2 JUMP JUMPDEST CALLER PUSH1 0x0 SWAP1 DUP2 MSTORE PUSH1 0x16 PUSH1 0x20 SWAP1 DUP2 MSTORE PUSH1 0x40 DUP3 KECCAK256 DUP1 SLOAD PUSH1 0x1 DUP2 ADD DUP3 SSTORE SWAP1 DUP4 MSTORE SWAP2 KECCAK256 ADD DUP7 SWAP1 SSTORE JUMPDEST POP POP POP POP POP POP POP JUMP JUMPDEST PUSH2 0x1B16 PUSH2 0x2B57 JUMP JUMPDEST PUSH2 0x1B20 PUSH1 0x0 PUSH2 0x4998 JUMP JUMPDEST JUMP JUMPDEST PUSH2 0x1B95 PUSH1 0x40 MLOAD DUP1 PUSH2 0x160 ADD PUSH1 0x40 MSTORE DUP1 PUSH1 0x0 DUP2 MSTORE PUSH1 0x20 ADD PUSH1 0x0 DUP2 MSTORE PUSH1 0x20 ADD PUSH1 0x60 DUP2 MSTORE PUSH1 0x20 ADD PUSH1 0x0 PUSH1 0x1 PUSH1 0x1 PUSH1 0xA0 SHL SUB AND DUP2 MSTORE PUSH1 0x20 ADD PUSH1 0x0 DUP2 MSTORE PUSH1 0x20 ADD PUSH1 0x0 DUP2 MSTORE PUSH1 0x20 ADD PUSH1 0x0 DUP2 MSTORE PUSH1 0x20 ADD PUSH1 0x0 ISZERO ISZERO DUP2 MSTORE PUSH1 0x20 ADD PUSH1 0x0 DUP2 MSTORE PUSH1 0x20 ADD PUSH1 0x0 PUSH1 0x1 PUSH1 0x1 PUSH1 0xA0 SHL SUB AND DUP2 MSTORE PUSH1 0x20 ADD PUSH1 0x0 ISZERO ISZERO DUP2 MSTORE POP SWAP1 JUMP JUMPDEST DUP2 PUSH1 0x0 PUSH1 0xD PUSH1 0x0 DUP4 DUP2 MSTORE PUSH1 0x20 ADD SWAP1 DUP2 MSTORE PUSH1 0x20 ADD PUSH1 0x0 KECCAK256 PUSH1 0x40 MLOAD DUP1 PUSH2 0x160 ADD PUSH1 0x40 MSTORE SWAP1 DUP2 PUSH1 0x0 DUP3 ADD SLOAD DUP2 MSTORE PUSH1 0x20 ADD PUSH1 0x1 DUP3 ADD SLOAD DUP2 MSTORE PUSH1 0x20 ADD PUSH1 0x2 DUP3 ADD DUP1 SLOAD PUSH2 0x1BDB SWAP1 PUSH2 0x5946 JUMP JUMPDEST DUP1 PUSH1 0x1F ADD PUSH1 0x20 DUP1 SWAP2 DIV MUL PUSH1 0x20 ADD PUSH1 0x40 MLOAD SWAP1 DUP2 ADD PUSH1 0x40 MSTORE DUP1 SWAP3 SWAP2 SWAP1 DUP2 DUP2 MSTORE PUSH1 0x20 ADD DUP3 DUP1 SLOAD PUSH2 0x1C07 SWAP1 PUSH2 0x5946 JUMP JUMPDEST DUP1 ISZERO PUSH2 0x1C54 JUMPI DUP1 PUSH1 0x1F LT PUSH2 0x1C29 JUMPI PUSH2 0x100 DUP1 DUP4 SLOAD DIV MUL DUP4 MSTORE SWAP2 PUSH1 0x20 ADD SWAP2 PUSH2 0x1C54 JUMP JUMPDEST DUP3 ADD SWAP2 SWAP1 PUSH1 0x0 MSTORE PUSH1 0x20 PUSH1 0x0 KECCAK256 SWAP1 JUMPDEST DUP2 SLOAD DUP2 MSTORE SWAP1 PUSH1 0x1 ADD SWAP1 PUSH1 0x20 ADD DUP1 DUP4 GT PUSH2 0x1C37 JUMPI DUP3 SWAP1 SUB PUSH1 0x1F AND DUP3 ADD SWAP2 JUMPDEST POP POP POP SWAP2 DUP4 MSTORE POP POP PUSH1 0x3 DUP3 ADD SLOAD PUSH1 0x1 PUSH1 0x1 PUSH1 0xA0 SHL SUB SWAP1 DUP2 AND PUSH1 0x20 DUP1 DUP5 ADD SWAP2 SWAP1 SWAP2 MSTORE PUSH1 0x4 DUP1 DUP6 ADD SLOAD PUSH1 0x40 DUP6 ADD MSTORE PUSH1 0x5 DUP6 ADD SLOAD PUSH1 0x60 DUP6 ADD MSTORE PUSH1 0x6 DUP6 ADD SLOAD PUSH1 0x80 DUP6 ADD MSTORE PUSH1 0x7 DUP6 ADD SLOAD PUSH1 0xFF SWAP1 DUP2 AND ISZERO ISZERO PUSH1 0xA0 DUP7 ADD MSTORE PUSH1 0x8 DUP7 ADD SLOAD PUSH1 0xC0 DUP7 ADD MSTORE PUSH1 0x9 SWAP1 SWAP6 ADD SLOAD SWAP3 DUP4 AND PUSH1 0xE0 DUP6 ADD MSTORE PUSH1 0x1 PUSH1 0xA0 SHL SWAP1 SWAP3 DIV SWAP1 SWAP4 AND ISZERO ISZERO PUSH2 0x100 SWAP1 SWAP3 ADD SWAP2 SWAP1 SWAP2 MSTORE SWAP1 DUP3 ADD MLOAD SWAP2 SWAP3 POP GT PUSH2 0x1CF8 JUMPI PUSH1 0x40 MLOAD PUSH3 0x461BCD PUSH1 0xE5 SHL DUP2 MSTORE PUSH1 0x4 ADD PUSH2 0x569 SWAP1 PUSH2 0x5981 JUMP JUMPDEST PUSH1 0xD PUSH1 0x0 DUP6 DUP2 MSTORE PUSH1 0x20 ADD SWAP1 DUP2 MSTORE PUSH1 0x20 ADD PUSH1 0x0 KECCAK256 PUSH1 0x40 MLOAD DUP1 PUSH2 0x160 ADD PUSH1 0x40 MSTORE SWAP1 DUP2 PUSH1 0x0 DUP3 ADD SLOAD DUP2 MSTORE PUSH1 0x20 ADD PUSH1 0x1 DUP3 ADD SLOAD DUP2 MSTORE PUSH1 0x20 ADD PUSH1 0x2 DUP3 ADD DUP1 SLOAD PUSH2 0x1D3B SWAP1 PUSH2 0x5946 JUMP JUMPDEST DUP1 PUSH1 0x1F ADD PUSH1 0x20 DUP1 SWAP2 DIV MUL PUSH1 0x20 ADD PUSH1 0x40 MLOAD SWAP1 DUP2 ADD PUSH1 0x40 MSTORE DUP1 SWAP3 SWAP2 SWAP1 DUP2 DUP2 MSTORE PUSH1 0x20 ADD DUP3 DUP1 SLOAD PUSH2 0x1D67 SWAP1 PUSH2 0x5946 JUMP JUMPDEST DUP1 ISZERO PUSH2 0x1DB4 JUMPI DUP1 PUSH1 0x1F LT PUSH2 0x1D89 JUMPI PUSH2 0x100 DUP1 DUP4 SLOAD DIV MUL DUP4 MSTORE SWAP2 PUSH1 0x20 ADD SWAP2 PUSH2 0x1DB4 JUMP JUMPDEST DUP3 ADD SWAP2 SWAP1 PUSH1 0x0 MSTORE PUSH1 0x20 PUSH1 0x0 KECCAK256 SWAP1 JUMPDEST DUP2 SLOAD DUP2 MSTORE SWAP1 PUSH1 0x1 ADD SWAP1 PUSH1 0x20 ADD DUP1 DUP4 GT PUSH2 0x1D97 JUMPI DUP3 SWAP1 SUB PUSH1 0x1F AND DUP3 ADD SWAP2 JUMPDEST POP POP POP SWAP2 DUP4 MSTORE POP POP PUSH1 0x3 DUP3 ADD SLOAD PUSH1 0x1 PUSH1 0x1 PUSH1 0xA0 SHL SUB SWAP1 DUP2 AND PUSH1 0x20 DUP4 ADD MSTORE PUSH1 0x4 DUP4 ADD SLOAD PUSH1 0x40 DUP4 ADD MSTORE PUSH1 0x5 DUP4 ADD SLOAD PUSH1 0x60 DUP4 ADD MSTORE PUSH1 0x6 DUP4 ADD SLOAD PUSH1 0x80 DUP4 ADD MSTORE PUSH1 0x7 DUP4 ADD SLOAD PUSH1 0xFF SWAP1 DUP2 AND ISZERO ISZERO PUSH1 0xA0 DUP5 ADD MSTORE PUSH1 0x8 DUP5 ADD SLOAD PUSH1 0xC0 DUP5 ADD MSTORE PUSH1 0x9 SWAP1 SWAP4 ADD SLOAD SWAP1 DUP2 AND PUSH1 0xE0 DUP4 ADD MSTORE PUSH1 0x1 PUSH1 0xA0 SHL SWAP1 DIV SWAP1 SWAP2 AND ISZERO ISZERO PUSH2 0x100 SWAP1 SWAP2 ADD MSTORE SWAP5 SWAP4 POP POP POP POP JUMP JUMPDEST PUSH2 0x1E67 PUSH1 0x40 MLOAD DUP1 PUSH1 0x80 ADD PUSH1 0x40 MSTORE DUP1 PUSH1 0x0 DUP2 MSTORE PUSH1 0x20 ADD PUSH1 0x0 DUP2 MSTORE PUSH1 0x20 ADD PUSH1 0x0 PUSH1 0x1 PUSH1 0x1 PUSH1 0xA0 SHL SUB AND DUP2 MSTORE PUSH1 0x20 ADD PUSH1 0x0 DUP2 MSTORE POP SWAP1 JUMP JUMPDEST PUSH1 0x64 PUSH1 0x0 DUP2 DUP2 MSTORE PUSH1 0xD PUSH1 0x20 SWAP1 DUP2 MSTORE PUSH1 0x40 DUP1 MLOAD PUSH2 0x160 DUP2 ADD DUP3 MSTORE PUSH32 0x816F36130A06C897EC411BF59D06163B0EE29E27B58D1183BBD41C477319952D DUP1 SLOAD DUP3 MSTORE PUSH32 0x816F36130A06C897EC411BF59D06163B0EE29E27B58D1183BBD41C477319952E SLOAD SWAP4 DUP3 ADD SWAP4 SWAP1 SWAP4 MSTORE PUSH32 0x816F36130A06C897EC411BF59D06163B0EE29E27B58D1183BBD41C477319952F DUP1 SLOAD SWAP2 SWAP4 SWAP3 DUP5 ADD SWAP2 PUSH2 0x1F00 SWAP1 PUSH2 0x5946 JUMP JUMPDEST DUP1 PUSH1 0x1F ADD PUSH1 0x20 DUP1 SWAP2 DIV MUL PUSH1 0x20 ADD PUSH1 0x40 MLOAD SWAP1 DUP2 ADD PUSH1 0x40 MSTORE DUP1 SWAP3 SWAP2 SWAP1 DUP2 DUP2 MSTORE PUSH1 0x20 ADD DUP3 DUP1 SLOAD PUSH2 0x1F2C SWAP1 PUSH2 0x5946 JUMP JUMPDEST DUP1 ISZERO PUSH2 0x1F79 JUMPI DUP1 PUSH1 0x1F LT PUSH2 0x1F4E JUMPI PUSH2 0x100 DUP1 DUP4 SLOAD DIV MUL DUP4 MSTORE SWAP2 PUSH1 0x20 ADD SWAP2 PUSH2 0x1F79 JUMP JUMPDEST DUP3 ADD SWAP2 SWAP1 PUSH1 0x0 MSTORE PUSH1 0x20 PUSH1 0x0 KECCAK256 SWAP1 JUMPDEST DUP2 SLOAD DUP2 MSTORE SWAP1 PUSH1 0x1 ADD SWAP1 PUSH1 0x20 ADD DUP1 DUP4 GT PUSH2 0x1F5C JUMPI DUP3 SWAP1 SUB PUSH1 0x1F AND DUP3 ADD SWAP2 JUMPDEST POP POP POP SWAP2 DUP4 MSTORE POP POP PUSH1 0x3 DUP3 ADD SLOAD PUSH1 0x1 PUSH1 0x1 PUSH1 0xA0 SHL SUB SWAP1 DUP2 AND PUSH1 0x20 DUP1 DUP5 ADD SWAP2 SWAP1 SWAP2 MSTORE PUSH1 0x4 DUP1 DUP6 ADD SLOAD PUSH1 0x40 DUP6 ADD MSTORE PUSH1 0x5 DUP6 ADD SLOAD PUSH1 0x60 DUP6 ADD MSTORE PUSH1 0x6 DUP6 ADD SLOAD PUSH1 0x80 DUP6 ADD MSTORE PUSH1 0x7 DUP6 ADD SLOAD PUSH1 0xFF SWAP1 DUP2 AND ISZERO ISZERO PUSH1 0xA0 DUP7 ADD MSTORE PUSH1 0x8 DUP7 ADD SLOAD PUSH1 0xC0 DUP7 ADD MSTORE PUSH1 0x9 SWAP1 SWAP6 ADD SLOAD SWAP3 DUP4 AND PUSH1 0xE0 DUP6 ADD MSTORE PUSH1 0x1 PUSH1 0xA0 SHL SWAP1 SWAP3 DIV SWAP1 SWAP4 AND ISZERO ISZERO PUSH2 0x100 SWAP1 SWAP3 ADD SWAP2 SWAP1 SWAP2 MSTORE SWAP1 DUP3 ADD MLOAD SWAP2 SWAP3 POP GT PUSH2 0x201D JUMPI PUSH1 0x40 MLOAD PUSH3 0x461BCD PUSH1 0xE5 SHL DUP2 MSTORE PUSH1 0x4 ADD PUSH2 0x569 SWAP1 PUSH2 0x5981 JUMP JUMPDEST POP POP POP PUSH1 0x1 PUSH1 0x1 PUSH1 0xA0 SHL SUB SWAP1 DUP2 AND PUSH1 0x0 SWAP1 DUP2 MSTORE PUSH1 0x10 PUSH1 0x20 SWAP1 DUP2 MSTORE PUSH1 0x40 SWAP2 DUP3 SWAP1 KECCAK256 DUP3 MLOAD PUSH1 0x80 DUP2 ADD DUP5 MSTORE DUP2 SLOAD DUP2 MSTORE PUSH1 0x1 DUP3 ADD SLOAD SWAP3 DUP2 ADD SWAP3 SWAP1 SWAP3 MSTORE PUSH1 0x2 DUP2 ADD SLOAD SWAP1 SWAP4 AND SWAP2 DUP2 ADD SWAP2 SWAP1 SWAP2 MSTORE PUSH1 0x3 SWAP1 SWAP2 ADD SLOAD PUSH1 0x60 DUP3 ADD MSTORE SWAP1 JUMP JUMPDEST PUSH2 0x207A PUSH2 0x2B57 JUMP JUMPDEST PUSH1 0x1 PUSH1 0xB SLOAD PUSH2 0x2089 SWAP2 SWAP1 PUSH2 0x59CE JUMP JUMPDEST DUP3 GT DUP1 ISZERO PUSH2 0x20A3 JUMPI POP PUSH1 0xB SLOAD PUSH2 0x20A0 SWAP1 PUSH1 0x1 PUSH2 0x5C74 JUMP JUMPDEST DUP3 LT JUMPDEST PUSH2 0x20E5 JUMPI PUSH1 0x40 MLOAD PUSH3 0x461BCD PUSH1 0xE5 SHL DUP2 MSTORE PUSH1 0x20 PUSH1 0x4 DUP3 ADD MSTORE PUSH1 0x13 PUSH1 0x24 DUP3 ADD MSTORE PUSH19 0x496E76616C6964205479706520496E64657821 PUSH1 0x68 SHL PUSH1 0x44 DUP3 ADD MSTORE PUSH1 0x64 ADD PUSH2 0x569 JUMP JUMPDEST PUSH1 0xA PUSH1 0xB SLOAD PUSH1 0x1 PUSH2 0x20F6 SWAP2 SWAP1 PUSH2 0x5C74 JUMP JUMPDEST DUP2 SLOAD PUSH1 0x1 DUP2 ADD DUP4 SSTORE PUSH1 0x0 SWAP3 DUP4 MSTORE PUSH1 0x20 DUP1 DUP5 KECCAK256 SWAP1 SWAP2 ADD SWAP2 SWAP1 SWAP2 SSTORE DUP4 DUP3 MSTORE PUSH1 0x4 DUP2 MSTORE PUSH1 0x40 SWAP1 SWAP2 KECCAK256 DUP3 MLOAD PUSH2 0x2129 SWAP3 DUP5 ADD SWAP1 PUSH2 0x5438 JUMP JUMPDEST POP POP POP JUMP JUMPDEST PUSH1 0x7 SLOAD CALLVALUE LT ISZERO PUSH2 0x2176 JUMPI PUSH1 0x40 MLOAD PUSH3 0x461BCD PUSH1 0xE5 SHL DUP2 MSTORE PUSH1 0x20 PUSH1 0x4 DUP3 ADD MSTORE PUSH1 0x13 PUSH1 0x24 DUP3 ADD MSTORE PUSH19 0x496E73756666696369656E742066756E647321 PUSH1 0x68 SHL PUSH1 0x44 DUP3 ADD MSTORE PUSH1 0x64 ADD PUSH2 0x569 JUMP JUMPDEST DUP5 MLOAD DUP6 SWAP1 PUSH2 0x21C6 JUMPI PUSH1 0x40 MLOAD PUSH3 0x461BCD PUSH1 0xE5 SHL DUP2 MSTORE PUSH1 0x20 PUSH1 0x4 DUP3 ADD MSTORE PUSH1 0x1A PUSH1 0x24 DUP3 ADD MSTORE PUSH32 0x456E74657220612076616C69642042616C6C6F74204E616D6521000000000000 PUSH1 0x44 DUP3 ADD MSTORE PUSH1 0x64 ADD PUSH2 0x569 JUMP JUMPDEST PUSH1 0x1 DUP6 MLOAD GT PUSH2 0x2217 JUMPI PUSH1 0x40 MLOAD PUSH3 0x461BCD PUSH1 0xE5 SHL DUP2 MSTORE PUSH1 0x20 PUSH1 0x4 DUP3 ADD MSTORE PUSH1 0x1D PUSH1 0x24 DUP3 ADD MSTORE PUSH32 0x4E6F7420456E6F7567682042616C6C6F742043616E6469646174657321000000 PUSH1 0x44 DUP3 ADD MSTORE PUSH1 0x64 ADD PUSH2 0x569 JUMP JUMPDEST PUSH1 0xB SLOAD DUP5 GT ISZERO PUSH2 0x2269 JUMPI PUSH1 0x40 MLOAD PUSH3 0x461BCD PUSH1 0xE5 SHL DUP2 MSTORE PUSH1 0x20 PUSH1 0x4 DUP3 ADD MSTORE PUSH1 0x18 PUSH1 0x24 DUP3 ADD MSTORE PUSH32 0x4E6F7420612076616C69642042616C6C6F742054797065210000000000000000 PUSH1 0x44 DUP3 ADD MSTORE PUSH1 0x64 ADD PUSH2 0x569 JUMP JUMPDEST DUP2 DUP4 GT PUSH2 0x22C3 JUMPI PUSH1 0x40 MLOAD PUSH3 0x461BCD PUSH1 0xE5 SHL DUP2 MSTORE PUSH1 0x20 PUSH1 0x4 DUP3 ADD MSTORE PUSH1 0x22 PUSH1 0x24 DUP3 ADD MSTORE PUSH32 0x526567697374726174696F6E20506572696F64203E20566F74696E6720446179 PUSH1 0x44 DUP3 ADD MSTORE PUSH2 0x7321 PUSH1 0xF0 SHL PUSH1 0x64 DUP3 ADD MSTORE PUSH1 0x84 ADD PUSH2 0x569 JUMP JUMPDEST PUSH1 0x0 DUP3 GT PUSH2 0x231E JUMPI PUSH1 0x40 MLOAD PUSH3 0x461BCD PUSH1 0xE5 SHL DUP2 MSTORE PUSH1 0x20 PUSH1 0x4 DUP3 ADD MSTORE PUSH1 0x22 PUSH1 0x24 DUP3 ADD MSTORE PUSH32 0x526567697374726174696F6E20506572696F642073686F756C64206265203E20 PUSH1 0x44 DUP3 ADD MSTORE PUSH2 0x3121 PUSH1 0xF0 SHL PUSH1 0x64 DUP3 ADD MSTORE PUSH1 0x84 ADD PUSH2 0x569 JUMP JUMPDEST PUSH1 0x2 SLOAD PUSH1 0x0 SWAP1 DUP2 MSTORE PUSH1 0xE PUSH1 0x20 SWAP1 DUP2 MSTORE PUSH1 0x40 SWAP1 SWAP2 KECCAK256 DUP7 MLOAD PUSH2 0x2340 SWAP3 DUP9 ADD SWAP1 PUSH2 0x54BC JUMP JUMPDEST POP DUP5 MLOAD PUSH1 0x0 JUMPDEST DUP2 DUP2 LT ISZERO PUSH2 0x2435 JUMPI PUSH1 0x0 PUSH1 0x40 MLOAD DUP1 PUSH1 0x80 ADD PUSH1 0x40 MSTORE DUP1 PUSH1 0x3 SLOAD DUP2 MSTORE PUSH1 0x20 ADD PUSH1 0x2 SLOAD DUP2 MSTORE PUSH1 0x20 ADD DUP10 DUP5 DUP2 MLOAD DUP2 LT PUSH2 0x237D JUMPI PUSH2 0x237D PUSH2 0x59E5 JUMP JUMPDEST PUSH1 0x20 MUL PUSH1 0x20 ADD ADD MLOAD PUSH1 0x1 PUSH1 0x1 PUSH1 0xA0 SHL SUB AND DUP2 MSTORE PUSH1 0x20 ADD PUSH1 0x0 DUP2 MSTORE POP SWAP1 POP DUP1 PUSH1 0x10 PUSH1 0x0 DUP11 DUP6 DUP2 MLOAD DUP2 LT PUSH2 0x23B1 JUMPI PUSH2 0x23B1 PUSH2 0x59E5 JUMP JUMPDEST PUSH1 0x20 SWAP1 DUP2 MUL SWAP2 SWAP1 SWAP2 ADD DUP2 ADD MLOAD PUSH1 0x1 PUSH1 0x1 PUSH1 0xA0 SHL SUB SWAP1 DUP2 AND DUP4 MSTORE DUP3 DUP3 ADD SWAP4 SWAP1 SWAP4 MSTORE PUSH1 0x40 SWAP2 DUP3 ADD PUSH1 0x0 SWAP1 DUP2 KECCAK256 DUP6 MLOAD DUP2 SSTORE SWAP2 DUP6 ADD MLOAD PUSH1 0x1 DUP4 ADD SSTORE SWAP2 DUP5 ADD MLOAD PUSH1 0x2 DUP3 ADD DUP1 SLOAD PUSH1 0x1 PUSH1 0x1 PUSH1 0xA0 SHL SUB NOT AND SWAP2 SWAP1 SWAP5 AND OR SWAP1 SWAP3 SSTORE PUSH1 0x60 SWAP1 SWAP3 ADD MLOAD PUSH1 0x3 SWAP2 DUP3 ADD SSTORE DUP1 SLOAD SWAP2 PUSH2 0x241C DUP4 PUSH2 0x5C8C JUMP JUMPDEST SWAP2 SWAP1 POP SSTORE POP POP DUP1 DUP1 PUSH2 0x242D SWAP1 PUSH2 0x5C8C JUMP JUMPDEST SWAP2 POP POP PUSH2 0x2346 JUMP JUMPDEST POP PUSH1 0x40 DUP1 MLOAD PUSH2 0x160 DUP2 ADD DUP3 MSTORE PUSH1 0x2 DUP1 SLOAD DUP1 DUP4 MSTORE PUSH1 0x20 DUP1 DUP5 ADD DUP11 DUP2 MSTORE DUP5 DUP7 ADD DUP14 DUP2 MSTORE CALLER PUSH1 0x60 DUP8 ADD MSTORE PUSH1 0x0 PUSH1 0x80 DUP8 ADD DUP2 SWAP1 MSTORE TIMESTAMP PUSH1 0xA0 DUP9 ADD MSTORE PUSH1 0xC0 DUP8 ADD DUP13 SWAP1 MSTORE PUSH1 0xE0 DUP8 ADD DUP2 SWAP1 MSTORE PUSH2 0x100 DUP8 ADD DUP12 SWAP1 MSTORE PUSH2 0x120 DUP8 ADD DUP2 SWAP1 MSTORE PUSH2 0x140 DUP8 ADD DUP2 SWAP1 MSTORE SWAP4 DUP5 MSTORE PUSH1 0xD DUP4 MSTORE SWAP6 SWAP1 SWAP3 KECCAK256 DUP5 MLOAD DUP2 SSTORE SWAP2 MLOAD PUSH1 0x1 DUP4 ADD SSTORE SWAP4 MLOAD DUP1 MLOAD SWAP4 SWAP5 DUP6 SWAP5 SWAP3 SWAP4 PUSH2 0x24C2 SWAP4 SWAP1 DUP6 ADD SWAP3 SWAP1 SWAP2 ADD SWAP1 PUSH2 0x5438 JUMP JUMPDEST POP PUSH1 0x60 DUP3 ADD MLOAD PUSH1 0x3 DUP3 ADD DUP1 SLOAD PUSH1 0x1 PUSH1 0x1 PUSH1 0xA0 SHL SUB NOT AND PUSH1 0x1 PUSH1 0x1 PUSH1 0xA0 SHL SUB SWAP3 DUP4 AND OR SWAP1 SSTORE PUSH1 0x80 DUP4 ADD MLOAD PUSH1 0x4 DUP4 ADD SSTORE PUSH1 0xA0 DUP4 ADD MLOAD PUSH1 0x5 DUP1 DUP5 ADD SWAP2 SWAP1 SWAP2 SSTORE PUSH1 0xC0 DUP5 ADD MLOAD PUSH1 0x6 DUP5 ADD SSTORE PUSH1 0xE0 DUP5 ADD MLOAD PUSH1 0x7 DUP5 ADD DUP1 SLOAD PUSH1 0xFF NOT AND SWAP2 ISZERO ISZERO SWAP2 SWAP1 SWAP2 OR SWAP1 SSTORE PUSH2 0x100 DUP5 ADD MLOAD PUSH1 0x8 DUP5 ADD SSTORE PUSH2 0x120 DUP5 ADD MLOAD PUSH1 0x9 SWAP1 SWAP4 ADD DUP1 SLOAD PUSH2 0x140 SWAP1 SWAP6 ADD MLOAD SWAP4 SWAP1 SWAP3 AND PUSH1 0x1 PUSH1 0x1 PUSH1 0xA8 SHL SUB NOT SWAP1 SWAP5 AND SWAP4 SWAP1 SWAP4 OR PUSH1 0x1 PUSH1 0xA0 SHL SWAP3 ISZERO ISZERO SWAP3 SWAP1 SWAP3 MUL SWAP2 SWAP1 SWAP2 OR SWAP1 SSTORE DUP1 SLOAD PUSH1 0x1 DUP2 ADD DUP3 SSTORE PUSH1 0x0 SWAP2 SWAP1 SWAP2 MSTORE DUP2 MLOAD PUSH32 0x36B6384B5ECA791C62761152D0C79BB0604C104A5FB6F4EB0703F3154BB3DB0 PUSH1 0xA SWAP1 SWAP3 MUL SWAP2 DUP3 ADD SWAP1 DUP2 SSTORE PUSH1 0x20 DUP1 DUP5 ADD MLOAD PUSH32 0x36B6384B5ECA791C62761152D0C79BB0604C104A5FB6F4EB0703F3154BB3DB1 DUP5 ADD SSTORE PUSH1 0x40 DUP5 ADD MLOAD DUP1 MLOAD DUP6 SWAP5 PUSH2 0x2604 SWAP4 PUSH32 0x36B6384B5ECA791C62761152D0C79BB0604C104A5FB6F4EB0703F3154BB3DB2 SWAP1 SWAP2 ADD SWAP3 ADD SWAP1 PUSH2 0x5438 JUMP JUMPDEST POP PUSH1 0x60 DUP3 ADD MLOAD PUSH1 0x3 DUP3 ADD DUP1 SLOAD PUSH1 0x1 PUSH1 0x1 PUSH1 0xA0 SHL SUB NOT AND PUSH1 0x1 PUSH1 0x1 PUSH1 0xA0 SHL SUB SWAP3 DUP4 AND OR SWAP1 SSTORE PUSH1 0x80 DUP4 ADD MLOAD PUSH1 0x4 DUP4 ADD SSTORE PUSH1 0xA0 DUP4 ADD MLOAD PUSH1 0x5 DUP4 ADD SSTORE PUSH1 0xC0 DUP4 ADD MLOAD PUSH1 0x6 DUP4 ADD SSTORE PUSH1 0xE0 DUP4 ADD MLOAD PUSH1 0x7 DUP4 ADD DUP1 SLOAD PUSH1 0xFF NOT AND SWAP2 ISZERO ISZERO SWAP2 SWAP1 SWAP2 OR SWAP1 SSTORE PUSH2 0x100 DUP4 ADD MLOAD PUSH1 0x8 DUP4 ADD SSTORE PUSH2 0x120 DUP4 ADD MLOAD PUSH1 0x9 SWAP1 SWAP3 ADD DUP1 SLOAD PUSH2 0x140 SWAP1 SWAP5 ADD MLOAD SWAP3 SWAP1 SWAP2 AND PUSH1 0x1 PUSH1 0x1 PUSH1 0xA8 SHL SUB NOT SWAP1 SWAP4 AND SWAP3 SWAP1 SWAP3 OR PUSH1 0x1 PUSH1 0xA0 SHL SWAP2 ISZERO ISZERO SWAP2 SWAP1 SWAP2 MUL OR SWAP1 SSTORE CALLER PUSH1 0x0 SWAP1 DUP2 MSTORE PUSH1 0xC PUSH1 0x20 SWAP1 DUP2 MSTORE PUSH1 0x40 SWAP2 DUP3 SWAP1 KECCAK256 DUP4 MLOAD DUP2 SSTORE DUP4 DUP3 ADD MLOAD PUSH1 0x1 DUP3 ADD SSTORE SWAP2 DUP4 ADD MLOAD DUP1 MLOAD DUP5 SWAP4 SWAP3 PUSH2 0x26DA SWAP3 PUSH1 0x2 DUP6 ADD SWAP3 SWAP2 ADD SWAP1 PUSH2 0x5438 JUMP JUMPDEST POP PUSH1 0x60 DUP3 ADD MLOAD PUSH1 0x3 DUP3 ADD DUP1 SLOAD PUSH1 0x1 PUSH1 0x1 PUSH1 0xA0 SHL SUB NOT AND PUSH1 0x1 PUSH1 0x1 PUSH1 0xA0 SHL SUB SWAP3 DUP4 AND OR SWAP1 SSTORE PUSH1 0x80 DUP4 ADD MLOAD PUSH1 0x4 DUP4 ADD SSTORE PUSH1 0xA0 DUP4 ADD MLOAD PUSH1 0x5 DUP4 ADD SSTORE PUSH1 0xC0 DUP4 ADD MLOAD PUSH1 0x6 DUP4 ADD SSTORE PUSH1 0xE0 DUP4 ADD MLOAD PUSH1 0x7 DUP4 ADD DUP1 SLOAD PUSH1 0xFF NOT AND SWAP2 ISZERO ISZERO SWAP2 SWAP1 SWAP2 OR SWAP1 SSTORE PUSH2 0x100 DUP4 ADD MLOAD PUSH1 0x8 DUP4 ADD SSTORE PUSH2 0x120 DUP4 ADD MLOAD PUSH1 0x9 SWAP1 SWAP3 ADD DUP1 SLOAD PUSH2 0x140 SWAP1 SWAP5 ADD MLOAD SWAP3 SWAP1 SWAP2 AND PUSH1 0x1 PUSH1 0x1 PUSH1 0xA8 SHL SUB NOT SWAP1 SWAP4 AND SWAP3 SWAP1 SWAP3 OR PUSH1 0x1 PUSH1 0xA0 SHL SWAP2 ISZERO ISZERO SWAP2 SWAP1 SWAP2 MUL OR SWAP1 SSTORE CALLER PUSH1 0x0 SWAP1 DUP2 MSTORE PUSH1 0x11 PUSH1 0x20 SWAP1 DUP2 MSTORE PUSH1 0x40 SWAP1 SWAP2 KECCAK256 DUP9 MLOAD PUSH2 0x2796 SWAP3 DUP11 ADD SWAP1 PUSH2 0x54BC JUMP JUMPDEST POP PUSH1 0x8 DUP1 SLOAD SWAP1 PUSH1 0x0 PUSH2 0x27A7 DUP4 PUSH2 0x5C8C JUMP JUMPDEST SWAP1 SWAP2 SSTORE POP POP PUSH1 0x2 DUP1 SLOAD SWAP1 PUSH1 0x0 PUSH2 0x27BC DUP4 PUSH2 0x5C8C JUMP JUMPDEST SWAP1 SWAP2 SSTORE POP POP PUSH1 0x40 MLOAD DUP7 DUP2 MSTORE PUSH32 0x3302601C0B6AD9794207D2EB4A29C724DB57C9348BF10DFFCC98C9D89E6D9C52 SWAP1 PUSH1 0x20 ADD PUSH1 0x40 MLOAD DUP1 SWAP2 SUB SWAP1 LOG1 POP POP POP POP POP POP POP POP JUMP JUMPDEST PUSH1 0x60 DUP2 PUSH1 0x0 PUSH1 0xD PUSH1 0x0 DUP4 DUP2 MSTORE PUSH1 0x20 ADD SWAP1 DUP2 MSTORE PUSH1 0x20 ADD PUSH1 0x0 KECCAK256 PUSH1 0x40 MLOAD DUP1 PUSH2 0x160 ADD PUSH1 0x40 MSTORE SWAP1 DUP2 PUSH1 0x0 DUP3 ADD SLOAD DUP2 MSTORE PUSH1 0x20 ADD PUSH1 0x1 DUP3 ADD SLOAD DUP2 MSTORE PUSH1 0x20 ADD PUSH1 0x2 DUP3 ADD DUP1 SLOAD PUSH2 0x2846 SWAP1 PUSH2 0x5946 JUMP JUMPDEST DUP1 PUSH1 0x1F ADD PUSH1 0x20 DUP1 SWAP2 DIV MUL PUSH1 0x20 ADD PUSH1 0x40 MLOAD SWAP1 DUP2 ADD PUSH1 0x40 MSTORE DUP1 SWAP3 SWAP2 SWAP1 DUP2 DUP2 MSTORE PUSH1 0x20 ADD DUP3 DUP1 SLOAD PUSH2 0x2872 SWAP1 PUSH2 0x5946 JUMP JUMPDEST DUP1 ISZERO PUSH2 0x28BF JUMPI DUP1 PUSH1 0x1F LT PUSH2 0x2894 JUMPI PUSH2 0x100 DUP1 DUP4 SLOAD DIV MUL DUP4 MSTORE SWAP2 PUSH1 0x20 ADD SWAP2 PUSH2 0x28BF JUMP JUMPDEST DUP3 ADD SWAP2 SWAP1 PUSH1 0x0 MSTORE PUSH1 0x20 PUSH1 0x0 KECCAK256 SWAP1 JUMPDEST DUP2 SLOAD DUP2 MSTORE SWAP1 PUSH1 0x1 ADD SWAP1 PUSH1 0x20 ADD DUP1 DUP4 GT PUSH2 0x28A2 JUMPI DUP3 SWAP1 SUB PUSH1 0x1F AND DUP3 ADD SWAP2 JUMPDEST POP POP POP SWAP2 DUP4 MSTORE POP POP PUSH1 0x3 DUP3 ADD SLOAD PUSH1 0x1 PUSH1 0x1 PUSH1 0xA0 SHL SUB SWAP1 DUP2 AND PUSH1 0x20 DUP1 DUP5 ADD SWAP2 SWAP1 SWAP2 MSTORE PUSH1 0x4 DUP1 DUP6 ADD SLOAD PUSH1 0x40 DUP6 ADD MSTORE PUSH1 0x5 DUP6 ADD SLOAD PUSH1 0x60 DUP6 ADD MSTORE PUSH1 0x6 DUP6 ADD SLOAD PUSH1 0x80 DUP6 ADD MSTORE PUSH1 0x7 DUP6 ADD SLOAD PUSH1 0xFF SWAP1 DUP2 AND ISZERO ISZERO PUSH1 0xA0 DUP7 ADD MSTORE PUSH1 0x8 DUP7 ADD SLOAD PUSH1 0xC0 DUP7 ADD MSTORE PUSH1 0x9 SWAP1 SWAP6 ADD SLOAD SWAP3 DUP4 AND PUSH1 0xE0 DUP6 ADD MSTORE PUSH1 0x1 PUSH1 0xA0 SHL SWAP1 SWAP3 DIV SWAP1 SWAP4 AND ISZERO ISZERO PUSH2 0x100 SWAP1 SWAP3 ADD SWAP2 SWAP1 SWAP2 MSTORE SWAP1 DUP3 ADD MLOAD SWAP2 SWAP3 POP GT PUSH2 0x2963 JUMPI PUSH1 0x40 MLOAD PUSH3 0x461BCD PUSH1 0xE5 SHL DUP2 MSTORE PUSH1 0x4 ADD PUSH2 0x569 SWAP1 PUSH2 0x5981 JUMP JUMPDEST PUSH1 0x0 DUP5 DUP2 MSTORE PUSH1 0xF PUSH1 0x20 SWAP1 DUP2 MSTORE PUSH1 0x40 SWAP2 DUP3 SWAP1 KECCAK256 DUP1 SLOAD DUP4 MLOAD DUP2 DUP5 MUL DUP2 ADD DUP5 ADD SWAP1 SWAP5 MSTORE DUP1 DUP5 MSTORE SWAP1 SWAP2 DUP4 ADD DUP3 DUP3 DUP1 ISZERO PUSH2 0x29C1 JUMPI PUSH1 0x20 MUL DUP3 ADD SWAP2 SWAP1 PUSH1 0x0 MSTORE PUSH1 0x20 PUSH1 0x0 KECCAK256 SWAP1 JUMPDEST DUP2 SLOAD PUSH1 0x1 PUSH1 0x1 PUSH1 0xA0 SHL SUB AND DUP2 MSTORE PUSH1 0x1 SWAP1 SWAP2 ADD SWAP1 PUSH1 0x20 ADD DUP1 DUP4 GT PUSH2 0x29A3 JUMPI JUMPDEST POP POP POP POP POP SWAP3 POP POP POP SWAP2 SWAP1 POP JUMP JUMPDEST PUSH2 0x29D7 PUSH2 0x2B57 JUMP JUMPDEST PUSH1 0x1 PUSH1 0x1 PUSH1 0xA0 SHL SUB DUP2 AND PUSH2 0x2A3C JUMPI PUSH1 0x40 MLOAD PUSH3 0x461BCD PUSH1 0xE5 SHL DUP2 MSTORE PUSH1 0x20 PUSH1 0x4 DUP3 ADD MSTORE PUSH1 0x26 PUSH1 0x24 DUP3 ADD MSTORE PUSH32 0x4F776E61626C653A206E6577206F776E657220697320746865207A65726F2061 PUSH1 0x44 DUP3 ADD MSTORE PUSH6 0x646472657373 PUSH1 0xD0 SHL PUSH1 0x64 DUP3 ADD MSTORE PUSH1 0x84 ADD PUSH2 0x569 JUMP JUMPDEST PUSH2 0x1077 DUP2 PUSH2 0x4998 JUMP JUMPDEST PUSH1 0x0 SLOAD PUSH2 0x100 SWAP1 DIV PUSH1 0xFF AND ISZERO DUP1 DUP1 ISZERO PUSH2 0x2A65 JUMPI POP PUSH1 0x0 SLOAD PUSH1 0x1 PUSH1 0xFF SWAP1 SWAP2 AND LT JUMPDEST DUP1 PUSH2 0x2A7F JUMPI POP ADDRESS EXTCODESIZE ISZERO DUP1 ISZERO PUSH2 0x2A7F JUMPI POP PUSH1 0x0 SLOAD PUSH1 0xFF AND PUSH1 0x1 EQ JUMPDEST PUSH2 0x2AE2 JUMPI PUSH1 0x40 MLOAD PUSH3 0x461BCD PUSH1 0xE5 SHL DUP2 MSTORE PUSH1 0x20 PUSH1 0x4 DUP3 ADD MSTORE PUSH1 0x2E PUSH1 0x24 DUP3 ADD MSTORE PUSH32 0x496E697469616C697A61626C653A20636F6E747261637420697320616C726561 PUSH1 0x44 DUP3 ADD MSTORE PUSH14 0x191E481A5B9A5D1A585B1A5E9959 PUSH1 0x92 SHL PUSH1 0x64 DUP3 ADD MSTORE PUSH1 0x84 ADD PUSH2 0x569 JUMP JUMPDEST PUSH1 0x0 DUP1 SLOAD PUSH1 0xFF NOT AND PUSH1 0x1 OR SWAP1 SSTORE DUP1 ISZERO PUSH2 0x2B05 JUMPI PUSH1 0x0 DUP1 SLOAD PUSH2 0xFF00 NOT AND PUSH2 0x100 OR SWAP1 SSTORE JUMPDEST PUSH2 0x2B0D PUSH2 0x49F3 JUMP JUMPDEST DUP1 ISZERO PUSH2 0x2B53 JUMPI PUSH1 0x0 DUP1 SLOAD PUSH2 0xFF00 NOT AND SWAP1 SSTORE PUSH1 0x40 MLOAD PUSH1 0x1 DUP2 MSTORE PUSH32 0x7F26B83FF96E1F2B6A682F133852F6798A09C465DA95921460CEFB3847402498 SWAP1 PUSH1 0x20 ADD PUSH1 0x40 MLOAD DUP1 SWAP2 SUB SWAP1 LOG1 JUMPDEST POP POP JUMP JUMPDEST PUSH1 0x0 SLOAD PUSH1 0x1 PUSH1 0x1 PUSH1 0xA0 SHL SUB PUSH3 0x10000 SWAP1 SWAP2 DIV AND CALLER EQ PUSH2 0x1B20 JUMPI PUSH1 0x40 MLOAD PUSH3 0x461BCD PUSH1 0xE5 SHL DUP2 MSTORE PUSH1 0x20 PUSH1 0x4 DUP3 ADD DUP2 SWAP1 MSTORE PUSH1 0x24 DUP3 ADD MSTORE PUSH32 0x4F776E61626C653A2063616C6C6572206973206E6F7420746865206F776E6572 PUSH1 0x44 DUP3 ADD MSTORE PUSH1 0x64 ADD PUSH2 0x569 JUMP JUMPDEST DUP2 MLOAD PUSH1 0x0 SWAP1 DUP2 JUMPDEST DUP2 DUP2 LT ISZERO PUSH2 0x2C05 JUMPI DUP4 DUP6 DUP3 DUP2 MLOAD DUP2 LT PUSH2 0x2BDA JUMPI PUSH2 0x2BDA PUSH2 0x59E5 JUMP JUMPDEST PUSH1 0x20 MUL PUSH1 0x20 ADD ADD MLOAD EQ ISZERO PUSH2 0x2BF3 JUMPI PUSH1 0x1 SWAP3 POP POP POP PUSH2 0x2C0C JUMP JUMPDEST DUP1 PUSH2 0x2BFD DUP2 PUSH2 0x5C8C JUMP JUMPDEST SWAP2 POP POP PUSH2 0x2BBF JUMP JUMPDEST POP PUSH1 0x0 SWAP2 POP POP JUMPDEST SWAP3 SWAP2 POP POP JUMP JUMPDEST DUP2 DUP2 PUSH1 0x0 PUSH1 0xD PUSH1 0x0 DUP4 DUP2 MSTORE PUSH1 0x20 ADD SWAP1 DUP2 MSTORE PUSH1 0x20 ADD PUSH1 0x0 KECCAK256 PUSH1 0x40 MLOAD DUP1 PUSH2 0x160 ADD PUSH1 0x40 MSTORE SWAP1 DUP2 PUSH1 0x0 DUP3 ADD SLOAD DUP2 MSTORE PUSH1 0x20 ADD PUSH1 0x1 DUP3 ADD SLOAD DUP2 MSTORE PUSH1 0x20 ADD PUSH1 0x2 DUP3 ADD DUP1 SLOAD PUSH2 0x2C59 SWAP1 PUSH2 0x5946 JUMP JUMPDEST DUP1 PUSH1 0x1F ADD PUSH1 0x20 DUP1 SWAP2 DIV MUL PUSH1 0x20 ADD PUSH1 0x40 MLOAD SWAP1 DUP2 ADD PUSH1 0x40 MSTORE DUP1 SWAP3 SWAP2 SWAP1 DUP2 DUP2 MSTORE PUSH1 0x20 ADD DUP3 DUP1 SLOAD PUSH2 0x2C85 SWAP1 PUSH2 0x5946 JUMP JUMPDEST DUP1 ISZERO PUSH2 0x2CD2 JUMPI DUP1 PUSH1 0x1F LT PUSH2 0x2CA7 JUMPI PUSH2 0x100 DUP1 DUP4 SLOAD DIV MUL DUP4 MSTORE SWAP2 PUSH1 0x20 ADD SWAP2 PUSH2 0x2CD2 JUMP JUMPDEST DUP3 ADD SWAP2 SWAP1 PUSH1 0x0 MSTORE PUSH1 0x20 PUSH1 0x0 KECCAK256 SWAP1 JUMPDEST DUP2 SLOAD DUP2 MSTORE SWAP1 PUSH1 0x1 ADD SWAP1 PUSH1 0x20 ADD DUP1 DUP4 GT PUSH2 0x2CB5 JUMPI DUP3 SWAP1 SUB PUSH1 0x1F AND DUP3 ADD SWAP2 JUMPDEST POP POP POP SWAP2 DUP4 MSTORE POP POP PUSH1 0x3 DUP3 ADD SLOAD PUSH1 0x1 PUSH1 0x1 PUSH1 0xA0 SHL SUB SWAP1 DUP2 AND PUSH1 0x20 DUP4 ADD MSTORE PUSH1 0x4 DUP4 ADD SLOAD PUSH1 0x40 DUP4 ADD MSTORE PUSH1 0x5 DUP4 ADD SLOAD PUSH1 0x60 DUP4 ADD MSTORE PUSH1 0x6 DUP4 ADD SLOAD PUSH1 0x80 DUP4 ADD MSTORE PUSH1 0x7 DUP4 ADD SLOAD PUSH1 0xFF SWAP1 DUP2 AND ISZERO ISZERO PUSH1 0xA0 DUP1 DUP6 ADD SWAP2 SWAP1 SWAP2 MSTORE PUSH1 0x8 DUP6 ADD SLOAD PUSH1 0xC0 DUP6 ADD MSTORE PUSH1 0x9 SWAP1 SWAP5 ADD SLOAD SWAP2 DUP3 AND PUSH1 0xE0 DUP5 ADD MSTORE PUSH1 0x1 PUSH1 0xA0 SHL SWAP1 SWAP2 DIV AND ISZERO ISZERO PUSH2 0x100 SWAP1 SWAP2 ADD MSTORE DUP2 ADD MLOAD SWAP1 SWAP2 POP PUSH1 0x0 SWAP1 PUSH2 0x2D5F SWAP1 TIMESTAMP PUSH2 0x59CE JUMP JUMPDEST PUSH1 0x5 SLOAD SWAP1 SWAP2 POP PUSH1 0x1 DUP2 LT ISZERO PUSH2 0x2D86 JUMPI PUSH1 0x40 MLOAD PUSH3 0x461BCD PUSH1 0xE5 SHL DUP2 MSTORE PUSH1 0x4 ADD PUSH2 0x569 SWAP1 PUSH2 0x59FB JUMP JUMPDEST PUSH1 0xC0 DUP4 ADD MLOAD PUSH2 0x2D98 SWAP1 PUSH3 0x15180 PUSH2 0x5A7B JUMP JUMPDEST DUP3 LT PUSH2 0x2DB6 JUMPI PUSH1 0x40 MLOAD PUSH3 0x461BCD PUSH1 0xE5 SHL DUP2 MSTORE PUSH1 0x4 ADD PUSH2 0x569 SWAP1 PUSH2 0x5A2B JUMP JUMPDEST CALLER PUSH1 0x0 SWAP1 DUP2 MSTORE PUSH1 0x15 PUSH1 0x20 SWAP1 DUP2 MSTORE PUSH1 0x40 SWAP2 DUP3 SWAP1 KECCAK256 DUP1 SLOAD DUP4 MLOAD DUP2 DUP5 MUL DUP2 ADD DUP5 ADD SWAP1 SWAP5 MSTORE DUP1 DUP5 MSTORE PUSH2 0x2E17 SWAP4 SWAP3 DUP4 ADD DUP3 DUP3 DUP1 ISZERO PUSH2 0x1276 JUMPI PUSH1 0x20 MUL DUP3 ADD SWAP2 SWAP1 PUSH1 0x0 MSTORE PUSH1 0x20 PUSH1 0x0 KECCAK256 SWAP1 DUP2 SLOAD DUP2 MSTORE PUSH1 0x20 ADD SWAP1 PUSH1 0x1 ADD SWAP1 DUP1 DUP4 GT PUSH2 0x1262 JUMPI POP POP POP POP POP DUP6 PUSH2 0x2BB8 JUMP JUMPDEST ISZERO PUSH2 0x2E34 JUMPI PUSH1 0x40 MLOAD PUSH3 0x461BCD PUSH1 0xE5 SHL DUP2 MSTORE PUSH1 0x4 ADD PUSH2 0x569 SWAP1 PUSH2 0x5A9A JUMP JUMPDEST PUSH1 0x0 DUP6 DUP2 MSTORE PUSH1 0x17 PUSH1 0x20 SWAP1 DUP2 MSTORE PUSH1 0x40 SWAP2 DUP3 SWAP1 KECCAK256 DUP1 SLOAD DUP4 MLOAD DUP2 DUP5 MUL DUP2 ADD DUP5 ADD SWAP1 SWAP5 MSTORE DUP1 DUP5 MSTORE PUSH2 0x2E94 SWAP4 SWAP3 DUP4 ADD DUP3 DUP3 DUP1 ISZERO PUSH2 0x1276 JUMPI PUSH1 0x20 MUL DUP3 ADD SWAP2 SWAP1 PUSH1 0x0 MSTORE PUSH1 0x20 PUSH1 0x0 KECCAK256 SWAP1 DUP2 SLOAD DUP2 MSTORE PUSH1 0x20 ADD SWAP1 PUSH1 0x1 ADD SWAP1 DUP1 DUP4 GT PUSH2 0x1262 JUMPI POP POP POP POP POP DUP6 PUSH2 0x2BB8 JUMP JUMPDEST ISZERO PUSH2 0x2EB1 JUMPI PUSH1 0x40 MLOAD PUSH3 0x461BCD PUSH1 0xE5 SHL DUP2 MSTORE PUSH1 0x4 ADD PUSH2 0x569 SWAP1 PUSH2 0x5ADC JUMP JUMPDEST PUSH2 0x100 DUP4 ADD MLOAD PUSH2 0x2EC4 SWAP1 PUSH3 0x15180 PUSH2 0x5A7B JUMP JUMPDEST DUP3 LT PUSH2 0x2EE2 JUMPI PUSH1 0x40 MLOAD PUSH3 0x461BCD PUSH1 0xE5 SHL DUP2 MSTORE PUSH1 0x4 ADD PUSH2 0x569 SWAP1 PUSH2 0x5B21 JUMP JUMPDEST PUSH1 0x0 DUP7 DUP2 MSTORE PUSH1 0xD PUSH1 0x20 MSTORE PUSH1 0x40 SWAP1 KECCAK256 PUSH1 0x1 DUP2 ADD SLOAD ISZERO PUSH2 0x2F12 JUMPI PUSH1 0x40 MLOAD PUSH3 0x461BCD PUSH1 0xE5 SHL DUP2 MSTORE PUSH1 0x4 ADD PUSH2 0x569 SWAP1 PUSH2 0x5CA7 JUMP JUMPDEST PUSH2 0x1511 DUP9 DUP9 PUSH2 0x4A9C JUMP JUMPDEST DUP2 DUP2 PUSH1 0x0 PUSH1 0xD PUSH1 0x0 DUP4 DUP2 MSTORE PUSH1 0x20 ADD SWAP1 DUP2 MSTORE PUSH1 0x20 ADD PUSH1 0x0 KECCAK256 PUSH1 0x40 MLOAD DUP1 PUSH2 0x160 ADD PUSH1 0x40 MSTORE SWAP1 DUP2 PUSH1 0x0 DUP3 ADD SLOAD DUP2 MSTORE PUSH1 0x20 ADD PUSH1 0x1 DUP3 ADD SLOAD DUP2 MSTORE PUSH1 0x20 ADD PUSH1 0x2 DUP3 ADD DUP1 SLOAD PUSH2 0x2F63 SWAP1 PUSH2 0x5946 JUMP JUMPDEST DUP1 PUSH1 0x1F ADD PUSH1 0x20 DUP1 SWAP2 DIV MUL PUSH1 0x20 ADD PUSH1 0x40 MLOAD SWAP1 DUP2 ADD PUSH1 0x40 MSTORE DUP1 SWAP3 SWAP2 SWAP1 DUP2 DUP2 MSTORE PUSH1 0x20 ADD DUP3 DUP1 SLOAD PUSH2 0x2F8F SWAP1 PUSH2 0x5946 JUMP JUMPDEST DUP1 ISZERO PUSH2 0x2FDC JUMPI DUP1 PUSH1 0x1F LT PUSH2 0x2FB1 JUMPI PUSH2 0x100 DUP1 DUP4 SLOAD DIV MUL DUP4 MSTORE SWAP2 PUSH1 0x20 ADD SWAP2 PUSH2 0x2FDC JUMP JUMPDEST DUP3 ADD SWAP2 SWAP1 PUSH1 0x0 MSTORE PUSH1 0x20 PUSH1 0x0 KECCAK256 SWAP1 JUMPDEST DUP2 SLOAD DUP2 MSTORE SWAP1 PUSH1 0x1 ADD SWAP1 PUSH1 0x20 ADD DUP1 DUP4 GT PUSH2 0x2FBF JUMPI DUP3 SWAP1 SUB PUSH1 0x1F AND DUP3 ADD SWAP2 JUMPDEST POP POP POP SWAP2 DUP4 MSTORE POP POP PUSH1 0x3 DUP3 ADD SLOAD PUSH1 0x1 PUSH1 0x1 PUSH1 0xA0 SHL SUB SWAP1 DUP2 AND PUSH1 0x20 DUP4 ADD MSTORE PUSH1 0x4 DUP4 ADD SLOAD PUSH1 0x40 DUP4 ADD MSTORE PUSH1 0x5 DUP4 ADD SLOAD PUSH1 0x60 DUP4 ADD MSTORE PUSH1 0x6 DUP4 ADD SLOAD PUSH1 0x80 DUP4 ADD MSTORE PUSH1 0x7 DUP4 ADD SLOAD PUSH1 0xFF SWAP1 DUP2 AND ISZERO ISZERO PUSH1 0xA0 DUP1 DUP6 ADD SWAP2 SWAP1 SWAP2 MSTORE PUSH1 0x8 DUP6 ADD SLOAD PUSH1 0xC0 DUP6 ADD MSTORE PUSH1 0x9 SWAP1 SWAP5 ADD SLOAD SWAP2 DUP3 AND PUSH1 0xE0 DUP5 ADD MSTORE PUSH1 0x1 PUSH1 0xA0 SHL SWAP1 SWAP2 DIV AND ISZERO ISZERO PUSH2 0x100 SWAP1 SWAP2 ADD MSTORE DUP2 ADD MLOAD SWAP1 SWAP2 POP PUSH1 0x0 SWAP1 PUSH2 0x3069 SWAP1 TIMESTAMP PUSH2 0x59CE JUMP JUMPDEST PUSH1 0x5 SLOAD SWAP1 SWAP2 POP PUSH1 0x1 DUP2 LT ISZERO PUSH2 0x3090 JUMPI PUSH1 0x40 MLOAD PUSH3 0x461BCD PUSH1 0xE5 SHL DUP2 MSTORE PUSH1 0x4 ADD PUSH2 0x569 SWAP1 PUSH2 0x59FB JUMP JUMPDEST PUSH1 0xC0 DUP4 ADD MLOAD PUSH2 0x30A2 SWAP1 PUSH3 0x15180 PUSH2 0x5A7B JUMP JUMPDEST DUP3 LT PUSH2 0x30C0 JUMPI PUSH1 0x40 MLOAD PUSH3 0x461BCD PUSH1 0xE5 SHL DUP2 MSTORE PUSH1 0x4 ADD PUSH2 0x569 SWAP1 PUSH2 0x5A2B JUMP JUMPDEST CALLER PUSH1 0x0 SWAP1 DUP2 MSTORE PUSH1 0x15 PUSH1 0x20 SWAP1 DUP2 MSTORE PUSH1 0x40 SWAP2 DUP3 SWAP1 KECCAK256 DUP1 SLOAD DUP4 MLOAD DUP2 DUP5 MUL DUP2 ADD DUP5 ADD SWAP1 SWAP5 MSTORE DUP1 DUP5 MSTORE PUSH2 0x3121 SWAP4 SWAP3 DUP4 ADD DUP3 DUP3 DUP1 ISZERO PUSH2 0x1276 JUMPI PUSH1 0x20 MUL DUP3 ADD SWAP2 SWAP1 PUSH1 0x0 MSTORE PUSH1 0x20 PUSH1 0x0 KECCAK256 SWAP1 DUP2 SLOAD DUP2 MSTORE PUSH1 0x20 ADD SWAP1 PUSH1 0x1 ADD SWAP1 DUP1 DUP4 GT PUSH2 0x1262 JUMPI POP POP POP POP POP DUP6 PUSH2 0x2BB8 JUMP JUMPDEST ISZERO PUSH2 0x313E JUMPI PUSH1 0x40 MLOAD PUSH3 0x461BCD PUSH1 0xE5 SHL DUP2 MSTORE PUSH1 0x4 ADD PUSH2 0x569 SWAP1 PUSH2 0x5A9A JUMP JUMPDEST PUSH1 0x0 DUP6 DUP2 MSTORE PUSH1 0x17 PUSH1 0x20 SWAP1 DUP2 MSTORE PUSH1 0x40 SWAP2 DUP3 SWAP1 KECCAK256 DUP1 SLOAD DUP4 MLOAD DUP2 DUP5 MUL DUP2 ADD DUP5 ADD SWAP1 SWAP5 MSTORE DUP1 DUP5 MSTORE PUSH2 0x319E SWAP4 SWAP3 DUP4 ADD DUP3 DUP3 DUP1 ISZERO PUSH2 0x1276 JUMPI PUSH1 0x20 MUL DUP3 ADD SWAP2 SWAP1 PUSH1 0x0 MSTORE PUSH1 0x20 PUSH1 0x0 KECCAK256 SWAP1 DUP2 SLOAD DUP2 MSTORE PUSH1 0x20 ADD SWAP1 PUSH1 0x1 ADD SWAP1 DUP1 DUP4 GT PUSH2 0x1262 JUMPI POP POP POP POP POP DUP6 PUSH2 0x2BB8 JUMP JUMPDEST ISZERO PUSH2 0x31BB JUMPI PUSH1 0x40 MLOAD PUSH3 0x461BCD PUSH1 0xE5 SHL DUP2 MSTORE PUSH1 0x4 ADD PUSH2 0x569 SWAP1 PUSH2 0x5ADC JUMP JUMPDEST PUSH2 0x100 DUP4 ADD MLOAD PUSH2 0x31CE SWAP1 PUSH3 0x15180 PUSH2 0x5A7B JUMP JUMPDEST DUP3 LT PUSH2 0x31EC JUMPI PUSH1 0x40 MLOAD PUSH3 0x461BCD PUSH1 0xE5 SHL DUP2 MSTORE PUSH1 0x4 ADD PUSH2 0x569 SWAP1 PUSH2 0x5B21 JUMP JUMPDEST PUSH1 0x0 DUP7 DUP2 MSTORE PUSH1 0xD PUSH1 0x20 MSTORE PUSH1 0x40 SWAP1 KECCAK256 PUSH1 0x1 DUP1 DUP3 ADD SLOAD EQ DUP1 PUSH2 0x3210 JUMPI POP DUP1 PUSH1 0x1 ADD SLOAD PUSH1 0x4 EQ JUMPDEST PUSH2 0x322C JUMPI PUSH1 0x40 MLOAD PUSH3 0x461BCD PUSH1 0xE5 SHL DUP2 MSTORE PUSH1 0x4 ADD PUSH2 0x569 SWAP1 PUSH2 0x5CA7 JUMP JUMPDEST PUSH2 0x1511 DUP9 DUP9 PUSH2 0x4DD1 JUMP JUMPDEST DUP2 DUP2 PUSH1 0x0 PUSH1 0xD PUSH1 0x0 DUP4 DUP2 MSTORE PUSH1 0x20 ADD SWAP1 DUP2 MSTORE PUSH1 0x20 ADD PUSH1 0x0 KECCAK256 PUSH1 0x40 MLOAD DUP1 PUSH2 0x160 ADD PUSH1 0x40 MSTORE SWAP1 DUP2 PUSH1 0x0 DUP3 ADD SLOAD DUP2 MSTORE PUSH1 0x20 ADD PUSH1 0x1 DUP3 ADD SLOAD DUP2 MSTORE PUSH1 0x20 ADD PUSH1 0x2 DUP3 ADD DUP1 SLOAD PUSH2 0x327D SWAP1 PUSH2 0x5946 JUMP JUMPDEST DUP1 PUSH1 0x1F ADD PUSH1 0x20 DUP1 SWAP2 DIV MUL PUSH1 0x20 ADD PUSH1 0x40 MLOAD SWAP1 DUP2 ADD PUSH1 0x40 MSTORE DUP1 SWAP3 SWAP2 SWAP1 DUP2 DUP2 MSTORE PUSH1 0x20 ADD DUP3 DUP1 SLOAD PUSH2 0x32A9 SWAP1 PUSH2 0x5946 JUMP JUMPDEST DUP1 ISZERO PUSH2 0x32F6 JUMPI DUP1 PUSH1 0x1F LT PUSH2 0x32CB JUMPI PUSH2 0x100 DUP1 DUP4 SLOAD DIV MUL DUP4 MSTORE SWAP2 PUSH1 0x20 ADD SWAP2 PUSH2 0x32F6 JUMP JUMPDEST DUP3 ADD SWAP2 SWAP1 PUSH1 0x0 MSTORE PUSH1 0x20 PUSH1 0x0 KECCAK256 SWAP1 JUMPDEST DUP2 SLOAD DUP2 MSTORE SWAP1 PUSH1 0x1 ADD SWAP1 PUSH1 0x20 ADD DUP1 DUP4 GT PUSH2 0x32D9 JUMPI DUP3 SWAP1 SUB PUSH1 0x1F AND DUP3 ADD SWAP2 JUMPDEST POP POP POP SWAP2 DUP4 MSTORE POP POP PUSH1 0x3 DUP3 ADD SLOAD PUSH1 0x1 PUSH1 0x1 PUSH1 0xA0 SHL SUB SWAP1 DUP2 AND PUSH1 0x20 DUP4 ADD MSTORE PUSH1 0x4 DUP4 ADD SLOAD PUSH1 0x40 DUP4 ADD MSTORE PUSH1 0x5 DUP4 ADD SLOAD PUSH1 0x60 DUP4 ADD MSTORE PUSH1 0x6 DUP4 ADD SLOAD PUSH1 0x80 DUP4 ADD MSTORE PUSH1 0x7 DUP4 ADD SLOAD PUSH1 0xFF SWAP1 DUP2 AND ISZERO ISZERO PUSH1 0xA0 DUP1 DUP6 ADD SWAP2 SWAP1 SWAP2 MSTORE PUSH1 0x8 DUP6 ADD SLOAD PUSH1 0xC0 DUP6 ADD MSTORE PUSH1 0x9 SWAP1 SWAP5 ADD SLOAD SWAP2 DUP3 AND PUSH1 0xE0 DUP5 ADD MSTORE PUSH1 0x1 PUSH1 0xA0 SHL SWAP1 SWAP2 DIV AND ISZERO ISZERO PUSH2 0x100 SWAP1 SWAP2 ADD MSTORE DUP2 ADD MLOAD SWAP1 SWAP2 POP PUSH1 0x0 SWAP1 PUSH2 0x3383 SWAP1 TIMESTAMP PUSH2 0x59CE JUMP JUMPDEST PUSH1 0x5 SLOAD SWAP1 SWAP2 POP PUSH1 0x1 DUP2 LT ISZERO PUSH2 0x33AA JUMPI PUSH1 0x40 MLOAD PUSH3 0x461BCD PUSH1 0xE5 SHL DUP2 MSTORE PUSH1 0x4 ADD PUSH2 0x569 SWAP1 PUSH2 0x59FB JUMP JUMPDEST PUSH1 0xC0 DUP4 ADD MLOAD PUSH2 0x33BC SWAP1 PUSH3 0x15180 PUSH2 0x5A7B JUMP JUMPDEST DUP3 LT PUSH2 0x33DA JUMPI PUSH1 0x40 MLOAD PUSH3 0x461BCD PUSH1 0xE5 SHL DUP2 MSTORE PUSH1 0x4 ADD PUSH2 0x569 SWAP1 PUSH2 0x5A2B JUMP JUMPDEST CALLER PUSH1 0x0 SWAP1 DUP2 MSTORE PUSH1 0x15 PUSH1 0x20 SWAP1 DUP2 MSTORE PUSH1 0x40 SWAP2 DUP3 SWAP1 KECCAK256 DUP1 SLOAD DUP4 MLOAD DUP2 DUP5 MUL DUP2 ADD DUP5 ADD SWAP1 SWAP5 MSTORE DUP1 DUP5 MSTORE PUSH2 0x343B SWAP4 SWAP3 DUP4 ADD DUP3 DUP3 DUP1 ISZERO PUSH2 0x1276 JUMPI PUSH1 0x20 MUL DUP3 ADD SWAP2 SWAP1 PUSH1 0x0 MSTORE PUSH1 0x20 PUSH1 0x0 KECCAK256 SWAP1 DUP2 SLOAD DUP2 MSTORE PUSH1 0x20 ADD SWAP1 PUSH1 0x1 ADD SWAP1 DUP1 DUP4 GT PUSH2 0x1262 JUMPI POP POP POP POP POP DUP6 PUSH2 0x2BB8 JUMP JUMPDEST ISZERO PUSH2 0x3458 JUMPI PUSH1 0x40 MLOAD PUSH3 0x461BCD PUSH1 0xE5 SHL DUP2 MSTORE PUSH1 0x4 ADD PUSH2 0x569 SWAP1 PUSH2 0x5A9A JUMP JUMPDEST PUSH1 0x0 DUP6 DUP2 MSTORE PUSH1 0x17 PUSH1 0x20 SWAP1 DUP2 MSTORE PUSH1 0x40 SWAP2 DUP3 SWAP1 KECCAK256 DUP1 SLOAD DUP4 MLOAD DUP2 DUP5 MUL DUP2 ADD DUP5 ADD SWAP1 SWAP5 MSTORE DUP1 DUP5 MSTORE PUSH2 0x34B8 SWAP4 SWAP3 DUP4 ADD DUP3 DUP3 DUP1 ISZERO PUSH2 0x1276 JUMPI PUSH1 0x20 MUL DUP3 ADD SWAP2 SWAP1 PUSH1 0x0 MSTORE PUSH1 0x20 PUSH1 0x0 KECCAK256 SWAP1 DUP2 SLOAD DUP2 MSTORE PUSH1 0x20 ADD SWAP1 PUSH1 0x1 ADD SWAP1 DUP1 DUP4 GT PUSH2 0x1262 JUMPI POP POP POP POP POP DUP6 PUSH2 0x2BB8 JUMP JUMPDEST ISZERO PUSH2 0x34D5 JUMPI PUSH1 0x40 MLOAD PUSH3 0x461BCD PUSH1 0xE5 SHL DUP2 MSTORE PUSH1 0x4 ADD PUSH2 0x569 SWAP1 PUSH2 0x5ADC JUMP JUMPDEST PUSH2 0x100 DUP4 ADD MLOAD PUSH2 0x34E8 SWAP1 PUSH3 0x15180 PUSH2 0x5A7B JUMP JUMPDEST DUP3 LT PUSH2 0x3506 JUMPI PUSH1 0x40 MLOAD PUSH3 0x461BCD PUSH1 0xE5 SHL DUP2 MSTORE PUSH1 0x4 ADD PUSH2 0x569 SWAP1 PUSH2 0x5B21 JUMP JUMPDEST PUSH1 0x0 DUP7 DUP2 MSTORE PUSH1 0xD PUSH1 0x20 MSTORE PUSH1 0x40 SWAP1 KECCAK256 PUSH1 0x1 DUP2 ADD SLOAD PUSH1 0x2 EQ DUP1 PUSH2 0x352B JUMPI POP DUP1 PUSH1 0x1 ADD SLOAD PUSH1 0x5 EQ JUMPDEST PUSH2 0x2F12 JUMPI PUSH1 0x40 MLOAD PUSH3 0x461BCD PUSH1 0xE5 SHL DUP2 MSTORE PUSH1 0x4 ADD PUSH2 0x569 SWAP1 PUSH2 0x5CA7 JUMP JUMPDEST DUP2 DUP2 PUSH1 0x0 PUSH1 0xD PUSH1 0x0 DUP4 DUP2 MSTORE PUSH1 0x20 ADD SWAP1 DUP2 MSTORE PUSH1 0x20 ADD PUSH1 0x0 KECCAK256 PUSH1 0x40 MLOAD DUP1 PUSH2 0x160 ADD PUSH1 0x40 MSTORE SWAP1 DUP2 PUSH1 0x0 DUP3 ADD SLOAD DUP2 MSTORE PUSH1 0x20 ADD PUSH1 0x1 DUP3 ADD SLOAD DUP2 MSTORE PUSH1 0x20 ADD PUSH1 0x2 DUP3 ADD DUP1 SLOAD PUSH2 0x358E SWAP1 PUSH2 0x5946 JUMP JUMPDEST DUP1 PUSH1 0x1F ADD PUSH1 0x20 DUP1 SWAP2 DIV MUL PUSH1 0x20 ADD PUSH1 0x40 MLOAD SWAP1 DUP2 ADD PUSH1 0x40 MSTORE DUP1 SWAP3 SWAP2 SWAP1 DUP2 DUP2 MSTORE PUSH1 0x20 ADD DUP3 DUP1 SLOAD PUSH2 0x35BA SWAP1 PUSH2 0x5946 JUMP JUMPDEST DUP1 ISZERO PUSH2 0x3607 JUMPI DUP1 PUSH1 0x1F LT PUSH2 0x35DC JUMPI PUSH2 0x100 DUP1 DUP4 SLOAD DIV MUL DUP4 MSTORE SWAP2 PUSH1 0x20 ADD SWAP2 PUSH2 0x3607 JUMP JUMPDEST DUP3 ADD SWAP2 SWAP1 PUSH1 0x0 MSTORE PUSH1 0x20 PUSH1 0x0 KECCAK256 SWAP1 JUMPDEST DUP2 SLOAD DUP2 MSTORE SWAP1 PUSH1 0x1 ADD SWAP1 PUSH1 0x20 ADD DUP1 DUP4 GT PUSH2 0x35EA JUMPI DUP3 SWAP1 SUB PUSH1 0x1F AND DUP3 ADD SWAP2 JUMPDEST POP POP POP SWAP2 DUP4 MSTORE POP POP PUSH1 0x3 DUP3 ADD SLOAD PUSH1 0x1 PUSH1 0x1 PUSH1 0xA0 SHL SUB SWAP1 DUP2 AND PUSH1 0x20 DUP4 ADD MSTORE PUSH1 0x4 DUP4 ADD SLOAD PUSH1 0x40 DUP4 ADD MSTORE PUSH1 0x5 DUP4 ADD SLOAD PUSH1 0x60 DUP4 ADD MSTORE PUSH1 0x6 DUP4 ADD SLOAD PUSH1 0x80 DUP4 ADD MSTORE PUSH1 0x7 DUP4 ADD SLOAD PUSH1 0xFF SWAP1 DUP2 AND ISZERO ISZERO PUSH1 0xA0 DUP1 DUP6 ADD SWAP2 SWAP1 SWAP2 MSTORE PUSH1 0x8 DUP6 ADD SLOAD PUSH1 0xC0 DUP6 ADD MSTORE PUSH1 0x9 SWAP1 SWAP5 ADD SLOAD SWAP2 DUP3 AND PUSH1 0xE0 DUP5 ADD MSTORE PUSH1 0x1 PUSH1 0xA0 SHL SWAP1 SWAP2 DIV AND ISZERO ISZERO PUSH2 0x100 SWAP1 SWAP2 ADD MSTORE DUP2 ADD MLOAD SWAP1 SWAP2 POP PUSH1 0x0 SWAP1 PUSH2 0x3694 SWAP1 TIMESTAMP PUSH2 0x59CE JUMP JUMPDEST PUSH1 0x5 SLOAD SWAP1 SWAP2 POP PUSH1 0x1 DUP2 LT ISZERO PUSH2 0x36BB JUMPI PUSH1 0x40 MLOAD PUSH3 0x461BCD PUSH1 0xE5 SHL DUP2 MSTORE PUSH1 0x4 ADD PUSH2 0x569 SWAP1 PUSH2 0x59FB JUMP JUMPDEST PUSH1 0xC0 DUP4 ADD MLOAD PUSH2 0x36CD SWAP1 PUSH3 0x15180 PUSH2 0x5A7B JUMP JUMPDEST DUP3 LT PUSH2 0x36EB JUMPI PUSH1 0x40 MLOAD PUSH3 0x461BCD PUSH1 0xE5 SHL DUP2 MSTORE PUSH1 0x4 ADD PUSH2 0x569 SWAP1 PUSH2 0x5A2B JUMP JUMPDEST CALLER PUSH1 0x0 SWAP1 DUP2 MSTORE PUSH1 0x15 PUSH1 0x20 SWAP1 DUP2 MSTORE PUSH1 0x40 SWAP2 DUP3 SWAP1 KECCAK256 DUP1 SLOAD DUP4 MLOAD DUP2 DUP5 MUL DUP2 ADD DUP5 ADD SWAP1 SWAP5 MSTORE DUP1 DUP5 MSTORE PUSH2 0x374C SWAP4 SWAP3 DUP4 ADD DUP3 DUP3 DUP1 ISZERO PUSH2 0x1276 JUMPI PUSH1 0x20 MUL DUP3 ADD SWAP2 SWAP1 PUSH1 0x0 MSTORE PUSH1 0x20 PUSH1 0x0 KECCAK256 SWAP1 DUP2 SLOAD DUP2 MSTORE PUSH1 0x20 ADD SWAP1 PUSH1 0x1 ADD SWAP1 DUP1 DUP4 GT PUSH2 0x1262 JUMPI POP POP POP POP POP DUP6 PUSH2 0x2BB8 JUMP JUMPDEST ISZERO PUSH2 0x3769 JUMPI PUSH1 0x40 MLOAD PUSH3 0x461BCD PUSH1 0xE5 SHL DUP2 MSTORE PUSH1 0x4 ADD PUSH2 0x569 SWAP1 PUSH2 0x5A9A JUMP JUMPDEST PUSH1 0x0 DUP6 DUP2 MSTORE PUSH1 0x17 PUSH1 0x20 SWAP1 DUP2 MSTORE PUSH1 0x40 SWAP2 DUP3 SWAP1 KECCAK256 DUP1 SLOAD DUP4 MLOAD DUP2 DUP5 MUL DUP2 ADD DUP5 ADD SWAP1 SWAP5 MSTORE DUP1 DUP5 MSTORE PUSH2 0x37C9 SWAP4 SWAP3 DUP4 ADD DUP3 DUP3 DUP1 ISZERO PUSH2 0x1276 JUMPI PUSH1 0x20 MUL DUP3 ADD SWAP2 SWAP1 PUSH1 0x0 MSTORE PUSH1 0x20 PUSH1 0x0 KECCAK256 SWAP1 DUP2 SLOAD DUP2 MSTORE PUSH1 0x20 ADD SWAP1 PUSH1 0x1 ADD SWAP1 DUP1 DUP4 GT PUSH2 0x1262 JUMPI POP POP POP POP POP DUP6 PUSH2 0x2BB8 JUMP JUMPDEST ISZERO PUSH2 0x37E6 JUMPI PUSH1 0x40 MLOAD PUSH3 0x461BCD PUSH1 0xE5 SHL DUP2 MSTORE PUSH1 0x4 ADD PUSH2 0x569 SWAP1 PUSH2 0x5ADC JUMP JUMPDEST PUSH2 0x100 DUP4 ADD MLOAD PUSH2 0x37F9 SWAP1 PUSH3 0x15180 PUSH2 0x5A7B JUMP JUMPDEST DUP3 LT PUSH2 0x3817 JUMPI PUSH1 0x40 MLOAD PUSH3 0x461BCD PUSH1 0xE5 SHL DUP2 MSTORE PUSH1 0x4 ADD PUSH2 0x569 SWAP1 PUSH2 0x5B21 JUMP JUMPDEST PUSH1 0x0 DUP7 DUP2 MSTORE PUSH1 0xD PUSH1 0x20 MSTORE PUSH1 0x40 SWAP1 KECCAK256 PUSH1 0x1 DUP2 ADD SLOAD PUSH1 0x3 EQ DUP1 PUSH2 0x3210 JUMPI POP DUP1 PUSH1 0x1 ADD SLOAD PUSH1 0x6 EQ PUSH2 0x322C JUMPI PUSH1 0x40 MLOAD PUSH3 0x461BCD PUSH1 0xE5 SHL DUP2 MSTORE PUSH1 0x4 ADD PUSH2 0x569 SWAP1 PUSH2 0x5CA7 JUMP JUMPDEST DUP2 DUP2 PUSH1 0x0 PUSH1 0xD PUSH1 0x0 DUP4 DUP2 MSTORE PUSH1 0x20 ADD SWAP1 DUP2 MSTORE PUSH1 0x20 ADD PUSH1 0x0 KECCAK256 PUSH1 0x40 MLOAD DUP1 PUSH2 0x160 ADD PUSH1 0x40 MSTORE SWAP1 DUP2 PUSH1 0x0 DUP3 ADD SLOAD DUP2 MSTORE PUSH1 0x20 ADD PUSH1 0x1 DUP3 ADD SLOAD DUP2 MSTORE PUSH1 0x20 ADD PUSH1 0x2 DUP3 ADD DUP1 SLOAD PUSH2 0x389E SWAP1 PUSH2 0x5946 JUMP JUMPDEST DUP1 PUSH1 0x1F ADD PUSH1 0x20 DUP1 SWAP2 DIV MUL PUSH1 0x20 ADD PUSH1 0x40 MLOAD SWAP1 DUP2 ADD PUSH1 0x40 MSTORE DUP1 SWAP3 SWAP2 SWAP1 DUP2 DUP2 MSTORE PUSH1 0x20 ADD DUP3 DUP1 SLOAD PUSH2 0x38CA SWAP1 PUSH2 0x5946 JUMP JUMPDEST DUP1 ISZERO PUSH2 0x3917 JUMPI DUP1 PUSH1 0x1F LT PUSH2 0x38EC JUMPI PUSH2 0x100 DUP1 DUP4 SLOAD DIV MUL DUP4 MSTORE SWAP2 PUSH1 0x20 ADD SWAP2 PUSH2 0x3917 JUMP JUMPDEST DUP3 ADD SWAP2 SWAP1 PUSH1 0x0 MSTORE PUSH1 0x20 PUSH1 0x0 KECCAK256 SWAP1 JUMPDEST DUP2 SLOAD DUP2 MSTORE SWAP1 PUSH1 0x1 ADD SWAP1 PUSH1 0x20 ADD DUP1 DUP4 GT PUSH2 0x38FA JUMPI DUP3 SWAP1 SUB PUSH1 0x1F AND DUP3 ADD SWAP2 JUMPDEST POP POP POP SWAP2 DUP4 MSTORE POP POP PUSH1 0x3 DUP3 DUP2 ADD SLOAD PUSH1 0x1 PUSH1 0x1 PUSH1 0xA0 SHL SUB SWAP1 DUP2 AND PUSH1 0x20 DUP1 DUP6 ADD SWAP2 SWAP1 SWAP2 MSTORE PUSH1 0x4 DUP6 ADD SLOAD PUSH1 0x40 DUP1 DUP7 ADD SWAP2 SWAP1 SWAP2 MSTORE PUSH1 0x5 DUP7 ADD SLOAD PUSH1 0x60 DUP7 ADD MSTORE PUSH1 0x6 DUP7 ADD SLOAD PUSH1 0x80 DUP7 ADD MSTORE PUSH1 0x7 DUP7 ADD SLOAD PUSH1 0xFF SWAP1 DUP2 AND ISZERO ISZERO PUSH1 0xA0 DUP8 ADD MSTORE PUSH1 0x8 DUP8 ADD SLOAD PUSH1 0xC0 DUP8 ADD MSTORE PUSH1 0x9 SWAP1 SWAP7 ADD SLOAD SWAP3 DUP4 AND PUSH1 0xE0 DUP7 ADD MSTORE PUSH1 0x1 PUSH1 0xA0 SHL SWAP1 SWAP3 DIV DUP6 AND ISZERO ISZERO PUSH2 0x100 SWAP1 SWAP5 ADD SWAP4 SWAP1 SWAP4 MSTORE CALLER PUSH1 0x0 SWAP1 DUP2 MSTORE PUSH1 0x12 SWAP1 SWAP4 MSTORE SWAP1 SWAP2 KECCAK256 ADD SLOAD SWAP2 SWAP3 POP AND ISZERO ISZERO PUSH1 0x1 EQ PUSH2 0x39CF JUMPI PUSH1 0x40 MLOAD PUSH3 0x461BCD PUSH1 0xE5 SHL DUP2 MSTORE PUSH1 0x4 ADD PUSH2 0x569 SWAP1 PUSH2 0x5B58 JUMP JUMPDEST CALLER PUSH1 0x0 SWAP1 DUP2 MSTORE PUSH1 0x16 PUSH1 0x20 SWAP1 DUP2 MSTORE PUSH1 0x40 SWAP2 DUP3 SWAP1 KECCAK256 DUP1 SLOAD DUP4 MLOAD DUP2 DUP5 MUL DUP2 ADD DUP5 ADD SWAP1 SWAP5 MSTORE DUP1 DUP5 MSTORE PUSH2 0x3A30 SWAP4 SWAP3 DUP4 ADD DUP3 DUP3 DUP1 ISZERO PUSH2 0x185A JUMPI PUSH1 0x20 MUL DUP3 ADD SWAP2 SWAP1 PUSH1 0x0 MSTORE PUSH1 0x20 PUSH1 0x0 KECCAK256 SWAP1 DUP2 SLOAD DUP2 MSTORE PUSH1 0x20 ADD SWAP1 PUSH1 0x1 ADD SWAP1 DUP1 DUP4 GT PUSH2 0x1846 JUMPI POP POP POP POP POP DUP4 PUSH2 0x2BB8 JUMP JUMPDEST ISZERO PUSH2 0x3A4D JUMPI PUSH1 0x40 MLOAD PUSH3 0x461BCD PUSH1 0xE5 SHL DUP2 MSTORE PUSH1 0x4 ADD PUSH2 0x569 SWAP1 PUSH2 0x5B8F JUMP JUMPDEST PUSH1 0x0 DUP3 DUP2 MSTORE PUSH1 0xD PUSH1 0x20 MSTORE PUSH1 0x40 SWAP1 KECCAK256 SLOAD DUP3 EQ PUSH2 0x3A7A JUMPI PUSH1 0x40 MLOAD PUSH3 0x461BCD PUSH1 0xE5 SHL DUP2 MSTORE PUSH1 0x4 ADD PUSH2 0x569 SWAP1 PUSH2 0x5BD9 JUMP JUMPDEST PUSH1 0xE0 DUP2 ADD MLOAD ISZERO PUSH2 0x3A9C JUMPI PUSH1 0x40 MLOAD PUSH3 0x461BCD PUSH1 0xE5 SHL DUP2 MSTORE PUSH1 0x4 ADD PUSH2 0x569 SWAP1 PUSH2 0x5C05 JUMP JUMPDEST PUSH1 0x1 PUSH1 0x1 PUSH1 0xA0 SHL SUB DUP4 AND PUSH1 0x0 SWAP1 DUP2 MSTORE PUSH1 0x10 PUSH1 0x20 MSTORE PUSH1 0x40 SWAP1 KECCAK256 PUSH1 0x1 ADD SLOAD DUP3 EQ PUSH2 0x3AD6 JUMPI PUSH1 0x40 MLOAD PUSH3 0x461BCD PUSH1 0xE5 SHL DUP2 MSTORE PUSH1 0x4 ADD PUSH2 0x569 SWAP1 PUSH2 0x5C31 JUMP JUMPDEST PUSH1 0x0 PUSH1 0xD PUSH1 0x0 DUP7 DUP2 MSTORE PUSH1 0x20 ADD SWAP1 DUP2 MSTORE PUSH1 0x20 ADD PUSH1 0x0 KECCAK256 PUSH1 0x40 MLOAD DUP1 PUSH2 0x160 ADD PUSH1 0x40 MSTORE SWAP1 DUP2 PUSH1 0x0 DUP3 ADD SLOAD DUP2 MSTORE PUSH1 0x20 ADD PUSH1 0x1 DUP3 ADD SLOAD DUP2 MSTORE PUSH1 0x20 ADD PUSH1 0x2 DUP3 ADD DUP1 SLOAD PUSH2 0x3B1B SWAP1 PUSH2 0x5946 JUMP JUMPDEST DUP1 PUSH1 0x1F ADD PUSH1 0x20 DUP1 SWAP2 DIV MUL PUSH1 0x20 ADD PUSH1 0x40 MLOAD SWAP1 DUP2 ADD PUSH1 0x40 MSTORE DUP1 SWAP3 SWAP2 SWAP1 DUP2 DUP2 MSTORE PUSH1 0x20 ADD DUP3 DUP1 SLOAD PUSH2 0x3B47 SWAP1 PUSH2 0x5946 JUMP JUMPDEST DUP1 ISZERO PUSH2 0x3B94 JUMPI DUP1 PUSH1 0x1F LT PUSH2 0x3B69 JUMPI PUSH2 0x100 DUP1 DUP4 SLOAD DIV MUL DUP4 MSTORE SWAP2 PUSH1 0x20 ADD SWAP2 PUSH2 0x3B94 JUMP JUMPDEST DUP3 ADD SWAP2 SWAP1 PUSH1 0x0 MSTORE PUSH1 0x20 PUSH1 0x0 KECCAK256 SWAP1 JUMPDEST DUP2 SLOAD DUP2 MSTORE SWAP1 PUSH1 0x1 ADD SWAP1 PUSH1 0x20 ADD DUP1 DUP4 GT PUSH2 0x3B77 JUMPI DUP3 SWAP1 SUB PUSH1 0x1F AND DUP3 ADD SWAP2 JUMPDEST POP POP POP SWAP2 DUP4 MSTORE POP POP PUSH1 0x3 DUP3 ADD SLOAD PUSH1 0x1 PUSH1 0x1 PUSH1 0xA0 SHL SUB SWAP1 DUP2 AND PUSH1 0x20 DUP4 ADD MSTORE PUSH1 0x4 DUP4 ADD SLOAD PUSH1 0x40 DUP4 ADD MSTORE PUSH1 0x5 DUP4 ADD SLOAD PUSH1 0x60 DUP4 ADD MSTORE PUSH1 0x6 DUP4 ADD SLOAD PUSH1 0x80 DUP4 ADD MSTORE PUSH1 0x7 DUP4 ADD SLOAD PUSH1 0xFF SWAP1 DUP2 AND ISZERO ISZERO PUSH1 0xA0 DUP5 ADD MSTORE PUSH1 0x8 DUP5 ADD SLOAD PUSH1 0xC0 DUP5 ADD MSTORE PUSH1 0x9 SWAP1 SWAP4 ADD SLOAD DUP1 DUP3 AND PUSH1 0xE0 DUP5 ADD MSTORE PUSH1 0x1 PUSH1 0xA0 SHL SWAP1 DIV SWAP1 SWAP3 AND ISZERO ISZERO PUSH2 0x100 SWAP1 SWAP2 ADD MSTORE DUP8 AND PUSH2 0x120 DUP3 ADD MSTORE SWAP1 POP PUSH2 0x3C1F DUP7 DUP3 PUSH2 0x5076 JUMP JUMPDEST POP PUSH2 0x3C29 DUP7 PUSH2 0x512B JUMP JUMPDEST POP POP POP POP POP POP JUMP JUMPDEST DUP2 DUP2 PUSH1 0x0 PUSH1 0xD PUSH1 0x0 DUP4 DUP2 MSTORE PUSH1 0x20 ADD SWAP1 DUP2 MSTORE PUSH1 0x20 ADD PUSH1 0x0 KECCAK256 PUSH1 0x40 MLOAD DUP1 PUSH2 0x160 ADD PUSH1 0x40 MSTORE SWAP1 DUP2 PUSH1 0x0 DUP3 ADD SLOAD DUP2 MSTORE PUSH1 0x20 ADD PUSH1 0x1 DUP3 ADD SLOAD DUP2 MSTORE PUSH1 0x20 ADD PUSH1 0x2 DUP3 ADD DUP1 SLOAD PUSH2 0x3C78 SWAP1 PUSH2 0x5946 JUMP JUMPDEST DUP1 PUSH1 0x1F ADD PUSH1 0x20 DUP1 SWAP2 DIV MUL PUSH1 0x20 ADD PUSH1 0x40 MLOAD SWAP1 DUP2 ADD PUSH1 0x40 MSTORE DUP1 SWAP3 SWAP2 SWAP1 DUP2 DUP2 MSTORE PUSH1 0x20 ADD DUP3 DUP1 SLOAD PUSH2 0x3CA4 SWAP1 PUSH2 0x5946 JUMP JUMPDEST DUP1 ISZERO PUSH2 0x3CF1 JUMPI DUP1 PUSH1 0x1F LT PUSH2 0x3CC6 JUMPI PUSH2 0x100 DUP1 DUP4 SLOAD DIV MUL DUP4 MSTORE SWAP2 PUSH1 0x20 ADD SWAP2 PUSH2 0x3CF1 JUMP JUMPDEST DUP3 ADD SWAP2 SWAP1 PUSH1 0x0 MSTORE PUSH1 0x20 PUSH1 0x0 KECCAK256 SWAP1 JUMPDEST DUP2 SLOAD DUP2 MSTORE SWAP1 PUSH1 0x1 ADD SWAP1 PUSH1 0x20 ADD DUP1 DUP4 GT PUSH2 0x3CD4 JUMPI DUP3 SWAP1 SUB PUSH1 0x1F AND DUP3 ADD SWAP2 JUMPDEST POP POP POP SWAP2 DUP4 MSTORE POP POP PUSH1 0x3 DUP3 DUP2 ADD SLOAD PUSH1 0x1 PUSH1 0x1 PUSH1 0xA0 SHL SUB SWAP1 DUP2 AND PUSH1 0x20 DUP1 DUP6 ADD SWAP2 SWAP1 SWAP2 MSTORE PUSH1 0x4 DUP1 DUP7 ADD SLOAD PUSH1 0x40 DUP1 DUP8 ADD SWAP2 SWAP1 SWAP2 MSTORE PUSH1 0x5 DUP8 ADD SLOAD PUSH1 0x60 DUP1 DUP9 ADD SWAP2 SWAP1 SWAP2 MSTORE PUSH1 0x6 DUP9 ADD SLOAD PUSH1 0x80 DUP1 DUP10 ADD SWAP2 SWAP1 SWAP2 MSTORE PUSH1 0x7 DUP10 ADD SLOAD PUSH1 0xFF SWAP1 DUP2 AND ISZERO ISZERO PUSH1 0xA0 DUP1 DUP12 ADD SWAP2 SWAP1 SWAP2 MSTORE PUSH1 0x8 DUP12 ADD SLOAD PUSH1 0xC0 DUP1 DUP13 ADD SWAP2 SWAP1 SWAP2 MSTORE PUSH1 0x9 SWAP1 SWAP12 ADD SLOAD DUP1 DUP10 AND PUSH1 0xE0 DUP1 DUP14 ADD SWAP2 SWAP1 SWAP2 MSTORE PUSH1 0x1 PUSH1 0xA0 SHL SWAP1 SWAP2 DIV DUP4 AND ISZERO ISZERO PUSH2 0x100 SWAP12 DUP13 ADD MSTORE CALLER PUSH1 0x0 SWAP1 DUP2 MSTORE PUSH1 0x12 DUP10 MSTORE DUP7 SWAP1 KECCAK256 DUP7 MLOAD SWAP2 DUP3 ADD DUP8 MSTORE DUP1 SLOAD DUP3 MSTORE PUSH1 0x1 DUP2 DUP2 ADD SLOAD SWAP1 SWAP11 AND SWAP9 DUP3 ADD SWAP9 SWAP1 SWAP9 MSTORE PUSH1 0x2 DUP9 ADD SLOAD SWAP6 DUP2 ADD SWAP6 SWAP1 SWAP6 MSTORE SWAP8 DUP7 ADD SLOAD DUP1 DUP3 AND ISZERO ISZERO SWAP4 DUP6 ADD SWAP4 SWAP1 SWAP4 MSTORE SWAP8 DUP3 DIV DUP9 AND ISZERO ISZERO SWAP1 DUP4 ADD DUP2 SWAP1 MSTORE PUSH3 0x10000 SWAP1 SWAP2 DIV SWAP1 SWAP7 AND ISZERO ISZERO SWAP5 DUP2 ADD SWAP5 SWAP1 SWAP5 MSTORE ADD SLOAD SWAP4 DUP3 ADD SWAP4 SWAP1 SWAP4 MSTORE SWAP3 SWAP4 POP EQ PUSH2 0x3E37 JUMPI PUSH1 0x40 MLOAD PUSH3 0x461BCD PUSH1 0xE5 SHL DUP2 MSTORE PUSH1 0x20 PUSH1 0x4 DUP3 ADD MSTORE PUSH1 0x11 PUSH1 0x24 DUP3 ADD MSTORE PUSH17 0x4E6F20566F74696E672052696768747321 PUSH1 0x78 SHL PUSH1 0x44 DUP3 ADD MSTORE PUSH1 0x64 ADD PUSH2 0x569 JUMP JUMPDEST CALLER PUSH1 0x0 SWAP1 DUP2 MSTORE PUSH1 0x12 PUSH1 0x20 MSTORE PUSH1 0x40 SWAP1 KECCAK256 PUSH1 0x3 ADD SLOAD PUSH1 0xFF AND ISZERO ISZERO PUSH1 0x1 EQ PUSH2 0x3E6E JUMPI PUSH1 0x40 MLOAD PUSH3 0x461BCD PUSH1 0xE5 SHL DUP2 MSTORE PUSH1 0x4 ADD PUSH2 0x569 SWAP1 PUSH2 0x5B58 JUMP JUMPDEST CALLER PUSH1 0x0 SWAP1 DUP2 MSTORE PUSH1 0x16 PUSH1 0x20 SWAP1 DUP2 MSTORE PUSH1 0x40 SWAP2 DUP3 SWAP1 KECCAK256 DUP1 SLOAD DUP4 MLOAD DUP2 DUP5 MUL DUP2 ADD DUP5 ADD SWAP1 SWAP5 MSTORE DUP1 DUP5 MSTORE PUSH2 0x3ED1 SWAP4 SWAP3 DUP4 ADD DUP3 DUP3 DUP1 ISZERO PUSH2 0x3EC6 JUMPI PUSH1 0x20 MUL DUP3 ADD SWAP2 SWAP1 PUSH1 0x0 MSTORE PUSH1 0x20 PUSH1 0x0 KECCAK256 SWAP1 JUMPDEST DUP2 SLOAD DUP2 MSTORE PUSH1 0x20 ADD SWAP1 PUSH1 0x1 ADD SWAP1 DUP1 DUP4 GT PUSH2 0x3EB2 JUMPI JUMPDEST POP POP POP POP POP DUP5 PUSH2 0x2BB8 JUMP JUMPDEST ISZERO PUSH2 0x3EEE JUMPI PUSH1 0x40 MLOAD PUSH3 0x461BCD PUSH1 0xE5 SHL DUP2 MSTORE PUSH1 0x4 ADD PUSH2 0x569 SWAP1 PUSH2 0x5B8F JUMP JUMPDEST PUSH1 0x0 DUP4 DUP2 MSTORE PUSH1 0xD PUSH1 0x20 MSTORE PUSH1 0x40 SWAP1 KECCAK256 SLOAD DUP4 EQ PUSH2 0x3F1B JUMPI PUSH1 0x40 MLOAD PUSH3 0x461BCD PUSH1 0xE5 SHL DUP2 MSTORE PUSH1 0x4 ADD PUSH2 0x569 SWAP1 PUSH2 0x5BD9 JUMP JUMPDEST PUSH1 0xE0 DUP3 ADD MLOAD ISZERO PUSH2 0x3F3D JUMPI PUSH1 0x40 MLOAD PUSH3 0x461BCD PUSH1 0xE5 SHL DUP2 MSTORE PUSH1 0x4 ADD PUSH2 0x569 SWAP1 PUSH2 0x5C05 JUMP JUMPDEST PUSH1 0x1 PUSH1 0x1 PUSH1 0xA0 SHL SUB DUP5 AND PUSH1 0x0 SWAP1 DUP2 MSTORE PUSH1 0x10 PUSH1 0x20 MSTORE PUSH1 0x40 SWAP1 KECCAK256 PUSH1 0x1 ADD SLOAD DUP4 EQ PUSH2 0x3F77 JUMPI PUSH1 0x40 MLOAD PUSH3 0x461BCD PUSH1 0xE5 SHL DUP2 MSTORE PUSH1 0x4 ADD PUSH2 0x569 SWAP1 PUSH2 0x5C31 JUMP JUMPDEST PUSH1 0x0 PUSH1 0xD PUSH1 0x0 DUP8 DUP2 MSTORE PUSH1 0x20 ADD SWAP1 DUP2 MSTORE PUSH1 0x20 ADD PUSH1 0x0 KECCAK256 PUSH1 0x40 MLOAD DUP1 PUSH2 0x160 ADD PUSH1 0x40 MSTORE SWAP1 DUP2 PUSH1 0x0 DUP3 ADD SLOAD DUP2 MSTORE PUSH1 0x20 ADD PUSH1 0x1 DUP3 ADD SLOAD DUP2 MSTORE PUSH1 0x20 ADD PUSH1 0x2 DUP3 ADD DUP1 SLOAD PUSH2 0x3FBC SWAP1 PUSH2 0x5946 JUMP JUMPDEST DUP1 PUSH1 0x1F ADD PUSH1 0x20 DUP1 SWAP2 DIV MUL PUSH1 0x20 ADD PUSH1 0x40 MLOAD SWAP1 DUP2 ADD PUSH1 0x40 MSTORE DUP1 SWAP3 SWAP2 SWAP1 DUP2 DUP2 MSTORE PUSH1 0x20 ADD DUP3 DUP1 SLOAD PUSH2 0x3FE8 SWAP1 PUSH2 0x5946 JUMP JUMPDEST DUP1 ISZERO PUSH2 0x4035 JUMPI DUP1 PUSH1 0x1F LT PUSH2 0x400A JUMPI PUSH2 0x100 DUP1 DUP4 SLOAD DIV MUL DUP4 MSTORE SWAP2 PUSH1 0x20 ADD SWAP2 PUSH2 0x4035 JUMP JUMPDEST DUP3 ADD SWAP2 SWAP1 PUSH1 0x0 MSTORE PUSH1 0x20 PUSH1 0x0 KECCAK256 SWAP1 JUMPDEST DUP2 SLOAD DUP2 MSTORE SWAP1 PUSH1 0x1 ADD SWAP1 PUSH1 0x20 ADD DUP1 DUP4 GT PUSH2 0x4018 JUMPI DUP3 SWAP1 SUB PUSH1 0x1F AND DUP3 ADD SWAP2 JUMPDEST POP POP POP SWAP2 DUP4 MSTORE POP POP PUSH1 0x3 DUP3 ADD SLOAD PUSH1 0x1 PUSH1 0x1 PUSH1 0xA0 SHL SUB SWAP1 DUP2 AND PUSH1 0x20 DUP1 DUP5 ADD SWAP2 SWAP1 SWAP2 MSTORE PUSH1 0x4 DUP5 ADD SLOAD PUSH1 0x40 DUP5 ADD MSTORE PUSH1 0x5 DUP5 ADD SLOAD PUSH1 0x60 DUP5 ADD MSTORE PUSH1 0x6 DUP5 ADD SLOAD PUSH1 0x80 DUP5 ADD MSTORE PUSH1 0x7 DUP5 ADD SLOAD PUSH1 0xFF SWAP1 DUP2 AND ISZERO ISZERO PUSH1 0xA0 DUP6 ADD MSTORE PUSH1 0x8 DUP6 ADD SLOAD PUSH1 0xC0 DUP6 ADD MSTORE PUSH1 0x9 SWAP1 SWAP5 ADD SLOAD SWAP2 DUP3 AND PUSH1 0xE0 DUP5 ADD MSTORE PUSH1 0x1 PUSH1 0xA0 SHL SWAP1 SWAP2 DIV SWAP1 SWAP3 AND ISZERO ISZERO PUSH2 0x100 SWAP1 SWAP2 ADD MSTORE DUP2 ADD MLOAD SWAP1 SWAP2 POP PUSH1 0x1 EQ PUSH2 0x40D6 JUMPI PUSH1 0x40 MLOAD PUSH3 0x461BCD PUSH1 0xE5 SHL DUP2 MSTORE PUSH1 0x4 ADD PUSH2 0x569 SWAP1 PUSH2 0x5CD3 JUMP JUMPDEST PUSH1 0x1 PUSH1 0x1 PUSH1 0xA0 SHL SUB DUP8 AND PUSH2 0x120 DUP3 ADD MSTORE PUSH2 0x40F0 DUP8 DUP3 PUSH2 0x5076 JUMP JUMPDEST POP PUSH2 0x1B05 DUP8 PUSH2 0x512B JUMP JUMPDEST DUP2 DUP2 PUSH1 0x0 PUSH1 0xD PUSH1 0x0 DUP4 DUP2 MSTORE PUSH1 0x20 ADD SWAP1 DUP2 MSTORE PUSH1 0x20 ADD PUSH1 0x0 KECCAK256 PUSH1 0x40 MLOAD DUP1 PUSH2 0x160 ADD PUSH1 0x40 MSTORE SWAP1 DUP2 PUSH1 0x0 DUP3 ADD SLOAD DUP2 MSTORE PUSH1 0x20 ADD PUSH1 0x1 DUP3 ADD SLOAD DUP2 MSTORE PUSH1 0x20 ADD PUSH1 0x2 DUP3 ADD DUP1 SLOAD PUSH2 0x4141 SWAP1 PUSH2 0x5946 JUMP JUMPDEST DUP1 PUSH1 0x1F ADD PUSH1 0x20 DUP1 SWAP2 DIV MUL PUSH1 0x20 ADD PUSH1 0x40 MLOAD SWAP1 DUP2 ADD PUSH1 0x40 MSTORE DUP1 SWAP3 SWAP2 SWAP1 DUP2 DUP2 MSTORE PUSH1 0x20 ADD DUP3 DUP1 SLOAD PUSH2 0x416D SWAP1 PUSH2 0x5946 JUMP JUMPDEST DUP1 ISZERO PUSH2 0x41BA JUMPI DUP1 PUSH1 0x1F LT PUSH2 0x418F JUMPI PUSH2 0x100 DUP1 DUP4 SLOAD DIV MUL DUP4 MSTORE SWAP2 PUSH1 0x20 ADD SWAP2 PUSH2 0x41BA JUMP JUMPDEST DUP3 ADD SWAP2 SWAP1 PUSH1 0x0 MSTORE PUSH1 0x20 PUSH1 0x0 KECCAK256 SWAP1 JUMPDEST DUP2 SLOAD DUP2 MSTORE SWAP1 PUSH1 0x1 ADD SWAP1 PUSH1 0x20 ADD DUP1 DUP4 GT PUSH2 0x419D JUMPI DUP3 SWAP1 SUB PUSH1 0x1F AND DUP3 ADD SWAP2 JUMPDEST POP POP POP SWAP2 DUP4 MSTORE POP POP PUSH1 0x3 DUP3 DUP2 ADD SLOAD PUSH1 0x1 PUSH1 0x1 PUSH1 0xA0 SHL SUB SWAP1 DUP2 AND PUSH1 0x20 DUP1 DUP6 ADD SWAP2 SWAP1 SWAP2 MSTORE PUSH1 0x4 DUP6 ADD SLOAD PUSH1 0x40 DUP1 DUP7 ADD SWAP2 SWAP1 SWAP2 MSTORE PUSH1 0x5 DUP7 ADD SLOAD PUSH1 0x60 DUP7 ADD MSTORE PUSH1 0x6 DUP7 ADD SLOAD PUSH1 0x80 DUP7 ADD MSTORE PUSH1 0x7 DUP7 ADD SLOAD PUSH1 0xFF SWAP1 DUP2 AND ISZERO ISZERO PUSH1 0xA0 DUP8 ADD MSTORE PUSH1 0x8 DUP8 ADD SLOAD PUSH1 0xC0 DUP8 ADD MSTORE PUSH1 0x9 SWAP1 SWAP7 ADD SLOAD SWAP3 DUP4 AND PUSH1 0xE0 DUP7 ADD MSTORE PUSH1 0x1 PUSH1 0xA0 SHL SWAP1 SWAP3 DIV DUP6 AND ISZERO ISZERO PUSH2 0x100 SWAP1 SWAP5 ADD SWAP4 SWAP1 SWAP4 MSTORE CALLER PUSH1 0x0 SWAP1 DUP2 MSTORE PUSH1 0x12 SWAP1 SWAP4 MSTORE SWAP1 SWAP2 KECCAK256 ADD SLOAD SWAP2 SWAP3 POP AND ISZERO ISZERO PUSH1 0x1 EQ PUSH2 0x4272 JUMPI PUSH1 0x40 MLOAD PUSH3 0x461BCD PUSH1 0xE5 SHL DUP2 MSTORE PUSH1 0x4 ADD PUSH2 0x569 SWAP1 PUSH2 0x5B58 JUMP JUMPDEST CALLER PUSH1 0x0 SWAP1 DUP2 MSTORE PUSH1 0x16 PUSH1 0x20 SWAP1 DUP2 MSTORE PUSH1 0x40 SWAP2 DUP3 SWAP1 KECCAK256 DUP1 SLOAD DUP4 MLOAD DUP2 DUP5 MUL DUP2 ADD DUP5 ADD SWAP1 SWAP5 MSTORE DUP1 DUP5 MSTORE PUSH2 0x42D3 SWAP4 SWAP3 DUP4 ADD DUP3 DUP3 DUP1 ISZERO PUSH2 0x185A JUMPI PUSH1 0x20 MUL DUP3 ADD SWAP2 SWAP1 PUSH1 0x0 MSTORE PUSH1 0x20 PUSH1 0x0 KECCAK256 SWAP1 DUP2 SLOAD DUP2 MSTORE PUSH1 0x20 ADD SWAP1 PUSH1 0x1 ADD SWAP1 DUP1 DUP4 GT PUSH2 0x1846 JUMPI POP POP POP POP POP DUP4 PUSH2 0x2BB8 JUMP JUMPDEST ISZERO PUSH2 0x42F0 JUMPI PUSH1 0x40 MLOAD PUSH3 0x461BCD PUSH1 0xE5 SHL DUP2 MSTORE PUSH1 0x4 ADD PUSH2 0x569 SWAP1 PUSH2 0x5B8F JUMP JUMPDEST PUSH1 0x0 DUP3 DUP2 MSTORE PUSH1 0xD PUSH1 0x20 MSTORE PUSH1 0x40 SWAP1 KECCAK256 SLOAD DUP3 EQ PUSH2 0x431D JUMPI PUSH1 0x40 MLOAD PUSH3 0x461BCD PUSH1 0xE5 SHL DUP2 MSTORE PUSH1 0x4 ADD PUSH2 0x569 SWAP1 PUSH2 0x5BD9 JUMP JUMPDEST PUSH1 0xE0 DUP2 ADD MLOAD ISZERO PUSH2 0x433F JUMPI PUSH1 0x40 MLOAD PUSH3 0x461BCD PUSH1 0xE5 SHL DUP2 MSTORE PUSH1 0x4 ADD PUSH2 0x569 SWAP1 PUSH2 0x5C05 JUMP JUMPDEST PUSH1 0x1 PUSH1 0x1 PUSH1 0xA0 SHL SUB DUP4 AND PUSH1 0x0 SWAP1 DUP2 MSTORE PUSH1 0x10 PUSH1 0x20 MSTORE PUSH1 0x40 SWAP1 KECCAK256 PUSH1 0x1 ADD SLOAD DUP3 EQ PUSH2 0x4379 JUMPI PUSH1 0x40 MLOAD PUSH3 0x461BCD PUSH1 0xE5 SHL DUP2 MSTORE PUSH1 0x4 ADD PUSH2 0x569 SWAP1 PUSH2 0x5C31 JUMP JUMPDEST PUSH1 0x0 PUSH1 0xD PUSH1 0x0 DUP7 DUP2 MSTORE PUSH1 0x20 ADD SWAP1 DUP2 MSTORE PUSH1 0x20 ADD PUSH1 0x0 KECCAK256 PUSH1 0x40 MLOAD DUP1 PUSH2 0x160 ADD PUSH1 0x40 MSTORE SWAP1 DUP2 PUSH1 0x0 DUP3 ADD SLOAD DUP2 MSTORE PUSH1 0x20 ADD PUSH1 0x1 DUP3 ADD SLOAD DUP2 MSTORE PUSH1 0x20 ADD PUSH1 0x2 DUP3 ADD DUP1 SLOAD PUSH2 0x43BE SWAP1 PUSH2 0x5946 JUMP JUMPDEST DUP1 PUSH1 0x1F ADD PUSH1 0x20 DUP1 SWAP2 DIV MUL PUSH1 0x20 ADD PUSH1 0x40 MLOAD SWAP1 DUP2 ADD PUSH1 0x40 MSTORE DUP1 SWAP3 SWAP2 SWAP1 DUP2 DUP2 MSTORE PUSH1 0x20 ADD DUP3 DUP1 SLOAD PUSH2 0x43EA SWAP1 PUSH2 0x5946 JUMP JUMPDEST DUP1 ISZERO PUSH2 0x4437 JUMPI DUP1 PUSH1 0x1F LT PUSH2 0x440C JUMPI PUSH2 0x100 DUP1 DUP4 SLOAD DIV MUL DUP4 MSTORE SWAP2 PUSH1 0x20 ADD SWAP2 PUSH2 0x4437 JUMP JUMPDEST DUP3 ADD SWAP2 SWAP1 PUSH1 0x0 MSTORE PUSH1 0x20 PUSH1 0x0 KECCAK256 SWAP1 JUMPDEST DUP2 SLOAD DUP2 MSTORE SWAP1 PUSH1 0x1 ADD SWAP1 PUSH1 0x20 ADD DUP1 DUP4 GT PUSH2 0x441A JUMPI DUP3 SWAP1 SUB PUSH1 0x1F AND DUP3 ADD SWAP2 JUMPDEST POP POP POP SWAP2 DUP4 MSTORE POP POP PUSH1 0x3 DUP3 ADD SLOAD PUSH1 0x1 PUSH1 0x1 PUSH1 0xA0 SHL SUB SWAP1 DUP2 AND PUSH1 0x20 DUP1 DUP5 ADD SWAP2 SWAP1 SWAP2 MSTORE PUSH1 0x4 DUP5 ADD SLOAD PUSH1 0x40 DUP5 ADD MSTORE PUSH1 0x5 DUP5 ADD SLOAD PUSH1 0x60 DUP5 ADD MSTORE PUSH1 0x6 DUP5 ADD SLOAD PUSH1 0x80 DUP5 ADD MSTORE PUSH1 0x7 DUP5 ADD SLOAD PUSH1 0xFF SWAP1 DUP2 AND ISZERO ISZERO PUSH1 0xA0 DUP6 ADD MSTORE PUSH1 0x8 DUP6 ADD SLOAD PUSH1 0xC0 DUP6 ADD MSTORE PUSH1 0x9 SWAP1 SWAP5 ADD SLOAD SWAP2 DUP3 AND PUSH1 0xE0 DUP5 ADD MSTORE PUSH1 0x1 PUSH1 0xA0 SHL SWAP1 SWAP2 DIV SWAP1 SWAP3 AND ISZERO ISZERO PUSH2 0x100 SWAP1 SWAP2 ADD MSTORE DUP2 ADD MLOAD SWAP1 SWAP2 POP PUSH1 0x2 EQ PUSH2 0x44D8 JUMPI PUSH1 0x40 MLOAD PUSH3 0x461BCD PUSH1 0xE5 SHL DUP2 MSTORE PUSH1 0x4 ADD PUSH2 0x569 SWAP1 PUSH2 0x5CD3 JUMP JUMPDEST PUSH1 0x1 PUSH1 0x1 PUSH1 0xA0 SHL SUB DUP7 AND PUSH2 0x120 DUP3 ADD MSTORE PUSH2 0x3C1F DUP7 DUP3 PUSH2 0x5076 JUMP JUMPDEST DUP2 DUP2 PUSH1 0x0 PUSH1 0xD PUSH1 0x0 DUP4 DUP2 MSTORE PUSH1 0x20 ADD SWAP1 DUP2 MSTORE PUSH1 0x20 ADD PUSH1 0x0 KECCAK256 PUSH1 0x40 MLOAD DUP1 PUSH2 0x160 ADD PUSH1 0x40 MSTORE SWAP1 DUP2 PUSH1 0x0 DUP3 ADD SLOAD DUP2 MSTORE PUSH1 0x20 ADD PUSH1 0x1 DUP3 ADD SLOAD DUP2 MSTORE PUSH1 0x20 ADD PUSH1 0x2 DUP3 ADD DUP1 SLOAD PUSH2 0x4539 SWAP1 PUSH2 0x5946 JUMP JUMPDEST DUP1 PUSH1 0x1F ADD PUSH1 0x20 DUP1 SWAP2 DIV MUL PUSH1 0x20 ADD PUSH1 0x40 MLOAD SWAP1 DUP2 ADD PUSH1 0x40 MSTORE DUP1 SWAP3 SWAP2 SWAP1 DUP2 DUP2 MSTORE PUSH1 0x20 ADD DUP3 DUP1 SLOAD PUSH2 0x4565 SWAP1 PUSH2 0x5946 JUMP JUMPDEST DUP1 ISZERO PUSH2 0x45B2 JUMPI DUP1 PUSH1 0x1F LT PUSH2 0x4587 JUMPI PUSH2 0x100 DUP1 DUP4 SLOAD DIV MUL DUP4 MSTORE SWAP2 PUSH1 0x20 ADD SWAP2 PUSH2 0x45B2 JUMP JUMPDEST DUP3 ADD SWAP2 SWAP1 PUSH1 0x0 MSTORE PUSH1 0x20 PUSH1 0x0 KECCAK256 SWAP1 JUMPDEST DUP2 SLOAD DUP2 MSTORE SWAP1 PUSH1 0x1 ADD SWAP1 PUSH1 0x20 ADD DUP1 DUP4 GT PUSH2 0x4595 JUMPI DUP3 SWAP1 SUB PUSH1 0x1F AND DUP3 ADD SWAP2 JUMPDEST POP POP POP SWAP2 DUP4 MSTORE POP POP PUSH1 0x3 DUP3 DUP2 ADD SLOAD PUSH1 0x1 PUSH1 0x1 PUSH1 0xA0 SHL SUB SWAP1 DUP2 AND PUSH1 0x20 DUP1 DUP6 ADD SWAP2 SWAP1 SWAP2 MSTORE PUSH1 0x4 DUP1 DUP7 ADD SLOAD PUSH1 0x40 DUP1 DUP8 ADD SWAP2 SWAP1 SWAP2 MSTORE PUSH1 0x5 DUP8 ADD SLOAD PUSH1 0x60 DUP1 DUP9 ADD SWAP2 SWAP1 SWAP2 MSTORE PUSH1 0x6 DUP9 ADD SLOAD PUSH1 0x80 DUP1 DUP10 ADD SWAP2 SWAP1 SWAP2 MSTORE PUSH1 0x7 DUP10 ADD SLOAD PUSH1 0xFF SWAP1 DUP2 AND ISZERO ISZERO PUSH1 0xA0 DUP1 DUP12 ADD SWAP2 SWAP1 SWAP2 MSTORE PUSH1 0x8 DUP12 ADD SLOAD PUSH1 0xC0 DUP1 DUP13 ADD SWAP2 SWAP1 SWAP2 MSTORE PUSH1 0x9 SWAP1 SWAP12 ADD SLOAD DUP1 DUP10 AND PUSH1 0xE0 DUP1 DUP14 ADD SWAP2 SWAP1 SWAP2 MSTORE PUSH1 0x1 PUSH1 0xA0 SHL SWAP1 SWAP2 DIV DUP4 AND ISZERO ISZERO PUSH2 0x100 SWAP12 DUP13 ADD MSTORE CALLER PUSH1 0x0 SWAP1 DUP2 MSTORE PUSH1 0x12 DUP10 MSTORE DUP7 SWAP1 KECCAK256 DUP7 MLOAD SWAP2 DUP3 ADD DUP8 MSTORE DUP1 SLOAD DUP3 MSTORE PUSH1 0x1 DUP2 DUP2 ADD SLOAD SWAP1 SWAP11 AND SWAP9 DUP3 ADD SWAP9 SWAP1 SWAP9 MSTORE PUSH1 0x2 DUP9 ADD SLOAD SWAP6 DUP2 ADD SWAP6 SWAP1 SWAP6 MSTORE SWAP8 DUP7 ADD SLOAD DUP1 DUP3 AND ISZERO ISZERO SWAP4 DUP6 ADD SWAP4 SWAP1 SWAP4 MSTORE SWAP8 DUP3 DIV DUP9 AND ISZERO ISZERO SWAP1 DUP4 ADD DUP2 SWAP1 MSTORE PUSH3 0x10000 SWAP1 SWAP2 DIV SWAP1 SWAP7 AND ISZERO ISZERO SWAP5 DUP2 ADD SWAP5 SWAP1 SWAP5 MSTORE ADD SLOAD SWAP4 DUP3 ADD SWAP4 SWAP1 SWAP4 MSTORE SWAP3 SWAP4 POP EQ PUSH2 0x46F8 JUMPI PUSH1 0x40 MLOAD PUSH3 0x461BCD PUSH1 0xE5 SHL DUP2 MSTORE PUSH1 0x20 PUSH1 0x4 DUP3 ADD MSTORE PUSH1 0x11 PUSH1 0x24 DUP3 ADD MSTORE PUSH17 0x4E6F20566F74696E672052696768747321 PUSH1 0x78 SHL PUSH1 0x44 DUP3 ADD MSTORE PUSH1 0x64 ADD PUSH2 0x569 JUMP JUMPDEST CALLER PUSH1 0x0 SWAP1 DUP2 MSTORE PUSH1 0x12 PUSH1 0x20 MSTORE PUSH1 0x40 SWAP1 KECCAK256 PUSH1 0x3 ADD SLOAD PUSH1 0xFF AND ISZERO ISZERO PUSH1 0x1 EQ PUSH2 0x472F JUMPI PUSH1 0x40 MLOAD PUSH3 0x461BCD PUSH1 0xE5 SHL DUP2 MSTORE PUSH1 0x4 ADD PUSH2 0x569 SWAP1 PUSH2 0x5B58 JUMP JUMPDEST CALLER PUSH1 0x0 SWAP1 DUP2 MSTORE PUSH1 0x16 PUSH1 0x20 SWAP1 DUP2 MSTORE PUSH1 0x40 SWAP2 DUP3 SWAP1 KECCAK256 DUP1 SLOAD DUP4 MLOAD DUP2 DUP5 MUL DUP2 ADD DUP5 ADD SWAP1 SWAP5 MSTORE DUP1 DUP5 MSTORE PUSH2 0x4790 SWAP4 SWAP3 DUP4 ADD DUP3 DUP3 DUP1 ISZERO PUSH2 0x3EC6 JUMPI PUSH1 0x20 MUL DUP3 ADD SWAP2 SWAP1 PUSH1 0x0 MSTORE PUSH1 0x20 PUSH1 0x0 KECCAK256 SWAP1 DUP2 SLOAD DUP2 MSTORE PUSH1 0x20 ADD SWAP1 PUSH1 0x1 ADD SWAP1 DUP1 DUP4 GT PUSH2 0x3EB2 JUMPI POP POP POP POP POP DUP5 PUSH2 0x2BB8 JUMP JUMPDEST ISZERO PUSH2 0x47AD JUMPI PUSH1 0x40 MLOAD PUSH3 0x461BCD PUSH1 0xE5 SHL DUP2 MSTORE PUSH1 0x4 ADD PUSH2 0x569 SWAP1 PUSH2 0x5B8F JUMP JUMPDEST PUSH1 0x0 DUP4 DUP2 MSTORE PUSH1 0xD PUSH1 0x20 MSTORE PUSH1 0x40 SWAP1 KECCAK256 SLOAD DUP4 EQ PUSH2 0x47DA JUMPI PUSH1 0x40 MLOAD PUSH3 0x461BCD PUSH1 0xE5 SHL DUP2 MSTORE PUSH1 0x4 ADD PUSH2 0x569 SWAP1 PUSH2 0x5BD9 JUMP JUMPDEST PUSH1 0xE0 DUP3 ADD MLOAD ISZERO PUSH2 0x47FC JUMPI PUSH1 0x40 MLOAD PUSH3 0x461BCD PUSH1 0xE5 SHL DUP2 MSTORE PUSH1 0x4 ADD PUSH2 0x569 SWAP1 PUSH2 0x5C05 JUMP JUMPDEST PUSH1 0x1 PUSH1 0x1 PUSH1 0xA0 SHL SUB DUP5 AND PUSH1 0x0 SWAP1 DUP2 MSTORE PUSH1 0x10 PUSH1 0x20 MSTORE PUSH1 0x40 SWAP1 KECCAK256 PUSH1 0x1 ADD SLOAD DUP4 EQ PUSH2 0x4836 JUMPI PUSH1 0x40 MLOAD PUSH3 0x461BCD PUSH1 0xE5 SHL DUP2 MSTORE PUSH1 0x4 ADD PUSH2 0x569 SWAP1 PUSH2 0x5C31 JUMP JUMPDEST PUSH1 0x0 PUSH1 0xD PUSH1 0x0 DUP8 DUP2 MSTORE PUSH1 0x20 ADD SWAP1 DUP2 MSTORE PUSH1 0x20 ADD PUSH1 0x0 KECCAK256 PUSH1 0x40 MLOAD DUP1 PUSH2 0x160 ADD PUSH1 0x40 MSTORE SWAP1 DUP2 PUSH1 0x0 DUP3 ADD SLOAD DUP2 MSTORE PUSH1 0x20 ADD PUSH1 0x1 DUP3 ADD SLOAD DUP2 MSTORE PUSH1 0x20 ADD PUSH1 0x2 DUP3 ADD DUP1 SLOAD PUSH2 0x487B SWAP1 PUSH2 0x5946 JUMP JUMPDEST DUP1 PUSH1 0x1F ADD PUSH1 0x20 DUP1 SWAP2 DIV MUL PUSH1 0x20 ADD PUSH1 0x40 MLOAD SWAP1 DUP2 ADD PUSH1 0x40 MSTORE DUP1 SWAP3 SWAP2 SWAP1 DUP2 DUP2 MSTORE PUSH1 0x20 ADD DUP3 DUP1 SLOAD PUSH2 0x48A7 SWAP1 PUSH2 0x5946 JUMP JUMPDEST DUP1 ISZERO PUSH2 0x48F4 JUMPI DUP1 PUSH1 0x1F LT PUSH2 0x48C9 JUMPI PUSH2 0x100 DUP1 DUP4 SLOAD DIV MUL DUP4 MSTORE SWAP2 PUSH1 0x20 ADD SWAP2 PUSH2 0x48F4 JUMP JUMPDEST DUP3 ADD SWAP2 SWAP1 PUSH1 0x0 MSTORE PUSH1 0x20 PUSH1 0x0 KECCAK256 SWAP1 JUMPDEST DUP2 SLOAD DUP2 MSTORE SWAP1 PUSH1 0x1 ADD SWAP1 PUSH1 0x20 ADD DUP1 DUP4 GT PUSH2 0x48D7 JUMPI DUP3 SWAP1 SUB PUSH1 0x1F AND DUP3 ADD SWAP2 JUMPDEST POP POP POP SWAP2 DUP4 MSTORE POP POP PUSH1 0x3 DUP3 DUP2 ADD SLOAD PUSH1 0x1 PUSH1 0x1 PUSH1 0xA0 SHL SUB SWAP1 DUP2 AND PUSH1 0x20 DUP1 DUP6 ADD SWAP2 SWAP1 SWAP2 MSTORE PUSH1 0x4 DUP6 ADD SLOAD PUSH1 0x40 DUP6 ADD MSTORE PUSH1 0x5 DUP6 ADD SLOAD PUSH1 0x60 DUP6 ADD MSTORE PUSH1 0x6 DUP6 ADD SLOAD PUSH1 0x80 DUP6 ADD MSTORE PUSH1 0x7 DUP6 ADD SLOAD PUSH1 0xFF SWAP1 DUP2 AND ISZERO ISZERO PUSH1 0xA0 DUP7 ADD MSTORE PUSH1 0x8 DUP7 ADD SLOAD PUSH1 0xC0 DUP7 ADD MSTORE PUSH1 0x9 SWAP1 SWAP6 ADD SLOAD SWAP2 DUP3 AND PUSH1 0xE0 DUP6 ADD MSTORE PUSH1 0x1 PUSH1 0xA0 SHL SWAP1 SWAP2 DIV SWAP1 SWAP4 AND ISZERO ISZERO PUSH2 0x100 SWAP1 SWAP3 ADD SWAP2 SWAP1 SWAP2 MSTORE SWAP1 DUP3 ADD MLOAD SWAP2 SWAP3 POP EQ PUSH2 0x40D6 JUMPI PUSH1 0x40 MLOAD PUSH3 0x461BCD PUSH1 0xE5 SHL DUP2 MSTORE PUSH1 0x4 ADD PUSH2 0x569 SWAP1 PUSH2 0x5CD3 JUMP JUMPDEST PUSH1 0x0 DUP1 SLOAD PUSH1 0x1 PUSH1 0x1 PUSH1 0xA0 SHL SUB DUP4 DUP2 AND PUSH3 0x10000 DUP2 DUP2 MUL PUSH3 0x10000 PUSH1 0x1 PUSH1 0xB0 SHL SUB NOT DUP6 AND OR DUP6 SSTORE PUSH1 0x40 MLOAD SWAP4 DIV SWAP2 SWAP1 SWAP2 AND SWAP3 SWAP1 SWAP2 DUP4 SWAP2 PUSH32 0x8BE0079C531659141344CD1FD0A4F28419497F9722A3DAAFE3B4186F6B6457E0 SWAP2 LOG3 POP POP JUMP JUMPDEST PUSH1 0x0 SLOAD PUSH2 0x100 SWAP1 DIV PUSH1 0xFF AND PUSH2 0x4A5E JUMPI PUSH1 0x40 MLOAD PUSH3 0x461BCD PUSH1 0xE5 SHL DUP2 MSTORE PUSH1 0x20 PUSH1 0x4 DUP3 ADD MSTORE PUSH1 0x2B PUSH1 0x24 DUP3 ADD MSTORE PUSH32 0x496E697469616C697A61626C653A20636F6E7472616374206973206E6F742069 PUSH1 0x44 DUP3 ADD MSTORE PUSH11 0x6E697469616C697A696E67 PUSH1 0xA8 SHL PUSH1 0x64 DUP3 ADD MSTORE PUSH1 0x84 ADD PUSH2 0x569 JUMP JUMPDEST PUSH1 0x64 PUSH1 0x2 SSTORE PUSH2 0x3E8 PUSH1 0x3 SSTORE PUSH2 0x4A71 PUSH2 0x51AB JUMP JUMPDEST PUSH1 0x0 SLOAD PUSH1 0x1 DUP1 SLOAD PUSH3 0x10000 SWAP1 SWAP3 DIV PUSH1 0x1 PUSH1 0x1 PUSH1 0xA0 SHL SUB AND PUSH1 0x1 PUSH1 0x1 PUSH1 0xA0 SHL SUB NOT SWAP1 SWAP3 AND SWAP2 SWAP1 SWAP2 OR SWAP1 SSTORE JUMP JUMPDEST PUSH1 0x0 DUP2 DUP2 MSTORE PUSH1 0xD PUSH1 0x20 SWAP1 DUP2 MSTORE PUSH1 0x40 DUP1 DUP4 KECCAK256 PUSH1 0xF DUP4 MSTORE DUP2 DUP5 KECCAK256 DUP1 SLOAD PUSH1 0x1 DUP2 ADD DUP3 SSTORE SWAP1 DUP6 MSTORE DUP4 DUP6 KECCAK256 ADD DUP1 SLOAD PUSH1 0x1 PUSH1 0x1 PUSH1 0xA0 SHL SUB NOT AND CALLER OR SWAP1 SSTORE DUP2 MLOAD SWAP3 DUP4 ADD DUP7 SWAP1 MSTORE SWAP3 SWAP2 ADD PUSH1 0x40 MLOAD PUSH1 0x20 DUP2 DUP4 SUB SUB DUP2 MSTORE SWAP1 PUSH1 0x40 MSTORE DUP1 MLOAD SWAP1 PUSH1 0x20 ADD KECCAK256 SWAP1 POP DUP1 PUSH1 0x13 PUSH1 0x0 CALLER PUSH1 0x1 PUSH1 0x1 PUSH1 0xA0 SHL SUB AND PUSH1 0x1 PUSH1 0x1 PUSH1 0xA0 SHL SUB AND DUP2 MSTORE PUSH1 0x20 ADD SWAP1 DUP2 MSTORE PUSH1 0x20 ADD PUSH1 0x0 KECCAK256 DUP2 SWAP1 SSTORE POP PUSH1 0x0 PUSH1 0x40 MLOAD DUP1 PUSH1 0xE0 ADD PUSH1 0x40 MSTORE DUP1 DUP5 PUSH1 0x4 ADD SLOAD DUP2 MSTORE PUSH1 0x20 ADD CALLER PUSH1 0x1 PUSH1 0x1 PUSH1 0xA0 SHL SUB AND DUP2 MSTORE PUSH1 0x20 ADD DUP6 DUP2 MSTORE PUSH1 0x20 ADD PUSH1 0x1 ISZERO ISZERO DUP2 MSTORE PUSH1 0x20 ADD PUSH1 0x1 ISZERO ISZERO DUP2 MSTORE PUSH1 0x20 ADD PUSH1 0x0 ISZERO ISZERO DUP2 MSTORE PUSH1 0x20 ADD DUP4 DUP2 MSTORE POP SWAP1 POP DUP1 PUSH1 0x12 PUSH1 0x0 CALLER PUSH1 0x1 PUSH1 0x1 PUSH1 0xA0 SHL SUB AND PUSH1 0x1 PUSH1 0x1 PUSH1 0xA0 SHL SUB AND DUP2 MSTORE PUSH1 0x20 ADD SWAP1 DUP2 MSTORE PUSH1 0x20 ADD PUSH1 0x0 KECCAK256 PUSH1 0x0 DUP3 ADD MLOAD DUP2 PUSH1 0x0 ADD SSTORE PUSH1 0x20 DUP3 ADD MLOAD DUP2 PUSH1 0x1 ADD PUSH1 0x0 PUSH2 0x100 EXP DUP2 SLOAD DUP2 PUSH1 0x1 PUSH1 0x1 PUSH1 0xA0 SHL SUB MUL NOT AND SWAP1 DUP4 PUSH1 0x1 PUSH1 0x1 PUSH1 0xA0 SHL SUB AND MUL OR SWAP1 SSTORE POP PUSH1 0x40 DUP3 ADD MLOAD DUP2 PUSH1 0x2 ADD SSTORE PUSH1 0x60 DUP3 ADD MLOAD DUP2 PUSH1 0x3 ADD PUSH1 0x0 PUSH2 0x100 EXP DUP2 SLOAD DUP2 PUSH1 0xFF MUL NOT AND SWAP1 DUP4 ISZERO ISZERO MUL OR SWAP1 SSTORE POP PUSH1 0x80 DUP3 ADD MLOAD DUP2 PUSH1 0x3 ADD PUSH1 0x1 PUSH2 0x100 EXP DUP2 SLOAD DUP2 PUSH1 0xFF MUL NOT AND SWAP1 DUP4 ISZERO ISZERO MUL OR SWAP1 SSTORE POP PUSH1 0xA0 DUP3 ADD MLOAD DUP2 PUSH1 0x3 ADD PUSH1 0x2 PUSH2 0x100 EXP DUP2 SLOAD DUP2 PUSH1 0xFF MUL NOT AND SWAP1 DUP4 ISZERO ISZERO MUL OR SWAP1 SSTORE POP PUSH1 0xC0 DUP3 ADD MLOAD DUP2 PUSH1 0x4 ADD SSTORE SWAP1 POP POP PUSH1 0x6 DUP2 SWAP1 DUP1 PUSH1 0x1 DUP2 SLOAD ADD DUP1 DUP3 SSTORE DUP1 SWAP2 POP POP PUSH1 0x1 SWAP1 SUB SWAP1 PUSH1 0x0 MSTORE PUSH1 0x20 PUSH1 0x0 KECCAK256 SWAP1 PUSH1 0x5 MUL ADD PUSH1 0x0 SWAP1 SWAP2 SWAP1 SWAP2 SWAP1 SWAP2 POP PUSH1 0x0 DUP3 ADD MLOAD DUP2 PUSH1 0x0 ADD SSTORE PUSH1 0x20 DUP3 ADD MLOAD DUP2 PUSH1 0x1 ADD PUSH1 0x0 PUSH2 0x100 EXP DUP2 SLOAD DUP2 PUSH1 0x1 PUSH1 0x1 PUSH1 0xA0 SHL SUB MUL NOT AND SWAP1 DUP4 PUSH1 0x1 PUSH1 0x1 PUSH1 0xA0 SHL SUB AND MUL OR SWAP1 SSTORE POP PUSH1 0x40 DUP3 ADD MLOAD DUP2 PUSH1 0x2 ADD SSTORE PUSH1 0x60 DUP3 ADD MLOAD DUP2 PUSH1 0x3 ADD PUSH1 0x0 PUSH2 0x100 EXP DUP2 SLOAD DUP2 PUSH1 0xFF MUL NOT AND SWAP1 DUP4 ISZERO ISZERO MUL OR SWAP1 SSTORE POP PUSH1 0x80 DUP3 ADD MLOAD DUP2 PUSH1 0x3 ADD PUSH1 0x1 PUSH2 0x100 EXP DUP2 SLOAD DUP2 PUSH1 0xFF MUL NOT AND SWAP1 DUP4 ISZERO ISZERO MUL OR SWAP1 SSTORE POP PUSH1 0xA0 DUP3 ADD MLOAD DUP2 PUSH1 0x3 ADD PUSH1 0x2 PUSH2 0x100 EXP DUP2 SLOAD DUP2 PUSH1 0xFF MUL NOT AND SWAP1 DUP4 ISZERO ISZERO MUL OR SWAP1 SSTORE POP PUSH1 0xC0 DUP3 ADD MLOAD DUP2 PUSH1 0x4 ADD SSTORE POP POP PUSH1 0xD PUSH1 0x0 DUP6 DUP2 MSTORE PUSH1 0x20 ADD SWAP1 DUP2 MSTORE PUSH1 0x20 ADD PUSH1 0x0 KECCAK256 PUSH1 0x4 ADD PUSH1 0x0 DUP2 SLOAD DUP1 SWAP3 SWAP2 SWAP1 PUSH2 0x4D41 SWAP1 PUSH2 0x5C8C JUMP JUMPDEST SWAP1 SWAP2 SSTORE POP POP PUSH1 0x0 DUP6 DUP2 MSTORE PUSH1 0x14 PUSH1 0x20 SWAP1 DUP2 MSTORE PUSH1 0x40 DUP1 DUP4 KECCAK256 DUP1 SLOAD PUSH1 0x1 PUSH1 0x1 PUSH1 0xA0 SHL SUB NOT AND CALLER SWAP1 DUP2 OR SWAP1 SWAP2 SSTORE DUP4 MSTORE PUSH1 0x15 DUP3 MSTORE DUP1 DUP4 KECCAK256 DUP1 SLOAD PUSH1 0x1 DUP2 DUP2 ADD DUP4 SSTORE SWAP2 DUP6 MSTORE DUP4 DUP6 KECCAK256 ADD DUP9 SWAP1 SSTORE DUP9 DUP5 MSTORE PUSH1 0x17 DUP4 MSTORE DUP2 DUP5 KECCAK256 DUP1 SLOAD SWAP2 DUP3 ADD DUP2 SSTORE DUP5 MSTORE SWAP2 SWAP1 SWAP3 KECCAK256 ADD DUP6 SWAP1 SSTORE MLOAD PUSH32 0xD850A8248DF1456F35B1B26DB099385CB363335BB60A8E99294BC10124267871 SWAP1 PUSH2 0xBD0 SWAP1 DUP5 DUP2 MSTORE PUSH1 0x20 ADD SWAP1 JUMP JUMPDEST PUSH1 0x0 DUP2 DUP2 MSTORE PUSH1 0xD PUSH1 0x20 SWAP1 DUP2 MSTORE PUSH1 0x40 DUP1 DUP4 KECCAK256 PUSH1 0xF DUP4 MSTORE DUP2 DUP5 KECCAK256 DUP1 SLOAD PUSH1 0x1 DUP2 ADD DUP3 SSTORE SWAP1 DUP6 MSTORE DUP4 DUP6 KECCAK256 ADD DUP1 SLOAD PUSH1 0x1 PUSH1 0x1 PUSH1 0xA0 SHL SUB NOT AND CALLER OR SWAP1 SSTORE DUP2 MLOAD SWAP3 DUP4 ADD DUP7 SWAP1 MSTORE SWAP3 SWAP2 ADD PUSH1 0x40 MLOAD PUSH1 0x20 DUP2 DUP4 SUB SUB DUP2 MSTORE SWAP1 PUSH1 0x40 MSTORE DUP1 MLOAD SWAP1 PUSH1 0x20 ADD KECCAK256 SWAP1 POP DUP1 PUSH1 0x13 PUSH1 0x0 CALLER PUSH1 0x1 PUSH1 0x1 PUSH1 0xA0 SHL SUB AND PUSH1 0x1 PUSH1 0x1 PUSH1 0xA0 SHL SUB AND DUP2 MSTORE PUSH1 0x20 ADD SWAP1 DUP2 MSTORE PUSH1 0x20 ADD PUSH1 0x0 KECCAK256 DUP2 SWAP1 SSTORE POP PUSH1 0x0 PUSH1 0x40 MLOAD DUP1 PUSH1 0xE0 ADD PUSH1 0x40 MSTORE DUP1 DUP5 PUSH1 0x4 ADD SLOAD DUP2 MSTORE PUSH1 0x20 ADD CALLER PUSH1 0x1 PUSH1 0x1 PUSH1 0xA0 SHL SUB AND DUP2 MSTORE PUSH1 0x20 ADD DUP6 DUP2 MSTORE PUSH1 0x20 ADD PUSH1 0x1 ISZERO ISZERO DUP2 MSTORE PUSH1 0x20 ADD PUSH1 0x0 ISZERO ISZERO DUP2 MSTORE PUSH1 0x20 ADD PUSH1 0x0 ISZERO ISZERO DUP2 MSTORE PUSH1 0x20 ADD DUP4 DUP2 MSTORE POP SWAP1 POP DUP1 PUSH1 0x12 PUSH1 0x0 CALLER PUSH1 0x1 PUSH1 0x1 PUSH1 0xA0 SHL SUB AND PUSH1 0x1 PUSH1 0x1 PUSH1 0xA0 SHL SUB AND DUP2 MSTORE PUSH1 0x20 ADD SWAP1 DUP2 MSTORE PUSH1 0x20 ADD PUSH1 0x0 KECCAK256 PUSH1 0x0 DUP3 ADD MLOAD DUP2 PUSH1 0x0 ADD SSTORE PUSH1 0x20 DUP3 ADD MLOAD DUP2 PUSH1 0x1 ADD PUSH1 0x0 PUSH2 0x100 EXP DUP2 SLOAD DUP2 PUSH1 0x1 PUSH1 0x1 PUSH1 0xA0 SHL SUB MUL NOT AND SWAP1 DUP4 PUSH1 0x1 PUSH1 0x1 PUSH1 0xA0 SHL SUB AND MUL OR SWAP1 SSTORE POP PUSH1 0x40 DUP3 ADD MLOAD DUP2 PUSH1 0x2 ADD SSTORE PUSH1 0x60 DUP3 ADD MLOAD DUP2 PUSH1 0x3 ADD PUSH1 0x0 PUSH2 0x100 EXP DUP2 SLOAD DUP2 PUSH1 0xFF MUL NOT AND SWAP1 DUP4 ISZERO ISZERO MUL OR SWAP1 SSTORE POP PUSH1 0x80 DUP3 ADD MLOAD DUP2 PUSH1 0x3 ADD PUSH1 0x1 PUSH2 0x100 EXP DUP2 SLOAD DUP2 PUSH1 0xFF MUL NOT AND SWAP1 DUP4 ISZERO ISZERO MUL OR SWAP1 SSTORE POP PUSH1 0xA0 DUP3 ADD MLOAD DUP2 PUSH1 0x3 ADD PUSH1 0x2 PUSH2 0x100 EXP DUP2 SLOAD DUP2 PUSH1 0xFF MUL NOT AND SWAP1 DUP4 ISZERO ISZERO MUL OR SWAP1 SSTORE POP PUSH1 0xC0 DUP3 ADD MLOAD DUP2 PUSH1 0x4 ADD SSTORE SWAP1 POP POP PUSH1 0x6 DUP2 SWAP1 DUP1 PUSH1 0x1 DUP2 SLOAD ADD DUP1 DUP3 SSTORE DUP1 SWAP2 POP POP PUSH1 0x1 SWAP1 SUB SWAP1 PUSH1 0x0 MSTORE PUSH1 0x20 PUSH1 0x0 KECCAK256 SWAP1 PUSH1 0x5 MUL ADD PUSH1 0x0 SWAP1 SWAP2 SWAP1 SWAP2 SWAP1 SWAP2 POP PUSH1 0x0 DUP3 ADD MLOAD DUP2 PUSH1 0x0 ADD SSTORE PUSH1 0x20 DUP3 ADD MLOAD DUP2 PUSH1 0x1 ADD PUSH1 0x0 PUSH2 0x100 EXP DUP2 SLOAD DUP2 PUSH1 0x1 PUSH1 0x1 PUSH1 0xA0 SHL SUB MUL NOT AND SWAP1 DUP4 PUSH1 0x1 PUSH1 0x1 PUSH1 0xA0 SHL SUB AND MUL OR SWAP1 SSTORE POP PUSH1 0x40 DUP3 ADD MLOAD DUP2 PUSH1 0x2 ADD SSTORE PUSH1 0x60 DUP3 ADD MLOAD DUP2 PUSH1 0x3 ADD PUSH1 0x0 PUSH2 0x100 EXP DUP2 SLOAD DUP2 PUSH1 0xFF MUL NOT AND SWAP1 DUP4 ISZERO ISZERO MUL OR SWAP1 SSTORE POP PUSH1 0x80 DUP3 ADD MLOAD DUP2 PUSH1 0x3 ADD PUSH1 0x1 PUSH2 0x100 EXP DUP2 SLOAD DUP2 PUSH1 0xFF MUL NOT AND SWAP1 DUP4 ISZERO ISZERO MUL OR SWAP1 SSTORE POP PUSH1 0xA0 DUP3 ADD MLOAD DUP2 PUSH1 0x3 ADD PUSH1 0x2 PUSH2 0x100 EXP DUP2 SLOAD DUP2 PUSH1 0xFF MUL NOT AND SWAP1 DUP4 ISZERO ISZERO MUL OR SWAP1 SSTORE POP PUSH1 0xC0 DUP3 ADD MLOAD DUP2 PUSH1 0x4 ADD SSTORE POP POP PUSH1 0xD PUSH1 0x0 DUP6 DUP2 MSTORE PUSH1 0x20 ADD SWAP1 DUP2 MSTORE PUSH1 0x20 ADD PUSH1 0x0 KECCAK256 PUSH1 0x4 ADD PUSH1 0x0 DUP2 SLOAD DUP1 SWAP3 SWAP2 SWAP1 PUSH2 0x4D41 SWAP1 PUSH2 0x5C8C JUMP JUMPDEST PUSH2 0x120 DUP2 ADD MLOAD PUSH1 0x1 PUSH1 0x1 PUSH1 0xA0 SHL SUB SWAP1 DUP2 AND PUSH1 0x0 SWAP1 DUP2 MSTORE PUSH1 0x10 PUSH1 0x20 MSTORE PUSH1 0x40 DUP1 DUP3 KECCAK256 PUSH1 0x3 SWAP1 DUP2 ADD SLOAD SWAP4 DUP7 AND DUP4 MSTORE SWAP1 DUP3 KECCAK256 ADD SLOAD SWAP1 SWAP2 SWAP1 PUSH2 0x50B4 SWAP1 PUSH1 0x1 PUSH2 0x5C74 JUMP JUMPDEST GT ISZERO PUSH2 0x50D7 JUMPI PUSH1 0x1 PUSH1 0x1 PUSH1 0xA0 SHL SUB DUP4 AND PUSH2 0x120 DUP4 ADD MSTORE PUSH1 0x0 PUSH2 0x140 DUP4 ADD MSTORE PUSH2 0x5120 JUMP JUMPDEST PUSH2 0x120 DUP3 ADD MLOAD PUSH1 0x1 PUSH1 0x1 PUSH1 0xA0 SHL SUB SWAP1 DUP2 AND PUSH1 0x0 SWAP1 DUP2 MSTORE PUSH1 0x10 PUSH1 0x20 MSTORE PUSH1 0x40 DUP1 DUP3 KECCAK256 PUSH1 0x3 SWAP1 DUP2 ADD SLOAD SWAP4 DUP8 AND DUP4 MSTORE SWAP2 KECCAK256 ADD SLOAD PUSH2 0x5111 SWAP1 PUSH1 0x1 PUSH2 0x5C74 JUMP JUMPDEST EQ ISZERO PUSH2 0x5120 JUMPI PUSH1 0x1 PUSH2 0x140 DUP4 ADD MSTORE JUMPDEST POP PUSH2 0x140 ADD MLOAD SWAP2 SWAP1 POP JUMP JUMPDEST PUSH1 0x1 PUSH1 0x1 PUSH1 0xA0 SHL SUB DUP2 AND PUSH1 0x0 SWAP1 DUP2 MSTORE PUSH1 0x10 PUSH1 0x20 MSTORE PUSH1 0x40 DUP2 KECCAK256 PUSH1 0x3 ADD DUP1 SLOAD SWAP2 PUSH2 0x5152 DUP4 PUSH2 0x5C8C JUMP JUMPDEST SWAP1 SWAP2 SSTORE POP POP CALLER PUSH1 0x0 SWAP1 DUP2 MSTORE PUSH1 0x12 PUSH1 0x20 MSTORE PUSH1 0x40 DUP1 DUP3 KECCAK256 PUSH1 0x3 ADD DUP1 SLOAD PUSH3 0xFF0000 NOT AND PUSH3 0x10000 OR SWAP1 SSTORE MLOAD PUSH1 0x1 PUSH1 0x1 PUSH1 0xA0 SHL SUB DUP4 AND SWAP2 PUSH32 0xAEC2CCAE8681FD01AD220ECB7E9B5F7D485B1CC3CC01599ACB1578016B30A6BD SWAP2 LOG2 POP JUMP JUMPDEST PUSH1 0x40 DUP1 MLOAD DUP1 DUP3 ADD SWAP1 SWAP2 MSTORE PUSH1 0x9 DUP2 MSTORE PUSH9 0x6F70656E2D66726565 PUSH1 0xB8 SHL PUSH1 0x20 DUP1 DUP4 ADD SWAP2 DUP3 MSTORE PUSH1 0x0 DUP1 MSTORE PUSH1 0x4 SWAP1 MSTORE SWAP1 MLOAD PUSH2 0x5203 SWAP2 PUSH32 0x17EF568E3E12AB5B9C7254A8D58478811DE00F9E6EB34345ACD53BF8FD09D3EC SWAP2 PUSH2 0x5438 JUMP JUMPDEST POP PUSH1 0x40 DUP1 MLOAD DUP1 DUP3 ADD SWAP1 SWAP2 MSTORE PUSH1 0xB DUP2 MSTORE PUSH11 0x636C6F7365642D66726565 PUSH1 0xA8 SHL PUSH1 0x20 DUP1 DUP4 ADD SWAP2 DUP3 MSTORE PUSH1 0x1 PUSH1 0x0 MSTORE PUSH1 0x4 SWAP1 MSTORE SWAP1 MLOAD PUSH2 0x525F SWAP2 PUSH32 0xABD6E7CB50984FF9C2F3E18A2660C3353DADF4E3291DEEB275DAE2CD1E44FE05 SWAP2 PUSH2 0x5438 JUMP JUMPDEST POP PUSH1 0x40 DUP1 MLOAD DUP1 DUP3 ADD SWAP1 SWAP2 MSTORE PUSH1 0x9 DUP2 MSTORE PUSH9 0x1BDC195B8B5C185A59 PUSH1 0xBA SHL PUSH1 0x20 DUP1 DUP4 ADD SWAP2 DUP3 MSTORE PUSH1 0x2 PUSH1 0x0 MSTORE PUSH1 0x4 SWAP1 MSTORE SWAP1 MLOAD PUSH2 0x52B9 SWAP2 PUSH32 0x91DA3FD0782E51C6B3986E9E672FD566868E71F3DBC2D6C2CD6FBB3E361AF2A7 SWAP2 PUSH2 0x5438 JUMP JUMPDEST POP PUSH1 0x40 DUP1 MLOAD DUP1 DUP3 ADD SWAP1 SWAP2 MSTORE PUSH1 0xB DUP2 MSTORE PUSH11 0x18DB1BDCD9590B5C185A59 PUSH1 0xAA SHL PUSH1 0x20 DUP1 DUP4 ADD SWAP2 DUP3 MSTORE PUSH1 0x3 PUSH1 0x0 MSTORE PUSH1 0x4 SWAP1 MSTORE SWAP1 MLOAD PUSH2 0x5315 SWAP2 PUSH32 0x2E174C10E159EA99B867CE3205125C24A42D128804E4070ED6FCC8CC98166AA0 SWAP2 PUSH2 0x5438 JUMP JUMPDEST POP PUSH1 0x40 DUP1 MLOAD DUP1 DUP3 ADD SWAP1 SWAP2 MSTORE PUSH1 0x12 DUP2 MSTORE PUSH18 0x18DB1BDCD9590B599C99594B5CD958DC995D PUSH1 0x72 SHL PUSH1 0x20 DUP1 DUP4 ADD SWAP2 DUP3 MSTORE PUSH1 0x4 PUSH1 0x0 DUP2 SWAP1 MSTORE SWAP1 MSTORE SWAP1 MLOAD PUSH2 0x5378 SWAP2 PUSH32 0x1A1E6821CDE7D0159C0D293177871E09677B4E42307C7DB3BA94F8648A5A050F SWAP2 PUSH2 0x5438 JUMP JUMPDEST POP PUSH1 0x40 DUP1 MLOAD DUP1 DUP3 ADD SWAP1 SWAP2 MSTORE PUSH1 0x10 DUP2 MSTORE PUSH16 0x1BDC195B8B5C185A590B5CD958DC995D PUSH1 0x82 SHL PUSH1 0x20 DUP1 DUP4 ADD SWAP2 DUP3 MSTORE PUSH1 0x5 PUSH1 0x0 MSTORE PUSH1 0x4 SWAP1 MSTORE SWAP1 MLOAD PUSH2 0x53D9 SWAP2 PUSH32 0x4CDE762EF08B6B6C5DED8E8C4C0B3F4E5C9AD7342C88FCC93681B4588B73F05 SWAP2 PUSH2 0x5438 JUMP JUMPDEST POP PUSH1 0x40 DUP1 MLOAD DUP1 DUP3 ADD SWAP1 SWAP2 MSTORE PUSH1 0x12 DUP2 MSTORE PUSH18 0x18DB1BDCD9590B5C185A590B5CD958DC995D PUSH1 0x72 SHL PUSH1 0x20 DUP1 DUP4 ADD SWAP2 DUP3 MSTORE PUSH1 0x6 PUSH1 0x0 MSTORE PUSH1 0x4 SWAP1 MSTORE SWAP1 MLOAD PUSH2 0x1077 SWAP2 PUSH32 0xC59312466997BB42AAAF719ECE141047820E6B34531E1670DC1852A453648F0F SWAP2 JUMPDEST DUP3 DUP1 SLOAD PUSH2 0x5444 SWAP1 PUSH2 0x5946 JUMP JUMPDEST SWAP1 PUSH1 0x0 MSTORE PUSH1 0x20 PUSH1 0x0 KECCAK256 SWAP1 PUSH1 0x1F ADD PUSH1 0x20 SWAP1 DIV DUP2 ADD SWAP3 DUP3 PUSH2 0x5466 JUMPI PUSH1 0x0 DUP6 SSTORE PUSH2 0x54AC JUMP JUMPDEST DUP3 PUSH1 0x1F LT PUSH2 0x547F JUMPI DUP1 MLOAD PUSH1 0xFF NOT AND DUP4 DUP1 ADD OR DUP6 SSTORE PUSH2 0x54AC JUMP JUMPDEST DUP3 DUP1 ADD PUSH1 0x1 ADD DUP6 SSTORE DUP3 ISZERO PUSH2 0x54AC JUMPI SWAP2 DUP3 ADD JUMPDEST DUP3 DUP2 GT ISZERO PUSH2 0x54AC JUMPI DUP3 MLOAD DUP3 SSTORE SWAP2 PUSH1 0x20 ADD SWAP2 SWAP1 PUSH1 0x1 ADD SWAP1 PUSH2 0x5491 JUMP JUMPDEST POP PUSH2 0x54B8 SWAP3 SWAP2 POP PUSH2 0x5511 JUMP JUMPDEST POP SWAP1 JUMP JUMPDEST DUP3 DUP1 SLOAD DUP3 DUP3 SSTORE SWAP1 PUSH1 0x0 MSTORE PUSH1 0x20 PUSH1 0x0 KECCAK256 SWAP1 DUP2 ADD SWAP3 DUP3 ISZERO PUSH2 0x54AC JUMPI SWAP2 PUSH1 0x20 MUL DUP3 ADD JUMPDEST DUP3 DUP2 GT ISZERO PUSH2 0x54AC JUMPI DUP3 MLOAD DUP3 SLOAD PUSH1 0x1 PUSH1 0x1 PUSH1 0xA0 SHL SUB NOT AND PUSH1 0x1 PUSH1 0x1 PUSH1 0xA0 SHL SUB SWAP1 SWAP2 AND OR DUP3 SSTORE PUSH1 0x20 SWAP1 SWAP3 ADD SWAP2 PUSH1 0x1 SWAP1 SWAP2 ADD SWAP1 PUSH2 0x54DC JUMP JUMPDEST JUMPDEST DUP1 DUP3 GT ISZERO PUSH2 0x54B8 JUMPI PUSH1 0x0 DUP2 SSTORE PUSH1 0x1 ADD PUSH2 0x5512 JUMP JUMPDEST PUSH1 0x0 PUSH1 0x20 DUP3 DUP5 SUB SLT ISZERO PUSH2 0x5538 JUMPI PUSH1 0x0 DUP1 REVERT JUMPDEST POP CALLDATALOAD SWAP2 SWAP1 POP JUMP JUMPDEST DUP1 CALLDATALOAD PUSH1 0x1 PUSH1 0x1 PUSH1 0xA0 SHL SUB DUP2 AND DUP2 EQ PUSH2 0x5556 JUMPI PUSH1 0x0 DUP1 REVERT JUMPDEST SWAP2 SWAP1 POP JUMP JUMPDEST PUSH1 0x0 DUP1 PUSH1 0x40 DUP4 DUP6 SUB SLT ISZERO PUSH2 0x556E JUMPI PUSH1 0x0 DUP1 REVERT JUMPDEST PUSH2 0x5577 DUP4 PUSH2 0x553F JUMP JUMPDEST SWAP5 PUSH1 0x20 SWAP4 SWAP1 SWAP4 ADD CALLDATALOAD SWAP4 POP POP POP JUMP JUMPDEST PUSH1 0x20 DUP1 DUP3 MSTORE DUP3 MLOAD DUP3 DUP3 ADD DUP2 SWAP1 MSTORE PUSH1 0x0 SWAP2 SWAP1 DUP5 DUP3 ADD SWAP1 PUSH1 0x40 DUP6 ADD SWAP1 DUP5 JUMPDEST DUP2 DUP2 LT ISZERO PUSH2 0x55C6 JUMPI DUP4 MLOAD PUSH1 0x1 PUSH1 0x1 PUSH1 0xA0 SHL SUB AND DUP4 MSTORE SWAP3 DUP5 ADD SWAP3 SWAP2 DUP5 ADD SWAP2 PUSH1 0x1 ADD PUSH2 0x55A1 JUMP JUMPDEST POP SWAP1 SWAP7 SWAP6 POP POP POP POP POP POP JUMP JUMPDEST PUSH1 0x0 DUP1 PUSH1 0x40 DUP4 DUP6 SUB SLT ISZERO PUSH2 0x55E5 JUMPI PUSH1 0x0 DUP1 REVERT JUMPDEST POP POP DUP1 CALLDATALOAD SWAP3 PUSH1 0x20 SWAP1 SWAP2 ADD CALLDATALOAD SWAP2 POP JUMP JUMPDEST PUSH1 0x0 DUP2 MLOAD DUP1 DUP5 MSTORE PUSH1 0x0 JUMPDEST DUP2 DUP2 LT ISZERO PUSH2 0x561A JUMPI PUSH1 0x20 DUP2 DUP6 ADD DUP2 ADD MLOAD DUP7 DUP4 ADD DUP3 ADD MSTORE ADD PUSH2 0x55FE JUMP JUMPDEST DUP2 DUP2 GT ISZERO PUSH2 0x562C JUMPI PUSH1 0x0 PUSH1 0x20 DUP4 DUP8 ADD ADD MSTORE JUMPDEST POP PUSH1 0x1F ADD PUSH1 0x1F NOT AND SWAP3 SWAP1 SWAP3 ADD PUSH1 0x20 ADD SWAP3 SWAP2 POP POP JUMP JUMPDEST PUSH1 0x20 DUP2 MSTORE DUP2 MLOAD PUSH1 0x20 DUP3 ADD MSTORE PUSH1 0x20 DUP3 ADD MLOAD PUSH1 0x40 DUP3 ADD MSTORE PUSH1 0x0 PUSH1 0x40 DUP4 ADD MLOAD PUSH2 0x160 DUP1 PUSH1 0x60 DUP6 ADD MSTORE PUSH2 0x5674 PUSH2 0x180 DUP6 ADD DUP4 PUSH2 0x55F4 JUMP JUMPDEST SWAP2 POP PUSH1 0x60 DUP6 ADD MLOAD PUSH2 0x5690 PUSH1 0x80 DUP7 ADD DUP3 PUSH1 0x1 PUSH1 0x1 PUSH1 0xA0 SHL SUB AND SWAP1 MSTORE JUMP JUMPDEST POP PUSH1 0x80 DUP6 ADD MLOAD PUSH1 0xA0 DUP6 ADD MSTORE PUSH1 0xA0 DUP6 ADD MLOAD PUSH1 0xC0 DUP6 ADD MSTORE PUSH1 0xC0 DUP6 ADD MLOAD PUSH1 0xE0 DUP6 ADD MSTORE PUSH1 0xE0 DUP6 ADD MLOAD PUSH2 0x100 PUSH2 0x56C4 DUP2 DUP8 ADD DUP4 ISZERO ISZERO SWAP1 MSTORE JUMP JUMPDEST DUP7 ADD MLOAD PUSH2 0x120 DUP7 DUP2 ADD SWAP2 SWAP1 SWAP2 MSTORE DUP7 ADD MLOAD SWAP1 POP PUSH2 0x140 PUSH2 0x56ED DUP2 DUP8 ADD DUP4 PUSH1 0x1 PUSH1 0x1 PUSH1 0xA0 SHL SUB AND SWAP1 MSTORE JUMP JUMPDEST SWAP1 SWAP6 ADD MLOAD ISZERO ISZERO SWAP4 ADD SWAP3 SWAP1 SWAP3 MSTORE POP SWAP2 SWAP1 POP JUMP JUMPDEST PUSH1 0x0 PUSH1 0x20 DUP3 DUP5 SUB SLT ISZERO PUSH2 0x5711 JUMPI PUSH1 0x0 DUP1 REVERT JUMPDEST PUSH2 0x571A DUP3 PUSH2 0x553F JUMP JUMPDEST SWAP4 SWAP3 POP POP POP JUMP JUMPDEST PUSH4 0x4E487B71 PUSH1 0xE0 SHL PUSH1 0x0 MSTORE PUSH1 0x41 PUSH1 0x4 MSTORE PUSH1 0x24 PUSH1 0x0 REVERT JUMPDEST PUSH1 0x40 MLOAD PUSH1 0x1F DUP3 ADD PUSH1 0x1F NOT AND DUP2 ADD PUSH8 0xFFFFFFFFFFFFFFFF DUP2 GT DUP3 DUP3 LT OR ISZERO PUSH2 0x5760 JUMPI PUSH2 0x5760 PUSH2 0x5721 JUMP JUMPDEST PUSH1 0x40 MSTORE SWAP2 SWAP1 POP JUMP JUMPDEST PUSH1 0x0 DUP3 PUSH1 0x1F DUP4 ADD SLT PUSH2 0x5779 JUMPI PUSH1 0x0 DUP1 REVERT JUMPDEST DUP2 CALLDATALOAD PUSH8 0xFFFFFFFFFFFFFFFF DUP2 GT ISZERO PUSH2 0x5793 JUMPI PUSH2 0x5793 PUSH2 0x5721 JUMP JUMPDEST PUSH2 0x57A6 PUSH1 0x1F DUP3 ADD PUSH1 0x1F NOT AND PUSH1 0x20 ADD PUSH2 0x5737 JUMP JUMPDEST DUP2 DUP2 MSTORE DUP5 PUSH1 0x20 DUP4 DUP7 ADD ADD GT ISZERO PUSH2 0x57BB JUMPI PUSH1 0x0 DUP1 REVERT JUMPDEST DUP2 PUSH1 0x20 DUP6 ADD PUSH1 0x20 DUP4 ADD CALLDATACOPY PUSH1 0x0 SWAP2 DUP2 ADD PUSH1 0x20 ADD SWAP2 SWAP1 SWAP2 MSTORE SWAP4 SWAP3 POP POP POP JUMP JUMPDEST PUSH1 0x0 DUP1 PUSH1 0x40 DUP4 DUP6 SUB SLT ISZERO PUSH2 0x57EB JUMPI PUSH1 0x0 DUP1 REVERT JUMPDEST DUP3 CALLDATALOAD SWAP2 POP PUSH1 0x20 DUP4 ADD CALLDATALOAD PUSH8 0xFFFFFFFFFFFFFFFF DUP2 GT ISZERO PUSH2 0x5809 JUMPI PUSH1 0x0 DUP1 REVERT JUMPDEST PUSH2 0x5815 DUP6 DUP3 DUP7 ADD PUSH2 0x5768 JUMP JUMPDEST SWAP2 POP POP SWAP3 POP SWAP3 SWAP1 POP JUMP JUMPDEST PUSH1 0x0 DUP1 PUSH1 0x0 DUP1 PUSH1 0x0 PUSH1 0xA0 DUP7 DUP9 SUB SLT ISZERO PUSH2 0x5837 JUMPI PUSH1 0x0 DUP1 REVERT JUMPDEST DUP6 CALLDATALOAD PUSH8 0xFFFFFFFFFFFFFFFF DUP1 DUP3 GT ISZERO PUSH2 0x584F JUMPI PUSH1 0x0 DUP1 REVERT JUMPDEST PUSH2 0x585B DUP10 DUP4 DUP11 ADD PUSH2 0x5768 JUMP JUMPDEST SWAP7 POP PUSH1 0x20 SWAP2 POP DUP2 DUP9 ADD CALLDATALOAD DUP2 DUP2 GT ISZERO PUSH2 0x5872 JUMPI PUSH1 0x0 DUP1 REVERT JUMPDEST DUP9 ADD PUSH1 0x1F DUP2 ADD DUP11 SGT PUSH2 0x5883 JUMPI PUSH1 0x0 DUP1 REVERT JUMPDEST DUP1 CALLDATALOAD DUP3 DUP2 GT ISZERO PUSH2 0x5895 JUMPI PUSH2 0x5895 PUSH2 0x5721 JUMP JUMPDEST DUP1 PUSH1 0x5 SHL SWAP3 POP PUSH2 0x58A6 DUP5 DUP5 ADD PUSH2 0x5737 JUMP JUMPDEST DUP2 DUP2 MSTORE SWAP3 DUP3 ADD DUP5 ADD SWAP3 DUP5 DUP2 ADD SWAP1 DUP13 DUP6 GT ISZERO PUSH2 0x58C0 JUMPI PUSH1 0x0 DUP1 REVERT JUMPDEST SWAP3 DUP6 ADD SWAP3 JUMPDEST DUP5 DUP5 LT ISZERO PUSH2 0x58E5 JUMPI PUSH2 0x58D6 DUP5 PUSH2 0x553F JUMP JUMPDEST DUP3 MSTORE SWAP3 DUP6 ADD SWAP3 SWAP1 DUP6 ADD SWAP1 PUSH2 0x58C5 JUMP JUMPDEST SWAP10 SWAP13 SWAP10 SWAP12 POP POP POP POP PUSH1 0x40 DUP9 ADD CALLDATALOAD SWAP8 PUSH1 0x60 DUP2 ADD CALLDATALOAD SWAP8 PUSH1 0x80 SWAP1 SWAP2 ADD CALLDATALOAD SWAP7 POP SWAP5 POP POP POP POP POP JUMP JUMPDEST PUSH1 0x0 PUSH1 0x20 DUP3 DUP5 SUB SLT ISZERO PUSH2 0x591B JUMPI PUSH1 0x0 DUP1 REVERT JUMPDEST DUP2 CALLDATALOAD PUSH8 0xFFFFFFFFFFFFFFFF DUP2 GT ISZERO PUSH2 0x5932 JUMPI PUSH1 0x0 DUP1 REVERT JUMPDEST PUSH2 0x593E DUP5 DUP3 DUP6 ADD PUSH2 0x5768 JUMP JUMPDEST SWAP5 SWAP4 POP POP POP POP JUMP JUMPDEST PUSH1 0x1 DUP2 DUP2 SHR SWAP1 DUP3 AND DUP1 PUSH2 0x595A JUMPI PUSH1 0x7F DUP3 AND SWAP2 POP JUMPDEST PUSH1 0x20 DUP3 LT DUP2 EQ ISZERO PUSH2 0x597B JUMPI PUSH4 0x4E487B71 PUSH1 0xE0 SHL PUSH1 0x0 MSTORE PUSH1 0x22 PUSH1 0x4 MSTORE PUSH1 0x24 PUSH1 0x0 REVERT JUMPDEST POP SWAP2 SWAP1 POP JUMP JUMPDEST PUSH1 0x20 DUP1 DUP3 MSTORE PUSH1 0x18 SWAP1 DUP3 ADD MSTORE PUSH32 0x546869732069732061205365637265742042616C6C6F74210000000000000000 PUSH1 0x40 DUP3 ADD MSTORE PUSH1 0x60 ADD SWAP1 JUMP JUMPDEST PUSH4 0x4E487B71 PUSH1 0xE0 SHL PUSH1 0x0 MSTORE PUSH1 0x11 PUSH1 0x4 MSTORE PUSH1 0x24 PUSH1 0x0 REVERT JUMPDEST PUSH1 0x0 DUP3 DUP3 LT ISZERO PUSH2 0x59E0 JUMPI PUSH2 0x59E0 PUSH2 0x59B8 JUMP JUMPDEST POP SUB SWAP1 JUMP JUMPDEST PUSH4 0x4E487B71 PUSH1 0xE0 SHL PUSH1 0x0 MSTORE PUSH1 0x32 PUSH1 0x4 MSTORE PUSH1 0x24 PUSH1 0x0 REVERT JUMPDEST PUSH1 0x20 DUP1 DUP3 MSTORE PUSH1 0x16 SWAP1 DUP3 ADD MSTORE PUSH22 0x4E6F20737563682042616C6C6F742045786973747321 PUSH1 0x50 SHL PUSH1 0x40 DUP3 ADD MSTORE PUSH1 0x60 ADD SWAP1 JUMP JUMPDEST PUSH1 0x20 DUP1 DUP3 MSTORE PUSH1 0x14 SWAP1 DUP3 ADD MSTORE PUSH20 0x546869732042616C6C6F74204578706972656421 PUSH1 0x60 SHL PUSH1 0x40 DUP3 ADD MSTORE PUSH1 0x60 ADD SWAP1 JUMP JUMPDEST PUSH1 0x0 DUP3 PUSH2 0x5A76 JUMPI PUSH4 0x4E487B71 PUSH1 0xE0 SHL PUSH1 0x0 MSTORE PUSH1 0x12 PUSH1 0x4 MSTORE PUSH1 0x24 PUSH1 0x0 REVERT JUMPDEST POP DIV SWAP1 JUMP JUMPDEST PUSH1 0x0 DUP2 PUSH1 0x0 NOT DIV DUP4 GT DUP3 ISZERO ISZERO AND ISZERO PUSH2 0x5A95 JUMPI PUSH2 0x5A95 PUSH2 0x59B8 JUMP JUMPDEST POP MUL SWAP1 JUMP JUMPDEST PUSH1 0x20 DUP1 DUP3 MSTORE PUSH1 0x22 SWAP1 DUP3 ADD MSTORE PUSH32 0x596F7520617265205265676973746572656420696E20746869732042616C6C6F PUSH1 0x40 DUP3 ADD MSTORE PUSH2 0x7421 PUSH1 0xF0 SHL PUSH1 0x60 DUP3 ADD MSTORE PUSH1 0x80 ADD SWAP1 JUMP JUMPDEST PUSH1 0x20 DUP1 DUP3 MSTORE PUSH1 0x25 SWAP1 DUP3 ADD MSTORE PUSH32 0x596F7572204944206973205265676973746572656420696E2074686973204261 PUSH1 0x40 DUP3 ADD MSTORE PUSH5 0x6C6C6F7421 PUSH1 0xD8 SHL PUSH1 0x60 DUP3 ADD MSTORE PUSH1 0x80 ADD SWAP1 JUMP JUMPDEST PUSH1 0x20 DUP1 DUP3 MSTORE PUSH1 0x1F SWAP1 DUP3 ADD MSTORE PUSH32 0x526567697374726174696F6E20506572696F6420686173205061737365642100 PUSH1 0x40 DUP3 ADD MSTORE PUSH1 0x60 ADD SWAP1 JUMP JUMPDEST PUSH1 0x20 DUP1 DUP3 MSTORE PUSH1 0x18 SWAP1 DUP3 ADD MSTORE PUSH32 0x506C6561736520526567697374657220746F20566F7465210000000000000000 PUSH1 0x40 DUP3 ADD MSTORE PUSH1 0x60 ADD SWAP1 JUMP JUMPDEST PUSH1 0x20 DUP1 DUP3 MSTORE PUSH1 0x2A SWAP1 DUP3 ADD MSTORE PUSH32 0x596F7520616C7265616479204341535420796F757220566F746520696E205468 PUSH1 0x40 DUP3 ADD MSTORE PUSH10 0x69732042616C6C6F7421 PUSH1 0xB0 SHL PUSH1 0x60 DUP3 ADD MSTORE PUSH1 0x80 ADD SWAP1 JUMP JUMPDEST PUSH1 0x20 DUP1 DUP3 MSTORE PUSH1 0x12 SWAP1 DUP3 ADD MSTORE PUSH18 0x496E76616C69642042616C6C6F7420496421 PUSH1 0x70 SHL PUSH1 0x40 DUP3 ADD MSTORE PUSH1 0x60 ADD SWAP1 JUMP JUMPDEST PUSH1 0x20 DUP1 DUP3 MSTORE PUSH1 0x12 SWAP1 DUP3 ADD MSTORE PUSH18 0x10985B1B1BDD081A185CC8115E1C1A5C9959 PUSH1 0x72 SHL PUSH1 0x40 DUP3 ADD MSTORE PUSH1 0x60 ADD SWAP1 JUMP JUMPDEST PUSH1 0x20 DUP1 DUP3 MSTORE PUSH1 0x23 SWAP1 DUP3 ADD MSTORE PUSH32 0x43616E64696461746520646F6573206E6F7420657869737420696E2042616C6C PUSH1 0x40 DUP3 ADD MSTORE PUSH3 0x6F7421 PUSH1 0xE8 SHL PUSH1 0x60 DUP3 ADD MSTORE PUSH1 0x80 ADD SWAP1 JUMP JUMPDEST PUSH1 0x0 DUP3 NOT DUP3 GT ISZERO PUSH2 0x5C87 JUMPI PUSH2 0x5C87 PUSH2 0x59B8 JUMP JUMPDEST POP ADD SWAP1 JUMP JUMPDEST PUSH1 0x0 PUSH1 0x0 NOT DUP3 EQ ISZERO PUSH2 0x5CA0 JUMPI PUSH2 0x5CA0 PUSH2 0x59B8 JUMP JUMPDEST POP PUSH1 0x1 ADD SWAP1 JUMP JUMPDEST PUSH1 0x20 DUP1 DUP3 MSTORE PUSH1 0x12 SWAP1 DUP3 ADD MSTORE PUSH18 0x57726F6E672062616C6C6F74205479706521 PUSH1 0x70 SHL PUSH1 0x40 DUP3 ADD MSTORE PUSH1 0x60 ADD SWAP1 JUMP JUMPDEST PUSH1 0x20 DUP1 DUP3 MSTORE PUSH1 0x12 SWAP1 DUP3 ADD MSTORE PUSH18 0x57726F6E672042616C6C6F74205479706521 PUSH1 0x70 SHL PUSH1 0x40 DUP3 ADD MSTORE PUSH1 0x60 ADD SWAP1 JUMP INVALID LOG2 PUSH5 0x6970667358 0x22 SLT KECCAK256 0x1E EXTCODEHASH PUSH4 0xF61054ED CALLER PUSH29 0xF5CF3CF5ABF5B85304B2371CE48EE202027F437783E53964736F6C6343 STOP ADDMOD ADDMOD STOP CALLER ","sha1":"7604f37560f1d2c2042ab0e3e251b5ea4f81dd40","source":"// SPDX-License-Identifier: UNLICENSED\n\npragma solidity 0.8.8;\n\nimport \"../interfaces/IJamiiFactory.sol\";\nimport \"./JamiiBase.sol\";\n\ncontract JamiiFactory is IJamiiFactory, JamiiBase {\n    Ballot[] private ballots;\n    Voter[] private voters;\n\n    // numbers\n    uint256 private ballot_fee = 340000000000000000; // $\n    uint256 private ballot_count;\n    uint256[] private voter_ids;\n    uint256[] internal ballot_types_arr = [0, 1, 2, 3, 4, 5, 6];\n    uint256 internal ballot_types = ballot_types_arr.length;\n\n    // mappings\n    mapping(address => Ballot) private ballots_mapping;\n    mapping(uint256 => Ballot) private id_to_ballot_mapping;\n    mapping(uint256 => address[]) private ballot_candidate_mapping;\n    mapping(uint256 => address[]) private ballot_voters_mapping;\n    mapping(address => Candidate) private address_to_candidate_mapping;\n    mapping(address => address[]) private chair_to_candidates;\n    mapping(address => Voter) private address_to_voter_mapping;\n    mapping(address => bytes32) private voter_to_unique_id;\n    mapping(uint256 => address) private id_to_voter;\n    mapping(address => uint256[]) private voter_to_ballots;\n    mapping(address => uint256[]) private voted_to_ballots;\n    mapping(uint256 => uint256[]) private voter_id_to_ballots;\n\n    modifier only_voter(address _candidate, uint256 _ballot_id) {\n        Ballot memory ballot = id_to_ballot_mapping[_ballot_id];\n        require(\n            address_to_voter_mapping[msg.sender].registered == true,\n            \"Please Register to Vote!\"\n        );\n        require(\n            !exists(voted_to_ballots[msg.sender], _ballot_id),\n            \"You already CAST your Vote in This Ballot!\"\n        );\n        require(\n            id_to_ballot_mapping[_ballot_id].ballot_id == _ballot_id,\n            \"Invalid Ballot Id!\"\n        );\n        require(ballot.expired == false, \"Ballot has Expired\");\n        require(\n            address_to_candidate_mapping[_candidate].ballot_id == _ballot_id,\n            \"Candidate does not exist in Ballot!\"\n        );\n        _;\n    }\n\n    modifier only_voter_closed_ballots(address _candidate, uint256 _ballot_id) {\n        Ballot memory ballot = id_to_ballot_mapping[_ballot_id];\n        Voter memory voter = address_to_voter_mapping[msg.sender];\n        require(voter.rights == true, \"No Voting Rights!\");\n        require(\n            address_to_voter_mapping[msg.sender].registered == true,\n            \"Please Register to Vote!\"\n        );\n        require(\n            !exists(voted_to_ballots[msg.sender], _ballot_id),\n            \"You already CAST your Vote in This Ballot!\"\n        );\n        require(\n            id_to_ballot_mapping[_ballot_id].ballot_id == _ballot_id,\n            \"Invalid Ballot Id!\"\n        );\n        require(ballot.expired == false, \"Ballot has Expired\");\n        require(\n            address_to_candidate_mapping[_candidate].ballot_id == _ballot_id,\n            \"Candidate does not exist in Ballot!\"\n        );\n        _;\n    }\n\n    modifier only_secret_ballot(uint256 _ballot_id) {\n        Ballot memory ballot = id_to_ballot_mapping[_ballot_id];\n        require(ballot.ballot_type < 4, \"This is a Secret Ballot!\");\n        _;\n    }\n\n    modifier only_register_voter(uint256 _id_number, uint256 _ballot_id) {\n        Ballot memory ballot = id_to_ballot_mapping[_ballot_id];\n        uint256 duration = (block.timestamp - ballot.open_date);\n        uint256 n = ballots.length;\n        require(n >= 1, \"No such Ballot Exists!\");\n        // require(\n        //     ballot.ballot_id <= ballots[n - 1].ballot_id,\n        //     \"No such Ballot Exists!\"\n        // );\n        require(duration < (ballot._days * 86400), \"This Ballot Expired!\");\n        require(\n            !exists(voter_to_ballots[msg.sender], _ballot_id),\n            \"You are Registered in this Ballot!\"\n        );\n        require(\n            !exists(voter_id_to_ballots[_id_number], _ballot_id),\n            \"Your ID is Registered in this Ballot!\"\n        );\n        require(\n            (duration < (ballot.registration_window * 86400)),\n            \"Registration Period has Passed!\"\n        );\n        _;\n    }\n\n    function initialize(string memory _arbitrary_text) public initializer {\n        JamiiBase.initialize();\n    }\n\n    function exists(uint256[] memory _voter_ballots, uint256 _target)\n        internal\n        pure\n        returns (bool)\n    {\n        uint256 n = _voter_ballots.length;\n        for (uint256 i = 0; i < n; i++) {\n            if (_voter_ballots[i] == _target) {\n                return true;\n            }\n        }\n        return false;\n    }\n\n    function create_ballot_type(\n        uint256 _ballot_type,\n        string memory _ballot_name\n    ) public onlyOwner {\n        require(\n            _ballot_type > (ballot_types - 1) &&\n                _ballot_type < (ballot_types + 1),\n            \"Invalid Type Index!\"\n        );\n        ballot_types_arr.push(ballot_types + 1);\n        ballot_types_mapping[_ballot_type] = _ballot_name;\n    }\n\n    function create_ballot(\n        string memory _ballot_name,\n        address[] memory _ballot_candidates_addr,\n        uint256 _ballot_type,\n        uint256 _days,\n        uint256 _registration_period\n    ) public payable {\n        require(msg.value >= ballot_fee, \"Insufficient funds!\");\n        bytes memory bytes_ballot_name = bytes(_ballot_name);\n        require(bytes_ballot_name.length > 0, \"Enter a valid Ballot Name!\");\n        require(\n            _ballot_candidates_addr.length > 1,\n            \"Not Enough Ballot Candidates!\"\n        );\n        require(_ballot_type <= ballot_types, \"Not a valid Ballot Type!\");\n        require(\n            _days > _registration_period,\n            \"Registration Period > Voting Days!\"\n        );\n        require(_registration_period > 0, \"Registration Period should be > 1!\");\n\n        ballot_candidate_mapping[uid] = _ballot_candidates_addr;\n\n        uint256 n = _ballot_candidates_addr.length;\n        for (uint256 i = 0; i < n; i++) {\n            Candidate memory candidate = Candidate(\n                candidates_count,\n                uid,\n                _ballot_candidates_addr[i],\n                0\n            );\n            address_to_candidate_mapping[\n                _ballot_candidates_addr[i]\n            ] = candidate;\n            candidates_count++;\n        }\n\n        Ballot memory new_ballot = Ballot(\n            uid,\n            _ballot_type,\n            _ballot_name,\n            msg.sender,\n            0,\n            block.timestamp,\n            _days,\n            false,\n            _registration_period,\n            address(0x0),\n            false\n        );\n        id_to_ballot_mapping[uid] = new_ballot;\n        ballots.push(new_ballot);\n        ballots_mapping[msg.sender] = new_ballot;\n        chair_to_candidates[msg.sender] = _ballot_candidates_addr;\n        ballot_count++;\n        uid++;\n\n        emit created_ballot(_ballot_type);\n    }\n\n    // createBallot(_ballot_candidates)\n    // ballot 0 -> [\"0xf9d48aC9eC8F207AEF93518B51D2CdA61e596904\", \"0x6c0A17AEe0a1420583446B77f0c8a55e369Bb07e\"]\n    // ballot 1 -> [\"0xa8d17cc9cAF29Af964d19267DDEb4dfF122697B0\",\"0xA0341558519429f6A93475bA53AD319f99302bff\"]\n    // ballot 2 -> [\"0x4A4eC531A0c952d76fdb0E1DC9561A893Cc3177c\", \"0xfA5C1650946124cB9ACBe478e6D37b5F6c1983D6\"]\n    // ballot 3 -> [\"0x7ffC57839B00206D1ad20c69A1981b489f772031\", \"0x8E9a9f198d9d6457339A11b05A214F9aa78dbc8b\"]\n    // ballot 4 -> [\"0xfA5C1650946124cB9ACBe478e6D37b5F6c1983D6\", \"0xfe3e6ab5d787f4099478bbe811a740d903e219fb\"]\n    // ballot 5 -> ballot 0\n    // ballot 6 -> ballot 1\n\n    /** REGISTERS VOTERS **/\n\n    function create_voter_open_ballot(uint256 _id_number, uint256 _ballot_id)\n        internal\n    {\n        Ballot storage ballot = id_to_ballot_mapping[_ballot_id];\n\n        ballot_voters_mapping[_ballot_id].push(msg.sender);\n\n        // id_number validation here\n        bytes32 unique_voter_id = keccak256(abi.encode(_id_number));\n        voter_to_unique_id[msg.sender] = unique_voter_id;\n\n        Voter memory new_voter = Voter(\n            ballot.voters_count,\n            msg.sender,\n            _ballot_id,\n            true,\n            true,\n            false,\n            unique_voter_id\n        );\n        address_to_voter_mapping[msg.sender] = new_voter;\n        voters.push(new_voter);\n\n        id_to_ballot_mapping[_ballot_id].voters_count++;\n\n        id_to_voter[_id_number] = msg.sender;\n\n        voter_to_ballots[msg.sender].push(_ballot_id);\n        voter_id_to_ballots[_id_number].push(_ballot_id);\n\n        emit registered_voter(unique_voter_id);\n    }\n\n    function create_voter_closed_ballot(uint256 _id_number, uint256 _ballot_id)\n        internal\n    {\n        Ballot storage ballot = id_to_ballot_mapping[_ballot_id];\n\n        ballot_voters_mapping[_ballot_id].push(msg.sender);\n\n        // id_number validation here\n        bytes32 unique_voter_id = keccak256(abi.encode(_id_number));\n        voter_to_unique_id[msg.sender] = unique_voter_id;\n\n        Voter memory new_voter = Voter(\n            ballot.voters_count,\n            msg.sender,\n            _ballot_id,\n            true,\n            false,\n            false,\n            unique_voter_id\n        );\n        address_to_voter_mapping[msg.sender] = new_voter;\n        voters.push(new_voter);\n\n        id_to_ballot_mapping[_ballot_id].voters_count++;\n\n        id_to_voter[_id_number] = msg.sender;\n\n        voter_to_ballots[msg.sender].push(_ballot_id);\n        voter_id_to_ballots[_id_number].push(_ballot_id);\n\n        emit registered_voter(unique_voter_id);\n    }\n\n    function register_voter_open_ballot(uint256 _id_number, uint256 _ballot_id)\n        internal\n        only_register_voter(_id_number, _ballot_id)\n    {\n        Ballot storage ballot = id_to_ballot_mapping[_ballot_id];\n        require(ballot.ballot_type == 0, \"Wrong ballot Type!\");\n\n        create_voter_open_ballot(_id_number, _ballot_id);\n    }\n\n    function register_voter_closed_ballot(\n        uint256 _id_number,\n        uint256 _ballot_id\n    ) internal only_register_voter(_id_number, _ballot_id) {\n        Ballot storage ballot = id_to_ballot_mapping[_ballot_id];\n        require(\n            ballot.ballot_type == 1 || ballot.ballot_type == 4,\n            \"Wrong ballot Type!\"\n        );\n        // require(\"You need to lock value in the Ballot! -> redistributed after ballot!\");\n\n        create_voter_closed_ballot(_id_number, _ballot_id);\n    }\n\n    // register voter closedPaidElection\n    function register_voter_open_paid_ballot(\n        uint256 _id_number,\n        uint256 _ballot_id\n    ) internal only_register_voter(_id_number, _ballot_id) {\n        Ballot storage ballot = id_to_ballot_mapping[_ballot_id];\n        require(\n            ballot.ballot_type == 2 || ballot.ballot_type == 5,\n            \"Wrong ballot Type!\"\n        );\n        // require(\"You need to lock value in the Ballot!\");\n\n        create_voter_open_ballot(_id_number, _ballot_id);\n    }\n\n    function register_voter_closed_paid_ballot(\n        uint256 _id_number,\n        uint256 _ballot_id\n    ) internal only_register_voter(_id_number, _ballot_id) {\n        Ballot storage ballot = id_to_ballot_mapping[_ballot_id];\n        require(\n            ballot.ballot_type == 3 || ballot.ballot_type == 6,\n            \"Wrong ballot Type!\"\n        );\n        // require(\"You need to lock value in the Ballot!\");\n\n        create_voter_closed_ballot(_id_number, _ballot_id);\n    }\n\n    function register_voter(uint256 _id_number, uint256 _ballot_id)\n        public\n        only_register_voter(_id_number, _ballot_id)\n    {\n        Ballot memory ballot = id_to_ballot_mapping[_ballot_id];\n\n        // 0, 1, 2, 3, 4, 5, 6 => open free, closed free, open paid, closed paid,\n        if (ballot.ballot_type == 0) {\n            register_voter_open_ballot(_id_number, _ballot_id);\n        } else if (ballot.ballot_type == 1 || ballot.ballot_type == 4) {\n            register_voter_closed_ballot(_id_number, _ballot_id);\n        } else if (ballot.ballot_type == 2 || ballot.ballot_type == 5) {\n            register_voter_open_paid_ballot(_id_number, _ballot_id);\n        } else if (ballot.ballot_type == 3 || ballot.ballot_type == 6) {\n            register_voter_closed_paid_ballot(_id_number, _ballot_id);\n        }\n    }\n\n    /** VOTING RIGHTS **/\n    function assign_voting_rights(address _voter, uint256 _ballot_id) public {\n        require(\n            msg.sender == get_ballot_owner(_ballot_id),\n            \"Insufficient Permissions!\"\n        );\n        Ballot memory ballot = id_to_ballot_mapping[_ballot_id];\n\n        uint256 n = ballots.length;\n        require(\n            ballot.ballot_id <= ballots[n - 1].ballot_id,\n            \"No such Ballot Exists!\"\n        );\n\n        uint256 _ballot_type = ballot.ballot_type;\n        require(ballot.expired == false, \"This Ballot Expired!\");\n\n        require(\n            _ballot_type == 1 ||\n                _ballot_type == 3 ||\n                _ballot_type == 4 ||\n                _ballot_type == 6,\n            \"Not a Closed Ballot!\"\n        );\n        require(\n            address_to_voter_mapping[_voter].ballot_id == _ballot_id,\n            \"Voter CanNOT vote in this Ballot!\"\n        );\n        require(\n            address_to_voter_mapping[_voter].registered == true,\n            \"NOT a Registered Voter!\"\n        );\n        require(\n            address_to_voter_mapping[_voter].rights == false,\n            \"Already has Voting Rights!\"\n        );\n\n        // closed paid ballot [3]\n        // require voter has sufficient voting tokens for a ballot -> buy voting rights -> awaiting approval\n        address_to_voter_mapping[_voter].rights = true;\n\n        emit assigned_voting_rights(_voter);\n    }\n\n    // function buy_voting_rights(){\n\n    // }\n\n    function create_vote(address _candidate) internal {\n        address_to_candidate_mapping[_candidate].vote_count++;\n        address_to_voter_mapping[msg.sender].voted = true;\n        emit voted(_candidate);\n    }\n\n    function vote_open_ballot(address _candidate, uint256 _ballot_id)\n        internal\n        only_voter(_candidate, _ballot_id)\n    {\n        // require(\"Need to have locked value in ballot during registration!\")\n\n        Ballot memory ballot = id_to_ballot_mapping[_ballot_id];\n        ballot.current_winner = _candidate;\n        find_winner(_candidate, ballot);\n        create_vote(_candidate);\n    }\n\n    function vote_closed_free_ballot(address _candidate, uint256 _ballot_id)\n        internal\n        only_voter_closed_ballots(_candidate, _ballot_id)\n    {\n        Ballot memory ballot = id_to_ballot_mapping[_ballot_id];\n        require(ballot.ballot_type == 1, \"Wrong Ballot Type!\");\n        // require(\"Need to have locked value in ballot during registration!\")\n\n        ballot.current_winner = _candidate;\n        find_winner(_candidate, ballot);\n        create_vote(_candidate);\n    }\n\n    function vote_open_paid_ballot(address _candidate, uint256 _ballot_id)\n        internal\n        only_voter(_candidate, _ballot_id)\n    {\n        Ballot memory ballot = id_to_ballot_mapping[_ballot_id];\n        require(ballot.ballot_type == 2, \"Wrong Ballot Type!\");\n        // require(\"Enough tokens for This Vote\")\n        ballot.current_winner = _candidate;\n\n        find_winner(_candidate, ballot);\n        create_vote(_candidate);\n    }\n\n    function vote_closed_paid_ballot(address _candidate, uint256 _ballot_id)\n        internal\n        only_voter_closed_ballots(_candidate, _ballot_id)\n    {\n        // require(election_type == 2);\n        Ballot memory ballot = id_to_ballot_mapping[_ballot_id];\n        require(ballot.ballot_type == 3, \"Wrong Ballot Type!\");\n        // require(\"Enough tokens for This Vote\")\n\n        ballot.current_winner = _candidate;\n        find_winner(_candidate, ballot);\n        create_vote(_candidate);\n    }\n\n    function vote(address _candidate, uint256 _ballot_id)\n        public\n        only_voter(_candidate, _ballot_id)\n    {\n        uint256 int_ballot_id = _ballot_id - 100;\n        Ballot memory ballot = ballots[int_ballot_id];\n\n        // 0, 1, 2, 3, 4, 5, 6 => open free, closed free, open paid, closed paid,\n        if (ballot.ballot_type == 0) {\n            vote_open_ballot(_candidate, _ballot_id);\n            voted_to_ballots[msg.sender].push(_ballot_id);\n        } else if (ballot.ballot_type == 1) {\n            vote_closed_free_ballot(_candidate, _ballot_id);\n            voted_to_ballots[msg.sender].push(_ballot_id);\n        } else if (ballot.ballot_type == 2) {\n            vote_open_paid_ballot(_candidate, _ballot_id);\n            voted_to_ballots[msg.sender].push(_ballot_id);\n        } else if (ballot.ballot_type == 3) {\n            vote_closed_paid_ballot(_candidate, _ballot_id);\n            voted_to_ballots[msg.sender].push(_ballot_id);\n        }\n    }\n\n    /** GETTERS **/\n\n    function get_ballot_owner(uint256 _ballot_id)\n        public\n        view\n        only_secret_ballot(_ballot_id)\n        returns (address)\n    {\n        return id_to_ballot_mapping[_ballot_id].chair;\n    }\n\n    function get_ballot(uint256 _ballot_id)\n        public\n        view\n        only_secret_ballot(_ballot_id)\n        returns (Ballot memory)\n    {\n        return id_to_ballot_mapping[_ballot_id];\n    }\n\n    function get_candidate(address _candidate_addr)\n        public\n        view\n        only_secret_ballot(100)\n        returns (Candidate memory)\n    {\n        return address_to_candidate_mapping[_candidate_addr];\n    }\n\n    function get_voter(address _voter_address, uint256 _ballot_id)\n        public\n        view\n        only_secret_ballot(_ballot_id)\n        returns (Voter memory)\n    {\n        return address_to_voter_mapping[_voter_address];\n    }\n\n    function get_candidates(uint256 _ballot_id)\n        public\n        view\n        returns (address[] memory)\n    {\n        return ballot_candidate_mapping[_ballot_id];\n    }\n\n    function get_voters(uint256 _ballot_id)\n        public\n        view\n        only_secret_ballot(_ballot_id)\n        returns (address[] memory)\n    {\n        return ballot_voters_mapping[_ballot_id];\n    }\n\n    function find_winner(address _candidate, Ballot memory ballot)\n        internal\n        view\n        returns (bool)\n    {\n        if (\n            address_to_candidate_mapping[_candidate].vote_count + 1 >\n            address_to_candidate_mapping[ballot.current_winner].vote_count\n        ) {\n            ballot.current_winner = _candidate;\n            ballot.tie = false;\n        } else if (\n            address_to_candidate_mapping[_candidate].vote_count + 1 ==\n            address_to_candidate_mapping[ballot.current_winner].vote_count\n        ) {\n            ballot.tie = true;\n        }\n        return ballot.tie;\n    }\n\n    function get_winner(uint256 _ballot_id)\n        public\n        only_secret_ballot(_ballot_id)\n        returns (address)\n    {\n        Ballot memory ballot = id_to_ballot_mapping[_ballot_id];\n        require(\n            _ballot_id <= ballot_count,\n            \"Ballot with that Id does NOT exist!\"\n        );\n\n        uint256 duration = (block.timestamp - ballot.open_date) / 60 / 60 / 24;\n        require(duration > ballot._days, \"This Ballot is NOT yet Expired!\");\n\n        if (ballot.tie == true) {\n            emit tied_ballot(ballot.tie);\n            return address(0x0);\n        } else {\n            address winner = ballot.current_winner;\n            return winner;\n        }\n    }\n\n    function end_ballot(uint256 _ballot_id) public {\n        Ballot storage ballot = id_to_ballot_mapping[_ballot_id];\n\n        uint256 duration = (block.timestamp - ballot.open_date) / 60 / 60 / 24;\n        require(duration < ballot._days, \"This Ballot is NOT yet Expired!\");\n\n        require(msg.sender == ballot.chair, \"Insufficient Permissions!\");\n\n        ballot.expired = true;\n        ballots_mapping[msg.sender].expired = true;\n        id_to_ballot_mapping[_ballot_id].expired = true;\n\n        emit ended_ballot(_ballot_id);\n    }\n\n    function withdraw() public onlyOwner {\n        payable(fee_addr).transfer(address(this).balance);\n    }\n}\n","sourcePath":"contracts/JamiiFactory.sol","deployment":{"address":"0x5598F7fFA19e9b468e38e78c221F57c65d81Dc15","chainid":"4","blockHeight":11081691}}