{"abi":[{"inputs":[{"internalType":"string","name":"_organization_name","type":"string"}],"stateMutability":"payable","type":"constructor","name":"constructor"},{"anonymous":false,"inputs":[{"indexed":false,"internalType":"address","name":"_voter","type":"address"}],"name":"assigned_voting_rights","type":"event"},{"anonymous":false,"inputs":[{"indexed":false,"internalType":"uint256","name":"_ballot_type","type":"uint256"}],"name":"created_ballot","type":"event"},{"anonymous":false,"inputs":[{"indexed":false,"internalType":"string","name":"_organization_name","type":"string"}],"name":"created_new_election","type":"event"},{"anonymous":false,"inputs":[{"indexed":false,"internalType":"bytes32","name":"_voter_unique_id","type":"bytes32"}],"name":"registered_voter","type":"event"},{"anonymous":false,"inputs":[{"indexed":false,"internalType":"bool","name":"_tie","type":"bool"}],"name":"tied_ballot","type":"event"},{"anonymous":false,"inputs":[{"indexed":true,"internalType":"address","name":"_candidate","type":"address"}],"name":"voted","type":"event"},{"inputs":[{"internalType":"address","name":"_voter","type":"address"},{"internalType":"uint256","name":"_ballot_id","type":"uint256"}],"name":"assign_voting_rights","outputs":[],"stateMutability":"nonpayable","type":"function"},{"inputs":[],"name":"ballot_owner","outputs":[{"internalType":"address","name":"","type":"address"}],"stateMutability":"view","type":"function"},{"inputs":[{"internalType":"string","name":"_ballot_name","type":"string"},{"internalType":"address[]","name":"_ballot_candidates_addr","type":"address[]"},{"internalType":"uint256","name":"_ballot_type","type":"uint256"},{"internalType":"uint256","name":"_days","type":"uint256"},{"internalType":"uint256","name":"_registration_period","type":"uint256"}],"name":"create_ballot","outputs":[],"stateMutability":"nonpayable","type":"function"},{"inputs":[{"internalType":"uint256","name":"_ballot_type","type":"uint256"},{"internalType":"string","name":"_name","type":"string"}],"name":"create_ballot_type","outputs":[],"stateMutability":"nonpayable","type":"function"},{"inputs":[],"name":"election_owner","outputs":[{"internalType":"address","name":"","type":"address"}],"stateMutability":"view","type":"function"},{"inputs":[{"internalType":"uint256","name":"_election_id","type":"uint256"}],"name":"end_election","outputs":[],"stateMutability":"nonpayable","type":"function"},{"inputs":[{"internalType":"uint256","name":"_ballot_id","type":"uint256"}],"name":"end_open_ballot","outputs":[],"stateMutability":"nonpayable","type":"function"},{"inputs":[{"internalType":"uint256","name":"_ballot_id","type":"uint256"}],"name":"get_ballot","outputs":[{"components":[{"internalType":"uint256","name":"ballot_id","type":"uint256"},{"internalType":"uint256","name":"ballot_type","type":"uint256"},{"internalType":"string","name":"ballot_name","type":"string"},{"internalType":"address","name":"chair","type":"address"},{"internalType":"uint256","name":"voters_count","type":"uint256"},{"internalType":"uint256","name":"open_date","type":"uint256"},{"internalType":"uint256","name":"_days","type":"uint256"},{"internalType":"bool","name":"expired","type":"bool"},{"internalType":"uint256","name":"registration_window","type":"uint256"},{"internalType":"address","name":"current_winner","type":"address"},{"internalType":"bool","name":"tie","type":"bool"}],"internalType":"struct IJamiiFactory.Ballot","name":"","type":"tuple"}],"stateMutability":"view","type":"function"},{"inputs":[{"internalType":"address","name":"_candidate_addr","type":"address"},{"internalType":"uint256","name":"_ballot_id","type":"uint256"}],"name":"get_candidate","outputs":[{"components":[{"internalType":"uint256","name":"candidate_id","type":"uint256"},{"internalType":"uint256","name":"ballot_id","type":"uint256"},{"internalType":"address","name":"candidate_address","type":"address"},{"internalType":"uint256","name":"vote_count","type":"uint256"}],"internalType":"struct IJamiiFactory.Candidate","name":"","type":"tuple"}],"stateMutability":"view","type":"function"},{"inputs":[{"internalType":"uint256","name":"_ballot_id","type":"uint256"}],"name":"get_candidates","outputs":[{"internalType":"address[]","name":"","type":"address[]"}],"stateMutability":"view","type":"function"},{"inputs":[{"internalType":"uint256","name":"_election_id","type":"uint256"}],"name":"get_election","outputs":[{"components":[{"internalType":"uint256","name":"election_id","type":"uint256"},{"internalType":"address","name":"election_owner","type":"address"},{"internalType":"string","name":"organization_name","type":"string"},{"internalType":"bool","name":"open","type":"bool"}],"internalType":"struct IJamiiFactory.Election","name":"","type":"tuple"}],"stateMutability":"view","type":"function"},{"inputs":[{"internalType":"address","name":"_voter_address","type":"address"},{"internalType":"uint256","name":"_ballot_id","type":"uint256"}],"name":"get_voter","outputs":[{"components":[{"internalType":"uint256","name":"voter_id","type":"uint256"},{"internalType":"address","name":"voter_address","type":"address"},{"internalType":"uint256","name":"ballot_id","type":"uint256"},{"internalType":"bool","name":"registered","type":"bool"},{"internalType":"bool","name":"rights","type":"bool"},{"internalType":"bool","name":"voted","type":"bool"},{"internalType":"bytes32","name":"unique_voter_id","type":"bytes32"}],"internalType":"struct IJamiiFactory.Voter","name":"","type":"tuple"}],"stateMutability":"view","type":"function"},{"inputs":[{"internalType":"uint256","name":"_ballot_id","type":"uint256"}],"name":"get_voters","outputs":[{"internalType":"address[]","name":"","type":"address[]"}],"stateMutability":"view","type":"function"},{"inputs":[{"internalType":"uint256","name":"_ballot_id","type":"uint256"}],"name":"get_winner","outputs":[{"internalType":"address","name":"","type":"address"}],"stateMutability":"payable","type":"function"},{"inputs":[],"name":"organization_name","outputs":[{"internalType":"string","name":"","type":"string"}],"stateMutability":"view","type":"function"},{"inputs":[{"internalType":"uint256","name":"_id_number","type":"uint256"},{"internalType":"uint256","name":"_ballot_id","type":"uint256"}],"name":"register_voter","outputs":[],"stateMutability":"nonpayable","type":"function"},{"inputs":[{"internalType":"address","name":"_candidate","type":"address"},{"internalType":"uint256","name":"_ballot_id","type":"uint256"}],"name":"vote","outputs":[],"stateMutability":"nonpayable","type":"function"},{"inputs":[{"internalType":"bool","name":"_destroy","type":"bool"}],"name":"withdraw","outputs":[],"stateMutability":"nonpayable","type":"function"}],"bytecode":"66038d7ea4c68000600390815561016060405260006080908152600160a052600260c05260e0919091526004610100526005610120526006610140526200004b9060089060076200058f565b506008546009556003600a55600d80546001600160a01b03191673dd870fa1b7c4700f2bd7f44238821c26f739214817905560405162004541388190039081908339810160408190526200009f916200068e565b600354341015620000f75760405162461bcd60e51b815260206004820152601b60248201527f537461727420616e20456c656374696f6e20776974682024353030000000000060448201526064015b60405180910390fd5b80518190620001495760405162461bcd60e51b815260206004820181905260248201527f456e74657220612076616c6964204f7267616e697a6174696f6e204e616d65216044820152606401620000ee565b600060065581516200016390600c906020850190620005e4565b50604080516080810182526006548152336020808301918252928201858152600160608401819052600080549182018155805283517f290decd9548b62a8d60345a988386fc84ba6bc95484008f6362f93160ef3e563600490920291820190815592517f290decd9548b62a8d60345a988386fc84ba6bc95484008f6362f93160ef3e564820180546001600160a01b0319166001600160a01b03909216919091179055905180519394859462000240937f290decd9548b62a8d60345a988386fc84ba6bc95484008f6362f93160ef3e565019290910190620005e4565b50606091909101516003909101805460ff1916911515919091179055600680549060006200026e836200076a565b9091555050600e8054336001600160a01b03199182168117909255600f8054909116909117905560006005556064600b55620002a9620002ec565b7f426d3b981ab9621b11442e8426474b504b726b0b86feaa5169fc28edb1ff90e3600c604051620002db9190620007d1565b60405180910390a150505062000881565b6040805180820190915260098152686f70656e2d6672656560b81b60208083019182526000805260109052905162000346917f6e0956cda88cad152e89927e53611735b61a5c762d1428573c6931b0a5efcb0191620005e4565b5060408051808201909152600b81526a636c6f7365642d6672656560a81b60208083019182526001600052601090529051620003a4917f8c6065603763fec3f5742441d3833f3f43b982453612d76adb39a885e3006b5f91620005e4565b506040805180820190915260098152681bdc195b8b5c185a5960ba1b6020808301918252600260005260109052905162000400917f853b2fefe141400fef543280f93d98bd49996069f632d0d20236afeeed8e46a291620005e4565b5060408051808201909152600b81526a18db1bdcd9590b5c185a5960aa1b602080830191825260036000526010905290516200045e917fb3edd0d534d647cffdae9f1294f11ad21f3fcf2814bea44c92bbb8d384a57d9e91620005e4565b5060408051808201909152601281527118db1bdcd9590b599c99594b5cd958dc995d60721b60208083019182526004600052601090529051620004c3917f1588ac671d87f82adc0e6ae8ab009c0de98f92a20243897597e566bc59b9c12691620005e4565b506040805180820190915260108082526f1bdc195b8b5c185a590b5cd958dc995d60821b6020808401918252600560005291909152905162000527917f61a7346ab5ebdac457db2a901eaf1b805239b6049a1b2f34bab85e2e274f39cb91620005e4565b5060408051808201909152601281527118db1bdcd9590b5c185a590b5cd958dc995d60721b602080830191825260066000526010905290516200058c917f20edfb71820f6f00f6a84ccfefb91587cd9f849f8349b0a3182a4795899d9cd991620005e4565b50565b828054828255906000526020600020908101928215620005d2579160200282015b82811115620005d2578251829060ff16905591602001919060010190620005b0565b50620005e092915062000661565b5090565b828054620005f29062000794565b90600052602060002090601f016020900481019282620006165760008555620005d2565b82601f106200063157805160ff1916838001178555620005d2565b82800160010185558215620005d2579182015b82811115620005d257825182559160200191906001019062000644565b5b80821115620005e0576000815560010162000662565b634e487b7160e01b600052604160045260246000fd5b60006020808385031215620006a257600080fd5b82516001600160401b0380821115620006ba57600080fd5b818501915085601f830112620006cf57600080fd5b815181811115620006e457620006e462000678565b604051601f8201601f19908116603f011681019083821181831017156200070f576200070f62000678565b8160405282815288868487010111156200072857600080fd5b600093505b828410156200074c57848401860151818501870152928501926200072d565b828411156200075e5760008684830101525b98975050505050505050565b60006000198214156200078d57634e487b7160e01b600052601160045260246000fd5b5060010190565b600181811c90821680620007a957607f821691505b60208210811415620007cb57634e487b7160e01b600052602260045260246000fd5b50919050565b600060208083526000845481600182811c915080831680620007f457607f831692505b8583108114156200081357634e487b7160e01b85526022600452602485fd5b878601838152602001818015620008335760018114620008455762000872565b60ff1986168252878201965062000872565b60008b81526020902060005b868110156200086c5781548482015290850190890162000851565b83019750505b50949998505050505050505050565b613cb080620008916000396000f3fe6080604052600436106101095760003560e01c80635f74bbde11610095578063adbdbc9711610064578063adbdbc9714610340578063c6eebb7714610360578063dcfc13801461038d578063ddde55fa146103ad578063e8873b8f1461040957600080fd5b80635f74bbde146102b357806361fa5267146102d35780638987076b146102f3578063a810a54c1461032057600080fd5b8063457852a8116100dc578063457852a8146102115780634c66a0731461023157806350ec093014610253578063514d7d661461027357806353abced81461029357600080fd5b8063091cb18a1461010e578063112819bd14610197578063133e59aa146101b9578063243dc409146101e6575b600080fd5b34801561011a57600080fd5b5061012e61012936600461360c565b610429565b60405161018e9190815181526020808301516001600160a01b0316908201526040808301519082015260608083015115159082015260808083015115159082015260a08083015115159082015260c0918201519181019190915260e00190565b60405180910390f35b3480156101a357600080fd5b506101b76101b236600461360c565b61064f565b005b3480156101c557600080fd5b506101d96101d4366004613636565b610afc565b60405161018e919061364f565b6101f96101f4366004613636565b610ccc565b6040516001600160a01b03909116815260200161018e565b34801561021d57600080fd5b506101b761022c366004613636565b610eba565b34801561023d57600080fd5b50610246610f22565b60405161018e91906136e9565b34801561025f57600080fd5b50600f546101f9906001600160a01b031681565b34801561027f57600080fd5b506101b761028e366004613703565b610fb0565b34801561029f57600080fd5b506101b76102ae366004613636565b61118f565b3480156102bf57600080fd5b506101b76102ce36600461360c565b611325565b3480156102df57600080fd5b50600e546101f9906001600160a01b031681565b3480156102ff57600080fd5b5061031361030e366004613636565b6114fb565b60405161018e9190613725565b34801561032c57600080fd5b506101b761033b3660046137e3565b61180b565b34801561034c57600080fd5b506101b761035b3660046138bc565b61189e565b34801561036c57600080fd5b5061038061037b366004613636565b61196a565b60405161018e9190613903565b34801561039957600080fd5b506101b76103a8366004613953565b611b38565b3480156103b957600080fd5b506103cd6103c836600461360c565b612227565b60405161018e919081518152602080830151908201526040808301516001600160a01b0316908201526060918201519181019190915260800190565b34801561041557600080fd5b506101d9610424366004613636565b612413565b6040805160e081018252600080825260208201819052918101829052606081018290526080810182905260a0810182905260c08101919091526000601260008481526020019081526020016000206040518061016001604052908160008201548152602001600182015481526020016002820180546104a790613a3d565b80601f01602080910402602001604051908101604052809291908181526020018280546104d390613a3d565b80156105205780601f106104f557610100808354040283529160200191610520565b820191906000526020600020905b81548152906001019060200180831161050357829003601f168201915b50505091835250506003828101546001600160a01b03908116602080850191909152600485015460408501526005850154606085015260068501546080850152600785015460ff908116151560a0860152600886015460c086015260099095015491821660e0850152600160a01b9091049093161515610100909201919091529082015191925010156105ce5760405162461bcd60e51b81526004016105c590613a78565b60405180910390fd5b5050506001600160a01b03908116600090815260176020908152604091829020825160e08101845281548152600182015490941691840191909152600281015491830191909152600381015460ff8082161515606085015261010082048116151560808501526201000090910416151560a08301526004015460c082015290565b600e546001600160a01b03163314806106725750600f546001600160a01b031633145b61068e5760405162461bcd60e51b81526004016105c590613aaf565b6001548111156106d55760405162461bcd60e51b8152602060048201526012602482015271496e76616c69642062616c6c6f742049642160701b60448201526064016105c5565b6000600182815481106106ea576106ea613af8565b90600052602060002090600a020160405180610160016040529081600082015481526020016001820154815260200160028201805461072890613a3d565b80601f016020809104026020016040519081016040528092919081815260200182805461075490613a3d565b80156107a15780601f10610776576101008083540402835291602001916107a1565b820191906000526020600020905b81548152906001019060200180831161078457829003601f168201915b505050918352505060038201546001600160a01b039081166020830152600483015460408301526005830154606083015260068301546080830152600783015460ff908116151560a080850191909152600885015460c085015260099094015491821660e0840152600160a01b90910416151561010090910152810151909150600090601890603c9081906108369042613b24565b6108409190613b3b565b61084a9190613b3b565b6108549190613b3b565b90508160c0015181116108a05760405162461bcd60e51b8152602060048201526014602482015273546869732042616c6c6f7420457870697265642160601b60448201526064016105c5565b6001546108e85760405162461bcd60e51b81526020600482015260166024820152754e6f2062616c6c6f7473204f70656e6564205965742160501b60448201526064016105c5565b3360009081526017602052604090206002015483146109575760405162461bcd60e51b815260206004820152602560248201527f566f74657220646f6573204e4f542062656c6f6e6720746f2074686973204261604482015264363637ba1760d91b60648201526084016105c5565b6001826020015110156109c05760405162461bcd60e51b815260206004820152602b60248201527f54686973204f7074696f6e20697320506f737369626c6520696e206120436c6f60448201526a7365642042616c6c6f742160a81b60648201526084016105c5565b3360009081526017602052604090206003015460ff161515600114610a275760405162461bcd60e51b815260206004820152601f60248201527f596f7520617265204e4f542061205265676973746572656420566f746572210060448201526064016105c5565b33600090815260176020526040902060030154610100900460ff1615610a9a5760405162461bcd60e51b815260206004820152602260248201527f4164647265737320616c72656164792068617320566f74696e67205269676874604482015261732160f01b60648201526084016105c5565b33600090815260176020908152604091829020600301805461ff00191661010017905590516001600160a01b03861681527f94055e6bcdfa83fa1f2cb2901fd22db9e96f758348742a662b752bc32b765800910160405180910390a150505050565b6060600060126000848152602001908152602001600020604051806101600160405290816000820154815260200160018201548152602001600282018054610b4390613a3d565b80601f0160208091040260200160405190810160405280929190818152602001828054610b6f90613a3d565b8015610bbc5780601f10610b9157610100808354040283529160200191610bbc565b820191906000526020600020905b815481529060010190602001808311610b9f57829003601f168201915b50505091835250506003828101546001600160a01b03908116602080850191909152600485015460408501526005850154606085015260068501546080850152600785015460ff908116151560a0860152600886015460c086015260099095015491821660e0850152600160a01b909104909316151561010090920191909152908201519192501015610c615760405162461bcd60e51b81526004016105c590613a78565b60008381526013602090815260409182902080548351818402810184019094528084529091830182828015610cbf57602002820191906000526020600020905b81546001600160a01b03168152600190910190602001808311610ca1575b5050505050915050919050565b6000806001610cdc606485613b24565b81548110610cec57610cec613af8565b90600052602060002090600a0201905060006018603c80846005015442610d139190613b24565b610d1d9190613b3b565b610d279190613b3b565b610d319190613b3b565b905081600601548110610d865760405162461bcd60e51b815260206004820152601a60248201527f546869732042616c6c6f74206973207374696c6c204f70656e2100000000000060448201526064016105c5565b600782015460ff161515600114610ddf5760405162461bcd60e51b815260206004820152601a60248201527f546869732042616c6c6f74206973207374696c6c204f70656e2100000000000060448201526064016105c5565b600554841115610e3d5760405162461bcd60e51b815260206004820152602360248201527f42616c6c6f742077697468207468617420496420646f6573204e4f542065786960448201526273742160e81b60648201526084016105c5565b6009820154600160a01b900460ff16151560011415610e9f576009820154604051600160a01b90910460ff16151581527faf9c5487a5254285c7e0cb270c5884fb3c73e8bf058e80fc0cf380dc6908fac69060200160405180910390a1610eb3565b50600901546001600160a01b031692915050565b5050919050565b600d546001600160a01b03163314610ed157600080fd5b600d546040516001600160a01b03909116904780156108fc02916000818181858888f19350505050158015610f0a573d6000803e3d6000fd5b506000610f168261196a565b60006060909101525050565b600c8054610f2f90613a3d565b80601f0160208091040260200160405190810160405280929190818152602001828054610f5b90613a3d565b8015610fa85780601f10610f7d57610100808354040283529160200191610fa8565b820191906000526020600020905b815481529060010190602001808311610f8b57829003601f168201915b505050505081565b6000610fbd606483613b24565b9050600a548110610fe05760405162461bcd60e51b81526004016105c590613b5d565b600060018281548110610ff557610ff5613af8565b90600052602060002090600a020160405180610160016040529081600082015481526020016001820154815260200160028201805461103390613a3d565b80601f016020809104026020016040519081016040528092919081815260200182805461105f90613a3d565b80156110ac5780601f10611081576101008083540402835291602001916110ac565b820191906000526020600020905b81548152906001019060200180831161108f57829003601f168201915b505050918352505060038201546001600160a01b03908116602080840191909152600484015460408401526005840154606084015260068401546080840152600784015460ff908116151560a0850152600885015460c085015260099094015491821660e0840152600160a01b9091049092161515610100909101528101519091506111425761113c84846125e1565b50611189565b8060200151600114156111595761113c8484612ae1565b8060200151600214156111705761113c8484612b19565b806020015160031415611189576111878484612b4b565b505b50505050565b600e546001600160a01b031633146111e95760405162461bcd60e51b815260206004820152601a60248201527f596f7520646f6e2774204f574e20746869732042616c6c6f742100000000000060448201526064016105c5565b600060016111f8606484613b24565b8154811061120857611208613af8565b90600052602060002090600a0201905060006018603c8084600501544261122f9190613b24565b6112399190613b3b565b6112439190613b3b565b61124d9190613b3b565b9050816006015481106112a25760405162461bcd60e51b815260206004820152601f60248201527f546869732042616c6c6f74206973204e4f54207965742045787069726564210060448201526064016105c5565b600e546040516001600160a01b03909116904780156108fc02916000818181858888f193505050501580156112db573d6000803e3d6000fd5b505060079081018054600160ff1991821681179092553360009081526011602090815260408083208601805485168617905595825260129052939093209091018054909216179055565b6000611332606483613b24565b9050600a5481106113555760405162461bcd60e51b81526004016105c590613b5d565b60006001828154811061136a5761136a613af8565b90600052602060002090600a02016040518061016001604052908160008201548152602001600182015481526020016002820180546113a890613a3d565b80601f01602080910402602001604051908101604052809291908181526020018280546113d490613a3d565b80156114215780601f106113f657610100808354040283529160200191611421565b820191906000526020600020905b81548152906001019060200180831161140457829003601f168201915b505050918352505060038201546001600160a01b03908116602080840191909152600484015460408401526005840154606084015260068401546080840152600784015460ff908116151560a0850152600885015460c085015260099094015491821660e0840152600160a01b9091049092161515610100909101528101519091506114b6576114b18484612b7d565b611189565b8060200151600114156114cd576114b18484612f44565b8060200151600214156114e4576114b184846130a8565b8060200151600314156111895761118984846132f0565b61156e60405180610160016040528060008152602001600081526020016060815260200160006001600160a01b031681526020016000815260200160008152602001600081526020016000151581526020016000815260200160006001600160a01b031681526020016000151581525090565b6000601260008481526020019081526020016000206040518061016001604052908160008201548152602001600182015481526020016002820180546115b390613a3d565b80601f01602080910402602001604051908101604052809291908181526020018280546115df90613a3d565b801561162c5780601f106116015761010080835404028352916020019161162c565b820191906000526020600020905b81548152906001019060200180831161160f57829003601f168201915b50505091835250506003828101546001600160a01b03908116602080850191909152600485015460408501526005850154606085015260068501546080850152600785015460ff908116151560a0860152600886015460c086015260099095015491821660e0850152600160a01b9091049093161515610100909201919091529082015191925010156116d15760405162461bcd60e51b81526004016105c590613a78565b6012600084815260200190815260200160002060405180610160016040529081600082015481526020016001820154815260200160028201805461171490613a3d565b80601f016020809104026020016040519081016040528092919081815260200182805461174090613a3d565b801561178d5780601f106117625761010080835404028352916020019161178d565b820191906000526020600020905b81548152906001019060200180831161177057829003601f168201915b505050918352505060038201546001600160a01b039081166020830152600483015460408301526005830154606083015260068301546080830152600783015460ff908116151560a0840152600884015460c084015260099093015490811660e0830152600160a01b90049091161515610100909101529392505050565b600d546001600160a01b0316331461182257600080fd5b801561186557600d546040516001600160a01b03909116904780156108fc02916000818181858888f19350505050158015611861573d6000803e3d6000fd5b5050565b600d546040516001600160a01b03909116904780156108fc02916000818181858888f19350505050158015611861573d6000803e3d6000fd5b600d546001600160a01b031633146118f85760405162461bcd60e51b815260206004820152601d60248201527f5468697320416374696f6e206973204e4f54207065726d69747465642100000060448201526064016105c5565b600954821161193f5760405162461bcd60e51b8152602060048201526013602482015272496e76616c6964205479706520496e6465782160681b60448201526064016105c5565b600860095460016119509190613b8d565b815460018101835560009283526020909220909101555050565b6119a060405180608001604052806000815260200160006001600160a01b03168152602001606081526020016000151581525090565b600e546001600160a01b03163314806119c35750600f546001600160a01b031633145b6119df5760405162461bcd60e51b81526004016105c590613aaf565b600154821115611a285760405162461bcd60e51b8152602060048201526014602482015273496e76616c696420656c656374696f6e2049642160601b60448201526064016105c5565b60008281548110611a3b57611a3b613af8565b9060005260206000209060040201604051806080016040529081600082015481526020016001820160009054906101000a90046001600160a01b03166001600160a01b03166001600160a01b03168152602001600282018054611a9d90613a3d565b80601f0160208091040260200160405190810160405280929190818152602001828054611ac990613a3d565b8015611b165780601f10611aeb57610100808354040283529160200191611b16565b820191906000526020600020905b815481529060010190602001808311611af957829003601f168201915b50505091835250506003919091015460ff16151560209091015290505b919050565b600e546001600160a01b0316331480611b5b5750600f546001600160a01b031633145b611b775760405162461bcd60e51b81526004016105c590613aaf565b84518590611bc75760405162461bcd60e51b815260206004820152601a60248201527f456e74657220612076616c69642042616c6c6f74204e616d652100000000000060448201526064016105c5565b6001855111611c185760405162461bcd60e51b815260206004820152601d60248201527f4e6f7420456e6f7567682042616c6c6f742043616e646964617465732100000060448201526064016105c5565b600954841115611c6a5760405162461bcd60e51b815260206004820152601860248201527f4e6f7420612076616c69642042616c6c6f74205479706521000000000000000060448201526064016105c5565b600a5460055410611ce35760405162461bcd60e51b815260206004820152603c60248201527f596f752068617665207265616368656420746865204d6178204c696d6974206f60448201527f662042616c6c6f747320666f72207468697320456c656374696f6e210000000060648201526084016105c5565b818311611d3d5760405162461bcd60e51b815260206004820152602260248201527f526567697374726174696f6e20506572696f64203e20566f74696e6720446179604482015261732160f01b60648201526084016105c5565b600b5460009081526013602090815260409091208651606092611d64929190890190613507565b50855160005b81811015611e435760006040518060800160405280838152602001600b5481526020018a8481518110611d9f57611d9f613af8565b60200260200101516001600160a01b031681526020016000815250905080601560008b8581518110611dd357611dd3613af8565b6020908102919091018101516001600160a01b03908116835282820193909352604091820160002084518155908401516001820155908301516002820180546001600160a01b03191691909316179091556060909101516003909101555080611e3b81613ba5565b915050611d6a565b50600e80546001600160a01b0319163390811790915587516004556040805161016081018252600b54815260208082018a81529282018c815260608301949094526000608083018190524260a084015260c083018a905260e0830181905261010083018990526101208301819052610140830181905260018054808201825591528251600a919091027fb10e2d527612073b26eecdfd717e6a320cf44b4afac2b0732d9fcbe2b7fa0cf6810191825593517fb10e2d527612073b26eecdfd717e6a320cf44b4afac2b0732d9fcbe2b7fa0cf785015593518051929485949093611f54937fb10e2d527612073b26eecdfd717e6a320cf44b4afac2b0732d9fcbe2b7fa0cf8909201929091019061356c565b5060608201516003820180546001600160a01b0319166001600160a01b039283161790556080830151600483015560a0830151600583015560c0830151600683015560e083015160078301805460ff191691151591909117905561010083015160088301556101208301516009909201805461014090940151929091166001600160a81b031990931692909217600160a01b91151591909102179055336000908152601160209081526040918290208351815583820151600182015591830151805184939261202a92600285019291019061356c565b5060608201516003820180546001600160a01b0319166001600160a01b039283161790556080830151600483015560a0830151600583015560c0830151600683015560e083015160078301805460ff191691151591909117905561010083015160088301556101208301516009909201805461014090940151929091166001600160a81b031990931692909217600160a01b91151591909102179055600b546000908152601260209081526040918290208351815583820151600182015591830151805184939261210292600285019291019061356c565b5060608201516003820180546001600160a01b0319166001600160a01b039283161790556080830151600483015560a0830151600583015560c0830151600683015560e083015160078301805460ff191691151591909117905561010083015160088301556101208301516009909201805461014090940151929091166001600160a81b031990931692909217600160a01b9115159190910217905533600090815260166020908152604090912089516121be928b0190613507565b50600580549060006121cf83613ba5565b9091555050600b80549060006121e483613ba5565b90915550506040518781527f3302601c0b6ad9794207d2eb4a29c724db57c9348bf10dffcc98c9d89e6d9c529060200160405180910390a1505050505050505050565b61225b6040518060800160405280600081526020016000815260200160006001600160a01b03168152602001600081525090565b6000601260008481526020019081526020016000206040518061016001604052908160008201548152602001600182015481526020016002820180546122a090613a3d565b80601f01602080910402602001604051908101604052809291908181526020018280546122cc90613a3d565b80156123195780601f106122ee57610100808354040283529160200191612319565b820191906000526020600020905b8154815290600101906020018083116122fc57829003601f168201915b50505091835250506003828101546001600160a01b03908116602080850191909152600485015460408501526005850154606085015260068501546080850152600785015460ff908116151560a0860152600886015460c086015260099095015491821660e0850152600160a01b9091049093161515610100909201919091529082015191925010156123be5760405162461bcd60e51b81526004016105c590613a78565b5050506001600160a01b03908116600090815260156020908152604091829020825160808101845281548152600182015492810192909252600281015490931691810191909152600390910154606082015290565b606060006012600084815260200190815260200160002060405180610160016040529081600082015481526020016001820154815260200160028201805461245a90613a3d565b80601f016020809104026020016040519081016040528092919081815260200182805461248690613a3d565b80156124d35780601f106124a8576101008083540402835291602001916124d3565b820191906000526020600020905b8154815290600101906020018083116124b657829003601f168201915b50505091835250506003828101546001600160a01b03908116602080850191909152600485015460408501526005850154606085015260068501546080850152600785015460ff908116151560a0860152600886015460c086015260099095015491821660e0850152600160a01b9091049093161515610100909201919091529082015191925010156125785760405162461bcd60e51b81526004016105c590613a78565b60008381526014602090815260409182902080548351818402810184019094528084529091830182828015610cbf576020028201919060005260206000209081546001600160a01b03168152600190910190602001808311610ca1575050505050915050919050565b6000806125ef606484613b24565b9050600a5481106126125760405162461bcd60e51b81526004016105c590613b5d565b60006001828154811061262757612627613af8565b90600052602060002090600a0201905060008160050154426126499190613b24565b905081600801546201518061265e9190613bc0565b81106126ac5760405162461bcd60e51b815260206004820152601f60248201527f526567697374726174696f6e20506572696f642068617320506173736564210060448201526064016105c5565b60068201546126be9062015180613bc0565b81106127035760405162461bcd60e51b8152602060048201526014602482015273546869732042616c6c6f7420457870697265642160601b60448201526064016105c5565b6000868152601960205260409020546001600160a01b0316156127685760405162461bcd60e51b815260206004820152601d60248201527f546869732069645f6e756d62657220697320726567697374657265642100000060448201526064016105c5565b33600090815260186020526040902054156127c55760405162461bcd60e51b815260206004820152601760248201527f596f7520616c726561647920726567697374657265642100000000000000000060448201526064016105c5565b600085815260146020908152604080832080546001810182559084528284200180546001600160a01b03191633179055516128069189910190815260200190565b6040516020818303038152906040528051906020012090508060186000336001600160a01b03166001600160a01b031681526020019081526020016000208190555060006040518060e0016040528085600401548152602001336001600160a01b031681526020018681526020016001151581526020016001151581526020016000151581526020018381525090508060176000336001600160a01b03166001600160a01b031681526020019081526020016000206000820151816000015560208201518160010160006101000a8154816001600160a01b0302191690836001600160a01b031602179055506040820151816002015560608201518160030160006101000a81548160ff02191690831515021790555060808201518160030160016101000a81548160ff02191690831515021790555060a08201518160030160026101000a81548160ff02191690831515021790555060c0820151816004015590505060028190806001815401808255809150506001900390600052602060002090600502016000909190919091506000820151816000015560208201518160010160006101000a8154816001600160a01b0302191690836001600160a01b031602179055506040820151816002015560608201518160030160006101000a81548160ff02191690831515021790555060808201518160030160016101000a81548160ff02191690831515021790555060a08201518160030160026101000a81548160ff02191690831515021790555060c082015181600401555050836004016000815480929190612a5790613ba5565b90915550506000878152601260205260408120600401805491612a7983613ba5565b90915550506000888152601960205260409081902080546001600160a01b03191633179055517fd850a8248df1456f35b1b26db099385cb363335bb60a8e99294bc1012426787190612ace9084815260200190565b60405180910390a1509695505050505050565b600081815260126020526040812060018082015414612b125760405162461bcd60e51b81526004016105c590613bdf565b5092915050565b60008181526012602052604081206001810154600214612b125760405162461bcd60e51b81526004016105c590613bdf565b60008181526012602052604081206001810154600314612b125760405162461bcd60e51b81526004016105c590613bdf565b600060126000838152602001908152602001600020604051806101600160405290816000820154815260200160018201548152602001600282018054612bc290613a3d565b80601f0160208091040260200160405190810160405280929190818152602001828054612bee90613a3d565b8015612c3b5780601f10612c1057610100808354040283529160200191612c3b565b820191906000526020600020905b815481529060010190602001808311612c1e57829003601f168201915b505050918352505060038201546001600160a01b03908116602080840191909152600484015460408401526005840154606084015260068401546080840152600784015460ff908116151560a0850152600885015460c085015260099094015480831660e0850152600160a01b9004909316151561010090920191909152851661012083015281015190915015612d145760405162461bcd60e51b815260206004820152601760248201527f5468697320497320616e204f70656e2042616c6c6f742100000000000000000060448201526064016105c5565b3360009081526017602052604090206003015460ff161515600114612d7b5760405162461bcd60e51b815260206004820152601860248201527f506c6561736520526567697374657220746f20566f746521000000000000000060448201526064016105c5565b3360009081526017602052604090206003015462010000900460ff1615612de45760405162461bcd60e51b815260206004820152601b60248201527f596f7520616c7265616479204341535420796f757220566f746521000000000060448201526064016105c5565b6000828152601260205260409020548214612e365760405162461bcd60e51b8152602060048201526012602482015271496e76616c69642042616c6c6f742049642160701b60448201526064016105c5565b6001600160a01b0383166000908152601560205260409020600101548214612e705760405162461bcd60e51b81526004016105c590613c0b565b60e081015115612eb75760405162461bcd60e51b815260206004820152601260248201527110985b1b1bdd081a185cc8115e1c1a5c995960721b60448201526064016105c5565b612ec18382613452565b506001600160a01b0383166000908152601560205260408120600301805491612ee983613ba5565b909155505033600090815260176020526040808220600301805462ff0000191662010000179055516001600160a01b038516917faec2ccae8681fd01ad220ecb7e9b5f7d485b1cc3cc01599acb1578016b30a6bd91a2505050565b600060126000838152602001908152602001600020604051806101600160405290816000820154815260200160018201548152602001600282018054612f8990613a3d565b80601f0160208091040260200160405190810160405280929190818152602001828054612fb590613a3d565b80156130025780601f10612fd757610100808354040283529160200191613002565b820191906000526020600020905b815481529060010190602001808311612fe557829003601f168201915b505050918352505060038201546001600160a01b03908116602080840191909152600484015460408401526005840154606084015260068401546080840152600784015460ff908116151560a0850152600885015460c085015260099094015491821660e0840152600160a01b9091049092161515610100909101528101519091506001146130a35760405162461bcd60e51b81526004016105c590613c4e565b505050565b6000601260008381526020019081526020016000206040518061016001604052908160008201548152602001600182015481526020016002820180546130ed90613a3d565b80601f016020809104026020016040519081016040528092919081815260200182805461311990613a3d565b80156131665780601f1061313b57610100808354040283529160200191613166565b820191906000526020600020905b81548152906001019060200180831161314957829003601f168201915b505050918352505060038201546001600160a01b03908116602080840191909152600484015460408401526005840154606084015260068401546080840152600784015460ff908116151560a0850152600885015460c085015260099094015491821660e0840152600160a01b9091049092161515610100909101528101519091506002146132075760405162461bcd60e51b81526004016105c590613c4e565b6001600160a01b038316610120820152336000908152601760205260409020600301805461ffff1916610101179081905562010000900460ff161561328e5760405162461bcd60e51b815260206004820152601b60248201527f596f7520616c7265616479206361737420796f757220766f746521000000000060448201526064016105c5565b6001600160a01b0383166000908152601560205260409020600101548214156132c95760405162461bcd60e51b81526004016105c590613c0b565b6001600160a01b0383166000908152601560205260408120600301805491612ee983613ba5565b60006012600083815260200190815260200160002060405180610160016040529081600082015481526020016001820154815260200160028201805461333590613a3d565b80601f016020809104026020016040519081016040528092919081815260200182805461336190613a3d565b80156133ae5780601f10613383576101008083540402835291602001916133ae565b820191906000526020600020905b81548152906001019060200180831161339157829003601f168201915b50505091835250506003828101546001600160a01b03908116602080850191909152600485015460408501526005850154606085015260068501546080850152600785015460ff908116151560a0860152600886015460c086015260099095015491821660e0850152600160a01b90910490931615156101009092019190915290820151919250146130a35760405162461bcd60e51b81526004016105c590613c4e565b6101208101516001600160a01b0390811660009081526015602052604080822060039081015493861683529082200154909190613490906001613b8d565b11156134b3576001600160a01b03831661012083015260006101408301526134fc565b6101208201516001600160a01b039081166000908152601560205260408082206003908101549387168352912001546134ed906001613b8d565b14156134fc5760016101408301525b506101400151919050565b82805482825590600052602060002090810192821561355c579160200282015b8281111561355c57825182546001600160a01b0319166001600160a01b03909116178255602090920191600190910190613527565b506135689291506135e0565b5090565b82805461357890613a3d565b90600052602060002090601f01602090048101928261359a576000855561355c565b82601f106135b357805160ff191683800117855561355c565b8280016001018555821561355c579182015b8281111561355c5782518255916020019190600101906135c5565b5b8082111561356857600081556001016135e1565b80356001600160a01b0381168114611b3357600080fd5b6000806040838503121561361f57600080fd5b613628836135f5565b946020939093013593505050565b60006020828403121561364857600080fd5b5035919050565b6020808252825182820181905260009190848201906040850190845b818110156136905783516001600160a01b03168352928401929184019160010161366b565b50909695505050505050565b6000815180845260005b818110156136c2576020818501810151868301820152016136a6565b818111156136d4576000602083870101525b50601f01601f19169290920160200192915050565b6020815260006136fc602083018461369c565b9392505050565b6000806040838503121561371657600080fd5b50508035926020909101359150565b6020815281516020820152602082015160408201526000604083015161016080606085015261375861018085018361369c565b9150606085015161377460808601826001600160a01b03169052565b50608085015160a085015260a085015160c085015260c085015160e085015260e08501516101006137a88187018315159052565b8601516101208681019190915286015190506101406137d1818701836001600160a01b03169052565b90950151151593019290925250919050565b6000602082840312156137f557600080fd5b813580151581146136fc57600080fd5b634e487b7160e01b600052604160045260246000fd5b604051601f8201601f1916810167ffffffffffffffff8111828210171561384457613844613805565b604052919050565b600082601f83011261385d57600080fd5b813567ffffffffffffffff81111561387757613877613805565b61388a601f8201601f191660200161381b565b81815284602083860101111561389f57600080fd5b816020850160208301376000918101602001919091529392505050565b600080604083850312156138cf57600080fd5b82359150602083013567ffffffffffffffff8111156138ed57600080fd5b6138f98582860161384c565b9150509250929050565b602081528151602082015260018060a01b036020830151166040820152600060408301516080606084015261393b60a084018261369c565b90506060840151151560808401528091505092915050565b600080600080600060a0868803121561396b57600080fd5b853567ffffffffffffffff8082111561398357600080fd5b61398f89838a0161384c565b96506020915081880135818111156139a657600080fd5b8801601f81018a136139b757600080fd5b8035828111156139c9576139c9613805565b8060051b92506139da84840161381b565b818152928201840192848101908c8511156139f457600080fd5b928501925b84841015613a1957613a0a846135f5565b825292850192908501906139f9565b999c999b505050506040880135976060810135976080909101359650945050505050565b600181811c90821680613a5157607f821691505b60208210811415613a7257634e487b7160e01b600052602260045260246000fd5b50919050565b60208082526018908201527f546869732069732061205365637265742042616c6c6f74210000000000000000604082015260600190565b60208082526029908201527f496e73756666696369656e74205065726d697373696f6e7320666f72207468696040820152687320416374696f6e2160b81b606082015260800190565b634e487b7160e01b600052603260045260246000fd5b634e487b7160e01b600052601160045260246000fd5b600082821015613b3657613b36613b0e565b500390565b600082613b5857634e487b7160e01b600052601260045260246000fd5b500490565b6020808252601690820152754e6f20737563682042616c6c6f74204578697374732160501b604082015260600190565b60008219821115613ba057613ba0613b0e565b500190565b6000600019821415613bb957613bb9613b0e565b5060010190565b6000816000190483118215151615613bda57613bda613b0e565b500290565b60208082526012908201527157726f6e672062616c6c6f7420547970652160701b604082015260600190565b60208082526023908201527f43616e64696461746520646f6573206e6f7420657869737420696e2042616c6c6040820152626f742160e81b606082015260800190565b60208082526012908201527157726f6e672042616c6c6f7420547970652160701b60408201526060019056fea26469706673582212209b29d0030e16e512004775349d5bfad23bca9f33743a18145848fa82f5342ff864736f6c63430008080033","bytecodeSha1":"33dcb7087a6719ec20aaaefc18809953df15f693","compiler":{"evm_version":"istanbul","optimizer":{"enabled":true,"runs":200},"version":"0.8.8+commit.dddeac2f"},"contractName":"JamiiFactory","language":"Solidity","natspec":{"kind":"dev","methods":{"assign_voting_rights(address,uint256)":{"notice":"VOTING RIGHTS *"},"get_ballot(uint256)":{"notice":"GETTERS *"}},"version":1},"opcodes":"PUSH1 0x80 PUSH1 0x40 MSTORE PUSH1 0x4 CALLDATASIZE LT PUSH2 0x109 JUMPI PUSH1 0x0 CALLDATALOAD PUSH1 0xE0 SHR DUP1 PUSH4 0x5F74BBDE GT PUSH2 0x95 JUMPI DUP1 PUSH4 0xADBDBC97 GT PUSH2 0x64 JUMPI DUP1 PUSH4 0xADBDBC97 EQ PUSH2 0x340 JUMPI DUP1 PUSH4 0xC6EEBB77 EQ PUSH2 0x360 JUMPI DUP1 PUSH4 0xDCFC1380 EQ PUSH2 0x38D JUMPI DUP1 PUSH4 0xDDDE55FA EQ PUSH2 0x3AD JUMPI DUP1 PUSH4 0xE8873B8F EQ PUSH2 0x409 JUMPI PUSH1 0x0 DUP1 REVERT JUMPDEST DUP1 PUSH4 0x5F74BBDE EQ PUSH2 0x2B3 JUMPI DUP1 PUSH4 0x61FA5267 EQ PUSH2 0x2D3 JUMPI DUP1 PUSH4 0x8987076B EQ PUSH2 0x2F3 JUMPI DUP1 PUSH4 0xA810A54C EQ PUSH2 0x320 JUMPI PUSH1 0x0 DUP1 REVERT JUMPDEST DUP1 PUSH4 0x457852A8 GT PUSH2 0xDC JUMPI DUP1 PUSH4 0x457852A8 EQ PUSH2 0x211 JUMPI DUP1 PUSH4 0x4C66A073 EQ PUSH2 0x231 JUMPI DUP1 PUSH4 0x50EC0930 EQ PUSH2 0x253 JUMPI DUP1 PUSH4 0x514D7D66 EQ PUSH2 0x273 JUMPI DUP1 PUSH4 0x53ABCED8 EQ PUSH2 0x293 JUMPI PUSH1 0x0 DUP1 REVERT JUMPDEST DUP1 PUSH4 0x91CB18A EQ PUSH2 0x10E JUMPI DUP1 PUSH4 0x112819BD EQ PUSH2 0x197 JUMPI DUP1 PUSH4 0x133E59AA EQ PUSH2 0x1B9 JUMPI DUP1 PUSH4 0x243DC409 EQ PUSH2 0x1E6 JUMPI JUMPDEST PUSH1 0x0 DUP1 REVERT JUMPDEST CALLVALUE DUP1 ISZERO PUSH2 0x11A JUMPI PUSH1 0x0 DUP1 REVERT JUMPDEST POP PUSH2 0x12E PUSH2 0x129 CALLDATASIZE PUSH1 0x4 PUSH2 0x360C JUMP JUMPDEST PUSH2 0x429 JUMP JUMPDEST PUSH1 0x40 MLOAD PUSH2 0x18E SWAP2 SWAP1 DUP2 MLOAD DUP2 MSTORE PUSH1 0x20 DUP1 DUP4 ADD MLOAD PUSH1 0x1 PUSH1 0x1 PUSH1 0xA0 SHL SUB AND SWAP1 DUP3 ADD MSTORE PUSH1 0x40 DUP1 DUP4 ADD MLOAD SWAP1 DUP3 ADD MSTORE PUSH1 0x60 DUP1 DUP4 ADD MLOAD ISZERO ISZERO SWAP1 DUP3 ADD MSTORE PUSH1 0x80 DUP1 DUP4 ADD MLOAD ISZERO ISZERO SWAP1 DUP3 ADD MSTORE PUSH1 0xA0 DUP1 DUP4 ADD MLOAD ISZERO ISZERO SWAP1 DUP3 ADD MSTORE PUSH1 0xC0 SWAP2 DUP3 ADD MLOAD SWAP2 DUP2 ADD SWAP2 SWAP1 SWAP2 MSTORE PUSH1 0xE0 ADD SWAP1 JUMP JUMPDEST PUSH1 0x40 MLOAD DUP1 SWAP2 SUB SWAP1 RETURN JUMPDEST CALLVALUE DUP1 ISZERO PUSH2 0x1A3 JUMPI PUSH1 0x0 DUP1 REVERT JUMPDEST POP PUSH2 0x1B7 PUSH2 0x1B2 CALLDATASIZE PUSH1 0x4 PUSH2 0x360C JUMP JUMPDEST PUSH2 0x64F JUMP JUMPDEST STOP JUMPDEST CALLVALUE DUP1 ISZERO PUSH2 0x1C5 JUMPI PUSH1 0x0 DUP1 REVERT JUMPDEST POP PUSH2 0x1D9 PUSH2 0x1D4 CALLDATASIZE PUSH1 0x4 PUSH2 0x3636 JUMP JUMPDEST PUSH2 0xAFC JUMP JUMPDEST PUSH1 0x40 MLOAD PUSH2 0x18E SWAP2 SWAP1 PUSH2 0x364F JUMP JUMPDEST PUSH2 0x1F9 PUSH2 0x1F4 CALLDATASIZE PUSH1 0x4 PUSH2 0x3636 JUMP JUMPDEST PUSH2 0xCCC JUMP JUMPDEST PUSH1 0x40 MLOAD PUSH1 0x1 PUSH1 0x1 PUSH1 0xA0 SHL SUB SWAP1 SWAP2 AND DUP2 MSTORE PUSH1 0x20 ADD PUSH2 0x18E JUMP JUMPDEST CALLVALUE DUP1 ISZERO PUSH2 0x21D JUMPI PUSH1 0x0 DUP1 REVERT JUMPDEST POP PUSH2 0x1B7 PUSH2 0x22C CALLDATASIZE PUSH1 0x4 PUSH2 0x3636 JUMP JUMPDEST PUSH2 0xEBA JUMP JUMPDEST CALLVALUE DUP1 ISZERO PUSH2 0x23D JUMPI PUSH1 0x0 DUP1 REVERT JUMPDEST POP PUSH2 0x246 PUSH2 0xF22 JUMP JUMPDEST PUSH1 0x40 MLOAD PUSH2 0x18E SWAP2 SWAP1 PUSH2 0x36E9 JUMP JUMPDEST CALLVALUE DUP1 ISZERO PUSH2 0x25F JUMPI PUSH1 0x0 DUP1 REVERT JUMPDEST POP PUSH1 0xF SLOAD PUSH2 0x1F9 SWAP1 PUSH1 0x1 PUSH1 0x1 PUSH1 0xA0 SHL SUB AND DUP2 JUMP JUMPDEST CALLVALUE DUP1 ISZERO PUSH2 0x27F JUMPI PUSH1 0x0 DUP1 REVERT JUMPDEST POP PUSH2 0x1B7 PUSH2 0x28E CALLDATASIZE PUSH1 0x4 PUSH2 0x3703 JUMP JUMPDEST PUSH2 0xFB0 JUMP JUMPDEST CALLVALUE DUP1 ISZERO PUSH2 0x29F JUMPI PUSH1 0x0 DUP1 REVERT JUMPDEST POP PUSH2 0x1B7 PUSH2 0x2AE CALLDATASIZE PUSH1 0x4 PUSH2 0x3636 JUMP JUMPDEST PUSH2 0x118F JUMP JUMPDEST CALLVALUE DUP1 ISZERO PUSH2 0x2BF JUMPI PUSH1 0x0 DUP1 REVERT JUMPDEST POP PUSH2 0x1B7 PUSH2 0x2CE CALLDATASIZE PUSH1 0x4 PUSH2 0x360C JUMP JUMPDEST PUSH2 0x1325 JUMP JUMPDEST CALLVALUE DUP1 ISZERO PUSH2 0x2DF JUMPI PUSH1 0x0 DUP1 REVERT JUMPDEST POP PUSH1 0xE SLOAD PUSH2 0x1F9 SWAP1 PUSH1 0x1 PUSH1 0x1 PUSH1 0xA0 SHL SUB AND DUP2 JUMP JUMPDEST CALLVALUE DUP1 ISZERO PUSH2 0x2FF JUMPI PUSH1 0x0 DUP1 REVERT JUMPDEST POP PUSH2 0x313 PUSH2 0x30E CALLDATASIZE PUSH1 0x4 PUSH2 0x3636 JUMP JUMPDEST PUSH2 0x14FB JUMP JUMPDEST PUSH1 0x40 MLOAD PUSH2 0x18E SWAP2 SWAP1 PUSH2 0x3725 JUMP JUMPDEST CALLVALUE DUP1 ISZERO PUSH2 0x32C JUMPI PUSH1 0x0 DUP1 REVERT JUMPDEST POP PUSH2 0x1B7 PUSH2 0x33B CALLDATASIZE PUSH1 0x4 PUSH2 0x37E3 JUMP JUMPDEST PUSH2 0x180B JUMP JUMPDEST CALLVALUE DUP1 ISZERO PUSH2 0x34C JUMPI PUSH1 0x0 DUP1 REVERT JUMPDEST POP PUSH2 0x1B7 PUSH2 0x35B CALLDATASIZE PUSH1 0x4 PUSH2 0x38BC JUMP JUMPDEST PUSH2 0x189E JUMP JUMPDEST CALLVALUE DUP1 ISZERO PUSH2 0x36C JUMPI PUSH1 0x0 DUP1 REVERT JUMPDEST POP PUSH2 0x380 PUSH2 0x37B CALLDATASIZE PUSH1 0x4 PUSH2 0x3636 JUMP JUMPDEST PUSH2 0x196A JUMP JUMPDEST PUSH1 0x40 MLOAD PUSH2 0x18E SWAP2 SWAP1 PUSH2 0x3903 JUMP JUMPDEST CALLVALUE DUP1 ISZERO PUSH2 0x399 JUMPI PUSH1 0x0 DUP1 REVERT JUMPDEST POP PUSH2 0x1B7 PUSH2 0x3A8 CALLDATASIZE PUSH1 0x4 PUSH2 0x3953 JUMP JUMPDEST PUSH2 0x1B38 JUMP JUMPDEST CALLVALUE DUP1 ISZERO PUSH2 0x3B9 JUMPI PUSH1 0x0 DUP1 REVERT JUMPDEST POP PUSH2 0x3CD PUSH2 0x3C8 CALLDATASIZE PUSH1 0x4 PUSH2 0x360C JUMP JUMPDEST PUSH2 0x2227 JUMP JUMPDEST PUSH1 0x40 MLOAD PUSH2 0x18E SWAP2 SWAP1 DUP2 MLOAD DUP2 MSTORE PUSH1 0x20 DUP1 DUP4 ADD MLOAD SWAP1 DUP3 ADD MSTORE PUSH1 0x40 DUP1 DUP4 ADD MLOAD PUSH1 0x1 PUSH1 0x1 PUSH1 0xA0 SHL SUB AND SWAP1 DUP3 ADD MSTORE PUSH1 0x60 SWAP2 DUP3 ADD MLOAD SWAP2 DUP2 ADD SWAP2 SWAP1 SWAP2 MSTORE PUSH1 0x80 ADD SWAP1 JUMP JUMPDEST CALLVALUE DUP1 ISZERO PUSH2 0x415 JUMPI PUSH1 0x0 DUP1 REVERT JUMPDEST POP PUSH2 0x1D9 PUSH2 0x424 CALLDATASIZE PUSH1 0x4 PUSH2 0x3636 JUMP JUMPDEST PUSH2 0x2413 JUMP JUMPDEST PUSH1 0x40 DUP1 MLOAD PUSH1 0xE0 DUP2 ADD DUP3 MSTORE PUSH1 0x0 DUP1 DUP3 MSTORE PUSH1 0x20 DUP3 ADD DUP2 SWAP1 MSTORE SWAP2 DUP2 ADD DUP3 SWAP1 MSTORE PUSH1 0x60 DUP2 ADD DUP3 SWAP1 MSTORE PUSH1 0x80 DUP2 ADD DUP3 SWAP1 MSTORE PUSH1 0xA0 DUP2 ADD DUP3 SWAP1 MSTORE PUSH1 0xC0 DUP2 ADD SWAP2 SWAP1 SWAP2 MSTORE PUSH1 0x0 PUSH1 0x12 PUSH1 0x0 DUP5 DUP2 MSTORE PUSH1 0x20 ADD SWAP1 DUP2 MSTORE PUSH1 0x20 ADD PUSH1 0x0 KECCAK256 PUSH1 0x40 MLOAD DUP1 PUSH2 0x160 ADD PUSH1 0x40 MSTORE SWAP1 DUP2 PUSH1 0x0 DUP3 ADD SLOAD DUP2 MSTORE PUSH1 0x20 ADD PUSH1 0x1 DUP3 ADD SLOAD DUP2 MSTORE PUSH1 0x20 ADD PUSH1 0x2 DUP3 ADD DUP1 SLOAD PUSH2 0x4A7 SWAP1 PUSH2 0x3A3D JUMP JUMPDEST DUP1 PUSH1 0x1F ADD PUSH1 0x20 DUP1 SWAP2 DIV MUL PUSH1 0x20 ADD PUSH1 0x40 MLOAD SWAP1 DUP2 ADD PUSH1 0x40 MSTORE DUP1 SWAP3 SWAP2 SWAP1 DUP2 DUP2 MSTORE PUSH1 0x20 ADD DUP3 DUP1 SLOAD PUSH2 0x4D3 SWAP1 PUSH2 0x3A3D JUMP JUMPDEST DUP1 ISZERO PUSH2 0x520 JUMPI DUP1 PUSH1 0x1F LT PUSH2 0x4F5 JUMPI PUSH2 0x100 DUP1 DUP4 SLOAD DIV MUL DUP4 MSTORE SWAP2 PUSH1 0x20 ADD SWAP2 PUSH2 0x520 JUMP JUMPDEST DUP3 ADD SWAP2 SWAP1 PUSH1 0x0 MSTORE PUSH1 0x20 PUSH1 0x0 KECCAK256 SWAP1 JUMPDEST DUP2 SLOAD DUP2 MSTORE SWAP1 PUSH1 0x1 ADD SWAP1 PUSH1 0x20 ADD DUP1 DUP4 GT PUSH2 0x503 JUMPI DUP3 SWAP1 SUB PUSH1 0x1F AND DUP3 ADD SWAP2 JUMPDEST POP POP POP SWAP2 DUP4 MSTORE POP POP PUSH1 0x3 DUP3 DUP2 ADD SLOAD PUSH1 0x1 PUSH1 0x1 PUSH1 0xA0 SHL SUB SWAP1 DUP2 AND PUSH1 0x20 DUP1 DUP6 ADD SWAP2 SWAP1 SWAP2 MSTORE PUSH1 0x4 DUP6 ADD SLOAD PUSH1 0x40 DUP6 ADD MSTORE PUSH1 0x5 DUP6 ADD SLOAD PUSH1 0x60 DUP6 ADD MSTORE PUSH1 0x6 DUP6 ADD SLOAD PUSH1 0x80 DUP6 ADD MSTORE PUSH1 0x7 DUP6 ADD SLOAD PUSH1 0xFF SWAP1 DUP2 AND ISZERO ISZERO PUSH1 0xA0 DUP7 ADD MSTORE PUSH1 0x8 DUP7 ADD SLOAD PUSH1 0xC0 DUP7 ADD MSTORE PUSH1 0x9 SWAP1 SWAP6 ADD SLOAD SWAP2 DUP3 AND PUSH1 0xE0 DUP6 ADD MSTORE PUSH1 0x1 PUSH1 0xA0 SHL SWAP1 SWAP2 DIV SWAP1 SWAP4 AND ISZERO ISZERO PUSH2 0x100 SWAP1 SWAP3 ADD SWAP2 SWAP1 SWAP2 MSTORE SWAP1 DUP3 ADD MLOAD SWAP2 SWAP3 POP LT ISZERO PUSH2 0x5CE JUMPI PUSH1 0x40 MLOAD PUSH3 0x461BCD PUSH1 0xE5 SHL DUP2 MSTORE PUSH1 0x4 ADD PUSH2 0x5C5 SWAP1 PUSH2 0x3A78 JUMP JUMPDEST PUSH1 0x40 MLOAD DUP1 SWAP2 SUB SWAP1 REVERT JUMPDEST POP POP POP PUSH1 0x1 PUSH1 0x1 PUSH1 0xA0 SHL SUB SWAP1 DUP2 AND PUSH1 0x0 SWAP1 DUP2 MSTORE PUSH1 0x17 PUSH1 0x20 SWAP1 DUP2 MSTORE PUSH1 0x40 SWAP2 DUP3 SWAP1 KECCAK256 DUP3 MLOAD PUSH1 0xE0 DUP2 ADD DUP5 MSTORE DUP2 SLOAD DUP2 MSTORE PUSH1 0x1 DUP3 ADD SLOAD SWAP1 SWAP5 AND SWAP2 DUP5 ADD SWAP2 SWAP1 SWAP2 MSTORE PUSH1 0x2 DUP2 ADD SLOAD SWAP2 DUP4 ADD SWAP2 SWAP1 SWAP2 MSTORE PUSH1 0x3 DUP2 ADD SLOAD PUSH1 0xFF DUP1 DUP3 AND ISZERO ISZERO PUSH1 0x60 DUP6 ADD MSTORE PUSH2 0x100 DUP3 DIV DUP2 AND ISZERO ISZERO PUSH1 0x80 DUP6 ADD MSTORE PUSH3 0x10000 SWAP1 SWAP2 DIV AND ISZERO ISZERO PUSH1 0xA0 DUP4 ADD MSTORE PUSH1 0x4 ADD SLOAD PUSH1 0xC0 DUP3 ADD MSTORE SWAP1 JUMP JUMPDEST PUSH1 0xE SLOAD PUSH1 0x1 PUSH1 0x1 PUSH1 0xA0 SHL SUB AND CALLER EQ DUP1 PUSH2 0x672 JUMPI POP PUSH1 0xF SLOAD PUSH1 0x1 PUSH1 0x1 PUSH1 0xA0 SHL SUB AND CALLER EQ JUMPDEST PUSH2 0x68E JUMPI PUSH1 0x40 MLOAD PUSH3 0x461BCD PUSH1 0xE5 SHL DUP2 MSTORE PUSH1 0x4 ADD PUSH2 0x5C5 SWAP1 PUSH2 0x3AAF JUMP JUMPDEST PUSH1 0x1 SLOAD DUP2 GT ISZERO PUSH2 0x6D5 JUMPI PUSH1 0x40 MLOAD PUSH3 0x461BCD PUSH1 0xE5 SHL DUP2 MSTORE PUSH1 0x20 PUSH1 0x4 DUP3 ADD MSTORE PUSH1 0x12 PUSH1 0x24 DUP3 ADD MSTORE PUSH18 0x496E76616C69642062616C6C6F7420496421 PUSH1 0x70 SHL PUSH1 0x44 DUP3 ADD MSTORE PUSH1 0x64 ADD PUSH2 0x5C5 JUMP JUMPDEST PUSH1 0x0 PUSH1 0x1 DUP3 DUP2 SLOAD DUP2 LT PUSH2 0x6EA JUMPI PUSH2 0x6EA PUSH2 0x3AF8 JUMP JUMPDEST SWAP1 PUSH1 0x0 MSTORE PUSH1 0x20 PUSH1 0x0 KECCAK256 SWAP1 PUSH1 0xA MUL ADD PUSH1 0x40 MLOAD DUP1 PUSH2 0x160 ADD PUSH1 0x40 MSTORE SWAP1 DUP2 PUSH1 0x0 DUP3 ADD SLOAD DUP2 MSTORE PUSH1 0x20 ADD PUSH1 0x1 DUP3 ADD SLOAD DUP2 MSTORE PUSH1 0x20 ADD PUSH1 0x2 DUP3 ADD DUP1 SLOAD PUSH2 0x728 SWAP1 PUSH2 0x3A3D JUMP JUMPDEST DUP1 PUSH1 0x1F ADD PUSH1 0x20 DUP1 SWAP2 DIV MUL PUSH1 0x20 ADD PUSH1 0x40 MLOAD SWAP1 DUP2 ADD PUSH1 0x40 MSTORE DUP1 SWAP3 SWAP2 SWAP1 DUP2 DUP2 MSTORE PUSH1 0x20 ADD DUP3 DUP1 SLOAD PUSH2 0x754 SWAP1 PUSH2 0x3A3D JUMP JUMPDEST DUP1 ISZERO PUSH2 0x7A1 JUMPI DUP1 PUSH1 0x1F LT PUSH2 0x776 JUMPI PUSH2 0x100 DUP1 DUP4 SLOAD DIV MUL DUP4 MSTORE SWAP2 PUSH1 0x20 ADD SWAP2 PUSH2 0x7A1 JUMP JUMPDEST DUP3 ADD SWAP2 SWAP1 PUSH1 0x0 MSTORE PUSH1 0x20 PUSH1 0x0 KECCAK256 SWAP1 JUMPDEST DUP2 SLOAD DUP2 MSTORE SWAP1 PUSH1 0x1 ADD SWAP1 PUSH1 0x20 ADD DUP1 DUP4 GT PUSH2 0x784 JUMPI DUP3 SWAP1 SUB PUSH1 0x1F AND DUP3 ADD SWAP2 JUMPDEST POP POP POP SWAP2 DUP4 MSTORE POP POP PUSH1 0x3 DUP3 ADD SLOAD PUSH1 0x1 PUSH1 0x1 PUSH1 0xA0 SHL SUB SWAP1 DUP2 AND PUSH1 0x20 DUP4 ADD MSTORE PUSH1 0x4 DUP4 ADD SLOAD PUSH1 0x40 DUP4 ADD MSTORE PUSH1 0x5 DUP4 ADD SLOAD PUSH1 0x60 DUP4 ADD MSTORE PUSH1 0x6 DUP4 ADD SLOAD PUSH1 0x80 DUP4 ADD MSTORE PUSH1 0x7 DUP4 ADD SLOAD PUSH1 0xFF SWAP1 DUP2 AND ISZERO ISZERO PUSH1 0xA0 DUP1 DUP6 ADD SWAP2 SWAP1 SWAP2 MSTORE PUSH1 0x8 DUP6 ADD SLOAD PUSH1 0xC0 DUP6 ADD MSTORE PUSH1 0x9 SWAP1 SWAP5 ADD SLOAD SWAP2 DUP3 AND PUSH1 0xE0 DUP5 ADD MSTORE PUSH1 0x1 PUSH1 0xA0 SHL SWAP1 SWAP2 DIV AND ISZERO ISZERO PUSH2 0x100 SWAP1 SWAP2 ADD MSTORE DUP2 ADD MLOAD SWAP1 SWAP2 POP PUSH1 0x0 SWAP1 PUSH1 0x18 SWAP1 PUSH1 0x3C SWAP1 DUP2 SWAP1 PUSH2 0x836 SWAP1 TIMESTAMP PUSH2 0x3B24 JUMP JUMPDEST PUSH2 0x840 SWAP2 SWAP1 PUSH2 0x3B3B JUMP JUMPDEST PUSH2 0x84A SWAP2 SWAP1 PUSH2 0x3B3B JUMP JUMPDEST PUSH2 0x854 SWAP2 SWAP1 PUSH2 0x3B3B JUMP JUMPDEST SWAP1 POP DUP2 PUSH1 0xC0 ADD MLOAD DUP2 GT PUSH2 0x8A0 JUMPI PUSH1 0x40 MLOAD PUSH3 0x461BCD PUSH1 0xE5 SHL DUP2 MSTORE PUSH1 0x20 PUSH1 0x4 DUP3 ADD MSTORE PUSH1 0x14 PUSH1 0x24 DUP3 ADD MSTORE PUSH20 0x546869732042616C6C6F74204578706972656421 PUSH1 0x60 SHL PUSH1 0x44 DUP3 ADD MSTORE PUSH1 0x64 ADD PUSH2 0x5C5 JUMP JUMPDEST PUSH1 0x1 SLOAD PUSH2 0x8E8 JUMPI PUSH1 0x40 MLOAD PUSH3 0x461BCD PUSH1 0xE5 SHL DUP2 MSTORE PUSH1 0x20 PUSH1 0x4 DUP3 ADD MSTORE PUSH1 0x16 PUSH1 0x24 DUP3 ADD MSTORE PUSH22 0x4E6F2062616C6C6F7473204F70656E65642059657421 PUSH1 0x50 SHL PUSH1 0x44 DUP3 ADD MSTORE PUSH1 0x64 ADD PUSH2 0x5C5 JUMP JUMPDEST CALLER PUSH1 0x0 SWAP1 DUP2 MSTORE PUSH1 0x17 PUSH1 0x20 MSTORE PUSH1 0x40 SWAP1 KECCAK256 PUSH1 0x2 ADD SLOAD DUP4 EQ PUSH2 0x957 JUMPI PUSH1 0x40 MLOAD PUSH3 0x461BCD PUSH1 0xE5 SHL DUP2 MSTORE PUSH1 0x20 PUSH1 0x4 DUP3 ADD MSTORE PUSH1 0x25 PUSH1 0x24 DUP3 ADD MSTORE PUSH32 0x566F74657220646F6573204E4F542062656C6F6E6720746F2074686973204261 PUSH1 0x44 DUP3 ADD MSTORE PUSH5 0x363637BA17 PUSH1 0xD9 SHL PUSH1 0x64 DUP3 ADD MSTORE PUSH1 0x84 ADD PUSH2 0x5C5 JUMP JUMPDEST PUSH1 0x1 DUP3 PUSH1 0x20 ADD MLOAD LT ISZERO PUSH2 0x9C0 JUMPI PUSH1 0x40 MLOAD PUSH3 0x461BCD PUSH1 0xE5 SHL DUP2 MSTORE PUSH1 0x20 PUSH1 0x4 DUP3 ADD MSTORE PUSH1 0x2B PUSH1 0x24 DUP3 ADD MSTORE PUSH32 0x54686973204F7074696F6E20697320506F737369626C6520696E206120436C6F PUSH1 0x44 DUP3 ADD MSTORE PUSH11 0x7365642042616C6C6F7421 PUSH1 0xA8 SHL PUSH1 0x64 DUP3 ADD MSTORE PUSH1 0x84 ADD PUSH2 0x5C5 JUMP JUMPDEST CALLER PUSH1 0x0 SWAP1 DUP2 MSTORE PUSH1 0x17 PUSH1 0x20 MSTORE PUSH1 0x40 SWAP1 KECCAK256 PUSH1 0x3 ADD SLOAD PUSH1 0xFF AND ISZERO ISZERO PUSH1 0x1 EQ PUSH2 0xA27 JUMPI PUSH1 0x40 MLOAD PUSH3 0x461BCD PUSH1 0xE5 SHL DUP2 MSTORE PUSH1 0x20 PUSH1 0x4 DUP3 ADD MSTORE PUSH1 0x1F PUSH1 0x24 DUP3 ADD MSTORE PUSH32 0x596F7520617265204E4F542061205265676973746572656420566F7465722100 PUSH1 0x44 DUP3 ADD MSTORE PUSH1 0x64 ADD PUSH2 0x5C5 JUMP JUMPDEST CALLER PUSH1 0x0 SWAP1 DUP2 MSTORE PUSH1 0x17 PUSH1 0x20 MSTORE PUSH1 0x40 SWAP1 KECCAK256 PUSH1 0x3 ADD SLOAD PUSH2 0x100 SWAP1 DIV PUSH1 0xFF AND ISZERO PUSH2 0xA9A JUMPI PUSH1 0x40 MLOAD PUSH3 0x461BCD PUSH1 0xE5 SHL DUP2 MSTORE PUSH1 0x20 PUSH1 0x4 DUP3 ADD MSTORE PUSH1 0x22 PUSH1 0x24 DUP3 ADD MSTORE PUSH32 0x4164647265737320616C72656164792068617320566F74696E67205269676874 PUSH1 0x44 DUP3 ADD MSTORE PUSH2 0x7321 PUSH1 0xF0 SHL PUSH1 0x64 DUP3 ADD MSTORE PUSH1 0x84 ADD PUSH2 0x5C5 JUMP JUMPDEST CALLER PUSH1 0x0 SWAP1 DUP2 MSTORE PUSH1 0x17 PUSH1 0x20 SWAP1 DUP2 MSTORE PUSH1 0x40 SWAP2 DUP3 SWAP1 KECCAK256 PUSH1 0x3 ADD DUP1 SLOAD PUSH2 0xFF00 NOT AND PUSH2 0x100 OR SWAP1 SSTORE SWAP1 MLOAD PUSH1 0x1 PUSH1 0x1 PUSH1 0xA0 SHL SUB DUP7 AND DUP2 MSTORE PUSH32 0x94055E6BCDFA83FA1F2CB2901FD22DB9E96F758348742A662B752BC32B765800 SWAP2 ADD PUSH1 0x40 MLOAD DUP1 SWAP2 SUB SWAP1 LOG1 POP POP POP POP JUMP JUMPDEST PUSH1 0x60 PUSH1 0x0 PUSH1 0x12 PUSH1 0x0 DUP5 DUP2 MSTORE PUSH1 0x20 ADD SWAP1 DUP2 MSTORE PUSH1 0x20 ADD PUSH1 0x0 KECCAK256 PUSH1 0x40 MLOAD DUP1 PUSH2 0x160 ADD PUSH1 0x40 MSTORE SWAP1 DUP2 PUSH1 0x0 DUP3 ADD SLOAD DUP2 MSTORE PUSH1 0x20 ADD PUSH1 0x1 DUP3 ADD SLOAD DUP2 MSTORE PUSH1 0x20 ADD PUSH1 0x2 DUP3 ADD DUP1 SLOAD PUSH2 0xB43 SWAP1 PUSH2 0x3A3D JUMP JUMPDEST DUP1 PUSH1 0x1F ADD PUSH1 0x20 DUP1 SWAP2 DIV MUL PUSH1 0x20 ADD PUSH1 0x40 MLOAD SWAP1 DUP2 ADD PUSH1 0x40 MSTORE DUP1 SWAP3 SWAP2 SWAP1 DUP2 DUP2 MSTORE PUSH1 0x20 ADD DUP3 DUP1 SLOAD PUSH2 0xB6F SWAP1 PUSH2 0x3A3D JUMP JUMPDEST DUP1 ISZERO PUSH2 0xBBC JUMPI DUP1 PUSH1 0x1F LT PUSH2 0xB91 JUMPI PUSH2 0x100 DUP1 DUP4 SLOAD DIV MUL DUP4 MSTORE SWAP2 PUSH1 0x20 ADD SWAP2 PUSH2 0xBBC JUMP JUMPDEST DUP3 ADD SWAP2 SWAP1 PUSH1 0x0 MSTORE PUSH1 0x20 PUSH1 0x0 KECCAK256 SWAP1 JUMPDEST DUP2 SLOAD DUP2 MSTORE SWAP1 PUSH1 0x1 ADD SWAP1 PUSH1 0x20 ADD DUP1 DUP4 GT PUSH2 0xB9F JUMPI DUP3 SWAP1 SUB PUSH1 0x1F AND DUP3 ADD SWAP2 JUMPDEST POP POP POP SWAP2 DUP4 MSTORE POP POP PUSH1 0x3 DUP3 DUP2 ADD SLOAD PUSH1 0x1 PUSH1 0x1 PUSH1 0xA0 SHL SUB SWAP1 DUP2 AND PUSH1 0x20 DUP1 DUP6 ADD SWAP2 SWAP1 SWAP2 MSTORE PUSH1 0x4 DUP6 ADD SLOAD PUSH1 0x40 DUP6 ADD MSTORE PUSH1 0x5 DUP6 ADD SLOAD PUSH1 0x60 DUP6 ADD MSTORE PUSH1 0x6 DUP6 ADD SLOAD PUSH1 0x80 DUP6 ADD MSTORE PUSH1 0x7 DUP6 ADD SLOAD PUSH1 0xFF SWAP1 DUP2 AND ISZERO ISZERO PUSH1 0xA0 DUP7 ADD MSTORE PUSH1 0x8 DUP7 ADD SLOAD PUSH1 0xC0 DUP7 ADD MSTORE PUSH1 0x9 SWAP1 SWAP6 ADD SLOAD SWAP2 DUP3 AND PUSH1 0xE0 DUP6 ADD MSTORE PUSH1 0x1 PUSH1 0xA0 SHL SWAP1 SWAP2 DIV SWAP1 SWAP4 AND ISZERO ISZERO PUSH2 0x100 SWAP1 SWAP3 ADD SWAP2 SWAP1 SWAP2 MSTORE SWAP1 DUP3 ADD MLOAD SWAP2 SWAP3 POP LT ISZERO PUSH2 0xC61 JUMPI PUSH1 0x40 MLOAD PUSH3 0x461BCD PUSH1 0xE5 SHL DUP2 MSTORE PUSH1 0x4 ADD PUSH2 0x5C5 SWAP1 PUSH2 0x3A78 JUMP JUMPDEST PUSH1 0x0 DUP4 DUP2 MSTORE PUSH1 0x13 PUSH1 0x20 SWAP1 DUP2 MSTORE PUSH1 0x40 SWAP2 DUP3 SWAP1 KECCAK256 DUP1 SLOAD DUP4 MLOAD DUP2 DUP5 MUL DUP2 ADD DUP5 ADD SWAP1 SWAP5 MSTORE DUP1 DUP5 MSTORE SWAP1 SWAP2 DUP4 ADD DUP3 DUP3 DUP1 ISZERO PUSH2 0xCBF JUMPI PUSH1 0x20 MUL DUP3 ADD SWAP2 SWAP1 PUSH1 0x0 MSTORE PUSH1 0x20 PUSH1 0x0 KECCAK256 SWAP1 JUMPDEST DUP2 SLOAD PUSH1 0x1 PUSH1 0x1 PUSH1 0xA0 SHL SUB AND DUP2 MSTORE PUSH1 0x1 SWAP1 SWAP2 ADD SWAP1 PUSH1 0x20 ADD DUP1 DUP4 GT PUSH2 0xCA1 JUMPI JUMPDEST POP POP POP POP POP SWAP2 POP POP SWAP2 SWAP1 POP JUMP JUMPDEST PUSH1 0x0 DUP1 PUSH1 0x1 PUSH2 0xCDC PUSH1 0x64 DUP6 PUSH2 0x3B24 JUMP JUMPDEST DUP2 SLOAD DUP2 LT PUSH2 0xCEC JUMPI PUSH2 0xCEC PUSH2 0x3AF8 JUMP JUMPDEST SWAP1 PUSH1 0x0 MSTORE PUSH1 0x20 PUSH1 0x0 KECCAK256 SWAP1 PUSH1 0xA MUL ADD SWAP1 POP PUSH1 0x0 PUSH1 0x18 PUSH1 0x3C DUP1 DUP5 PUSH1 0x5 ADD SLOAD TIMESTAMP PUSH2 0xD13 SWAP2 SWAP1 PUSH2 0x3B24 JUMP JUMPDEST PUSH2 0xD1D SWAP2 SWAP1 PUSH2 0x3B3B JUMP JUMPDEST PUSH2 0xD27 SWAP2 SWAP1 PUSH2 0x3B3B JUMP JUMPDEST PUSH2 0xD31 SWAP2 SWAP1 PUSH2 0x3B3B JUMP JUMPDEST SWAP1 POP DUP2 PUSH1 0x6 ADD SLOAD DUP2 LT PUSH2 0xD86 JUMPI PUSH1 0x40 MLOAD PUSH3 0x461BCD PUSH1 0xE5 SHL DUP2 MSTORE PUSH1 0x20 PUSH1 0x4 DUP3 ADD MSTORE PUSH1 0x1A PUSH1 0x24 DUP3 ADD MSTORE PUSH32 0x546869732042616C6C6F74206973207374696C6C204F70656E21000000000000 PUSH1 0x44 DUP3 ADD MSTORE PUSH1 0x64 ADD PUSH2 0x5C5 JUMP JUMPDEST PUSH1 0x7 DUP3 ADD SLOAD PUSH1 0xFF AND ISZERO ISZERO PUSH1 0x1 EQ PUSH2 0xDDF JUMPI PUSH1 0x40 MLOAD PUSH3 0x461BCD PUSH1 0xE5 SHL DUP2 MSTORE PUSH1 0x20 PUSH1 0x4 DUP3 ADD MSTORE PUSH1 0x1A PUSH1 0x24 DUP3 ADD MSTORE PUSH32 0x546869732042616C6C6F74206973207374696C6C204F70656E21000000000000 PUSH1 0x44 DUP3 ADD MSTORE PUSH1 0x64 ADD PUSH2 0x5C5 JUMP JUMPDEST PUSH1 0x5 SLOAD DUP5 GT ISZERO PUSH2 0xE3D JUMPI PUSH1 0x40 MLOAD PUSH3 0x461BCD PUSH1 0xE5 SHL DUP2 MSTORE PUSH1 0x20 PUSH1 0x4 DUP3 ADD MSTORE PUSH1 0x23 PUSH1 0x24 DUP3 ADD MSTORE PUSH32 0x42616C6C6F742077697468207468617420496420646F6573204E4F5420657869 PUSH1 0x44 DUP3 ADD MSTORE PUSH3 0x737421 PUSH1 0xE8 SHL PUSH1 0x64 DUP3 ADD MSTORE PUSH1 0x84 ADD PUSH2 0x5C5 JUMP JUMPDEST PUSH1 0x9 DUP3 ADD SLOAD PUSH1 0x1 PUSH1 0xA0 SHL SWAP1 DIV PUSH1 0xFF AND ISZERO ISZERO PUSH1 0x1 EQ ISZERO PUSH2 0xE9F JUMPI PUSH1 0x9 DUP3 ADD SLOAD PUSH1 0x40 MLOAD PUSH1 0x1 PUSH1 0xA0 SHL SWAP1 SWAP2 DIV PUSH1 0xFF AND ISZERO ISZERO DUP2 MSTORE PUSH32 0xAF9C5487A5254285C7E0CB270C5884FB3C73E8BF058E80FC0CF380DC6908FAC6 SWAP1 PUSH1 0x20 ADD PUSH1 0x40 MLOAD DUP1 SWAP2 SUB SWAP1 LOG1 PUSH2 0xEB3 JUMP JUMPDEST POP PUSH1 0x9 ADD SLOAD PUSH1 0x1 PUSH1 0x1 PUSH1 0xA0 SHL SUB AND SWAP3 SWAP2 POP POP JUMP JUMPDEST POP POP SWAP2 SWAP1 POP JUMP JUMPDEST PUSH1 0xD SLOAD PUSH1 0x1 PUSH1 0x1 PUSH1 0xA0 SHL SUB AND CALLER EQ PUSH2 0xED1 JUMPI PUSH1 0x0 DUP1 REVERT JUMPDEST PUSH1 0xD SLOAD PUSH1 0x40 MLOAD PUSH1 0x1 PUSH1 0x1 PUSH1 0xA0 SHL SUB SWAP1 SWAP2 AND SWAP1 SELFBALANCE DUP1 ISZERO PUSH2 0x8FC MUL SWAP2 PUSH1 0x0 DUP2 DUP2 DUP2 DUP6 DUP9 DUP9 CALL SWAP4 POP POP POP POP ISZERO DUP1 ISZERO PUSH2 0xF0A JUMPI RETURNDATASIZE PUSH1 0x0 DUP1 RETURNDATACOPY RETURNDATASIZE PUSH1 0x0 REVERT JUMPDEST POP PUSH1 0x0 PUSH2 0xF16 DUP3 PUSH2 0x196A JUMP JUMPDEST PUSH1 0x0 PUSH1 0x60 SWAP1 SWAP2 ADD MSTORE POP POP JUMP JUMPDEST PUSH1 0xC DUP1 SLOAD PUSH2 0xF2F SWAP1 PUSH2 0x3A3D JUMP JUMPDEST DUP1 PUSH1 0x1F ADD PUSH1 0x20 DUP1 SWAP2 DIV MUL PUSH1 0x20 ADD PUSH1 0x40 MLOAD SWAP1 DUP2 ADD PUSH1 0x40 MSTORE DUP1 SWAP3 SWAP2 SWAP1 DUP2 DUP2 MSTORE PUSH1 0x20 ADD DUP3 DUP1 SLOAD PUSH2 0xF5B SWAP1 PUSH2 0x3A3D JUMP JUMPDEST DUP1 ISZERO PUSH2 0xFA8 JUMPI DUP1 PUSH1 0x1F LT PUSH2 0xF7D JUMPI PUSH2 0x100 DUP1 DUP4 SLOAD DIV MUL DUP4 MSTORE SWAP2 PUSH1 0x20 ADD SWAP2 PUSH2 0xFA8 JUMP JUMPDEST DUP3 ADD SWAP2 SWAP1 PUSH1 0x0 MSTORE PUSH1 0x20 PUSH1 0x0 KECCAK256 SWAP1 JUMPDEST DUP2 SLOAD DUP2 MSTORE SWAP1 PUSH1 0x1 ADD SWAP1 PUSH1 0x20 ADD DUP1 DUP4 GT PUSH2 0xF8B JUMPI DUP3 SWAP1 SUB PUSH1 0x1F AND DUP3 ADD SWAP2 JUMPDEST POP POP POP POP POP DUP2 JUMP JUMPDEST PUSH1 0x0 PUSH2 0xFBD PUSH1 0x64 DUP4 PUSH2 0x3B24 JUMP JUMPDEST SWAP1 POP PUSH1 0xA SLOAD DUP2 LT PUSH2 0xFE0 JUMPI PUSH1 0x40 MLOAD PUSH3 0x461BCD PUSH1 0xE5 SHL DUP2 MSTORE PUSH1 0x4 ADD PUSH2 0x5C5 SWAP1 PUSH2 0x3B5D JUMP JUMPDEST PUSH1 0x0 PUSH1 0x1 DUP3 DUP2 SLOAD DUP2 LT PUSH2 0xFF5 JUMPI PUSH2 0xFF5 PUSH2 0x3AF8 JUMP JUMPDEST SWAP1 PUSH1 0x0 MSTORE PUSH1 0x20 PUSH1 0x0 KECCAK256 SWAP1 PUSH1 0xA MUL ADD PUSH1 0x40 MLOAD DUP1 PUSH2 0x160 ADD PUSH1 0x40 MSTORE SWAP1 DUP2 PUSH1 0x0 DUP3 ADD SLOAD DUP2 MSTORE PUSH1 0x20 ADD PUSH1 0x1 DUP3 ADD SLOAD DUP2 MSTORE PUSH1 0x20 ADD PUSH1 0x2 DUP3 ADD DUP1 SLOAD PUSH2 0x1033 SWAP1 PUSH2 0x3A3D JUMP JUMPDEST DUP1 PUSH1 0x1F ADD PUSH1 0x20 DUP1 SWAP2 DIV MUL PUSH1 0x20 ADD PUSH1 0x40 MLOAD SWAP1 DUP2 ADD PUSH1 0x40 MSTORE DUP1 SWAP3 SWAP2 SWAP1 DUP2 DUP2 MSTORE PUSH1 0x20 ADD DUP3 DUP1 SLOAD PUSH2 0x105F SWAP1 PUSH2 0x3A3D JUMP JUMPDEST DUP1 ISZERO PUSH2 0x10AC JUMPI DUP1 PUSH1 0x1F LT PUSH2 0x1081 JUMPI PUSH2 0x100 DUP1 DUP4 SLOAD DIV MUL DUP4 MSTORE SWAP2 PUSH1 0x20 ADD SWAP2 PUSH2 0x10AC JUMP JUMPDEST DUP3 ADD SWAP2 SWAP1 PUSH1 0x0 MSTORE PUSH1 0x20 PUSH1 0x0 KECCAK256 SWAP1 JUMPDEST DUP2 SLOAD DUP2 MSTORE SWAP1 PUSH1 0x1 ADD SWAP1 PUSH1 0x20 ADD DUP1 DUP4 GT PUSH2 0x108F JUMPI DUP3 SWAP1 SUB PUSH1 0x1F AND DUP3 ADD SWAP2 JUMPDEST POP POP POP SWAP2 DUP4 MSTORE POP POP PUSH1 0x3 DUP3 ADD SLOAD PUSH1 0x1 PUSH1 0x1 PUSH1 0xA0 SHL SUB SWAP1 DUP2 AND PUSH1 0x20 DUP1 DUP5 ADD SWAP2 SWAP1 SWAP2 MSTORE PUSH1 0x4 DUP5 ADD SLOAD PUSH1 0x40 DUP5 ADD MSTORE PUSH1 0x5 DUP5 ADD SLOAD PUSH1 0x60 DUP5 ADD MSTORE PUSH1 0x6 DUP5 ADD SLOAD PUSH1 0x80 DUP5 ADD MSTORE PUSH1 0x7 DUP5 ADD SLOAD PUSH1 0xFF SWAP1 DUP2 AND ISZERO ISZERO PUSH1 0xA0 DUP6 ADD MSTORE PUSH1 0x8 DUP6 ADD SLOAD PUSH1 0xC0 DUP6 ADD MSTORE PUSH1 0x9 SWAP1 SWAP5 ADD SLOAD SWAP2 DUP3 AND PUSH1 0xE0 DUP5 ADD MSTORE PUSH1 0x1 PUSH1 0xA0 SHL SWAP1 SWAP2 DIV SWAP1 SWAP3 AND ISZERO ISZERO PUSH2 0x100 SWAP1 SWAP2 ADD MSTORE DUP2 ADD MLOAD SWAP1 SWAP2 POP PUSH2 0x1142 JUMPI PUSH2 0x113C DUP5 DUP5 PUSH2 0x25E1 JUMP JUMPDEST POP PUSH2 0x1189 JUMP JUMPDEST DUP1 PUSH1 0x20 ADD MLOAD PUSH1 0x1 EQ ISZERO PUSH2 0x1159 JUMPI PUSH2 0x113C DUP5 DUP5 PUSH2 0x2AE1 JUMP JUMPDEST DUP1 PUSH1 0x20 ADD MLOAD PUSH1 0x2 EQ ISZERO PUSH2 0x1170 JUMPI PUSH2 0x113C DUP5 DUP5 PUSH2 0x2B19 JUMP JUMPDEST DUP1 PUSH1 0x20 ADD MLOAD PUSH1 0x3 EQ ISZERO PUSH2 0x1189 JUMPI PUSH2 0x1187 DUP5 DUP5 PUSH2 0x2B4B JUMP JUMPDEST POP JUMPDEST POP POP POP POP JUMP JUMPDEST PUSH1 0xE SLOAD PUSH1 0x1 PUSH1 0x1 PUSH1 0xA0 SHL SUB AND CALLER EQ PUSH2 0x11E9 JUMPI PUSH1 0x40 MLOAD PUSH3 0x461BCD PUSH1 0xE5 SHL DUP2 MSTORE PUSH1 0x20 PUSH1 0x4 DUP3 ADD MSTORE PUSH1 0x1A PUSH1 0x24 DUP3 ADD MSTORE PUSH32 0x596F7520646F6E2774204F574E20746869732042616C6C6F7421000000000000 PUSH1 0x44 DUP3 ADD MSTORE PUSH1 0x64 ADD PUSH2 0x5C5 JUMP JUMPDEST PUSH1 0x0 PUSH1 0x1 PUSH2 0x11F8 PUSH1 0x64 DUP5 PUSH2 0x3B24 JUMP JUMPDEST DUP2 SLOAD DUP2 LT PUSH2 0x1208 JUMPI PUSH2 0x1208 PUSH2 0x3AF8 JUMP JUMPDEST SWAP1 PUSH1 0x0 MSTORE PUSH1 0x20 PUSH1 0x0 KECCAK256 SWAP1 PUSH1 0xA MUL ADD SWAP1 POP PUSH1 0x0 PUSH1 0x18 PUSH1 0x3C DUP1 DUP5 PUSH1 0x5 ADD SLOAD TIMESTAMP PUSH2 0x122F SWAP2 SWAP1 PUSH2 0x3B24 JUMP JUMPDEST PUSH2 0x1239 SWAP2 SWAP1 PUSH2 0x3B3B JUMP JUMPDEST PUSH2 0x1243 SWAP2 SWAP1 PUSH2 0x3B3B JUMP JUMPDEST PUSH2 0x124D SWAP2 SWAP1 PUSH2 0x3B3B JUMP JUMPDEST SWAP1 POP DUP2 PUSH1 0x6 ADD SLOAD DUP2 LT PUSH2 0x12A2 JUMPI PUSH1 0x40 MLOAD PUSH3 0x461BCD PUSH1 0xE5 SHL DUP2 MSTORE PUSH1 0x20 PUSH1 0x4 DUP3 ADD MSTORE PUSH1 0x1F PUSH1 0x24 DUP3 ADD MSTORE PUSH32 0x546869732042616C6C6F74206973204E4F542079657420457870697265642100 PUSH1 0x44 DUP3 ADD MSTORE PUSH1 0x64 ADD PUSH2 0x5C5 JUMP JUMPDEST PUSH1 0xE SLOAD PUSH1 0x40 MLOAD PUSH1 0x1 PUSH1 0x1 PUSH1 0xA0 SHL SUB SWAP1 SWAP2 AND SWAP1 SELFBALANCE DUP1 ISZERO PUSH2 0x8FC MUL SWAP2 PUSH1 0x0 DUP2 DUP2 DUP2 DUP6 DUP9 DUP9 CALL SWAP4 POP POP POP POP ISZERO DUP1 ISZERO PUSH2 0x12DB JUMPI RETURNDATASIZE PUSH1 0x0 DUP1 RETURNDATACOPY RETURNDATASIZE PUSH1 0x0 REVERT JUMPDEST POP POP PUSH1 0x7 SWAP1 DUP2 ADD DUP1 SLOAD PUSH1 0x1 PUSH1 0xFF NOT SWAP2 DUP3 AND DUP2 OR SWAP1 SWAP3 SSTORE CALLER PUSH1 0x0 SWAP1 DUP2 MSTORE PUSH1 0x11 PUSH1 0x20 SWAP1 DUP2 MSTORE PUSH1 0x40 DUP1 DUP4 KECCAK256 DUP7 ADD DUP1 SLOAD DUP6 AND DUP7 OR SWAP1 SSTORE SWAP6 DUP3 MSTORE PUSH1 0x12 SWAP1 MSTORE SWAP4 SWAP1 SWAP4 KECCAK256 SWAP1 SWAP2 ADD DUP1 SLOAD SWAP1 SWAP3 AND OR SWAP1 SSTORE JUMP JUMPDEST PUSH1 0x0 PUSH2 0x1332 PUSH1 0x64 DUP4 PUSH2 0x3B24 JUMP JUMPDEST SWAP1 POP PUSH1 0xA SLOAD DUP2 LT PUSH2 0x1355 JUMPI PUSH1 0x40 MLOAD PUSH3 0x461BCD PUSH1 0xE5 SHL DUP2 MSTORE PUSH1 0x4 ADD PUSH2 0x5C5 SWAP1 PUSH2 0x3B5D JUMP JUMPDEST PUSH1 0x0 PUSH1 0x1 DUP3 DUP2 SLOAD DUP2 LT PUSH2 0x136A JUMPI PUSH2 0x136A PUSH2 0x3AF8 JUMP JUMPDEST SWAP1 PUSH1 0x0 MSTORE PUSH1 0x20 PUSH1 0x0 KECCAK256 SWAP1 PUSH1 0xA MUL ADD PUSH1 0x40 MLOAD DUP1 PUSH2 0x160 ADD PUSH1 0x40 MSTORE SWAP1 DUP2 PUSH1 0x0 DUP3 ADD SLOAD DUP2 MSTORE PUSH1 0x20 ADD PUSH1 0x1 DUP3 ADD SLOAD DUP2 MSTORE PUSH1 0x20 ADD PUSH1 0x2 DUP3 ADD DUP1 SLOAD PUSH2 0x13A8 SWAP1 PUSH2 0x3A3D JUMP JUMPDEST DUP1 PUSH1 0x1F ADD PUSH1 0x20 DUP1 SWAP2 DIV MUL PUSH1 0x20 ADD PUSH1 0x40 MLOAD SWAP1 DUP2 ADD PUSH1 0x40 MSTORE DUP1 SWAP3 SWAP2 SWAP1 DUP2 DUP2 MSTORE PUSH1 0x20 ADD DUP3 DUP1 SLOAD PUSH2 0x13D4 SWAP1 PUSH2 0x3A3D JUMP JUMPDEST DUP1 ISZERO PUSH2 0x1421 JUMPI DUP1 PUSH1 0x1F LT PUSH2 0x13F6 JUMPI PUSH2 0x100 DUP1 DUP4 SLOAD DIV MUL DUP4 MSTORE SWAP2 PUSH1 0x20 ADD SWAP2 PUSH2 0x1421 JUMP JUMPDEST DUP3 ADD SWAP2 SWAP1 PUSH1 0x0 MSTORE PUSH1 0x20 PUSH1 0x0 KECCAK256 SWAP1 JUMPDEST DUP2 SLOAD DUP2 MSTORE SWAP1 PUSH1 0x1 ADD SWAP1 PUSH1 0x20 ADD DUP1 DUP4 GT PUSH2 0x1404 JUMPI DUP3 SWAP1 SUB PUSH1 0x1F AND DUP3 ADD SWAP2 JUMPDEST POP POP POP SWAP2 DUP4 MSTORE POP POP PUSH1 0x3 DUP3 ADD SLOAD PUSH1 0x1 PUSH1 0x1 PUSH1 0xA0 SHL SUB SWAP1 DUP2 AND PUSH1 0x20 DUP1 DUP5 ADD SWAP2 SWAP1 SWAP2 MSTORE PUSH1 0x4 DUP5 ADD SLOAD PUSH1 0x40 DUP5 ADD MSTORE PUSH1 0x5 DUP5 ADD SLOAD PUSH1 0x60 DUP5 ADD MSTORE PUSH1 0x6 DUP5 ADD SLOAD PUSH1 0x80 DUP5 ADD MSTORE PUSH1 0x7 DUP5 ADD SLOAD PUSH1 0xFF SWAP1 DUP2 AND ISZERO ISZERO PUSH1 0xA0 DUP6 ADD MSTORE PUSH1 0x8 DUP6 ADD SLOAD PUSH1 0xC0 DUP6 ADD MSTORE PUSH1 0x9 SWAP1 SWAP5 ADD SLOAD SWAP2 DUP3 AND PUSH1 0xE0 DUP5 ADD MSTORE PUSH1 0x1 PUSH1 0xA0 SHL SWAP1 SWAP2 DIV SWAP1 SWAP3 AND ISZERO ISZERO PUSH2 0x100 SWAP1 SWAP2 ADD MSTORE DUP2 ADD MLOAD SWAP1 SWAP2 POP PUSH2 0x14B6 JUMPI PUSH2 0x14B1 DUP5 DUP5 PUSH2 0x2B7D JUMP JUMPDEST PUSH2 0x1189 JUMP JUMPDEST DUP1 PUSH1 0x20 ADD MLOAD PUSH1 0x1 EQ ISZERO PUSH2 0x14CD JUMPI PUSH2 0x14B1 DUP5 DUP5 PUSH2 0x2F44 JUMP JUMPDEST DUP1 PUSH1 0x20 ADD MLOAD PUSH1 0x2 EQ ISZERO PUSH2 0x14E4 JUMPI PUSH2 0x14B1 DUP5 DUP5 PUSH2 0x30A8 JUMP JUMPDEST DUP1 PUSH1 0x20 ADD MLOAD PUSH1 0x3 EQ ISZERO PUSH2 0x1189 JUMPI PUSH2 0x1189 DUP5 DUP5 PUSH2 0x32F0 JUMP JUMPDEST PUSH2 0x156E PUSH1 0x40 MLOAD DUP1 PUSH2 0x160 ADD PUSH1 0x40 MSTORE DUP1 PUSH1 0x0 DUP2 MSTORE PUSH1 0x20 ADD PUSH1 0x0 DUP2 MSTORE PUSH1 0x20 ADD PUSH1 0x60 DUP2 MSTORE PUSH1 0x20 ADD PUSH1 0x0 PUSH1 0x1 PUSH1 0x1 PUSH1 0xA0 SHL SUB AND DUP2 MSTORE PUSH1 0x20 ADD PUSH1 0x0 DUP2 MSTORE PUSH1 0x20 ADD PUSH1 0x0 DUP2 MSTORE PUSH1 0x20 ADD PUSH1 0x0 DUP2 MSTORE PUSH1 0x20 ADD PUSH1 0x0 ISZERO ISZERO DUP2 MSTORE PUSH1 0x20 ADD PUSH1 0x0 DUP2 MSTORE PUSH1 0x20 ADD PUSH1 0x0 PUSH1 0x1 PUSH1 0x1 PUSH1 0xA0 SHL SUB AND DUP2 MSTORE PUSH1 0x20 ADD PUSH1 0x0 ISZERO ISZERO DUP2 MSTORE POP SWAP1 JUMP JUMPDEST PUSH1 0x0 PUSH1 0x12 PUSH1 0x0 DUP5 DUP2 MSTORE PUSH1 0x20 ADD SWAP1 DUP2 MSTORE PUSH1 0x20 ADD PUSH1 0x0 KECCAK256 PUSH1 0x40 MLOAD DUP1 PUSH2 0x160 ADD PUSH1 0x40 MSTORE SWAP1 DUP2 PUSH1 0x0 DUP3 ADD SLOAD DUP2 MSTORE PUSH1 0x20 ADD PUSH1 0x1 DUP3 ADD SLOAD DUP2 MSTORE PUSH1 0x20 ADD PUSH1 0x2 DUP3 ADD DUP1 SLOAD PUSH2 0x15B3 SWAP1 PUSH2 0x3A3D JUMP JUMPDEST DUP1 PUSH1 0x1F ADD PUSH1 0x20 DUP1 SWAP2 DIV MUL PUSH1 0x20 ADD PUSH1 0x40 MLOAD SWAP1 DUP2 ADD PUSH1 0x40 MSTORE DUP1 SWAP3 SWAP2 SWAP1 DUP2 DUP2 MSTORE PUSH1 0x20 ADD DUP3 DUP1 SLOAD PUSH2 0x15DF SWAP1 PUSH2 0x3A3D JUMP JUMPDEST DUP1 ISZERO PUSH2 0x162C JUMPI DUP1 PUSH1 0x1F LT PUSH2 0x1601 JUMPI PUSH2 0x100 DUP1 DUP4 SLOAD DIV MUL DUP4 MSTORE SWAP2 PUSH1 0x20 ADD SWAP2 PUSH2 0x162C JUMP JUMPDEST DUP3 ADD SWAP2 SWAP1 PUSH1 0x0 MSTORE PUSH1 0x20 PUSH1 0x0 KECCAK256 SWAP1 JUMPDEST DUP2 SLOAD DUP2 MSTORE SWAP1 PUSH1 0x1 ADD SWAP1 PUSH1 0x20 ADD DUP1 DUP4 GT PUSH2 0x160F JUMPI DUP3 SWAP1 SUB PUSH1 0x1F AND DUP3 ADD SWAP2 JUMPDEST POP POP POP SWAP2 DUP4 MSTORE POP POP PUSH1 0x3 DUP3 DUP2 ADD SLOAD PUSH1 0x1 PUSH1 0x1 PUSH1 0xA0 SHL SUB SWAP1 DUP2 AND PUSH1 0x20 DUP1 DUP6 ADD SWAP2 SWAP1 SWAP2 MSTORE PUSH1 0x4 DUP6 ADD SLOAD PUSH1 0x40 DUP6 ADD MSTORE PUSH1 0x5 DUP6 ADD SLOAD PUSH1 0x60 DUP6 ADD MSTORE PUSH1 0x6 DUP6 ADD SLOAD PUSH1 0x80 DUP6 ADD MSTORE PUSH1 0x7 DUP6 ADD SLOAD PUSH1 0xFF SWAP1 DUP2 AND ISZERO ISZERO PUSH1 0xA0 DUP7 ADD MSTORE PUSH1 0x8 DUP7 ADD SLOAD PUSH1 0xC0 DUP7 ADD MSTORE PUSH1 0x9 SWAP1 SWAP6 ADD SLOAD SWAP2 DUP3 AND PUSH1 0xE0 DUP6 ADD MSTORE PUSH1 0x1 PUSH1 0xA0 SHL SWAP1 SWAP2 DIV SWAP1 SWAP4 AND ISZERO ISZERO PUSH2 0x100 SWAP1 SWAP3 ADD SWAP2 SWAP1 SWAP2 MSTORE SWAP1 DUP3 ADD MLOAD SWAP2 SWAP3 POP LT ISZERO PUSH2 0x16D1 JUMPI PUSH1 0x40 MLOAD PUSH3 0x461BCD PUSH1 0xE5 SHL DUP2 MSTORE PUSH1 0x4 ADD PUSH2 0x5C5 SWAP1 PUSH2 0x3A78 JUMP JUMPDEST PUSH1 0x12 PUSH1 0x0 DUP5 DUP2 MSTORE PUSH1 0x20 ADD SWAP1 DUP2 MSTORE PUSH1 0x20 ADD PUSH1 0x0 KECCAK256 PUSH1 0x40 MLOAD DUP1 PUSH2 0x160 ADD PUSH1 0x40 MSTORE SWAP1 DUP2 PUSH1 0x0 DUP3 ADD SLOAD DUP2 MSTORE PUSH1 0x20 ADD PUSH1 0x1 DUP3 ADD SLOAD DUP2 MSTORE PUSH1 0x20 ADD PUSH1 0x2 DUP3 ADD DUP1 SLOAD PUSH2 0x1714 SWAP1 PUSH2 0x3A3D JUMP JUMPDEST DUP1 PUSH1 0x1F ADD PUSH1 0x20 DUP1 SWAP2 DIV MUL PUSH1 0x20 ADD PUSH1 0x40 MLOAD SWAP1 DUP2 ADD PUSH1 0x40 MSTORE DUP1 SWAP3 SWAP2 SWAP1 DUP2 DUP2 MSTORE PUSH1 0x20 ADD DUP3 DUP1 SLOAD PUSH2 0x1740 SWAP1 PUSH2 0x3A3D JUMP JUMPDEST DUP1 ISZERO PUSH2 0x178D JUMPI DUP1 PUSH1 0x1F LT PUSH2 0x1762 JUMPI PUSH2 0x100 DUP1 DUP4 SLOAD DIV MUL DUP4 MSTORE SWAP2 PUSH1 0x20 ADD SWAP2 PUSH2 0x178D JUMP JUMPDEST DUP3 ADD SWAP2 SWAP1 PUSH1 0x0 MSTORE PUSH1 0x20 PUSH1 0x0 KECCAK256 SWAP1 JUMPDEST DUP2 SLOAD DUP2 MSTORE SWAP1 PUSH1 0x1 ADD SWAP1 PUSH1 0x20 ADD DUP1 DUP4 GT PUSH2 0x1770 JUMPI DUP3 SWAP1 SUB PUSH1 0x1F AND DUP3 ADD SWAP2 JUMPDEST POP POP POP SWAP2 DUP4 MSTORE POP POP PUSH1 0x3 DUP3 ADD SLOAD PUSH1 0x1 PUSH1 0x1 PUSH1 0xA0 SHL SUB SWAP1 DUP2 AND PUSH1 0x20 DUP4 ADD MSTORE PUSH1 0x4 DUP4 ADD SLOAD PUSH1 0x40 DUP4 ADD MSTORE PUSH1 0x5 DUP4 ADD SLOAD PUSH1 0x60 DUP4 ADD MSTORE PUSH1 0x6 DUP4 ADD SLOAD PUSH1 0x80 DUP4 ADD MSTORE PUSH1 0x7 DUP4 ADD SLOAD PUSH1 0xFF SWAP1 DUP2 AND ISZERO ISZERO PUSH1 0xA0 DUP5 ADD MSTORE PUSH1 0x8 DUP5 ADD SLOAD PUSH1 0xC0 DUP5 ADD MSTORE PUSH1 0x9 SWAP1 SWAP4 ADD SLOAD SWAP1 DUP2 AND PUSH1 0xE0 DUP4 ADD MSTORE PUSH1 0x1 PUSH1 0xA0 SHL SWAP1 DIV SWAP1 SWAP2 AND ISZERO ISZERO PUSH2 0x100 SWAP1 SWAP2 ADD MSTORE SWAP4 SWAP3 POP POP POP JUMP JUMPDEST PUSH1 0xD SLOAD PUSH1 0x1 PUSH1 0x1 PUSH1 0xA0 SHL SUB AND CALLER EQ PUSH2 0x1822 JUMPI PUSH1 0x0 DUP1 REVERT JUMPDEST DUP1 ISZERO PUSH2 0x1865 JUMPI PUSH1 0xD SLOAD PUSH1 0x40 MLOAD PUSH1 0x1 PUSH1 0x1 PUSH1 0xA0 SHL SUB SWAP1 SWAP2 AND SWAP1 SELFBALANCE DUP1 ISZERO PUSH2 0x8FC MUL SWAP2 PUSH1 0x0 DUP2 DUP2 DUP2 DUP6 DUP9 DUP9 CALL SWAP4 POP POP POP POP ISZERO DUP1 ISZERO PUSH2 0x1861 JUMPI RETURNDATASIZE PUSH1 0x0 DUP1 RETURNDATACOPY RETURNDATASIZE PUSH1 0x0 REVERT JUMPDEST POP POP JUMP JUMPDEST PUSH1 0xD SLOAD PUSH1 0x40 MLOAD PUSH1 0x1 PUSH1 0x1 PUSH1 0xA0 SHL SUB SWAP1 SWAP2 AND SWAP1 SELFBALANCE DUP1 ISZERO PUSH2 0x8FC MUL SWAP2 PUSH1 0x0 DUP2 DUP2 DUP2 DUP6 DUP9 DUP9 CALL SWAP4 POP POP POP POP ISZERO DUP1 ISZERO PUSH2 0x1861 JUMPI RETURNDATASIZE PUSH1 0x0 DUP1 RETURNDATACOPY RETURNDATASIZE PUSH1 0x0 REVERT JUMPDEST PUSH1 0xD SLOAD PUSH1 0x1 PUSH1 0x1 PUSH1 0xA0 SHL SUB AND CALLER EQ PUSH2 0x18F8 JUMPI PUSH1 0x40 MLOAD PUSH3 0x461BCD PUSH1 0xE5 SHL DUP2 MSTORE PUSH1 0x20 PUSH1 0x4 DUP3 ADD MSTORE PUSH1 0x1D PUSH1 0x24 DUP3 ADD MSTORE PUSH32 0x5468697320416374696F6E206973204E4F54207065726D697474656421000000 PUSH1 0x44 DUP3 ADD MSTORE PUSH1 0x64 ADD PUSH2 0x5C5 JUMP JUMPDEST PUSH1 0x9 SLOAD DUP3 GT PUSH2 0x193F JUMPI PUSH1 0x40 MLOAD PUSH3 0x461BCD PUSH1 0xE5 SHL DUP2 MSTORE PUSH1 0x20 PUSH1 0x4 DUP3 ADD MSTORE PUSH1 0x13 PUSH1 0x24 DUP3 ADD MSTORE PUSH19 0x496E76616C6964205479706520496E64657821 PUSH1 0x68 SHL PUSH1 0x44 DUP3 ADD MSTORE PUSH1 0x64 ADD PUSH2 0x5C5 JUMP JUMPDEST PUSH1 0x8 PUSH1 0x9 SLOAD PUSH1 0x1 PUSH2 0x1950 SWAP2 SWAP1 PUSH2 0x3B8D JUMP JUMPDEST DUP2 SLOAD PUSH1 0x1 DUP2 ADD DUP4 SSTORE PUSH1 0x0 SWAP3 DUP4 MSTORE PUSH1 0x20 SWAP1 SWAP3 KECCAK256 SWAP1 SWAP2 ADD SSTORE POP POP JUMP JUMPDEST PUSH2 0x19A0 PUSH1 0x40 MLOAD DUP1 PUSH1 0x80 ADD PUSH1 0x40 MSTORE DUP1 PUSH1 0x0 DUP2 MSTORE PUSH1 0x20 ADD PUSH1 0x0 PUSH1 0x1 PUSH1 0x1 PUSH1 0xA0 SHL SUB AND DUP2 MSTORE PUSH1 0x20 ADD PUSH1 0x60 DUP2 MSTORE PUSH1 0x20 ADD PUSH1 0x0 ISZERO ISZERO DUP2 MSTORE POP SWAP1 JUMP JUMPDEST PUSH1 0xE SLOAD PUSH1 0x1 PUSH1 0x1 PUSH1 0xA0 SHL SUB AND CALLER EQ DUP1 PUSH2 0x19C3 JUMPI POP PUSH1 0xF SLOAD PUSH1 0x1 PUSH1 0x1 PUSH1 0xA0 SHL SUB AND CALLER EQ JUMPDEST PUSH2 0x19DF JUMPI PUSH1 0x40 MLOAD PUSH3 0x461BCD PUSH1 0xE5 SHL DUP2 MSTORE PUSH1 0x4 ADD PUSH2 0x5C5 SWAP1 PUSH2 0x3AAF JUMP JUMPDEST PUSH1 0x1 SLOAD DUP3 GT ISZERO PUSH2 0x1A28 JUMPI PUSH1 0x40 MLOAD PUSH3 0x461BCD PUSH1 0xE5 SHL DUP2 MSTORE PUSH1 0x20 PUSH1 0x4 DUP3 ADD MSTORE PUSH1 0x14 PUSH1 0x24 DUP3 ADD MSTORE PUSH20 0x496E76616C696420656C656374696F6E20496421 PUSH1 0x60 SHL PUSH1 0x44 DUP3 ADD MSTORE PUSH1 0x64 ADD PUSH2 0x5C5 JUMP JUMPDEST PUSH1 0x0 DUP3 DUP2 SLOAD DUP2 LT PUSH2 0x1A3B JUMPI PUSH2 0x1A3B PUSH2 0x3AF8 JUMP JUMPDEST SWAP1 PUSH1 0x0 MSTORE PUSH1 0x20 PUSH1 0x0 KECCAK256 SWAP1 PUSH1 0x4 MUL ADD PUSH1 0x40 MLOAD DUP1 PUSH1 0x80 ADD PUSH1 0x40 MSTORE SWAP1 DUP2 PUSH1 0x0 DUP3 ADD SLOAD DUP2 MSTORE PUSH1 0x20 ADD PUSH1 0x1 DUP3 ADD PUSH1 0x0 SWAP1 SLOAD SWAP1 PUSH2 0x100 EXP SWAP1 DIV PUSH1 0x1 PUSH1 0x1 PUSH1 0xA0 SHL SUB AND PUSH1 0x1 PUSH1 0x1 PUSH1 0xA0 SHL SUB AND PUSH1 0x1 PUSH1 0x1 PUSH1 0xA0 SHL SUB AND DUP2 MSTORE PUSH1 0x20 ADD PUSH1 0x2 DUP3 ADD DUP1 SLOAD PUSH2 0x1A9D SWAP1 PUSH2 0x3A3D JUMP JUMPDEST DUP1 PUSH1 0x1F ADD PUSH1 0x20 DUP1 SWAP2 DIV MUL PUSH1 0x20 ADD PUSH1 0x40 MLOAD SWAP1 DUP2 ADD PUSH1 0x40 MSTORE DUP1 SWAP3 SWAP2 SWAP1 DUP2 DUP2 MSTORE PUSH1 0x20 ADD DUP3 DUP1 SLOAD PUSH2 0x1AC9 SWAP1 PUSH2 0x3A3D JUMP JUMPDEST DUP1 ISZERO PUSH2 0x1B16 JUMPI DUP1 PUSH1 0x1F LT PUSH2 0x1AEB JUMPI PUSH2 0x100 DUP1 DUP4 SLOAD DIV MUL DUP4 MSTORE SWAP2 PUSH1 0x20 ADD SWAP2 PUSH2 0x1B16 JUMP JUMPDEST DUP3 ADD SWAP2 SWAP1 PUSH1 0x0 MSTORE PUSH1 0x20 PUSH1 0x0 KECCAK256 SWAP1 JUMPDEST DUP2 SLOAD DUP2 MSTORE SWAP1 PUSH1 0x1 ADD SWAP1 PUSH1 0x20 ADD DUP1 DUP4 GT PUSH2 0x1AF9 JUMPI DUP3 SWAP1 SUB PUSH1 0x1F AND DUP3 ADD SWAP2 JUMPDEST POP POP POP SWAP2 DUP4 MSTORE POP POP PUSH1 0x3 SWAP2 SWAP1 SWAP2 ADD SLOAD PUSH1 0xFF AND ISZERO ISZERO PUSH1 0x20 SWAP1 SWAP2 ADD MSTORE SWAP1 POP JUMPDEST SWAP2 SWAP1 POP JUMP JUMPDEST PUSH1 0xE SLOAD PUSH1 0x1 PUSH1 0x1 PUSH1 0xA0 SHL SUB AND CALLER EQ DUP1 PUSH2 0x1B5B JUMPI POP PUSH1 0xF SLOAD PUSH1 0x1 PUSH1 0x1 PUSH1 0xA0 SHL SUB AND CALLER EQ JUMPDEST PUSH2 0x1B77 JUMPI PUSH1 0x40 MLOAD PUSH3 0x461BCD PUSH1 0xE5 SHL DUP2 MSTORE PUSH1 0x4 ADD PUSH2 0x5C5 SWAP1 PUSH2 0x3AAF JUMP JUMPDEST DUP5 MLOAD DUP6 SWAP1 PUSH2 0x1BC7 JUMPI PUSH1 0x40 MLOAD PUSH3 0x461BCD PUSH1 0xE5 SHL DUP2 MSTORE PUSH1 0x20 PUSH1 0x4 DUP3 ADD MSTORE PUSH1 0x1A PUSH1 0x24 DUP3 ADD MSTORE PUSH32 0x456E74657220612076616C69642042616C6C6F74204E616D6521000000000000 PUSH1 0x44 DUP3 ADD MSTORE PUSH1 0x64 ADD PUSH2 0x5C5 JUMP JUMPDEST PUSH1 0x1 DUP6 MLOAD GT PUSH2 0x1C18 JUMPI PUSH1 0x40 MLOAD PUSH3 0x461BCD PUSH1 0xE5 SHL DUP2 MSTORE PUSH1 0x20 PUSH1 0x4 DUP3 ADD MSTORE PUSH1 0x1D PUSH1 0x24 DUP3 ADD MSTORE PUSH32 0x4E6F7420456E6F7567682042616C6C6F742043616E6469646174657321000000 PUSH1 0x44 DUP3 ADD MSTORE PUSH1 0x64 ADD PUSH2 0x5C5 JUMP JUMPDEST PUSH1 0x9 SLOAD DUP5 GT ISZERO PUSH2 0x1C6A JUMPI PUSH1 0x40 MLOAD PUSH3 0x461BCD PUSH1 0xE5 SHL DUP2 MSTORE PUSH1 0x20 PUSH1 0x4 DUP3 ADD MSTORE PUSH1 0x18 PUSH1 0x24 DUP3 ADD MSTORE PUSH32 0x4E6F7420612076616C69642042616C6C6F742054797065210000000000000000 PUSH1 0x44 DUP3 ADD MSTORE PUSH1 0x64 ADD PUSH2 0x5C5 JUMP JUMPDEST PUSH1 0xA SLOAD PUSH1 0x5 SLOAD LT PUSH2 0x1CE3 JUMPI PUSH1 0x40 MLOAD PUSH3 0x461BCD PUSH1 0xE5 SHL DUP2 MSTORE PUSH1 0x20 PUSH1 0x4 DUP3 ADD MSTORE PUSH1 0x3C PUSH1 0x24 DUP3 ADD MSTORE PUSH32 0x596F752068617665207265616368656420746865204D6178204C696D6974206F PUSH1 0x44 DUP3 ADD MSTORE PUSH32 0x662042616C6C6F747320666F72207468697320456C656374696F6E2100000000 PUSH1 0x64 DUP3 ADD MSTORE PUSH1 0x84 ADD PUSH2 0x5C5 JUMP JUMPDEST DUP2 DUP4 GT PUSH2 0x1D3D JUMPI PUSH1 0x40 MLOAD PUSH3 0x461BCD PUSH1 0xE5 SHL DUP2 MSTORE PUSH1 0x20 PUSH1 0x4 DUP3 ADD MSTORE PUSH1 0x22 PUSH1 0x24 DUP3 ADD MSTORE PUSH32 0x526567697374726174696F6E20506572696F64203E20566F74696E6720446179 PUSH1 0x44 DUP3 ADD MSTORE PUSH2 0x7321 PUSH1 0xF0 SHL PUSH1 0x64 DUP3 ADD MSTORE PUSH1 0x84 ADD PUSH2 0x5C5 JUMP JUMPDEST PUSH1 0xB SLOAD PUSH1 0x0 SWAP1 DUP2 MSTORE PUSH1 0x13 PUSH1 0x20 SWAP1 DUP2 MSTORE PUSH1 0x40 SWAP1 SWAP2 KECCAK256 DUP7 MLOAD PUSH1 0x60 SWAP3 PUSH2 0x1D64 SWAP3 SWAP2 SWAP1 DUP10 ADD SWAP1 PUSH2 0x3507 JUMP JUMPDEST POP DUP6 MLOAD PUSH1 0x0 JUMPDEST DUP2 DUP2 LT ISZERO PUSH2 0x1E43 JUMPI PUSH1 0x0 PUSH1 0x40 MLOAD DUP1 PUSH1 0x80 ADD PUSH1 0x40 MSTORE DUP1 DUP4 DUP2 MSTORE PUSH1 0x20 ADD PUSH1 0xB SLOAD DUP2 MSTORE PUSH1 0x20 ADD DUP11 DUP5 DUP2 MLOAD DUP2 LT PUSH2 0x1D9F JUMPI PUSH2 0x1D9F PUSH2 0x3AF8 JUMP JUMPDEST PUSH1 0x20 MUL PUSH1 0x20 ADD ADD MLOAD PUSH1 0x1 PUSH1 0x1 PUSH1 0xA0 SHL SUB AND DUP2 MSTORE PUSH1 0x20 ADD PUSH1 0x0 DUP2 MSTORE POP SWAP1 POP DUP1 PUSH1 0x15 PUSH1 0x0 DUP12 DUP6 DUP2 MLOAD DUP2 LT PUSH2 0x1DD3 JUMPI PUSH2 0x1DD3 PUSH2 0x3AF8 JUMP JUMPDEST PUSH1 0x20 SWAP1 DUP2 MUL SWAP2 SWAP1 SWAP2 ADD DUP2 ADD MLOAD PUSH1 0x1 PUSH1 0x1 PUSH1 0xA0 SHL SUB SWAP1 DUP2 AND DUP4 MSTORE DUP3 DUP3 ADD SWAP4 SWAP1 SWAP4 MSTORE PUSH1 0x40 SWAP2 DUP3 ADD PUSH1 0x0 KECCAK256 DUP5 MLOAD DUP2 SSTORE SWAP1 DUP5 ADD MLOAD PUSH1 0x1 DUP3 ADD SSTORE SWAP1 DUP4 ADD MLOAD PUSH1 0x2 DUP3 ADD DUP1 SLOAD PUSH1 0x1 PUSH1 0x1 PUSH1 0xA0 SHL SUB NOT AND SWAP2 SWAP1 SWAP4 AND OR SWAP1 SWAP2 SSTORE PUSH1 0x60 SWAP1 SWAP2 ADD MLOAD PUSH1 0x3 SWAP1 SWAP2 ADD SSTORE POP DUP1 PUSH2 0x1E3B DUP2 PUSH2 0x3BA5 JUMP JUMPDEST SWAP2 POP POP PUSH2 0x1D6A JUMP JUMPDEST POP PUSH1 0xE DUP1 SLOAD PUSH1 0x1 PUSH1 0x1 PUSH1 0xA0 SHL SUB NOT AND CALLER SWAP1 DUP2 OR SWAP1 SWAP2 SSTORE DUP8 MLOAD PUSH1 0x4 SSTORE PUSH1 0x40 DUP1 MLOAD PUSH2 0x160 DUP2 ADD DUP3 MSTORE PUSH1 0xB SLOAD DUP2 MSTORE PUSH1 0x20 DUP1 DUP3 ADD DUP11 DUP2 MSTORE SWAP3 DUP3 ADD DUP13 DUP2 MSTORE PUSH1 0x60 DUP4 ADD SWAP5 SWAP1 SWAP5 MSTORE PUSH1 0x0 PUSH1 0x80 DUP4 ADD DUP2 SWAP1 MSTORE TIMESTAMP PUSH1 0xA0 DUP5 ADD MSTORE PUSH1 0xC0 DUP4 ADD DUP11 SWAP1 MSTORE PUSH1 0xE0 DUP4 ADD DUP2 SWAP1 MSTORE PUSH2 0x100 DUP4 ADD DUP10 SWAP1 MSTORE PUSH2 0x120 DUP4 ADD DUP2 SWAP1 MSTORE PUSH2 0x140 DUP4 ADD DUP2 SWAP1 MSTORE PUSH1 0x1 DUP1 SLOAD DUP1 DUP3 ADD DUP3 SSTORE SWAP2 MSTORE DUP3 MLOAD PUSH1 0xA SWAP2 SWAP1 SWAP2 MUL PUSH32 0xB10E2D527612073B26EECDFD717E6A320CF44B4AFAC2B0732D9FCBE2B7FA0CF6 DUP2 ADD SWAP2 DUP3 SSTORE SWAP4 MLOAD PUSH32 0xB10E2D527612073B26EECDFD717E6A320CF44B4AFAC2B0732D9FCBE2B7FA0CF7 DUP6 ADD SSTORE SWAP4 MLOAD DUP1 MLOAD SWAP3 SWAP5 DUP6 SWAP5 SWAP1 SWAP4 PUSH2 0x1F54 SWAP4 PUSH32 0xB10E2D527612073B26EECDFD717E6A320CF44B4AFAC2B0732D9FCBE2B7FA0CF8 SWAP1 SWAP3 ADD SWAP3 SWAP1 SWAP2 ADD SWAP1 PUSH2 0x356C JUMP JUMPDEST POP PUSH1 0x60 DUP3 ADD MLOAD PUSH1 0x3 DUP3 ADD DUP1 SLOAD PUSH1 0x1 PUSH1 0x1 PUSH1 0xA0 SHL SUB NOT AND PUSH1 0x1 PUSH1 0x1 PUSH1 0xA0 SHL SUB SWAP3 DUP4 AND OR SWAP1 SSTORE PUSH1 0x80 DUP4 ADD MLOAD PUSH1 0x4 DUP4 ADD SSTORE PUSH1 0xA0 DUP4 ADD MLOAD PUSH1 0x5 DUP4 ADD SSTORE PUSH1 0xC0 DUP4 ADD MLOAD PUSH1 0x6 DUP4 ADD SSTORE PUSH1 0xE0 DUP4 ADD MLOAD PUSH1 0x7 DUP4 ADD DUP1 SLOAD PUSH1 0xFF NOT AND SWAP2 ISZERO ISZERO SWAP2 SWAP1 SWAP2 OR SWAP1 SSTORE PUSH2 0x100 DUP4 ADD MLOAD PUSH1 0x8 DUP4 ADD SSTORE PUSH2 0x120 DUP4 ADD MLOAD PUSH1 0x9 SWAP1 SWAP3 ADD DUP1 SLOAD PUSH2 0x140 SWAP1 SWAP5 ADD MLOAD SWAP3 SWAP1 SWAP2 AND PUSH1 0x1 PUSH1 0x1 PUSH1 0xA8 SHL SUB NOT SWAP1 SWAP4 AND SWAP3 SWAP1 SWAP3 OR PUSH1 0x1 PUSH1 0xA0 SHL SWAP2 ISZERO ISZERO SWAP2 SWAP1 SWAP2 MUL OR SWAP1 SSTORE CALLER PUSH1 0x0 SWAP1 DUP2 MSTORE PUSH1 0x11 PUSH1 0x20 SWAP1 DUP2 MSTORE PUSH1 0x40 SWAP2 DUP3 SWAP1 KECCAK256 DUP4 MLOAD DUP2 SSTORE DUP4 DUP3 ADD MLOAD PUSH1 0x1 DUP3 ADD SSTORE SWAP2 DUP4 ADD MLOAD DUP1 MLOAD DUP5 SWAP4 SWAP3 PUSH2 0x202A SWAP3 PUSH1 0x2 DUP6 ADD SWAP3 SWAP2 ADD SWAP1 PUSH2 0x356C JUMP JUMPDEST POP PUSH1 0x60 DUP3 ADD MLOAD PUSH1 0x3 DUP3 ADD DUP1 SLOAD PUSH1 0x1 PUSH1 0x1 PUSH1 0xA0 SHL SUB NOT AND PUSH1 0x1 PUSH1 0x1 PUSH1 0xA0 SHL SUB SWAP3 DUP4 AND OR SWAP1 SSTORE PUSH1 0x80 DUP4 ADD MLOAD PUSH1 0x4 DUP4 ADD SSTORE PUSH1 0xA0 DUP4 ADD MLOAD PUSH1 0x5 DUP4 ADD SSTORE PUSH1 0xC0 DUP4 ADD MLOAD PUSH1 0x6 DUP4 ADD SSTORE PUSH1 0xE0 DUP4 ADD MLOAD PUSH1 0x7 DUP4 ADD DUP1 SLOAD PUSH1 0xFF NOT AND SWAP2 ISZERO ISZERO SWAP2 SWAP1 SWAP2 OR SWAP1 SSTORE PUSH2 0x100 DUP4 ADD MLOAD PUSH1 0x8 DUP4 ADD SSTORE PUSH2 0x120 DUP4 ADD MLOAD PUSH1 0x9 SWAP1 SWAP3 ADD DUP1 SLOAD PUSH2 0x140 SWAP1 SWAP5 ADD MLOAD SWAP3 SWAP1 SWAP2 AND PUSH1 0x1 PUSH1 0x1 PUSH1 0xA8 SHL SUB NOT SWAP1 SWAP4 AND SWAP3 SWAP1 SWAP3 OR PUSH1 0x1 PUSH1 0xA0 SHL SWAP2 ISZERO ISZERO SWAP2 SWAP1 SWAP2 MUL OR SWAP1 SSTORE PUSH1 0xB SLOAD PUSH1 0x0 SWAP1 DUP2 MSTORE PUSH1 0x12 PUSH1 0x20 SWAP1 DUP2 MSTORE PUSH1 0x40 SWAP2 DUP3 SWAP1 KECCAK256 DUP4 MLOAD DUP2 SSTORE DUP4 DUP3 ADD MLOAD PUSH1 0x1 DUP3 ADD SSTORE SWAP2 DUP4 ADD MLOAD DUP1 MLOAD DUP5 SWAP4 SWAP3 PUSH2 0x2102 SWAP3 PUSH1 0x2 DUP6 ADD SWAP3 SWAP2 ADD SWAP1 PUSH2 0x356C JUMP JUMPDEST POP PUSH1 0x60 DUP3 ADD MLOAD PUSH1 0x3 DUP3 ADD DUP1 SLOAD PUSH1 0x1 PUSH1 0x1 PUSH1 0xA0 SHL SUB NOT AND PUSH1 0x1 PUSH1 0x1 PUSH1 0xA0 SHL SUB SWAP3 DUP4 AND OR SWAP1 SSTORE PUSH1 0x80 DUP4 ADD MLOAD PUSH1 0x4 DUP4 ADD SSTORE PUSH1 0xA0 DUP4 ADD MLOAD PUSH1 0x5 DUP4 ADD SSTORE PUSH1 0xC0 DUP4 ADD MLOAD PUSH1 0x6 DUP4 ADD SSTORE PUSH1 0xE0 DUP4 ADD MLOAD PUSH1 0x7 DUP4 ADD DUP1 SLOAD PUSH1 0xFF NOT AND SWAP2 ISZERO ISZERO SWAP2 SWAP1 SWAP2 OR SWAP1 SSTORE PUSH2 0x100 DUP4 ADD MLOAD PUSH1 0x8 DUP4 ADD SSTORE PUSH2 0x120 DUP4 ADD MLOAD PUSH1 0x9 SWAP1 SWAP3 ADD DUP1 SLOAD PUSH2 0x140 SWAP1 SWAP5 ADD MLOAD SWAP3 SWAP1 SWAP2 AND PUSH1 0x1 PUSH1 0x1 PUSH1 0xA8 SHL SUB NOT SWAP1 SWAP4 AND SWAP3 SWAP1 SWAP3 OR PUSH1 0x1 PUSH1 0xA0 SHL SWAP2 ISZERO ISZERO SWAP2 SWAP1 SWAP2 MUL OR SWAP1 SSTORE CALLER PUSH1 0x0 SWAP1 DUP2 MSTORE PUSH1 0x16 PUSH1 0x20 SWAP1 DUP2 MSTORE PUSH1 0x40 SWAP1 SWAP2 KECCAK256 DUP10 MLOAD PUSH2 0x21BE SWAP3 DUP12 ADD SWAP1 PUSH2 0x3507 JUMP JUMPDEST POP PUSH1 0x5 DUP1 SLOAD SWAP1 PUSH1 0x0 PUSH2 0x21CF DUP4 PUSH2 0x3BA5 JUMP JUMPDEST SWAP1 SWAP2 SSTORE POP POP PUSH1 0xB DUP1 SLOAD SWAP1 PUSH1 0x0 PUSH2 0x21E4 DUP4 PUSH2 0x3BA5 JUMP JUMPDEST SWAP1 SWAP2 SSTORE POP POP PUSH1 0x40 MLOAD DUP8 DUP2 MSTORE PUSH32 0x3302601C0B6AD9794207D2EB4A29C724DB57C9348BF10DFFCC98C9D89E6D9C52 SWAP1 PUSH1 0x20 ADD PUSH1 0x40 MLOAD DUP1 SWAP2 SUB SWAP1 LOG1 POP POP POP POP POP POP POP POP POP JUMP JUMPDEST PUSH2 0x225B PUSH1 0x40 MLOAD DUP1 PUSH1 0x80 ADD PUSH1 0x40 MSTORE DUP1 PUSH1 0x0 DUP2 MSTORE PUSH1 0x20 ADD PUSH1 0x0 DUP2 MSTORE PUSH1 0x20 ADD PUSH1 0x0 PUSH1 0x1 PUSH1 0x1 PUSH1 0xA0 SHL SUB AND DUP2 MSTORE PUSH1 0x20 ADD PUSH1 0x0 DUP2 MSTORE POP SWAP1 JUMP JUMPDEST PUSH1 0x0 PUSH1 0x12 PUSH1 0x0 DUP5 DUP2 MSTORE PUSH1 0x20 ADD SWAP1 DUP2 MSTORE PUSH1 0x20 ADD PUSH1 0x0 KECCAK256 PUSH1 0x40 MLOAD DUP1 PUSH2 0x160 ADD PUSH1 0x40 MSTORE SWAP1 DUP2 PUSH1 0x0 DUP3 ADD SLOAD DUP2 MSTORE PUSH1 0x20 ADD PUSH1 0x1 DUP3 ADD SLOAD DUP2 MSTORE PUSH1 0x20 ADD PUSH1 0x2 DUP3 ADD DUP1 SLOAD PUSH2 0x22A0 SWAP1 PUSH2 0x3A3D JUMP JUMPDEST DUP1 PUSH1 0x1F ADD PUSH1 0x20 DUP1 SWAP2 DIV MUL PUSH1 0x20 ADD PUSH1 0x40 MLOAD SWAP1 DUP2 ADD PUSH1 0x40 MSTORE DUP1 SWAP3 SWAP2 SWAP1 DUP2 DUP2 MSTORE PUSH1 0x20 ADD DUP3 DUP1 SLOAD PUSH2 0x22CC SWAP1 PUSH2 0x3A3D JUMP JUMPDEST DUP1 ISZERO PUSH2 0x2319 JUMPI DUP1 PUSH1 0x1F LT PUSH2 0x22EE JUMPI PUSH2 0x100 DUP1 DUP4 SLOAD DIV MUL DUP4 MSTORE SWAP2 PUSH1 0x20 ADD SWAP2 PUSH2 0x2319 JUMP JUMPDEST DUP3 ADD SWAP2 SWAP1 PUSH1 0x0 MSTORE PUSH1 0x20 PUSH1 0x0 KECCAK256 SWAP1 JUMPDEST DUP2 SLOAD DUP2 MSTORE SWAP1 PUSH1 0x1 ADD SWAP1 PUSH1 0x20 ADD DUP1 DUP4 GT PUSH2 0x22FC JUMPI DUP3 SWAP1 SUB PUSH1 0x1F AND DUP3 ADD SWAP2 JUMPDEST POP POP POP SWAP2 DUP4 MSTORE POP POP PUSH1 0x3 DUP3 DUP2 ADD SLOAD PUSH1 0x1 PUSH1 0x1 PUSH1 0xA0 SHL SUB SWAP1 DUP2 AND PUSH1 0x20 DUP1 DUP6 ADD SWAP2 SWAP1 SWAP2 MSTORE PUSH1 0x4 DUP6 ADD SLOAD PUSH1 0x40 DUP6 ADD MSTORE PUSH1 0x5 DUP6 ADD SLOAD PUSH1 0x60 DUP6 ADD MSTORE PUSH1 0x6 DUP6 ADD SLOAD PUSH1 0x80 DUP6 ADD MSTORE PUSH1 0x7 DUP6 ADD SLOAD PUSH1 0xFF SWAP1 DUP2 AND ISZERO ISZERO PUSH1 0xA0 DUP7 ADD MSTORE PUSH1 0x8 DUP7 ADD SLOAD PUSH1 0xC0 DUP7 ADD MSTORE PUSH1 0x9 SWAP1 SWAP6 ADD SLOAD SWAP2 DUP3 AND PUSH1 0xE0 DUP6 ADD MSTORE PUSH1 0x1 PUSH1 0xA0 SHL SWAP1 SWAP2 DIV SWAP1 SWAP4 AND ISZERO ISZERO PUSH2 0x100 SWAP1 SWAP3 ADD SWAP2 SWAP1 SWAP2 MSTORE SWAP1 DUP3 ADD MLOAD SWAP2 SWAP3 POP LT ISZERO PUSH2 0x23BE JUMPI PUSH1 0x40 MLOAD PUSH3 0x461BCD PUSH1 0xE5 SHL DUP2 MSTORE PUSH1 0x4 ADD PUSH2 0x5C5 SWAP1 PUSH2 0x3A78 JUMP JUMPDEST POP POP POP PUSH1 0x1 PUSH1 0x1 PUSH1 0xA0 SHL SUB SWAP1 DUP2 AND PUSH1 0x0 SWAP1 DUP2 MSTORE PUSH1 0x15 PUSH1 0x20 SWAP1 DUP2 MSTORE PUSH1 0x40 SWAP2 DUP3 SWAP1 KECCAK256 DUP3 MLOAD PUSH1 0x80 DUP2 ADD DUP5 MSTORE DUP2 SLOAD DUP2 MSTORE PUSH1 0x1 DUP3 ADD SLOAD SWAP3 DUP2 ADD SWAP3 SWAP1 SWAP3 MSTORE PUSH1 0x2 DUP2 ADD SLOAD SWAP1 SWAP4 AND SWAP2 DUP2 ADD SWAP2 SWAP1 SWAP2 MSTORE PUSH1 0x3 SWAP1 SWAP2 ADD SLOAD PUSH1 0x60 DUP3 ADD MSTORE SWAP1 JUMP JUMPDEST PUSH1 0x60 PUSH1 0x0 PUSH1 0x12 PUSH1 0x0 DUP5 DUP2 MSTORE PUSH1 0x20 ADD SWAP1 DUP2 MSTORE PUSH1 0x20 ADD PUSH1 0x0 KECCAK256 PUSH1 0x40 MLOAD DUP1 PUSH2 0x160 ADD PUSH1 0x40 MSTORE SWAP1 DUP2 PUSH1 0x0 DUP3 ADD SLOAD DUP2 MSTORE PUSH1 0x20 ADD PUSH1 0x1 DUP3 ADD SLOAD DUP2 MSTORE PUSH1 0x20 ADD PUSH1 0x2 DUP3 ADD DUP1 SLOAD PUSH2 0x245A SWAP1 PUSH2 0x3A3D JUMP JUMPDEST DUP1 PUSH1 0x1F ADD PUSH1 0x20 DUP1 SWAP2 DIV MUL PUSH1 0x20 ADD PUSH1 0x40 MLOAD SWAP1 DUP2 ADD PUSH1 0x40 MSTORE DUP1 SWAP3 SWAP2 SWAP1 DUP2 DUP2 MSTORE PUSH1 0x20 ADD DUP3 DUP1 SLOAD PUSH2 0x2486 SWAP1 PUSH2 0x3A3D JUMP JUMPDEST DUP1 ISZERO PUSH2 0x24D3 JUMPI DUP1 PUSH1 0x1F LT PUSH2 0x24A8 JUMPI PUSH2 0x100 DUP1 DUP4 SLOAD DIV MUL DUP4 MSTORE SWAP2 PUSH1 0x20 ADD SWAP2 PUSH2 0x24D3 JUMP JUMPDEST DUP3 ADD SWAP2 SWAP1 PUSH1 0x0 MSTORE PUSH1 0x20 PUSH1 0x0 KECCAK256 SWAP1 JUMPDEST DUP2 SLOAD DUP2 MSTORE SWAP1 PUSH1 0x1 ADD SWAP1 PUSH1 0x20 ADD DUP1 DUP4 GT PUSH2 0x24B6 JUMPI DUP3 SWAP1 SUB PUSH1 0x1F AND DUP3 ADD SWAP2 JUMPDEST POP POP POP SWAP2 DUP4 MSTORE POP POP PUSH1 0x3 DUP3 DUP2 ADD SLOAD PUSH1 0x1 PUSH1 0x1 PUSH1 0xA0 SHL SUB SWAP1 DUP2 AND PUSH1 0x20 DUP1 DUP6 ADD SWAP2 SWAP1 SWAP2 MSTORE PUSH1 0x4 DUP6 ADD SLOAD PUSH1 0x40 DUP6 ADD MSTORE PUSH1 0x5 DUP6 ADD SLOAD PUSH1 0x60 DUP6 ADD MSTORE PUSH1 0x6 DUP6 ADD SLOAD PUSH1 0x80 DUP6 ADD MSTORE PUSH1 0x7 DUP6 ADD SLOAD PUSH1 0xFF SWAP1 DUP2 AND ISZERO ISZERO PUSH1 0xA0 DUP7 ADD MSTORE PUSH1 0x8 DUP7 ADD SLOAD PUSH1 0xC0 DUP7 ADD MSTORE PUSH1 0x9 SWAP1 SWAP6 ADD SLOAD SWAP2 DUP3 AND PUSH1 0xE0 DUP6 ADD MSTORE PUSH1 0x1 PUSH1 0xA0 SHL SWAP1 SWAP2 DIV SWAP1 SWAP4 AND ISZERO ISZERO PUSH2 0x100 SWAP1 SWAP3 ADD SWAP2 SWAP1 SWAP2 MSTORE SWAP1 DUP3 ADD MLOAD SWAP2 SWAP3 POP LT ISZERO PUSH2 0x2578 JUMPI PUSH1 0x40 MLOAD PUSH3 0x461BCD PUSH1 0xE5 SHL DUP2 MSTORE PUSH1 0x4 ADD PUSH2 0x5C5 SWAP1 PUSH2 0x3A78 JUMP JUMPDEST PUSH1 0x0 DUP4 DUP2 MSTORE PUSH1 0x14 PUSH1 0x20 SWAP1 DUP2 MSTORE PUSH1 0x40 SWAP2 DUP3 SWAP1 KECCAK256 DUP1 SLOAD DUP4 MLOAD DUP2 DUP5 MUL DUP2 ADD DUP5 ADD SWAP1 SWAP5 MSTORE DUP1 DUP5 MSTORE SWAP1 SWAP2 DUP4 ADD DUP3 DUP3 DUP1 ISZERO PUSH2 0xCBF JUMPI PUSH1 0x20 MUL DUP3 ADD SWAP2 SWAP1 PUSH1 0x0 MSTORE PUSH1 0x20 PUSH1 0x0 KECCAK256 SWAP1 DUP2 SLOAD PUSH1 0x1 PUSH1 0x1 PUSH1 0xA0 SHL SUB AND DUP2 MSTORE PUSH1 0x1 SWAP1 SWAP2 ADD SWAP1 PUSH1 0x20 ADD DUP1 DUP4 GT PUSH2 0xCA1 JUMPI POP POP POP POP POP SWAP2 POP POP SWAP2 SWAP1 POP JUMP JUMPDEST PUSH1 0x0 DUP1 PUSH2 0x25EF PUSH1 0x64 DUP5 PUSH2 0x3B24 JUMP JUMPDEST SWAP1 POP PUSH1 0xA SLOAD DUP2 LT PUSH2 0x2612 JUMPI PUSH1 0x40 MLOAD PUSH3 0x461BCD PUSH1 0xE5 SHL DUP2 MSTORE PUSH1 0x4 ADD PUSH2 0x5C5 SWAP1 PUSH2 0x3B5D JUMP JUMPDEST PUSH1 0x0 PUSH1 0x1 DUP3 DUP2 SLOAD DUP2 LT PUSH2 0x2627 JUMPI PUSH2 0x2627 PUSH2 0x3AF8 JUMP JUMPDEST SWAP1 PUSH1 0x0 MSTORE PUSH1 0x20 PUSH1 0x0 KECCAK256 SWAP1 PUSH1 0xA MUL ADD SWAP1 POP PUSH1 0x0 DUP2 PUSH1 0x5 ADD SLOAD TIMESTAMP PUSH2 0x2649 SWAP2 SWAP1 PUSH2 0x3B24 JUMP JUMPDEST SWAP1 POP DUP2 PUSH1 0x8 ADD SLOAD PUSH3 0x15180 PUSH2 0x265E SWAP2 SWAP1 PUSH2 0x3BC0 JUMP JUMPDEST DUP2 LT PUSH2 0x26AC JUMPI PUSH1 0x40 MLOAD PUSH3 0x461BCD PUSH1 0xE5 SHL DUP2 MSTORE PUSH1 0x20 PUSH1 0x4 DUP3 ADD MSTORE PUSH1 0x1F PUSH1 0x24 DUP3 ADD MSTORE PUSH32 0x526567697374726174696F6E20506572696F6420686173205061737365642100 PUSH1 0x44 DUP3 ADD MSTORE PUSH1 0x64 ADD PUSH2 0x5C5 JUMP JUMPDEST PUSH1 0x6 DUP3 ADD SLOAD PUSH2 0x26BE SWAP1 PUSH3 0x15180 PUSH2 0x3BC0 JUMP JUMPDEST DUP2 LT PUSH2 0x2703 JUMPI PUSH1 0x40 MLOAD PUSH3 0x461BCD PUSH1 0xE5 SHL DUP2 MSTORE PUSH1 0x20 PUSH1 0x4 DUP3 ADD MSTORE PUSH1 0x14 PUSH1 0x24 DUP3 ADD MSTORE PUSH20 0x546869732042616C6C6F74204578706972656421 PUSH1 0x60 SHL PUSH1 0x44 DUP3 ADD MSTORE PUSH1 0x64 ADD PUSH2 0x5C5 JUMP JUMPDEST PUSH1 0x0 DUP7 DUP2 MSTORE PUSH1 0x19 PUSH1 0x20 MSTORE PUSH1 0x40 SWAP1 KECCAK256 SLOAD PUSH1 0x1 PUSH1 0x1 PUSH1 0xA0 SHL SUB AND ISZERO PUSH2 0x2768 JUMPI PUSH1 0x40 MLOAD PUSH3 0x461BCD PUSH1 0xE5 SHL DUP2 MSTORE PUSH1 0x20 PUSH1 0x4 DUP3 ADD MSTORE PUSH1 0x1D PUSH1 0x24 DUP3 ADD MSTORE PUSH32 0x546869732069645F6E756D626572206973207265676973746572656421000000 PUSH1 0x44 DUP3 ADD MSTORE PUSH1 0x64 ADD PUSH2 0x5C5 JUMP JUMPDEST CALLER PUSH1 0x0 SWAP1 DUP2 MSTORE PUSH1 0x18 PUSH1 0x20 MSTORE PUSH1 0x40 SWAP1 KECCAK256 SLOAD ISZERO PUSH2 0x27C5 JUMPI PUSH1 0x40 MLOAD PUSH3 0x461BCD PUSH1 0xE5 SHL DUP2 MSTORE PUSH1 0x20 PUSH1 0x4 DUP3 ADD MSTORE PUSH1 0x17 PUSH1 0x24 DUP3 ADD MSTORE PUSH32 0x596F7520616C7265616479207265676973746572656421000000000000000000 PUSH1 0x44 DUP3 ADD MSTORE PUSH1 0x64 ADD PUSH2 0x5C5 JUMP JUMPDEST PUSH1 0x0 DUP6 DUP2 MSTORE PUSH1 0x14 PUSH1 0x20 SWAP1 DUP2 MSTORE PUSH1 0x40 DUP1 DUP4 KECCAK256 DUP1 SLOAD PUSH1 0x1 DUP2 ADD DUP3 SSTORE SWAP1 DUP5 MSTORE DUP3 DUP5 KECCAK256 ADD DUP1 SLOAD PUSH1 0x1 PUSH1 0x1 PUSH1 0xA0 SHL SUB NOT AND CALLER OR SWAP1 SSTORE MLOAD PUSH2 0x2806 SWAP2 DUP10 SWAP2 ADD SWAP1 DUP2 MSTORE PUSH1 0x20 ADD SWAP1 JUMP JUMPDEST PUSH1 0x40 MLOAD PUSH1 0x20 DUP2 DUP4 SUB SUB DUP2 MSTORE SWAP1 PUSH1 0x40 MSTORE DUP1 MLOAD SWAP1 PUSH1 0x20 ADD KECCAK256 SWAP1 POP DUP1 PUSH1 0x18 PUSH1 0x0 CALLER PUSH1 0x1 PUSH1 0x1 PUSH1 0xA0 SHL SUB AND PUSH1 0x1 PUSH1 0x1 PUSH1 0xA0 SHL SUB AND DUP2 MSTORE PUSH1 0x20 ADD SWAP1 DUP2 MSTORE PUSH1 0x20 ADD PUSH1 0x0 KECCAK256 DUP2 SWAP1 SSTORE POP PUSH1 0x0 PUSH1 0x40 MLOAD DUP1 PUSH1 0xE0 ADD PUSH1 0x40 MSTORE DUP1 DUP6 PUSH1 0x4 ADD SLOAD DUP2 MSTORE PUSH1 0x20 ADD CALLER PUSH1 0x1 PUSH1 0x1 PUSH1 0xA0 SHL SUB AND DUP2 MSTORE PUSH1 0x20 ADD DUP7 DUP2 MSTORE PUSH1 0x20 ADD PUSH1 0x1 ISZERO ISZERO DUP2 MSTORE PUSH1 0x20 ADD PUSH1 0x1 ISZERO ISZERO DUP2 MSTORE PUSH1 0x20 ADD PUSH1 0x0 ISZERO ISZERO DUP2 MSTORE PUSH1 0x20 ADD DUP4 DUP2 MSTORE POP SWAP1 POP DUP1 PUSH1 0x17 PUSH1 0x0 CALLER PUSH1 0x1 PUSH1 0x1 PUSH1 0xA0 SHL SUB AND PUSH1 0x1 PUSH1 0x1 PUSH1 0xA0 SHL SUB AND DUP2 MSTORE PUSH1 0x20 ADD SWAP1 DUP2 MSTORE PUSH1 0x20 ADD PUSH1 0x0 KECCAK256 PUSH1 0x0 DUP3 ADD MLOAD DUP2 PUSH1 0x0 ADD SSTORE PUSH1 0x20 DUP3 ADD MLOAD DUP2 PUSH1 0x1 ADD PUSH1 0x0 PUSH2 0x100 EXP DUP2 SLOAD DUP2 PUSH1 0x1 PUSH1 0x1 PUSH1 0xA0 SHL SUB MUL NOT AND SWAP1 DUP4 PUSH1 0x1 PUSH1 0x1 PUSH1 0xA0 SHL SUB AND MUL OR SWAP1 SSTORE POP PUSH1 0x40 DUP3 ADD MLOAD DUP2 PUSH1 0x2 ADD SSTORE PUSH1 0x60 DUP3 ADD MLOAD DUP2 PUSH1 0x3 ADD PUSH1 0x0 PUSH2 0x100 EXP DUP2 SLOAD DUP2 PUSH1 0xFF MUL NOT AND SWAP1 DUP4 ISZERO ISZERO MUL OR SWAP1 SSTORE POP PUSH1 0x80 DUP3 ADD MLOAD DUP2 PUSH1 0x3 ADD PUSH1 0x1 PUSH2 0x100 EXP DUP2 SLOAD DUP2 PUSH1 0xFF MUL NOT AND SWAP1 DUP4 ISZERO ISZERO MUL OR SWAP1 SSTORE POP PUSH1 0xA0 DUP3 ADD MLOAD DUP2 PUSH1 0x3 ADD PUSH1 0x2 PUSH2 0x100 EXP DUP2 SLOAD DUP2 PUSH1 0xFF MUL NOT AND SWAP1 DUP4 ISZERO ISZERO MUL OR SWAP1 SSTORE POP PUSH1 0xC0 DUP3 ADD MLOAD DUP2 PUSH1 0x4 ADD SSTORE SWAP1 POP POP PUSH1 0x2 DUP2 SWAP1 DUP1 PUSH1 0x1 DUP2 SLOAD ADD DUP1 DUP3 SSTORE DUP1 SWAP2 POP POP PUSH1 0x1 SWAP1 SUB SWAP1 PUSH1 0x0 MSTORE PUSH1 0x20 PUSH1 0x0 KECCAK256 SWAP1 PUSH1 0x5 MUL ADD PUSH1 0x0 SWAP1 SWAP2 SWAP1 SWAP2 SWAP1 SWAP2 POP PUSH1 0x0 DUP3 ADD MLOAD DUP2 PUSH1 0x0 ADD SSTORE PUSH1 0x20 DUP3 ADD MLOAD DUP2 PUSH1 0x1 ADD PUSH1 0x0 PUSH2 0x100 EXP DUP2 SLOAD DUP2 PUSH1 0x1 PUSH1 0x1 PUSH1 0xA0 SHL SUB MUL NOT AND SWAP1 DUP4 PUSH1 0x1 PUSH1 0x1 PUSH1 0xA0 SHL SUB AND MUL OR SWAP1 SSTORE POP PUSH1 0x40 DUP3 ADD MLOAD DUP2 PUSH1 0x2 ADD SSTORE PUSH1 0x60 DUP3 ADD MLOAD DUP2 PUSH1 0x3 ADD PUSH1 0x0 PUSH2 0x100 EXP DUP2 SLOAD DUP2 PUSH1 0xFF MUL NOT AND SWAP1 DUP4 ISZERO ISZERO MUL OR SWAP1 SSTORE POP PUSH1 0x80 DUP3 ADD MLOAD DUP2 PUSH1 0x3 ADD PUSH1 0x1 PUSH2 0x100 EXP DUP2 SLOAD DUP2 PUSH1 0xFF MUL NOT AND SWAP1 DUP4 ISZERO ISZERO MUL OR SWAP1 SSTORE POP PUSH1 0xA0 DUP3 ADD MLOAD DUP2 PUSH1 0x3 ADD PUSH1 0x2 PUSH2 0x100 EXP DUP2 SLOAD DUP2 PUSH1 0xFF MUL NOT AND SWAP1 DUP4 ISZERO ISZERO MUL OR SWAP1 SSTORE POP PUSH1 0xC0 DUP3 ADD MLOAD DUP2 PUSH1 0x4 ADD SSTORE POP POP DUP4 PUSH1 0x4 ADD PUSH1 0x0 DUP2 SLOAD DUP1 SWAP3 SWAP2 SWAP1 PUSH2 0x2A57 SWAP1 PUSH2 0x3BA5 JUMP JUMPDEST SWAP1 SWAP2 SSTORE POP POP PUSH1 0x0 DUP8 DUP2 MSTORE PUSH1 0x12 PUSH1 0x20 MSTORE PUSH1 0x40 DUP2 KECCAK256 PUSH1 0x4 ADD DUP1 SLOAD SWAP2 PUSH2 0x2A79 DUP4 PUSH2 0x3BA5 JUMP JUMPDEST SWAP1 SWAP2 SSTORE POP POP PUSH1 0x0 DUP9 DUP2 MSTORE PUSH1 0x19 PUSH1 0x20 MSTORE PUSH1 0x40 SWAP1 DUP2 SWAP1 KECCAK256 DUP1 SLOAD PUSH1 0x1 PUSH1 0x1 PUSH1 0xA0 SHL SUB NOT AND CALLER OR SWAP1 SSTORE MLOAD PUSH32 0xD850A8248DF1456F35B1B26DB099385CB363335BB60A8E99294BC10124267871 SWAP1 PUSH2 0x2ACE SWAP1 DUP5 DUP2 MSTORE PUSH1 0x20 ADD SWAP1 JUMP JUMPDEST PUSH1 0x40 MLOAD DUP1 SWAP2 SUB SWAP1 LOG1 POP SWAP7 SWAP6 POP POP POP POP POP POP JUMP JUMPDEST PUSH1 0x0 DUP2 DUP2 MSTORE PUSH1 0x12 PUSH1 0x20 MSTORE PUSH1 0x40 DUP2 KECCAK256 PUSH1 0x1 DUP1 DUP3 ADD SLOAD EQ PUSH2 0x2B12 JUMPI PUSH1 0x40 MLOAD PUSH3 0x461BCD PUSH1 0xE5 SHL DUP2 MSTORE PUSH1 0x4 ADD PUSH2 0x5C5 SWAP1 PUSH2 0x3BDF JUMP JUMPDEST POP SWAP3 SWAP2 POP POP JUMP JUMPDEST PUSH1 0x0 DUP2 DUP2 MSTORE PUSH1 0x12 PUSH1 0x20 MSTORE PUSH1 0x40 DUP2 KECCAK256 PUSH1 0x1 DUP2 ADD SLOAD PUSH1 0x2 EQ PUSH2 0x2B12 JUMPI PUSH1 0x40 MLOAD PUSH3 0x461BCD PUSH1 0xE5 SHL DUP2 MSTORE PUSH1 0x4 ADD PUSH2 0x5C5 SWAP1 PUSH2 0x3BDF JUMP JUMPDEST PUSH1 0x0 DUP2 DUP2 MSTORE PUSH1 0x12 PUSH1 0x20 MSTORE PUSH1 0x40 DUP2 KECCAK256 PUSH1 0x1 DUP2 ADD SLOAD PUSH1 0x3 EQ PUSH2 0x2B12 JUMPI PUSH1 0x40 MLOAD PUSH3 0x461BCD PUSH1 0xE5 SHL DUP2 MSTORE PUSH1 0x4 ADD PUSH2 0x5C5 SWAP1 PUSH2 0x3BDF JUMP JUMPDEST PUSH1 0x0 PUSH1 0x12 PUSH1 0x0 DUP4 DUP2 MSTORE PUSH1 0x20 ADD SWAP1 DUP2 MSTORE PUSH1 0x20 ADD PUSH1 0x0 KECCAK256 PUSH1 0x40 MLOAD DUP1 PUSH2 0x160 ADD PUSH1 0x40 MSTORE SWAP1 DUP2 PUSH1 0x0 DUP3 ADD SLOAD DUP2 MSTORE PUSH1 0x20 ADD PUSH1 0x1 DUP3 ADD SLOAD DUP2 MSTORE PUSH1 0x20 ADD PUSH1 0x2 DUP3 ADD DUP1 SLOAD PUSH2 0x2BC2 SWAP1 PUSH2 0x3A3D JUMP JUMPDEST DUP1 PUSH1 0x1F ADD PUSH1 0x20 DUP1 SWAP2 DIV MUL PUSH1 0x20 ADD PUSH1 0x40 MLOAD SWAP1 DUP2 ADD PUSH1 0x40 MSTORE DUP1 SWAP3 SWAP2 SWAP1 DUP2 DUP2 MSTORE PUSH1 0x20 ADD DUP3 DUP1 SLOAD PUSH2 0x2BEE SWAP1 PUSH2 0x3A3D JUMP JUMPDEST DUP1 ISZERO PUSH2 0x2C3B JUMPI DUP1 PUSH1 0x1F LT PUSH2 0x2C10 JUMPI PUSH2 0x100 DUP1 DUP4 SLOAD DIV MUL DUP4 MSTORE SWAP2 PUSH1 0x20 ADD SWAP2 PUSH2 0x2C3B JUMP JUMPDEST DUP3 ADD SWAP2 SWAP1 PUSH1 0x0 MSTORE PUSH1 0x20 PUSH1 0x0 KECCAK256 SWAP1 JUMPDEST DUP2 SLOAD DUP2 MSTORE SWAP1 PUSH1 0x1 ADD SWAP1 PUSH1 0x20 ADD DUP1 DUP4 GT PUSH2 0x2C1E JUMPI DUP3 SWAP1 SUB PUSH1 0x1F AND DUP3 ADD SWAP2 JUMPDEST POP POP POP SWAP2 DUP4 MSTORE POP POP PUSH1 0x3 DUP3 ADD SLOAD PUSH1 0x1 PUSH1 0x1 PUSH1 0xA0 SHL SUB SWAP1 DUP2 AND PUSH1 0x20 DUP1 DUP5 ADD SWAP2 SWAP1 SWAP2 MSTORE PUSH1 0x4 DUP5 ADD SLOAD PUSH1 0x40 DUP5 ADD MSTORE PUSH1 0x5 DUP5 ADD SLOAD PUSH1 0x60 DUP5 ADD MSTORE PUSH1 0x6 DUP5 ADD SLOAD PUSH1 0x80 DUP5 ADD MSTORE PUSH1 0x7 DUP5 ADD SLOAD PUSH1 0xFF SWAP1 DUP2 AND ISZERO ISZERO PUSH1 0xA0 DUP6 ADD MSTORE PUSH1 0x8 DUP6 ADD SLOAD PUSH1 0xC0 DUP6 ADD MSTORE PUSH1 0x9 SWAP1 SWAP5 ADD SLOAD DUP1 DUP4 AND PUSH1 0xE0 DUP6 ADD MSTORE PUSH1 0x1 PUSH1 0xA0 SHL SWAP1 DIV SWAP1 SWAP4 AND ISZERO ISZERO PUSH2 0x100 SWAP1 SWAP3 ADD SWAP2 SWAP1 SWAP2 MSTORE DUP6 AND PUSH2 0x120 DUP4 ADD MSTORE DUP2 ADD MLOAD SWAP1 SWAP2 POP ISZERO PUSH2 0x2D14 JUMPI PUSH1 0x40 MLOAD PUSH3 0x461BCD PUSH1 0xE5 SHL DUP2 MSTORE PUSH1 0x20 PUSH1 0x4 DUP3 ADD MSTORE PUSH1 0x17 PUSH1 0x24 DUP3 ADD MSTORE PUSH32 0x5468697320497320616E204F70656E2042616C6C6F7421000000000000000000 PUSH1 0x44 DUP3 ADD MSTORE PUSH1 0x64 ADD PUSH2 0x5C5 JUMP JUMPDEST CALLER PUSH1 0x0 SWAP1 DUP2 MSTORE PUSH1 0x17 PUSH1 0x20 MSTORE PUSH1 0x40 SWAP1 KECCAK256 PUSH1 0x3 ADD SLOAD PUSH1 0xFF AND ISZERO ISZERO PUSH1 0x1 EQ PUSH2 0x2D7B JUMPI PUSH1 0x40 MLOAD PUSH3 0x461BCD PUSH1 0xE5 SHL DUP2 MSTORE PUSH1 0x20 PUSH1 0x4 DUP3 ADD MSTORE PUSH1 0x18 PUSH1 0x24 DUP3 ADD MSTORE PUSH32 0x506C6561736520526567697374657220746F20566F7465210000000000000000 PUSH1 0x44 DUP3 ADD MSTORE PUSH1 0x64 ADD PUSH2 0x5C5 JUMP JUMPDEST CALLER PUSH1 0x0 SWAP1 DUP2 MSTORE PUSH1 0x17 PUSH1 0x20 MSTORE PUSH1 0x40 SWAP1 KECCAK256 PUSH1 0x3 ADD SLOAD PUSH3 0x10000 SWAP1 DIV PUSH1 0xFF AND ISZERO PUSH2 0x2DE4 JUMPI PUSH1 0x40 MLOAD PUSH3 0x461BCD PUSH1 0xE5 SHL DUP2 MSTORE PUSH1 0x20 PUSH1 0x4 DUP3 ADD MSTORE PUSH1 0x1B PUSH1 0x24 DUP3 ADD MSTORE PUSH32 0x596F7520616C7265616479204341535420796F757220566F7465210000000000 PUSH1 0x44 DUP3 ADD MSTORE PUSH1 0x64 ADD PUSH2 0x5C5 JUMP JUMPDEST PUSH1 0x0 DUP3 DUP2 MSTORE PUSH1 0x12 PUSH1 0x20 MSTORE PUSH1 0x40 SWAP1 KECCAK256 SLOAD DUP3 EQ PUSH2 0x2E36 JUMPI PUSH1 0x40 MLOAD PUSH3 0x461BCD PUSH1 0xE5 SHL DUP2 MSTORE PUSH1 0x20 PUSH1 0x4 DUP3 ADD MSTORE PUSH1 0x12 PUSH1 0x24 DUP3 ADD MSTORE PUSH18 0x496E76616C69642042616C6C6F7420496421 PUSH1 0x70 SHL PUSH1 0x44 DUP3 ADD MSTORE PUSH1 0x64 ADD PUSH2 0x5C5 JUMP JUMPDEST PUSH1 0x1 PUSH1 0x1 PUSH1 0xA0 SHL SUB DUP4 AND PUSH1 0x0 SWAP1 DUP2 MSTORE PUSH1 0x15 PUSH1 0x20 MSTORE PUSH1 0x40 SWAP1 KECCAK256 PUSH1 0x1 ADD SLOAD DUP3 EQ PUSH2 0x2E70 JUMPI PUSH1 0x40 MLOAD PUSH3 0x461BCD PUSH1 0xE5 SHL DUP2 MSTORE PUSH1 0x4 ADD PUSH2 0x5C5 SWAP1 PUSH2 0x3C0B JUMP JUMPDEST PUSH1 0xE0 DUP2 ADD MLOAD ISZERO PUSH2 0x2EB7 JUMPI PUSH1 0x40 MLOAD PUSH3 0x461BCD PUSH1 0xE5 SHL DUP2 MSTORE PUSH1 0x20 PUSH1 0x4 DUP3 ADD MSTORE PUSH1 0x12 PUSH1 0x24 DUP3 ADD MSTORE PUSH18 0x10985B1B1BDD081A185CC8115E1C1A5C9959 PUSH1 0x72 SHL PUSH1 0x44 DUP3 ADD MSTORE PUSH1 0x64 ADD PUSH2 0x5C5 JUMP JUMPDEST PUSH2 0x2EC1 DUP4 DUP3 PUSH2 0x3452 JUMP JUMPDEST POP PUSH1 0x1 PUSH1 0x1 PUSH1 0xA0 SHL SUB DUP4 AND PUSH1 0x0 SWAP1 DUP2 MSTORE PUSH1 0x15 PUSH1 0x20 MSTORE PUSH1 0x40 DUP2 KECCAK256 PUSH1 0x3 ADD DUP1 SLOAD SWAP2 PUSH2 0x2EE9 DUP4 PUSH2 0x3BA5 JUMP JUMPDEST SWAP1 SWAP2 SSTORE POP POP CALLER PUSH1 0x0 SWAP1 DUP2 MSTORE PUSH1 0x17 PUSH1 0x20 MSTORE PUSH1 0x40 DUP1 DUP3 KECCAK256 PUSH1 0x3 ADD DUP1 SLOAD PUSH3 0xFF0000 NOT AND PUSH3 0x10000 OR SWAP1 SSTORE MLOAD PUSH1 0x1 PUSH1 0x1 PUSH1 0xA0 SHL SUB DUP6 AND SWAP2 PUSH32 0xAEC2CCAE8681FD01AD220ECB7E9B5F7D485B1CC3CC01599ACB1578016B30A6BD SWAP2 LOG2 POP POP POP JUMP JUMPDEST PUSH1 0x0 PUSH1 0x12 PUSH1 0x0 DUP4 DUP2 MSTORE PUSH1 0x20 ADD SWAP1 DUP2 MSTORE PUSH1 0x20 ADD PUSH1 0x0 KECCAK256 PUSH1 0x40 MLOAD DUP1 PUSH2 0x160 ADD PUSH1 0x40 MSTORE SWAP1 DUP2 PUSH1 0x0 DUP3 ADD SLOAD DUP2 MSTORE PUSH1 0x20 ADD PUSH1 0x1 DUP3 ADD SLOAD DUP2 MSTORE PUSH1 0x20 ADD PUSH1 0x2 DUP3 ADD DUP1 SLOAD PUSH2 0x2F89 SWAP1 PUSH2 0x3A3D JUMP JUMPDEST DUP1 PUSH1 0x1F ADD PUSH1 0x20 DUP1 SWAP2 DIV MUL PUSH1 0x20 ADD PUSH1 0x40 MLOAD SWAP1 DUP2 ADD PUSH1 0x40 MSTORE DUP1 SWAP3 SWAP2 SWAP1 DUP2 DUP2 MSTORE PUSH1 0x20 ADD DUP3 DUP1 SLOAD PUSH2 0x2FB5 SWAP1 PUSH2 0x3A3D JUMP JUMPDEST DUP1 ISZERO PUSH2 0x3002 JUMPI DUP1 PUSH1 0x1F LT PUSH2 0x2FD7 JUMPI PUSH2 0x100 DUP1 DUP4 SLOAD DIV MUL DUP4 MSTORE SWAP2 PUSH1 0x20 ADD SWAP2 PUSH2 0x3002 JUMP JUMPDEST DUP3 ADD SWAP2 SWAP1 PUSH1 0x0 MSTORE PUSH1 0x20 PUSH1 0x0 KECCAK256 SWAP1 JUMPDEST DUP2 SLOAD DUP2 MSTORE SWAP1 PUSH1 0x1 ADD SWAP1 PUSH1 0x20 ADD DUP1 DUP4 GT PUSH2 0x2FE5 JUMPI DUP3 SWAP1 SUB PUSH1 0x1F AND DUP3 ADD SWAP2 JUMPDEST POP POP POP SWAP2 DUP4 MSTORE POP POP PUSH1 0x3 DUP3 ADD SLOAD PUSH1 0x1 PUSH1 0x1 PUSH1 0xA0 SHL SUB SWAP1 DUP2 AND PUSH1 0x20 DUP1 DUP5 ADD SWAP2 SWAP1 SWAP2 MSTORE PUSH1 0x4 DUP5 ADD SLOAD PUSH1 0x40 DUP5 ADD MSTORE PUSH1 0x5 DUP5 ADD SLOAD PUSH1 0x60 DUP5 ADD MSTORE PUSH1 0x6 DUP5 ADD SLOAD PUSH1 0x80 DUP5 ADD MSTORE PUSH1 0x7 DUP5 ADD SLOAD PUSH1 0xFF SWAP1 DUP2 AND ISZERO ISZERO PUSH1 0xA0 DUP6 ADD MSTORE PUSH1 0x8 DUP6 ADD SLOAD PUSH1 0xC0 DUP6 ADD MSTORE PUSH1 0x9 SWAP1 SWAP5 ADD SLOAD SWAP2 DUP3 AND PUSH1 0xE0 DUP5 ADD MSTORE PUSH1 0x1 PUSH1 0xA0 SHL SWAP1 SWAP2 DIV SWAP1 SWAP3 AND ISZERO ISZERO PUSH2 0x100 SWAP1 SWAP2 ADD MSTORE DUP2 ADD MLOAD SWAP1 SWAP2 POP PUSH1 0x1 EQ PUSH2 0x30A3 JUMPI PUSH1 0x40 MLOAD PUSH3 0x461BCD PUSH1 0xE5 SHL DUP2 MSTORE PUSH1 0x4 ADD PUSH2 0x5C5 SWAP1 PUSH2 0x3C4E JUMP JUMPDEST POP POP POP JUMP JUMPDEST PUSH1 0x0 PUSH1 0x12 PUSH1 0x0 DUP4 DUP2 MSTORE PUSH1 0x20 ADD SWAP1 DUP2 MSTORE PUSH1 0x20 ADD PUSH1 0x0 KECCAK256 PUSH1 0x40 MLOAD DUP1 PUSH2 0x160 ADD PUSH1 0x40 MSTORE SWAP1 DUP2 PUSH1 0x0 DUP3 ADD SLOAD DUP2 MSTORE PUSH1 0x20 ADD PUSH1 0x1 DUP3 ADD SLOAD DUP2 MSTORE PUSH1 0x20 ADD PUSH1 0x2 DUP3 ADD DUP1 SLOAD PUSH2 0x30ED SWAP1 PUSH2 0x3A3D JUMP JUMPDEST DUP1 PUSH1 0x1F ADD PUSH1 0x20 DUP1 SWAP2 DIV MUL PUSH1 0x20 ADD PUSH1 0x40 MLOAD SWAP1 DUP2 ADD PUSH1 0x40 MSTORE DUP1 SWAP3 SWAP2 SWAP1 DUP2 DUP2 MSTORE PUSH1 0x20 ADD DUP3 DUP1 SLOAD PUSH2 0x3119 SWAP1 PUSH2 0x3A3D JUMP JUMPDEST DUP1 ISZERO PUSH2 0x3166 JUMPI DUP1 PUSH1 0x1F LT PUSH2 0x313B JUMPI PUSH2 0x100 DUP1 DUP4 SLOAD DIV MUL DUP4 MSTORE SWAP2 PUSH1 0x20 ADD SWAP2 PUSH2 0x3166 JUMP JUMPDEST DUP3 ADD SWAP2 SWAP1 PUSH1 0x0 MSTORE PUSH1 0x20 PUSH1 0x0 KECCAK256 SWAP1 JUMPDEST DUP2 SLOAD DUP2 MSTORE SWAP1 PUSH1 0x1 ADD SWAP1 PUSH1 0x20 ADD DUP1 DUP4 GT PUSH2 0x3149 JUMPI DUP3 SWAP1 SUB PUSH1 0x1F AND DUP3 ADD SWAP2 JUMPDEST POP POP POP SWAP2 DUP4 MSTORE POP POP PUSH1 0x3 DUP3 ADD SLOAD PUSH1 0x1 PUSH1 0x1 PUSH1 0xA0 SHL SUB SWAP1 DUP2 AND PUSH1 0x20 DUP1 DUP5 ADD SWAP2 SWAP1 SWAP2 MSTORE PUSH1 0x4 DUP5 ADD SLOAD PUSH1 0x40 DUP5 ADD MSTORE PUSH1 0x5 DUP5 ADD SLOAD PUSH1 0x60 DUP5 ADD MSTORE PUSH1 0x6 DUP5 ADD SLOAD PUSH1 0x80 DUP5 ADD MSTORE PUSH1 0x7 DUP5 ADD SLOAD PUSH1 0xFF SWAP1 DUP2 AND ISZERO ISZERO PUSH1 0xA0 DUP6 ADD MSTORE PUSH1 0x8 DUP6 ADD SLOAD PUSH1 0xC0 DUP6 ADD MSTORE PUSH1 0x9 SWAP1 SWAP5 ADD SLOAD SWAP2 DUP3 AND PUSH1 0xE0 DUP5 ADD MSTORE PUSH1 0x1 PUSH1 0xA0 SHL SWAP1 SWAP2 DIV SWAP1 SWAP3 AND ISZERO ISZERO PUSH2 0x100 SWAP1 SWAP2 ADD MSTORE DUP2 ADD MLOAD SWAP1 SWAP2 POP PUSH1 0x2 EQ PUSH2 0x3207 JUMPI PUSH1 0x40 MLOAD PUSH3 0x461BCD PUSH1 0xE5 SHL DUP2 MSTORE PUSH1 0x4 ADD PUSH2 0x5C5 SWAP1 PUSH2 0x3C4E JUMP JUMPDEST PUSH1 0x1 PUSH1 0x1 PUSH1 0xA0 SHL SUB DUP4 AND PUSH2 0x120 DUP3 ADD MSTORE CALLER PUSH1 0x0 SWAP1 DUP2 MSTORE PUSH1 0x17 PUSH1 0x20 MSTORE PUSH1 0x40 SWAP1 KECCAK256 PUSH1 0x3 ADD DUP1 SLOAD PUSH2 0xFFFF NOT AND PUSH2 0x101 OR SWAP1 DUP2 SWAP1 SSTORE PUSH3 0x10000 SWAP1 DIV PUSH1 0xFF AND ISZERO PUSH2 0x328E JUMPI PUSH1 0x40 MLOAD PUSH3 0x461BCD PUSH1 0xE5 SHL DUP2 MSTORE PUSH1 0x20 PUSH1 0x4 DUP3 ADD MSTORE PUSH1 0x1B PUSH1 0x24 DUP3 ADD MSTORE PUSH32 0x596F7520616C7265616479206361737420796F757220766F7465210000000000 PUSH1 0x44 DUP3 ADD MSTORE PUSH1 0x64 ADD PUSH2 0x5C5 JUMP JUMPDEST PUSH1 0x1 PUSH1 0x1 PUSH1 0xA0 SHL SUB DUP4 AND PUSH1 0x0 SWAP1 DUP2 MSTORE PUSH1 0x15 PUSH1 0x20 MSTORE PUSH1 0x40 SWAP1 KECCAK256 PUSH1 0x1 ADD SLOAD DUP3 EQ ISZERO PUSH2 0x32C9 JUMPI PUSH1 0x40 MLOAD PUSH3 0x461BCD PUSH1 0xE5 SHL DUP2 MSTORE PUSH1 0x4 ADD PUSH2 0x5C5 SWAP1 PUSH2 0x3C0B JUMP JUMPDEST PUSH1 0x1 PUSH1 0x1 PUSH1 0xA0 SHL SUB DUP4 AND PUSH1 0x0 SWAP1 DUP2 MSTORE PUSH1 0x15 PUSH1 0x20 MSTORE PUSH1 0x40 DUP2 KECCAK256 PUSH1 0x3 ADD DUP1 SLOAD SWAP2 PUSH2 0x2EE9 DUP4 PUSH2 0x3BA5 JUMP JUMPDEST PUSH1 0x0 PUSH1 0x12 PUSH1 0x0 DUP4 DUP2 MSTORE PUSH1 0x20 ADD SWAP1 DUP2 MSTORE PUSH1 0x20 ADD PUSH1 0x0 KECCAK256 PUSH1 0x40 MLOAD DUP1 PUSH2 0x160 ADD PUSH1 0x40 MSTORE SWAP1 DUP2 PUSH1 0x0 DUP3 ADD SLOAD DUP2 MSTORE PUSH1 0x20 ADD PUSH1 0x1 DUP3 ADD SLOAD DUP2 MSTORE PUSH1 0x20 ADD PUSH1 0x2 DUP3 ADD DUP1 SLOAD PUSH2 0x3335 SWAP1 PUSH2 0x3A3D JUMP JUMPDEST DUP1 PUSH1 0x1F ADD PUSH1 0x20 DUP1 SWAP2 DIV MUL PUSH1 0x20 ADD PUSH1 0x40 MLOAD SWAP1 DUP2 ADD PUSH1 0x40 MSTORE DUP1 SWAP3 SWAP2 SWAP1 DUP2 DUP2 MSTORE PUSH1 0x20 ADD DUP3 DUP1 SLOAD PUSH2 0x3361 SWAP1 PUSH2 0x3A3D JUMP JUMPDEST DUP1 ISZERO PUSH2 0x33AE JUMPI DUP1 PUSH1 0x1F LT PUSH2 0x3383 JUMPI PUSH2 0x100 DUP1 DUP4 SLOAD DIV MUL DUP4 MSTORE SWAP2 PUSH1 0x20 ADD SWAP2 PUSH2 0x33AE JUMP JUMPDEST DUP3 ADD SWAP2 SWAP1 PUSH1 0x0 MSTORE PUSH1 0x20 PUSH1 0x0 KECCAK256 SWAP1 JUMPDEST DUP2 SLOAD DUP2 MSTORE SWAP1 PUSH1 0x1 ADD SWAP1 PUSH1 0x20 ADD DUP1 DUP4 GT PUSH2 0x3391 JUMPI DUP3 SWAP1 SUB PUSH1 0x1F AND DUP3 ADD SWAP2 JUMPDEST POP POP POP SWAP2 DUP4 MSTORE POP POP PUSH1 0x3 DUP3 DUP2 ADD SLOAD PUSH1 0x1 PUSH1 0x1 PUSH1 0xA0 SHL SUB SWAP1 DUP2 AND PUSH1 0x20 DUP1 DUP6 ADD SWAP2 SWAP1 SWAP2 MSTORE PUSH1 0x4 DUP6 ADD SLOAD PUSH1 0x40 DUP6 ADD MSTORE PUSH1 0x5 DUP6 ADD SLOAD PUSH1 0x60 DUP6 ADD MSTORE PUSH1 0x6 DUP6 ADD SLOAD PUSH1 0x80 DUP6 ADD MSTORE PUSH1 0x7 DUP6 ADD SLOAD PUSH1 0xFF SWAP1 DUP2 AND ISZERO ISZERO PUSH1 0xA0 DUP7 ADD MSTORE PUSH1 0x8 DUP7 ADD SLOAD PUSH1 0xC0 DUP7 ADD MSTORE PUSH1 0x9 SWAP1 SWAP6 ADD SLOAD SWAP2 DUP3 AND PUSH1 0xE0 DUP6 ADD MSTORE PUSH1 0x1 PUSH1 0xA0 SHL SWAP1 SWAP2 DIV SWAP1 SWAP4 AND ISZERO ISZERO PUSH2 0x100 SWAP1 SWAP3 ADD SWAP2 SWAP1 SWAP2 MSTORE SWAP1 DUP3 ADD MLOAD SWAP2 SWAP3 POP EQ PUSH2 0x30A3 JUMPI PUSH1 0x40 MLOAD PUSH3 0x461BCD PUSH1 0xE5 SHL DUP2 MSTORE PUSH1 0x4 ADD PUSH2 0x5C5 SWAP1 PUSH2 0x3C4E JUMP JUMPDEST PUSH2 0x120 DUP2 ADD MLOAD PUSH1 0x1 PUSH1 0x1 PUSH1 0xA0 SHL SUB SWAP1 DUP2 AND PUSH1 0x0 SWAP1 DUP2 MSTORE PUSH1 0x15 PUSH1 0x20 MSTORE PUSH1 0x40 DUP1 DUP3 KECCAK256 PUSH1 0x3 SWAP1 DUP2 ADD SLOAD SWAP4 DUP7 AND DUP4 MSTORE SWAP1 DUP3 KECCAK256 ADD SLOAD SWAP1 SWAP2 SWAP1 PUSH2 0x3490 SWAP1 PUSH1 0x1 PUSH2 0x3B8D JUMP JUMPDEST GT ISZERO PUSH2 0x34B3 JUMPI PUSH1 0x1 PUSH1 0x1 PUSH1 0xA0 SHL SUB DUP4 AND PUSH2 0x120 DUP4 ADD MSTORE PUSH1 0x0 PUSH2 0x140 DUP4 ADD MSTORE PUSH2 0x34FC JUMP JUMPDEST PUSH2 0x120 DUP3 ADD MLOAD PUSH1 0x1 PUSH1 0x1 PUSH1 0xA0 SHL SUB SWAP1 DUP2 AND PUSH1 0x0 SWAP1 DUP2 MSTORE PUSH1 0x15 PUSH1 0x20 MSTORE PUSH1 0x40 DUP1 DUP3 KECCAK256 PUSH1 0x3 SWAP1 DUP2 ADD SLOAD SWAP4 DUP8 AND DUP4 MSTORE SWAP2 KECCAK256 ADD SLOAD PUSH2 0x34ED SWAP1 PUSH1 0x1 PUSH2 0x3B8D JUMP JUMPDEST EQ ISZERO PUSH2 0x34FC JUMPI PUSH1 0x1 PUSH2 0x140 DUP4 ADD MSTORE JUMPDEST POP PUSH2 0x140 ADD MLOAD SWAP2 SWAP1 POP JUMP JUMPDEST DUP3 DUP1 SLOAD DUP3 DUP3 SSTORE SWAP1 PUSH1 0x0 MSTORE PUSH1 0x20 PUSH1 0x0 KECCAK256 SWAP1 DUP2 ADD SWAP3 DUP3 ISZERO PUSH2 0x355C JUMPI SWAP2 PUSH1 0x20 MUL DUP3 ADD JUMPDEST DUP3 DUP2 GT ISZERO PUSH2 0x355C JUMPI DUP3 MLOAD DUP3 SLOAD PUSH1 0x1 PUSH1 0x1 PUSH1 0xA0 SHL SUB NOT AND PUSH1 0x1 PUSH1 0x1 PUSH1 0xA0 SHL SUB SWAP1 SWAP2 AND OR DUP3 SSTORE PUSH1 0x20 SWAP1 SWAP3 ADD SWAP2 PUSH1 0x1 SWAP1 SWAP2 ADD SWAP1 PUSH2 0x3527 JUMP JUMPDEST POP PUSH2 0x3568 SWAP3 SWAP2 POP PUSH2 0x35E0 JUMP JUMPDEST POP SWAP1 JUMP JUMPDEST DUP3 DUP1 SLOAD PUSH2 0x3578 SWAP1 PUSH2 0x3A3D JUMP JUMPDEST SWAP1 PUSH1 0x0 MSTORE PUSH1 0x20 PUSH1 0x0 KECCAK256 SWAP1 PUSH1 0x1F ADD PUSH1 0x20 SWAP1 DIV DUP2 ADD SWAP3 DUP3 PUSH2 0x359A JUMPI PUSH1 0x0 DUP6 SSTORE PUSH2 0x355C JUMP JUMPDEST DUP3 PUSH1 0x1F LT PUSH2 0x35B3 JUMPI DUP1 MLOAD PUSH1 0xFF NOT AND DUP4 DUP1 ADD OR DUP6 SSTORE PUSH2 0x355C JUMP JUMPDEST DUP3 DUP1 ADD PUSH1 0x1 ADD DUP6 SSTORE DUP3 ISZERO PUSH2 0x355C JUMPI SWAP2 DUP3 ADD JUMPDEST DUP3 DUP2 GT ISZERO PUSH2 0x355C JUMPI DUP3 MLOAD DUP3 SSTORE SWAP2 PUSH1 0x20 ADD SWAP2 SWAP1 PUSH1 0x1 ADD SWAP1 PUSH2 0x35C5 JUMP JUMPDEST JUMPDEST DUP1 DUP3 GT ISZERO PUSH2 0x3568 JUMPI PUSH1 0x0 DUP2 SSTORE PUSH1 0x1 ADD PUSH2 0x35E1 JUMP JUMPDEST DUP1 CALLDATALOAD PUSH1 0x1 PUSH1 0x1 PUSH1 0xA0 SHL SUB DUP2 AND DUP2 EQ PUSH2 0x1B33 JUMPI PUSH1 0x0 DUP1 REVERT JUMPDEST PUSH1 0x0 DUP1 PUSH1 0x40 DUP4 DUP6 SUB SLT ISZERO PUSH2 0x361F JUMPI PUSH1 0x0 DUP1 REVERT JUMPDEST PUSH2 0x3628 DUP4 PUSH2 0x35F5 JUMP JUMPDEST SWAP5 PUSH1 0x20 SWAP4 SWAP1 SWAP4 ADD CALLDATALOAD SWAP4 POP POP POP JUMP JUMPDEST PUSH1 0x0 PUSH1 0x20 DUP3 DUP5 SUB SLT ISZERO PUSH2 0x3648 JUMPI PUSH1 0x0 DUP1 REVERT JUMPDEST POP CALLDATALOAD SWAP2 SWAP1 POP JUMP JUMPDEST PUSH1 0x20 DUP1 DUP3 MSTORE DUP3 MLOAD DUP3 DUP3 ADD DUP2 SWAP1 MSTORE PUSH1 0x0 SWAP2 SWAP1 DUP5 DUP3 ADD SWAP1 PUSH1 0x40 DUP6 ADD SWAP1 DUP5 JUMPDEST DUP2 DUP2 LT ISZERO PUSH2 0x3690 JUMPI DUP4 MLOAD PUSH1 0x1 PUSH1 0x1 PUSH1 0xA0 SHL SUB AND DUP4 MSTORE SWAP3 DUP5 ADD SWAP3 SWAP2 DUP5 ADD SWAP2 PUSH1 0x1 ADD PUSH2 0x366B JUMP JUMPDEST POP SWAP1 SWAP7 SWAP6 POP POP POP POP POP POP JUMP JUMPDEST PUSH1 0x0 DUP2 MLOAD DUP1 DUP5 MSTORE PUSH1 0x0 JUMPDEST DUP2 DUP2 LT ISZERO PUSH2 0x36C2 JUMPI PUSH1 0x20 DUP2 DUP6 ADD DUP2 ADD MLOAD DUP7 DUP4 ADD DUP3 ADD MSTORE ADD PUSH2 0x36A6 JUMP JUMPDEST DUP2 DUP2 GT ISZERO PUSH2 0x36D4 JUMPI PUSH1 0x0 PUSH1 0x20 DUP4 DUP8 ADD ADD MSTORE JUMPDEST POP PUSH1 0x1F ADD PUSH1 0x1F NOT AND SWAP3 SWAP1 SWAP3 ADD PUSH1 0x20 ADD SWAP3 SWAP2 POP POP JUMP JUMPDEST PUSH1 0x20 DUP2 MSTORE PUSH1 0x0 PUSH2 0x36FC PUSH1 0x20 DUP4 ADD DUP5 PUSH2 0x369C JUMP JUMPDEST SWAP4 SWAP3 POP POP POP JUMP JUMPDEST PUSH1 0x0 DUP1 PUSH1 0x40 DUP4 DUP6 SUB SLT ISZERO PUSH2 0x3716 JUMPI PUSH1 0x0 DUP1 REVERT JUMPDEST POP POP DUP1 CALLDATALOAD SWAP3 PUSH1 0x20 SWAP1 SWAP2 ADD CALLDATALOAD SWAP2 POP JUMP JUMPDEST PUSH1 0x20 DUP2 MSTORE DUP2 MLOAD PUSH1 0x20 DUP3 ADD MSTORE PUSH1 0x20 DUP3 ADD MLOAD PUSH1 0x40 DUP3 ADD MSTORE PUSH1 0x0 PUSH1 0x40 DUP4 ADD MLOAD PUSH2 0x160 DUP1 PUSH1 0x60 DUP6 ADD MSTORE PUSH2 0x3758 PUSH2 0x180 DUP6 ADD DUP4 PUSH2 0x369C JUMP JUMPDEST SWAP2 POP PUSH1 0x60 DUP6 ADD MLOAD PUSH2 0x3774 PUSH1 0x80 DUP7 ADD DUP3 PUSH1 0x1 PUSH1 0x1 PUSH1 0xA0 SHL SUB AND SWAP1 MSTORE JUMP JUMPDEST POP PUSH1 0x80 DUP6 ADD MLOAD PUSH1 0xA0 DUP6 ADD MSTORE PUSH1 0xA0 DUP6 ADD MLOAD PUSH1 0xC0 DUP6 ADD MSTORE PUSH1 0xC0 DUP6 ADD MLOAD PUSH1 0xE0 DUP6 ADD MSTORE PUSH1 0xE0 DUP6 ADD MLOAD PUSH2 0x100 PUSH2 0x37A8 DUP2 DUP8 ADD DUP4 ISZERO ISZERO SWAP1 MSTORE JUMP JUMPDEST DUP7 ADD MLOAD PUSH2 0x120 DUP7 DUP2 ADD SWAP2 SWAP1 SWAP2 MSTORE DUP7 ADD MLOAD SWAP1 POP PUSH2 0x140 PUSH2 0x37D1 DUP2 DUP8 ADD DUP4 PUSH1 0x1 PUSH1 0x1 PUSH1 0xA0 SHL SUB AND SWAP1 MSTORE JUMP JUMPDEST SWAP1 SWAP6 ADD MLOAD ISZERO ISZERO SWAP4 ADD SWAP3 SWAP1 SWAP3 MSTORE POP SWAP2 SWAP1 POP JUMP JUMPDEST PUSH1 0x0 PUSH1 0x20 DUP3 DUP5 SUB SLT ISZERO PUSH2 0x37F5 JUMPI PUSH1 0x0 DUP1 REVERT JUMPDEST DUP2 CALLDATALOAD DUP1 ISZERO ISZERO DUP2 EQ PUSH2 0x36FC JUMPI PUSH1 0x0 DUP1 REVERT JUMPDEST PUSH4 0x4E487B71 PUSH1 0xE0 SHL PUSH1 0x0 MSTORE PUSH1 0x41 PUSH1 0x4 MSTORE PUSH1 0x24 PUSH1 0x0 REVERT JUMPDEST PUSH1 0x40 MLOAD PUSH1 0x1F DUP3 ADD PUSH1 0x1F NOT AND DUP2 ADD PUSH8 0xFFFFFFFFFFFFFFFF DUP2 GT DUP3 DUP3 LT OR ISZERO PUSH2 0x3844 JUMPI PUSH2 0x3844 PUSH2 0x3805 JUMP JUMPDEST PUSH1 0x40 MSTORE SWAP2 SWAP1 POP JUMP JUMPDEST PUSH1 0x0 DUP3 PUSH1 0x1F DUP4 ADD SLT PUSH2 0x385D JUMPI PUSH1 0x0 DUP1 REVERT JUMPDEST DUP2 CALLDATALOAD PUSH8 0xFFFFFFFFFFFFFFFF DUP2 GT ISZERO PUSH2 0x3877 JUMPI PUSH2 0x3877 PUSH2 0x3805 JUMP JUMPDEST PUSH2 0x388A PUSH1 0x1F DUP3 ADD PUSH1 0x1F NOT AND PUSH1 0x20 ADD PUSH2 0x381B JUMP JUMPDEST DUP2 DUP2 MSTORE DUP5 PUSH1 0x20 DUP4 DUP7 ADD ADD GT ISZERO PUSH2 0x389F JUMPI PUSH1 0x0 DUP1 REVERT JUMPDEST DUP2 PUSH1 0x20 DUP6 ADD PUSH1 0x20 DUP4 ADD CALLDATACOPY PUSH1 0x0 SWAP2 DUP2 ADD PUSH1 0x20 ADD SWAP2 SWAP1 SWAP2 MSTORE SWAP4 SWAP3 POP POP POP JUMP JUMPDEST PUSH1 0x0 DUP1 PUSH1 0x40 DUP4 DUP6 SUB SLT ISZERO PUSH2 0x38CF JUMPI PUSH1 0x0 DUP1 REVERT JUMPDEST DUP3 CALLDATALOAD SWAP2 POP PUSH1 0x20 DUP4 ADD CALLDATALOAD PUSH8 0xFFFFFFFFFFFFFFFF DUP2 GT ISZERO PUSH2 0x38ED JUMPI PUSH1 0x0 DUP1 REVERT JUMPDEST PUSH2 0x38F9 DUP6 DUP3 DUP7 ADD PUSH2 0x384C JUMP JUMPDEST SWAP2 POP POP SWAP3 POP SWAP3 SWAP1 POP JUMP JUMPDEST PUSH1 0x20 DUP2 MSTORE DUP2 MLOAD PUSH1 0x20 DUP3 ADD MSTORE PUSH1 0x1 DUP1 PUSH1 0xA0 SHL SUB PUSH1 0x20 DUP4 ADD MLOAD AND PUSH1 0x40 DUP3 ADD MSTORE PUSH1 0x0 PUSH1 0x40 DUP4 ADD MLOAD PUSH1 0x80 PUSH1 0x60 DUP5 ADD MSTORE PUSH2 0x393B PUSH1 0xA0 DUP5 ADD DUP3 PUSH2 0x369C JUMP JUMPDEST SWAP1 POP PUSH1 0x60 DUP5 ADD MLOAD ISZERO ISZERO PUSH1 0x80 DUP5 ADD MSTORE DUP1 SWAP2 POP POP SWAP3 SWAP2 POP POP JUMP JUMPDEST PUSH1 0x0 DUP1 PUSH1 0x0 DUP1 PUSH1 0x0 PUSH1 0xA0 DUP7 DUP9 SUB SLT ISZERO PUSH2 0x396B JUMPI PUSH1 0x0 DUP1 REVERT JUMPDEST DUP6 CALLDATALOAD PUSH8 0xFFFFFFFFFFFFFFFF DUP1 DUP3 GT ISZERO PUSH2 0x3983 JUMPI PUSH1 0x0 DUP1 REVERT JUMPDEST PUSH2 0x398F DUP10 DUP4 DUP11 ADD PUSH2 0x384C JUMP JUMPDEST SWAP7 POP PUSH1 0x20 SWAP2 POP DUP2 DUP9 ADD CALLDATALOAD DUP2 DUP2 GT ISZERO PUSH2 0x39A6 JUMPI PUSH1 0x0 DUP1 REVERT JUMPDEST DUP9 ADD PUSH1 0x1F DUP2 ADD DUP11 SGT PUSH2 0x39B7 JUMPI PUSH1 0x0 DUP1 REVERT JUMPDEST DUP1 CALLDATALOAD DUP3 DUP2 GT ISZERO PUSH2 0x39C9 JUMPI PUSH2 0x39C9 PUSH2 0x3805 JUMP JUMPDEST DUP1 PUSH1 0x5 SHL SWAP3 POP PUSH2 0x39DA DUP5 DUP5 ADD PUSH2 0x381B JUMP JUMPDEST DUP2 DUP2 MSTORE SWAP3 DUP3 ADD DUP5 ADD SWAP3 DUP5 DUP2 ADD SWAP1 DUP13 DUP6 GT ISZERO PUSH2 0x39F4 JUMPI PUSH1 0x0 DUP1 REVERT JUMPDEST SWAP3 DUP6 ADD SWAP3 JUMPDEST DUP5 DUP5 LT ISZERO PUSH2 0x3A19 JUMPI PUSH2 0x3A0A DUP5 PUSH2 0x35F5 JUMP JUMPDEST DUP3 MSTORE SWAP3 DUP6 ADD SWAP3 SWAP1 DUP6 ADD SWAP1 PUSH2 0x39F9 JUMP JUMPDEST SWAP10 SWAP13 SWAP10 SWAP12 POP POP POP POP PUSH1 0x40 DUP9 ADD CALLDATALOAD SWAP8 PUSH1 0x60 DUP2 ADD CALLDATALOAD SWAP8 PUSH1 0x80 SWAP1 SWAP2 ADD CALLDATALOAD SWAP7 POP SWAP5 POP POP POP POP POP JUMP JUMPDEST PUSH1 0x1 DUP2 DUP2 SHR SWAP1 DUP3 AND DUP1 PUSH2 0x3A51 JUMPI PUSH1 0x7F DUP3 AND SWAP2 POP JUMPDEST PUSH1 0x20 DUP3 LT DUP2 EQ ISZERO PUSH2 0x3A72 JUMPI PUSH4 0x4E487B71 PUSH1 0xE0 SHL PUSH1 0x0 MSTORE PUSH1 0x22 PUSH1 0x4 MSTORE PUSH1 0x24 PUSH1 0x0 REVERT JUMPDEST POP SWAP2 SWAP1 POP JUMP JUMPDEST PUSH1 0x20 DUP1 DUP3 MSTORE PUSH1 0x18 SWAP1 DUP3 ADD MSTORE PUSH32 0x546869732069732061205365637265742042616C6C6F74210000000000000000 PUSH1 0x40 DUP3 ADD MSTORE PUSH1 0x60 ADD SWAP1 JUMP JUMPDEST PUSH1 0x20 DUP1 DUP3 MSTORE PUSH1 0x29 SWAP1 DUP3 ADD MSTORE PUSH32 0x496E73756666696369656E74205065726D697373696F6E7320666F7220746869 PUSH1 0x40 DUP3 ADD MSTORE PUSH9 0x7320416374696F6E21 PUSH1 0xB8 SHL PUSH1 0x60 DUP3 ADD MSTORE PUSH1 0x80 ADD SWAP1 JUMP JUMPDEST PUSH4 0x4E487B71 PUSH1 0xE0 SHL PUSH1 0x0 MSTORE PUSH1 0x32 PUSH1 0x4 MSTORE PUSH1 0x24 PUSH1 0x0 REVERT JUMPDEST PUSH4 0x4E487B71 PUSH1 0xE0 SHL PUSH1 0x0 MSTORE PUSH1 0x11 PUSH1 0x4 MSTORE PUSH1 0x24 PUSH1 0x0 REVERT JUMPDEST PUSH1 0x0 DUP3 DUP3 LT ISZERO PUSH2 0x3B36 JUMPI PUSH2 0x3B36 PUSH2 0x3B0E JUMP JUMPDEST POP SUB SWAP1 JUMP JUMPDEST PUSH1 0x0 DUP3 PUSH2 0x3B58 JUMPI PUSH4 0x4E487B71 PUSH1 0xE0 SHL PUSH1 0x0 MSTORE PUSH1 0x12 PUSH1 0x4 MSTORE PUSH1 0x24 PUSH1 0x0 REVERT JUMPDEST POP DIV SWAP1 JUMP JUMPDEST PUSH1 0x20 DUP1 DUP3 MSTORE PUSH1 0x16 SWAP1 DUP3 ADD MSTORE PUSH22 0x4E6F20737563682042616C6C6F742045786973747321 PUSH1 0x50 SHL PUSH1 0x40 DUP3 ADD MSTORE PUSH1 0x60 ADD SWAP1 JUMP JUMPDEST PUSH1 0x0 DUP3 NOT DUP3 GT ISZERO PUSH2 0x3BA0 JUMPI PUSH2 0x3BA0 PUSH2 0x3B0E JUMP JUMPDEST POP ADD SWAP1 JUMP JUMPDEST PUSH1 0x0 PUSH1 0x0 NOT DUP3 EQ ISZERO PUSH2 0x3BB9 JUMPI PUSH2 0x3BB9 PUSH2 0x3B0E JUMP JUMPDEST POP PUSH1 0x1 ADD SWAP1 JUMP JUMPDEST PUSH1 0x0 DUP2 PUSH1 0x0 NOT DIV DUP4 GT DUP3 ISZERO ISZERO AND ISZERO PUSH2 0x3BDA JUMPI PUSH2 0x3BDA PUSH2 0x3B0E JUMP JUMPDEST POP MUL SWAP1 JUMP JUMPDEST PUSH1 0x20 DUP1 DUP3 MSTORE PUSH1 0x12 SWAP1 DUP3 ADD MSTORE PUSH18 0x57726F6E672062616C6C6F74205479706521 PUSH1 0x70 SHL PUSH1 0x40 DUP3 ADD MSTORE PUSH1 0x60 ADD SWAP1 JUMP JUMPDEST PUSH1 0x20 DUP1 DUP3 MSTORE PUSH1 0x23 SWAP1 DUP3 ADD MSTORE PUSH32 0x43616E64696461746520646F6573206E6F7420657869737420696E2042616C6C PUSH1 0x40 DUP3 ADD MSTORE PUSH3 0x6F7421 PUSH1 0xE8 SHL PUSH1 0x60 DUP3 ADD MSTORE PUSH1 0x80 ADD SWAP1 JUMP JUMPDEST PUSH1 0x20 DUP1 DUP3 MSTORE PUSH1 0x12 SWAP1 DUP3 ADD MSTORE PUSH18 0x57726F6E672042616C6C6F74205479706521 PUSH1 0x70 SHL PUSH1 0x40 DUP3 ADD MSTORE PUSH1 0x60 ADD SWAP1 JUMP INVALID LOG2 PUSH5 0x6970667358 0x22 SLT KECCAK256 SWAP12 0x29 0xD0 SUB 0xE AND 0xE5 SLT STOP SELFBALANCE PUSH22 0x349D5BFAD23BCA9F33743A18145848FA82F5342FF864 PUSH20 0x6F6C634300080800330000000000000000000000 ","sha1":"be5322ce89ad8fe589cb243c8a20d1bde73c5df1","source":"// SPDX-License-Identifier: MIT\n\npragma solidity 0.8.8;\n\nimport \"../interfaces/IJamiiFactory.sol\";\n\ncontract JamiiFactory is IJamiiFactory {\n    // Struct Arrays\n    Election[] private elections;\n    Ballot[] private ballots;\n    Voter[] private voters;\n\n    // numbers\n    uint256 private election_cost = 1000000000000000; // $\n    // uint256 public election_cost = 340000000000000000; // $\n    // uint256 public election_cost = 1000000000000000; // $\n    // uint256 public get_winner_cost = 500000000000000000;\n    // uint256 public open_paid_voting_cost = 88000000000000000; // $100\n    uint256 private candidates_count; // count candidates\n    uint256 private ballot_count;\n    uint256 private election_count;\n    uint256[] private voter_ids;\n    uint256[] internal ballot_types_arr = [0, 1, 2, 3, 4, 5, 6]; // open free, closed free, open paid, closed paid, closed free secret, open paid secret, closed paid secret\n    uint256 internal ballot_types = ballot_types_arr.length;\n    uint256 private max_ballots = 3;\n    uint256 private uid;\n\n    // strings\n    string public organization_name;\n\n    // addresses\n    address private owner = 0xdD870fA1b7C4700F2BD7f44238821C26f7392148;\n    address public ballot_owner;\n    address public election_owner;\n\n    // mappings\n    mapping(uint256 => string) internal ballot_types_mapping;\n    mapping(address => Ballot) internal ballots_mapping;\n    mapping(uint256 => Ballot) internal id_to_ballot_mapping;\n    mapping(uint256 => address[]) internal ballot_candidate_mapping;\n    mapping(uint256 => address[]) internal ballot_voters_mapping;\n    mapping(address => Candidate) internal address_to_candidate_mapping; // store candidates\n    mapping(address => address[]) internal chair_to_candidates;\n    mapping(address => Voter) internal address_to_voter_mapping;\n    // mapping(uint256 => Voter) public ballot_to_voter_mapping;\n    mapping(address => bytes32) internal voter_to_unique_id;\n    mapping(uint256 => address) internal id_to_voter;\n    // mapping(address => bool) public voters; // voters that have voted\n\n    // modifiers\n    modifier only_election_ballot_owner() {\n        require(\n            msg.sender == ballot_owner || msg.sender == election_owner,\n            \"Insufficient Permissions for this Action!\"\n        );\n        _;\n    }\n\n    // constructor - create an election with ballots\n    constructor(string memory _organization_name) public payable {\n        require(msg.value >= election_cost, \"Start an Election with $500\");\n        bytes memory bytes_organization_name = bytes(_organization_name);\n        require(\n            bytes_organization_name.length > 0,\n            \"Enter a valid Organization Name!\"\n        );\n        election_count = 0;\n        organization_name = _organization_name;\n        Election memory election = Election(\n            election_count,\n            msg.sender,\n            _organization_name,\n            true\n        );\n        election.election_id = election_count;\n        elections.push(election);\n        election_count++;\n        ballot_owner = msg.sender;\n        election_owner = msg.sender;\n        ballot_count = 0;\n        uid = 100;\n\n        create_ballot_types();\n\n        emit created_new_election(organization_name);\n    }\n\n    function create_ballot_types() private {\n        ballot_types_mapping[0] = \"open-free\";\n        ballot_types_mapping[1] = \"closed-free\";\n        ballot_types_mapping[2] = \"open-paid\";\n        ballot_types_mapping[3] = \"closed-paid\";\n        ballot_types_mapping[4] = \"closed-free-secret\";\n        ballot_types_mapping[5] = \"open-paid-secret\";\n        ballot_types_mapping[6] = \"closed-paid-secret\";\n    }\n\n    function create_ballot_type(uint256 _ballot_type, string memory _name)\n        public\n    {\n        require(msg.sender == owner, \"This Action is NOT permitted!\");\n        require(_ballot_type > ballot_types, \"Invalid Type Index!\");\n        ballot_types_arr.push(ballot_types + 1);\n    }\n\n    function create_ballot(\n        string memory _ballot_name,\n        address[] memory _ballot_candidates_addr,\n        uint256 _ballot_type,\n        uint256 _days,\n        uint256 _registration_period\n    ) public only_election_ballot_owner {\n        bytes memory bytes_ballot_name = bytes(_ballot_name);\n        require(bytes_ballot_name.length > 0, \"Enter a valid Ballot Name!\");\n        require(\n            _ballot_candidates_addr.length > 1,\n            \"Not Enough Ballot Candidates!\"\n        );\n        // require(msg.value >= ballot_cost, \"Not Enough Funds to Start a Ballot!\");\n        require(_ballot_type <= ballot_types, \"Not a valid Ballot Type!\");\n        require(\n            ballot_count < max_ballots,\n            \"You have reached the Max Limit of Ballots for this Election!\"\n        );\n        require(\n            _days > _registration_period,\n            \"Registration Period > Voting Days!\"\n        );\n\n        address[] memory ballot_voters_addr;\n\n        ballot_candidate_mapping[uid] = _ballot_candidates_addr;\n\n        uint256 n = _ballot_candidates_addr.length;\n        for (uint256 i = 0; i < n; i++) {\n            Candidate memory candidate = Candidate(\n                i,\n                uid,\n                _ballot_candidates_addr[i],\n                0\n            );\n            address_to_candidate_mapping[\n                _ballot_candidates_addr[i]\n            ] = candidate;\n        }\n\n        ballot_owner = msg.sender;\n        candidates_count = _ballot_candidates_addr.length;\n        Ballot memory new_ballot = Ballot(\n            uid,\n            _ballot_type,\n            _ballot_name,\n            msg.sender,\n            0,\n            block.timestamp,\n            _days,\n            false,\n            _registration_period,\n            address(0x0),\n            false\n        );\n        ballots.push(new_ballot);\n        ballots_mapping[msg.sender] = new_ballot;\n        id_to_ballot_mapping[uid] = new_ballot;\n        chair_to_candidates[msg.sender] = _ballot_candidates_addr;\n        ballot_count++;\n        uid++;\n\n        emit created_ballot(_ballot_type);\n    }\n\n    // createBallot(_ballot_candidates)\n    // [\"0xf9d48aC9eC8F207AEF93518B51D2CdA61e596904\", \"0x6c0A17AEe0a1420583446B77f0c8a55e369Bb07e\"]\n\n    /** REGISTERS VOTERS **/\n    function register_voter_open_ballot(uint256 _id_number, uint256 _ballot_id)\n        internal\n        returns (bytes32)\n    {\n        uint256 int_ballot_id = _ballot_id - 100;\n        require(int_ballot_id < max_ballots, \"No such Ballot Exists!\");\n        // require(_ballot_id <= uid, \"No Such Ballot!\");\n        Ballot storage ballot = ballots[int_ballot_id];\n\n        // uint256 duration = (block.timestamp - ballot.open_date) / 60 / 60 / 24;\n\n        uint256 duration = (block.timestamp - ballot.open_date);\n        require(\n            (duration < (ballot.registration_window * 86400)),\n            \"Registration Period has Passed!\"\n        );\n        require(duration < (ballot._days * 86400), \"This Ballot Expired!\");\n        require(\n            id_to_voter[_id_number] == address(0x0),\n            \"This id_number is registered!\"\n        );\n        require(voter_to_unique_id[msg.sender] == 0, \"You already registered!\");\n\n        ballot_voters_mapping[_ballot_id].push(msg.sender);\n\n        // id_number validation here\n        bytes32 unique_voter_id = keccak256(abi.encode(_id_number));\n        voter_to_unique_id[msg.sender] = unique_voter_id;\n\n        Voter memory new_voter = Voter(\n            ballot.voters_count,\n            msg.sender,\n            int_ballot_id,\n            true,\n            true,\n            false,\n            unique_voter_id\n        );\n        address_to_voter_mapping[msg.sender] = new_voter;\n        // ballot_to_voter_mapping[int_ballot_id] = new_voter;\n        voters.push(new_voter);\n        ballot.voters_count++;\n\n        id_to_ballot_mapping[_ballot_id].voters_count++;\n        id_to_voter[_id_number] = msg.sender;\n        // voter_ids.push(_id_number);\n\n        emit registered_voter(unique_voter_id);\n\n        return unique_voter_id;\n    }\n\n    function register_voter_closed_ballot(\n        uint256 _id_number,\n        uint256 _ballot_id\n    ) internal returns (bytes32) {\n        Ballot storage ballot = id_to_ballot_mapping[_ballot_id];\n        require(ballot.ballot_type == 1, \"Wrong ballot Type!\");\n    }\n\n    // register voter closedPaidElection\n    function register_voter_open_paid_ballot(\n        uint256 _id_number,\n        uint256 _ballot_id\n    ) internal returns (bytes32) {\n        Ballot storage ballot = id_to_ballot_mapping[_ballot_id];\n        require(ballot.ballot_type == 2, \"Wrong ballot Type!\");\n        // return hashed_id;\n    }\n\n    function register_voter_closed_paid_ballot(\n        uint256 _id_number,\n        uint256 _ballot_id\n    ) internal returns (bytes32) {\n        Ballot storage ballot = id_to_ballot_mapping[_ballot_id];\n        require(ballot.ballot_type == 3, \"Wrong ballot Type!\");\n        // return hashed_id;\n    }\n\n    function register_voter(uint256 _id_number, uint256 _ballot_id) public {\n        uint256 int_ballot_id = _ballot_id - 100;\n        require(int_ballot_id < max_ballots, \"No such Ballot Exists!\");\n        Ballot memory ballot = ballots[int_ballot_id];\n\n        // 0, 1, 2, 3, 4, 5, 6 => open free, closed free, open paid, closed paid,\n        if (ballot.ballot_type == 0) {\n            register_voter_open_ballot(_id_number, _ballot_id);\n        } else if (ballot.ballot_type == 1) {\n            register_voter_closed_ballot(_id_number, _ballot_id);\n        } else if (ballot.ballot_type == 2) {\n            register_voter_open_paid_ballot(_id_number, _ballot_id);\n        } else if (ballot.ballot_type == 3) {\n            register_voter_closed_paid_ballot(_id_number, _ballot_id);\n        }\n    }\n\n    /** VOTING RIGHTS **/\n    function assign_voting_rights(address _voter, uint256 _ballot_id)\n        public\n        only_election_ballot_owner\n    {\n        require(_ballot_id <= ballots.length, \"Invalid ballot Id!\");\n        Ballot memory ballot = ballots[_ballot_id];\n        uint256 duration = (block.timestamp - ballot.open_date) / 60 / 60 / 24;\n        require(duration > ballot._days, \"This Ballot Expired!\");\n        require(ballots.length > 0, \"No ballots Opened Yet!\");\n        require(\n            address_to_voter_mapping[msg.sender].ballot_id == _ballot_id,\n            \"Voter does NOT belong to this Ballot.\"\n        );\n        require(\n            ballot.ballot_type >= 1,\n            \"This Option is Possible in a Closed Ballot!\"\n        );\n        require(\n            address_to_voter_mapping[msg.sender].registered == true,\n            \"You are NOT a Registered Voter!\"\n        );\n        require(\n            address_to_voter_mapping[msg.sender].rights == false,\n            \"Address already has Voting Rights!\"\n        );\n\n        address_to_voter_mapping[msg.sender].rights = true;\n\n        emit assigned_voting_rights(_voter);\n    }\n\n    /** VOTING **/\n    function vote_open_ballot(address _candidate, uint256 _ballot_id) internal {\n        // uint256 int_ballot_id = _ballot_id - 100;\n        Ballot memory ballot = id_to_ballot_mapping[_ballot_id];\n        ballot.current_winner = _candidate;\n        // uint256 duration = (block.timestamp - ballot.open_date) / 60 / 60 / 24;\n\n        // require(\n        //     duration > ballot.registration_window,\n        //     \"Registration Period is NOT Completed!\"\n        // );\n\n        require(ballot.ballot_type == 0, \"This Is an Open Ballot!\");\n        require(\n            address_to_voter_mapping[msg.sender].registered == true,\n            \"Please Register to Vote!\"\n        );\n        require(\n            !address_to_voter_mapping[msg.sender].voted,\n            \"You already CAST your Vote!\"\n        );\n        require(\n            id_to_ballot_mapping[_ballot_id].ballot_id == _ballot_id,\n            \"Invalid Ballot Id!\"\n        );\n\n        require(\n            address_to_candidate_mapping[_candidate].ballot_id == _ballot_id,\n            \"Candidate does not exist in Ballot!\"\n        );\n        require(ballot.expired == false, \"Ballot has Expired\");\n\n        find_winner(_candidate, ballot);\n\n        address_to_candidate_mapping[_candidate].vote_count++;\n        address_to_voter_mapping[msg.sender].voted = true;\n\n        emit voted(_candidate);\n    }\n\n    function vote_closed_free_ballot(address _candidate, uint256 _ballot_id)\n        internal\n    {\n        Ballot memory ballot = id_to_ballot_mapping[_ballot_id];\n        require(ballot.ballot_type == 1, \"Wrong Ballot Type!\");\n    }\n\n    function vote_open_paid_ballot(address _candidate, uint256 _ballot_id)\n        internal\n    {\n        Ballot memory ballot = id_to_ballot_mapping[_ballot_id];\n        require(ballot.ballot_type == 2, \"Wrong Ballot Type!\");\n        ballot.current_winner = _candidate;\n\n        // require(msg.value >= open_paid_voting_cost, \"Cast vote with 1 ETH!\");\n        require(\n            address_to_voter_mapping[msg.sender].registered = true,\n            \"You are NOT a registered Voter!\"\n        );\n        require(\n            address_to_voter_mapping[msg.sender].rights = true,\n            \"You don't have any Voting Rights!\"\n        );\n        require(\n            !address_to_voter_mapping[msg.sender].voted,\n            \"You already cast your vote!\"\n        );\n        require(\n            address_to_candidate_mapping[_candidate].ballot_id != _ballot_id,\n            \"Candidate does not exist in Ballot!\"\n        );\n\n        address_to_candidate_mapping[_candidate].vote_count++;\n        address_to_voter_mapping[msg.sender].voted = true;\n\n        emit voted(_candidate);\n    }\n\n    function vote_closed_paid_ballot(address _candidate, uint256 _ballot_id)\n        internal\n    {\n        // require(election_type == 2);\n        Ballot memory ballot = id_to_ballot_mapping[_ballot_id];\n        require(ballot.ballot_type == 3, \"Wrong Ballot Type!\");\n    }\n\n    function vote(address _candidate, uint256 _ballot_id) public {\n        uint256 int_ballot_id = _ballot_id - 100;\n        require(int_ballot_id < max_ballots, \"No such Ballot Exists!\");\n        Ballot memory ballot = ballots[int_ballot_id];\n\n        // 0, 1, 2, 3, 4, 5, 6 => open free, closed free, open paid, closed paid,\n        if (ballot.ballot_type == 0) {\n            vote_open_ballot(_candidate, _ballot_id);\n        } else if (ballot.ballot_type == 1) {\n            vote_closed_free_ballot(_candidate, _ballot_id);\n        } else if (ballot.ballot_type == 2) {\n            vote_open_paid_ballot(_candidate, _ballot_id);\n        } else if (ballot.ballot_type == 3) {\n            vote_closed_paid_ballot(_candidate, _ballot_id);\n        }\n    }\n\n    /** GETTERS **/\n\n    function get_ballot(uint256 _ballot_id)\n        public\n        view\n        returns (Ballot memory)\n    {\n        Ballot memory ballot = id_to_ballot_mapping[_ballot_id];\n        require(ballot.ballot_type <= 3, \"This is a Secret Ballot!\");\n        return id_to_ballot_mapping[_ballot_id];\n    }\n\n    function get_candidate(address _candidate_addr, uint256 _ballot_id)\n        public\n        view\n        returns (Candidate memory)\n    {\n        Ballot memory ballot = id_to_ballot_mapping[_ballot_id];\n        require(ballot.ballot_type <= 3, \"This is a Secret Ballot!\");\n        return address_to_candidate_mapping[_candidate_addr];\n    }\n\n    function get_voter(address _voter_address, uint256 _ballot_id)\n        public\n        view\n        returns (Voter memory)\n    {\n        Ballot memory ballot = id_to_ballot_mapping[_ballot_id];\n        require(ballot.ballot_type <= 3, \"This is a Secret Ballot!\");\n        return address_to_voter_mapping[_voter_address];\n    }\n\n    function get_candidates(uint256 _ballot_id)\n        public\n        view\n        returns (address[] memory)\n    {\n        Ballot memory ballot = id_to_ballot_mapping[_ballot_id];\n        require(ballot.ballot_type <= 3, \"This is a Secret Ballot!\");\n        return ballot_candidate_mapping[_ballot_id];\n    }\n\n    function get_voters(uint256 _ballot_id)\n        public\n        view\n        returns (address[] memory)\n    {\n        Ballot memory ballot = id_to_ballot_mapping[_ballot_id];\n        require(ballot.ballot_type <= 3, \"This is a Secret Ballot!\");\n        return ballot_voters_mapping[_ballot_id];\n    }\n\n    function get_election(uint256 _election_id)\n        public\n        view\n        only_election_ballot_owner\n        returns (Election memory)\n    {\n        require(_election_id <= ballots.length, \"Invalid election Id!\");\n        return elections[_election_id];\n    }\n\n    function find_winner(address _candidate, Ballot memory ballot)\n        internal\n        returns (bool)\n    {\n        if (\n            address_to_candidate_mapping[_candidate].vote_count + 1 >\n            address_to_candidate_mapping[ballot.current_winner].vote_count\n        ) {\n            ballot.current_winner = _candidate;\n            ballot.tie = false;\n        } else if (\n            address_to_candidate_mapping[_candidate].vote_count + 1 ==\n            address_to_candidate_mapping[ballot.current_winner].vote_count\n        ) {\n            ballot.tie = true;\n        }\n        return ballot.tie;\n    }\n\n    function get_winner(uint256 _ballot_id) public payable returns (address) {\n        Ballot storage ballot = ballots[_ballot_id - 100];\n\n        uint256 duration = (block.timestamp - ballot.open_date) / 60 / 60 / 24;\n\n        require(duration < ballot._days, \"This Ballot is still Open!\");\n        require(ballot.expired == true, \"This Ballot is still Open!\");\n        // require(msg.value >= get_winner_cost, \"Get results with 1 ETH!\");\n        require(\n            _ballot_id <= ballot_count,\n            \"Ballot with that Id does NOT exist!\"\n        );\n\n        if (ballot.tie == true) {\n            emit tied_ballot(ballot.tie);\n        } else {\n            address winner = ballot.current_winner;\n            return winner;\n        }\n    }\n\n    function end_open_ballot(uint256 _ballot_id) public {\n        require(msg.sender == ballot_owner, \"You don't OWN this Ballot!\");\n        Ballot storage ballot = ballots[_ballot_id - 100];\n        uint256 duration = (block.timestamp - ballot.open_date) / 60 / 60 / 24;\n        require(duration < ballot._days, \"This Ballot is NOT yet Expired!\");\n        payable(ballot_owner).transfer(address(this).balance);\n\n        ballot.expired = true;\n        ballots_mapping[msg.sender].expired = true;\n        id_to_ballot_mapping[_ballot_id].expired = true;\n    }\n\n    function end_election(uint256 _election_id) public {\n        require(msg.sender == owner);\n        payable(owner).transfer(address(this).balance);\n        Election memory election = get_election(_election_id);\n        election.open = false;\n    }\n\n    function withdraw(bool _destroy) public {\n        require(msg.sender == owner);\n        if (_destroy) {\n            payable(owner).transfer(address(this).balance);\n        } else {\n            payable(owner).transfer(address(this).balance);\n        }\n    }\n}\n","sourcePath":"contracts/JamiiFactory.sol","type":"contract","deployment":{"address":"0x5cae4A1D14794582Cd75C326EA8a762641990151","chainid":"4","blockHeight":11053747}}