{"abi":[{"inputs":[{"internalType":"string","name":"_organization_name","type":"string"}],"stateMutability":"payable","type":"constructor","name":"constructor"},{"anonymous":false,"inputs":[{"indexed":false,"internalType":"address","name":"_voter","type":"address"}],"name":"assigned_voting_rights","type":"event"},{"anonymous":false,"inputs":[{"indexed":false,"internalType":"uint256","name":"_ballot_id","type":"uint256"}],"name":"created_ballot","type":"event"},{"anonymous":false,"inputs":[{"indexed":false,"internalType":"string","name":"_organization_name","type":"string"}],"name":"created_new_election","type":"event"},{"anonymous":false,"inputs":[{"indexed":false,"internalType":"bytes32","name":"_voter_unique_id","type":"bytes32"}],"name":"registered_voter","type":"event"},{"anonymous":false,"inputs":[{"indexed":false,"internalType":"bool","name":"_tie","type":"bool"}],"name":"tied_ballot","type":"event"},{"anonymous":false,"inputs":[{"indexed":true,"internalType":"address","name":"_candidate","type":"address"}],"name":"voted","type":"event"},{"inputs":[{"internalType":"address","name":"","type":"address"}],"name":"address_to_candidate_mapping","outputs":[{"internalType":"uint256","name":"candidate_id","type":"uint256"},{"internalType":"uint256","name":"ballot_id","type":"uint256"},{"internalType":"address","name":"candidate_address","type":"address"},{"internalType":"uint256","name":"vote_count","type":"uint256"}],"stateMutability":"view","type":"function"},{"inputs":[{"internalType":"address","name":"","type":"address"}],"name":"address_to_voter_mapping","outputs":[{"internalType":"uint256","name":"voter_id","type":"uint256"},{"internalType":"address","name":"voter_address","type":"address"},{"internalType":"uint256","name":"ballot_id","type":"uint256"},{"internalType":"bool","name":"registered","type":"bool"},{"internalType":"bool","name":"rights","type":"bool"},{"internalType":"bool","name":"voted","type":"bool"},{"internalType":"bytes32","name":"unique_voter_id","type":"bytes32"}],"stateMutability":"view","type":"function"},{"inputs":[{"internalType":"address","name":"_voter","type":"address"},{"internalType":"uint256","name":"_ballot_id","type":"uint256"}],"name":"assign_voting_rights","outputs":[],"stateMutability":"nonpayable","type":"function"},{"inputs":[{"internalType":"uint256","name":"","type":"uint256"},{"internalType":"uint256","name":"","type":"uint256"}],"name":"ballot_candidate_mapping","outputs":[{"internalType":"address","name":"","type":"address"}],"stateMutability":"view","type":"function"},{"inputs":[],"name":"ballot_count","outputs":[{"internalType":"uint256","name":"","type":"uint256"}],"stateMutability":"view","type":"function"},{"inputs":[],"name":"ballot_owner","outputs":[{"internalType":"address","name":"","type":"address"}],"stateMutability":"view","type":"function"},{"inputs":[{"internalType":"uint256","name":"","type":"uint256"}],"name":"ballot_to_voter_mapping","outputs":[{"internalType":"uint256","name":"voter_id","type":"uint256"},{"internalType":"address","name":"voter_address","type":"address"},{"internalType":"uint256","name":"ballot_id","type":"uint256"},{"internalType":"bool","name":"registered","type":"bool"},{"internalType":"bool","name":"rights","type":"bool"},{"internalType":"bool","name":"voted","type":"bool"},{"internalType":"bytes32","name":"unique_voter_id","type":"bytes32"}],"stateMutability":"view","type":"function"},{"inputs":[],"name":"ballot_type","outputs":[{"internalType":"uint256","name":"","type":"uint256"}],"stateMutability":"view","type":"function"},{"inputs":[],"name":"ballot_types","outputs":[{"internalType":"uint256","name":"","type":"uint256"}],"stateMutability":"view","type":"function"},{"inputs":[{"internalType":"uint256","name":"","type":"uint256"}],"name":"ballots","outputs":[{"internalType":"uint256","name":"ballot_id","type":"uint256"},{"internalType":"uint256","name":"ballot_type","type":"uint256"},{"internalType":"string","name":"ballot_name","type":"string"},{"internalType":"address","name":"chair","type":"address"},{"internalType":"uint256","name":"voters_count","type":"uint256"},{"internalType":"uint256","name":"open_date","type":"uint256"},{"internalType":"uint256","name":"_days","type":"uint256"},{"internalType":"bool","name":"expired","type":"bool"},{"internalType":"uint256","name":"registration_window","type":"uint256"},{"internalType":"address","name":"current_winner","type":"address"},{"internalType":"bool","name":"tie","type":"bool"}],"stateMutability":"view","type":"function"},{"inputs":[{"internalType":"address","name":"","type":"address"}],"name":"ballots_mapping","outputs":[{"internalType":"uint256","name":"ballot_id","type":"uint256"},{"internalType":"uint256","name":"ballot_type","type":"uint256"},{"internalType":"string","name":"ballot_name","type":"string"},{"internalType":"address","name":"chair","type":"address"},{"internalType":"uint256","name":"voters_count","type":"uint256"},{"internalType":"uint256","name":"open_date","type":"uint256"},{"internalType":"uint256","name":"_days","type":"uint256"},{"internalType":"bool","name":"expired","type":"bool"},{"internalType":"uint256","name":"registration_window","type":"uint256"},{"internalType":"address","name":"current_winner","type":"address"},{"internalType":"bool","name":"tie","type":"bool"}],"stateMutability":"view","type":"function"},{"inputs":[],"name":"candidates_count","outputs":[{"internalType":"uint256","name":"","type":"uint256"}],"stateMutability":"view","type":"function"},{"inputs":[{"internalType":"address","name":"","type":"address"},{"internalType":"uint256","name":"","type":"uint256"}],"name":"chair_to_candidates","outputs":[{"internalType":"address","name":"","type":"address"}],"stateMutability":"view","type":"function"},{"inputs":[{"internalType":"string","name":"_ballot_name","type":"string"},{"internalType":"address[]","name":"_ballot_candidates","type":"address[]"},{"internalType":"uint256","name":"_ballot_type","type":"uint256"}],"name":"create_closed_free_ballot","outputs":[{"components":[{"internalType":"uint256","name":"ballot_id","type":"uint256"},{"internalType":"uint256","name":"ballot_type","type":"uint256"},{"internalType":"string","name":"ballot_name","type":"string"},{"internalType":"address","name":"chair","type":"address"},{"internalType":"address[]","name":"ballot_candidates_addr","type":"address[]"},{"internalType":"address[]","name":"ballot_voters_addr","type":"address[]"},{"internalType":"uint256","name":"voters_count","type":"uint256"},{"internalType":"uint256","name":"open_date","type":"uint256"},{"internalType":"uint256","name":"_days","type":"uint256"},{"internalType":"bool","name":"expired","type":"bool"},{"internalType":"uint256","name":"registration_window","type":"uint256"},{"internalType":"address","name":"current_winner","type":"address"},{"internalType":"bool","name":"tie","type":"bool"}],"internalType":"struct IJamiiFactory.Ballot","name":"","type":"tuple"}],"stateMutability":"payable","type":"function"},{"inputs":[{"internalType":"string","name":"_ballot_name","type":"string"},{"internalType":"address[]","name":"_ballot_candidates","type":"address[]"},{"internalType":"uint256","name":"_ballot_type","type":"uint256"}],"name":"create_closed_paid_ballot","outputs":[{"components":[{"internalType":"uint256","name":"ballot_id","type":"uint256"},{"internalType":"uint256","name":"ballot_type","type":"uint256"},{"internalType":"string","name":"ballot_name","type":"string"},{"internalType":"address","name":"chair","type":"address"},{"internalType":"address[]","name":"ballot_candidates_addr","type":"address[]"},{"internalType":"address[]","name":"ballot_voters_addr","type":"address[]"},{"internalType":"uint256","name":"voters_count","type":"uint256"},{"internalType":"uint256","name":"open_date","type":"uint256"},{"internalType":"uint256","name":"_days","type":"uint256"},{"internalType":"bool","name":"expired","type":"bool"},{"internalType":"uint256","name":"registration_window","type":"uint256"},{"internalType":"address","name":"current_winner","type":"address"},{"internalType":"bool","name":"tie","type":"bool"}],"internalType":"struct IJamiiFactory.Ballot","name":"","type":"tuple"}],"stateMutability":"payable","type":"function"},{"inputs":[{"internalType":"string","name":"_ballot_name","type":"string"},{"internalType":"address[]","name":"_ballot_candidates_addr","type":"address[]"},{"internalType":"uint256","name":"_ballot_type","type":"uint256"},{"internalType":"uint256","name":"_days","type":"uint256"},{"internalType":"uint256","name":"_registration_period","type":"uint256"}],"name":"create_open_ballot","outputs":[],"stateMutability":"nonpayable","type":"function"},{"inputs":[],"name":"current_block","outputs":[{"internalType":"uint256","name":"","type":"uint256"}],"stateMutability":"view","type":"function"},{"inputs":[],"name":"election_cost","outputs":[{"internalType":"uint256","name":"","type":"uint256"}],"stateMutability":"view","type":"function"},{"inputs":[],"name":"election_count","outputs":[{"internalType":"uint256","name":"","type":"uint256"}],"stateMutability":"view","type":"function"},{"inputs":[],"name":"election_owner","outputs":[{"internalType":"address","name":"","type":"address"}],"stateMutability":"view","type":"function"},{"inputs":[],"name":"election_type","outputs":[{"internalType":"uint256","name":"","type":"uint256"}],"stateMutability":"view","type":"function"},{"inputs":[{"internalType":"uint256","name":"","type":"uint256"}],"name":"elections","outputs":[{"internalType":"uint256","name":"election_id","type":"uint256"},{"internalType":"address","name":"election_owner","type":"address"},{"internalType":"string","name":"organization_name","type":"string"},{"internalType":"bool","name":"open","type":"bool"}],"stateMutability":"view","type":"function"},{"inputs":[{"internalType":"uint256","name":"_election_id","type":"uint256"}],"name":"end_election","outputs":[],"stateMutability":"nonpayable","type":"function"},{"inputs":[{"internalType":"uint256","name":"_ballot_id","type":"uint256"}],"name":"end_open_ballot","outputs":[],"stateMutability":"nonpayable","type":"function"},{"inputs":[{"internalType":"uint256","name":"_ballot_id","type":"uint256"}],"name":"get_ballot","outputs":[{"components":[{"internalType":"uint256","name":"ballot_id","type":"uint256"},{"internalType":"uint256","name":"ballot_type","type":"uint256"},{"internalType":"string","name":"ballot_name","type":"string"},{"internalType":"address","name":"chair","type":"address"},{"internalType":"address[]","name":"ballot_candidates_addr","type":"address[]"},{"internalType":"address[]","name":"ballot_voters_addr","type":"address[]"},{"internalType":"uint256","name":"voters_count","type":"uint256"},{"internalType":"uint256","name":"open_date","type":"uint256"},{"internalType":"uint256","name":"_days","type":"uint256"},{"internalType":"bool","name":"expired","type":"bool"},{"internalType":"uint256","name":"registration_window","type":"uint256"},{"internalType":"address","name":"current_winner","type":"address"},{"internalType":"bool","name":"tie","type":"bool"}],"internalType":"struct IJamiiFactory.Ballot","name":"","type":"tuple"}],"stateMutability":"view","type":"function"},{"inputs":[{"internalType":"uint256","name":"_ballot_id","type":"uint256"}],"name":"get_ballot_candidates_addr","outputs":[{"internalType":"address[]","name":"","type":"address[]"}],"stateMutability":"view","type":"function"},{"inputs":[{"internalType":"uint256","name":"_election_id","type":"uint256"}],"name":"get_election","outputs":[{"components":[{"internalType":"uint256","name":"election_id","type":"uint256"},{"internalType":"address","name":"election_owner","type":"address"},{"internalType":"string","name":"organization_name","type":"string"},{"internalType":"bool","name":"open","type":"bool"}],"internalType":"struct IJamiiFactory.Election","name":"","type":"tuple"}],"stateMutability":"view","type":"function"},{"inputs":[{"internalType":"uint256","name":"_ballot_id","type":"uint256"}],"name":"get_registered_voters","outputs":[{"components":[{"internalType":"uint256","name":"voter_id","type":"uint256"},{"internalType":"address","name":"voter_address","type":"address"},{"internalType":"uint256","name":"ballot_id","type":"uint256"},{"internalType":"bool","name":"registered","type":"bool"},{"internalType":"bool","name":"rights","type":"bool"},{"internalType":"bool","name":"voted","type":"bool"},{"internalType":"bytes32","name":"unique_voter_id","type":"bytes32"}],"internalType":"struct IJamiiFactory.Voter[]","name":"","type":"tuple[]"}],"stateMutability":"view","type":"function"},{"inputs":[{"internalType":"uint256","name":"_ballot_id","type":"uint256"}],"name":"get_winner","outputs":[{"internalType":"address","name":"","type":"address"}],"stateMutability":"payable","type":"function"},{"inputs":[],"name":"get_winner_cost","outputs":[{"internalType":"uint256","name":"","type":"uint256"}],"stateMutability":"view","type":"function"},{"inputs":[{"internalType":"uint256","name":"","type":"uint256"}],"name":"id_to_ballot_mapping","outputs":[{"internalType":"uint256","name":"ballot_id","type":"uint256"},{"internalType":"uint256","name":"ballot_type","type":"uint256"},{"internalType":"string","name":"ballot_name","type":"string"},{"internalType":"address","name":"chair","type":"address"},{"internalType":"uint256","name":"voters_count","type":"uint256"},{"internalType":"uint256","name":"open_date","type":"uint256"},{"internalType":"uint256","name":"_days","type":"uint256"},{"internalType":"bool","name":"expired","type":"bool"},{"internalType":"uint256","name":"registration_window","type":"uint256"},{"internalType":"address","name":"current_winner","type":"address"},{"internalType":"bool","name":"tie","type":"bool"}],"stateMutability":"view","type":"function"},{"inputs":[{"internalType":"uint256","name":"","type":"uint256"}],"name":"id_to_voter","outputs":[{"internalType":"address","name":"","type":"address"}],"stateMutability":"view","type":"function"},{"inputs":[],"name":"max_ballots","outputs":[{"internalType":"uint256","name":"","type":"uint256"}],"stateMutability":"view","type":"function"},{"inputs":[],"name":"open_paid_voting_cost","outputs":[{"internalType":"uint256","name":"","type":"uint256"}],"stateMutability":"view","type":"function"},{"inputs":[],"name":"organization_name","outputs":[{"internalType":"string","name":"","type":"string"}],"stateMutability":"view","type":"function"},{"inputs":[{"internalType":"uint256","name":"_id_number","type":"uint256"},{"internalType":"uint256","name":"_ballot_id","type":"uint256"}],"name":"register_voter_open_ballot","outputs":[{"internalType":"bytes32","name":"","type":"bytes32"}],"stateMutability":"nonpayable","type":"function"},{"inputs":[{"internalType":"uint256","name":"_id_number","type":"uint256"},{"internalType":"uint256","name":"_ballot_id","type":"uint256"}],"name":"register_voter_paid_ballot","outputs":[{"internalType":"bytes32","name":"","type":"bytes32"}],"stateMutability":"nonpayable","type":"function"},{"inputs":[],"name":"uid","outputs":[{"internalType":"uint256","name":"","type":"uint256"}],"stateMutability":"view","type":"function"},{"inputs":[{"internalType":"address","name":"_candidate","type":"address"},{"internalType":"uint256","name":"_ballot_id","type":"uint256"}],"name":"vote","outputs":[],"stateMutability":"payable","type":"function"},{"inputs":[{"internalType":"address","name":"_candidate","type":"address"}],"name":"vote_closed_paid_ballot","outputs":[],"stateMutability":"payable","type":"function"},{"inputs":[{"internalType":"address","name":"_candidate","type":"address"},{"internalType":"uint256","name":"_ballot_id","type":"uint256"}],"name":"vote_open_ballot","outputs":[],"stateMutability":"nonpayable","type":"function"},{"inputs":[{"internalType":"address","name":"_candidate","type":"address"},{"internalType":"uint256","name":"_ballot_id","type":"uint256"}],"name":"vote_open_paid_ballot","outputs":[],"stateMutability":"payable","type":"function"},{"inputs":[{"internalType":"uint256","name":"","type":"uint256"}],"name":"voter_ids","outputs":[{"internalType":"uint256","name":"","type":"uint256"}],"stateMutability":"view","type":"function"},{"inputs":[{"internalType":"address","name":"","type":"address"}],"name":"voter_to_unique_id","outputs":[{"internalType":"bytes32","name":"","type":"bytes32"}],"stateMutability":"view","type":"function"},{"inputs":[],"name":"voters_count","outputs":[{"internalType":"uint256","name":"","type":"uint256"}],"stateMutability":"view","type":"function"},{"inputs":[{"internalType":"bool","name":"_destroy","type":"bool"}],"name":"withdraw","outputs":[],"stateMutability":"nonpayable","type":"function"}],"bytecode":"6080604081905266038d7ea4c680006006556706f05b59d3b20000600755670138a388a43c000060085543600e5560036010819055601255601580546001600160a01b03191673dd870fa1b7c4700f2bd7f44238821c26f7392148179055620042ea388190039081908339810160408190526200007c9162000381565b600654341015620000d45760405162461bcd60e51b815260206004820152601b60248201527f537461727420616e20456c656374696f6e20776974682024353030000000000060448201526064015b60405180910390fd5b80518190620001265760405162461bcd60e51b815260206004820181905260248201527f456e74657220612076616c6964204f7267616e697a6174696f6e204e616d65216044820152606401620000cb565b6000600b55815162000140906014906020850190620002c5565b5060408051608081018252600b548152336020808301918252928201858152600160608401819052600080549182018155805283517f290decd9548b62a8d60345a988386fc84ba6bc95484008f6362f93160ef3e563600490920291820190815592517f290decd9548b62a8d60345a988386fc84ba6bc95484008f6362f93160ef3e564820180546001600160a01b0319166001600160a01b0390921691909117905590518051939485946200021d937f290decd9548b62a8d60345a988386fc84ba6bc95484008f6362f93160ef3e565019290910190620002c5565b50606091909101516003909101805460ff1916911515919091179055600b80549060006200024b836200045d565b909155505060168054336001600160a01b031991821681179092556017805490911690911790556000600a819055600c5560646013556040517f426d3b981ab9621b11442e8426474b504b726b0b86feaa5169fc28edb1ff90e390620002b490601490620004c4565b60405180910390a150505062000574565b828054620002d39062000487565b90600052602060002090601f016020900481019282620002f7576000855562000342565b82601f106200031257805160ff191683800117855562000342565b8280016001018555821562000342579182015b828111156200034257825182559160200191906001019062000325565b506200035092915062000354565b5090565b5b8082111562000350576000815560010162000355565b634e487b7160e01b600052604160045260246000fd5b600060208083850312156200039557600080fd5b82516001600160401b0380821115620003ad57600080fd5b818501915085601f830112620003c257600080fd5b815181811115620003d757620003d76200036b565b604051601f8201601f19908116603f011681019083821181831017156200040257620004026200036b565b8160405282815288868487010111156200041b57600080fd5b600093505b828410156200043f578484018601518185018701529285019262000420565b82841115620004515760008684830101525b98975050505050505050565b60006000198214156200048057634e487b7160e01b600052601160045260246000fd5b5060010190565b600181811c908216806200049c57607f821691505b60208210811415620004be57634e487b7160e01b600052602260045260246000fd5b50919050565b600060208083526000845481600182811c915080831680620004e757607f831692505b8583108114156200050657634e487b7160e01b85526022600452602485fd5b878601838152602001818015620005265760018114620005385762000565565b60ff1986168252878201965062000565565b60008b81526020902060005b868110156200055f5781548482015290850190890162000544565b83019750505b50949998505050505050505050565b613d6680620005846000396000f3fe60806040526004361061027d5760003560e01c80635f74bbde1161014f578063a810a54c116100c1578063d5f078751161007a578063d5f078751461081f578063d75a53f91461083f578063ddab08231461086c578063e6317e66146108e9578063f514ce3614610916578063f94c4a5f1461092c57600080fd5b8063a810a54c146106f2578063aed850cc14610712578063b5e9bb5f14610725578063bdad95d314610752578063c4a3c754146107bd578063c6eebb77146107f257600080fd5b806380e01f511161011357806380e01f511461065d57806386ea5e05146106735780638987076b146106865780638cc5581e146106a65780639249f3bc146106c65780639e6062fc146106dc57600080fd5b80635f74bbde146105ca57806361fa5267146105dd578063684c489f146105fd5780637654df471461061d57806377e9c4641461063d57600080fd5b806340dec728116101f357806351362325116101ac578063513623251461046b578063523f0e8c1461051757806353abced81461052d5780635470d0dd1461054d5780635c632b38146105635780635e6fef011461059a57600080fd5b806340dec728146103d3578063457852a8146103e95780634b3a4773146103065780634b3d4687146104095780634c66a0731461042957806350ec09301461044b57600080fd5b8063217cc6f511610245578063217cc6f514610326578063243dc409146103465780632c9e1f5b146103715780633d35caf7146103875780633e3bec801461039d578063403c1cc4146103bd57600080fd5b8063020a925a1461028257806305327793146102ab5780630732583c146102ce578063112819bd146102e45780631bbdb97714610306575b600080fd5b34801561028e57600080fd5b5061029860065481565b6040519081526020015b60405180910390f35b3480156102b757600080fd5b506102986102c63660046134d4565b600092915050565b3480156102da57600080fd5b50610298600b5481565b3480156102f057600080fd5b506103046102ff36600461350d565b610942565b005b610319610314366004613675565b610e94565b6040516102a29190613773565b34801561033257600080fd5b5061030461034136600461350d565b610f38565b610359610354366004613878565b6113d8565b6040516001600160a01b0390911681526020016102a2565b34801561037d57600080fd5b5061029860115481565b34801561039357600080fd5b5061029860085481565b3480156103a957600080fd5b506103596103b83660046134d4565b6115bf565b3480156103c957600080fd5b5061029860075481565b3480156103df57600080fd5b50610298600c5481565b3480156103f557600080fd5b50610304610404366004613878565b6115f7565b34801561041557600080fd5b5061035961042436600461350d565b61165f565b34801561043557600080fd5b5061043e61167b565b6040516102a29190613891565b34801561045757600080fd5b50601754610359906001600160a01b031681565b34801561047757600080fd5b506104d6610486366004613878565b601e602052600090815260409020805460018201546002830154600384015460049094015492936001600160a01b0390921692909160ff8082169261010083048216926201000090049091169087565b604080519788526001600160a01b03909616602088015294860193909352901515606085015215156080840152151560a083015260c082015260e0016102a2565b34801561052357600080fd5b50610298600d5481565b34801561053957600080fd5b50610304610548366004613878565b611709565b34801561055957600080fd5b5061029860125481565b34801561056f57600080fd5b5061058361057e366004613878565b61189f565b6040516102a29b9a999897969594939291906138ab565b3480156105a657600080fd5b506105ba6105b5366004613878565b6119aa565b6040516102a29493929190613920565b6103046105d836600461350d565b611a7c565b3480156105e957600080fd5b50601654610359906001600160a01b031681565b34801561060957600080fd5b50610298610618366004613878565b611aba565b34801561062957600080fd5b50610583610638366004613878565b611adb565b34801561064957600080fd5b5061030461065836600461395d565b611b03565b34801561066957600080fd5b50610298600a5481565b6103046106813660046139dc565b612334565b34801561069257600080fd5b506103196106a1366004613878565b612346565b3480156106b257600080fd5b506102986106c13660046134d4565b612353565b3480156106d257600080fd5b5061029860105481565b3480156106e857600080fd5b50610298600e5481565b3480156106fe57600080fd5b5061030461070d3660046139f7565b6127e0565b61030461072036600461350d565b61286f565b34801561073157600080fd5b506102986107403660046139dc565b601f6020526000908152604090205481565b34801561075e57600080fd5b506104d661076d3660046139dc565b601d602052600090815260409020805460018201546002830154600384015460049094015492936001600160a01b0390921692909160ff8082169261010083048216926201000090049091169087565b3480156107c957600080fd5b506103596107d8366004613878565b60208052600090815260409020546001600160a01b031681565b3480156107fe57600080fd5b5061081261080d366004613878565b612cf4565b6040516102a29190613a19565b34801561082b57600080fd5b5061058361083a3660046139dc565b612ec0565b34801561084b57600080fd5b5061085f61085a366004613878565b612ee8565b6040516102a29190613a69565b34801561087857600080fd5b506108ba6108873660046139dc565b601b602052600090815260409020805460018201546002830154600390930154919290916001600160a01b039091169084565b6040516102a2949392919093845260208401929092526001600160a01b03166040830152606082015260800190565b3480156108f557600080fd5b50610909610904366004613878565b613028565b6040516102a29190613ab6565b34801561092257600080fd5b5061029860135481565b34801561093857600080fd5b5061029860095481565b6016546001600160a01b031633148061096557506017546001600160a01b031633145b61098a5760405162461bcd60e51b815260040161098190613b47565b60405180910390fd5b6001548111156109ac5760405162461bcd60e51b815260040161098190613b90565b6000600182815481106109c1576109c1613bbc565b90600052602060002090600c0201604051806101a001604052908160008201548152602001600182015481526020016002820180546109ff90613bd2565b80601f0160208091040260200160405190810160405280929190818152602001828054610a2b90613bd2565b8015610a785780601f10610a4d57610100808354040283529160200191610a78565b820191906000526020600020905b815481529060010190602001808311610a5b57829003601f168201915b505050918352505060038201546001600160a01b03166020808301919091526004830180546040805182850281018501825282815294019392830182828015610aea57602002820191906000526020600020905b81546001600160a01b03168152600190910190602001808311610acc575b5050505050815260200160058201805480602002602001604051908101604052809291908181526020018280548015610b4c57602002820191906000526020600020905b81546001600160a01b03168152600190910190602001808311610b2e575b5050509183525050600682015460208201526007820154604082015260088201546060820152600982015460ff90811615156080830152600a83015460a0830152600b909201546001600160a01b03811660c0830152600160a01b9004909116151560e091820152810151909150600090601890603c908190610bcf9042613c1d565b610bd99190613c34565b610be39190613c34565b610bed9190613c34565b90508161010001518111610c3a5760405162461bcd60e51b8152602060048201526014602482015273546869732042616c6c6f7420457870697265642160601b6044820152606401610981565b600154610c825760405162461bcd60e51b81526020600482015260166024820152754e6f2062616c6c6f7473204f70656e6564205965742160501b6044820152606401610981565b336000908152601d60205260409020600201548314610cf15760405162461bcd60e51b815260206004820152602560248201527f566f74657220646f6573204e4f542062656c6f6e6720746f2074686973204261604482015264363637ba1760d91b6064820152608401610981565b60016011541015610d585760405162461bcd60e51b815260206004820152602b60248201527f54686973204f7074696f6e20697320506f737369626c6520696e206120436c6f60448201526a7365642042616c6c6f742160a81b6064820152608401610981565b336000908152601d602052604090206003015460ff161515600114610dbf5760405162461bcd60e51b815260206004820152601f60248201527f596f7520617265204e4f542061205265676973746572656420566f74657221006044820152606401610981565b336000908152601d6020526040902060030154610100900460ff1615610e325760405162461bcd60e51b815260206004820152602260248201527f4164647265737320616c72656164792068617320566f74696e67205269676874604482015261732160f01b6064820152608401610981565b336000908152601d6020908152604091829020600301805461ff00191661010017905590516001600160a01b03861681527f94055e6bcdfa83fa1f2cb2901fd22db9e96f758348742a662b752bc32b765800910160405180910390a150505050565b610e9c613368565b6016546001600160a01b0316331480610ebf57506017546001600160a01b031633145b610edb5760405162461bcd60e51b815260040161098190613b47565b600a8054906000610eeb83613c56565b91905055507f3302601c0b6ad9794207d2eb4a29c724db57c9348bf10dffcc98c9d89e6d9c526001600a54610f209190613c1d565b60405190815260200160405180910390a19392505050565b6000610f45606483613c1d565b9050600060196000848152602001908152602001600020604051806101a00160405290816000820154815260200160018201548152602001600282018054610f8c90613bd2565b80601f0160208091040260200160405190810160405280929190818152602001828054610fb890613bd2565b80156110055780601f10610fda57610100808354040283529160200191611005565b820191906000526020600020905b815481529060010190602001808311610fe857829003601f168201915b505050918352505060038201546001600160a01b0316602080830191909152600483018054604080518285028101850182528281529401939283018282801561107757602002820191906000526020600020905b81546001600160a01b03168152600190910190602001808311611059575b50505050508152602001600582018054806020026020016040519081016040528092919081815260200182805480156110d957602002820191906000526020600020905b81546001600160a01b031681526001909101906020018083116110bb575b505050918352505060068201546020808301919091526007830154604083015260088301546060830152600983015460ff90811615156080840152600a84015460a0840152600b909301546001600160a01b0380821660c0850152600160a01b909104909316151560e090920191909152908616610160830152810151909150156111a65760405162461bcd60e51b815260206004820152601760248201527f5468697320497320616e204f70656e2042616c6c6f74210000000000000000006044820152606401610981565b336000908152601d602052604090206003015460ff16151560011461120d5760405162461bcd60e51b815260206004820152601860248201527f506c6561736520526567697374657220746f20566f74652100000000000000006044820152606401610981565b336000908152601d602052604090206003015462010000900460ff16156112765760405162461bcd60e51b815260206004820152601b60248201527f596f7520616c7265616479204341535420796f757220566f74652100000000006044820152606401610981565b60008381526019602052604090205483146112c85760405162461bcd60e51b8152602060048201526012602482015271496e76616c69642042616c6c6f742049642160701b6044820152606401610981565b6001600160a01b0384166000908152601b602052604090206001015483146113025760405162461bcd60e51b815260040161098190613c71565b6101208101511561134a5760405162461bcd60e51b815260206004820152601260248201527110985b1b1bdd081a185cc8115e1c1a5c995960721b6044820152606401610981565b61135484826132b3565b506001600160a01b0384166000908152601b6020526040812060030180549161137c83613c56565b9091555050336000908152601d6020526040808220600301805462ff0000191662010000179055516001600160a01b038616917faec2ccae8681fd01ad220ecb7e9b5f7d485b1cc3cc01599acb1578016b30a6bd91a250505050565b60008060016113e8606485613c1d565b815481106113f8576113f8613bbc565b90600052602060002090600c0201905060006018603c8084600701544261141f9190613c1d565b6114299190613c34565b6114339190613c34565b61143d9190613c34565b9050816008015481106114925760405162461bcd60e51b815260206004820152601a60248201527f546869732042616c6c6f74206973207374696c6c204f70656e210000000000006044820152606401610981565b6007543410156114e45760405162461bcd60e51b815260206004820152601760248201527f47657420726573756c74732077697468203120455448210000000000000000006044820152606401610981565b600a548411156115425760405162461bcd60e51b815260206004820152602360248201527f42616c6c6f742077697468207468617420496420646f6573204e4f542065786960448201526273742160e81b6064820152608401610981565b600b820154600160a01b900460ff161515600114156115a457600b820154604051600160a01b90910460ff16151581527faf9c5487a5254285c7e0cb270c5884fb3c73e8bf058e80fc0cf380dc6908fac69060200160405180910390a16115b8565b50600b01546001600160a01b031692915050565b5050919050565b601a60205281600052604060002081815481106115db57600080fd5b6000918252602090912001546001600160a01b03169150829050565b6015546001600160a01b0316331461160e57600080fd5b6015546040516001600160a01b03909116904780156108fc02916000818181858888f19350505050158015611647573d6000803e3d6000fd5b50600061165382612cf4565b60006060909101525050565b601c60205281600052604060002081815481106115db57600080fd5b6014805461168890613bd2565b80601f01602080910402602001604051908101604052809291908181526020018280546116b490613bd2565b80156117015780601f106116d657610100808354040283529160200191611701565b820191906000526020600020905b8154815290600101906020018083116116e457829003601f168201915b505050505081565b6016546001600160a01b031633146117635760405162461bcd60e51b815260206004820152601a60248201527f596f7520646f6e2774204f574e20746869732042616c6c6f74210000000000006044820152606401610981565b60006001611772606484613c1d565b8154811061178257611782613bbc565b90600052602060002090600c0201905060006018603c808460070154426117a99190613c1d565b6117b39190613c34565b6117bd9190613c34565b6117c79190613c34565b90508160080154811061181c5760405162461bcd60e51b815260206004820152601f60248201527f546869732042616c6c6f74206973204e4f5420796574204578706972656421006044820152606401610981565b6016546040516001600160a01b03909116904780156108fc02916000818181858888f19350505050158015611855573d6000803e3d6000fd5b505060099081018054600160ff1991821681179092553360009081526018602090815260408083208601805485168617905595825260199052939093209091018054909216179055565b600181815481106118af57600080fd5b90600052602060002090600c02016000915090508060000154908060010154908060020180546118de90613bd2565b80601f016020809104026020016040519081016040528092919081815260200182805461190a90613bd2565b80156119575780601f1061192c57610100808354040283529160200191611957565b820191906000526020600020905b81548152906001019060200180831161193a57829003601f168201915b50505060038401546006850154600786015460088701546009880154600a890154600b9099015497986001600160a01b0395861698949750929550909360ff9182169390811691600160a01b909104168b565b600081815481106119ba57600080fd5b60009182526020909120600490910201805460018201546002830180549294506001600160a01b0390911692916119f090613bd2565b80601f0160208091040260200160405190810160405280929190818152602001828054611a1c90613bd2565b8015611a695780601f10611a3e57610100808354040283529160200191611a69565b820191906000526020600020905b815481529060010190602001808311611a4c57829003601f168201915b5050506003909301549192505060ff1684565b600d54611a9157611a8d8282610f38565b5050565b600d5460011415611aa657611a8d828261286f565b600d5460021415611a8d57611a8d82612334565b600f8181548110611aca57600080fd5b600091825260209091200154905081565b601960205260009081526040902080546001820154600283018054929391926118de90613bd2565b6016546001600160a01b0316331480611b2657506017546001600160a01b031633145b611b425760405162461bcd60e51b815260040161098190613b47565b84518590611b925760405162461bcd60e51b815260206004820152601a60248201527f456e74657220612076616c69642042616c6c6f74204e616d65210000000000006044820152606401610981565b6001855111611be35760405162461bcd60e51b815260206004820152601d60248201527f4e6f7420456e6f7567682042616c6c6f742043616e64696461746573210000006044820152606401610981565b601054841115611c355760405162461bcd60e51b815260206004820152601860248201527f4e6f7420612076616c69642042616c6c6f7420547970652100000000000000006044820152606401610981565b601254600a5410611cae5760405162461bcd60e51b815260206004820152603c60248201527f596f752068617665207265616368656420746865204d6178204c696d6974206f60448201527f662042616c6c6f747320666f72207468697320456c656374696f6e21000000006064820152608401610981565b818311611d085760405162461bcd60e51b815260206004820152602260248201527f526567697374726174696f6e20506572696f64203e20566f74696e6720446179604482015261732160f01b6064820152608401610981565b6013546000908152601a602090815260409091208651611d2a928801906133e6565b50845160005b81811015611e0957600060405180608001604052808381526020016013548152602001898481518110611d6557611d65613bbc565b60200260200101516001600160a01b031681526020016000815250905080601b60008a8581518110611d9957611d99613bbc565b6020908102919091018101516001600160a01b03908116835282820193909352604091820160002084518155908401516001820155908301516002820180546001600160a01b03191691909316179091556060909101516003909101555080611e0181613c56565b915050611d30565b50601680546001600160a01b031916339081179091558651600955604080516101a081018252601354815260208082018990528183018b905260608201939093526080810189905260058054835181860281018601909452808452600094929360a085019390929190830182828015611eab57602002820191906000526020600020905b81546001600160a01b03168152600190910190602001808311611e8d575b50505091835250506000602080830182905242604080850191909152606084018a90526080840183905260a0840189905260c0840183905260e0909301829052600180548082018255925283517fb10e2d527612073b26eecdfd717e6a320cf44b4afac2b0732d9fcbe2b7fa0cf6600c909302928301908155848201517fb10e2d527612073b26eecdfd717e6a320cf44b4afac2b0732d9fcbe2b7fa0cf78401559284015180519495508594611f88937fb10e2d527612073b26eecdfd717e6a320cf44b4afac2b0732d9fcbe2b7fa0cf80192919091019061344b565b5060608201516003820180546001600160a01b0319166001600160a01b0390921691909117905560808201518051611fca9160048401916020909101906133e6565b5060a08201518051611fe69160058401916020909101906133e6565b5060c0820151600682015560e08201516007820155610100820151600882015561012082015160098201805460ff1916911515919091179055610140820151600a820155610160820151600b9091018054610180909301516001600160a01b039092166001600160a81b031990931692909217600160a01b9115159190910217905533600090815260186020908152604091829020835181558382015160018201559183015180518493926120a292600285019291019061344b565b5060608201516003820180546001600160a01b0319166001600160a01b03909216919091179055608082015180516120e49160048401916020909101906133e6565b5060a082015180516121009160058401916020909101906133e6565b5060c0820151600682015560e08201516007820155610100820151600882015561012082015160098201805460ff1916911515919091179055610140820151600a820155610160820151600b9091018054610180909301516001600160a01b039092166001600160a81b031990931692909217600160a01b91151591909102179055601354600090815260196020908152604091829020835181558382015160018201559183015180518493926121be92600285019291019061344b565b5060608201516003820180546001600160a01b0319166001600160a01b03909216919091179055608082015180516122009160048401916020909101906133e6565b5060a0820151805161221c9160058401916020909101906133e6565b5060c0820151600682015560e08201516007820155610100820151600882015561012082015160098201805460ff1916911515919091179055610140820151600a820155610160820151600b9091018054610180909301516001600160a01b039092166001600160a81b031990931692909217600160a01b91151591909102179055336000908152601c6020908152604090912088516122be928a01906133e6565b50600a80549060006122cf83613c56565b9091555050601380549060006122e483613c56565b91905055507f3302601c0b6ad9794207d2eb4a29c724db57c9348bf10dffcc98c9d89e6d9c526001600a546123199190613c1d565b60405190815260200160405180910390a15050505050505050565b600d5460021461234357600080fd5b50565b61234e613368565b919050565b600080612361606484613c1d565b905060125481106123ad5760405162461bcd60e51b81526020600482015260166024820152754e6f20737563682042616c6c6f74204578697374732160501b6044820152606401610981565b6000600182815481106123c2576123c2613bbc565b90600052602060002090600c0201905060008160070154426123e49190613c1d565b905081600a0154620151806123f99190613cb4565b81106124475760405162461bcd60e51b815260206004820152601f60248201527f526567697374726174696f6e20506572696f64206861732050617373656421006044820152606401610981565b60088201546124599062015180613cb4565b811061249e5760405162461bcd60e51b8152602060048201526014602482015273546869732042616c6c6f7420457870697265642160601b6044820152606401610981565b60008681526020805260409020546001600160a01b0316156125025760405162461bcd60e51b815260206004820152601d60248201527f546869732069645f6e756d6265722069732072656769737465726564210000006044820152606401610981565b336000908152601f60205260409020541561255f5760405162461bcd60e51b815260206004820152601760248201527f596f7520616c72656164792072656769737465726564210000000000000000006044820152606401610981565b60008660405160200161257491815260200190565b60405160208183030381529060405280519060200120905080601f6000336001600160a01b03166001600160a01b031681526020019081526020016000208190555060006040518060e00160405280600c548152602001336001600160a01b0316815260200186815260200160011515815260200160011515815260200160001515815260200183815250905080601d6000336001600160a01b03166001600160a01b031681526020019081526020016000206000820151816000015560208201518160010160006101000a8154816001600160a01b0302191690836001600160a01b031602179055506040820151816002015560608201518160030160006101000a81548160ff02191690831515021790555060808201518160030160016101000a81548160ff02191690831515021790555060a08201518160030160026101000a81548160ff02191690831515021790555060c0820151816004015590505080601e60008781526020019081526020016000206000820151816000015560208201518160010160006101000a8154816001600160a01b0302191690836001600160a01b031602179055506040820151816002015560608201518160030160006101000a81548160ff02191690831515021790555060808201518160030160016101000a81548160ff02191690831515021790555060a08201518160030160026101000a81548160ff02191690831515021790555060c082015181600401559050508360060160008154809291906127ac90613c56565b9091555050506000878152602080526040902080546001600160a01b0319163317905593506127da92505050565b92915050565b6015546001600160a01b031633146127f757600080fd5b8015612836576015546040516001600160a01b03909116904780156108fc02916000818181858888f19350505050158015611a8d573d6000803e3d6000fd5b6015546040516001600160a01b03909116904780156108fc02916000818181858888f19350505050158015611a8d573d6000803e3d6000fd5b60006001828154811061288457612884613bbc565b90600052602060002090600c0201604051806101a001604052908160008201548152602001600182015481526020016002820180546128c290613bd2565b80601f01602080910402602001604051908101604052809291908181526020018280546128ee90613bd2565b801561293b5780601f106129105761010080835404028352916020019161293b565b820191906000526020600020905b81548152906001019060200180831161291e57829003601f168201915b505050918352505060038201546001600160a01b031660208083019190915260048301805460408051828502810185018252828152940193928301828280156129ad57602002820191906000526020600020905b81546001600160a01b0316815260019091019060200180831161298f575b5050505050815260200160058201805480602002602001604051908101604052809291908181526020018280548015612a0f57602002820191906000526020600020905b81546001600160a01b031681526001909101906020018083116129f1575b505050918352505060068201546020808301919091526007830154604083015260088301546060830152600983015460ff90811615156080840152600a84015460a0840152600b909301546001600160a01b0380821660c0850152600160a01b909104909316151560e090920191909152908516610160830152810151909150600114612ade5760405162461bcd60e51b815260206004820152601c60248201527f5468697320497320616e204f70656e20506169642042616c6c6f7421000000006044820152606401610981565b600854341015612b285760405162461bcd60e51b81526020600482015260156024820152744361737420766f746520776974682031204554482160581b6044820152606401610981565b336000908152601d60205260409020600301805461ffff1916610101179081905562010000900460ff1615612b9f5760405162461bcd60e51b815260206004820152601b60248201527f596f7520616c7265616479206361737420796f757220766f74652100000000006044820152606401610981565b43600e541115612be65760405162461bcd60e51b8152602060048201526012602482015271546869732042616c6c6f7420456e6465642160701b6044820152606401610981565b6001600160a01b0383166000908152601b6020526040902060010154821415612c215760405162461bcd60e51b815260040161098190613c71565b6101608101516001600160a01b039081166000908152601b6020526040808220600390810154938716835291200154612c5b906001613cd3565b1115612c72576001600160a01b0383166101608201525b6001600160a01b0383166000908152601b60205260408120600301805491612c9983613c56565b9091555050336000908152601d6020526040808220600301805462ff0000191662010000179055516001600160a01b038516917faec2ccae8681fd01ad220ecb7e9b5f7d485b1cc3cc01599acb1578016b30a6bd91a2505050565b612d2a60405180608001604052806000815260200160006001600160a01b03168152602001606081526020016000151581525090565b6016546001600160a01b0316331480612d4d57506017546001600160a01b031633145b612d695760405162461bcd60e51b815260040161098190613b47565b600154821115612db25760405162461bcd60e51b8152602060048201526014602482015273496e76616c696420656c656374696f6e2049642160601b6044820152606401610981565b60008281548110612dc557612dc5613bbc565b9060005260206000209060040201604051806080016040529081600082015481526020016001820160009054906101000a90046001600160a01b03166001600160a01b03166001600160a01b03168152602001600282018054612e2790613bd2565b80601f0160208091040260200160405190810160405280929190818152602001828054612e5390613bd2565b8015612ea05780601f10612e7557610100808354040283529160200191612ea0565b820191906000526020600020905b815481529060010190602001808311612e8357829003601f168201915b50505091835250506003919091015460ff16151560209091015292915050565b601860205260009081526040902080546001820154600283018054929391926118de90613bd2565b600154606090821115612f0d5760405162461bcd60e51b815260040161098190613b90565b600060018381548110612f2257612f22613bbc565b90600052602060002090600c02019050806001015460001415612fc45760018381548110612f5257612f52613bbc565b90600052602060002090600c0201600401805480602002602001604051908101604052809291908181526020018280548015612fb757602002820191906000526020600020905b81546001600160a01b03168152600190910190602001808311612f99575b5050505050915050919050565b6001816001015410613022576016546001600160a01b0316331480612ff357506017546001600160a01b031633145b61300f5760405162461bcd60e51b815260040161098190613ceb565b60018381548110612f5257612f52613bbc565b50919050565b60015460609082111561304d5760405162461bcd60e51b815260040161098190613b90565b60006001838154811061306257613062613bbc565b90600052602060002090600c0201604051806101a001604052908160008201548152602001600182015481526020016002820180546130a090613bd2565b80601f01602080910402602001604051908101604052809291908181526020018280546130cc90613bd2565b80156131195780601f106130ee57610100808354040283529160200191613119565b820191906000526020600020905b8154815290600101906020018083116130fc57829003601f168201915b505050918352505060038201546001600160a01b0316602080830191909152600483018054604080518285028101850182528281529401939283018282801561318b57602002820191906000526020600020905b81546001600160a01b0316815260019091019060200180831161316d575b50505050508152602001600582018054806020026020016040519081016040528092919081815260200182805480156131ed57602002820191906000526020600020905b81546001600160a01b031681526001909101906020018083116131cf575b505050918352505060068201546020808301919091526007830154604083015260088301546060830152600983015460ff90811615156080840152600a84015460a0840152600b909301546001600160a01b03811660c0840152600160a01b9004909216151560e09091015281015190915061326857613022565b6001816020015110613022576016546001600160a01b031633148061329757506017546001600160a01b031633145b6130225760405162461bcd60e51b815260040161098190613ceb565b6101608101516001600160a01b039081166000908152601b6020526040808220600390810154938616835290822001549091906132f1906001613cd3565b1115613314576001600160a01b038316610160830152600061018083015261335d565b6101608201516001600160a01b039081166000908152601b602052604080822060039081015493871683529120015461334e906001613cd3565b141561335d5760016101808301525b506101800151919050565b604051806101a0016040528060008152602001600081526020016060815260200160006001600160a01b0316815260200160608152602001606081526020016000815260200160008152602001600081526020016000151581526020016000815260200160006001600160a01b031681526020016000151581525090565b82805482825590600052602060002090810192821561343b579160200282015b8281111561343b57825182546001600160a01b0319166001600160a01b03909116178255602090920191600190910190613406565b506134479291506134bf565b5090565b82805461345790613bd2565b90600052602060002090601f016020900481019282613479576000855561343b565b82601f1061349257805160ff191683800117855561343b565b8280016001018555821561343b579182015b8281111561343b5782518255916020019190600101906134a4565b5b8082111561344757600081556001016134c0565b600080604083850312156134e757600080fd5b50508035926020909101359150565b80356001600160a01b038116811461234e57600080fd5b6000806040838503121561352057600080fd5b613529836134f6565b946020939093013593505050565b634e487b7160e01b600052604160045260246000fd5b604051601f8201601f1916810167ffffffffffffffff8111828210171561357657613576613537565b604052919050565b600082601f83011261358f57600080fd5b813567ffffffffffffffff8111156135a9576135a9613537565b6135bc601f8201601f191660200161354d565b8181528460208386010111156135d157600080fd5b816020850160208301376000918101602001919091529392505050565b600082601f8301126135ff57600080fd5b8135602067ffffffffffffffff82111561361b5761361b613537565b8160051b61362a82820161354d565b928352848101820192828101908785111561364457600080fd5b83870192505b8483101561366a5761365b836134f6565b8252918301919083019061364a565b979650505050505050565b60008060006060848603121561368a57600080fd5b833567ffffffffffffffff808211156136a257600080fd5b6136ae8783880161357e565b945060208601359150808211156136c457600080fd5b506136d1868287016135ee565b925050604084013590509250925092565b6000815180845260005b81811015613708576020818501810151868301820152016136ec565b8181111561371a576000602083870101525b50601f01601f19169290920160200192915050565b600081518084526020808501945080840160005b838110156137685781516001600160a01b031687529582019590820190600101613743565b509495945050505050565b602081528151602082015260208201516040820152600060408301516101a08060608501526137a66101c08501836136e2565b915060608501516137c260808601826001600160a01b03169052565b506080850151601f19808685030160a08701526137df848361372f565b935060a08701519150808685030160c0870152506137fd838261372f565b92505060c085015160e085015260e085015161010081818701528087015191505061012081818701528087015191505061014061383d8187018315159052565b860151610160868101919091528601519050610180613866818701836001600160a01b03169052565b90950151151593019290925250919050565b60006020828403121561388a57600080fd5b5035919050565b6020815260006138a460208301846136e2565b9392505050565b60006101608d83528c60208401528060408401526138cb8184018d6136e2565b6001600160a01b039b8c166060850152608084019a909a52505060a081019690965260c086019490945291151560e0850152610100840152909316610120820152911515610140909201919091529392505050565b8481526001600160a01b038416602082015260806040820181905260009061394a908301856136e2565b9050821515606083015295945050505050565b600080600080600060a0868803121561397557600080fd5b853567ffffffffffffffff8082111561398d57600080fd5b61399989838a0161357e565b965060208801359150808211156139af57600080fd5b506139bc888289016135ee565b959895975050505060408401359360608101359360809091013592509050565b6000602082840312156139ee57600080fd5b6138a4826134f6565b600060208284031215613a0957600080fd5b813580151581146138a457600080fd5b602081528151602082015260018060a01b0360208301511660408201526000604083015160806060840152613a5160a08401826136e2565b90506060840151151560808401528091505092915050565b6020808252825182820181905260009190848201906040850190845b81811015613aaa5783516001600160a01b031683529284019291840191600101613a85565b50909695505050505050565b602080825282518282018190526000919060409081850190868401855b82811015613b3a57815180518552868101516001600160a01b031687860152858101518686015260608082015115159086015260808082015115159086015260a08082015115159086015260c0908101519085015260e09093019290850190600101613ad3565b5091979650505050505050565b60208082526029908201527f496e73756666696369656e74205065726d697373696f6e7320666f72207468696040820152687320416374696f6e2160b81b606082015260800190565b602080825260129082015271496e76616c69642062616c6c6f742049642160701b604082015260600190565b634e487b7160e01b600052603260045260246000fd5b600181811c90821680613be657607f821691505b6020821081141561302257634e487b7160e01b600052602260045260246000fd5b634e487b7160e01b600052601160045260246000fd5b600082821015613c2f57613c2f613c07565b500390565b600082613c5157634e487b7160e01b600052601260045260246000fd5b500490565b6000600019821415613c6a57613c6a613c07565b5060010190565b60208082526023908201527f43616e64696461746520646f6573206e6f7420657869737420696e2042616c6c6040820152626f742160e81b606082015260800190565b6000816000190483118215151615613cce57613cce613c07565b500290565b60008219821115613ce657613ce6613c07565b500190565b60208082526025908201527f596f75206e656564205065726d697373696f6e7320666f72207468697320416360408201526474696f6e2160d81b60608201526080019056fea26469706673582212202b43b978ac52e28519181cd06b3c142042bb00dbd5b30d871069bd2b2edf532264736f6c63430008080033","bytecodeSha1":"e4b54b3ae8f14ef4b823a1f5f344c43c8737e659","compiler":{"evm_version":"istanbul","optimizer":{"enabled":true,"runs":200},"version":"0.8.8+commit.dddeac2f"},"contractName":"JamiiFactory","language":"Solidity","natspec":{"kind":"dev","methods":{},"version":1},"opcodes":"PUSH1 0x80 PUSH1 0x40 MSTORE PUSH1 0x4 CALLDATASIZE LT PUSH2 0x27D JUMPI PUSH1 0x0 CALLDATALOAD PUSH1 0xE0 SHR DUP1 PUSH4 0x5F74BBDE GT PUSH2 0x14F JUMPI DUP1 PUSH4 0xA810A54C GT PUSH2 0xC1 JUMPI DUP1 PUSH4 0xD5F07875 GT PUSH2 0x7A JUMPI DUP1 PUSH4 0xD5F07875 EQ PUSH2 0x81F JUMPI DUP1 PUSH4 0xD75A53F9 EQ PUSH2 0x83F JUMPI DUP1 PUSH4 0xDDAB0823 EQ PUSH2 0x86C JUMPI DUP1 PUSH4 0xE6317E66 EQ PUSH2 0x8E9 JUMPI DUP1 PUSH4 0xF514CE36 EQ PUSH2 0x916 JUMPI DUP1 PUSH4 0xF94C4A5F EQ PUSH2 0x92C JUMPI PUSH1 0x0 DUP1 REVERT JUMPDEST DUP1 PUSH4 0xA810A54C EQ PUSH2 0x6F2 JUMPI DUP1 PUSH4 0xAED850CC EQ PUSH2 0x712 JUMPI DUP1 PUSH4 0xB5E9BB5F EQ PUSH2 0x725 JUMPI DUP1 PUSH4 0xBDAD95D3 EQ PUSH2 0x752 JUMPI DUP1 PUSH4 0xC4A3C754 EQ PUSH2 0x7BD JUMPI DUP1 PUSH4 0xC6EEBB77 EQ PUSH2 0x7F2 JUMPI PUSH1 0x0 DUP1 REVERT JUMPDEST DUP1 PUSH4 0x80E01F51 GT PUSH2 0x113 JUMPI DUP1 PUSH4 0x80E01F51 EQ PUSH2 0x65D JUMPI DUP1 PUSH4 0x86EA5E05 EQ PUSH2 0x673 JUMPI DUP1 PUSH4 0x8987076B EQ PUSH2 0x686 JUMPI DUP1 PUSH4 0x8CC5581E EQ PUSH2 0x6A6 JUMPI DUP1 PUSH4 0x9249F3BC EQ PUSH2 0x6C6 JUMPI DUP1 PUSH4 0x9E6062FC EQ PUSH2 0x6DC JUMPI PUSH1 0x0 DUP1 REVERT JUMPDEST DUP1 PUSH4 0x5F74BBDE EQ PUSH2 0x5CA JUMPI DUP1 PUSH4 0x61FA5267 EQ PUSH2 0x5DD JUMPI DUP1 PUSH4 0x684C489F EQ PUSH2 0x5FD JUMPI DUP1 PUSH4 0x7654DF47 EQ PUSH2 0x61D JUMPI DUP1 PUSH4 0x77E9C464 EQ PUSH2 0x63D JUMPI PUSH1 0x0 DUP1 REVERT JUMPDEST DUP1 PUSH4 0x40DEC728 GT PUSH2 0x1F3 JUMPI DUP1 PUSH4 0x51362325 GT PUSH2 0x1AC JUMPI DUP1 PUSH4 0x51362325 EQ PUSH2 0x46B JUMPI DUP1 PUSH4 0x523F0E8C EQ PUSH2 0x517 JUMPI DUP1 PUSH4 0x53ABCED8 EQ PUSH2 0x52D JUMPI DUP1 PUSH4 0x5470D0DD EQ PUSH2 0x54D JUMPI DUP1 PUSH4 0x5C632B38 EQ PUSH2 0x563 JUMPI DUP1 PUSH4 0x5E6FEF01 EQ PUSH2 0x59A JUMPI PUSH1 0x0 DUP1 REVERT JUMPDEST DUP1 PUSH4 0x40DEC728 EQ PUSH2 0x3D3 JUMPI DUP1 PUSH4 0x457852A8 EQ PUSH2 0x3E9 JUMPI DUP1 PUSH4 0x4B3A4773 EQ PUSH2 0x306 JUMPI DUP1 PUSH4 0x4B3D4687 EQ PUSH2 0x409 JUMPI DUP1 PUSH4 0x4C66A073 EQ PUSH2 0x429 JUMPI DUP1 PUSH4 0x50EC0930 EQ PUSH2 0x44B JUMPI PUSH1 0x0 DUP1 REVERT JUMPDEST DUP1 PUSH4 0x217CC6F5 GT PUSH2 0x245 JUMPI DUP1 PUSH4 0x217CC6F5 EQ PUSH2 0x326 JUMPI DUP1 PUSH4 0x243DC409 EQ PUSH2 0x346 JUMPI DUP1 PUSH4 0x2C9E1F5B EQ PUSH2 0x371 JUMPI DUP1 PUSH4 0x3D35CAF7 EQ PUSH2 0x387 JUMPI DUP1 PUSH4 0x3E3BEC80 EQ PUSH2 0x39D JUMPI DUP1 PUSH4 0x403C1CC4 EQ PUSH2 0x3BD JUMPI PUSH1 0x0 DUP1 REVERT JUMPDEST DUP1 PUSH4 0x20A925A EQ PUSH2 0x282 JUMPI DUP1 PUSH4 0x5327793 EQ PUSH2 0x2AB JUMPI DUP1 PUSH4 0x732583C EQ PUSH2 0x2CE JUMPI DUP1 PUSH4 0x112819BD EQ PUSH2 0x2E4 JUMPI DUP1 PUSH4 0x1BBDB977 EQ PUSH2 0x306 JUMPI JUMPDEST PUSH1 0x0 DUP1 REVERT JUMPDEST CALLVALUE DUP1 ISZERO PUSH2 0x28E JUMPI PUSH1 0x0 DUP1 REVERT JUMPDEST POP PUSH2 0x298 PUSH1 0x6 SLOAD DUP2 JUMP JUMPDEST PUSH1 0x40 MLOAD SWAP1 DUP2 MSTORE PUSH1 0x20 ADD JUMPDEST PUSH1 0x40 MLOAD DUP1 SWAP2 SUB SWAP1 RETURN JUMPDEST CALLVALUE DUP1 ISZERO PUSH2 0x2B7 JUMPI PUSH1 0x0 DUP1 REVERT JUMPDEST POP PUSH2 0x298 PUSH2 0x2C6 CALLDATASIZE PUSH1 0x4 PUSH2 0x34D4 JUMP JUMPDEST PUSH1 0x0 SWAP3 SWAP2 POP POP JUMP JUMPDEST CALLVALUE DUP1 ISZERO PUSH2 0x2DA JUMPI PUSH1 0x0 DUP1 REVERT JUMPDEST POP PUSH2 0x298 PUSH1 0xB SLOAD DUP2 JUMP JUMPDEST CALLVALUE DUP1 ISZERO PUSH2 0x2F0 JUMPI PUSH1 0x0 DUP1 REVERT JUMPDEST POP PUSH2 0x304 PUSH2 0x2FF CALLDATASIZE PUSH1 0x4 PUSH2 0x350D JUMP JUMPDEST PUSH2 0x942 JUMP JUMPDEST STOP JUMPDEST PUSH2 0x319 PUSH2 0x314 CALLDATASIZE PUSH1 0x4 PUSH2 0x3675 JUMP JUMPDEST PUSH2 0xE94 JUMP JUMPDEST PUSH1 0x40 MLOAD PUSH2 0x2A2 SWAP2 SWAP1 PUSH2 0x3773 JUMP JUMPDEST CALLVALUE DUP1 ISZERO PUSH2 0x332 JUMPI PUSH1 0x0 DUP1 REVERT JUMPDEST POP PUSH2 0x304 PUSH2 0x341 CALLDATASIZE PUSH1 0x4 PUSH2 0x350D JUMP JUMPDEST PUSH2 0xF38 JUMP JUMPDEST PUSH2 0x359 PUSH2 0x354 CALLDATASIZE PUSH1 0x4 PUSH2 0x3878 JUMP JUMPDEST PUSH2 0x13D8 JUMP JUMPDEST PUSH1 0x40 MLOAD PUSH1 0x1 PUSH1 0x1 PUSH1 0xA0 SHL SUB SWAP1 SWAP2 AND DUP2 MSTORE PUSH1 0x20 ADD PUSH2 0x2A2 JUMP JUMPDEST CALLVALUE DUP1 ISZERO PUSH2 0x37D JUMPI PUSH1 0x0 DUP1 REVERT JUMPDEST POP PUSH2 0x298 PUSH1 0x11 SLOAD DUP2 JUMP JUMPDEST CALLVALUE DUP1 ISZERO PUSH2 0x393 JUMPI PUSH1 0x0 DUP1 REVERT JUMPDEST POP PUSH2 0x298 PUSH1 0x8 SLOAD DUP2 JUMP JUMPDEST CALLVALUE DUP1 ISZERO PUSH2 0x3A9 JUMPI PUSH1 0x0 DUP1 REVERT JUMPDEST POP PUSH2 0x359 PUSH2 0x3B8 CALLDATASIZE PUSH1 0x4 PUSH2 0x34D4 JUMP JUMPDEST PUSH2 0x15BF JUMP JUMPDEST CALLVALUE DUP1 ISZERO PUSH2 0x3C9 JUMPI PUSH1 0x0 DUP1 REVERT JUMPDEST POP PUSH2 0x298 PUSH1 0x7 SLOAD DUP2 JUMP JUMPDEST CALLVALUE DUP1 ISZERO PUSH2 0x3DF JUMPI PUSH1 0x0 DUP1 REVERT JUMPDEST POP PUSH2 0x298 PUSH1 0xC SLOAD DUP2 JUMP JUMPDEST CALLVALUE DUP1 ISZERO PUSH2 0x3F5 JUMPI PUSH1 0x0 DUP1 REVERT JUMPDEST POP PUSH2 0x304 PUSH2 0x404 CALLDATASIZE PUSH1 0x4 PUSH2 0x3878 JUMP JUMPDEST PUSH2 0x15F7 JUMP JUMPDEST CALLVALUE DUP1 ISZERO PUSH2 0x415 JUMPI PUSH1 0x0 DUP1 REVERT JUMPDEST POP PUSH2 0x359 PUSH2 0x424 CALLDATASIZE PUSH1 0x4 PUSH2 0x350D JUMP JUMPDEST PUSH2 0x165F JUMP JUMPDEST CALLVALUE DUP1 ISZERO PUSH2 0x435 JUMPI PUSH1 0x0 DUP1 REVERT JUMPDEST POP PUSH2 0x43E PUSH2 0x167B JUMP JUMPDEST PUSH1 0x40 MLOAD PUSH2 0x2A2 SWAP2 SWAP1 PUSH2 0x3891 JUMP JUMPDEST CALLVALUE DUP1 ISZERO PUSH2 0x457 JUMPI PUSH1 0x0 DUP1 REVERT JUMPDEST POP PUSH1 0x17 SLOAD PUSH2 0x359 SWAP1 PUSH1 0x1 PUSH1 0x1 PUSH1 0xA0 SHL SUB AND DUP2 JUMP JUMPDEST CALLVALUE DUP1 ISZERO PUSH2 0x477 JUMPI PUSH1 0x0 DUP1 REVERT JUMPDEST POP PUSH2 0x4D6 PUSH2 0x486 CALLDATASIZE PUSH1 0x4 PUSH2 0x3878 JUMP JUMPDEST PUSH1 0x1E PUSH1 0x20 MSTORE PUSH1 0x0 SWAP1 DUP2 MSTORE PUSH1 0x40 SWAP1 KECCAK256 DUP1 SLOAD PUSH1 0x1 DUP3 ADD SLOAD PUSH1 0x2 DUP4 ADD SLOAD PUSH1 0x3 DUP5 ADD SLOAD PUSH1 0x4 SWAP1 SWAP5 ADD SLOAD SWAP3 SWAP4 PUSH1 0x1 PUSH1 0x1 PUSH1 0xA0 SHL SUB SWAP1 SWAP3 AND SWAP3 SWAP1 SWAP2 PUSH1 0xFF DUP1 DUP3 AND SWAP3 PUSH2 0x100 DUP4 DIV DUP3 AND SWAP3 PUSH3 0x10000 SWAP1 DIV SWAP1 SWAP2 AND SWAP1 DUP8 JUMP JUMPDEST PUSH1 0x40 DUP1 MLOAD SWAP8 DUP9 MSTORE PUSH1 0x1 PUSH1 0x1 PUSH1 0xA0 SHL SUB SWAP1 SWAP7 AND PUSH1 0x20 DUP9 ADD MSTORE SWAP5 DUP7 ADD SWAP4 SWAP1 SWAP4 MSTORE SWAP1 ISZERO ISZERO PUSH1 0x60 DUP6 ADD MSTORE ISZERO ISZERO PUSH1 0x80 DUP5 ADD MSTORE ISZERO ISZERO PUSH1 0xA0 DUP4 ADD MSTORE PUSH1 0xC0 DUP3 ADD MSTORE PUSH1 0xE0 ADD PUSH2 0x2A2 JUMP JUMPDEST CALLVALUE DUP1 ISZERO PUSH2 0x523 JUMPI PUSH1 0x0 DUP1 REVERT JUMPDEST POP PUSH2 0x298 PUSH1 0xD SLOAD DUP2 JUMP JUMPDEST CALLVALUE DUP1 ISZERO PUSH2 0x539 JUMPI PUSH1 0x0 DUP1 REVERT JUMPDEST POP PUSH2 0x304 PUSH2 0x548 CALLDATASIZE PUSH1 0x4 PUSH2 0x3878 JUMP JUMPDEST PUSH2 0x1709 JUMP JUMPDEST CALLVALUE DUP1 ISZERO PUSH2 0x559 JUMPI PUSH1 0x0 DUP1 REVERT JUMPDEST POP PUSH2 0x298 PUSH1 0x12 SLOAD DUP2 JUMP JUMPDEST CALLVALUE DUP1 ISZERO PUSH2 0x56F JUMPI PUSH1 0x0 DUP1 REVERT JUMPDEST POP PUSH2 0x583 PUSH2 0x57E CALLDATASIZE PUSH1 0x4 PUSH2 0x3878 JUMP JUMPDEST PUSH2 0x189F JUMP JUMPDEST PUSH1 0x40 MLOAD PUSH2 0x2A2 SWAP12 SWAP11 SWAP10 SWAP9 SWAP8 SWAP7 SWAP6 SWAP5 SWAP4 SWAP3 SWAP2 SWAP1 PUSH2 0x38AB JUMP JUMPDEST CALLVALUE DUP1 ISZERO PUSH2 0x5A6 JUMPI PUSH1 0x0 DUP1 REVERT JUMPDEST POP PUSH2 0x5BA PUSH2 0x5B5 CALLDATASIZE PUSH1 0x4 PUSH2 0x3878 JUMP JUMPDEST PUSH2 0x19AA JUMP JUMPDEST PUSH1 0x40 MLOAD PUSH2 0x2A2 SWAP5 SWAP4 SWAP3 SWAP2 SWAP1 PUSH2 0x3920 JUMP JUMPDEST PUSH2 0x304 PUSH2 0x5D8 CALLDATASIZE PUSH1 0x4 PUSH2 0x350D JUMP JUMPDEST PUSH2 0x1A7C JUMP JUMPDEST CALLVALUE DUP1 ISZERO PUSH2 0x5E9 JUMPI PUSH1 0x0 DUP1 REVERT JUMPDEST POP PUSH1 0x16 SLOAD PUSH2 0x359 SWAP1 PUSH1 0x1 PUSH1 0x1 PUSH1 0xA0 SHL SUB AND DUP2 JUMP JUMPDEST CALLVALUE DUP1 ISZERO PUSH2 0x609 JUMPI PUSH1 0x0 DUP1 REVERT JUMPDEST POP PUSH2 0x298 PUSH2 0x618 CALLDATASIZE PUSH1 0x4 PUSH2 0x3878 JUMP JUMPDEST PUSH2 0x1ABA JUMP JUMPDEST CALLVALUE DUP1 ISZERO PUSH2 0x629 JUMPI PUSH1 0x0 DUP1 REVERT JUMPDEST POP PUSH2 0x583 PUSH2 0x638 CALLDATASIZE PUSH1 0x4 PUSH2 0x3878 JUMP JUMPDEST PUSH2 0x1ADB JUMP JUMPDEST CALLVALUE DUP1 ISZERO PUSH2 0x649 JUMPI PUSH1 0x0 DUP1 REVERT JUMPDEST POP PUSH2 0x304 PUSH2 0x658 CALLDATASIZE PUSH1 0x4 PUSH2 0x395D JUMP JUMPDEST PUSH2 0x1B03 JUMP JUMPDEST CALLVALUE DUP1 ISZERO PUSH2 0x669 JUMPI PUSH1 0x0 DUP1 REVERT JUMPDEST POP PUSH2 0x298 PUSH1 0xA SLOAD DUP2 JUMP JUMPDEST PUSH2 0x304 PUSH2 0x681 CALLDATASIZE PUSH1 0x4 PUSH2 0x39DC JUMP JUMPDEST PUSH2 0x2334 JUMP JUMPDEST CALLVALUE DUP1 ISZERO PUSH2 0x692 JUMPI PUSH1 0x0 DUP1 REVERT JUMPDEST POP PUSH2 0x319 PUSH2 0x6A1 CALLDATASIZE PUSH1 0x4 PUSH2 0x3878 JUMP JUMPDEST PUSH2 0x2346 JUMP JUMPDEST CALLVALUE DUP1 ISZERO PUSH2 0x6B2 JUMPI PUSH1 0x0 DUP1 REVERT JUMPDEST POP PUSH2 0x298 PUSH2 0x6C1 CALLDATASIZE PUSH1 0x4 PUSH2 0x34D4 JUMP JUMPDEST PUSH2 0x2353 JUMP JUMPDEST CALLVALUE DUP1 ISZERO PUSH2 0x6D2 JUMPI PUSH1 0x0 DUP1 REVERT JUMPDEST POP PUSH2 0x298 PUSH1 0x10 SLOAD DUP2 JUMP JUMPDEST CALLVALUE DUP1 ISZERO PUSH2 0x6E8 JUMPI PUSH1 0x0 DUP1 REVERT JUMPDEST POP PUSH2 0x298 PUSH1 0xE SLOAD DUP2 JUMP JUMPDEST CALLVALUE DUP1 ISZERO PUSH2 0x6FE JUMPI PUSH1 0x0 DUP1 REVERT JUMPDEST POP PUSH2 0x304 PUSH2 0x70D CALLDATASIZE PUSH1 0x4 PUSH2 0x39F7 JUMP JUMPDEST PUSH2 0x27E0 JUMP JUMPDEST PUSH2 0x304 PUSH2 0x720 CALLDATASIZE PUSH1 0x4 PUSH2 0x350D JUMP JUMPDEST PUSH2 0x286F JUMP JUMPDEST CALLVALUE DUP1 ISZERO PUSH2 0x731 JUMPI PUSH1 0x0 DUP1 REVERT JUMPDEST POP PUSH2 0x298 PUSH2 0x740 CALLDATASIZE PUSH1 0x4 PUSH2 0x39DC JUMP JUMPDEST PUSH1 0x1F PUSH1 0x20 MSTORE PUSH1 0x0 SWAP1 DUP2 MSTORE PUSH1 0x40 SWAP1 KECCAK256 SLOAD DUP2 JUMP JUMPDEST CALLVALUE DUP1 ISZERO PUSH2 0x75E JUMPI PUSH1 0x0 DUP1 REVERT JUMPDEST POP PUSH2 0x4D6 PUSH2 0x76D CALLDATASIZE PUSH1 0x4 PUSH2 0x39DC JUMP JUMPDEST PUSH1 0x1D PUSH1 0x20 MSTORE PUSH1 0x0 SWAP1 DUP2 MSTORE PUSH1 0x40 SWAP1 KECCAK256 DUP1 SLOAD PUSH1 0x1 DUP3 ADD SLOAD PUSH1 0x2 DUP4 ADD SLOAD PUSH1 0x3 DUP5 ADD SLOAD PUSH1 0x4 SWAP1 SWAP5 ADD SLOAD SWAP3 SWAP4 PUSH1 0x1 PUSH1 0x1 PUSH1 0xA0 SHL SUB SWAP1 SWAP3 AND SWAP3 SWAP1 SWAP2 PUSH1 0xFF DUP1 DUP3 AND SWAP3 PUSH2 0x100 DUP4 DIV DUP3 AND SWAP3 PUSH3 0x10000 SWAP1 DIV SWAP1 SWAP2 AND SWAP1 DUP8 JUMP JUMPDEST CALLVALUE DUP1 ISZERO PUSH2 0x7C9 JUMPI PUSH1 0x0 DUP1 REVERT JUMPDEST POP PUSH2 0x359 PUSH2 0x7D8 CALLDATASIZE PUSH1 0x4 PUSH2 0x3878 JUMP JUMPDEST PUSH1 0x20 DUP1 MSTORE PUSH1 0x0 SWAP1 DUP2 MSTORE PUSH1 0x40 SWAP1 KECCAK256 SLOAD PUSH1 0x1 PUSH1 0x1 PUSH1 0xA0 SHL SUB AND DUP2 JUMP JUMPDEST CALLVALUE DUP1 ISZERO PUSH2 0x7FE JUMPI PUSH1 0x0 DUP1 REVERT JUMPDEST POP PUSH2 0x812 PUSH2 0x80D CALLDATASIZE PUSH1 0x4 PUSH2 0x3878 JUMP JUMPDEST PUSH2 0x2CF4 JUMP JUMPDEST PUSH1 0x40 MLOAD PUSH2 0x2A2 SWAP2 SWAP1 PUSH2 0x3A19 JUMP JUMPDEST CALLVALUE DUP1 ISZERO PUSH2 0x82B JUMPI PUSH1 0x0 DUP1 REVERT JUMPDEST POP PUSH2 0x583 PUSH2 0x83A CALLDATASIZE PUSH1 0x4 PUSH2 0x39DC JUMP JUMPDEST PUSH2 0x2EC0 JUMP JUMPDEST CALLVALUE DUP1 ISZERO PUSH2 0x84B JUMPI PUSH1 0x0 DUP1 REVERT JUMPDEST POP PUSH2 0x85F PUSH2 0x85A CALLDATASIZE PUSH1 0x4 PUSH2 0x3878 JUMP JUMPDEST PUSH2 0x2EE8 JUMP JUMPDEST PUSH1 0x40 MLOAD PUSH2 0x2A2 SWAP2 SWAP1 PUSH2 0x3A69 JUMP JUMPDEST CALLVALUE DUP1 ISZERO PUSH2 0x878 JUMPI PUSH1 0x0 DUP1 REVERT JUMPDEST POP PUSH2 0x8BA PUSH2 0x887 CALLDATASIZE PUSH1 0x4 PUSH2 0x39DC JUMP JUMPDEST PUSH1 0x1B PUSH1 0x20 MSTORE PUSH1 0x0 SWAP1 DUP2 MSTORE PUSH1 0x40 SWAP1 KECCAK256 DUP1 SLOAD PUSH1 0x1 DUP3 ADD SLOAD PUSH1 0x2 DUP4 ADD SLOAD PUSH1 0x3 SWAP1 SWAP4 ADD SLOAD SWAP2 SWAP3 SWAP1 SWAP2 PUSH1 0x1 PUSH1 0x1 PUSH1 0xA0 SHL SUB SWAP1 SWAP2 AND SWAP1 DUP5 JUMP JUMPDEST PUSH1 0x40 MLOAD PUSH2 0x2A2 SWAP5 SWAP4 SWAP3 SWAP2 SWAP1 SWAP4 DUP5 MSTORE PUSH1 0x20 DUP5 ADD SWAP3 SWAP1 SWAP3 MSTORE PUSH1 0x1 PUSH1 0x1 PUSH1 0xA0 SHL SUB AND PUSH1 0x40 DUP4 ADD MSTORE PUSH1 0x60 DUP3 ADD MSTORE PUSH1 0x80 ADD SWAP1 JUMP JUMPDEST CALLVALUE DUP1 ISZERO PUSH2 0x8F5 JUMPI PUSH1 0x0 DUP1 REVERT JUMPDEST POP PUSH2 0x909 PUSH2 0x904 CALLDATASIZE PUSH1 0x4 PUSH2 0x3878 JUMP JUMPDEST PUSH2 0x3028 JUMP JUMPDEST PUSH1 0x40 MLOAD PUSH2 0x2A2 SWAP2 SWAP1 PUSH2 0x3AB6 JUMP JUMPDEST CALLVALUE DUP1 ISZERO PUSH2 0x922 JUMPI PUSH1 0x0 DUP1 REVERT JUMPDEST POP PUSH2 0x298 PUSH1 0x13 SLOAD DUP2 JUMP JUMPDEST CALLVALUE DUP1 ISZERO PUSH2 0x938 JUMPI PUSH1 0x0 DUP1 REVERT JUMPDEST POP PUSH2 0x298 PUSH1 0x9 SLOAD DUP2 JUMP JUMPDEST PUSH1 0x16 SLOAD PUSH1 0x1 PUSH1 0x1 PUSH1 0xA0 SHL SUB AND CALLER EQ DUP1 PUSH2 0x965 JUMPI POP PUSH1 0x17 SLOAD PUSH1 0x1 PUSH1 0x1 PUSH1 0xA0 SHL SUB AND CALLER EQ JUMPDEST PUSH2 0x98A JUMPI PUSH1 0x40 MLOAD PUSH3 0x461BCD PUSH1 0xE5 SHL DUP2 MSTORE PUSH1 0x4 ADD PUSH2 0x981 SWAP1 PUSH2 0x3B47 JUMP JUMPDEST PUSH1 0x40 MLOAD DUP1 SWAP2 SUB SWAP1 REVERT JUMPDEST PUSH1 0x1 SLOAD DUP2 GT ISZERO PUSH2 0x9AC JUMPI PUSH1 0x40 MLOAD PUSH3 0x461BCD PUSH1 0xE5 SHL DUP2 MSTORE PUSH1 0x4 ADD PUSH2 0x981 SWAP1 PUSH2 0x3B90 JUMP JUMPDEST PUSH1 0x0 PUSH1 0x1 DUP3 DUP2 SLOAD DUP2 LT PUSH2 0x9C1 JUMPI PUSH2 0x9C1 PUSH2 0x3BBC JUMP JUMPDEST SWAP1 PUSH1 0x0 MSTORE PUSH1 0x20 PUSH1 0x0 KECCAK256 SWAP1 PUSH1 0xC MUL ADD PUSH1 0x40 MLOAD DUP1 PUSH2 0x1A0 ADD PUSH1 0x40 MSTORE SWAP1 DUP2 PUSH1 0x0 DUP3 ADD SLOAD DUP2 MSTORE PUSH1 0x20 ADD PUSH1 0x1 DUP3 ADD SLOAD DUP2 MSTORE PUSH1 0x20 ADD PUSH1 0x2 DUP3 ADD DUP1 SLOAD PUSH2 0x9FF SWAP1 PUSH2 0x3BD2 JUMP JUMPDEST DUP1 PUSH1 0x1F ADD PUSH1 0x20 DUP1 SWAP2 DIV MUL PUSH1 0x20 ADD PUSH1 0x40 MLOAD SWAP1 DUP2 ADD PUSH1 0x40 MSTORE DUP1 SWAP3 SWAP2 SWAP1 DUP2 DUP2 MSTORE PUSH1 0x20 ADD DUP3 DUP1 SLOAD PUSH2 0xA2B SWAP1 PUSH2 0x3BD2 JUMP JUMPDEST DUP1 ISZERO PUSH2 0xA78 JUMPI DUP1 PUSH1 0x1F LT PUSH2 0xA4D JUMPI PUSH2 0x100 DUP1 DUP4 SLOAD DIV MUL DUP4 MSTORE SWAP2 PUSH1 0x20 ADD SWAP2 PUSH2 0xA78 JUMP JUMPDEST DUP3 ADD SWAP2 SWAP1 PUSH1 0x0 MSTORE PUSH1 0x20 PUSH1 0x0 KECCAK256 SWAP1 JUMPDEST DUP2 SLOAD DUP2 MSTORE SWAP1 PUSH1 0x1 ADD SWAP1 PUSH1 0x20 ADD DUP1 DUP4 GT PUSH2 0xA5B JUMPI DUP3 SWAP1 SUB PUSH1 0x1F AND DUP3 ADD SWAP2 JUMPDEST POP POP POP SWAP2 DUP4 MSTORE POP POP PUSH1 0x3 DUP3 ADD SLOAD PUSH1 0x1 PUSH1 0x1 PUSH1 0xA0 SHL SUB AND PUSH1 0x20 DUP1 DUP4 ADD SWAP2 SWAP1 SWAP2 MSTORE PUSH1 0x4 DUP4 ADD DUP1 SLOAD PUSH1 0x40 DUP1 MLOAD DUP3 DUP6 MUL DUP2 ADD DUP6 ADD DUP3 MSTORE DUP3 DUP2 MSTORE SWAP5 ADD SWAP4 SWAP3 DUP4 ADD DUP3 DUP3 DUP1 ISZERO PUSH2 0xAEA JUMPI PUSH1 0x20 MUL DUP3 ADD SWAP2 SWAP1 PUSH1 0x0 MSTORE PUSH1 0x20 PUSH1 0x0 KECCAK256 SWAP1 JUMPDEST DUP2 SLOAD PUSH1 0x1 PUSH1 0x1 PUSH1 0xA0 SHL SUB AND DUP2 MSTORE PUSH1 0x1 SWAP1 SWAP2 ADD SWAP1 PUSH1 0x20 ADD DUP1 DUP4 GT PUSH2 0xACC JUMPI JUMPDEST POP POP POP POP POP DUP2 MSTORE PUSH1 0x20 ADD PUSH1 0x5 DUP3 ADD DUP1 SLOAD DUP1 PUSH1 0x20 MUL PUSH1 0x20 ADD PUSH1 0x40 MLOAD SWAP1 DUP2 ADD PUSH1 0x40 MSTORE DUP1 SWAP3 SWAP2 SWAP1 DUP2 DUP2 MSTORE PUSH1 0x20 ADD DUP3 DUP1 SLOAD DUP1 ISZERO PUSH2 0xB4C JUMPI PUSH1 0x20 MUL DUP3 ADD SWAP2 SWAP1 PUSH1 0x0 MSTORE PUSH1 0x20 PUSH1 0x0 KECCAK256 SWAP1 JUMPDEST DUP2 SLOAD PUSH1 0x1 PUSH1 0x1 PUSH1 0xA0 SHL SUB AND DUP2 MSTORE PUSH1 0x1 SWAP1 SWAP2 ADD SWAP1 PUSH1 0x20 ADD DUP1 DUP4 GT PUSH2 0xB2E JUMPI JUMPDEST POP POP POP SWAP2 DUP4 MSTORE POP POP PUSH1 0x6 DUP3 ADD SLOAD PUSH1 0x20 DUP3 ADD MSTORE PUSH1 0x7 DUP3 ADD SLOAD PUSH1 0x40 DUP3 ADD MSTORE PUSH1 0x8 DUP3 ADD SLOAD PUSH1 0x60 DUP3 ADD MSTORE PUSH1 0x9 DUP3 ADD SLOAD PUSH1 0xFF SWAP1 DUP2 AND ISZERO ISZERO PUSH1 0x80 DUP4 ADD MSTORE PUSH1 0xA DUP4 ADD SLOAD PUSH1 0xA0 DUP4 ADD MSTORE PUSH1 0xB SWAP1 SWAP3 ADD SLOAD PUSH1 0x1 PUSH1 0x1 PUSH1 0xA0 SHL SUB DUP2 AND PUSH1 0xC0 DUP4 ADD MSTORE PUSH1 0x1 PUSH1 0xA0 SHL SWAP1 DIV SWAP1 SWAP2 AND ISZERO ISZERO PUSH1 0xE0 SWAP2 DUP3 ADD MSTORE DUP2 ADD MLOAD SWAP1 SWAP2 POP PUSH1 0x0 SWAP1 PUSH1 0x18 SWAP1 PUSH1 0x3C SWAP1 DUP2 SWAP1 PUSH2 0xBCF SWAP1 TIMESTAMP PUSH2 0x3C1D JUMP JUMPDEST PUSH2 0xBD9 SWAP2 SWAP1 PUSH2 0x3C34 JUMP JUMPDEST PUSH2 0xBE3 SWAP2 SWAP1 PUSH2 0x3C34 JUMP JUMPDEST PUSH2 0xBED SWAP2 SWAP1 PUSH2 0x3C34 JUMP JUMPDEST SWAP1 POP DUP2 PUSH2 0x100 ADD MLOAD DUP2 GT PUSH2 0xC3A JUMPI PUSH1 0x40 MLOAD PUSH3 0x461BCD PUSH1 0xE5 SHL DUP2 MSTORE PUSH1 0x20 PUSH1 0x4 DUP3 ADD MSTORE PUSH1 0x14 PUSH1 0x24 DUP3 ADD MSTORE PUSH20 0x546869732042616C6C6F74204578706972656421 PUSH1 0x60 SHL PUSH1 0x44 DUP3 ADD MSTORE PUSH1 0x64 ADD PUSH2 0x981 JUMP JUMPDEST PUSH1 0x1 SLOAD PUSH2 0xC82 JUMPI PUSH1 0x40 MLOAD PUSH3 0x461BCD PUSH1 0xE5 SHL DUP2 MSTORE PUSH1 0x20 PUSH1 0x4 DUP3 ADD MSTORE PUSH1 0x16 PUSH1 0x24 DUP3 ADD MSTORE PUSH22 0x4E6F2062616C6C6F7473204F70656E65642059657421 PUSH1 0x50 SHL PUSH1 0x44 DUP3 ADD MSTORE PUSH1 0x64 ADD PUSH2 0x981 JUMP JUMPDEST CALLER PUSH1 0x0 SWAP1 DUP2 MSTORE PUSH1 0x1D PUSH1 0x20 MSTORE PUSH1 0x40 SWAP1 KECCAK256 PUSH1 0x2 ADD SLOAD DUP4 EQ PUSH2 0xCF1 JUMPI PUSH1 0x40 MLOAD PUSH3 0x461BCD PUSH1 0xE5 SHL DUP2 MSTORE PUSH1 0x20 PUSH1 0x4 DUP3 ADD MSTORE PUSH1 0x25 PUSH1 0x24 DUP3 ADD MSTORE PUSH32 0x566F74657220646F6573204E4F542062656C6F6E6720746F2074686973204261 PUSH1 0x44 DUP3 ADD MSTORE PUSH5 0x363637BA17 PUSH1 0xD9 SHL PUSH1 0x64 DUP3 ADD MSTORE PUSH1 0x84 ADD PUSH2 0x981 JUMP JUMPDEST PUSH1 0x1 PUSH1 0x11 SLOAD LT ISZERO PUSH2 0xD58 JUMPI PUSH1 0x40 MLOAD PUSH3 0x461BCD PUSH1 0xE5 SHL DUP2 MSTORE PUSH1 0x20 PUSH1 0x4 DUP3 ADD MSTORE PUSH1 0x2B PUSH1 0x24 DUP3 ADD MSTORE PUSH32 0x54686973204F7074696F6E20697320506F737369626C6520696E206120436C6F PUSH1 0x44 DUP3 ADD MSTORE PUSH11 0x7365642042616C6C6F7421 PUSH1 0xA8 SHL PUSH1 0x64 DUP3 ADD MSTORE PUSH1 0x84 ADD PUSH2 0x981 JUMP JUMPDEST CALLER PUSH1 0x0 SWAP1 DUP2 MSTORE PUSH1 0x1D PUSH1 0x20 MSTORE PUSH1 0x40 SWAP1 KECCAK256 PUSH1 0x3 ADD SLOAD PUSH1 0xFF AND ISZERO ISZERO PUSH1 0x1 EQ PUSH2 0xDBF JUMPI PUSH1 0x40 MLOAD PUSH3 0x461BCD PUSH1 0xE5 SHL DUP2 MSTORE PUSH1 0x20 PUSH1 0x4 DUP3 ADD MSTORE PUSH1 0x1F PUSH1 0x24 DUP3 ADD MSTORE PUSH32 0x596F7520617265204E4F542061205265676973746572656420566F7465722100 PUSH1 0x44 DUP3 ADD MSTORE PUSH1 0x64 ADD PUSH2 0x981 JUMP JUMPDEST CALLER PUSH1 0x0 SWAP1 DUP2 MSTORE PUSH1 0x1D PUSH1 0x20 MSTORE PUSH1 0x40 SWAP1 KECCAK256 PUSH1 0x3 ADD SLOAD PUSH2 0x100 SWAP1 DIV PUSH1 0xFF AND ISZERO PUSH2 0xE32 JUMPI PUSH1 0x40 MLOAD PUSH3 0x461BCD PUSH1 0xE5 SHL DUP2 MSTORE PUSH1 0x20 PUSH1 0x4 DUP3 ADD MSTORE PUSH1 0x22 PUSH1 0x24 DUP3 ADD MSTORE PUSH32 0x4164647265737320616C72656164792068617320566F74696E67205269676874 PUSH1 0x44 DUP3 ADD MSTORE PUSH2 0x7321 PUSH1 0xF0 SHL PUSH1 0x64 DUP3 ADD MSTORE PUSH1 0x84 ADD PUSH2 0x981 JUMP JUMPDEST CALLER PUSH1 0x0 SWAP1 DUP2 MSTORE PUSH1 0x1D PUSH1 0x20 SWAP1 DUP2 MSTORE PUSH1 0x40 SWAP2 DUP3 SWAP1 KECCAK256 PUSH1 0x3 ADD DUP1 SLOAD PUSH2 0xFF00 NOT AND PUSH2 0x100 OR SWAP1 SSTORE SWAP1 MLOAD PUSH1 0x1 PUSH1 0x1 PUSH1 0xA0 SHL SUB DUP7 AND DUP2 MSTORE PUSH32 0x94055E6BCDFA83FA1F2CB2901FD22DB9E96F758348742A662B752BC32B765800 SWAP2 ADD PUSH1 0x40 MLOAD DUP1 SWAP2 SUB SWAP1 LOG1 POP POP POP POP JUMP JUMPDEST PUSH2 0xE9C PUSH2 0x3368 JUMP JUMPDEST PUSH1 0x16 SLOAD PUSH1 0x1 PUSH1 0x1 PUSH1 0xA0 SHL SUB AND CALLER EQ DUP1 PUSH2 0xEBF JUMPI POP PUSH1 0x17 SLOAD PUSH1 0x1 PUSH1 0x1 PUSH1 0xA0 SHL SUB AND CALLER EQ JUMPDEST PUSH2 0xEDB JUMPI PUSH1 0x40 MLOAD PUSH3 0x461BCD PUSH1 0xE5 SHL DUP2 MSTORE PUSH1 0x4 ADD PUSH2 0x981 SWAP1 PUSH2 0x3B47 JUMP JUMPDEST PUSH1 0xA DUP1 SLOAD SWAP1 PUSH1 0x0 PUSH2 0xEEB DUP4 PUSH2 0x3C56 JUMP JUMPDEST SWAP2 SWAP1 POP SSTORE POP PUSH32 0x3302601C0B6AD9794207D2EB4A29C724DB57C9348BF10DFFCC98C9D89E6D9C52 PUSH1 0x1 PUSH1 0xA SLOAD PUSH2 0xF20 SWAP2 SWAP1 PUSH2 0x3C1D JUMP JUMPDEST PUSH1 0x40 MLOAD SWAP1 DUP2 MSTORE PUSH1 0x20 ADD PUSH1 0x40 MLOAD DUP1 SWAP2 SUB SWAP1 LOG1 SWAP4 SWAP3 POP POP POP JUMP JUMPDEST PUSH1 0x0 PUSH2 0xF45 PUSH1 0x64 DUP4 PUSH2 0x3C1D JUMP JUMPDEST SWAP1 POP PUSH1 0x0 PUSH1 0x19 PUSH1 0x0 DUP5 DUP2 MSTORE PUSH1 0x20 ADD SWAP1 DUP2 MSTORE PUSH1 0x20 ADD PUSH1 0x0 KECCAK256 PUSH1 0x40 MLOAD DUP1 PUSH2 0x1A0 ADD PUSH1 0x40 MSTORE SWAP1 DUP2 PUSH1 0x0 DUP3 ADD SLOAD DUP2 MSTORE PUSH1 0x20 ADD PUSH1 0x1 DUP3 ADD SLOAD DUP2 MSTORE PUSH1 0x20 ADD PUSH1 0x2 DUP3 ADD DUP1 SLOAD PUSH2 0xF8C SWAP1 PUSH2 0x3BD2 JUMP JUMPDEST DUP1 PUSH1 0x1F ADD PUSH1 0x20 DUP1 SWAP2 DIV MUL PUSH1 0x20 ADD PUSH1 0x40 MLOAD SWAP1 DUP2 ADD PUSH1 0x40 MSTORE DUP1 SWAP3 SWAP2 SWAP1 DUP2 DUP2 MSTORE PUSH1 0x20 ADD DUP3 DUP1 SLOAD PUSH2 0xFB8 SWAP1 PUSH2 0x3BD2 JUMP JUMPDEST DUP1 ISZERO PUSH2 0x1005 JUMPI DUP1 PUSH1 0x1F LT PUSH2 0xFDA JUMPI PUSH2 0x100 DUP1 DUP4 SLOAD DIV MUL DUP4 MSTORE SWAP2 PUSH1 0x20 ADD SWAP2 PUSH2 0x1005 JUMP JUMPDEST DUP3 ADD SWAP2 SWAP1 PUSH1 0x0 MSTORE PUSH1 0x20 PUSH1 0x0 KECCAK256 SWAP1 JUMPDEST DUP2 SLOAD DUP2 MSTORE SWAP1 PUSH1 0x1 ADD SWAP1 PUSH1 0x20 ADD DUP1 DUP4 GT PUSH2 0xFE8 JUMPI DUP3 SWAP1 SUB PUSH1 0x1F AND DUP3 ADD SWAP2 JUMPDEST POP POP POP SWAP2 DUP4 MSTORE POP POP PUSH1 0x3 DUP3 ADD SLOAD PUSH1 0x1 PUSH1 0x1 PUSH1 0xA0 SHL SUB AND PUSH1 0x20 DUP1 DUP4 ADD SWAP2 SWAP1 SWAP2 MSTORE PUSH1 0x4 DUP4 ADD DUP1 SLOAD PUSH1 0x40 DUP1 MLOAD DUP3 DUP6 MUL DUP2 ADD DUP6 ADD DUP3 MSTORE DUP3 DUP2 MSTORE SWAP5 ADD SWAP4 SWAP3 DUP4 ADD DUP3 DUP3 DUP1 ISZERO PUSH2 0x1077 JUMPI PUSH1 0x20 MUL DUP3 ADD SWAP2 SWAP1 PUSH1 0x0 MSTORE PUSH1 0x20 PUSH1 0x0 KECCAK256 SWAP1 JUMPDEST DUP2 SLOAD PUSH1 0x1 PUSH1 0x1 PUSH1 0xA0 SHL SUB AND DUP2 MSTORE PUSH1 0x1 SWAP1 SWAP2 ADD SWAP1 PUSH1 0x20 ADD DUP1 DUP4 GT PUSH2 0x1059 JUMPI JUMPDEST POP POP POP POP POP DUP2 MSTORE PUSH1 0x20 ADD PUSH1 0x5 DUP3 ADD DUP1 SLOAD DUP1 PUSH1 0x20 MUL PUSH1 0x20 ADD PUSH1 0x40 MLOAD SWAP1 DUP2 ADD PUSH1 0x40 MSTORE DUP1 SWAP3 SWAP2 SWAP1 DUP2 DUP2 MSTORE PUSH1 0x20 ADD DUP3 DUP1 SLOAD DUP1 ISZERO PUSH2 0x10D9 JUMPI PUSH1 0x20 MUL DUP3 ADD SWAP2 SWAP1 PUSH1 0x0 MSTORE PUSH1 0x20 PUSH1 0x0 KECCAK256 SWAP1 JUMPDEST DUP2 SLOAD PUSH1 0x1 PUSH1 0x1 PUSH1 0xA0 SHL SUB AND DUP2 MSTORE PUSH1 0x1 SWAP1 SWAP2 ADD SWAP1 PUSH1 0x20 ADD DUP1 DUP4 GT PUSH2 0x10BB JUMPI JUMPDEST POP POP POP SWAP2 DUP4 MSTORE POP POP PUSH1 0x6 DUP3 ADD SLOAD PUSH1 0x20 DUP1 DUP4 ADD SWAP2 SWAP1 SWAP2 MSTORE PUSH1 0x7 DUP4 ADD SLOAD PUSH1 0x40 DUP4 ADD MSTORE PUSH1 0x8 DUP4 ADD SLOAD PUSH1 0x60 DUP4 ADD MSTORE PUSH1 0x9 DUP4 ADD SLOAD PUSH1 0xFF SWAP1 DUP2 AND ISZERO ISZERO PUSH1 0x80 DUP5 ADD MSTORE PUSH1 0xA DUP5 ADD SLOAD PUSH1 0xA0 DUP5 ADD MSTORE PUSH1 0xB SWAP1 SWAP4 ADD SLOAD PUSH1 0x1 PUSH1 0x1 PUSH1 0xA0 SHL SUB DUP1 DUP3 AND PUSH1 0xC0 DUP6 ADD MSTORE PUSH1 0x1 PUSH1 0xA0 SHL SWAP1 SWAP2 DIV SWAP1 SWAP4 AND ISZERO ISZERO PUSH1 0xE0 SWAP1 SWAP3 ADD SWAP2 SWAP1 SWAP2 MSTORE SWAP1 DUP7 AND PUSH2 0x160 DUP4 ADD MSTORE DUP2 ADD MLOAD SWAP1 SWAP2 POP ISZERO PUSH2 0x11A6 JUMPI PUSH1 0x40 MLOAD PUSH3 0x461BCD PUSH1 0xE5 SHL DUP2 MSTORE PUSH1 0x20 PUSH1 0x4 DUP3 ADD MSTORE PUSH1 0x17 PUSH1 0x24 DUP3 ADD MSTORE PUSH32 0x5468697320497320616E204F70656E2042616C6C6F7421000000000000000000 PUSH1 0x44 DUP3 ADD MSTORE PUSH1 0x64 ADD PUSH2 0x981 JUMP JUMPDEST CALLER PUSH1 0x0 SWAP1 DUP2 MSTORE PUSH1 0x1D PUSH1 0x20 MSTORE PUSH1 0x40 SWAP1 KECCAK256 PUSH1 0x3 ADD SLOAD PUSH1 0xFF AND ISZERO ISZERO PUSH1 0x1 EQ PUSH2 0x120D JUMPI PUSH1 0x40 MLOAD PUSH3 0x461BCD PUSH1 0xE5 SHL DUP2 MSTORE PUSH1 0x20 PUSH1 0x4 DUP3 ADD MSTORE PUSH1 0x18 PUSH1 0x24 DUP3 ADD MSTORE PUSH32 0x506C6561736520526567697374657220746F20566F7465210000000000000000 PUSH1 0x44 DUP3 ADD MSTORE PUSH1 0x64 ADD PUSH2 0x981 JUMP JUMPDEST CALLER PUSH1 0x0 SWAP1 DUP2 MSTORE PUSH1 0x1D PUSH1 0x20 MSTORE PUSH1 0x40 SWAP1 KECCAK256 PUSH1 0x3 ADD SLOAD PUSH3 0x10000 SWAP1 DIV PUSH1 0xFF AND ISZERO PUSH2 0x1276 JUMPI PUSH1 0x40 MLOAD PUSH3 0x461BCD PUSH1 0xE5 SHL DUP2 MSTORE PUSH1 0x20 PUSH1 0x4 DUP3 ADD MSTORE PUSH1 0x1B PUSH1 0x24 DUP3 ADD MSTORE PUSH32 0x596F7520616C7265616479204341535420796F757220566F7465210000000000 PUSH1 0x44 DUP3 ADD MSTORE PUSH1 0x64 ADD PUSH2 0x981 JUMP JUMPDEST PUSH1 0x0 DUP4 DUP2 MSTORE PUSH1 0x19 PUSH1 0x20 MSTORE PUSH1 0x40 SWAP1 KECCAK256 SLOAD DUP4 EQ PUSH2 0x12C8 JUMPI PUSH1 0x40 MLOAD PUSH3 0x461BCD PUSH1 0xE5 SHL DUP2 MSTORE PUSH1 0x20 PUSH1 0x4 DUP3 ADD MSTORE PUSH1 0x12 PUSH1 0x24 DUP3 ADD MSTORE PUSH18 0x496E76616C69642042616C6C6F7420496421 PUSH1 0x70 SHL PUSH1 0x44 DUP3 ADD MSTORE PUSH1 0x64 ADD PUSH2 0x981 JUMP JUMPDEST PUSH1 0x1 PUSH1 0x1 PUSH1 0xA0 SHL SUB DUP5 AND PUSH1 0x0 SWAP1 DUP2 MSTORE PUSH1 0x1B PUSH1 0x20 MSTORE PUSH1 0x40 SWAP1 KECCAK256 PUSH1 0x1 ADD SLOAD DUP4 EQ PUSH2 0x1302 JUMPI PUSH1 0x40 MLOAD PUSH3 0x461BCD PUSH1 0xE5 SHL DUP2 MSTORE PUSH1 0x4 ADD PUSH2 0x981 SWAP1 PUSH2 0x3C71 JUMP JUMPDEST PUSH2 0x120 DUP2 ADD MLOAD ISZERO PUSH2 0x134A JUMPI PUSH1 0x40 MLOAD PUSH3 0x461BCD PUSH1 0xE5 SHL DUP2 MSTORE PUSH1 0x20 PUSH1 0x4 DUP3 ADD MSTORE PUSH1 0x12 PUSH1 0x24 DUP3 ADD MSTORE PUSH18 0x10985B1B1BDD081A185CC8115E1C1A5C9959 PUSH1 0x72 SHL PUSH1 0x44 DUP3 ADD MSTORE PUSH1 0x64 ADD PUSH2 0x981 JUMP JUMPDEST PUSH2 0x1354 DUP5 DUP3 PUSH2 0x32B3 JUMP JUMPDEST POP PUSH1 0x1 PUSH1 0x1 PUSH1 0xA0 SHL SUB DUP5 AND PUSH1 0x0 SWAP1 DUP2 MSTORE PUSH1 0x1B PUSH1 0x20 MSTORE PUSH1 0x40 DUP2 KECCAK256 PUSH1 0x3 ADD DUP1 SLOAD SWAP2 PUSH2 0x137C DUP4 PUSH2 0x3C56 JUMP JUMPDEST SWAP1 SWAP2 SSTORE POP POP CALLER PUSH1 0x0 SWAP1 DUP2 MSTORE PUSH1 0x1D PUSH1 0x20 MSTORE PUSH1 0x40 DUP1 DUP3 KECCAK256 PUSH1 0x3 ADD DUP1 SLOAD PUSH3 0xFF0000 NOT AND PUSH3 0x10000 OR SWAP1 SSTORE MLOAD PUSH1 0x1 PUSH1 0x1 PUSH1 0xA0 SHL SUB DUP7 AND SWAP2 PUSH32 0xAEC2CCAE8681FD01AD220ECB7E9B5F7D485B1CC3CC01599ACB1578016B30A6BD SWAP2 LOG2 POP POP POP POP JUMP JUMPDEST PUSH1 0x0 DUP1 PUSH1 0x1 PUSH2 0x13E8 PUSH1 0x64 DUP6 PUSH2 0x3C1D JUMP JUMPDEST DUP2 SLOAD DUP2 LT PUSH2 0x13F8 JUMPI PUSH2 0x13F8 PUSH2 0x3BBC JUMP JUMPDEST SWAP1 PUSH1 0x0 MSTORE PUSH1 0x20 PUSH1 0x0 KECCAK256 SWAP1 PUSH1 0xC MUL ADD SWAP1 POP PUSH1 0x0 PUSH1 0x18 PUSH1 0x3C DUP1 DUP5 PUSH1 0x7 ADD SLOAD TIMESTAMP PUSH2 0x141F SWAP2 SWAP1 PUSH2 0x3C1D JUMP JUMPDEST PUSH2 0x1429 SWAP2 SWAP1 PUSH2 0x3C34 JUMP JUMPDEST PUSH2 0x1433 SWAP2 SWAP1 PUSH2 0x3C34 JUMP JUMPDEST PUSH2 0x143D SWAP2 SWAP1 PUSH2 0x3C34 JUMP JUMPDEST SWAP1 POP DUP2 PUSH1 0x8 ADD SLOAD DUP2 LT PUSH2 0x1492 JUMPI PUSH1 0x40 MLOAD PUSH3 0x461BCD PUSH1 0xE5 SHL DUP2 MSTORE PUSH1 0x20 PUSH1 0x4 DUP3 ADD MSTORE PUSH1 0x1A PUSH1 0x24 DUP3 ADD MSTORE PUSH32 0x546869732042616C6C6F74206973207374696C6C204F70656E21000000000000 PUSH1 0x44 DUP3 ADD MSTORE PUSH1 0x64 ADD PUSH2 0x981 JUMP JUMPDEST PUSH1 0x7 SLOAD CALLVALUE LT ISZERO PUSH2 0x14E4 JUMPI PUSH1 0x40 MLOAD PUSH3 0x461BCD PUSH1 0xE5 SHL DUP2 MSTORE PUSH1 0x20 PUSH1 0x4 DUP3 ADD MSTORE PUSH1 0x17 PUSH1 0x24 DUP3 ADD MSTORE PUSH32 0x47657420726573756C7473207769746820312045544821000000000000000000 PUSH1 0x44 DUP3 ADD MSTORE PUSH1 0x64 ADD PUSH2 0x981 JUMP JUMPDEST PUSH1 0xA SLOAD DUP5 GT ISZERO PUSH2 0x1542 JUMPI PUSH1 0x40 MLOAD PUSH3 0x461BCD PUSH1 0xE5 SHL DUP2 MSTORE PUSH1 0x20 PUSH1 0x4 DUP3 ADD MSTORE PUSH1 0x23 PUSH1 0x24 DUP3 ADD MSTORE PUSH32 0x42616C6C6F742077697468207468617420496420646F6573204E4F5420657869 PUSH1 0x44 DUP3 ADD MSTORE PUSH3 0x737421 PUSH1 0xE8 SHL PUSH1 0x64 DUP3 ADD MSTORE PUSH1 0x84 ADD PUSH2 0x981 JUMP JUMPDEST PUSH1 0xB DUP3 ADD SLOAD PUSH1 0x1 PUSH1 0xA0 SHL SWAP1 DIV PUSH1 0xFF AND ISZERO ISZERO PUSH1 0x1 EQ ISZERO PUSH2 0x15A4 JUMPI PUSH1 0xB DUP3 ADD SLOAD PUSH1 0x40 MLOAD PUSH1 0x1 PUSH1 0xA0 SHL SWAP1 SWAP2 DIV PUSH1 0xFF AND ISZERO ISZERO DUP2 MSTORE PUSH32 0xAF9C5487A5254285C7E0CB270C5884FB3C73E8BF058E80FC0CF380DC6908FAC6 SWAP1 PUSH1 0x20 ADD PUSH1 0x40 MLOAD DUP1 SWAP2 SUB SWAP1 LOG1 PUSH2 0x15B8 JUMP JUMPDEST POP PUSH1 0xB ADD SLOAD PUSH1 0x1 PUSH1 0x1 PUSH1 0xA0 SHL SUB AND SWAP3 SWAP2 POP POP JUMP JUMPDEST POP POP SWAP2 SWAP1 POP JUMP JUMPDEST PUSH1 0x1A PUSH1 0x20 MSTORE DUP2 PUSH1 0x0 MSTORE PUSH1 0x40 PUSH1 0x0 KECCAK256 DUP2 DUP2 SLOAD DUP2 LT PUSH2 0x15DB JUMPI PUSH1 0x0 DUP1 REVERT JUMPDEST PUSH1 0x0 SWAP2 DUP3 MSTORE PUSH1 0x20 SWAP1 SWAP2 KECCAK256 ADD SLOAD PUSH1 0x1 PUSH1 0x1 PUSH1 0xA0 SHL SUB AND SWAP2 POP DUP3 SWAP1 POP JUMP JUMPDEST PUSH1 0x15 SLOAD PUSH1 0x1 PUSH1 0x1 PUSH1 0xA0 SHL SUB AND CALLER EQ PUSH2 0x160E JUMPI PUSH1 0x0 DUP1 REVERT JUMPDEST PUSH1 0x15 SLOAD PUSH1 0x40 MLOAD PUSH1 0x1 PUSH1 0x1 PUSH1 0xA0 SHL SUB SWAP1 SWAP2 AND SWAP1 SELFBALANCE DUP1 ISZERO PUSH2 0x8FC MUL SWAP2 PUSH1 0x0 DUP2 DUP2 DUP2 DUP6 DUP9 DUP9 CALL SWAP4 POP POP POP POP ISZERO DUP1 ISZERO PUSH2 0x1647 JUMPI RETURNDATASIZE PUSH1 0x0 DUP1 RETURNDATACOPY RETURNDATASIZE PUSH1 0x0 REVERT JUMPDEST POP PUSH1 0x0 PUSH2 0x1653 DUP3 PUSH2 0x2CF4 JUMP JUMPDEST PUSH1 0x0 PUSH1 0x60 SWAP1 SWAP2 ADD MSTORE POP POP JUMP JUMPDEST PUSH1 0x1C PUSH1 0x20 MSTORE DUP2 PUSH1 0x0 MSTORE PUSH1 0x40 PUSH1 0x0 KECCAK256 DUP2 DUP2 SLOAD DUP2 LT PUSH2 0x15DB JUMPI PUSH1 0x0 DUP1 REVERT JUMPDEST PUSH1 0x14 DUP1 SLOAD PUSH2 0x1688 SWAP1 PUSH2 0x3BD2 JUMP JUMPDEST DUP1 PUSH1 0x1F ADD PUSH1 0x20 DUP1 SWAP2 DIV MUL PUSH1 0x20 ADD PUSH1 0x40 MLOAD SWAP1 DUP2 ADD PUSH1 0x40 MSTORE DUP1 SWAP3 SWAP2 SWAP1 DUP2 DUP2 MSTORE PUSH1 0x20 ADD DUP3 DUP1 SLOAD PUSH2 0x16B4 SWAP1 PUSH2 0x3BD2 JUMP JUMPDEST DUP1 ISZERO PUSH2 0x1701 JUMPI DUP1 PUSH1 0x1F LT PUSH2 0x16D6 JUMPI PUSH2 0x100 DUP1 DUP4 SLOAD DIV MUL DUP4 MSTORE SWAP2 PUSH1 0x20 ADD SWAP2 PUSH2 0x1701 JUMP JUMPDEST DUP3 ADD SWAP2 SWAP1 PUSH1 0x0 MSTORE PUSH1 0x20 PUSH1 0x0 KECCAK256 SWAP1 JUMPDEST DUP2 SLOAD DUP2 MSTORE SWAP1 PUSH1 0x1 ADD SWAP1 PUSH1 0x20 ADD DUP1 DUP4 GT PUSH2 0x16E4 JUMPI DUP3 SWAP1 SUB PUSH1 0x1F AND DUP3 ADD SWAP2 JUMPDEST POP POP POP POP POP DUP2 JUMP JUMPDEST PUSH1 0x16 SLOAD PUSH1 0x1 PUSH1 0x1 PUSH1 0xA0 SHL SUB AND CALLER EQ PUSH2 0x1763 JUMPI PUSH1 0x40 MLOAD PUSH3 0x461BCD PUSH1 0xE5 SHL DUP2 MSTORE PUSH1 0x20 PUSH1 0x4 DUP3 ADD MSTORE PUSH1 0x1A PUSH1 0x24 DUP3 ADD MSTORE PUSH32 0x596F7520646F6E2774204F574E20746869732042616C6C6F7421000000000000 PUSH1 0x44 DUP3 ADD MSTORE PUSH1 0x64 ADD PUSH2 0x981 JUMP JUMPDEST PUSH1 0x0 PUSH1 0x1 PUSH2 0x1772 PUSH1 0x64 DUP5 PUSH2 0x3C1D JUMP JUMPDEST DUP2 SLOAD DUP2 LT PUSH2 0x1782 JUMPI PUSH2 0x1782 PUSH2 0x3BBC JUMP JUMPDEST SWAP1 PUSH1 0x0 MSTORE PUSH1 0x20 PUSH1 0x0 KECCAK256 SWAP1 PUSH1 0xC MUL ADD SWAP1 POP PUSH1 0x0 PUSH1 0x18 PUSH1 0x3C DUP1 DUP5 PUSH1 0x7 ADD SLOAD TIMESTAMP PUSH2 0x17A9 SWAP2 SWAP1 PUSH2 0x3C1D JUMP JUMPDEST PUSH2 0x17B3 SWAP2 SWAP1 PUSH2 0x3C34 JUMP JUMPDEST PUSH2 0x17BD SWAP2 SWAP1 PUSH2 0x3C34 JUMP JUMPDEST PUSH2 0x17C7 SWAP2 SWAP1 PUSH2 0x3C34 JUMP JUMPDEST SWAP1 POP DUP2 PUSH1 0x8 ADD SLOAD DUP2 LT PUSH2 0x181C JUMPI PUSH1 0x40 MLOAD PUSH3 0x461BCD PUSH1 0xE5 SHL DUP2 MSTORE PUSH1 0x20 PUSH1 0x4 DUP3 ADD MSTORE PUSH1 0x1F PUSH1 0x24 DUP3 ADD MSTORE PUSH32 0x546869732042616C6C6F74206973204E4F542079657420457870697265642100 PUSH1 0x44 DUP3 ADD MSTORE PUSH1 0x64 ADD PUSH2 0x981 JUMP JUMPDEST PUSH1 0x16 SLOAD PUSH1 0x40 MLOAD PUSH1 0x1 PUSH1 0x1 PUSH1 0xA0 SHL SUB SWAP1 SWAP2 AND SWAP1 SELFBALANCE DUP1 ISZERO PUSH2 0x8FC MUL SWAP2 PUSH1 0x0 DUP2 DUP2 DUP2 DUP6 DUP9 DUP9 CALL SWAP4 POP POP POP POP ISZERO DUP1 ISZERO PUSH2 0x1855 JUMPI RETURNDATASIZE PUSH1 0x0 DUP1 RETURNDATACOPY RETURNDATASIZE PUSH1 0x0 REVERT JUMPDEST POP POP PUSH1 0x9 SWAP1 DUP2 ADD DUP1 SLOAD PUSH1 0x1 PUSH1 0xFF NOT SWAP2 DUP3 AND DUP2 OR SWAP1 SWAP3 SSTORE CALLER PUSH1 0x0 SWAP1 DUP2 MSTORE PUSH1 0x18 PUSH1 0x20 SWAP1 DUP2 MSTORE PUSH1 0x40 DUP1 DUP4 KECCAK256 DUP7 ADD DUP1 SLOAD DUP6 AND DUP7 OR SWAP1 SSTORE SWAP6 DUP3 MSTORE PUSH1 0x19 SWAP1 MSTORE SWAP4 SWAP1 SWAP4 KECCAK256 SWAP1 SWAP2 ADD DUP1 SLOAD SWAP1 SWAP3 AND OR SWAP1 SSTORE JUMP JUMPDEST PUSH1 0x1 DUP2 DUP2 SLOAD DUP2 LT PUSH2 0x18AF JUMPI PUSH1 0x0 DUP1 REVERT JUMPDEST SWAP1 PUSH1 0x0 MSTORE PUSH1 0x20 PUSH1 0x0 KECCAK256 SWAP1 PUSH1 0xC MUL ADD PUSH1 0x0 SWAP2 POP SWAP1 POP DUP1 PUSH1 0x0 ADD SLOAD SWAP1 DUP1 PUSH1 0x1 ADD SLOAD SWAP1 DUP1 PUSH1 0x2 ADD DUP1 SLOAD PUSH2 0x18DE SWAP1 PUSH2 0x3BD2 JUMP JUMPDEST DUP1 PUSH1 0x1F ADD PUSH1 0x20 DUP1 SWAP2 DIV MUL PUSH1 0x20 ADD PUSH1 0x40 MLOAD SWAP1 DUP2 ADD PUSH1 0x40 MSTORE DUP1 SWAP3 SWAP2 SWAP1 DUP2 DUP2 MSTORE PUSH1 0x20 ADD DUP3 DUP1 SLOAD PUSH2 0x190A SWAP1 PUSH2 0x3BD2 JUMP JUMPDEST DUP1 ISZERO PUSH2 0x1957 JUMPI DUP1 PUSH1 0x1F LT PUSH2 0x192C JUMPI PUSH2 0x100 DUP1 DUP4 SLOAD DIV MUL DUP4 MSTORE SWAP2 PUSH1 0x20 ADD SWAP2 PUSH2 0x1957 JUMP JUMPDEST DUP3 ADD SWAP2 SWAP1 PUSH1 0x0 MSTORE PUSH1 0x20 PUSH1 0x0 KECCAK256 SWAP1 JUMPDEST DUP2 SLOAD DUP2 MSTORE SWAP1 PUSH1 0x1 ADD SWAP1 PUSH1 0x20 ADD DUP1 DUP4 GT PUSH2 0x193A JUMPI DUP3 SWAP1 SUB PUSH1 0x1F AND DUP3 ADD SWAP2 JUMPDEST POP POP POP PUSH1 0x3 DUP5 ADD SLOAD PUSH1 0x6 DUP6 ADD SLOAD PUSH1 0x7 DUP7 ADD SLOAD PUSH1 0x8 DUP8 ADD SLOAD PUSH1 0x9 DUP9 ADD SLOAD PUSH1 0xA DUP10 ADD SLOAD PUSH1 0xB SWAP1 SWAP10 ADD SLOAD SWAP8 SWAP9 PUSH1 0x1 PUSH1 0x1 PUSH1 0xA0 SHL SUB SWAP6 DUP7 AND SWAP9 SWAP5 SWAP8 POP SWAP3 SWAP6 POP SWAP1 SWAP4 PUSH1 0xFF SWAP2 DUP3 AND SWAP4 SWAP1 DUP2 AND SWAP2 PUSH1 0x1 PUSH1 0xA0 SHL SWAP1 SWAP2 DIV AND DUP12 JUMP JUMPDEST PUSH1 0x0 DUP2 DUP2 SLOAD DUP2 LT PUSH2 0x19BA JUMPI PUSH1 0x0 DUP1 REVERT JUMPDEST PUSH1 0x0 SWAP2 DUP3 MSTORE PUSH1 0x20 SWAP1 SWAP2 KECCAK256 PUSH1 0x4 SWAP1 SWAP2 MUL ADD DUP1 SLOAD PUSH1 0x1 DUP3 ADD SLOAD PUSH1 0x2 DUP4 ADD DUP1 SLOAD SWAP3 SWAP5 POP PUSH1 0x1 PUSH1 0x1 PUSH1 0xA0 SHL SUB SWAP1 SWAP2 AND SWAP3 SWAP2 PUSH2 0x19F0 SWAP1 PUSH2 0x3BD2 JUMP JUMPDEST DUP1 PUSH1 0x1F ADD PUSH1 0x20 DUP1 SWAP2 DIV MUL PUSH1 0x20 ADD PUSH1 0x40 MLOAD SWAP1 DUP2 ADD PUSH1 0x40 MSTORE DUP1 SWAP3 SWAP2 SWAP1 DUP2 DUP2 MSTORE PUSH1 0x20 ADD DUP3 DUP1 SLOAD PUSH2 0x1A1C SWAP1 PUSH2 0x3BD2 JUMP JUMPDEST DUP1 ISZERO PUSH2 0x1A69 JUMPI DUP1 PUSH1 0x1F LT PUSH2 0x1A3E JUMPI PUSH2 0x100 DUP1 DUP4 SLOAD DIV MUL DUP4 MSTORE SWAP2 PUSH1 0x20 ADD SWAP2 PUSH2 0x1A69 JUMP JUMPDEST DUP3 ADD SWAP2 SWAP1 PUSH1 0x0 MSTORE PUSH1 0x20 PUSH1 0x0 KECCAK256 SWAP1 JUMPDEST DUP2 SLOAD DUP2 MSTORE SWAP1 PUSH1 0x1 ADD SWAP1 PUSH1 0x20 ADD DUP1 DUP4 GT PUSH2 0x1A4C JUMPI DUP3 SWAP1 SUB PUSH1 0x1F AND DUP3 ADD SWAP2 JUMPDEST POP POP POP PUSH1 0x3 SWAP1 SWAP4 ADD SLOAD SWAP2 SWAP3 POP POP PUSH1 0xFF AND DUP5 JUMP JUMPDEST PUSH1 0xD SLOAD PUSH2 0x1A91 JUMPI PUSH2 0x1A8D DUP3 DUP3 PUSH2 0xF38 JUMP JUMPDEST POP POP JUMP JUMPDEST PUSH1 0xD SLOAD PUSH1 0x1 EQ ISZERO PUSH2 0x1AA6 JUMPI PUSH2 0x1A8D DUP3 DUP3 PUSH2 0x286F JUMP JUMPDEST PUSH1 0xD SLOAD PUSH1 0x2 EQ ISZERO PUSH2 0x1A8D JUMPI PUSH2 0x1A8D DUP3 PUSH2 0x2334 JUMP JUMPDEST PUSH1 0xF DUP2 DUP2 SLOAD DUP2 LT PUSH2 0x1ACA JUMPI PUSH1 0x0 DUP1 REVERT JUMPDEST PUSH1 0x0 SWAP2 DUP3 MSTORE PUSH1 0x20 SWAP1 SWAP2 KECCAK256 ADD SLOAD SWAP1 POP DUP2 JUMP JUMPDEST PUSH1 0x19 PUSH1 0x20 MSTORE PUSH1 0x0 SWAP1 DUP2 MSTORE PUSH1 0x40 SWAP1 KECCAK256 DUP1 SLOAD PUSH1 0x1 DUP3 ADD SLOAD PUSH1 0x2 DUP4 ADD DUP1 SLOAD SWAP3 SWAP4 SWAP2 SWAP3 PUSH2 0x18DE SWAP1 PUSH2 0x3BD2 JUMP JUMPDEST PUSH1 0x16 SLOAD PUSH1 0x1 PUSH1 0x1 PUSH1 0xA0 SHL SUB AND CALLER EQ DUP1 PUSH2 0x1B26 JUMPI POP PUSH1 0x17 SLOAD PUSH1 0x1 PUSH1 0x1 PUSH1 0xA0 SHL SUB AND CALLER EQ JUMPDEST PUSH2 0x1B42 JUMPI PUSH1 0x40 MLOAD PUSH3 0x461BCD PUSH1 0xE5 SHL DUP2 MSTORE PUSH1 0x4 ADD PUSH2 0x981 SWAP1 PUSH2 0x3B47 JUMP JUMPDEST DUP5 MLOAD DUP6 SWAP1 PUSH2 0x1B92 JUMPI PUSH1 0x40 MLOAD PUSH3 0x461BCD PUSH1 0xE5 SHL DUP2 MSTORE PUSH1 0x20 PUSH1 0x4 DUP3 ADD MSTORE PUSH1 0x1A PUSH1 0x24 DUP3 ADD MSTORE PUSH32 0x456E74657220612076616C69642042616C6C6F74204E616D6521000000000000 PUSH1 0x44 DUP3 ADD MSTORE PUSH1 0x64 ADD PUSH2 0x981 JUMP JUMPDEST PUSH1 0x1 DUP6 MLOAD GT PUSH2 0x1BE3 JUMPI PUSH1 0x40 MLOAD PUSH3 0x461BCD PUSH1 0xE5 SHL DUP2 MSTORE PUSH1 0x20 PUSH1 0x4 DUP3 ADD MSTORE PUSH1 0x1D PUSH1 0x24 DUP3 ADD MSTORE PUSH32 0x4E6F7420456E6F7567682042616C6C6F742043616E6469646174657321000000 PUSH1 0x44 DUP3 ADD MSTORE PUSH1 0x64 ADD PUSH2 0x981 JUMP JUMPDEST PUSH1 0x10 SLOAD DUP5 GT ISZERO PUSH2 0x1C35 JUMPI PUSH1 0x40 MLOAD PUSH3 0x461BCD PUSH1 0xE5 SHL DUP2 MSTORE PUSH1 0x20 PUSH1 0x4 DUP3 ADD MSTORE PUSH1 0x18 PUSH1 0x24 DUP3 ADD MSTORE PUSH32 0x4E6F7420612076616C69642042616C6C6F742054797065210000000000000000 PUSH1 0x44 DUP3 ADD MSTORE PUSH1 0x64 ADD PUSH2 0x981 JUMP JUMPDEST PUSH1 0x12 SLOAD PUSH1 0xA SLOAD LT PUSH2 0x1CAE JUMPI PUSH1 0x40 MLOAD PUSH3 0x461BCD PUSH1 0xE5 SHL DUP2 MSTORE PUSH1 0x20 PUSH1 0x4 DUP3 ADD MSTORE PUSH1 0x3C PUSH1 0x24 DUP3 ADD MSTORE PUSH32 0x596F752068617665207265616368656420746865204D6178204C696D6974206F PUSH1 0x44 DUP3 ADD MSTORE PUSH32 0x662042616C6C6F747320666F72207468697320456C656374696F6E2100000000 PUSH1 0x64 DUP3 ADD MSTORE PUSH1 0x84 ADD PUSH2 0x981 JUMP JUMPDEST DUP2 DUP4 GT PUSH2 0x1D08 JUMPI PUSH1 0x40 MLOAD PUSH3 0x461BCD PUSH1 0xE5 SHL DUP2 MSTORE PUSH1 0x20 PUSH1 0x4 DUP3 ADD MSTORE PUSH1 0x22 PUSH1 0x24 DUP3 ADD MSTORE PUSH32 0x526567697374726174696F6E20506572696F64203E20566F74696E6720446179 PUSH1 0x44 DUP3 ADD MSTORE PUSH2 0x7321 PUSH1 0xF0 SHL PUSH1 0x64 DUP3 ADD MSTORE PUSH1 0x84 ADD PUSH2 0x981 JUMP JUMPDEST PUSH1 0x13 SLOAD PUSH1 0x0 SWAP1 DUP2 MSTORE PUSH1 0x1A PUSH1 0x20 SWAP1 DUP2 MSTORE PUSH1 0x40 SWAP1 SWAP2 KECCAK256 DUP7 MLOAD PUSH2 0x1D2A SWAP3 DUP9 ADD SWAP1 PUSH2 0x33E6 JUMP JUMPDEST POP DUP5 MLOAD PUSH1 0x0 JUMPDEST DUP2 DUP2 LT ISZERO PUSH2 0x1E09 JUMPI PUSH1 0x0 PUSH1 0x40 MLOAD DUP1 PUSH1 0x80 ADD PUSH1 0x40 MSTORE DUP1 DUP4 DUP2 MSTORE PUSH1 0x20 ADD PUSH1 0x13 SLOAD DUP2 MSTORE PUSH1 0x20 ADD DUP10 DUP5 DUP2 MLOAD DUP2 LT PUSH2 0x1D65 JUMPI PUSH2 0x1D65 PUSH2 0x3BBC JUMP JUMPDEST PUSH1 0x20 MUL PUSH1 0x20 ADD ADD MLOAD PUSH1 0x1 PUSH1 0x1 PUSH1 0xA0 SHL SUB AND DUP2 MSTORE PUSH1 0x20 ADD PUSH1 0x0 DUP2 MSTORE POP SWAP1 POP DUP1 PUSH1 0x1B PUSH1 0x0 DUP11 DUP6 DUP2 MLOAD DUP2 LT PUSH2 0x1D99 JUMPI PUSH2 0x1D99 PUSH2 0x3BBC JUMP JUMPDEST PUSH1 0x20 SWAP1 DUP2 MUL SWAP2 SWAP1 SWAP2 ADD DUP2 ADD MLOAD PUSH1 0x1 PUSH1 0x1 PUSH1 0xA0 SHL SUB SWAP1 DUP2 AND DUP4 MSTORE DUP3 DUP3 ADD SWAP4 SWAP1 SWAP4 MSTORE PUSH1 0x40 SWAP2 DUP3 ADD PUSH1 0x0 KECCAK256 DUP5 MLOAD DUP2 SSTORE SWAP1 DUP5 ADD MLOAD PUSH1 0x1 DUP3 ADD SSTORE SWAP1 DUP4 ADD MLOAD PUSH1 0x2 DUP3 ADD DUP1 SLOAD PUSH1 0x1 PUSH1 0x1 PUSH1 0xA0 SHL SUB NOT AND SWAP2 SWAP1 SWAP4 AND OR SWAP1 SWAP2 SSTORE PUSH1 0x60 SWAP1 SWAP2 ADD MLOAD PUSH1 0x3 SWAP1 SWAP2 ADD SSTORE POP DUP1 PUSH2 0x1E01 DUP2 PUSH2 0x3C56 JUMP JUMPDEST SWAP2 POP POP PUSH2 0x1D30 JUMP JUMPDEST POP PUSH1 0x16 DUP1 SLOAD PUSH1 0x1 PUSH1 0x1 PUSH1 0xA0 SHL SUB NOT AND CALLER SWAP1 DUP2 OR SWAP1 SWAP2 SSTORE DUP7 MLOAD PUSH1 0x9 SSTORE PUSH1 0x40 DUP1 MLOAD PUSH2 0x1A0 DUP2 ADD DUP3 MSTORE PUSH1 0x13 SLOAD DUP2 MSTORE PUSH1 0x20 DUP1 DUP3 ADD DUP10 SWAP1 MSTORE DUP2 DUP4 ADD DUP12 SWAP1 MSTORE PUSH1 0x60 DUP3 ADD SWAP4 SWAP1 SWAP4 MSTORE PUSH1 0x80 DUP2 ADD DUP10 SWAP1 MSTORE PUSH1 0x5 DUP1 SLOAD DUP4 MLOAD DUP2 DUP7 MUL DUP2 ADD DUP7 ADD SWAP1 SWAP5 MSTORE DUP1 DUP5 MSTORE PUSH1 0x0 SWAP5 SWAP3 SWAP4 PUSH1 0xA0 DUP6 ADD SWAP4 SWAP1 SWAP3 SWAP2 SWAP1 DUP4 ADD DUP3 DUP3 DUP1 ISZERO PUSH2 0x1EAB JUMPI PUSH1 0x20 MUL DUP3 ADD SWAP2 SWAP1 PUSH1 0x0 MSTORE PUSH1 0x20 PUSH1 0x0 KECCAK256 SWAP1 JUMPDEST DUP2 SLOAD PUSH1 0x1 PUSH1 0x1 PUSH1 0xA0 SHL SUB AND DUP2 MSTORE PUSH1 0x1 SWAP1 SWAP2 ADD SWAP1 PUSH1 0x20 ADD DUP1 DUP4 GT PUSH2 0x1E8D JUMPI JUMPDEST POP POP POP SWAP2 DUP4 MSTORE POP POP PUSH1 0x0 PUSH1 0x20 DUP1 DUP4 ADD DUP3 SWAP1 MSTORE TIMESTAMP PUSH1 0x40 DUP1 DUP6 ADD SWAP2 SWAP1 SWAP2 MSTORE PUSH1 0x60 DUP5 ADD DUP11 SWAP1 MSTORE PUSH1 0x80 DUP5 ADD DUP4 SWAP1 MSTORE PUSH1 0xA0 DUP5 ADD DUP10 SWAP1 MSTORE PUSH1 0xC0 DUP5 ADD DUP4 SWAP1 MSTORE PUSH1 0xE0 SWAP1 SWAP4 ADD DUP3 SWAP1 MSTORE PUSH1 0x1 DUP1 SLOAD DUP1 DUP3 ADD DUP3 SSTORE SWAP3 MSTORE DUP4 MLOAD PUSH32 0xB10E2D527612073B26EECDFD717E6A320CF44B4AFAC2B0732D9FCBE2B7FA0CF6 PUSH1 0xC SWAP1 SWAP4 MUL SWAP3 DUP4 ADD SWAP1 DUP2 SSTORE DUP5 DUP3 ADD MLOAD PUSH32 0xB10E2D527612073B26EECDFD717E6A320CF44B4AFAC2B0732D9FCBE2B7FA0CF7 DUP5 ADD SSTORE SWAP3 DUP5 ADD MLOAD DUP1 MLOAD SWAP5 SWAP6 POP DUP6 SWAP5 PUSH2 0x1F88 SWAP4 PUSH32 0xB10E2D527612073B26EECDFD717E6A320CF44B4AFAC2B0732D9FCBE2B7FA0CF8 ADD SWAP3 SWAP2 SWAP1 SWAP2 ADD SWAP1 PUSH2 0x344B JUMP JUMPDEST POP PUSH1 0x60 DUP3 ADD MLOAD PUSH1 0x3 DUP3 ADD DUP1 SLOAD PUSH1 0x1 PUSH1 0x1 PUSH1 0xA0 SHL SUB NOT AND PUSH1 0x1 PUSH1 0x1 PUSH1 0xA0 SHL SUB SWAP1 SWAP3 AND SWAP2 SWAP1 SWAP2 OR SWAP1 SSTORE PUSH1 0x80 DUP3 ADD MLOAD DUP1 MLOAD PUSH2 0x1FCA SWAP2 PUSH1 0x4 DUP5 ADD SWAP2 PUSH1 0x20 SWAP1 SWAP2 ADD SWAP1 PUSH2 0x33E6 JUMP JUMPDEST POP PUSH1 0xA0 DUP3 ADD MLOAD DUP1 MLOAD PUSH2 0x1FE6 SWAP2 PUSH1 0x5 DUP5 ADD SWAP2 PUSH1 0x20 SWAP1 SWAP2 ADD SWAP1 PUSH2 0x33E6 JUMP JUMPDEST POP PUSH1 0xC0 DUP3 ADD MLOAD PUSH1 0x6 DUP3 ADD SSTORE PUSH1 0xE0 DUP3 ADD MLOAD PUSH1 0x7 DUP3 ADD SSTORE PUSH2 0x100 DUP3 ADD MLOAD PUSH1 0x8 DUP3 ADD SSTORE PUSH2 0x120 DUP3 ADD MLOAD PUSH1 0x9 DUP3 ADD DUP1 SLOAD PUSH1 0xFF NOT AND SWAP2 ISZERO ISZERO SWAP2 SWAP1 SWAP2 OR SWAP1 SSTORE PUSH2 0x140 DUP3 ADD MLOAD PUSH1 0xA DUP3 ADD SSTORE PUSH2 0x160 DUP3 ADD MLOAD PUSH1 0xB SWAP1 SWAP2 ADD DUP1 SLOAD PUSH2 0x180 SWAP1 SWAP4 ADD MLOAD PUSH1 0x1 PUSH1 0x1 PUSH1 0xA0 SHL SUB SWAP1 SWAP3 AND PUSH1 0x1 PUSH1 0x1 PUSH1 0xA8 SHL SUB NOT SWAP1 SWAP4 AND SWAP3 SWAP1 SWAP3 OR PUSH1 0x1 PUSH1 0xA0 SHL SWAP2 ISZERO ISZERO SWAP2 SWAP1 SWAP2 MUL OR SWAP1 SSTORE CALLER PUSH1 0x0 SWAP1 DUP2 MSTORE PUSH1 0x18 PUSH1 0x20 SWAP1 DUP2 MSTORE PUSH1 0x40 SWAP2 DUP3 SWAP1 KECCAK256 DUP4 MLOAD DUP2 SSTORE DUP4 DUP3 ADD MLOAD PUSH1 0x1 DUP3 ADD SSTORE SWAP2 DUP4 ADD MLOAD DUP1 MLOAD DUP5 SWAP4 SWAP3 PUSH2 0x20A2 SWAP3 PUSH1 0x2 DUP6 ADD SWAP3 SWAP2 ADD SWAP1 PUSH2 0x344B JUMP JUMPDEST POP PUSH1 0x60 DUP3 ADD MLOAD PUSH1 0x3 DUP3 ADD DUP1 SLOAD PUSH1 0x1 PUSH1 0x1 PUSH1 0xA0 SHL SUB NOT AND PUSH1 0x1 PUSH1 0x1 PUSH1 0xA0 SHL SUB SWAP1 SWAP3 AND SWAP2 SWAP1 SWAP2 OR SWAP1 SSTORE PUSH1 0x80 DUP3 ADD MLOAD DUP1 MLOAD PUSH2 0x20E4 SWAP2 PUSH1 0x4 DUP5 ADD SWAP2 PUSH1 0x20 SWAP1 SWAP2 ADD SWAP1 PUSH2 0x33E6 JUMP JUMPDEST POP PUSH1 0xA0 DUP3 ADD MLOAD DUP1 MLOAD PUSH2 0x2100 SWAP2 PUSH1 0x5 DUP5 ADD SWAP2 PUSH1 0x20 SWAP1 SWAP2 ADD SWAP1 PUSH2 0x33E6 JUMP JUMPDEST POP PUSH1 0xC0 DUP3 ADD MLOAD PUSH1 0x6 DUP3 ADD SSTORE PUSH1 0xE0 DUP3 ADD MLOAD PUSH1 0x7 DUP3 ADD SSTORE PUSH2 0x100 DUP3 ADD MLOAD PUSH1 0x8 DUP3 ADD SSTORE PUSH2 0x120 DUP3 ADD MLOAD PUSH1 0x9 DUP3 ADD DUP1 SLOAD PUSH1 0xFF NOT AND SWAP2 ISZERO ISZERO SWAP2 SWAP1 SWAP2 OR SWAP1 SSTORE PUSH2 0x140 DUP3 ADD MLOAD PUSH1 0xA DUP3 ADD SSTORE PUSH2 0x160 DUP3 ADD MLOAD PUSH1 0xB SWAP1 SWAP2 ADD DUP1 SLOAD PUSH2 0x180 SWAP1 SWAP4 ADD MLOAD PUSH1 0x1 PUSH1 0x1 PUSH1 0xA0 SHL SUB SWAP1 SWAP3 AND PUSH1 0x1 PUSH1 0x1 PUSH1 0xA8 SHL SUB NOT SWAP1 SWAP4 AND SWAP3 SWAP1 SWAP3 OR PUSH1 0x1 PUSH1 0xA0 SHL SWAP2 ISZERO ISZERO SWAP2 SWAP1 SWAP2 MUL OR SWAP1 SSTORE PUSH1 0x13 SLOAD PUSH1 0x0 SWAP1 DUP2 MSTORE PUSH1 0x19 PUSH1 0x20 SWAP1 DUP2 MSTORE PUSH1 0x40 SWAP2 DUP3 SWAP1 KECCAK256 DUP4 MLOAD DUP2 SSTORE DUP4 DUP3 ADD MLOAD PUSH1 0x1 DUP3 ADD SSTORE SWAP2 DUP4 ADD MLOAD DUP1 MLOAD DUP5 SWAP4 SWAP3 PUSH2 0x21BE SWAP3 PUSH1 0x2 DUP6 ADD SWAP3 SWAP2 ADD SWAP1 PUSH2 0x344B JUMP JUMPDEST POP PUSH1 0x60 DUP3 ADD MLOAD PUSH1 0x3 DUP3 ADD DUP1 SLOAD PUSH1 0x1 PUSH1 0x1 PUSH1 0xA0 SHL SUB NOT AND PUSH1 0x1 PUSH1 0x1 PUSH1 0xA0 SHL SUB SWAP1 SWAP3 AND SWAP2 SWAP1 SWAP2 OR SWAP1 SSTORE PUSH1 0x80 DUP3 ADD MLOAD DUP1 MLOAD PUSH2 0x2200 SWAP2 PUSH1 0x4 DUP5 ADD SWAP2 PUSH1 0x20 SWAP1 SWAP2 ADD SWAP1 PUSH2 0x33E6 JUMP JUMPDEST POP PUSH1 0xA0 DUP3 ADD MLOAD DUP1 MLOAD PUSH2 0x221C SWAP2 PUSH1 0x5 DUP5 ADD SWAP2 PUSH1 0x20 SWAP1 SWAP2 ADD SWAP1 PUSH2 0x33E6 JUMP JUMPDEST POP PUSH1 0xC0 DUP3 ADD MLOAD PUSH1 0x6 DUP3 ADD SSTORE PUSH1 0xE0 DUP3 ADD MLOAD PUSH1 0x7 DUP3 ADD SSTORE PUSH2 0x100 DUP3 ADD MLOAD PUSH1 0x8 DUP3 ADD SSTORE PUSH2 0x120 DUP3 ADD MLOAD PUSH1 0x9 DUP3 ADD DUP1 SLOAD PUSH1 0xFF NOT AND SWAP2 ISZERO ISZERO SWAP2 SWAP1 SWAP2 OR SWAP1 SSTORE PUSH2 0x140 DUP3 ADD MLOAD PUSH1 0xA DUP3 ADD SSTORE PUSH2 0x160 DUP3 ADD MLOAD PUSH1 0xB SWAP1 SWAP2 ADD DUP1 SLOAD PUSH2 0x180 SWAP1 SWAP4 ADD MLOAD PUSH1 0x1 PUSH1 0x1 PUSH1 0xA0 SHL SUB SWAP1 SWAP3 AND PUSH1 0x1 PUSH1 0x1 PUSH1 0xA8 SHL SUB NOT SWAP1 SWAP4 AND SWAP3 SWAP1 SWAP3 OR PUSH1 0x1 PUSH1 0xA0 SHL SWAP2 ISZERO ISZERO SWAP2 SWAP1 SWAP2 MUL OR SWAP1 SSTORE CALLER PUSH1 0x0 SWAP1 DUP2 MSTORE PUSH1 0x1C PUSH1 0x20 SWAP1 DUP2 MSTORE PUSH1 0x40 SWAP1 SWAP2 KECCAK256 DUP9 MLOAD PUSH2 0x22BE SWAP3 DUP11 ADD SWAP1 PUSH2 0x33E6 JUMP JUMPDEST POP PUSH1 0xA DUP1 SLOAD SWAP1 PUSH1 0x0 PUSH2 0x22CF DUP4 PUSH2 0x3C56 JUMP JUMPDEST SWAP1 SWAP2 SSTORE POP POP PUSH1 0x13 DUP1 SLOAD SWAP1 PUSH1 0x0 PUSH2 0x22E4 DUP4 PUSH2 0x3C56 JUMP JUMPDEST SWAP2 SWAP1 POP SSTORE POP PUSH32 0x3302601C0B6AD9794207D2EB4A29C724DB57C9348BF10DFFCC98C9D89E6D9C52 PUSH1 0x1 PUSH1 0xA SLOAD PUSH2 0x2319 SWAP2 SWAP1 PUSH2 0x3C1D JUMP JUMPDEST PUSH1 0x40 MLOAD SWAP1 DUP2 MSTORE PUSH1 0x20 ADD PUSH1 0x40 MLOAD DUP1 SWAP2 SUB SWAP1 LOG1 POP POP POP POP POP POP POP POP JUMP JUMPDEST PUSH1 0xD SLOAD PUSH1 0x2 EQ PUSH2 0x2343 JUMPI PUSH1 0x0 DUP1 REVERT JUMPDEST POP JUMP JUMPDEST PUSH2 0x234E PUSH2 0x3368 JUMP JUMPDEST SWAP2 SWAP1 POP JUMP JUMPDEST PUSH1 0x0 DUP1 PUSH2 0x2361 PUSH1 0x64 DUP5 PUSH2 0x3C1D JUMP JUMPDEST SWAP1 POP PUSH1 0x12 SLOAD DUP2 LT PUSH2 0x23AD JUMPI PUSH1 0x40 MLOAD PUSH3 0x461BCD PUSH1 0xE5 SHL DUP2 MSTORE PUSH1 0x20 PUSH1 0x4 DUP3 ADD MSTORE PUSH1 0x16 PUSH1 0x24 DUP3 ADD MSTORE PUSH22 0x4E6F20737563682042616C6C6F742045786973747321 PUSH1 0x50 SHL PUSH1 0x44 DUP3 ADD MSTORE PUSH1 0x64 ADD PUSH2 0x981 JUMP JUMPDEST PUSH1 0x0 PUSH1 0x1 DUP3 DUP2 SLOAD DUP2 LT PUSH2 0x23C2 JUMPI PUSH2 0x23C2 PUSH2 0x3BBC JUMP JUMPDEST SWAP1 PUSH1 0x0 MSTORE PUSH1 0x20 PUSH1 0x0 KECCAK256 SWAP1 PUSH1 0xC MUL ADD SWAP1 POP PUSH1 0x0 DUP2 PUSH1 0x7 ADD SLOAD TIMESTAMP PUSH2 0x23E4 SWAP2 SWAP1 PUSH2 0x3C1D JUMP JUMPDEST SWAP1 POP DUP2 PUSH1 0xA ADD SLOAD PUSH3 0x15180 PUSH2 0x23F9 SWAP2 SWAP1 PUSH2 0x3CB4 JUMP JUMPDEST DUP2 LT PUSH2 0x2447 JUMPI PUSH1 0x40 MLOAD PUSH3 0x461BCD PUSH1 0xE5 SHL DUP2 MSTORE PUSH1 0x20 PUSH1 0x4 DUP3 ADD MSTORE PUSH1 0x1F PUSH1 0x24 DUP3 ADD MSTORE PUSH32 0x526567697374726174696F6E20506572696F6420686173205061737365642100 PUSH1 0x44 DUP3 ADD MSTORE PUSH1 0x64 ADD PUSH2 0x981 JUMP JUMPDEST PUSH1 0x8 DUP3 ADD SLOAD PUSH2 0x2459 SWAP1 PUSH3 0x15180 PUSH2 0x3CB4 JUMP JUMPDEST DUP2 LT PUSH2 0x249E JUMPI PUSH1 0x40 MLOAD PUSH3 0x461BCD PUSH1 0xE5 SHL DUP2 MSTORE PUSH1 0x20 PUSH1 0x4 DUP3 ADD MSTORE PUSH1 0x14 PUSH1 0x24 DUP3 ADD MSTORE PUSH20 0x546869732042616C6C6F74204578706972656421 PUSH1 0x60 SHL PUSH1 0x44 DUP3 ADD MSTORE PUSH1 0x64 ADD PUSH2 0x981 JUMP JUMPDEST PUSH1 0x0 DUP7 DUP2 MSTORE PUSH1 0x20 DUP1 MSTORE PUSH1 0x40 SWAP1 KECCAK256 SLOAD PUSH1 0x1 PUSH1 0x1 PUSH1 0xA0 SHL SUB AND ISZERO PUSH2 0x2502 JUMPI PUSH1 0x40 MLOAD PUSH3 0x461BCD PUSH1 0xE5 SHL DUP2 MSTORE PUSH1 0x20 PUSH1 0x4 DUP3 ADD MSTORE PUSH1 0x1D PUSH1 0x24 DUP3 ADD MSTORE PUSH32 0x546869732069645F6E756D626572206973207265676973746572656421000000 PUSH1 0x44 DUP3 ADD MSTORE PUSH1 0x64 ADD PUSH2 0x981 JUMP JUMPDEST CALLER PUSH1 0x0 SWAP1 DUP2 MSTORE PUSH1 0x1F PUSH1 0x20 MSTORE PUSH1 0x40 SWAP1 KECCAK256 SLOAD ISZERO PUSH2 0x255F JUMPI PUSH1 0x40 MLOAD PUSH3 0x461BCD PUSH1 0xE5 SHL DUP2 MSTORE PUSH1 0x20 PUSH1 0x4 DUP3 ADD MSTORE PUSH1 0x17 PUSH1 0x24 DUP3 ADD MSTORE PUSH32 0x596F7520616C7265616479207265676973746572656421000000000000000000 PUSH1 0x44 DUP3 ADD MSTORE PUSH1 0x64 ADD PUSH2 0x981 JUMP JUMPDEST PUSH1 0x0 DUP7 PUSH1 0x40 MLOAD PUSH1 0x20 ADD PUSH2 0x2574 SWAP2 DUP2 MSTORE PUSH1 0x20 ADD SWAP1 JUMP JUMPDEST PUSH1 0x40 MLOAD PUSH1 0x20 DUP2 DUP4 SUB SUB DUP2 MSTORE SWAP1 PUSH1 0x40 MSTORE DUP1 MLOAD SWAP1 PUSH1 0x20 ADD KECCAK256 SWAP1 POP DUP1 PUSH1 0x1F PUSH1 0x0 CALLER PUSH1 0x1 PUSH1 0x1 PUSH1 0xA0 SHL SUB AND PUSH1 0x1 PUSH1 0x1 PUSH1 0xA0 SHL SUB AND DUP2 MSTORE PUSH1 0x20 ADD SWAP1 DUP2 MSTORE PUSH1 0x20 ADD PUSH1 0x0 KECCAK256 DUP2 SWAP1 SSTORE POP PUSH1 0x0 PUSH1 0x40 MLOAD DUP1 PUSH1 0xE0 ADD PUSH1 0x40 MSTORE DUP1 PUSH1 0xC SLOAD DUP2 MSTORE PUSH1 0x20 ADD CALLER PUSH1 0x1 PUSH1 0x1 PUSH1 0xA0 SHL SUB AND DUP2 MSTORE PUSH1 0x20 ADD DUP7 DUP2 MSTORE PUSH1 0x20 ADD PUSH1 0x1 ISZERO ISZERO DUP2 MSTORE PUSH1 0x20 ADD PUSH1 0x1 ISZERO ISZERO DUP2 MSTORE PUSH1 0x20 ADD PUSH1 0x0 ISZERO ISZERO DUP2 MSTORE PUSH1 0x20 ADD DUP4 DUP2 MSTORE POP SWAP1 POP DUP1 PUSH1 0x1D PUSH1 0x0 CALLER PUSH1 0x1 PUSH1 0x1 PUSH1 0xA0 SHL SUB AND PUSH1 0x1 PUSH1 0x1 PUSH1 0xA0 SHL SUB AND DUP2 MSTORE PUSH1 0x20 ADD SWAP1 DUP2 MSTORE PUSH1 0x20 ADD PUSH1 0x0 KECCAK256 PUSH1 0x0 DUP3 ADD MLOAD DUP2 PUSH1 0x0 ADD SSTORE PUSH1 0x20 DUP3 ADD MLOAD DUP2 PUSH1 0x1 ADD PUSH1 0x0 PUSH2 0x100 EXP DUP2 SLOAD DUP2 PUSH1 0x1 PUSH1 0x1 PUSH1 0xA0 SHL SUB MUL NOT AND SWAP1 DUP4 PUSH1 0x1 PUSH1 0x1 PUSH1 0xA0 SHL SUB AND MUL OR SWAP1 SSTORE POP PUSH1 0x40 DUP3 ADD MLOAD DUP2 PUSH1 0x2 ADD SSTORE PUSH1 0x60 DUP3 ADD MLOAD DUP2 PUSH1 0x3 ADD PUSH1 0x0 PUSH2 0x100 EXP DUP2 SLOAD DUP2 PUSH1 0xFF MUL NOT AND SWAP1 DUP4 ISZERO ISZERO MUL OR SWAP1 SSTORE POP PUSH1 0x80 DUP3 ADD MLOAD DUP2 PUSH1 0x3 ADD PUSH1 0x1 PUSH2 0x100 EXP DUP2 SLOAD DUP2 PUSH1 0xFF MUL NOT AND SWAP1 DUP4 ISZERO ISZERO MUL OR SWAP1 SSTORE POP PUSH1 0xA0 DUP3 ADD MLOAD DUP2 PUSH1 0x3 ADD PUSH1 0x2 PUSH2 0x100 EXP DUP2 SLOAD DUP2 PUSH1 0xFF MUL NOT AND SWAP1 DUP4 ISZERO ISZERO MUL OR SWAP1 SSTORE POP PUSH1 0xC0 DUP3 ADD MLOAD DUP2 PUSH1 0x4 ADD SSTORE SWAP1 POP POP DUP1 PUSH1 0x1E PUSH1 0x0 DUP8 DUP2 MSTORE PUSH1 0x20 ADD SWAP1 DUP2 MSTORE PUSH1 0x20 ADD PUSH1 0x0 KECCAK256 PUSH1 0x0 DUP3 ADD MLOAD DUP2 PUSH1 0x0 ADD SSTORE PUSH1 0x20 DUP3 ADD MLOAD DUP2 PUSH1 0x1 ADD PUSH1 0x0 PUSH2 0x100 EXP DUP2 SLOAD DUP2 PUSH1 0x1 PUSH1 0x1 PUSH1 0xA0 SHL SUB MUL NOT AND SWAP1 DUP4 PUSH1 0x1 PUSH1 0x1 PUSH1 0xA0 SHL SUB AND MUL OR SWAP1 SSTORE POP PUSH1 0x40 DUP3 ADD MLOAD DUP2 PUSH1 0x2 ADD SSTORE PUSH1 0x60 DUP3 ADD MLOAD DUP2 PUSH1 0x3 ADD PUSH1 0x0 PUSH2 0x100 EXP DUP2 SLOAD DUP2 PUSH1 0xFF MUL NOT AND SWAP1 DUP4 ISZERO ISZERO MUL OR SWAP1 SSTORE POP PUSH1 0x80 DUP3 ADD MLOAD DUP2 PUSH1 0x3 ADD PUSH1 0x1 PUSH2 0x100 EXP DUP2 SLOAD DUP2 PUSH1 0xFF MUL NOT AND SWAP1 DUP4 ISZERO ISZERO MUL OR SWAP1 SSTORE POP PUSH1 0xA0 DUP3 ADD MLOAD DUP2 PUSH1 0x3 ADD PUSH1 0x2 PUSH2 0x100 EXP DUP2 SLOAD DUP2 PUSH1 0xFF MUL NOT AND SWAP1 DUP4 ISZERO ISZERO MUL OR SWAP1 SSTORE POP PUSH1 0xC0 DUP3 ADD MLOAD DUP2 PUSH1 0x4 ADD SSTORE SWAP1 POP POP DUP4 PUSH1 0x6 ADD PUSH1 0x0 DUP2 SLOAD DUP1 SWAP3 SWAP2 SWAP1 PUSH2 0x27AC SWAP1 PUSH2 0x3C56 JUMP JUMPDEST SWAP1 SWAP2 SSTORE POP POP POP PUSH1 0x0 DUP8 DUP2 MSTORE PUSH1 0x20 DUP1 MSTORE PUSH1 0x40 SWAP1 KECCAK256 DUP1 SLOAD PUSH1 0x1 PUSH1 0x1 PUSH1 0xA0 SHL SUB NOT AND CALLER OR SWAP1 SSTORE SWAP4 POP PUSH2 0x27DA SWAP3 POP POP POP JUMP JUMPDEST SWAP3 SWAP2 POP POP JUMP JUMPDEST PUSH1 0x15 SLOAD PUSH1 0x1 PUSH1 0x1 PUSH1 0xA0 SHL SUB AND CALLER EQ PUSH2 0x27F7 JUMPI PUSH1 0x0 DUP1 REVERT JUMPDEST DUP1 ISZERO PUSH2 0x2836 JUMPI PUSH1 0x15 SLOAD PUSH1 0x40 MLOAD PUSH1 0x1 PUSH1 0x1 PUSH1 0xA0 SHL SUB SWAP1 SWAP2 AND SWAP1 SELFBALANCE DUP1 ISZERO PUSH2 0x8FC MUL SWAP2 PUSH1 0x0 DUP2 DUP2 DUP2 DUP6 DUP9 DUP9 CALL SWAP4 POP POP POP POP ISZERO DUP1 ISZERO PUSH2 0x1A8D JUMPI RETURNDATASIZE PUSH1 0x0 DUP1 RETURNDATACOPY RETURNDATASIZE PUSH1 0x0 REVERT JUMPDEST PUSH1 0x15 SLOAD PUSH1 0x40 MLOAD PUSH1 0x1 PUSH1 0x1 PUSH1 0xA0 SHL SUB SWAP1 SWAP2 AND SWAP1 SELFBALANCE DUP1 ISZERO PUSH2 0x8FC MUL SWAP2 PUSH1 0x0 DUP2 DUP2 DUP2 DUP6 DUP9 DUP9 CALL SWAP4 POP POP POP POP ISZERO DUP1 ISZERO PUSH2 0x1A8D JUMPI RETURNDATASIZE PUSH1 0x0 DUP1 RETURNDATACOPY RETURNDATASIZE PUSH1 0x0 REVERT JUMPDEST PUSH1 0x0 PUSH1 0x1 DUP3 DUP2 SLOAD DUP2 LT PUSH2 0x2884 JUMPI PUSH2 0x2884 PUSH2 0x3BBC JUMP JUMPDEST SWAP1 PUSH1 0x0 MSTORE PUSH1 0x20 PUSH1 0x0 KECCAK256 SWAP1 PUSH1 0xC MUL ADD PUSH1 0x40 MLOAD DUP1 PUSH2 0x1A0 ADD PUSH1 0x40 MSTORE SWAP1 DUP2 PUSH1 0x0 DUP3 ADD SLOAD DUP2 MSTORE PUSH1 0x20 ADD PUSH1 0x1 DUP3 ADD SLOAD DUP2 MSTORE PUSH1 0x20 ADD PUSH1 0x2 DUP3 ADD DUP1 SLOAD PUSH2 0x28C2 SWAP1 PUSH2 0x3BD2 JUMP JUMPDEST DUP1 PUSH1 0x1F ADD PUSH1 0x20 DUP1 SWAP2 DIV MUL PUSH1 0x20 ADD PUSH1 0x40 MLOAD SWAP1 DUP2 ADD PUSH1 0x40 MSTORE DUP1 SWAP3 SWAP2 SWAP1 DUP2 DUP2 MSTORE PUSH1 0x20 ADD DUP3 DUP1 SLOAD PUSH2 0x28EE SWAP1 PUSH2 0x3BD2 JUMP JUMPDEST DUP1 ISZERO PUSH2 0x293B JUMPI DUP1 PUSH1 0x1F LT PUSH2 0x2910 JUMPI PUSH2 0x100 DUP1 DUP4 SLOAD DIV MUL DUP4 MSTORE SWAP2 PUSH1 0x20 ADD SWAP2 PUSH2 0x293B JUMP JUMPDEST DUP3 ADD SWAP2 SWAP1 PUSH1 0x0 MSTORE PUSH1 0x20 PUSH1 0x0 KECCAK256 SWAP1 JUMPDEST DUP2 SLOAD DUP2 MSTORE SWAP1 PUSH1 0x1 ADD SWAP1 PUSH1 0x20 ADD DUP1 DUP4 GT PUSH2 0x291E JUMPI DUP3 SWAP1 SUB PUSH1 0x1F AND DUP3 ADD SWAP2 JUMPDEST POP POP POP SWAP2 DUP4 MSTORE POP POP PUSH1 0x3 DUP3 ADD SLOAD PUSH1 0x1 PUSH1 0x1 PUSH1 0xA0 SHL SUB AND PUSH1 0x20 DUP1 DUP4 ADD SWAP2 SWAP1 SWAP2 MSTORE PUSH1 0x4 DUP4 ADD DUP1 SLOAD PUSH1 0x40 DUP1 MLOAD DUP3 DUP6 MUL DUP2 ADD DUP6 ADD DUP3 MSTORE DUP3 DUP2 MSTORE SWAP5 ADD SWAP4 SWAP3 DUP4 ADD DUP3 DUP3 DUP1 ISZERO PUSH2 0x29AD JUMPI PUSH1 0x20 MUL DUP3 ADD SWAP2 SWAP1 PUSH1 0x0 MSTORE PUSH1 0x20 PUSH1 0x0 KECCAK256 SWAP1 JUMPDEST DUP2 SLOAD PUSH1 0x1 PUSH1 0x1 PUSH1 0xA0 SHL SUB AND DUP2 MSTORE PUSH1 0x1 SWAP1 SWAP2 ADD SWAP1 PUSH1 0x20 ADD DUP1 DUP4 GT PUSH2 0x298F JUMPI JUMPDEST POP POP POP POP POP DUP2 MSTORE PUSH1 0x20 ADD PUSH1 0x5 DUP3 ADD DUP1 SLOAD DUP1 PUSH1 0x20 MUL PUSH1 0x20 ADD PUSH1 0x40 MLOAD SWAP1 DUP2 ADD PUSH1 0x40 MSTORE DUP1 SWAP3 SWAP2 SWAP1 DUP2 DUP2 MSTORE PUSH1 0x20 ADD DUP3 DUP1 SLOAD DUP1 ISZERO PUSH2 0x2A0F JUMPI PUSH1 0x20 MUL DUP3 ADD SWAP2 SWAP1 PUSH1 0x0 MSTORE PUSH1 0x20 PUSH1 0x0 KECCAK256 SWAP1 JUMPDEST DUP2 SLOAD PUSH1 0x1 PUSH1 0x1 PUSH1 0xA0 SHL SUB AND DUP2 MSTORE PUSH1 0x1 SWAP1 SWAP2 ADD SWAP1 PUSH1 0x20 ADD DUP1 DUP4 GT PUSH2 0x29F1 JUMPI JUMPDEST POP POP POP SWAP2 DUP4 MSTORE POP POP PUSH1 0x6 DUP3 ADD SLOAD PUSH1 0x20 DUP1 DUP4 ADD SWAP2 SWAP1 SWAP2 MSTORE PUSH1 0x7 DUP4 ADD SLOAD PUSH1 0x40 DUP4 ADD MSTORE PUSH1 0x8 DUP4 ADD SLOAD PUSH1 0x60 DUP4 ADD MSTORE PUSH1 0x9 DUP4 ADD SLOAD PUSH1 0xFF SWAP1 DUP2 AND ISZERO ISZERO PUSH1 0x80 DUP5 ADD MSTORE PUSH1 0xA DUP5 ADD SLOAD PUSH1 0xA0 DUP5 ADD MSTORE PUSH1 0xB SWAP1 SWAP4 ADD SLOAD PUSH1 0x1 PUSH1 0x1 PUSH1 0xA0 SHL SUB DUP1 DUP3 AND PUSH1 0xC0 DUP6 ADD MSTORE PUSH1 0x1 PUSH1 0xA0 SHL SWAP1 SWAP2 DIV SWAP1 SWAP4 AND ISZERO ISZERO PUSH1 0xE0 SWAP1 SWAP3 ADD SWAP2 SWAP1 SWAP2 MSTORE SWAP1 DUP6 AND PUSH2 0x160 DUP4 ADD MSTORE DUP2 ADD MLOAD SWAP1 SWAP2 POP PUSH1 0x1 EQ PUSH2 0x2ADE JUMPI PUSH1 0x40 MLOAD PUSH3 0x461BCD PUSH1 0xE5 SHL DUP2 MSTORE PUSH1 0x20 PUSH1 0x4 DUP3 ADD MSTORE PUSH1 0x1C PUSH1 0x24 DUP3 ADD MSTORE PUSH32 0x5468697320497320616E204F70656E20506169642042616C6C6F742100000000 PUSH1 0x44 DUP3 ADD MSTORE PUSH1 0x64 ADD PUSH2 0x981 JUMP JUMPDEST PUSH1 0x8 SLOAD CALLVALUE LT ISZERO PUSH2 0x2B28 JUMPI PUSH1 0x40 MLOAD PUSH3 0x461BCD PUSH1 0xE5 SHL DUP2 MSTORE PUSH1 0x20 PUSH1 0x4 DUP3 ADD MSTORE PUSH1 0x15 PUSH1 0x24 DUP3 ADD MSTORE PUSH21 0x4361737420766F7465207769746820312045544821 PUSH1 0x58 SHL PUSH1 0x44 DUP3 ADD MSTORE PUSH1 0x64 ADD PUSH2 0x981 JUMP JUMPDEST CALLER PUSH1 0x0 SWAP1 DUP2 MSTORE PUSH1 0x1D PUSH1 0x20 MSTORE PUSH1 0x40 SWAP1 KECCAK256 PUSH1 0x3 ADD DUP1 SLOAD PUSH2 0xFFFF NOT AND PUSH2 0x101 OR SWAP1 DUP2 SWAP1 SSTORE PUSH3 0x10000 SWAP1 DIV PUSH1 0xFF AND ISZERO PUSH2 0x2B9F JUMPI PUSH1 0x40 MLOAD PUSH3 0x461BCD PUSH1 0xE5 SHL DUP2 MSTORE PUSH1 0x20 PUSH1 0x4 DUP3 ADD MSTORE PUSH1 0x1B PUSH1 0x24 DUP3 ADD MSTORE PUSH32 0x596F7520616C7265616479206361737420796F757220766F7465210000000000 PUSH1 0x44 DUP3 ADD MSTORE PUSH1 0x64 ADD PUSH2 0x981 JUMP JUMPDEST NUMBER PUSH1 0xE SLOAD GT ISZERO PUSH2 0x2BE6 JUMPI PUSH1 0x40 MLOAD PUSH3 0x461BCD PUSH1 0xE5 SHL DUP2 MSTORE PUSH1 0x20 PUSH1 0x4 DUP3 ADD MSTORE PUSH1 0x12 PUSH1 0x24 DUP3 ADD MSTORE PUSH18 0x546869732042616C6C6F7420456E64656421 PUSH1 0x70 SHL PUSH1 0x44 DUP3 ADD MSTORE PUSH1 0x64 ADD PUSH2 0x981 JUMP JUMPDEST PUSH1 0x1 PUSH1 0x1 PUSH1 0xA0 SHL SUB DUP4 AND PUSH1 0x0 SWAP1 DUP2 MSTORE PUSH1 0x1B PUSH1 0x20 MSTORE PUSH1 0x40 SWAP1 KECCAK256 PUSH1 0x1 ADD SLOAD DUP3 EQ ISZERO PUSH2 0x2C21 JUMPI PUSH1 0x40 MLOAD PUSH3 0x461BCD PUSH1 0xE5 SHL DUP2 MSTORE PUSH1 0x4 ADD PUSH2 0x981 SWAP1 PUSH2 0x3C71 JUMP JUMPDEST PUSH2 0x160 DUP2 ADD MLOAD PUSH1 0x1 PUSH1 0x1 PUSH1 0xA0 SHL SUB SWAP1 DUP2 AND PUSH1 0x0 SWAP1 DUP2 MSTORE PUSH1 0x1B PUSH1 0x20 MSTORE PUSH1 0x40 DUP1 DUP3 KECCAK256 PUSH1 0x3 SWAP1 DUP2 ADD SLOAD SWAP4 DUP8 AND DUP4 MSTORE SWAP2 KECCAK256 ADD SLOAD PUSH2 0x2C5B SWAP1 PUSH1 0x1 PUSH2 0x3CD3 JUMP JUMPDEST GT ISZERO PUSH2 0x2C72 JUMPI PUSH1 0x1 PUSH1 0x1 PUSH1 0xA0 SHL SUB DUP4 AND PUSH2 0x160 DUP3 ADD MSTORE JUMPDEST PUSH1 0x1 PUSH1 0x1 PUSH1 0xA0 SHL SUB DUP4 AND PUSH1 0x0 SWAP1 DUP2 MSTORE PUSH1 0x1B PUSH1 0x20 MSTORE PUSH1 0x40 DUP2 KECCAK256 PUSH1 0x3 ADD DUP1 SLOAD SWAP2 PUSH2 0x2C99 DUP4 PUSH2 0x3C56 JUMP JUMPDEST SWAP1 SWAP2 SSTORE POP POP CALLER PUSH1 0x0 SWAP1 DUP2 MSTORE PUSH1 0x1D PUSH1 0x20 MSTORE PUSH1 0x40 DUP1 DUP3 KECCAK256 PUSH1 0x3 ADD DUP1 SLOAD PUSH3 0xFF0000 NOT AND PUSH3 0x10000 OR SWAP1 SSTORE MLOAD PUSH1 0x1 PUSH1 0x1 PUSH1 0xA0 SHL SUB DUP6 AND SWAP2 PUSH32 0xAEC2CCAE8681FD01AD220ECB7E9B5F7D485B1CC3CC01599ACB1578016B30A6BD SWAP2 LOG2 POP POP POP JUMP JUMPDEST PUSH2 0x2D2A PUSH1 0x40 MLOAD DUP1 PUSH1 0x80 ADD PUSH1 0x40 MSTORE DUP1 PUSH1 0x0 DUP2 MSTORE PUSH1 0x20 ADD PUSH1 0x0 PUSH1 0x1 PUSH1 0x1 PUSH1 0xA0 SHL SUB AND DUP2 MSTORE PUSH1 0x20 ADD PUSH1 0x60 DUP2 MSTORE PUSH1 0x20 ADD PUSH1 0x0 ISZERO ISZERO DUP2 MSTORE POP SWAP1 JUMP JUMPDEST PUSH1 0x16 SLOAD PUSH1 0x1 PUSH1 0x1 PUSH1 0xA0 SHL SUB AND CALLER EQ DUP1 PUSH2 0x2D4D JUMPI POP PUSH1 0x17 SLOAD PUSH1 0x1 PUSH1 0x1 PUSH1 0xA0 SHL SUB AND CALLER EQ JUMPDEST PUSH2 0x2D69 JUMPI PUSH1 0x40 MLOAD PUSH3 0x461BCD PUSH1 0xE5 SHL DUP2 MSTORE PUSH1 0x4 ADD PUSH2 0x981 SWAP1 PUSH2 0x3B47 JUMP JUMPDEST PUSH1 0x1 SLOAD DUP3 GT ISZERO PUSH2 0x2DB2 JUMPI PUSH1 0x40 MLOAD PUSH3 0x461BCD PUSH1 0xE5 SHL DUP2 MSTORE PUSH1 0x20 PUSH1 0x4 DUP3 ADD MSTORE PUSH1 0x14 PUSH1 0x24 DUP3 ADD MSTORE PUSH20 0x496E76616C696420656C656374696F6E20496421 PUSH1 0x60 SHL PUSH1 0x44 DUP3 ADD MSTORE PUSH1 0x64 ADD PUSH2 0x981 JUMP JUMPDEST PUSH1 0x0 DUP3 DUP2 SLOAD DUP2 LT PUSH2 0x2DC5 JUMPI PUSH2 0x2DC5 PUSH2 0x3BBC JUMP JUMPDEST SWAP1 PUSH1 0x0 MSTORE PUSH1 0x20 PUSH1 0x0 KECCAK256 SWAP1 PUSH1 0x4 MUL ADD PUSH1 0x40 MLOAD DUP1 PUSH1 0x80 ADD PUSH1 0x40 MSTORE SWAP1 DUP2 PUSH1 0x0 DUP3 ADD SLOAD DUP2 MSTORE PUSH1 0x20 ADD PUSH1 0x1 DUP3 ADD PUSH1 0x0 SWAP1 SLOAD SWAP1 PUSH2 0x100 EXP SWAP1 DIV PUSH1 0x1 PUSH1 0x1 PUSH1 0xA0 SHL SUB AND PUSH1 0x1 PUSH1 0x1 PUSH1 0xA0 SHL SUB AND PUSH1 0x1 PUSH1 0x1 PUSH1 0xA0 SHL SUB AND DUP2 MSTORE PUSH1 0x20 ADD PUSH1 0x2 DUP3 ADD DUP1 SLOAD PUSH2 0x2E27 SWAP1 PUSH2 0x3BD2 JUMP JUMPDEST DUP1 PUSH1 0x1F ADD PUSH1 0x20 DUP1 SWAP2 DIV MUL PUSH1 0x20 ADD PUSH1 0x40 MLOAD SWAP1 DUP2 ADD PUSH1 0x40 MSTORE DUP1 SWAP3 SWAP2 SWAP1 DUP2 DUP2 MSTORE PUSH1 0x20 ADD DUP3 DUP1 SLOAD PUSH2 0x2E53 SWAP1 PUSH2 0x3BD2 JUMP JUMPDEST DUP1 ISZERO PUSH2 0x2EA0 JUMPI DUP1 PUSH1 0x1F LT PUSH2 0x2E75 JUMPI PUSH2 0x100 DUP1 DUP4 SLOAD DIV MUL DUP4 MSTORE SWAP2 PUSH1 0x20 ADD SWAP2 PUSH2 0x2EA0 JUMP JUMPDEST DUP3 ADD SWAP2 SWAP1 PUSH1 0x0 MSTORE PUSH1 0x20 PUSH1 0x0 KECCAK256 SWAP1 JUMPDEST DUP2 SLOAD DUP2 MSTORE SWAP1 PUSH1 0x1 ADD SWAP1 PUSH1 0x20 ADD DUP1 DUP4 GT PUSH2 0x2E83 JUMPI DUP3 SWAP1 SUB PUSH1 0x1F AND DUP3 ADD SWAP2 JUMPDEST POP POP POP SWAP2 DUP4 MSTORE POP POP PUSH1 0x3 SWAP2 SWAP1 SWAP2 ADD SLOAD PUSH1 0xFF AND ISZERO ISZERO PUSH1 0x20 SWAP1 SWAP2 ADD MSTORE SWAP3 SWAP2 POP POP JUMP JUMPDEST PUSH1 0x18 PUSH1 0x20 MSTORE PUSH1 0x0 SWAP1 DUP2 MSTORE PUSH1 0x40 SWAP1 KECCAK256 DUP1 SLOAD PUSH1 0x1 DUP3 ADD SLOAD PUSH1 0x2 DUP4 ADD DUP1 SLOAD SWAP3 SWAP4 SWAP2 SWAP3 PUSH2 0x18DE SWAP1 PUSH2 0x3BD2 JUMP JUMPDEST PUSH1 0x1 SLOAD PUSH1 0x60 SWAP1 DUP3 GT ISZERO PUSH2 0x2F0D JUMPI PUSH1 0x40 MLOAD PUSH3 0x461BCD PUSH1 0xE5 SHL DUP2 MSTORE PUSH1 0x4 ADD PUSH2 0x981 SWAP1 PUSH2 0x3B90 JUMP JUMPDEST PUSH1 0x0 PUSH1 0x1 DUP4 DUP2 SLOAD DUP2 LT PUSH2 0x2F22 JUMPI PUSH2 0x2F22 PUSH2 0x3BBC JUMP JUMPDEST SWAP1 PUSH1 0x0 MSTORE PUSH1 0x20 PUSH1 0x0 KECCAK256 SWAP1 PUSH1 0xC MUL ADD SWAP1 POP DUP1 PUSH1 0x1 ADD SLOAD PUSH1 0x0 EQ ISZERO PUSH2 0x2FC4 JUMPI PUSH1 0x1 DUP4 DUP2 SLOAD DUP2 LT PUSH2 0x2F52 JUMPI PUSH2 0x2F52 PUSH2 0x3BBC JUMP JUMPDEST SWAP1 PUSH1 0x0 MSTORE PUSH1 0x20 PUSH1 0x0 KECCAK256 SWAP1 PUSH1 0xC MUL ADD PUSH1 0x4 ADD DUP1 SLOAD DUP1 PUSH1 0x20 MUL PUSH1 0x20 ADD PUSH1 0x40 MLOAD SWAP1 DUP2 ADD PUSH1 0x40 MSTORE DUP1 SWAP3 SWAP2 SWAP1 DUP2 DUP2 MSTORE PUSH1 0x20 ADD DUP3 DUP1 SLOAD DUP1 ISZERO PUSH2 0x2FB7 JUMPI PUSH1 0x20 MUL DUP3 ADD SWAP2 SWAP1 PUSH1 0x0 MSTORE PUSH1 0x20 PUSH1 0x0 KECCAK256 SWAP1 JUMPDEST DUP2 SLOAD PUSH1 0x1 PUSH1 0x1 PUSH1 0xA0 SHL SUB AND DUP2 MSTORE PUSH1 0x1 SWAP1 SWAP2 ADD SWAP1 PUSH1 0x20 ADD DUP1 DUP4 GT PUSH2 0x2F99 JUMPI JUMPDEST POP POP POP POP POP SWAP2 POP POP SWAP2 SWAP1 POP JUMP JUMPDEST PUSH1 0x1 DUP2 PUSH1 0x1 ADD SLOAD LT PUSH2 0x3022 JUMPI PUSH1 0x16 SLOAD PUSH1 0x1 PUSH1 0x1 PUSH1 0xA0 SHL SUB AND CALLER EQ DUP1 PUSH2 0x2FF3 JUMPI POP PUSH1 0x17 SLOAD PUSH1 0x1 PUSH1 0x1 PUSH1 0xA0 SHL SUB AND CALLER EQ JUMPDEST PUSH2 0x300F JUMPI PUSH1 0x40 MLOAD PUSH3 0x461BCD PUSH1 0xE5 SHL DUP2 MSTORE PUSH1 0x4 ADD PUSH2 0x981 SWAP1 PUSH2 0x3CEB JUMP JUMPDEST PUSH1 0x1 DUP4 DUP2 SLOAD DUP2 LT PUSH2 0x2F52 JUMPI PUSH2 0x2F52 PUSH2 0x3BBC JUMP JUMPDEST POP SWAP2 SWAP1 POP JUMP JUMPDEST PUSH1 0x1 SLOAD PUSH1 0x60 SWAP1 DUP3 GT ISZERO PUSH2 0x304D JUMPI PUSH1 0x40 MLOAD PUSH3 0x461BCD PUSH1 0xE5 SHL DUP2 MSTORE PUSH1 0x4 ADD PUSH2 0x981 SWAP1 PUSH2 0x3B90 JUMP JUMPDEST PUSH1 0x0 PUSH1 0x1 DUP4 DUP2 SLOAD DUP2 LT PUSH2 0x3062 JUMPI PUSH2 0x3062 PUSH2 0x3BBC JUMP JUMPDEST SWAP1 PUSH1 0x0 MSTORE PUSH1 0x20 PUSH1 0x0 KECCAK256 SWAP1 PUSH1 0xC MUL ADD PUSH1 0x40 MLOAD DUP1 PUSH2 0x1A0 ADD PUSH1 0x40 MSTORE SWAP1 DUP2 PUSH1 0x0 DUP3 ADD SLOAD DUP2 MSTORE PUSH1 0x20 ADD PUSH1 0x1 DUP3 ADD SLOAD DUP2 MSTORE PUSH1 0x20 ADD PUSH1 0x2 DUP3 ADD DUP1 SLOAD PUSH2 0x30A0 SWAP1 PUSH2 0x3BD2 JUMP JUMPDEST DUP1 PUSH1 0x1F ADD PUSH1 0x20 DUP1 SWAP2 DIV MUL PUSH1 0x20 ADD PUSH1 0x40 MLOAD SWAP1 DUP2 ADD PUSH1 0x40 MSTORE DUP1 SWAP3 SWAP2 SWAP1 DUP2 DUP2 MSTORE PUSH1 0x20 ADD DUP3 DUP1 SLOAD PUSH2 0x30CC SWAP1 PUSH2 0x3BD2 JUMP JUMPDEST DUP1 ISZERO PUSH2 0x3119 JUMPI DUP1 PUSH1 0x1F LT PUSH2 0x30EE JUMPI PUSH2 0x100 DUP1 DUP4 SLOAD DIV MUL DUP4 MSTORE SWAP2 PUSH1 0x20 ADD SWAP2 PUSH2 0x3119 JUMP JUMPDEST DUP3 ADD SWAP2 SWAP1 PUSH1 0x0 MSTORE PUSH1 0x20 PUSH1 0x0 KECCAK256 SWAP1 JUMPDEST DUP2 SLOAD DUP2 MSTORE SWAP1 PUSH1 0x1 ADD SWAP1 PUSH1 0x20 ADD DUP1 DUP4 GT PUSH2 0x30FC JUMPI DUP3 SWAP1 SUB PUSH1 0x1F AND DUP3 ADD SWAP2 JUMPDEST POP POP POP SWAP2 DUP4 MSTORE POP POP PUSH1 0x3 DUP3 ADD SLOAD PUSH1 0x1 PUSH1 0x1 PUSH1 0xA0 SHL SUB AND PUSH1 0x20 DUP1 DUP4 ADD SWAP2 SWAP1 SWAP2 MSTORE PUSH1 0x4 DUP4 ADD DUP1 SLOAD PUSH1 0x40 DUP1 MLOAD DUP3 DUP6 MUL DUP2 ADD DUP6 ADD DUP3 MSTORE DUP3 DUP2 MSTORE SWAP5 ADD SWAP4 SWAP3 DUP4 ADD DUP3 DUP3 DUP1 ISZERO PUSH2 0x318B JUMPI PUSH1 0x20 MUL DUP3 ADD SWAP2 SWAP1 PUSH1 0x0 MSTORE PUSH1 0x20 PUSH1 0x0 KECCAK256 SWAP1 JUMPDEST DUP2 SLOAD PUSH1 0x1 PUSH1 0x1 PUSH1 0xA0 SHL SUB AND DUP2 MSTORE PUSH1 0x1 SWAP1 SWAP2 ADD SWAP1 PUSH1 0x20 ADD DUP1 DUP4 GT PUSH2 0x316D JUMPI JUMPDEST POP POP POP POP POP DUP2 MSTORE PUSH1 0x20 ADD PUSH1 0x5 DUP3 ADD DUP1 SLOAD DUP1 PUSH1 0x20 MUL PUSH1 0x20 ADD PUSH1 0x40 MLOAD SWAP1 DUP2 ADD PUSH1 0x40 MSTORE DUP1 SWAP3 SWAP2 SWAP1 DUP2 DUP2 MSTORE PUSH1 0x20 ADD DUP3 DUP1 SLOAD DUP1 ISZERO PUSH2 0x31ED JUMPI PUSH1 0x20 MUL DUP3 ADD SWAP2 SWAP1 PUSH1 0x0 MSTORE PUSH1 0x20 PUSH1 0x0 KECCAK256 SWAP1 JUMPDEST DUP2 SLOAD PUSH1 0x1 PUSH1 0x1 PUSH1 0xA0 SHL SUB AND DUP2 MSTORE PUSH1 0x1 SWAP1 SWAP2 ADD SWAP1 PUSH1 0x20 ADD DUP1 DUP4 GT PUSH2 0x31CF JUMPI JUMPDEST POP POP POP SWAP2 DUP4 MSTORE POP POP PUSH1 0x6 DUP3 ADD SLOAD PUSH1 0x20 DUP1 DUP4 ADD SWAP2 SWAP1 SWAP2 MSTORE PUSH1 0x7 DUP4 ADD SLOAD PUSH1 0x40 DUP4 ADD MSTORE PUSH1 0x8 DUP4 ADD SLOAD PUSH1 0x60 DUP4 ADD MSTORE PUSH1 0x9 DUP4 ADD SLOAD PUSH1 0xFF SWAP1 DUP2 AND ISZERO ISZERO PUSH1 0x80 DUP5 ADD MSTORE PUSH1 0xA DUP5 ADD SLOAD PUSH1 0xA0 DUP5 ADD MSTORE PUSH1 0xB SWAP1 SWAP4 ADD SLOAD PUSH1 0x1 PUSH1 0x1 PUSH1 0xA0 SHL SUB DUP2 AND PUSH1 0xC0 DUP5 ADD MSTORE PUSH1 0x1 PUSH1 0xA0 SHL SWAP1 DIV SWAP1 SWAP3 AND ISZERO ISZERO PUSH1 0xE0 SWAP1 SWAP2 ADD MSTORE DUP2 ADD MLOAD SWAP1 SWAP2 POP PUSH2 0x3268 JUMPI PUSH2 0x3022 JUMP JUMPDEST PUSH1 0x1 DUP2 PUSH1 0x20 ADD MLOAD LT PUSH2 0x3022 JUMPI PUSH1 0x16 SLOAD PUSH1 0x1 PUSH1 0x1 PUSH1 0xA0 SHL SUB AND CALLER EQ DUP1 PUSH2 0x3297 JUMPI POP PUSH1 0x17 SLOAD PUSH1 0x1 PUSH1 0x1 PUSH1 0xA0 SHL SUB AND CALLER EQ JUMPDEST PUSH2 0x3022 JUMPI PUSH1 0x40 MLOAD PUSH3 0x461BCD PUSH1 0xE5 SHL DUP2 MSTORE PUSH1 0x4 ADD PUSH2 0x981 SWAP1 PUSH2 0x3CEB JUMP JUMPDEST PUSH2 0x160 DUP2 ADD MLOAD PUSH1 0x1 PUSH1 0x1 PUSH1 0xA0 SHL SUB SWAP1 DUP2 AND PUSH1 0x0 SWAP1 DUP2 MSTORE PUSH1 0x1B PUSH1 0x20 MSTORE PUSH1 0x40 DUP1 DUP3 KECCAK256 PUSH1 0x3 SWAP1 DUP2 ADD SLOAD SWAP4 DUP7 AND DUP4 MSTORE SWAP1 DUP3 KECCAK256 ADD SLOAD SWAP1 SWAP2 SWAP1 PUSH2 0x32F1 SWAP1 PUSH1 0x1 PUSH2 0x3CD3 JUMP JUMPDEST GT ISZERO PUSH2 0x3314 JUMPI PUSH1 0x1 PUSH1 0x1 PUSH1 0xA0 SHL SUB DUP4 AND PUSH2 0x160 DUP4 ADD MSTORE PUSH1 0x0 PUSH2 0x180 DUP4 ADD MSTORE PUSH2 0x335D JUMP JUMPDEST PUSH2 0x160 DUP3 ADD MLOAD PUSH1 0x1 PUSH1 0x1 PUSH1 0xA0 SHL SUB SWAP1 DUP2 AND PUSH1 0x0 SWAP1 DUP2 MSTORE PUSH1 0x1B PUSH1 0x20 MSTORE PUSH1 0x40 DUP1 DUP3 KECCAK256 PUSH1 0x3 SWAP1 DUP2 ADD SLOAD SWAP4 DUP8 AND DUP4 MSTORE SWAP2 KECCAK256 ADD SLOAD PUSH2 0x334E SWAP1 PUSH1 0x1 PUSH2 0x3CD3 JUMP JUMPDEST EQ ISZERO PUSH2 0x335D JUMPI PUSH1 0x1 PUSH2 0x180 DUP4 ADD MSTORE JUMPDEST POP PUSH2 0x180 ADD MLOAD SWAP2 SWAP1 POP JUMP JUMPDEST PUSH1 0x40 MLOAD DUP1 PUSH2 0x1A0 ADD PUSH1 0x40 MSTORE DUP1 PUSH1 0x0 DUP2 MSTORE PUSH1 0x20 ADD PUSH1 0x0 DUP2 MSTORE PUSH1 0x20 ADD PUSH1 0x60 DUP2 MSTORE PUSH1 0x20 ADD PUSH1 0x0 PUSH1 0x1 PUSH1 0x1 PUSH1 0xA0 SHL SUB AND DUP2 MSTORE PUSH1 0x20 ADD PUSH1 0x60 DUP2 MSTORE PUSH1 0x20 ADD PUSH1 0x60 DUP2 MSTORE PUSH1 0x20 ADD PUSH1 0x0 DUP2 MSTORE PUSH1 0x20 ADD PUSH1 0x0 DUP2 MSTORE PUSH1 0x20 ADD PUSH1 0x0 DUP2 MSTORE PUSH1 0x20 ADD PUSH1 0x0 ISZERO ISZERO DUP2 MSTORE PUSH1 0x20 ADD PUSH1 0x0 DUP2 MSTORE PUSH1 0x20 ADD PUSH1 0x0 PUSH1 0x1 PUSH1 0x1 PUSH1 0xA0 SHL SUB AND DUP2 MSTORE PUSH1 0x20 ADD PUSH1 0x0 ISZERO ISZERO DUP2 MSTORE POP SWAP1 JUMP JUMPDEST DUP3 DUP1 SLOAD DUP3 DUP3 SSTORE SWAP1 PUSH1 0x0 MSTORE PUSH1 0x20 PUSH1 0x0 KECCAK256 SWAP1 DUP2 ADD SWAP3 DUP3 ISZERO PUSH2 0x343B JUMPI SWAP2 PUSH1 0x20 MUL DUP3 ADD JUMPDEST DUP3 DUP2 GT ISZERO PUSH2 0x343B JUMPI DUP3 MLOAD DUP3 SLOAD PUSH1 0x1 PUSH1 0x1 PUSH1 0xA0 SHL SUB NOT AND PUSH1 0x1 PUSH1 0x1 PUSH1 0xA0 SHL SUB SWAP1 SWAP2 AND OR DUP3 SSTORE PUSH1 0x20 SWAP1 SWAP3 ADD SWAP2 PUSH1 0x1 SWAP1 SWAP2 ADD SWAP1 PUSH2 0x3406 JUMP JUMPDEST POP PUSH2 0x3447 SWAP3 SWAP2 POP PUSH2 0x34BF JUMP JUMPDEST POP SWAP1 JUMP JUMPDEST DUP3 DUP1 SLOAD PUSH2 0x3457 SWAP1 PUSH2 0x3BD2 JUMP JUMPDEST SWAP1 PUSH1 0x0 MSTORE PUSH1 0x20 PUSH1 0x0 KECCAK256 SWAP1 PUSH1 0x1F ADD PUSH1 0x20 SWAP1 DIV DUP2 ADD SWAP3 DUP3 PUSH2 0x3479 JUMPI PUSH1 0x0 DUP6 SSTORE PUSH2 0x343B JUMP JUMPDEST DUP3 PUSH1 0x1F LT PUSH2 0x3492 JUMPI DUP1 MLOAD PUSH1 0xFF NOT AND DUP4 DUP1 ADD OR DUP6 SSTORE PUSH2 0x343B JUMP JUMPDEST DUP3 DUP1 ADD PUSH1 0x1 ADD DUP6 SSTORE DUP3 ISZERO PUSH2 0x343B JUMPI SWAP2 DUP3 ADD JUMPDEST DUP3 DUP2 GT ISZERO PUSH2 0x343B JUMPI DUP3 MLOAD DUP3 SSTORE SWAP2 PUSH1 0x20 ADD SWAP2 SWAP1 PUSH1 0x1 ADD SWAP1 PUSH2 0x34A4 JUMP JUMPDEST JUMPDEST DUP1 DUP3 GT ISZERO PUSH2 0x3447 JUMPI PUSH1 0x0 DUP2 SSTORE PUSH1 0x1 ADD PUSH2 0x34C0 JUMP JUMPDEST PUSH1 0x0 DUP1 PUSH1 0x40 DUP4 DUP6 SUB SLT ISZERO PUSH2 0x34E7 JUMPI PUSH1 0x0 DUP1 REVERT JUMPDEST POP POP DUP1 CALLDATALOAD SWAP3 PUSH1 0x20 SWAP1 SWAP2 ADD CALLDATALOAD SWAP2 POP JUMP JUMPDEST DUP1 CALLDATALOAD PUSH1 0x1 PUSH1 0x1 PUSH1 0xA0 SHL SUB DUP2 AND DUP2 EQ PUSH2 0x234E JUMPI PUSH1 0x0 DUP1 REVERT JUMPDEST PUSH1 0x0 DUP1 PUSH1 0x40 DUP4 DUP6 SUB SLT ISZERO PUSH2 0x3520 JUMPI PUSH1 0x0 DUP1 REVERT JUMPDEST PUSH2 0x3529 DUP4 PUSH2 0x34F6 JUMP JUMPDEST SWAP5 PUSH1 0x20 SWAP4 SWAP1 SWAP4 ADD CALLDATALOAD SWAP4 POP POP POP JUMP JUMPDEST PUSH4 0x4E487B71 PUSH1 0xE0 SHL PUSH1 0x0 MSTORE PUSH1 0x41 PUSH1 0x4 MSTORE PUSH1 0x24 PUSH1 0x0 REVERT JUMPDEST PUSH1 0x40 MLOAD PUSH1 0x1F DUP3 ADD PUSH1 0x1F NOT AND DUP2 ADD PUSH8 0xFFFFFFFFFFFFFFFF DUP2 GT DUP3 DUP3 LT OR ISZERO PUSH2 0x3576 JUMPI PUSH2 0x3576 PUSH2 0x3537 JUMP JUMPDEST PUSH1 0x40 MSTORE SWAP2 SWAP1 POP JUMP JUMPDEST PUSH1 0x0 DUP3 PUSH1 0x1F DUP4 ADD SLT PUSH2 0x358F JUMPI PUSH1 0x0 DUP1 REVERT JUMPDEST DUP2 CALLDATALOAD PUSH8 0xFFFFFFFFFFFFFFFF DUP2 GT ISZERO PUSH2 0x35A9 JUMPI PUSH2 0x35A9 PUSH2 0x3537 JUMP JUMPDEST PUSH2 0x35BC PUSH1 0x1F DUP3 ADD PUSH1 0x1F NOT AND PUSH1 0x20 ADD PUSH2 0x354D JUMP JUMPDEST DUP2 DUP2 MSTORE DUP5 PUSH1 0x20 DUP4 DUP7 ADD ADD GT ISZERO PUSH2 0x35D1 JUMPI PUSH1 0x0 DUP1 REVERT JUMPDEST DUP2 PUSH1 0x20 DUP6 ADD PUSH1 0x20 DUP4 ADD CALLDATACOPY PUSH1 0x0 SWAP2 DUP2 ADD PUSH1 0x20 ADD SWAP2 SWAP1 SWAP2 MSTORE SWAP4 SWAP3 POP POP POP JUMP JUMPDEST PUSH1 0x0 DUP3 PUSH1 0x1F DUP4 ADD SLT PUSH2 0x35FF JUMPI PUSH1 0x0 DUP1 REVERT JUMPDEST DUP2 CALLDATALOAD PUSH1 0x20 PUSH8 0xFFFFFFFFFFFFFFFF DUP3 GT ISZERO PUSH2 0x361B JUMPI PUSH2 0x361B PUSH2 0x3537 JUMP JUMPDEST DUP2 PUSH1 0x5 SHL PUSH2 0x362A DUP3 DUP3 ADD PUSH2 0x354D JUMP JUMPDEST SWAP3 DUP4 MSTORE DUP5 DUP2 ADD DUP3 ADD SWAP3 DUP3 DUP2 ADD SWAP1 DUP8 DUP6 GT ISZERO PUSH2 0x3644 JUMPI PUSH1 0x0 DUP1 REVERT JUMPDEST DUP4 DUP8 ADD SWAP3 POP JUMPDEST DUP5 DUP4 LT ISZERO PUSH2 0x366A JUMPI PUSH2 0x365B DUP4 PUSH2 0x34F6 JUMP JUMPDEST DUP3 MSTORE SWAP2 DUP4 ADD SWAP2 SWAP1 DUP4 ADD SWAP1 PUSH2 0x364A JUMP JUMPDEST SWAP8 SWAP7 POP POP POP POP POP POP POP JUMP JUMPDEST PUSH1 0x0 DUP1 PUSH1 0x0 PUSH1 0x60 DUP5 DUP7 SUB SLT ISZERO PUSH2 0x368A JUMPI PUSH1 0x0 DUP1 REVERT JUMPDEST DUP4 CALLDATALOAD PUSH8 0xFFFFFFFFFFFFFFFF DUP1 DUP3 GT ISZERO PUSH2 0x36A2 JUMPI PUSH1 0x0 DUP1 REVERT JUMPDEST PUSH2 0x36AE DUP8 DUP4 DUP9 ADD PUSH2 0x357E JUMP JUMPDEST SWAP5 POP PUSH1 0x20 DUP7 ADD CALLDATALOAD SWAP2 POP DUP1 DUP3 GT ISZERO PUSH2 0x36C4 JUMPI PUSH1 0x0 DUP1 REVERT JUMPDEST POP PUSH2 0x36D1 DUP7 DUP3 DUP8 ADD PUSH2 0x35EE JUMP JUMPDEST SWAP3 POP POP PUSH1 0x40 DUP5 ADD CALLDATALOAD SWAP1 POP SWAP3 POP SWAP3 POP SWAP3 JUMP JUMPDEST PUSH1 0x0 DUP2 MLOAD DUP1 DUP5 MSTORE PUSH1 0x0 JUMPDEST DUP2 DUP2 LT ISZERO PUSH2 0x3708 JUMPI PUSH1 0x20 DUP2 DUP6 ADD DUP2 ADD MLOAD DUP7 DUP4 ADD DUP3 ADD MSTORE ADD PUSH2 0x36EC JUMP JUMPDEST DUP2 DUP2 GT ISZERO PUSH2 0x371A JUMPI PUSH1 0x0 PUSH1 0x20 DUP4 DUP8 ADD ADD MSTORE JUMPDEST POP PUSH1 0x1F ADD PUSH1 0x1F NOT AND SWAP3 SWAP1 SWAP3 ADD PUSH1 0x20 ADD SWAP3 SWAP2 POP POP JUMP JUMPDEST PUSH1 0x0 DUP2 MLOAD DUP1 DUP5 MSTORE PUSH1 0x20 DUP1 DUP6 ADD SWAP5 POP DUP1 DUP5 ADD PUSH1 0x0 JUMPDEST DUP4 DUP2 LT ISZERO PUSH2 0x3768 JUMPI DUP2 MLOAD PUSH1 0x1 PUSH1 0x1 PUSH1 0xA0 SHL SUB AND DUP8 MSTORE SWAP6 DUP3 ADD SWAP6 SWAP1 DUP3 ADD SWAP1 PUSH1 0x1 ADD PUSH2 0x3743 JUMP JUMPDEST POP SWAP5 SWAP6 SWAP5 POP POP POP POP POP JUMP JUMPDEST PUSH1 0x20 DUP2 MSTORE DUP2 MLOAD PUSH1 0x20 DUP3 ADD MSTORE PUSH1 0x20 DUP3 ADD MLOAD PUSH1 0x40 DUP3 ADD MSTORE PUSH1 0x0 PUSH1 0x40 DUP4 ADD MLOAD PUSH2 0x1A0 DUP1 PUSH1 0x60 DUP6 ADD MSTORE PUSH2 0x37A6 PUSH2 0x1C0 DUP6 ADD DUP4 PUSH2 0x36E2 JUMP JUMPDEST SWAP2 POP PUSH1 0x60 DUP6 ADD MLOAD PUSH2 0x37C2 PUSH1 0x80 DUP7 ADD DUP3 PUSH1 0x1 PUSH1 0x1 PUSH1 0xA0 SHL SUB AND SWAP1 MSTORE JUMP JUMPDEST POP PUSH1 0x80 DUP6 ADD MLOAD PUSH1 0x1F NOT DUP1 DUP7 DUP6 SUB ADD PUSH1 0xA0 DUP8 ADD MSTORE PUSH2 0x37DF DUP5 DUP4 PUSH2 0x372F JUMP JUMPDEST SWAP4 POP PUSH1 0xA0 DUP8 ADD MLOAD SWAP2 POP DUP1 DUP7 DUP6 SUB ADD PUSH1 0xC0 DUP8 ADD MSTORE POP PUSH2 0x37FD DUP4 DUP3 PUSH2 0x372F JUMP JUMPDEST SWAP3 POP POP PUSH1 0xC0 DUP6 ADD MLOAD PUSH1 0xE0 DUP6 ADD MSTORE PUSH1 0xE0 DUP6 ADD MLOAD PUSH2 0x100 DUP2 DUP2 DUP8 ADD MSTORE DUP1 DUP8 ADD MLOAD SWAP2 POP POP PUSH2 0x120 DUP2 DUP2 DUP8 ADD MSTORE DUP1 DUP8 ADD MLOAD SWAP2 POP POP PUSH2 0x140 PUSH2 0x383D DUP2 DUP8 ADD DUP4 ISZERO ISZERO SWAP1 MSTORE JUMP JUMPDEST DUP7 ADD MLOAD PUSH2 0x160 DUP7 DUP2 ADD SWAP2 SWAP1 SWAP2 MSTORE DUP7 ADD MLOAD SWAP1 POP PUSH2 0x180 PUSH2 0x3866 DUP2 DUP8 ADD DUP4 PUSH1 0x1 PUSH1 0x1 PUSH1 0xA0 SHL SUB AND SWAP1 MSTORE JUMP JUMPDEST SWAP1 SWAP6 ADD MLOAD ISZERO ISZERO SWAP4 ADD SWAP3 SWAP1 SWAP3 MSTORE POP SWAP2 SWAP1 POP JUMP JUMPDEST PUSH1 0x0 PUSH1 0x20 DUP3 DUP5 SUB SLT ISZERO PUSH2 0x388A JUMPI PUSH1 0x0 DUP1 REVERT JUMPDEST POP CALLDATALOAD SWAP2 SWAP1 POP JUMP JUMPDEST PUSH1 0x20 DUP2 MSTORE PUSH1 0x0 PUSH2 0x38A4 PUSH1 0x20 DUP4 ADD DUP5 PUSH2 0x36E2 JUMP JUMPDEST SWAP4 SWAP3 POP POP POP JUMP JUMPDEST PUSH1 0x0 PUSH2 0x160 DUP14 DUP4 MSTORE DUP13 PUSH1 0x20 DUP5 ADD MSTORE DUP1 PUSH1 0x40 DUP5 ADD MSTORE PUSH2 0x38CB DUP2 DUP5 ADD DUP14 PUSH2 0x36E2 JUMP JUMPDEST PUSH1 0x1 PUSH1 0x1 PUSH1 0xA0 SHL SUB SWAP12 DUP13 AND PUSH1 0x60 DUP6 ADD MSTORE PUSH1 0x80 DUP5 ADD SWAP11 SWAP1 SWAP11 MSTORE POP POP PUSH1 0xA0 DUP2 ADD SWAP7 SWAP1 SWAP7 MSTORE PUSH1 0xC0 DUP7 ADD SWAP5 SWAP1 SWAP5 MSTORE SWAP2 ISZERO ISZERO PUSH1 0xE0 DUP6 ADD MSTORE PUSH2 0x100 DUP5 ADD MSTORE SWAP1 SWAP4 AND PUSH2 0x120 DUP3 ADD MSTORE SWAP2 ISZERO ISZERO PUSH2 0x140 SWAP1 SWAP3 ADD SWAP2 SWAP1 SWAP2 MSTORE SWAP4 SWAP3 POP POP POP JUMP JUMPDEST DUP5 DUP2 MSTORE PUSH1 0x1 PUSH1 0x1 PUSH1 0xA0 SHL SUB DUP5 AND PUSH1 0x20 DUP3 ADD MSTORE PUSH1 0x80 PUSH1 0x40 DUP3 ADD DUP2 SWAP1 MSTORE PUSH1 0x0 SWAP1 PUSH2 0x394A SWAP1 DUP4 ADD DUP6 PUSH2 0x36E2 JUMP JUMPDEST SWAP1 POP DUP3 ISZERO ISZERO PUSH1 0x60 DUP4 ADD MSTORE SWAP6 SWAP5 POP POP POP POP POP JUMP JUMPDEST PUSH1 0x0 DUP1 PUSH1 0x0 DUP1 PUSH1 0x0 PUSH1 0xA0 DUP7 DUP9 SUB SLT ISZERO PUSH2 0x3975 JUMPI PUSH1 0x0 DUP1 REVERT JUMPDEST DUP6 CALLDATALOAD PUSH8 0xFFFFFFFFFFFFFFFF DUP1 DUP3 GT ISZERO PUSH2 0x398D JUMPI PUSH1 0x0 DUP1 REVERT JUMPDEST PUSH2 0x3999 DUP10 DUP4 DUP11 ADD PUSH2 0x357E JUMP JUMPDEST SWAP7 POP PUSH1 0x20 DUP9 ADD CALLDATALOAD SWAP2 POP DUP1 DUP3 GT ISZERO PUSH2 0x39AF JUMPI PUSH1 0x0 DUP1 REVERT JUMPDEST POP PUSH2 0x39BC DUP9 DUP3 DUP10 ADD PUSH2 0x35EE JUMP JUMPDEST SWAP6 SWAP9 SWAP6 SWAP8 POP POP POP POP PUSH1 0x40 DUP5 ADD CALLDATALOAD SWAP4 PUSH1 0x60 DUP2 ADD CALLDATALOAD SWAP4 PUSH1 0x80 SWAP1 SWAP2 ADD CALLDATALOAD SWAP3 POP SWAP1 POP JUMP JUMPDEST PUSH1 0x0 PUSH1 0x20 DUP3 DUP5 SUB SLT ISZERO PUSH2 0x39EE JUMPI PUSH1 0x0 DUP1 REVERT JUMPDEST PUSH2 0x38A4 DUP3 PUSH2 0x34F6 JUMP JUMPDEST PUSH1 0x0 PUSH1 0x20 DUP3 DUP5 SUB SLT ISZERO PUSH2 0x3A09 JUMPI PUSH1 0x0 DUP1 REVERT JUMPDEST DUP2 CALLDATALOAD DUP1 ISZERO ISZERO DUP2 EQ PUSH2 0x38A4 JUMPI PUSH1 0x0 DUP1 REVERT JUMPDEST PUSH1 0x20 DUP2 MSTORE DUP2 MLOAD PUSH1 0x20 DUP3 ADD MSTORE PUSH1 0x1 DUP1 PUSH1 0xA0 SHL SUB PUSH1 0x20 DUP4 ADD MLOAD AND PUSH1 0x40 DUP3 ADD MSTORE PUSH1 0x0 PUSH1 0x40 DUP4 ADD MLOAD PUSH1 0x80 PUSH1 0x60 DUP5 ADD MSTORE PUSH2 0x3A51 PUSH1 0xA0 DUP5 ADD DUP3 PUSH2 0x36E2 JUMP JUMPDEST SWAP1 POP PUSH1 0x60 DUP5 ADD MLOAD ISZERO ISZERO PUSH1 0x80 DUP5 ADD MSTORE DUP1 SWAP2 POP POP SWAP3 SWAP2 POP POP JUMP JUMPDEST PUSH1 0x20 DUP1 DUP3 MSTORE DUP3 MLOAD DUP3 DUP3 ADD DUP2 SWAP1 MSTORE PUSH1 0x0 SWAP2 SWAP1 DUP5 DUP3 ADD SWAP1 PUSH1 0x40 DUP6 ADD SWAP1 DUP5 JUMPDEST DUP2 DUP2 LT ISZERO PUSH2 0x3AAA JUMPI DUP4 MLOAD PUSH1 0x1 PUSH1 0x1 PUSH1 0xA0 SHL SUB AND DUP4 MSTORE SWAP3 DUP5 ADD SWAP3 SWAP2 DUP5 ADD SWAP2 PUSH1 0x1 ADD PUSH2 0x3A85 JUMP JUMPDEST POP SWAP1 SWAP7 SWAP6 POP POP POP POP POP POP JUMP JUMPDEST PUSH1 0x20 DUP1 DUP3 MSTORE DUP3 MLOAD DUP3 DUP3 ADD DUP2 SWAP1 MSTORE PUSH1 0x0 SWAP2 SWAP1 PUSH1 0x40 SWAP1 DUP2 DUP6 ADD SWAP1 DUP7 DUP5 ADD DUP6 JUMPDEST DUP3 DUP2 LT ISZERO PUSH2 0x3B3A JUMPI DUP2 MLOAD DUP1 MLOAD DUP6 MSTORE DUP7 DUP2 ADD MLOAD PUSH1 0x1 PUSH1 0x1 PUSH1 0xA0 SHL SUB AND DUP8 DUP7 ADD MSTORE DUP6 DUP2 ADD MLOAD DUP7 DUP7 ADD MSTORE PUSH1 0x60 DUP1 DUP3 ADD MLOAD ISZERO ISZERO SWAP1 DUP7 ADD MSTORE PUSH1 0x80 DUP1 DUP3 ADD MLOAD ISZERO ISZERO SWAP1 DUP7 ADD MSTORE PUSH1 0xA0 DUP1 DUP3 ADD MLOAD ISZERO ISZERO SWAP1 DUP7 ADD MSTORE PUSH1 0xC0 SWAP1 DUP2 ADD MLOAD SWAP1 DUP6 ADD MSTORE PUSH1 0xE0 SWAP1 SWAP4 ADD SWAP3 SWAP1 DUP6 ADD SWAP1 PUSH1 0x1 ADD PUSH2 0x3AD3 JUMP JUMPDEST POP SWAP2 SWAP8 SWAP7 POP POP POP POP POP POP POP JUMP JUMPDEST PUSH1 0x20 DUP1 DUP3 MSTORE PUSH1 0x29 SWAP1 DUP3 ADD MSTORE PUSH32 0x496E73756666696369656E74205065726D697373696F6E7320666F7220746869 PUSH1 0x40 DUP3 ADD MSTORE PUSH9 0x7320416374696F6E21 PUSH1 0xB8 SHL PUSH1 0x60 DUP3 ADD MSTORE PUSH1 0x80 ADD SWAP1 JUMP JUMPDEST PUSH1 0x20 DUP1 DUP3 MSTORE PUSH1 0x12 SWAP1 DUP3 ADD MSTORE PUSH18 0x496E76616C69642062616C6C6F7420496421 PUSH1 0x70 SHL PUSH1 0x40 DUP3 ADD MSTORE PUSH1 0x60 ADD SWAP1 JUMP JUMPDEST PUSH4 0x4E487B71 PUSH1 0xE0 SHL PUSH1 0x0 MSTORE PUSH1 0x32 PUSH1 0x4 MSTORE PUSH1 0x24 PUSH1 0x0 REVERT JUMPDEST PUSH1 0x1 DUP2 DUP2 SHR SWAP1 DUP3 AND DUP1 PUSH2 0x3BE6 JUMPI PUSH1 0x7F DUP3 AND SWAP2 POP JUMPDEST PUSH1 0x20 DUP3 LT DUP2 EQ ISZERO PUSH2 0x3022 JUMPI PUSH4 0x4E487B71 PUSH1 0xE0 SHL PUSH1 0x0 MSTORE PUSH1 0x22 PUSH1 0x4 MSTORE PUSH1 0x24 PUSH1 0x0 REVERT JUMPDEST PUSH4 0x4E487B71 PUSH1 0xE0 SHL PUSH1 0x0 MSTORE PUSH1 0x11 PUSH1 0x4 MSTORE PUSH1 0x24 PUSH1 0x0 REVERT JUMPDEST PUSH1 0x0 DUP3 DUP3 LT ISZERO PUSH2 0x3C2F JUMPI PUSH2 0x3C2F PUSH2 0x3C07 JUMP JUMPDEST POP SUB SWAP1 JUMP JUMPDEST PUSH1 0x0 DUP3 PUSH2 0x3C51 JUMPI PUSH4 0x4E487B71 PUSH1 0xE0 SHL PUSH1 0x0 MSTORE PUSH1 0x12 PUSH1 0x4 MSTORE PUSH1 0x24 PUSH1 0x0 REVERT JUMPDEST POP DIV SWAP1 JUMP JUMPDEST PUSH1 0x0 PUSH1 0x0 NOT DUP3 EQ ISZERO PUSH2 0x3C6A JUMPI PUSH2 0x3C6A PUSH2 0x3C07 JUMP JUMPDEST POP PUSH1 0x1 ADD SWAP1 JUMP JUMPDEST PUSH1 0x20 DUP1 DUP3 MSTORE PUSH1 0x23 SWAP1 DUP3 ADD MSTORE PUSH32 0x43616E64696461746520646F6573206E6F7420657869737420696E2042616C6C PUSH1 0x40 DUP3 ADD MSTORE PUSH3 0x6F7421 PUSH1 0xE8 SHL PUSH1 0x60 DUP3 ADD MSTORE PUSH1 0x80 ADD SWAP1 JUMP JUMPDEST PUSH1 0x0 DUP2 PUSH1 0x0 NOT DIV DUP4 GT DUP3 ISZERO ISZERO AND ISZERO PUSH2 0x3CCE JUMPI PUSH2 0x3CCE PUSH2 0x3C07 JUMP JUMPDEST POP MUL SWAP1 JUMP JUMPDEST PUSH1 0x0 DUP3 NOT DUP3 GT ISZERO PUSH2 0x3CE6 JUMPI PUSH2 0x3CE6 PUSH2 0x3C07 JUMP JUMPDEST POP ADD SWAP1 JUMP JUMPDEST PUSH1 0x20 DUP1 DUP3 MSTORE PUSH1 0x25 SWAP1 DUP3 ADD MSTORE PUSH32 0x596F75206E656564205065726D697373696F6E7320666F722074686973204163 PUSH1 0x40 DUP3 ADD MSTORE PUSH5 0x74696F6E21 PUSH1 0xD8 SHL PUSH1 0x60 DUP3 ADD MSTORE PUSH1 0x80 ADD SWAP1 JUMP INVALID LOG2 PUSH5 0x6970667358 0x22 SLT KECCAK256 0x2B NUMBER 0xB9 PUSH25 0xAC52E28519181CD06B3C142042BB00DBD5B30D871069BD2B2E 0xDF MSTORE8 0x22 PUSH5 0x736F6C6343 STOP ADDMOD ADDMOD STOP CALLER ","sha1":"ad653edf0062a281cf31cb9ec3a89e42fadc688d","source":"// SPDX-License-Identifier: GPL-3.0\n\npragma solidity 0.8.8;\n\nimport \"../interfaces/IJamiiFactory.sol\";\n\ncontract JamiiFactory is IJamiiFactory {\n    // Struct Arrays\n    // Candidate[] public candidates;\n    // address[] public registeredVoters;\n    Election[] public elections;\n    Ballot[] public ballots;\n\n    Candidate[] ballot_candidates;\n    address[] ballot_candidates_addr;\n    Voter[] ballot_voters;\n    address[] ballot_voters_addr;\n\n    // numbers\n    // uint256 public ballot_cost = 0;\n    // uint256 public election_cost = 340000000000000000; // $\n    uint256 public election_cost = 1000000000000000; // $\n    uint256 public get_winner_cost = 500000000000000000;\n    uint256 public open_paid_voting_cost = 88000000000000000; // $100\n    uint256 public candidates_count; // count candidates\n    uint256 public ballot_count;\n    uint256 public election_count;\n    uint256 public voters_count;\n    uint256 public election_type;\n    uint256 public current_block = block.number;\n    uint256[] public voter_ids;\n    uint256 public ballot_types = 3;\n    uint256 public ballot_type;\n    uint256 public max_ballots = 3;\n    uint256 public uid;\n\n    // strings\n    string public organization_name;\n\n    // addresses\n    address private owner = 0xdD870fA1b7C4700F2BD7f44238821C26f7392148;\n    address public ballot_owner;\n    address public election_owner;\n    // address private current_winner;\n    // address[] public ballot_candidates_arr;\n\n    // mappings\n    mapping(address => Ballot) public ballots_mapping;\n    mapping(uint256 => Ballot) public id_to_ballot_mapping;\n    mapping(uint256 => address[]) public ballot_candidate_mapping;\n    mapping(address => Candidate) public address_to_candidate_mapping; // store candidates\n    mapping(address => address[]) public chair_to_candidates;\n    mapping(address => Voter) public address_to_voter_mapping;\n    mapping(uint256 => Voter) public ballot_to_voter_mapping;\n    mapping(address => bytes32) public voter_to_unique_id;\n    mapping(uint256 => address) public id_to_voter;\n    // mapping(address => bool) public voters; // voters that have voted\n\n    // modifiers\n    modifier only_election_ballot_owner() {\n        require(\n            msg.sender == ballot_owner || msg.sender == election_owner,\n            \"Insufficient Permissions for this Action!\"\n        );\n        _;\n    }\n\n    // constructor - create an election with ballots\n    constructor(string memory _organization_name) public payable {\n        require(msg.value >= election_cost, \"Start an Election with $500\");\n        bytes memory bytes_organization_name = bytes(_organization_name);\n        require(\n            bytes_organization_name.length > 0,\n            \"Enter a valid Organization Name!\"\n        );\n        election_count = 0;\n        organization_name = _organization_name;\n        Election memory election = Election(\n            election_count,\n            msg.sender,\n            _organization_name,\n            true\n        );\n        election.election_id = election_count;\n        elections.push(election);\n        election_count++;\n        ballot_owner = msg.sender;\n        election_owner = msg.sender;\n        ballot_count = 0;\n        voters_count = 0;\n        uid = 100;\n        emit created_new_election(organization_name);\n    }\n\n    function create_open_ballot(\n        string memory _ballot_name,\n        address[] memory _ballot_candidates_addr,\n        uint256 _ballot_type,\n        uint256 _days,\n        uint256 _registration_period\n    ) public only_election_ballot_owner {\n        bytes memory bytes_ballot_name = bytes(_ballot_name);\n        require(bytes_ballot_name.length > 0, \"Enter a valid Ballot Name!\");\n        require(\n            _ballot_candidates_addr.length > 1,\n            \"Not Enough Ballot Candidates!\"\n        );\n        // require(msg.value >= ballot_cost, \"Not Enough Funds to Start a Ballot!\");\n        require(_ballot_type <= ballot_types, \"Not a valid Ballot Type!\");\n        require(\n            ballot_count < max_ballots,\n            \"You have reached the Max Limit of Ballots for this Election!\"\n        );\n        require(\n            _days > _registration_period,\n            \"Registration Period > Voting Days!\"\n        );\n\n        ballot_candidate_mapping[uid] = _ballot_candidates_addr;\n\n        uint256 n = _ballot_candidates_addr.length;\n        for (uint256 i = 0; i < n; i++) {\n            Candidate memory candidate = Candidate(\n                i,\n                uid,\n                _ballot_candidates_addr[i],\n                0\n            );\n            address_to_candidate_mapping[\n                _ballot_candidates_addr[i]\n            ] = candidate;\n        }\n\n        ballot_owner = msg.sender;\n        candidates_count = _ballot_candidates_addr.length;\n        Ballot memory new_ballot = Ballot(\n            uid,\n            _ballot_type,\n            _ballot_name,\n            msg.sender,\n            // ballot_candidates,\n            _ballot_candidates_addr,\n            // ballot_voters,\n            ballot_voters_addr,\n            0,\n            block.timestamp,\n            _days,\n            false,\n            _registration_period,\n            address(0x0),\n            false\n        );\n        ballots.push(new_ballot);\n        ballots_mapping[msg.sender] = new_ballot;\n        id_to_ballot_mapping[uid] = new_ballot;\n        chair_to_candidates[msg.sender] = _ballot_candidates_addr;\n        ballot_count++;\n        uid++;\n\n        emit created_ballot(ballot_count - 1);\n    }\n\n    // createBallot(_ballot_candidates)\n    // [\"0xf9d48aC9eC8F207AEF93518B51D2CdA61e596904\", \"0x6c0A17AEe0a1420583446B77f0c8a55e369Bb07e\"]\n\n    function create_closed_free_ballot(\n        string memory _ballot_name,\n        address[] memory _ballot_candidates,\n        uint256 _ballot_type\n    ) public payable only_election_ballot_owner returns (Ballot memory) {\n        // ballot_type = 1\n        ballot_count++;\n        emit created_ballot(ballot_count - 1);\n    }\n\n    function create_closed_paid_ballot(\n        string memory _ballot_name,\n        address[] memory _ballot_candidates,\n        uint256 _ballot_type\n    ) public payable only_election_ballot_owner returns (Ballot memory) {\n        // ballot_type = 2\n        ballot_count++;\n        emit created_ballot(ballot_count - 1);\n    }\n\n    // register a voter\n    function register_voter_open_ballot(uint256 _id_number, uint256 _ballot_id)\n        public\n        returns (bytes32)\n    {\n        uint256 int_ballot_id = _ballot_id - 100;\n        require(int_ballot_id < max_ballots, \"No such Ballot Exists!\");\n        // require(_ballot_id <= uid, \"No Such Ballot!\");\n        Ballot storage ballot = ballots[int_ballot_id];\n        // uint256 duration = (block.timestamp - ballot.open_date) / 60 / 60 / 24;\n        uint256 duration = (block.timestamp - ballot.open_date);\n\n        require(\n            (duration < (ballot.registration_window * 86400)),\n            \"Registration Period has Passed!\"\n        );\n        require(duration < (ballot._days * 86400), \"This Ballot Expired!\");\n        require(\n            id_to_voter[_id_number] == address(0x0),\n            \"This id_number is registered!\"\n        );\n        require(voter_to_unique_id[msg.sender] == 0, \"You already registered!\");\n\n        // id_number validation here\n        bytes32 unique_voter_id = keccak256(abi.encode(_id_number));\n        voter_to_unique_id[msg.sender] = unique_voter_id;\n\n        Voter memory new_voter = Voter(\n            voters_count,\n            msg.sender,\n            int_ballot_id,\n            true,\n            true,\n            false,\n            unique_voter_id\n        );\n        address_to_voter_mapping[msg.sender] = new_voter;\n        ballot_to_voter_mapping[int_ballot_id] = new_voter;\n        ballot.voters_count++;\n        id_to_voter[_id_number] = msg.sender;\n\n        // voter_ids.push(_id_number);\n        return unique_voter_id;\n\n        emit registered_voter(unique_voter_id);\n    }\n\n    // register voter closedPaidElection\n    function register_voter_paid_ballot(uint256 _id_number, uint256 _ballot_id)\n        public\n        returns (bytes32)\n    {\n        // retuen hashed_id;\n    }\n\n    function get_ballot(uint256 _ballot_id)\n        public\n        view\n        returns (Ballot memory)\n    {\n        // require(_ballot_id <= ballots.length, \"Invalid ballot Id!\");\n        // Ballot memory ballot = ballots[_ballot_id];\n        // if (ballot.ballot_type == 0) {\n        //     // open\n        //     return ballots[_ballot_id];\n        // } else if (ballot.ballot_type >= 1) {\n        //     // closed\n        //     require(\n        //         msg.sender == ballot_owner || msg.sender == election_owner,\n        //         \"You need Permissions for this Action!\"\n        //     ); // or authorized\n        //     return ballots[_ballot_id];\n        // }\n    }\n\n    function get_ballot_candidates_addr(uint256 _ballot_id)\n        public\n        view\n        returns (address[] memory)\n    {\n        require(_ballot_id <= ballots.length, \"Invalid ballot Id!\");\n        Ballot storage ballot = ballots[_ballot_id];\n        if (ballot.ballot_type == 0) {\n            // open\n            return ballots[_ballot_id].ballot_candidates_addr;\n        } else if (ballot.ballot_type >= 1) {\n            // closed\n            require(\n                msg.sender == ballot_owner || msg.sender == election_owner,\n                \"You need Permissions for this Action!\"\n            ); // or authorized\n            return ballots[_ballot_id].ballot_candidates_addr;\n        }\n    }\n\n    function get_registered_voters(uint256 _ballot_id)\n        public\n        view\n        returns (Voter[] memory)\n    {\n        require(_ballot_id <= ballots.length, \"Invalid ballot Id!\");\n        Ballot memory ballot = ballots[_ballot_id];\n        if (ballot.ballot_type == 0) {\n            // open\n            // return ballot.ballot_voters;\n        } else if (ballot.ballot_type >= 1) {\n            // closed\n            require(\n                msg.sender == ballot_owner || msg.sender == election_owner,\n                \"You need Permissions for this Action!\"\n            ); // or authorized\n            // return ballot.ballot_voters;\n        }\n    }\n\n    // function get_candidate(address _candidate_address, uint256 _ballot_id) public view returns (uint256) {\n    //     Candidate[] memory candidates = ballots[_ballot_id].ballot_candidates;\n    //     uint256 n = candidates.length;\n\n    //     for(uint256 i = 0; i < n; i++){\n    //         if(keccak256(abi.encodePacked((ballot_candidates[i].candidate_address))) == keccak256(abi.encodePacked((_candidate_address)))){\n    //             return i;\n    //         }\n    //     }\n    //     return 0;\n    // }\n\n    function get_election(uint256 _election_id)\n        public\n        view\n        only_election_ballot_owner\n        returns (Election memory)\n    {\n        require(_election_id <= ballots.length, \"Invalid election Id!\");\n        return elections[_election_id];\n    }\n\n    function assign_voting_rights(address _voter, uint256 _ballot_id)\n        public\n        only_election_ballot_owner\n    {\n        require(_ballot_id <= ballots.length, \"Invalid ballot Id!\");\n        Ballot memory ballot = ballots[_ballot_id];\n        uint256 duration = (block.timestamp - ballot.open_date) / 60 / 60 / 24;\n        require(duration > ballot._days, \"This Ballot Expired!\");\n        require(ballots.length > 0, \"No ballots Opened Yet!\");\n        require(\n            address_to_voter_mapping[msg.sender].ballot_id == _ballot_id,\n            \"Voter does NOT belong to this Ballot.\"\n        );\n        require(\n            ballot_type >= 1,\n            \"This Option is Possible in a Closed Ballot!\"\n        );\n        require(\n            address_to_voter_mapping[msg.sender].registered == true,\n            \"You are NOT a Registered Voter!\"\n        );\n        require(\n            address_to_voter_mapping[msg.sender].rights == false,\n            \"Address already has Voting Rights!\"\n        );\n\n        address_to_voter_mapping[msg.sender].rights = true;\n\n        emit assigned_voting_rights(_voter);\n    }\n\n    function find_winner(address _candidate, Ballot memory ballot)\n        private\n        returns (bool)\n    {\n        if (\n            address_to_candidate_mapping[_candidate].vote_count + 1 >\n            address_to_candidate_mapping[ballot.current_winner].vote_count\n        ) {\n            ballot.current_winner = _candidate;\n            ballot.tie = false;\n        } else if (\n            address_to_candidate_mapping[_candidate].vote_count + 1 ==\n            address_to_candidate_mapping[ballot.current_winner].vote_count\n        ) {\n            ballot.tie = true;\n        }\n        return ballot.tie;\n    }\n\n    function vote_open_ballot(address _candidate, uint256 _ballot_id) public {\n        uint256 int_ballot_id = _ballot_id - 100;\n        Ballot memory ballot = id_to_ballot_mapping[_ballot_id];\n        ballot.current_winner = _candidate;\n        // uint256 duration = (block.timestamp - ballot.open_date) / 60 / 60 / 24;\n\n        // require(\n        //     duration > ballot.registration_window,\n        //     \"Registration Period is NOT Completed!\"\n        // );\n\n        require(ballot.ballot_type == 0, \"This Is an Open Ballot!\");\n        require(\n            address_to_voter_mapping[msg.sender].registered == true,\n            \"Please Register to Vote!\"\n        );\n        require(\n            !address_to_voter_mapping[msg.sender].voted,\n            \"You already CAST your Vote!\"\n        );\n        require(\n            id_to_ballot_mapping[_ballot_id].ballot_id == _ballot_id,\n            \"Invalid Ballot Id!\"\n        );\n\n        require(\n            address_to_candidate_mapping[_candidate].ballot_id == _ballot_id,\n            \"Candidate does not exist in Ballot!\"\n        );\n        require(ballot.expired == false, \"Ballot has Expired\");\n\n        find_winner(_candidate, ballot);\n\n        address_to_candidate_mapping[_candidate].vote_count++;\n        address_to_voter_mapping[msg.sender].voted = true;\n\n        emit voted(_candidate);\n    }\n\n    function vote_open_paid_ballot(address _candidate, uint256 _ballot_id)\n        public\n        payable\n    {\n        Ballot memory ballot = ballots[_ballot_id];\n        ballot.current_winner = _candidate;\n\n        require(ballot.ballot_type == 1, \"This Is an Open Paid Ballot!\");\n        require(msg.value >= open_paid_voting_cost, \"Cast vote with 1 ETH!\");\n        require(\n            address_to_voter_mapping[msg.sender].registered = true,\n            \"You are NOT a registered Voter!\"\n        );\n        require(\n            address_to_voter_mapping[msg.sender].rights = true,\n            \"You don't have any Voting Rights!\"\n        );\n        require(\n            !address_to_voter_mapping[msg.sender].voted,\n            \"You already cast your vote!\"\n        );\n        require(current_block <= block.number, \"This Ballot Ended!\");\n        require(\n            address_to_candidate_mapping[_candidate].ballot_id != _ballot_id,\n            \"Candidate does not exist in Ballot!\"\n        );\n\n        if (\n            address_to_candidate_mapping[_candidate].vote_count + 1 >\n            address_to_candidate_mapping[ballot.current_winner].vote_count\n        ) {\n            ballot.current_winner = _candidate;\n        }\n\n        address_to_candidate_mapping[_candidate].vote_count++;\n        address_to_voter_mapping[msg.sender].voted = true;\n\n        emit voted(_candidate);\n    }\n\n    function vote_closed_paid_ballot(address _candidate) public payable {\n        require(election_type == 2);\n    }\n\n    function vote(address _candidate, uint256 _ballot_id) public payable {\n        if (election_type == 0) {\n            vote_open_ballot(_candidate, _ballot_id);\n        } else if (election_type == 1) {\n            vote_open_paid_ballot(_candidate, _ballot_id);\n        } else if (election_type == 2) {\n            vote_closed_paid_ballot(_candidate);\n        }\n    }\n\n    function get_winner(uint256 _ballot_id) public payable returns (address) {\n        Ballot storage ballot = ballots[_ballot_id - 100];\n\n        uint256 duration = (block.timestamp - ballot.open_date) / 60 / 60 / 24;\n\n        require(duration < ballot._days, \"This Ballot is still Open!\");\n        require(msg.value >= get_winner_cost, \"Get results with 1 ETH!\");\n        require(\n            _ballot_id <= ballot_count,\n            \"Ballot with that Id does NOT exist!\"\n        );\n\n        if (ballot.tie == true) {\n            emit tied_ballot(ballot.tie);\n        } else {\n            address winner = ballot.current_winner;\n            return winner;\n        }\n    }\n\n    function end_open_ballot(uint256 _ballot_id) public {\n        require(msg.sender == ballot_owner, \"You don't OWN this Ballot!\");\n        Ballot storage ballot = ballots[_ballot_id - 100];\n        uint256 duration = (block.timestamp - ballot.open_date) / 60 / 60 / 24;\n        require(duration < ballot._days, \"This Ballot is NOT yet Expired!\");\n        payable(ballot_owner).transfer(address(this).balance);\n\n        ballot.expired = true;\n        ballots_mapping[msg.sender].expired = true;\n        id_to_ballot_mapping[_ballot_id].expired = true;\n    }\n\n    function end_election(uint256 _election_id) public {\n        require(msg.sender == owner);\n        payable(owner).transfer(address(this).balance);\n        Election memory election = get_election(_election_id);\n        election.open = false;\n    }\n\n    function withdraw(bool _destroy) public {\n        require(msg.sender == owner);\n        if (_destroy) {\n            payable(owner).transfer(address(this).balance);\n        } else {\n            payable(owner).transfer(address(this).balance);\n        }\n    }\n}\n","sourcePath":"contracts/JamiiFactory.sol","type":"contract","deployment":{"address":"0xF79362f30d69c1BB407ecfd535585d197713Ed48","chainid":"4","blockHeight":11048913}}